{
  "_format": "hh-sol-artifact-1",
  "contractName": "CreateCharacter",
  "sourceName": "contracts/CreateCharacter.sol",
  "abi": [
    {
      "inputs": [],
      "stateMutability": "nonpayable",
      "type": "constructor"
    },
    {
      "inputs": [
        {
          "internalType": "address",
          "name": "target",
          "type": "address"
        }
      ],
      "name": "AddressEmptyCode",
      "type": "error"
    },
    {
      "inputs": [],
      "name": "ECDSAInvalidSignature",
      "type": "error"
    },
    {
      "inputs": [
        {
          "internalType": "uint256",
          "name": "length",
          "type": "uint256"
        }
      ],
      "name": "ECDSAInvalidSignatureLength",
      "type": "error"
    },
    {
      "inputs": [
        {
          "internalType": "bytes32",
          "name": "s",
          "type": "bytes32"
        }
      ],
      "name": "ECDSAInvalidSignatureS",
      "type": "error"
    },
    {
      "inputs": [
        {
          "internalType": "address",
          "name": "implementation",
          "type": "address"
        }
      ],
      "name": "ERC1967InvalidImplementation",
      "type": "error"
    },
    {
      "inputs": [],
      "name": "ERC1967NonPayable",
      "type": "error"
    },
    {
      "inputs": [],
      "name": "ERC721EnumerableForbiddenBatchMint",
      "type": "error"
    },
    {
      "inputs": [
        {
          "internalType": "address",
          "name": "sender",
          "type": "address"
        },
        {
          "internalType": "uint256",
          "name": "tokenId",
          "type": "uint256"
        },
        {
          "internalType": "address",
          "name": "owner",
          "type": "address"
        }
      ],
      "name": "ERC721IncorrectOwner",
      "type": "error"
    },
    {
      "inputs": [
        {
          "internalType": "address",
          "name": "operator",
          "type": "address"
        },
        {
          "internalType": "uint256",
          "name": "tokenId",
          "type": "uint256"
        }
      ],
      "name": "ERC721InsufficientApproval",
      "type": "error"
    },
    {
      "inputs": [
        {
          "internalType": "address",
          "name": "approver",
          "type": "address"
        }
      ],
      "name": "ERC721InvalidApprover",
      "type": "error"
    },
    {
      "inputs": [
        {
          "internalType": "address",
          "name": "operator",
          "type": "address"
        }
      ],
      "name": "ERC721InvalidOperator",
      "type": "error"
    },
    {
      "inputs": [
        {
          "internalType": "address",
          "name": "owner",
          "type": "address"
        }
      ],
      "name": "ERC721InvalidOwner",
      "type": "error"
    },
    {
      "inputs": [
        {
          "internalType": "address",
          "name": "receiver",
          "type": "address"
        }
      ],
      "name": "ERC721InvalidReceiver",
      "type": "error"
    },
    {
      "inputs": [
        {
          "internalType": "address",
          "name": "sender",
          "type": "address"
        }
      ],
      "name": "ERC721InvalidSender",
      "type": "error"
    },
    {
      "inputs": [
        {
          "internalType": "uint256",
          "name": "tokenId",
          "type": "uint256"
        }
      ],
      "name": "ERC721NonexistentToken",
      "type": "error"
    },
    {
      "inputs": [
        {
          "internalType": "address",
          "name": "owner",
          "type": "address"
        },
        {
          "internalType": "uint256",
          "name": "index",
          "type": "uint256"
        }
      ],
      "name": "ERC721OutOfBoundsIndex",
      "type": "error"
    },
    {
      "inputs": [],
      "name": "EnforcedPause",
      "type": "error"
    },
    {
      "inputs": [],
      "name": "ExpectedPause",
      "type": "error"
    },
    {
      "inputs": [],
      "name": "FailedInnerCall",
      "type": "error"
    },
    {
      "inputs": [],
      "name": "InvalidInitialization",
      "type": "error"
    },
    {
      "inputs": [],
      "name": "NotInitializing",
      "type": "error"
    },
    {
      "inputs": [
        {
          "internalType": "address",
          "name": "owner",
          "type": "address"
        }
      ],
      "name": "OwnableInvalidOwner",
      "type": "error"
    },
    {
      "inputs": [
        {
          "internalType": "address",
          "name": "account",
          "type": "address"
        }
      ],
      "name": "OwnableUnauthorizedAccount",
      "type": "error"
    },
    {
      "inputs": [],
      "name": "UUPSUnauthorizedCallContext",
      "type": "error"
    },
    {
      "inputs": [
        {
          "internalType": "bytes32",
          "name": "slot",
          "type": "bytes32"
        }
      ],
      "name": "UUPSUnsupportedProxiableUUID",
      "type": "error"
    },
    {
      "anonymous": false,
      "inputs": [
        {
          "indexed": true,
          "internalType": "address",
          "name": "owner",
          "type": "address"
        },
        {
          "indexed": true,
          "internalType": "address",
          "name": "approved",
          "type": "address"
        },
        {
          "indexed": true,
          "internalType": "uint256",
          "name": "tokenId",
          "type": "uint256"
        }
      ],
      "name": "Approval",
      "type": "event"
    },
    {
      "anonymous": false,
      "inputs": [
        {
          "indexed": true,
          "internalType": "address",
          "name": "owner",
          "type": "address"
        },
        {
          "indexed": true,
          "internalType": "address",
          "name": "operator",
          "type": "address"
        },
        {
          "indexed": false,
          "internalType": "bool",
          "name": "approved",
          "type": "bool"
        }
      ],
      "name": "ApprovalForAll",
      "type": "event"
    },
    {
      "anonymous": false,
      "inputs": [
        {
          "indexed": false,
          "internalType": "uint256",
          "name": "_fromTokenId",
          "type": "uint256"
        },
        {
          "indexed": false,
          "internalType": "uint256",
          "name": "_toTokenId",
          "type": "uint256"
        }
      ],
      "name": "BatchMetadataUpdate",
      "type": "event"
    },
    {
      "anonymous": false,
      "inputs": [
        {
          "indexed": true,
          "internalType": "address",
          "name": "user",
          "type": "address"
        },
        {
          "indexed": false,
          "internalType": "uint256",
          "name": "tokenId",
          "type": "uint256"
        },
        {
          "indexed": false,
          "internalType": "string",
          "name": "name",
          "type": "string"
        },
        {
          "indexed": false,
          "internalType": "string",
          "name": "imageURI",
          "type": "string"
        },
        {
          "indexed": false,
          "internalType": "string",
          "name": "avatarType",
          "type": "string"
        },
        {
          "indexed": false,
          "internalType": "uint256",
          "name": "itemSlots",
          "type": "uint256"
        },
        {
          "indexed": false,
          "internalType": "uint256",
          "name": "registrationDate",
          "type": "uint256"
        }
      ],
      "name": "CharacterMinted",
      "type": "event"
    },
    {
      "anonymous": false,
      "inputs": [
        {
          "indexed": false,
          "internalType": "uint256",
          "name": "tokenId",
          "type": "uint256"
        },
        {
          "indexed": false,
          "internalType": "uint256",
          "name": "totalExperience",
          "type": "uint256"
        }
      ],
      "name": "ExperienceUpdated",
      "type": "event"
    },
    {
      "anonymous": false,
      "inputs": [
        {
          "indexed": false,
          "internalType": "uint256",
          "name": "tokenId",
          "type": "uint256"
        },
        {
          "indexed": false,
          "internalType": "uint256",
          "name": "totalExperience",
          "type": "uint256"
        },
        {
          "indexed": false,
          "internalType": "uint256",
          "name": "lastAddedSlot",
          "type": "uint256"
        }
      ],
      "name": "ExperienceUpdatedWithSlot",
      "type": "event"
    },
    {
      "anonymous": false,
      "inputs": [
        {
          "indexed": false,
          "internalType": "uint64",
          "name": "version",
          "type": "uint64"
        }
      ],
      "name": "Initialized",
      "type": "event"
    },
    {
      "anonymous": false,
      "inputs": [
        {
          "indexed": false,
          "internalType": "uint256",
          "name": "_tokenId",
          "type": "uint256"
        }
      ],
      "name": "MetadataUpdate",
      "type": "event"
    },
    {
      "anonymous": false,
      "inputs": [
        {
          "indexed": true,
          "internalType": "address",
          "name": "previousOwner",
          "type": "address"
        },
        {
          "indexed": true,
          "internalType": "address",
          "name": "newOwner",
          "type": "address"
        }
      ],
      "name": "OwnershipTransferred",
      "type": "event"
    },
    {
      "anonymous": false,
      "inputs": [
        {
          "indexed": false,
          "internalType": "address",
          "name": "account",
          "type": "address"
        }
      ],
      "name": "Paused",
      "type": "event"
    },
    {
      "anonymous": false,
      "inputs": [
        {
          "indexed": true,
          "internalType": "address",
          "name": "from",
          "type": "address"
        },
        {
          "indexed": true,
          "internalType": "address",
          "name": "to",
          "type": "address"
        },
        {
          "indexed": true,
          "internalType": "uint256",
          "name": "tokenId",
          "type": "uint256"
        }
      ],
      "name": "Transfer",
      "type": "event"
    },
    {
      "anonymous": false,
      "inputs": [
        {
          "indexed": false,
          "internalType": "address",
          "name": "account",
          "type": "address"
        }
      ],
      "name": "Unpaused",
      "type": "event"
    },
    {
      "anonymous": false,
      "inputs": [
        {
          "indexed": true,
          "internalType": "address",
          "name": "implementation",
          "type": "address"
        }
      ],
      "name": "Upgraded",
      "type": "event"
    },
    {
      "inputs": [],
      "name": "UPGRADE_INTERFACE_VERSION",
      "outputs": [
        {
          "internalType": "string",
          "name": "",
          "type": "string"
        }
      ],
      "stateMutability": "view",
      "type": "function"
    },
    {
      "inputs": [
        {
          "internalType": "address",
          "name": "to",
          "type": "address"
        },
        {
          "internalType": "uint256",
          "name": "tokenId",
          "type": "uint256"
        }
      ],
      "name": "approve",
      "outputs": [],
      "stateMutability": "nonpayable",
      "type": "function"
    },
    {
      "inputs": [
        {
          "internalType": "address",
          "name": "owner",
          "type": "address"
        }
      ],
      "name": "balanceOf",
      "outputs": [
        {
          "internalType": "uint256",
          "name": "",
          "type": "uint256"
        }
      ],
      "stateMutability": "view",
      "type": "function"
    },
    {
      "inputs": [
        {
          "components": [
            {
              "internalType": "uint256",
              "name": "tokenId",
              "type": "uint256"
            },
            {
              "internalType": "uint256",
              "name": "rewardAmount",
              "type": "uint256"
            },
            {
              "internalType": "uint256",
              "name": "timestamp",
              "type": "uint256"
            },
            {
              "internalType": "bytes",
              "name": "signature",
              "type": "bytes"
            }
          ],
          "internalType": "struct CreateCharacter.BurnRequest",
          "name": "params",
          "type": "tuple"
        }
      ],
      "name": "burnCharacterForReward",
      "outputs": [],
      "stateMutability": "nonpayable",
      "type": "function"
    },
    {
      "inputs": [],
      "name": "dungeonAdventure",
      "outputs": [
        {
          "internalType": "contract DungeonAdventure",
          "name": "",
          "type": "address"
        }
      ],
      "stateMutability": "view",
      "type": "function"
    },
    {
      "inputs": [],
      "name": "gameTreasury",
      "outputs": [
        {
          "internalType": "contract GameTreasury",
          "name": "",
          "type": "address"
        }
      ],
      "stateMutability": "view",
      "type": "function"
    },
    {
      "inputs": [
        {
          "internalType": "uint256",
          "name": "tokenId",
          "type": "uint256"
        }
      ],
      "name": "getApproved",
      "outputs": [
        {
          "internalType": "address",
          "name": "",
          "type": "address"
        }
      ],
      "stateMutability": "view",
      "type": "function"
    },
    {
      "inputs": [
        {
          "internalType": "uint256",
          "name": "tokenId",
          "type": "uint256"
        }
      ],
      "name": "getCharacterExp",
      "outputs": [
        {
          "internalType": "uint256",
          "name": "",
          "type": "uint256"
        }
      ],
      "stateMutability": "view",
      "type": "function"
    },
    {
      "inputs": [
        {
          "internalType": "uint256",
          "name": "tokenId",
          "type": "uint256"
        }
      ],
      "name": "getCharacterMetadata",
      "outputs": [
        {
          "internalType": "string",
          "name": "",
          "type": "string"
        },
        {
          "internalType": "string",
          "name": "",
          "type": "string"
        },
        {
          "internalType": "uint256",
          "name": "",
          "type": "uint256"
        },
        {
          "internalType": "uint256[]",
          "name": "",
          "type": "uint256[]"
        },
        {
          "internalType": "uint256",
          "name": "",
          "type": "uint256"
        }
      ],
      "stateMutability": "view",
      "type": "function"
    },
    {
      "inputs": [
        {
          "internalType": "address",
          "name": "owner",
          "type": "address"
        }
      ],
      "name": "getCharactersByOwner",
      "outputs": [
        {
          "components": [
            {
              "internalType": "uint256",
              "name": "id",
              "type": "uint256"
            },
            {
              "internalType": "string",
              "name": "name",
              "type": "string"
            },
            {
              "internalType": "string",
              "name": "imageURI",
              "type": "string"
            },
            {
              "internalType": "string",
              "name": "avatarType",
              "type": "string"
            },
            {
              "internalType": "uint256",
              "name": "experience",
              "type": "uint256"
            },
            {
              "internalType": "uint256[]",
              "name": "openSlots",
              "type": "uint256[]"
            },
            {
              "internalType": "uint256",
              "name": "energy",
              "type": "uint256"
            },
            {
              "internalType": "uint256",
              "name": "lastEnergyUpdateTime",
              "type": "uint256"
            }
          ],
          "internalType": "struct CreateCharacter.CharacterDetails[]",
          "name": "",
          "type": "tuple[]"
        }
      ],
      "stateMutability": "view",
      "type": "function"
    },
    {
      "inputs": [
        {
          "internalType": "uint256",
          "name": "tokenId",
          "type": "uint256"
        }
      ],
      "name": "getRegistrationDate",
      "outputs": [
        {
          "internalType": "uint256",
          "name": "",
          "type": "uint256"
        }
      ],
      "stateMutability": "view",
      "type": "function"
    },
    {
      "inputs": [
        {
          "internalType": "string",
          "name": "_type",
          "type": "string"
        }
      ],
      "name": "getTypeCount",
      "outputs": [
        {
          "internalType": "uint256",
          "name": "",
          "type": "uint256"
        }
      ],
      "stateMutability": "view",
      "type": "function"
    },
    {
      "inputs": [
        {
          "internalType": "address",
          "name": "initialOwner",
          "type": "address"
        },
        {
          "internalType": "address",
          "name": "_gameTreasuryAddress",
          "type": "address"
        },
        {
          "internalType": "address",
          "name": "_authorizedSinger",
          "type": "address"
        },
        {
          "internalType": "address",
          "name": "_dungeonAdventureAddress",
          "type": "address"
        },
        {
          "internalType": "address",
          "name": "_paymentToken",
          "type": "address"
        }
      ],
      "name": "initialize",
      "outputs": [],
      "stateMutability": "nonpayable",
      "type": "function"
    },
    {
      "inputs": [
        {
          "internalType": "address",
          "name": "owner",
          "type": "address"
        },
        {
          "internalType": "address",
          "name": "operator",
          "type": "address"
        }
      ],
      "name": "isApprovedForAll",
      "outputs": [
        {
          "internalType": "bool",
          "name": "",
          "type": "bool"
        }
      ],
      "stateMutability": "view",
      "type": "function"
    },
    {
      "inputs": [
        {
          "components": [
            {
              "internalType": "address",
              "name": "to",
              "type": "address"
            },
            {
              "internalType": "string",
              "name": "name",
              "type": "string"
            },
            {
              "internalType": "string",
              "name": "imageURI",
              "type": "string"
            },
            {
              "internalType": "string",
              "name": "avatarType",
              "type": "string"
            },
            {
              "internalType": "uint256",
              "name": "tokenAmount",
              "type": "uint256"
            },
            {
              "internalType": "bytes",
              "name": "signature",
              "type": "bytes"
            },
            {
              "internalType": "uint256",
              "name": "timestamp",
              "type": "uint256"
            }
          ],
          "internalType": "struct CreateCharacter.CharacterMint",
          "name": "params",
          "type": "tuple"
        }
      ],
      "name": "mintCharacter",
      "outputs": [
        {
          "internalType": "uint256",
          "name": "",
          "type": "uint256"
        }
      ],
      "stateMutability": "nonpayable",
      "type": "function"
    },
    {
      "inputs": [],
      "name": "name",
      "outputs": [
        {
          "internalType": "string",
          "name": "",
          "type": "string"
        }
      ],
      "stateMutability": "view",
      "type": "function"
    },
    {
      "inputs": [],
      "name": "owner",
      "outputs": [
        {
          "internalType": "address",
          "name": "",
          "type": "address"
        }
      ],
      "stateMutability": "view",
      "type": "function"
    },
    {
      "inputs": [
        {
          "internalType": "uint256",
          "name": "tokenId",
          "type": "uint256"
        }
      ],
      "name": "ownerOf",
      "outputs": [
        {
          "internalType": "address",
          "name": "",
          "type": "address"
        }
      ],
      "stateMutability": "view",
      "type": "function"
    },
    {
      "inputs": [],
      "name": "pause",
      "outputs": [],
      "stateMutability": "nonpayable",
      "type": "function"
    },
    {
      "inputs": [],
      "name": "paused",
      "outputs": [
        {
          "internalType": "bool",
          "name": "",
          "type": "bool"
        }
      ],
      "stateMutability": "view",
      "type": "function"
    },
    {
      "inputs": [],
      "name": "paymentToken",
      "outputs": [
        {
          "internalType": "contract IERC20",
          "name": "",
          "type": "address"
        }
      ],
      "stateMutability": "view",
      "type": "function"
    },
    {
      "inputs": [],
      "name": "proxiableUUID",
      "outputs": [
        {
          "internalType": "bytes32",
          "name": "",
          "type": "bytes32"
        }
      ],
      "stateMutability": "view",
      "type": "function"
    },
    {
      "inputs": [],
      "name": "renounceOwnership",
      "outputs": [],
      "stateMutability": "nonpayable",
      "type": "function"
    },
    {
      "inputs": [
        {
          "internalType": "address",
          "name": "to",
          "type": "address"
        },
        {
          "internalType": "string",
          "name": "uri",
          "type": "string"
        }
      ],
      "name": "safeMint",
      "outputs": [],
      "stateMutability": "nonpayable",
      "type": "function"
    },
    {
      "inputs": [
        {
          "internalType": "address",
          "name": "from",
          "type": "address"
        },
        {
          "internalType": "address",
          "name": "to",
          "type": "address"
        },
        {
          "internalType": "uint256",
          "name": "tokenId",
          "type": "uint256"
        }
      ],
      "name": "safeTransferFrom",
      "outputs": [],
      "stateMutability": "nonpayable",
      "type": "function"
    },
    {
      "inputs": [
        {
          "internalType": "address",
          "name": "from",
          "type": "address"
        },
        {
          "internalType": "address",
          "name": "to",
          "type": "address"
        },
        {
          "internalType": "uint256",
          "name": "tokenId",
          "type": "uint256"
        },
        {
          "internalType": "bytes",
          "name": "data",
          "type": "bytes"
        }
      ],
      "name": "safeTransferFrom",
      "outputs": [],
      "stateMutability": "nonpayable",
      "type": "function"
    },
    {
      "inputs": [
        {
          "internalType": "address",
          "name": "operator",
          "type": "address"
        },
        {
          "internalType": "bool",
          "name": "approved",
          "type": "bool"
        }
      ],
      "name": "setApprovalForAll",
      "outputs": [],
      "stateMutability": "nonpayable",
      "type": "function"
    },
    {
      "inputs": [
        {
          "internalType": "address",
          "name": "_authorizedSigner",
          "type": "address"
        }
      ],
      "name": "setAuthorizedSigner",
      "outputs": [],
      "stateMutability": "nonpayable",
      "type": "function"
    },
    {
      "inputs": [
        {
          "internalType": "address",
          "name": "_dungeonAdventureAddress",
          "type": "address"
        }
      ],
      "name": "setDungeonAdventureAddress",
      "outputs": [],
      "stateMutability": "nonpayable",
      "type": "function"
    },
    {
      "inputs": [
        {
          "internalType": "address",
          "name": "_gameTreasuryAddress",
          "type": "address"
        }
      ],
      "name": "setGameTreasuryAddress",
      "outputs": [],
      "stateMutability": "nonpayable",
      "type": "function"
    },
    {
      "inputs": [
        {
          "internalType": "address",
          "name": "_tokenAddress",
          "type": "address"
        }
      ],
      "name": "setPaymentToken",
      "outputs": [],
      "stateMutability": "nonpayable",
      "type": "function"
    },
    {
      "inputs": [
        {
          "internalType": "bytes4",
          "name": "interfaceId",
          "type": "bytes4"
        }
      ],
      "name": "supportsInterface",
      "outputs": [
        {
          "internalType": "bool",
          "name": "",
          "type": "bool"
        }
      ],
      "stateMutability": "view",
      "type": "function"
    },
    {
      "inputs": [],
      "name": "symbol",
      "outputs": [
        {
          "internalType": "string",
          "name": "",
          "type": "string"
        }
      ],
      "stateMutability": "view",
      "type": "function"
    },
    {
      "inputs": [
        {
          "internalType": "uint256",
          "name": "index",
          "type": "uint256"
        }
      ],
      "name": "tokenByIndex",
      "outputs": [
        {
          "internalType": "uint256",
          "name": "",
          "type": "uint256"
        }
      ],
      "stateMutability": "view",
      "type": "function"
    },
    {
      "inputs": [
        {
          "internalType": "address",
          "name": "owner",
          "type": "address"
        },
        {
          "internalType": "uint256",
          "name": "index",
          "type": "uint256"
        }
      ],
      "name": "tokenOfOwnerByIndex",
      "outputs": [
        {
          "internalType": "uint256",
          "name": "",
          "type": "uint256"
        }
      ],
      "stateMutability": "view",
      "type": "function"
    },
    {
      "inputs": [
        {
          "internalType": "uint256",
          "name": "tokenId",
          "type": "uint256"
        }
      ],
      "name": "tokenURI",
      "outputs": [
        {
          "internalType": "string",
          "name": "",
          "type": "string"
        }
      ],
      "stateMutability": "view",
      "type": "function"
    },
    {
      "inputs": [],
      "name": "totalSupply",
      "outputs": [
        {
          "internalType": "uint256",
          "name": "",
          "type": "uint256"
        }
      ],
      "stateMutability": "view",
      "type": "function"
    },
    {
      "inputs": [
        {
          "internalType": "address",
          "name": "from",
          "type": "address"
        },
        {
          "internalType": "address",
          "name": "to",
          "type": "address"
        },
        {
          "internalType": "uint256",
          "name": "tokenId",
          "type": "uint256"
        }
      ],
      "name": "transferFrom",
      "outputs": [],
      "stateMutability": "nonpayable",
      "type": "function"
    },
    {
      "inputs": [
        {
          "internalType": "address",
          "name": "newOwner",
          "type": "address"
        }
      ],
      "name": "transferOwnership",
      "outputs": [],
      "stateMutability": "nonpayable",
      "type": "function"
    },
    {
      "inputs": [],
      "name": "unpause",
      "outputs": [],
      "stateMutability": "nonpayable",
      "type": "function"
    },
    {
      "inputs": [
        {
          "internalType": "uint256",
          "name": "tokenId",
          "type": "uint256"
        },
        {
          "internalType": "uint256",
          "name": "additionalExperience",
          "type": "uint256"
        },
        {
          "internalType": "uint256[]",
          "name": "newSlots",
          "type": "uint256[]"
        }
      ],
      "name": "updateExperience",
      "outputs": [],
      "stateMutability": "nonpayable",
      "type": "function"
    },
    {
      "inputs": [
        {
          "internalType": "address",
          "name": "newImplementation",
          "type": "address"
        },
        {
          "internalType": "bytes",
          "name": "data",
          "type": "bytes"
        }
      ],
      "name": "upgradeToAndCall",
      "outputs": [],
      "stateMutability": "payable",
      "type": "function"
    }
  ],
  "bytecode": "0x60a0604052306080523480156200001557600080fd5b506200002062000026565b620000da565b7ff0c57e16840df040f15088dc2f81fe391c3923bec73e23a9662efc9c229c6a00805468010000000000000000900460ff1615620000775760405163f92ee8a960e01b815260040160405180910390fd5b80546001600160401b0390811614620000d75780546001600160401b0319166001600160401b0390811782556040519081527fc7f505b2f371ae2175ee4913f4499e1f2633a7b5936321eed1cdaeb6115181d29060200160405180910390a15b50565b608051614025620001046000396000818161232b01528181612354015261249501526140256000f3fe6080604052600436106102515760003560e01c806365e5a94b11610139578063ad3cb1cc116100b6578063d204c45e1161007a578063d204c45e14610720578063d279b0ca14610740578063d2f9efab14610760578063df9b3eb714610780578063e985e9c5146107a0578063f2fde38b146107c057600080fd5b8063ad3cb1cc1461066f578063b2a496f6146106a0578063b88d4fde146106c0578063c87b56dd146106e0578063d070aebb1461070057600080fd5b80638d99ba4d116100fd5780638d99ba4d146105bd5780638da5cb5b146105dd57806395d89b411461061a578063a1365bf11461062f578063a22cb4651461064f57600080fd5b806365e5a94b146105265780636a326ab11461055357806370a0823114610573578063715018a6146105935780638456cb59146105a857600080fd5b806331f84d3d116101d25780634f1ef286116101965780634f1ef286146104795780634f6ccce71461048c57806351747ce8146104ac57806352d1902d146104cc5780635c975abb146104e15780636352211e1461050657600080fd5b806331f84d3d146103d35780633c2ec44c146103f35780633f4ba83a14610424578063404a7ede1461043957806342842e0e1461045957600080fd5b806318160ddd1161021957806318160ddd1461032757806323b872dd146103535780632f56d04b146103735780632f745c59146103935780633013ce29146103b357600080fd5b806301ffc9a71461025657806306fdde031461028b578063081812fc146102ad578063095ea7b3146102e55780631459457a14610307575b600080fd5b34801561026257600080fd5b5061027661027136600461343f565b6107e0565b60405190151581526020015b60405180910390f35b34801561029757600080fd5b506102a06107f1565b60405161028291906134ac565b3480156102b957600080fd5b506102cd6102c83660046134bf565b610895565b6040516001600160a01b039091168152602001610282565b3480156102f157600080fd5b506103056103003660046134f4565b6108aa565b005b34801561031357600080fd5b5061030561032236600461351e565b6108b9565b34801561033357600080fd5b50600080516020613fb0833981519152545b604051908152602001610282565b34801561035f57600080fd5b5061030561036e366004613583565b610a8c565b34801561037f57600080fd5b5061030561038e366004613605565b610b1c565b34801561039f57600080fd5b506103456103ae3660046134f4565b610ce6565b3480156103bf57600080fd5b506004546102cd906001600160a01b031681565b3480156103df57600080fd5b506103056103ee3660046136bf565b610d5a565b3480156103ff57600080fd5b5061041361040e3660046134bf565b610d84565b604051610282959493929190613715565b34801561043057600080fd5b50610305610ff8565b34801561044557600080fd5b50610305610454366004613767565b61100a565b34801561046557600080fd5b50610305610474366004613583565b61124c565b610305610487366004613810565b611267565b34801561049857600080fd5b506103456104a73660046134bf565b611282565b3480156104b857600080fd5b506103456104c73660046134bf565b6112fa565b3480156104d857600080fd5b5061034561136f565b3480156104ed57600080fd5b50600080516020613fd08339815191525460ff16610276565b34801561051257600080fd5b506102cd6105213660046134bf565b61138c565b34801561053257600080fd5b506105466105413660046136bf565b611397565b604051610282919061385d565b34801561055f57600080fd5b5061030561056e3660046136bf565b6117fc565b34801561057f57600080fd5b5061034561058e3660046136bf565b611826565b34801561059f57600080fd5b50610305611882565b3480156105b457600080fd5b50610305611894565b3480156105c957600080fd5b506002546102cd906001600160a01b031681565b3480156105e957600080fd5b507f9016d09d72d40fdae2fd8ceac6b6234c7706214fd39c1cd1e609a0528c199300546001600160a01b03166102cd565b34801561062657600080fd5b506102a06118a4565b34801561063b57600080fd5b5061030561064a3660046136bf565b6118e3565b34801561065b57600080fd5b5061030561066a366004613952565b61190d565b34801561067b57600080fd5b506102a0604051806040016040528060058152602001640352e302e360dc1b81525081565b3480156106ac57600080fd5b506103456106bb366004613989565b611918565b3480156106cc57600080fd5b506103056106db3660046139c5565b611940565b3480156106ec57600080fd5b506102a06106fb3660046134bf565b611957565b34801561070c57600080fd5b5061034561071b3660046134bf565b611a70565b34801561072c57600080fd5b5061030561073b366004613810565b611ae4565b34801561074c57600080fd5b5061030561075b3660046136bf565b611b15565b34801561076c57600080fd5b506001546102cd906001600160a01b031681565b34801561078c57600080fd5b5061034561079b366004613a2c565b611b3f565b3480156107ac57600080fd5b506102766107bb366004613a66565b61207f565b3480156107cc57600080fd5b506103056107db3660046136bf565b6120cc565b60006107eb8261210a565b92915050565b600080516020613f70833981519152805460609190819061081190613a99565b80601f016020809104026020016040519081016040528092919081815260200182805461083d90613a99565b801561088a5780601f1061085f5761010080835404028352916020019161088a565b820191906000526020600020905b81548152906001019060200180831161086d57829003601f168201915b505050505091505090565b60006108a08261212f565b506107eb82612167565b6108b58282336121a1565b5050565b7ff0c57e16840df040f15088dc2f81fe391c3923bec73e23a9662efc9c229c6a008054600160401b810460ff1615906001600160401b03166000811580156108fe5750825b90506000826001600160401b0316600114801561091a5750303b155b905081158015610928575080155b156109465760405163f92ee8a960e01b815260040160405180910390fd5b845467ffffffffffffffff19166001178555831561097057845460ff60401b1916600160401b1785555b6109798a6121ae565b6109c06040518060400160405280600981526020016821b430b930b1ba32b960b91b8152506040518060400160405280600481526020016321a420a960e11b8152506121bf565b6109c86121d1565b6109d06121d1565b6109d86121d9565b6109e06121d1565b600180546001600160a01b03808c166001600160a01b031992831617909255600380548b84169083161790556004805489841690831617905560028054928a1692909116919091179055600080549003610a3a5760016000555b8315610a8057845460ff60401b19168555604051600181527fc7f505b2f371ae2175ee4913f4499e1f2633a7b5936321eed1cdaeb6115181d29060200160405180910390a15b50505050505050505050565b6001600160a01b038216610abb57604051633250574960e11b8152600060048201526024015b60405180910390fd5b6000610ac88383336121e9565b9050836001600160a01b0316816001600160a01b031614610b16576040516364283d7b60e01b81526001600160a01b0380861660048301526024820184905282166044820152606401610ab2565b50505050565b6002546001600160a01b03163314610b8a5760405162461bcd60e51b815260206004820152602b60248201527f43616c6c6572206973206e6f74207468652044756e67656f6e416476656e747560448201526a1c994818dbdb9d1c9858dd60aa1b6064820152608401610ab2565b60008381526005602052604081206003018054849290610bab908490613ae9565b9091555050805115610c95576000805b8251811015610c3c5760056000868152602001908152602001600020600401838281518110610bec57610bec613afc565b602090810291909101810151825460018101845560009384529190922001558251839082908110610c1f57610c1f613afc565b602002602001015191508080610c3490613b12565b915050610bbb565b50600084815260056020908152604091829020600301548251878152918201529081018290527fd27da4e7d2a804980d32d7c1594617be2bed0ec1f6231aaaec610029e881958e9060600160405180910390a150505050565b600083815260056020908152604091829020600301548251868152918201527f8bea1eb60a318372d9e3564615953ccdd27cd425790c16889c29330837733dfb91015b60405180910390a15b505050565b6000600080516020613f50833981519152610d0084611826565b8310610d315760405163295f44f760e21b81526001600160a01b038516600482015260248101849052604401610ab2565b6001600160a01b0384166000908152602091825260408082208583529092522054905092915050565b610d62612200565b600280546001600160a01b0319166001600160a01b0392909216919091179055565b60608060006060600080600560008881526020019081526020016000206040518060c0016040529081600082018054610dbc90613a99565b80601f0160208091040260200160405190810160405280929190818152602001828054610de890613a99565b8015610e355780601f10610e0a57610100808354040283529160200191610e35565b820191906000526020600020905b815481529060010190602001808311610e1857829003601f168201915b50505050508152602001600182018054610e4e90613a99565b80601f0160208091040260200160405190810160405280929190818152602001828054610e7a90613a99565b8015610ec75780601f10610e9c57610100808354040283529160200191610ec7565b820191906000526020600020905b815481529060010190602001808311610eaa57829003601f168201915b50505050508152602001600282018054610ee090613a99565b80601f0160208091040260200160405190810160405280929190818152602001828054610f0c90613a99565b8015610f595780601f10610f2e57610100808354040283529160200191610f59565b820191906000526020600020905b815481529060010190602001808311610f3c57829003601f168201915b505050505081526020016003820154815260200160048201805480602002602001604051908101604052809291908181526020018280548015610fbb57602002820191906000526020600020905b815481526020019060010190808311610fa7575b5050509183525050600591909101546020918201528151908201516060830151608084015160a090940151929b919a509850919650945092505050565b611000612200565b61100861225b565b565b33611015823561138c565b6001600160a01b0316146110755760405162461bcd60e51b815260206004820152602160248201527f596f75206d757374206f776e20746865206974656d20746f206275726e2069746044820152601760f91b6064820152608401610ab2565b611085604082013561012c613ae9565b4211158015611098575080604001354210155b6110ef5760405162461bcd60e51b815260206004820152602260248201527f4275726e20726571756573742074696d657374616d7020697320696e76616c69604482015261321760f11b6064820152608401610ab2565b60408051602083810135818301528383013582840152833560608084019190915283518084039091018152608090920190925280519101207f19457468657265756d205369676e6564204d6573736167653a0a3332000000006000908152601c829052603c8120905060006111a58261116b6060870187613b2b565b8080601f0160208091040260200160405190810160405280939291908181526020018383808284376000920191909152506122bb92505050565b6003549091506001600160a01b038083169116146111d55760405162461bcd60e51b8152600401610ab290613b78565b6111df84356122e5565b60015460405163bec3fa1760e01b8152336004820152602086013560248201526001600160a01b039091169063bec3fa1790604401600060405180830381600087803b15801561122e57600080fd5b505af1158015611242573d6000803e3d6000fd5b5050505050505050565b610ce183838360405180602001604052806000815250611940565b61126f612320565b611278826123c5565b6108b582826123cd565b6000600080516020613f508339815191526112a9600080516020613fb08339815191525490565b83106112d25760405163295f44f760e21b81526000600482015260248101849052604401610ab2565b8060020183815481106112e7576112e7613afc565b9060005260206000200154915050919050565b6000806113068361138c565b6001600160a01b0316036113585760405162461bcd60e51b815260206004820152601960248201527821b430b930b1ba32b9103237b2b9903737ba1032bc34b9ba1760391b6044820152606401610ab2565b506000908152600560208190526040909120015490565b600061137961248a565b50600080516020613f9083398151915290565b60006107eb8261212f565b606060006113a483611826565b90506000816001600160401b038111156113c0576113c06135bf565b60405190808252806020026020018201604052801561143957816020015b61142660405180610100016040528060008152602001606081526020016060815260200160608152602001600081526020016060815260200160008152602001600081525090565b8152602001906001900390816113de5790505b50905060005b828110156117f45760006114538683610ce6565b90506000600560008381526020019081526020016000206040518060c001604052908160008201805461148590613a99565b80601f01602080910402602001604051908101604052809291908181526020018280546114b190613a99565b80156114fe5780601f106114d3576101008083540402835291602001916114fe565b820191906000526020600020905b8154815290600101906020018083116114e157829003601f168201915b5050505050815260200160018201805461151790613a99565b80601f016020809104026020016040519081016040528092919081815260200182805461154390613a99565b80156115905780601f1061156557610100808354040283529160200191611590565b820191906000526020600020905b81548152906001019060200180831161157357829003601f168201915b505050505081526020016002820180546115a990613a99565b80601f01602080910402602001604051908101604052809291908181526020018280546115d590613a99565b80156116225780601f106115f757610100808354040283529160200191611622565b820191906000526020600020905b81548152906001019060200180831161160557829003601f168201915b50505050508152602001600382015481526020016004820180548060200260200160405190810160405280929190818152602001828054801561168457602002820191906000526020600020905b815481526020019060010190808311611670575b505050918352505060059190910154602091820152604080516101008101825285815283518184015291830151828201528083015160608084019190915283015160808084019190915283015160a08301526002549051633f64068b60e11b815260048101869052929350909160c08301916001600160a01b031690637ec80d1690602401602060405180830381865afa158015611726573d6000803e3d6000fd5b505050506040513d601f19601f8201168201806040525081019061174a9190613bba565b815260025460405163388702a760e11b8152600481018690526020909201916001600160a01b039091169063710e054e90602401602060405180830381865afa15801561179b573d6000803e3d6000fd5b505050506040513d601f19601f820116820180604052508101906117bf9190613bba565b8152508484815181106117d4576117d4613afc565b6020026020010181905250505080806117ec90613b12565b91505061143f565b509392505050565b611804612200565b600480546001600160a01b0319166001600160a01b0392909216919091179055565b6000600080516020613f708339815191526001600160a01b038316611861576040516322718ad960e21b815260006004820152602401610ab2565b6001600160a01b039092166000908152600390920160205250604090205490565b61188a612200565b61100860006124d3565b61189c612200565b611008612544565b7f80bb2b638cc20bc4d0a60d66940f3ab4a00c1d7b313497ca82fb0b4ab00793018054606091600080516020613f708339815191529161081190613a99565b6118eb612200565b600180546001600160a01b0319166001600160a01b0392909216919091179055565b6108b533838361258d565b600060078260405161192a9190613bd3565b9081526020016040518091039020549050919050565b61194b848484610a8c565b610b168484848461263e565b606060006119648361138c565b6001600160a01b0316036119d15760405162461bcd60e51b815260206004820152602e60248201527f45524337323155524953746f726167653a2055524920736574206f66206e6f6e60448201526d32bc34b9ba32b73a103a37b5b2b760911b6064820152608401610ab2565b600082815260066020526040812080546119ea90613a99565b80601f0160208091040260200160405190810160405280929190818152602001828054611a1690613a99565b8015611a635780601f10611a3857610100808354040283529160200191611a63565b820191906000526020600020905b815481529060010190602001808311611a4657829003601f168201915b5093979650505050505050565b600080611a7c8361138c565b6001600160a01b031603611ace5760405162461bcd60e51b815260206004820152601960248201527821b430b930b1ba32b9103237b2b9903737ba1032bc34b9ba1760391b6044820152606401610ab2565b5060009081526005602052604090206003015490565b611aec612200565b600080548180611afb83613b12565b919050559050611b0b8382612767565b610ce18183612781565b611b1d612200565b600380546001600160a01b0319166001600160a01b0392909216919091179055565b600080608083013560c0840135611b596020860186613b2b565b611b666040880188613b2b565b604051602001611b7b96959493929190613bef565b6040516020818303038152906040528051906020012090506000611bcc827f19457468657265756d205369676e6564204d6573736167653a0a3332000000006000908152601c91909152603c902090565b90506000611be18261116b60a0880188613b2b565b6003549091506001600160a01b03808316911614611c115760405162461bcd60e51b8152600401610ab290613b78565b611c2160c086013561012c613ae9565b4211158015611c3457508460c001354210155b611c805760405162461bcd60e51b815260206004820152601d60248201527f526571756573742074696d657374616d7020697320696e76616c69642e0000006044820152606401610ab2565b600480546001546040516323b872dd60e01b815233938101939093526001600160a01b0390811660248401526080880135604484015216906323b872dd906064016020604051808303816000875af1158015611ce0573d6000803e3d6000fd5b505050506040513d601f19601f82011682018060405250810190611d049190613c27565b611d485760405162461bcd60e51b8152602060048201526015602482015274151bdad95b881d1c985b9cd9995c8819985a5b1959605a1b6044820152606401610ab2565b600054611d61611d5b60208801886136bf565b82612767565b60408051600180825281830190925260009160208083019080368337019050509050600a424433604051602001611dbd93929190928352602083019190915260601b6bffffffffffffffffffffffff1916604082015260540190565b6040516020818303038152906040528051906020012060001c611de09190613c44565b81600081518110611df357611df3613afc565b6020908102919091010152611e0b6040880188613b2b565b600084815260066020526040902091611e25919083613cb4565b506040805160c0810190915280611e3f60208a018a613b2b565b8080601f016020809104026020016040519081016040528093929190818152602001838380828437600092019190915250505090825250602001611e8660408a018a613b2b565b8080601f016020809104026020016040519081016040528093929190818152602001838380828437600092019190915250505090825250602001611ecd60608a018a613b2b565b8080601f01602080910402602001604051908101604052809392919081815260200183838082843760009201829052509385525050506020808301829052604080840186905242606090940193909352858252600590522081518190611f339082613d73565b5060208201516001820190611f489082613d73565b5060408201516002820190611f5d9082613d73565b506060820151600382015560808201518051611f839160048401916020909101906133c9565b5060a082015181600501559050506001600080828254611fa39190613ae9565b90915550611ff69050611fb96060890189613b2b565b8080601f016020809104026020016040519081016040528093929190818152602001838380828437600092019190915250600192506127ec915050565b61200360208801886136bf565b6001600160a01b03167fd365d4698a7d96fb60d011857773ea446dabedd23fd4861817d67b25daa228a08361203b60208b018b613b2b565b61204860408d018d613b2b565b61205560608f018f613b2b565b89514260405161206d99989796959493929190613e5b565b60405180910390a25095945050505050565b6001600160a01b0391821660009081527f80bb2b638cc20bc4d0a60d66940f3ab4a00c1d7b313497ca82fb0b4ab00793056020908152604080832093909416825291909152205460ff1690565b6120d4612200565b6001600160a01b0381166120fe57604051631e4fbdf760e01b815260006004820152602401610ab2565b612107816124d3565b50565b60006001600160e01b03198216632483248360e11b14806107eb57506107eb82612823565b60008061213b83612848565b90506001600160a01b0381166107eb57604051637e27328960e01b815260048101849052602401610ab2565b60009081527f80bb2b638cc20bc4d0a60d66940f3ab4a00c1d7b313497ca82fb0b4ab007930460205260409020546001600160a01b031690565b610ce18383836001612882565b6121b6612998565b612107816129e1565b6121c7612998565b6108b582826129e9565b611008612998565b6121e1612998565b611008612a1a565b60006121f6848484612a3b565b90505b9392505050565b336122327f9016d09d72d40fdae2fd8ceac6b6234c7706214fd39c1cd1e609a0528c199300546001600160a01b031690565b6001600160a01b0316146110085760405163118cdaa760e01b8152336004820152602401610ab2565b612263612a50565b600080516020613fd0833981519152805460ff191681557f5db9ee0a495bf2e6ff9c91a7834c1ba4fdd244a5e8aa4e537bd38aeae4b073aa335b6040516001600160a01b03909116815260200160405180910390a150565b6000806000806122cb8686612a80565b9250925092506122db8282612acd565b5090949350505050565b60006122f460008360006121e9565b90506001600160a01b0381166108b557604051637e27328960e01b815260048101839052602401610ab2565b306001600160a01b037f00000000000000000000000000000000000000000000000000000000000000001614806123a757507f00000000000000000000000000000000000000000000000000000000000000006001600160a01b031661239b600080516020613f90833981519152546001600160a01b031690565b6001600160a01b031614155b156110085760405163703e46dd60e11b815260040160405180910390fd5b612107612200565b816001600160a01b03166352d1902d6040518163ffffffff1660e01b8152600401602060405180830381865afa925050508015612427575060408051601f3d908101601f1916820190925261242491810190613bba565b60015b61244f57604051634c9c8ce360e01b81526001600160a01b0383166004820152602401610ab2565b600080516020613f90833981519152811461248057604051632a87526960e21b815260048101829052602401610ab2565b610ce18383612b86565b306001600160a01b037f000000000000000000000000000000000000000000000000000000000000000016146110085760405163703e46dd60e11b815260040160405180910390fd5b7f9016d09d72d40fdae2fd8ceac6b6234c7706214fd39c1cd1e609a0528c19930080546001600160a01b031981166001600160a01b03848116918217845560405192169182907f8be0079c531659141344cd1fd0a4f28419497f9722a3daafe3b4186f6b6457e090600090a3505050565b61254c612bdc565b600080516020613fd0833981519152805460ff191660011781557f62e78cea01bee320cd4e420270b5ea74000d11b0c9f74754ebdbfc544b05a2583361229d565b600080516020613f708339815191526001600160a01b0383166125ce57604051630b61174360e31b81526001600160a01b0384166004820152602401610ab2565b6001600160a01b038481166000818152600584016020908152604080832094881680845294825291829020805460ff191687151590811790915591519182527f17307eab39ab6107e8899845ad3d59bd9653f200f220920489ca2b5937696c31910160405180910390a350505050565b6001600160a01b0383163b15610b1657604051630a85bd0160e11b81526001600160a01b0384169063150b7a0290612680903390889087908790600401613eb6565b6020604051808303816000875af19250505080156126bb575060408051601f3d908101601f191682019092526126b891810190613ef3565b60015b612724573d8080156126e9576040519150601f19603f3d011682016040523d82523d6000602084013e6126ee565b606091505b50805160000361271c57604051633250574960e11b81526001600160a01b0385166004820152602401610ab2565b805181602001fd5b6001600160e01b03198116630a85bd0160e11b1461276057604051633250574960e11b81526001600160a01b0385166004820152602401610ab2565b5050505050565b6108b5828260405180602001604052806000815250612c0d565b60008281527f0542a41881ee128a365a727b282c86fa859579490b9bb45aab8503648c8e7900602081905260409091206127bb8382613d73565b506040518381527ff8e1a15aba9398e019f0b49df1a4fde98ee17ae345cb5f6b5e2c27f5033e8ce790602001610cd8565b806007836040516127fd9190613bd3565b9081526020016040518091039020600082825461281a9190613ae9565b90915550505050565b60006001600160e01b0319821663780e9d6360e01b14806107eb57506107eb82612c24565b60009081527f80bb2b638cc20bc4d0a60d66940f3ab4a00c1d7b313497ca82fb0b4ab007930260205260409020546001600160a01b031690565b600080516020613f7083398151915281806128a557506001600160a01b03831615155b156129675760006128b58561212f565b90506001600160a01b038416158015906128e15750836001600160a01b0316816001600160a01b031614155b80156128f457506128f2818561207f565b155b1561291d5760405163a9fbf51f60e01b81526001600160a01b0385166004820152602401610ab2565b82156129655784866001600160a01b0316826001600160a01b03167f8c5be1e5ebec7d5bd14f71427d1e84f3dd0314c0f7b2291e5b200ac8c7c3b92560405160405180910390a45b505b600093845260040160205250506040902080546001600160a01b0319166001600160a01b0392909216919091179055565b7ff0c57e16840df040f15088dc2f81fe391c3923bec73e23a9662efc9c229c6a0054600160401b900460ff1661100857604051631afcd79f60e31b815260040160405180910390fd5b6120d4612998565b6129f1612998565b600080516020613f7083398151915280612a0b8482613d73565b5060018101610b168382613d73565b612a22612998565b600080516020613fd0833981519152805460ff19169055565b6000612a45612bdc565b6121f6848484612c74565b600080516020613fd08339815191525460ff1661100857604051638dfc202b60e01b815260040160405180910390fd5b60008060008351604103612aba5760208401516040850151606086015160001a612aac88828585612d6d565b955095509550505050612ac6565b50508151600091506002905b9250925092565b6000826003811115612ae157612ae1613f10565b03612aea575050565b6001826003811115612afe57612afe613f10565b03612b1c5760405163f645eedf60e01b815260040160405180910390fd5b6002826003811115612b3057612b30613f10565b03612b515760405163fce698f760e01b815260048101829052602401610ab2565b6003826003811115612b6557612b65613f10565b036108b5576040516335e2f38360e21b815260048101829052602401610ab2565b612b8f82612e3c565b6040516001600160a01b038316907fbc7cd75a20ee27fd9adebab32041f755214dbc6bffa90cc0225b39da2e5c2d3b90600090a2805115612bd457610ce18282612ea1565b6108b5612f17565b600080516020613fd08339815191525460ff16156110085760405163d93c066560e01b815260040160405180910390fd5b612c178383612f36565b610ce1600084848461263e565b60006001600160e01b031982166380ac58cd60e01b1480612c5557506001600160e01b03198216635b5e139f60e01b145b806107eb57506301ffc9a760e01b6001600160e01b03198316146107eb565b600080612c82858585612f9b565b90506001600160a01b038116612d0b57612d0684600080516020613fb0833981519152805460008381527f645e039705490088daad89bae25049a34f4a9072d398537b1ab2425f24cbed0360205260408120829055600182018355919091527fa42f15e5d656f8155fd7419d740a6073999f19cd6e061449ce4a257150545bf20155565b612d2e565b846001600160a01b0316816001600160a01b031614612d2e57612d2e81856130a5565b6001600160a01b038516612d4a57612d4584613149565b6121f6565b846001600160a01b0316816001600160a01b0316146121f6576121f68585613220565b600080807f7fffffffffffffffffffffffffffffff5d576e7357a4501ddfe92f46681b20a0841115612da85750600091506003905082612e32565b604080516000808252602082018084528a905260ff891692820192909252606081018790526080810186905260019060a0016020604051602081039080840390855afa158015612dfc573d6000803e3d6000fd5b5050604051601f1901519150506001600160a01b038116612e2857506000925060019150829050612e32565b9250600091508190505b9450945094915050565b806001600160a01b03163b600003612e7257604051634c9c8ce360e01b81526001600160a01b0382166004820152602401610ab2565b600080516020613f9083398151915280546001600160a01b0319166001600160a01b0392909216919091179055565b6060600080846001600160a01b031684604051612ebe9190613bd3565b600060405180830381855af49150503d8060008114612ef9576040519150601f19603f3d011682016040523d82523d6000602084013e612efe565b606091505b5091509150612f0e85838361327b565b95945050505050565b34156110085760405163b398979f60e01b815260040160405180910390fd5b6001600160a01b038216612f6057604051633250574960e11b815260006004820152602401610ab2565b6000612f6e838360006121e9565b90506001600160a01b03811615610ce1576040516339e3563760e11b815260006004820152602401610ab2565b6000600080516020613f7083398151915281612fb685612848565b90506001600160a01b03841615612fd257612fd28185876132d7565b6001600160a01b0381161561301257612fef600086600080612882565b6001600160a01b0381166000908152600383016020526040902080546000190190555b6001600160a01b03861615613043576001600160a01b03861660009081526003830160205260409020805460010190555b600085815260028301602052604080822080546001600160a01b0319166001600160a01b038a811691821790925591518893918516917fddf252ad1be2c89b69c2b068fc378daa952ba7f163c4a11628f55a4df523b3ef91a495945050505050565b600080516020613f5083398151915260006130bf84611826565b6000848152600184016020526040902054909150808214613114576001600160a01b03851660009081526020848152604080832085845282528083205484845281842081905583526001860190915290208190555b50600092835260018201602090815260408085208590556001600160a01b039095168452918252838320908352905290812055565b600080516020613fb083398151915254600080516020613f508339815191529060009061317890600190613f26565b60008481526003840160205260408120546002850180549394509092849081106131a4576131a4613afc565b90600052602060002001549050808460020183815481106131c7576131c7613afc565b60009182526020808320909101929092558281526003860190915260408082208490558682528120556002840180548061320357613203613f39565b600190038181906000526020600020016000905590555050505050565b600080516020613f508339815191526000600161323c85611826565b6132469190613f26565b6001600160a01b0390941660009081526020838152604080832087845282528083208690559482526001909301909252502055565b6060826132905761328b8261333b565b6121f9565b81511580156132a757506001600160a01b0384163b155b156132d057604051639996b31560e01b81526001600160a01b0385166004820152602401610ab2565b50806121f9565b6132e2838383613364565b610ce1576001600160a01b03831661331057604051637e27328960e01b815260048101829052602401610ab2565b60405163177e802f60e01b81526001600160a01b038316600482015260248101829052604401610ab2565b80511561334b5780518082602001fd5b604051630a12f52160e11b815260040160405180910390fd5b60006001600160a01b038316158015906121f65750826001600160a01b0316846001600160a01b0316148061339e575061339e848461207f565b806121f65750826001600160a01b03166133b783612167565b6001600160a01b031614949350505050565b828054828255906000526020600020908101928215613404579160200282015b828111156134045782518255916020019190600101906133e9565b50613410929150613414565b5090565b5b808211156134105760008155600101613415565b6001600160e01b03198116811461210757600080fd5b60006020828403121561345157600080fd5b81356121f981613429565b60005b8381101561347757818101518382015260200161345f565b50506000910152565b6000815180845261349881602086016020860161345c565b601f01601f19169290920160200192915050565b6020815260006121f96020830184613480565b6000602082840312156134d157600080fd5b5035919050565b80356001600160a01b03811681146134ef57600080fd5b919050565b6000806040838503121561350757600080fd5b613510836134d8565b946020939093013593505050565b600080600080600060a0868803121561353657600080fd5b61353f866134d8565b945061354d602087016134d8565b935061355b604087016134d8565b9250613569606087016134d8565b9150613577608087016134d8565b90509295509295909350565b60008060006060848603121561359857600080fd5b6135a1846134d8565b92506135af602085016134d8565b9150604084013590509250925092565b634e487b7160e01b600052604160045260246000fd5b604051601f8201601f191681016001600160401b03811182821017156135fd576135fd6135bf565b604052919050565b60008060006060848603121561361a57600080fd5b83359250602080850135925060408501356001600160401b038082111561364057600080fd5b818701915087601f83011261365457600080fd5b813581811115613666576136666135bf565b8060051b91506136778483016135d5565b818152918301840191848101908a84111561369157600080fd5b938501935b838510156136af57843582529385019390850190613696565b8096505050505050509250925092565b6000602082840312156136d157600080fd5b6121f9826134d8565b600081518084526020808501945080840160005b8381101561370a578151875295820195908201906001016136ee565b509495945050505050565b60a08152600061372860a0830188613480565b828103602084015261373a8188613480565b9050856040840152828103606084015261375481866136da565b9150508260808301529695505050505050565b60006020828403121561377957600080fd5b81356001600160401b0381111561378f57600080fd5b8201608081850312156121f957600080fd5b600082601f8301126137b257600080fd5b81356001600160401b038111156137cb576137cb6135bf565b6137de601f8201601f19166020016135d5565b8181528460208386010111156137f357600080fd5b816020850160208301376000918101602001919091529392505050565b6000806040838503121561382357600080fd5b61382c836134d8565b915060208301356001600160401b0381111561384757600080fd5b613853858286016137a1565b9150509250929050565b60006020808301818452808551808352604092508286019150828160051b87010184880160005b8381101561393657603f1989840301855281516101008151855288820151818a8701526138b382870182613480565b91505087820151858203898701526138cb8282613480565b915050606080830151868303828801526138e58382613480565b92505050608080830151818701525060a0808301518683038288015261390b83826136da565b60c0858101519089015260e09485015194909701939093525050509386019390860190600101613884565b509098975050505050505050565b801515811461210757600080fd5b6000806040838503121561396557600080fd5b61396e836134d8565b9150602083013561397e81613944565b809150509250929050565b60006020828403121561399b57600080fd5b81356001600160401b038111156139b157600080fd5b6139bd848285016137a1565b949350505050565b600080600080608085870312156139db57600080fd5b6139e4856134d8565b93506139f2602086016134d8565b92506040850135915060608501356001600160401b03811115613a1457600080fd5b613a20878288016137a1565b91505092959194509250565b600060208284031215613a3e57600080fd5b81356001600160401b03811115613a5457600080fd5b820160e081850312156121f957600080fd5b60008060408385031215613a7957600080fd5b613a82836134d8565b9150613a90602084016134d8565b90509250929050565b600181811c90821680613aad57607f821691505b602082108103613acd57634e487b7160e01b600052602260045260246000fd5b50919050565b634e487b7160e01b600052601160045260246000fd5b808201808211156107eb576107eb613ad3565b634e487b7160e01b600052603260045260246000fd5b600060018201613b2457613b24613ad3565b5060010190565b6000808335601e19843603018112613b4257600080fd5b8301803591506001600160401b03821115613b5c57600080fd5b602001915036819003821315613b7157600080fd5b9250929050565b60208082526022908201527f496e76616c6964206f7220756e617574686f72697a6564207369676e61747572604082015261329760f11b606082015260800190565b600060208284031215613bcc57600080fd5b5051919050565b60008251613be581846020870161345c565b9190910192915050565b868152856020820152838560408301376000848201604081016000815284868237506000930160400192835250909695505050505050565b600060208284031215613c3957600080fd5b81516121f981613944565b600082613c6157634e487b7160e01b600052601260045260246000fd5b500690565b601f821115610ce157600081815260208120601f850160051c81016020861015613c8d5750805b601f850160051c820191505b81811015613cac57828155600101613c99565b505050505050565b6001600160401b03831115613ccb57613ccb6135bf565b613cdf83613cd98354613a99565b83613c66565b6000601f841160018114613d135760008515613cfb5750838201355b600019600387901b1c1916600186901b178355612760565b600083815260209020601f19861690835b82811015613d445786850135825560209485019460019092019101613d24565b5086821015613d615760001960f88860031b161c19848701351681555b505060018560011b0183555050505050565b81516001600160401b03811115613d8c57613d8c6135bf565b613da081613d9a8454613a99565b84613c66565b602080601f831160018114613dd55760008415613dbd5750858301515b600019600386901b1c1916600185901b178555613cac565b600085815260208120601f198616915b82811015613e0457888601518255948401946001909101908401613de5565b5085821015613e225787850151600019600388901b60f8161c191681555b5050505050600190811b01905550565b81835281816020850137506000828201602090810191909152601f909101601f19169091010190565b89815260c060208201526000613e7560c083018a8c613e32565b8281036040840152613e8881898b613e32565b90508281036060840152613e9d818789613e32565b6080840195909552505060a00152979650505050505050565b6001600160a01b0385811682528416602082015260408101839052608060608201819052600090613ee990830184613480565b9695505050505050565b600060208284031215613f0557600080fd5b81516121f981613429565b634e487b7160e01b600052602160045260246000fd5b818103818111156107eb576107eb613ad3565b634e487b7160e01b600052603160045260246000fdfe645e039705490088daad89bae25049a34f4a9072d398537b1ab2425f24cbed0080bb2b638cc20bc4d0a60d66940f3ab4a00c1d7b313497ca82fb0b4ab0079300360894a13ba1a3210667c828492db98dca3e2076cc3735a920a3ca505d382bbc645e039705490088daad89bae25049a34f4a9072d398537b1ab2425f24cbed02cd5ed15c6e187e77e9aee88184c21f4f2182ab5827cb3b7e07fbedcd63f03300a2646970667358221220c2250bf60d69d1a5291a2efb4eb9ec61b3794002413a68699bc819c08298b44864736f6c63430008140033",
  "linkReferences": {},
  "deployedLinkReferences": {}
}