{
  "_format": "hh-sol-artifact-1",
  "contractName": "CreateCharacter",
  "sourceName": "contracts/CreateCharacter.sol",
  "abi": [
    {
      "inputs": [],
      "stateMutability": "nonpayable",
      "type": "constructor"
    },
    {
      "inputs": [
        {
          "internalType": "address",
          "name": "target",
          "type": "address"
        }
      ],
      "name": "AddressEmptyCode",
      "type": "error"
    },
    {
      "inputs": [
        {
          "internalType": "address",
          "name": "implementation",
          "type": "address"
        }
      ],
      "name": "ERC1967InvalidImplementation",
      "type": "error"
    },
    {
      "inputs": [],
      "name": "ERC1967NonPayable",
      "type": "error"
    },
    {
      "inputs": [],
      "name": "ERC721EnumerableForbiddenBatchMint",
      "type": "error"
    },
    {
      "inputs": [
        {
          "internalType": "address",
          "name": "sender",
          "type": "address"
        },
        {
          "internalType": "uint256",
          "name": "tokenId",
          "type": "uint256"
        },
        {
          "internalType": "address",
          "name": "owner",
          "type": "address"
        }
      ],
      "name": "ERC721IncorrectOwner",
      "type": "error"
    },
    {
      "inputs": [
        {
          "internalType": "address",
          "name": "operator",
          "type": "address"
        },
        {
          "internalType": "uint256",
          "name": "tokenId",
          "type": "uint256"
        }
      ],
      "name": "ERC721InsufficientApproval",
      "type": "error"
    },
    {
      "inputs": [
        {
          "internalType": "address",
          "name": "approver",
          "type": "address"
        }
      ],
      "name": "ERC721InvalidApprover",
      "type": "error"
    },
    {
      "inputs": [
        {
          "internalType": "address",
          "name": "operator",
          "type": "address"
        }
      ],
      "name": "ERC721InvalidOperator",
      "type": "error"
    },
    {
      "inputs": [
        {
          "internalType": "address",
          "name": "owner",
          "type": "address"
        }
      ],
      "name": "ERC721InvalidOwner",
      "type": "error"
    },
    {
      "inputs": [
        {
          "internalType": "address",
          "name": "receiver",
          "type": "address"
        }
      ],
      "name": "ERC721InvalidReceiver",
      "type": "error"
    },
    {
      "inputs": [
        {
          "internalType": "address",
          "name": "sender",
          "type": "address"
        }
      ],
      "name": "ERC721InvalidSender",
      "type": "error"
    },
    {
      "inputs": [
        {
          "internalType": "uint256",
          "name": "tokenId",
          "type": "uint256"
        }
      ],
      "name": "ERC721NonexistentToken",
      "type": "error"
    },
    {
      "inputs": [
        {
          "internalType": "address",
          "name": "owner",
          "type": "address"
        },
        {
          "internalType": "uint256",
          "name": "index",
          "type": "uint256"
        }
      ],
      "name": "ERC721OutOfBoundsIndex",
      "type": "error"
    },
    {
      "inputs": [],
      "name": "EnforcedPause",
      "type": "error"
    },
    {
      "inputs": [],
      "name": "ExpectedPause",
      "type": "error"
    },
    {
      "inputs": [],
      "name": "FailedInnerCall",
      "type": "error"
    },
    {
      "inputs": [],
      "name": "InvalidInitialization",
      "type": "error"
    },
    {
      "inputs": [],
      "name": "NotInitializing",
      "type": "error"
    },
    {
      "inputs": [
        {
          "internalType": "address",
          "name": "owner",
          "type": "address"
        }
      ],
      "name": "OwnableInvalidOwner",
      "type": "error"
    },
    {
      "inputs": [
        {
          "internalType": "address",
          "name": "account",
          "type": "address"
        }
      ],
      "name": "OwnableUnauthorizedAccount",
      "type": "error"
    },
    {
      "inputs": [],
      "name": "UUPSUnauthorizedCallContext",
      "type": "error"
    },
    {
      "inputs": [
        {
          "internalType": "bytes32",
          "name": "slot",
          "type": "bytes32"
        }
      ],
      "name": "UUPSUnsupportedProxiableUUID",
      "type": "error"
    },
    {
      "anonymous": false,
      "inputs": [
        {
          "indexed": true,
          "internalType": "address",
          "name": "owner",
          "type": "address"
        },
        {
          "indexed": true,
          "internalType": "address",
          "name": "approved",
          "type": "address"
        },
        {
          "indexed": true,
          "internalType": "uint256",
          "name": "tokenId",
          "type": "uint256"
        }
      ],
      "name": "Approval",
      "type": "event"
    },
    {
      "anonymous": false,
      "inputs": [
        {
          "indexed": true,
          "internalType": "address",
          "name": "owner",
          "type": "address"
        },
        {
          "indexed": true,
          "internalType": "address",
          "name": "operator",
          "type": "address"
        },
        {
          "indexed": false,
          "internalType": "bool",
          "name": "approved",
          "type": "bool"
        }
      ],
      "name": "ApprovalForAll",
      "type": "event"
    },
    {
      "anonymous": false,
      "inputs": [
        {
          "indexed": false,
          "internalType": "uint256",
          "name": "_fromTokenId",
          "type": "uint256"
        },
        {
          "indexed": false,
          "internalType": "uint256",
          "name": "_toTokenId",
          "type": "uint256"
        }
      ],
      "name": "BatchMetadataUpdate",
      "type": "event"
    },
    {
      "anonymous": false,
      "inputs": [
        {
          "indexed": true,
          "internalType": "address",
          "name": "user",
          "type": "address"
        },
        {
          "indexed": false,
          "internalType": "uint256",
          "name": "tokenId",
          "type": "uint256"
        },
        {
          "indexed": false,
          "internalType": "string",
          "name": "name",
          "type": "string"
        },
        {
          "indexed": false,
          "internalType": "string",
          "name": "imageURI",
          "type": "string"
        },
        {
          "indexed": false,
          "internalType": "uint256",
          "name": "itemSlots",
          "type": "uint256"
        }
      ],
      "name": "CharacterMinted",
      "type": "event"
    },
    {
      "anonymous": false,
      "inputs": [
        {
          "indexed": false,
          "internalType": "uint256",
          "name": "tokenId",
          "type": "uint256"
        },
        {
          "indexed": false,
          "internalType": "uint256",
          "name": "totalExperience",
          "type": "uint256"
        }
      ],
      "name": "ExperienceUpdated",
      "type": "event"
    },
    {
      "anonymous": false,
      "inputs": [
        {
          "indexed": false,
          "internalType": "uint256",
          "name": "tokenId",
          "type": "uint256"
        },
        {
          "indexed": false,
          "internalType": "uint256",
          "name": "totalExperience",
          "type": "uint256"
        },
        {
          "indexed": false,
          "internalType": "uint256",
          "name": "lastAddedSlot",
          "type": "uint256"
        }
      ],
      "name": "ExperienceUpdatedWithSlot",
      "type": "event"
    },
    {
      "anonymous": false,
      "inputs": [
        {
          "indexed": false,
          "internalType": "uint64",
          "name": "version",
          "type": "uint64"
        }
      ],
      "name": "Initialized",
      "type": "event"
    },
    {
      "anonymous": false,
      "inputs": [
        {
          "indexed": false,
          "internalType": "uint256",
          "name": "_tokenId",
          "type": "uint256"
        }
      ],
      "name": "MetadataUpdate",
      "type": "event"
    },
    {
      "anonymous": false,
      "inputs": [
        {
          "indexed": true,
          "internalType": "address",
          "name": "previousOwner",
          "type": "address"
        },
        {
          "indexed": true,
          "internalType": "address",
          "name": "newOwner",
          "type": "address"
        }
      ],
      "name": "OwnershipTransferred",
      "type": "event"
    },
    {
      "anonymous": false,
      "inputs": [
        {
          "indexed": false,
          "internalType": "address",
          "name": "account",
          "type": "address"
        }
      ],
      "name": "Paused",
      "type": "event"
    },
    {
      "anonymous": false,
      "inputs": [
        {
          "indexed": true,
          "internalType": "address",
          "name": "from",
          "type": "address"
        },
        {
          "indexed": true,
          "internalType": "address",
          "name": "to",
          "type": "address"
        },
        {
          "indexed": true,
          "internalType": "uint256",
          "name": "tokenId",
          "type": "uint256"
        }
      ],
      "name": "Transfer",
      "type": "event"
    },
    {
      "anonymous": false,
      "inputs": [
        {
          "indexed": false,
          "internalType": "address",
          "name": "account",
          "type": "address"
        }
      ],
      "name": "Unpaused",
      "type": "event"
    },
    {
      "anonymous": false,
      "inputs": [
        {
          "indexed": true,
          "internalType": "address",
          "name": "implementation",
          "type": "address"
        }
      ],
      "name": "Upgraded",
      "type": "event"
    },
    {
      "inputs": [],
      "name": "UPGRADE_INTERFACE_VERSION",
      "outputs": [
        {
          "internalType": "string",
          "name": "",
          "type": "string"
        }
      ],
      "stateMutability": "view",
      "type": "function"
    },
    {
      "inputs": [
        {
          "internalType": "address",
          "name": "to",
          "type": "address"
        },
        {
          "internalType": "uint256",
          "name": "tokenId",
          "type": "uint256"
        }
      ],
      "name": "approve",
      "outputs": [],
      "stateMutability": "nonpayable",
      "type": "function"
    },
    {
      "inputs": [
        {
          "internalType": "address",
          "name": "owner",
          "type": "address"
        }
      ],
      "name": "balanceOf",
      "outputs": [
        {
          "internalType": "uint256",
          "name": "",
          "type": "uint256"
        }
      ],
      "stateMutability": "view",
      "type": "function"
    },
    {
      "inputs": [],
      "name": "gameTreasury",
      "outputs": [
        {
          "internalType": "contract GameTreasury",
          "name": "",
          "type": "address"
        }
      ],
      "stateMutability": "view",
      "type": "function"
    },
    {
      "inputs": [
        {
          "internalType": "uint256",
          "name": "tokenId",
          "type": "uint256"
        }
      ],
      "name": "getApproved",
      "outputs": [
        {
          "internalType": "address",
          "name": "",
          "type": "address"
        }
      ],
      "stateMutability": "view",
      "type": "function"
    },
    {
      "inputs": [
        {
          "internalType": "uint256",
          "name": "tokenId",
          "type": "uint256"
        }
      ],
      "name": "getCharacterMetadata",
      "outputs": [
        {
          "internalType": "string",
          "name": "",
          "type": "string"
        },
        {
          "internalType": "string",
          "name": "",
          "type": "string"
        },
        {
          "internalType": "uint256",
          "name": "",
          "type": "uint256"
        },
        {
          "internalType": "uint256[]",
          "name": "",
          "type": "uint256[]"
        }
      ],
      "stateMutability": "view",
      "type": "function"
    },
    {
      "inputs": [
        {
          "internalType": "address",
          "name": "owner",
          "type": "address"
        }
      ],
      "name": "getCharactersByOwner",
      "outputs": [
        {
          "components": [
            {
              "internalType": "uint256",
              "name": "id",
              "type": "uint256"
            },
            {
              "internalType": "string",
              "name": "name",
              "type": "string"
            },
            {
              "internalType": "string",
              "name": "imageURI",
              "type": "string"
            },
            {
              "internalType": "uint256",
              "name": "experience",
              "type": "uint256"
            },
            {
              "internalType": "uint256[]",
              "name": "openSlots",
              "type": "uint256[]"
            }
          ],
          "internalType": "struct CreateCharacter.CharacterDetails[]",
          "name": "",
          "type": "tuple[]"
        }
      ],
      "stateMutability": "view",
      "type": "function"
    },
    {
      "inputs": [
        {
          "internalType": "address",
          "name": "initialOwner",
          "type": "address"
        },
        {
          "internalType": "address",
          "name": "_gameTreasuryAddress",
          "type": "address"
        }
      ],
      "name": "initialize",
      "outputs": [],
      "stateMutability": "nonpayable",
      "type": "function"
    },
    {
      "inputs": [
        {
          "internalType": "address",
          "name": "owner",
          "type": "address"
        },
        {
          "internalType": "address",
          "name": "operator",
          "type": "address"
        }
      ],
      "name": "isApprovedForAll",
      "outputs": [
        {
          "internalType": "bool",
          "name": "",
          "type": "bool"
        }
      ],
      "stateMutability": "view",
      "type": "function"
    },
    {
      "inputs": [
        {
          "internalType": "address",
          "name": "to",
          "type": "address"
        },
        {
          "internalType": "string",
          "name": "name",
          "type": "string"
        },
        {
          "internalType": "string",
          "name": "imageURI",
          "type": "string"
        }
      ],
      "name": "mintCharacter",
      "outputs": [
        {
          "internalType": "uint256",
          "name": "",
          "type": "uint256"
        }
      ],
      "stateMutability": "payable",
      "type": "function"
    },
    {
      "inputs": [],
      "name": "name",
      "outputs": [
        {
          "internalType": "string",
          "name": "",
          "type": "string"
        }
      ],
      "stateMutability": "view",
      "type": "function"
    },
    {
      "inputs": [],
      "name": "owner",
      "outputs": [
        {
          "internalType": "address",
          "name": "",
          "type": "address"
        }
      ],
      "stateMutability": "view",
      "type": "function"
    },
    {
      "inputs": [
        {
          "internalType": "uint256",
          "name": "tokenId",
          "type": "uint256"
        }
      ],
      "name": "ownerOf",
      "outputs": [
        {
          "internalType": "address",
          "name": "",
          "type": "address"
        }
      ],
      "stateMutability": "view",
      "type": "function"
    },
    {
      "inputs": [],
      "name": "pause",
      "outputs": [],
      "stateMutability": "nonpayable",
      "type": "function"
    },
    {
      "inputs": [],
      "name": "paused",
      "outputs": [
        {
          "internalType": "bool",
          "name": "",
          "type": "bool"
        }
      ],
      "stateMutability": "view",
      "type": "function"
    },
    {
      "inputs": [],
      "name": "proxiableUUID",
      "outputs": [
        {
          "internalType": "bytes32",
          "name": "",
          "type": "bytes32"
        }
      ],
      "stateMutability": "view",
      "type": "function"
    },
    {
      "inputs": [],
      "name": "renounceOwnership",
      "outputs": [],
      "stateMutability": "nonpayable",
      "type": "function"
    },
    {
      "inputs": [
        {
          "internalType": "address",
          "name": "to",
          "type": "address"
        },
        {
          "internalType": "string",
          "name": "uri",
          "type": "string"
        }
      ],
      "name": "safeMint",
      "outputs": [],
      "stateMutability": "nonpayable",
      "type": "function"
    },
    {
      "inputs": [
        {
          "internalType": "address",
          "name": "from",
          "type": "address"
        },
        {
          "internalType": "address",
          "name": "to",
          "type": "address"
        },
        {
          "internalType": "uint256",
          "name": "tokenId",
          "type": "uint256"
        }
      ],
      "name": "safeTransferFrom",
      "outputs": [],
      "stateMutability": "nonpayable",
      "type": "function"
    },
    {
      "inputs": [
        {
          "internalType": "address",
          "name": "from",
          "type": "address"
        },
        {
          "internalType": "address",
          "name": "to",
          "type": "address"
        },
        {
          "internalType": "uint256",
          "name": "tokenId",
          "type": "uint256"
        },
        {
          "internalType": "bytes",
          "name": "data",
          "type": "bytes"
        }
      ],
      "name": "safeTransferFrom",
      "outputs": [],
      "stateMutability": "nonpayable",
      "type": "function"
    },
    {
      "inputs": [
        {
          "internalType": "address",
          "name": "operator",
          "type": "address"
        },
        {
          "internalType": "bool",
          "name": "approved",
          "type": "bool"
        }
      ],
      "name": "setApprovalForAll",
      "outputs": [],
      "stateMutability": "nonpayable",
      "type": "function"
    },
    {
      "inputs": [
        {
          "internalType": "address",
          "name": "_gameTreasuryAddress",
          "type": "address"
        }
      ],
      "name": "setGameTreasuryAddress",
      "outputs": [],
      "stateMutability": "nonpayable",
      "type": "function"
    },
    {
      "inputs": [
        {
          "internalType": "bytes4",
          "name": "interfaceId",
          "type": "bytes4"
        }
      ],
      "name": "supportsInterface",
      "outputs": [
        {
          "internalType": "bool",
          "name": "",
          "type": "bool"
        }
      ],
      "stateMutability": "view",
      "type": "function"
    },
    {
      "inputs": [],
      "name": "symbol",
      "outputs": [
        {
          "internalType": "string",
          "name": "",
          "type": "string"
        }
      ],
      "stateMutability": "view",
      "type": "function"
    },
    {
      "inputs": [
        {
          "internalType": "uint256",
          "name": "index",
          "type": "uint256"
        }
      ],
      "name": "tokenByIndex",
      "outputs": [
        {
          "internalType": "uint256",
          "name": "",
          "type": "uint256"
        }
      ],
      "stateMutability": "view",
      "type": "function"
    },
    {
      "inputs": [
        {
          "internalType": "address",
          "name": "owner",
          "type": "address"
        },
        {
          "internalType": "uint256",
          "name": "index",
          "type": "uint256"
        }
      ],
      "name": "tokenOfOwnerByIndex",
      "outputs": [
        {
          "internalType": "uint256",
          "name": "",
          "type": "uint256"
        }
      ],
      "stateMutability": "view",
      "type": "function"
    },
    {
      "inputs": [
        {
          "internalType": "uint256",
          "name": "tokenId",
          "type": "uint256"
        }
      ],
      "name": "tokenURI",
      "outputs": [
        {
          "internalType": "string",
          "name": "",
          "type": "string"
        }
      ],
      "stateMutability": "view",
      "type": "function"
    },
    {
      "inputs": [],
      "name": "totalSupply",
      "outputs": [
        {
          "internalType": "uint256",
          "name": "",
          "type": "uint256"
        }
      ],
      "stateMutability": "view",
      "type": "function"
    },
    {
      "inputs": [
        {
          "internalType": "address",
          "name": "from",
          "type": "address"
        },
        {
          "internalType": "address",
          "name": "to",
          "type": "address"
        },
        {
          "internalType": "uint256",
          "name": "tokenId",
          "type": "uint256"
        }
      ],
      "name": "transferFrom",
      "outputs": [],
      "stateMutability": "nonpayable",
      "type": "function"
    },
    {
      "inputs": [
        {
          "internalType": "address",
          "name": "newOwner",
          "type": "address"
        }
      ],
      "name": "transferOwnership",
      "outputs": [],
      "stateMutability": "nonpayable",
      "type": "function"
    },
    {
      "inputs": [],
      "name": "unpause",
      "outputs": [],
      "stateMutability": "nonpayable",
      "type": "function"
    },
    {
      "inputs": [
        {
          "internalType": "uint256",
          "name": "tokenId",
          "type": "uint256"
        },
        {
          "internalType": "uint256",
          "name": "additionalExperience",
          "type": "uint256"
        },
        {
          "internalType": "uint256[]",
          "name": "newSlots",
          "type": "uint256[]"
        }
      ],
      "name": "updateExperience",
      "outputs": [],
      "stateMutability": "nonpayable",
      "type": "function"
    },
    {
      "inputs": [
        {
          "internalType": "address",
          "name": "newImplementation",
          "type": "address"
        },
        {
          "internalType": "bytes",
          "name": "data",
          "type": "bytes"
        }
      ],
      "name": "upgradeToAndCall",
      "outputs": [],
      "stateMutability": "payable",
      "type": "function"
    }
  ],
  "bytecode": "0x60a06040523073ffffffffffffffffffffffffffffffffffffffff1660809073ffffffffffffffffffffffffffffffffffffffff168152503480156200004457600080fd5b50620000556200005b60201b60201c565b620001cf565b60006200006d6200016560201b60201c565b90508060000160089054906101000a900460ff1615620000b9576040517ff92ee8a900000000000000000000000000000000000000000000000000000000815260040160405180910390fd5b67ffffffffffffffff80168160000160009054906101000a900467ffffffffffffffff1667ffffffffffffffff1614620001625767ffffffffffffffff8160000160006101000a81548167ffffffffffffffff021916908367ffffffffffffffff1602179055507fc7f505b2f371ae2175ee4913f4499e1f2633a7b5936321eed1cdaeb6115181d267ffffffffffffffff604051620001599190620001b2565b60405180910390a15b50565b60007ff0c57e16840df040f15088dc2f81fe391c3923bec73e23a9662efc9c229c6a00905090565b600067ffffffffffffffff82169050919050565b620001ac816200018d565b82525050565b6000602082019050620001c96000830184620001a1565b92915050565b608051615266620001f9600039600081816120480152818161209d015261225801526152666000f3fe6080604052600436106101ee5760003560e01c80636352211e1161010d578063a22cb465116100a0578063d204c45e1161006f578063d204c45e146106f1578063d2f9efab1461071a578063e4842cba14610745578063e985e9c514610775578063f2fde38b146107b2576101ee565b8063a22cb46514610637578063ad3cb1cc14610660578063b88d4fde1461068b578063c87b56dd146106b4576101ee565b80638456cb59116100dc5780638456cb59146105a15780638da5cb5b146105b857806395d89b41146105e3578063a1365bf11461060e576101ee565b80636352211e146104d357806365e5a94b1461051057806370a082311461054d578063715018a61461058a576101ee565b80633c2ec44c116101855780634f1ef286116101545780634f1ef286146104245780634f6ccce71461044057806352d1902d1461047d5780635c975abb146104a8576101ee565b80633c2ec44c1461037b5780633f4ba83a146103bb57806342842e0e146103d2578063485cc955146103fb576101ee565b806318160ddd116101c157806318160ddd146102c157806323b872dd146102ec5780632f56d04b146103155780632f745c591461033e576101ee565b806301ffc9a7146101f357806306fdde0314610230578063081812fc1461025b578063095ea7b314610298575b600080fd5b3480156101ff57600080fd5b5061021a60048036038101906102159190613bb4565b6107db565b6040516102279190613bfc565b60405180910390f35b34801561023c57600080fd5b506102456107ed565b6040516102529190613ca7565b60405180910390f35b34801561026757600080fd5b50610282600480360381019061027d9190613cff565b61088e565b60405161028f9190613d6d565b60405180910390f35b3480156102a457600080fd5b506102bf60048036038101906102ba9190613db4565b6108aa565b005b3480156102cd57600080fd5b506102d66108c0565b6040516102e39190613e03565b60405180910390f35b3480156102f857600080fd5b50610313600480360381019061030e9190613e1e565b6108db565b005b34801561032157600080fd5b5061033c60048036038101906103379190613fb9565b6109dd565b005b34801561034a57600080fd5b5061036560048036038101906103609190613db4565b610b59565b6040516103729190613e03565b60405180910390f35b34801561038757600080fd5b506103a2600480360381019061039d9190613cff565b610c10565b6040516103b294939291906140e6565b60405180910390f35b3480156103c757600080fd5b506103d0610de3565b005b3480156103de57600080fd5b506103f960048036038101906103f49190613e1e565b610df5565b005b34801561040757600080fd5b50610422600480360381019061041d9190614140565b610e15565b005b61043e60048036038101906104399190614235565b61108c565b005b34801561044c57600080fd5b5061046760048036038101906104629190613cff565b6110ab565b6040516104749190613e03565b60405180910390f35b34801561048957600080fd5b5061049261112f565b60405161049f91906142aa565b60405180910390f35b3480156104b457600080fd5b506104bd611162565b6040516104ca9190613bfc565b60405180910390f35b3480156104df57600080fd5b506104fa60048036038101906104f59190613cff565b611187565b6040516105079190613d6d565b60405180910390f35b34801561051c57600080fd5b50610537600480360381019061053291906142c5565b611199565b60405161054491906144f1565b60405180910390f35b34801561055957600080fd5b50610574600480360381019061056f91906142c5565b611436565b6040516105819190613e03565b60405180910390f35b34801561059657600080fd5b5061059f6114ff565b005b3480156105ad57600080fd5b506105b6611513565b005b3480156105c457600080fd5b506105cd611525565b6040516105da9190613d6d565b60405180910390f35b3480156105ef57600080fd5b506105f861155d565b6040516106059190613ca7565b60405180910390f35b34801561061a57600080fd5b50610635600480360381019061063091906142c5565b6115fe565b005b34801561064357600080fd5b5061065e6004803603810190610659919061453f565b611642565b005b34801561066c57600080fd5b50610675611658565b6040516106829190613ca7565b60405180910390f35b34801561069757600080fd5b506106b260048036038101906106ad919061457f565b611691565b005b3480156106c057600080fd5b506106db60048036038101906106d69190613cff565b6116ae565b6040516106e89190613ca7565b60405180910390f35b3480156106fd57600080fd5b50610718600480360381019061071391906146a3565b611901565b005b34801561072657600080fd5b5061072f61193c565b60405161073c919061475e565b60405180910390f35b61075f600480360381019061075a9190614779565b611962565b60405161076c9190613e03565b60405180910390f35b34801561078157600080fd5b5061079c60048036038101906107979190614140565b611bef565b6040516107a99190613bfc565b60405180910390f35b3480156107be57600080fd5b506107d960048036038101906107d491906142c5565b611c91565b005b60006107e682611d17565b9050919050565b606060006107f9611d78565b905080600001805461080a90614833565b80601f016020809104026020016040519081016040528092919081815260200182805461083690614833565b80156108835780601f1061085857610100808354040283529160200191610883565b820191906000526020600020905b81548152906001019060200180831161086657829003601f168201915b505050505091505090565b600061089982611da0565b506108a382611e28565b9050919050565b6108bc82826108b7611e73565b611e7b565b5050565b6000806108cb611e8d565b9050806002018054905091505090565b600073ffffffffffffffffffffffffffffffffffffffff168273ffffffffffffffffffffffffffffffffffffffff160361094d5760006040517f64a0ae920000000000000000000000000000000000000000000000000000000081526004016109449190613d6d565b60405180910390fd5b6000610961838361095c611e73565b611eb5565b90508373ffffffffffffffffffffffffffffffffffffffff168173ffffffffffffffffffffffffffffffffffffffff16146109d7578382826040517f64283d7b0000000000000000000000000000000000000000000000000000000081526004016109ce93929190614864565b60405180910390fd5b50505050565b81600260008581526020019081526020016000206002016000828254610a0391906148ca565b92505081905550600081511115610b0457600080600090505b8251811015610aac5760026000868152602001908152602001600020600301838281518110610a4e57610a4d6148fe565b5b60200260200101519080600181540180825580915050600190039060005260206000200160009091909190915055828181518110610a8f57610a8e6148fe565b5b602002602001015191508080610aa49061492d565b915050610a1c565b507fd27da4e7d2a804980d32d7c1594617be2bed0ec1f6231aaaec610029e881958e84600260008781526020019081526020016000206002015483604051610af693929190614975565b60405180910390a150610b54565b7f8bea1eb60a318372d9e3564615953ccdd27cd425790c16889c29330837733dfb836002600086815260200190815260200160002060020154604051610b4b9291906149ac565b60405180910390a15b505050565b600080610b64611e8d565b9050610b6f84611436565b8310610bb45783836040517fa57d13dc000000000000000000000000000000000000000000000000000000008152600401610bab9291906149d5565b60405180910390fd5b8060000160008573ffffffffffffffffffffffffffffffffffffffff1673ffffffffffffffffffffffffffffffffffffffff16815260200190815260200160002060008481526020019081526020016000205491505092915050565b60608060006060600060026000878152602001908152602001600020604051806080016040529081600082018054610c4790614833565b80601f0160208091040260200160405190810160405280929190818152602001828054610c7390614833565b8015610cc05780601f10610c9557610100808354040283529160200191610cc0565b820191906000526020600020905b815481529060010190602001808311610ca357829003601f168201915b50505050508152602001600182018054610cd990614833565b80601f0160208091040260200160405190810160405280929190818152602001828054610d0590614833565b8015610d525780601f10610d2757610100808354040283529160200191610d52565b820191906000526020600020905b815481529060010190602001808311610d3557829003601f168201915b505050505081526020016002820154815260200160038201805480602002602001604051908101604052809291908181526020018280548015610db457602002820191906000526020600020905b815481526020019060010190808311610da0575b505050505081525050905080600001518160200151826040015183606001519450945094509450509193509193565b610deb611ecb565b610df3611f52565b565b610e1083838360405180602001604052806000815250611691565b505050565b6000610e1f611fc4565b905060008160000160089054906101000a900460ff1615905060008260000160009054906101000a900467ffffffffffffffff1690506000808267ffffffffffffffff16148015610e6d5750825b9050600060018367ffffffffffffffff16148015610ea2575060003073ffffffffffffffffffffffffffffffffffffffff163b145b905081158015610eb0575080155b15610ee7576040517ff92ee8a900000000000000000000000000000000000000000000000000000000815260040160405180910390fd5b60018560000160006101000a81548167ffffffffffffffff021916908367ffffffffffffffff1602179055508315610f375760018560000160086101000a81548160ff0219169083151502179055505b610fab6040518060400160405280600981526020017f43686172616374657200000000000000000000000000000000000000000000008152506040518060400160405280600481526020017f4348415200000000000000000000000000000000000000000000000000000000815250611fec565b610fb3612002565b610fbb61200c565b610fc3612016565b610fcc87612028565b610fd461203c565b85600160006101000a81548173ffffffffffffffffffffffffffffffffffffffff021916908373ffffffffffffffffffffffffffffffffffffffff16021790555060008054036110275760016000819055505b83156110835760008560000160086101000a81548160ff0219169083151502179055507fc7f505b2f371ae2175ee4913f4499e1f2633a7b5936321eed1cdaeb6115181d2600160405161107a9190614a4d565b60405180910390a15b50505050505050565b611094612046565b61109d8261212c565b6110a78282612137565b5050565b6000806110b6611e8d565b90506110c06108c0565b8310611106576000836040517fa57d13dc0000000000000000000000000000000000000000000000000000000081526004016110fd9291906149d5565b60405180910390fd5b80600201838154811061111c5761111b6148fe565b5b9060005260206000200154915050919050565b6000611139612256565b7f360894a13ba1a3210667c828492db98dca3e2076cc3735a920a3ca505d382bbc60001b905090565b60008061116d6122dd565b90508060000160009054906101000a900460ff1691505090565b600061119282611da0565b9050919050565b606060006111a683611436565b905060008167ffffffffffffffff8111156111c4576111c3613e76565b5b6040519080825280602002602001820160405280156111fd57816020015b6111ea613aaf565b8152602001906001900390816111e25790505b50905060005b8281101561142b5760006112178683610b59565b905060006002600083815260200190815260200160002060405180608001604052908160008201805461124990614833565b80601f016020809104026020016040519081016040528092919081815260200182805461127590614833565b80156112c25780601f10611297576101008083540402835291602001916112c2565b820191906000526020600020905b8154815290600101906020018083116112a557829003601f168201915b505050505081526020016001820180546112db90614833565b80601f016020809104026020016040519081016040528092919081815260200182805461130790614833565b80156113545780601f1061132957610100808354040283529160200191611354565b820191906000526020600020905b81548152906001019060200180831161133757829003601f168201915b5050505050815260200160028201548152602001600382018054806020026020016040519081016040528092919081815260200182805480156113b657602002820191906000526020600020905b8154815260200190600101908083116113a2575b50505050508152505090506040518060a00160405280838152602001826000015181526020018260200151815260200182604001518152602001826060015181525084848151811061140b5761140a6148fe565b5b6020026020010181905250505080806114239061492d565b915050611203565b508092505050919050565b600080611441611d78565b9050600073ffffffffffffffffffffffffffffffffffffffff168373ffffffffffffffffffffffffffffffffffffffff16036114b55760006040517f89c62b640000000000000000000000000000000000000000000000000000000081526004016114ac9190613d6d565b60405180910390fd5b8060030160008473ffffffffffffffffffffffffffffffffffffffff1673ffffffffffffffffffffffffffffffffffffffff16815260200190815260200160002054915050919050565b611507611ecb565b6115116000612305565b565b61151b611ecb565b6115236123dc565b565b60008061153061244e565b90508060000160009054906101000a900473ffffffffffffffffffffffffffffffffffffffff1691505090565b60606000611569611d78565b905080600101805461157a90614833565b80601f01602080910402602001604051908101604052809291908181526020018280546115a690614833565b80156115f35780601f106115c8576101008083540402835291602001916115f3565b820191906000526020600020905b8154815290600101906020018083116115d657829003601f168201915b505050505091505090565b80600160006101000a81548173ffffffffffffffffffffffffffffffffffffffff021916908373ffffffffffffffffffffffffffffffffffffffff16021790555050565b61165461164d611e73565b8383612476565b5050565b6040518060400160405280600581526020017f352e302e3000000000000000000000000000000000000000000000000000000081525081565b61169c8484846108db565b6116a8848484846125f4565b50505050565b60606116b8611e73565b73ffffffffffffffffffffffffffffffffffffffff166116d783611187565b73ffffffffffffffffffffffffffffffffffffffff161461172d576040517f08c379a000000000000000000000000000000000000000000000000000000000815260040161172490614ada565b60405180910390fd5b60006002600084815260200190815260200160002060405180608001604052908160008201805461175d90614833565b80601f016020809104026020016040519081016040528092919081815260200182805461178990614833565b80156117d65780601f106117ab576101008083540402835291602001916117d6565b820191906000526020600020905b8154815290600101906020018083116117b957829003601f168201915b505050505081526020016001820180546117ef90614833565b80601f016020809104026020016040519081016040528092919081815260200182805461181b90614833565b80156118685780601f1061183d57610100808354040283529160200191611868565b820191906000526020600020905b81548152906001019060200180831161184b57829003601f168201915b5050505050815260200160028201548152602001600382018054806020026020016040519081016040528092919081815260200182805480156118ca57602002820191906000526020600020905b8154815260200190600101908083116118b6575b505050505081525050905080602001516040516020016118ea9190614ba8565b604051602081830303815290604052915050919050565b611909611ecb565b600080600081548092919061191d9061492d565b91905055905061192d83826127ab565b61193781836127c9565b505050565b600160009054906101000a900473ffffffffffffffffffffffffffffffffffffffff1681565b600080600160009054906101000a900473ffffffffffffffffffffffffffffffffffffffff1673ffffffffffffffffffffffffffffffffffffffff16346040516119ab90614bfb565b60006040518083038185875af1925050503d80600081146119e8576040519150601f19603f3d011682016040523d82523d6000602084013e6119ed565b606091505b5050905080611a31576040517f08c379a0000000000000000000000000000000000000000000000000000000008152600401611a2890614c5c565b60405180910390fd5b600080549050611a4186826127ab565b6000600167ffffffffffffffff811115611a5e57611a5d613e76565b5b604051908082528060200260200182016040528015611a8c5781602001602082028036833780820191505090505b509050600a424433604051602001611aa693929190614ce5565b6040516020818303038152906040528051906020012060001c611ac99190614d51565b81600081518110611add57611adc6148fe565b5b60200260200101818152505060405180608001604052808781526020018681526020016000815260200182815250600260008481526020019081526020016000206000820151816000019081611b339190614f24565b506020820151816001019081611b499190614f24565b50604082015181600201556060820151816003019080519060200190611b70929190613ade565b509050506001600080828254611b8691906148ca565b925050819055508673ffffffffffffffffffffffffffffffffffffffff167fd8adc0e605d8015d540affd010477bc1975b6fe2faf1fe3b06abcc275828737f8388888551604051611bda9493929190614ff6565b60405180910390a28193505050509392505050565b600080611bfa611d78565b90508060050160008573ffffffffffffffffffffffffffffffffffffffff1673ffffffffffffffffffffffffffffffffffffffff16815260200190815260200160002060008473ffffffffffffffffffffffffffffffffffffffff1673ffffffffffffffffffffffffffffffffffffffff16815260200190815260200160002060009054906101000a900460ff1691505092915050565b611c99611ecb565b600073ffffffffffffffffffffffffffffffffffffffff168173ffffffffffffffffffffffffffffffffffffffff1603611d0b5760006040517f1e4fbdf7000000000000000000000000000000000000000000000000000000008152600401611d029190613d6d565b60405180910390fd5b611d1481612305565b50565b6000634906490660e01b7bffffffffffffffffffffffffffffffffffffffffffffffffffffffff1916827bffffffffffffffffffffffffffffffffffffffffffffffffffffffff19161480611d715750611d7082612834565b5b9050919050565b60007f80bb2b638cc20bc4d0a60d66940f3ab4a00c1d7b313497ca82fb0b4ab0079300905090565b600080611dac836128ae565b9050600073ffffffffffffffffffffffffffffffffffffffff168173ffffffffffffffffffffffffffffffffffffffff1603611e1f57826040517f7e273289000000000000000000000000000000000000000000000000000000008152600401611e169190613e03565b60405180910390fd5b80915050919050565b600080611e33611d78565b905080600401600084815260200190815260200160002060009054906101000a900473ffffffffffffffffffffffffffffffffffffffff16915050919050565b600033905090565b611e8883838360016128f9565b505050565b60007f645e039705490088daad89bae25049a34f4a9072d398537b1ab2425f24cbed00905090565b6000611ec2848484612acd565b90509392505050565b611ed3611e73565b73ffffffffffffffffffffffffffffffffffffffff16611ef1611525565b73ffffffffffffffffffffffffffffffffffffffff1614611f5057611f14611e73565b6040517f118cdaa7000000000000000000000000000000000000000000000000000000008152600401611f479190613d6d565b60405180910390fd5b565b611f5a612aeb565b6000611f646122dd565b905060008160000160006101000a81548160ff0219169083151502179055507f5db9ee0a495bf2e6ff9c91a7834c1ba4fdd244a5e8aa4e537bd38aeae4b073aa611fac611e73565b604051611fb99190613d6d565b60405180910390a150565b60007ff0c57e16840df040f15088dc2f81fe391c3923bec73e23a9662efc9c229c6a00905090565b611ff4612b2b565b611ffe8282612b6b565b5050565b61200a612b2b565b565b612014612b2b565b565b61201e612b2b565b612026612ba8565b565b612030612b2b565b61203981612bdc565b50565b612044612b2b565b565b7f000000000000000000000000000000000000000000000000000000000000000073ffffffffffffffffffffffffffffffffffffffff163073ffffffffffffffffffffffffffffffffffffffff1614806120f357507f000000000000000000000000000000000000000000000000000000000000000073ffffffffffffffffffffffffffffffffffffffff166120da612c62565b73ffffffffffffffffffffffffffffffffffffffff1614155b1561212a576040517fe07c8dba00000000000000000000000000000000000000000000000000000000815260040160405180910390fd5b565b612134611ecb565b50565b8173ffffffffffffffffffffffffffffffffffffffff166352d1902d6040518163ffffffff1660e01b8152600401602060405180830381865afa92505050801561219f57506040513d601f19601f8201168201806040525081019061219c9190615075565b60015b6121e057816040517f4c9c8ce30000000000000000000000000000000000000000000000000000000081526004016121d79190613d6d565b60405180910390fd5b7f360894a13ba1a3210667c828492db98dca3e2076cc3735a920a3ca505d382bbc60001b811461224757806040517faa1d49a400000000000000000000000000000000000000000000000000000000815260040161223e91906142aa565b60405180910390fd5b6122518383612cb9565b505050565b7f000000000000000000000000000000000000000000000000000000000000000073ffffffffffffffffffffffffffffffffffffffff163073ffffffffffffffffffffffffffffffffffffffff16146122db576040517fe07c8dba00000000000000000000000000000000000000000000000000000000815260040160405180910390fd5b565b60007fcd5ed15c6e187e77e9aee88184c21f4f2182ab5827cb3b7e07fbedcd63f03300905090565b600061230f61244e565b905060008160000160009054906101000a900473ffffffffffffffffffffffffffffffffffffffff169050828260000160006101000a81548173ffffffffffffffffffffffffffffffffffffffff021916908373ffffffffffffffffffffffffffffffffffffffff1602179055508273ffffffffffffffffffffffffffffffffffffffff168173ffffffffffffffffffffffffffffffffffffffff167f8be0079c531659141344cd1fd0a4f28419497f9722a3daafe3b4186f6b6457e060405160405180910390a3505050565b6123e4612d2c565b60006123ee6122dd565b905060018160000160006101000a81548160ff0219169083151502179055507f62e78cea01bee320cd4e420270b5ea74000d11b0c9f74754ebdbfc544b05a258612436611e73565b6040516124439190613d6d565b60405180910390a150565b60007f9016d09d72d40fdae2fd8ceac6b6234c7706214fd39c1cd1e609a0528c199300905090565b6000612480611d78565b9050600073ffffffffffffffffffffffffffffffffffffffff168373ffffffffffffffffffffffffffffffffffffffff16036124f357826040517f5b08ba180000000000000000000000000000000000000000000000000000000081526004016124ea9190613d6d565b60405180910390fd5b818160050160008673ffffffffffffffffffffffffffffffffffffffff1673ffffffffffffffffffffffffffffffffffffffff16815260200190815260200160002060008573ffffffffffffffffffffffffffffffffffffffff1673ffffffffffffffffffffffffffffffffffffffff16815260200190815260200160002060006101000a81548160ff0219169083151502179055508273ffffffffffffffffffffffffffffffffffffffff168473ffffffffffffffffffffffffffffffffffffffff167f17307eab39ab6107e8899845ad3d59bd9653f200f220920489ca2b5937696c31846040516125e69190613bfc565b60405180910390a350505050565b60008373ffffffffffffffffffffffffffffffffffffffff163b11156127a5578273ffffffffffffffffffffffffffffffffffffffff1663150b7a02612638611e73565b8685856040518563ffffffff1660e01b815260040161265a94939291906150f7565b6020604051808303816000875af192505050801561269657506040513d601f19601f820116820180604052508101906126939190615158565b60015b61271a573d80600081146126c6576040519150601f19603f3d011682016040523d82523d6000602084013e6126cb565b606091505b50600081510361271257836040517f64a0ae920000000000000000000000000000000000000000000000000000000081526004016127099190613d6d565b60405180910390fd5b805181602001fd5b63150b7a0260e01b7bffffffffffffffffffffffffffffffffffffffffffffffffffffffff1916817bffffffffffffffffffffffffffffffffffffffffffffffffffffffff1916146127a357836040517f64a0ae9200000000000000000000000000000000000000000000000000000000815260040161279a9190613d6d565b60405180910390fd5b505b50505050565b6127c5828260405180602001604052806000815250612d6d565b5050565b60006127d3612d89565b90508181600001600085815260200190815260200160002090816127f79190614f24565b507ff8e1a15aba9398e019f0b49df1a4fde98ee17ae345cb5f6b5e2c27f5033e8ce7836040516128279190613e03565b60405180910390a1505050565b60007f780e9d63000000000000000000000000000000000000000000000000000000007bffffffffffffffffffffffffffffffffffffffffffffffffffffffff1916827bffffffffffffffffffffffffffffffffffffffffffffffffffffffff191614806128a757506128a682612db1565b5b9050919050565b6000806128b9611d78565b905080600201600084815260200190815260200160002060009054906101000a900473ffffffffffffffffffffffffffffffffffffffff16915050919050565b6000612903611d78565b9050818061293e5750600073ffffffffffffffffffffffffffffffffffffffff168373ffffffffffffffffffffffffffffffffffffffff1614155b15612a7257600061294e85611da0565b9050600073ffffffffffffffffffffffffffffffffffffffff168473ffffffffffffffffffffffffffffffffffffffff16141580156129b957508373ffffffffffffffffffffffffffffffffffffffff168173ffffffffffffffffffffffffffffffffffffffff1614155b80156129cc57506129ca8185611bef565b155b15612a0e57836040517fa9fbf51f000000000000000000000000000000000000000000000000000000008152600401612a059190613d6d565b60405180910390fd5b8215612a7057848673ffffffffffffffffffffffffffffffffffffffff168273ffffffffffffffffffffffffffffffffffffffff167f8c5be1e5ebec7d5bd14f71427d1e84f3dd0314c0f7b2291e5b200ac8c7c3b92560405160405180910390a45b505b8481600401600086815260200190815260200160002060006101000a81548173ffffffffffffffffffffffffffffffffffffffff021916908373ffffffffffffffffffffffffffffffffffffffff1602179055505050505050565b6000612ad7612d2c565b612ae2848484612e93565b90509392505050565b612af3611162565b612b29576040517f8dfc202b00000000000000000000000000000000000000000000000000000000815260040160405180910390fd5b565b612b33612fb0565b612b69576040517fd7e6bcf800000000000000000000000000000000000000000000000000000000815260040160405180910390fd5b565b612b73612b2b565b6000612b7d611d78565b905082816000019081612b909190614f24565b5081816001019081612ba29190614f24565b50505050565b612bb0612b2b565b6000612bba6122dd565b905060008160000160006101000a81548160ff02191690831515021790555050565b612be4612b2b565b600073ffffffffffffffffffffffffffffffffffffffff168173ffffffffffffffffffffffffffffffffffffffff1603612c565760006040517f1e4fbdf7000000000000000000000000000000000000000000000000000000008152600401612c4d9190613d6d565b60405180910390fd5b612c5f81612305565b50565b6000612c907f360894a13ba1a3210667c828492db98dca3e2076cc3735a920a3ca505d382bbc60001b612fd0565b60000160009054906101000a900473ffffffffffffffffffffffffffffffffffffffff16905090565b612cc282612fda565b8173ffffffffffffffffffffffffffffffffffffffff167fbc7cd75a20ee27fd9adebab32041f755214dbc6bffa90cc0225b39da2e5c2d3b60405160405180910390a2600081511115612d1f57612d1982826130a7565b50612d28565b612d2761312b565b5b5050565b612d34611162565b15612d6b576040517fd93c066500000000000000000000000000000000000000000000000000000000815260040160405180910390fd5b565b612d778383613168565b612d8460008484846125f4565b505050565b60007f0542a41881ee128a365a727b282c86fa859579490b9bb45aab8503648c8e7900905090565b60007f80ac58cd000000000000000000000000000000000000000000000000000000007bffffffffffffffffffffffffffffffffffffffffffffffffffffffff1916827bffffffffffffffffffffffffffffffffffffffffffffffffffffffff19161480612e7c57507f5b5e139f000000000000000000000000000000000000000000000000000000007bffffffffffffffffffffffffffffffffffffffffffffffffffffffff1916827bffffffffffffffffffffffffffffffffffffffffffffffffffffffff1916145b80612e8c5750612e8b82613261565b5b9050919050565b600080612ea18585856132cb565b9050600073ffffffffffffffffffffffffffffffffffffffff168173ffffffffffffffffffffffffffffffffffffffff1603612ee557612ee0846134f8565b612f24565b8473ffffffffffffffffffffffffffffffffffffffff168173ffffffffffffffffffffffffffffffffffffffff1614612f2357612f228185613554565b5b5b600073ffffffffffffffffffffffffffffffffffffffff168573ffffffffffffffffffffffffffffffffffffffff1603612f6657612f61846136ce565b612fa5565b8473ffffffffffffffffffffffffffffffffffffffff168173ffffffffffffffffffffffffffffffffffffffff1614612fa457612fa385856137ba565b5b5b809150509392505050565b6000612fba611fc4565b60000160089054906101000a900460ff16905090565b6000819050919050565b60008173ffffffffffffffffffffffffffffffffffffffff163b0361303657806040517f4c9c8ce300000000000000000000000000000000000000000000000000000000815260040161302d9190613d6d565b60405180910390fd5b806130637f360894a13ba1a3210667c828492db98dca3e2076cc3735a920a3ca505d382bbc60001b612fd0565b60000160006101000a81548173ffffffffffffffffffffffffffffffffffffffff021916908373ffffffffffffffffffffffffffffffffffffffff16021790555050565b60606000808473ffffffffffffffffffffffffffffffffffffffff16846040516130d191906151b6565b600060405180830381855af49150503d806000811461310c576040519150601f19603f3d011682016040523d82523d6000602084013e613111565b606091505b5091509150613121858383613856565b9250505092915050565b6000341115613166576040517fb398979f00000000000000000000000000000000000000000000000000000000815260040160405180910390fd5b565b600073ffffffffffffffffffffffffffffffffffffffff168273ffffffffffffffffffffffffffffffffffffffff16036131da5760006040517f64a0ae920000000000000000000000000000000000000000000000000000000081526004016131d19190613d6d565b60405180910390fd5b60006131e883836000611eb5565b9050600073ffffffffffffffffffffffffffffffffffffffff168173ffffffffffffffffffffffffffffffffffffffff161461325c5760006040517f73c6ac6e0000000000000000000000000000000000000000000000000000000081526004016132539190613d6d565b60405180910390fd5b505050565b60007f01ffc9a7000000000000000000000000000000000000000000000000000000007bffffffffffffffffffffffffffffffffffffffffffffffffffffffff1916827bffffffffffffffffffffffffffffffffffffffffffffffffffffffff1916149050919050565b6000806132d6611d78565b905060006132e3856128ae565b9050600073ffffffffffffffffffffffffffffffffffffffff168473ffffffffffffffffffffffffffffffffffffffff1614613325576133248185876138e5565b5b600073ffffffffffffffffffffffffffffffffffffffff168173ffffffffffffffffffffffffffffffffffffffff16146133b8576133676000866000806128f9565b60018260030160008373ffffffffffffffffffffffffffffffffffffffff1673ffffffffffffffffffffffffffffffffffffffff168152602001908152602001600020600082825403925050819055505b600073ffffffffffffffffffffffffffffffffffffffff168673ffffffffffffffffffffffffffffffffffffffff161461343d5760018260030160008873ffffffffffffffffffffffffffffffffffffffff1673ffffffffffffffffffffffffffffffffffffffff168152602001908152602001600020600082825401925050819055505b8582600201600087815260200190815260200160002060006101000a81548173ffffffffffffffffffffffffffffffffffffffff021916908373ffffffffffffffffffffffffffffffffffffffff160217905550848673ffffffffffffffffffffffffffffffffffffffff168273ffffffffffffffffffffffffffffffffffffffff167fddf252ad1be2c89b69c2b068fc378daa952ba7f163c4a11628f55a4df523b3ef60405160405180910390a480925050509392505050565b6000613502611e8d565b9050806002018054905081600301600084815260200190815260200160002081905550806002018290806001815401808255809150506001900390600052602060002001600090919091909150555050565b600061355e611e8d565b9050600061356b84611436565b905060008260010160008581526020019081526020016000205490508181146136585760008360000160008773ffffffffffffffffffffffffffffffffffffffff1673ffffffffffffffffffffffffffffffffffffffff1681526020019081526020016000206000848152602001908152602001600020549050808460000160008873ffffffffffffffffffffffffffffffffffffffff1673ffffffffffffffffffffffffffffffffffffffff1681526020019081526020016000206000848152602001908152602001600020819055508184600101600083815260200190815260200160002081905550505b826001016000858152602001908152602001600020600090558260000160008673ffffffffffffffffffffffffffffffffffffffff1673ffffffffffffffffffffffffffffffffffffffff1681526020019081526020016000206000838152602001908152602001600020600090555050505050565b60006136d8611e8d565b90506000600182600201805490506136f091906151cd565b905060008260030160008581526020019081526020016000205490506000836002018381548110613724576137236148fe565b5b9060005260206000200154905080846002018381548110613748576137476148fe565b5b90600052602060002001819055508184600301600083815260200190815260200160002081905550836003016000868152602001908152602001600020600090558360020180548061379d5761379c615201565b5b600190038181906000526020600020016000905590555050505050565b60006137c4611e8d565b9050600060016137d385611436565b6137dd91906151cd565b9050828260000160008673ffffffffffffffffffffffffffffffffffffffff1673ffffffffffffffffffffffffffffffffffffffff168152602001908152602001600020600083815260200190815260200160002081905550808260010160008581526020019081526020016000208190555050505050565b60608261386b57613866826139a9565b6138dd565b60008251148015613893575060008473ffffffffffffffffffffffffffffffffffffffff163b145b156138d557836040517f9996b3150000000000000000000000000000000000000000000000000000000081526004016138cc9190613d6d565b60405180910390fd5b8190506138de565b5b9392505050565b6138f08383836139ee565b6139a457600073ffffffffffffffffffffffffffffffffffffffff168373ffffffffffffffffffffffffffffffffffffffff160361396557806040517f7e27328900000000000000000000000000000000000000000000000000000000815260040161395c9190613e03565b60405180910390fd5b81816040517f177e802f00000000000000000000000000000000000000000000000000000000815260040161399b9291906149d5565b60405180910390fd5b505050565b6000815111156139bc5780518082602001fd5b6040517f1425ea4200000000000000000000000000000000000000000000000000000000815260040160405180910390fd5b60008073ffffffffffffffffffffffffffffffffffffffff168373ffffffffffffffffffffffffffffffffffffffff1614158015613aa657508273ffffffffffffffffffffffffffffffffffffffff168473ffffffffffffffffffffffffffffffffffffffff161480613a675750613a668484611bef565b5b80613aa557508273ffffffffffffffffffffffffffffffffffffffff16613a8d83611e28565b73ffffffffffffffffffffffffffffffffffffffff16145b5b90509392505050565b6040518060a0016040528060008152602001606081526020016060815260200160008152602001606081525090565b828054828255906000526020600020908101928215613b1a579160200282015b82811115613b19578251825591602001919060010190613afe565b5b509050613b279190613b2b565b5090565b5b80821115613b44576000816000905550600101613b2c565b5090565b6000604051905090565b600080fd5b600080fd5b60007fffffffff0000000000000000000000000000000000000000000000000000000082169050919050565b613b9181613b5c565b8114613b9c57600080fd5b50565b600081359050613bae81613b88565b92915050565b600060208284031215613bca57613bc9613b52565b5b6000613bd884828501613b9f565b91505092915050565b60008115159050919050565b613bf681613be1565b82525050565b6000602082019050613c116000830184613bed565b92915050565b600081519050919050565b600082825260208201905092915050565b60005b83811015613c51578082015181840152602081019050613c36565b60008484015250505050565b6000601f19601f8301169050919050565b6000613c7982613c17565b613c838185613c22565b9350613c93818560208601613c33565b613c9c81613c5d565b840191505092915050565b60006020820190508181036000830152613cc18184613c6e565b905092915050565b6000819050919050565b613cdc81613cc9565b8114613ce757600080fd5b50565b600081359050613cf981613cd3565b92915050565b600060208284031215613d1557613d14613b52565b5b6000613d2384828501613cea565b91505092915050565b600073ffffffffffffffffffffffffffffffffffffffff82169050919050565b6000613d5782613d2c565b9050919050565b613d6781613d4c565b82525050565b6000602082019050613d826000830184613d5e565b92915050565b613d9181613d4c565b8114613d9c57600080fd5b50565b600081359050613dae81613d88565b92915050565b60008060408385031215613dcb57613dca613b52565b5b6000613dd985828601613d9f565b9250506020613dea85828601613cea565b9150509250929050565b613dfd81613cc9565b82525050565b6000602082019050613e186000830184613df4565b92915050565b600080600060608486031215613e3757613e36613b52565b5b6000613e4586828701613d9f565b9350506020613e5686828701613d9f565b9250506040613e6786828701613cea565b9150509250925092565b600080fd5b7f4e487b7100000000000000000000000000000000000000000000000000000000600052604160045260246000fd5b613eae82613c5d565b810181811067ffffffffffffffff82111715613ecd57613ecc613e76565b5b80604052505050565b6000613ee0613b48565b9050613eec8282613ea5565b919050565b600067ffffffffffffffff821115613f0c57613f0b613e76565b5b602082029050602081019050919050565b600080fd5b6000613f35613f3084613ef1565b613ed6565b90508083825260208201905060208402830185811115613f5857613f57613f1d565b5b835b81811015613f815780613f6d8882613cea565b845260208401935050602081019050613f5a565b5050509392505050565b600082601f830112613fa057613f9f613e71565b5b8135613fb0848260208601613f22565b91505092915050565b600080600060608486031215613fd257613fd1613b52565b5b6000613fe086828701613cea565b9350506020613ff186828701613cea565b925050604084013567ffffffffffffffff81111561401257614011613b57565b5b61401e86828701613f8b565b9150509250925092565b600081519050919050565b600082825260208201905092915050565b6000819050602082019050919050565b61405d81613cc9565b82525050565b600061406f8383614054565b60208301905092915050565b6000602082019050919050565b600061409382614028565b61409d8185614033565b93506140a883614044565b8060005b838110156140d95781516140c08882614063565b97506140cb8361407b565b9250506001810190506140ac565b5085935050505092915050565b600060808201905081810360008301526141008187613c6e565b905081810360208301526141148186613c6e565b90506141236040830185613df4565b81810360608301526141358184614088565b905095945050505050565b6000806040838503121561415757614156613b52565b5b600061416585828601613d9f565b925050602061417685828601613d9f565b9150509250929050565b600080fd5b600067ffffffffffffffff8211156141a05761419f613e76565b5b6141a982613c5d565b9050602081019050919050565b82818337600083830152505050565b60006141d86141d384614185565b613ed6565b9050828152602081018484840111156141f4576141f3614180565b5b6141ff8482856141b6565b509392505050565b600082601f83011261421c5761421b613e71565b5b813561422c8482602086016141c5565b91505092915050565b6000806040838503121561424c5761424b613b52565b5b600061425a85828601613d9f565b925050602083013567ffffffffffffffff81111561427b5761427a613b57565b5b61428785828601614207565b9150509250929050565b6000819050919050565b6142a481614291565b82525050565b60006020820190506142bf600083018461429b565b92915050565b6000602082840312156142db576142da613b52565b5b60006142e984828501613d9f565b91505092915050565b600081519050919050565b600082825260208201905092915050565b6000819050602082019050919050565b600082825260208201905092915050565b600061433a82613c17565b614344818561431e565b9350614354818560208601613c33565b61435d81613c5d565b840191505092915050565b600082825260208201905092915050565b600061438482614028565b61438e8185614368565b935061439983614044565b8060005b838110156143ca5781516143b18882614063565b97506143bc8361407b565b92505060018101905061439d565b5085935050505092915050565b600060a0830160008301516143ef6000860182614054565b5060208301518482036020860152614407828261432f565b91505060408301518482036040860152614421828261432f565b91505060608301516144366060860182614054565b506080830151848203608086015261444e8282614379565b9150508091505092915050565b600061446783836143d7565b905092915050565b6000602082019050919050565b6000614487826142f2565b61449181856142fd565b9350836020820285016144a38561430e565b8060005b858110156144df57848403895281516144c0858261445b565b94506144cb8361446f565b925060208a019950506001810190506144a7565b50829750879550505050505092915050565b6000602082019050818103600083015261450b818461447c565b905092915050565b61451c81613be1565b811461452757600080fd5b50565b60008135905061453981614513565b92915050565b6000806040838503121561455657614555613b52565b5b600061456485828601613d9f565b92505060206145758582860161452a565b9150509250929050565b6000806000806080858703121561459957614598613b52565b5b60006145a787828801613d9f565b94505060206145b887828801613d9f565b93505060406145c987828801613cea565b925050606085013567ffffffffffffffff8111156145ea576145e9613b57565b5b6145f687828801614207565b91505092959194509250565b600067ffffffffffffffff82111561461d5761461c613e76565b5b61462682613c5d565b9050602081019050919050565b600061464661464184614602565b613ed6565b90508281526020810184848401111561466257614661614180565b5b61466d8482856141b6565b509392505050565b600082601f83011261468a57614689613e71565b5b813561469a848260208601614633565b91505092915050565b600080604083850312156146ba576146b9613b52565b5b60006146c885828601613d9f565b925050602083013567ffffffffffffffff8111156146e9576146e8613b57565b5b6146f585828601614675565b9150509250929050565b6000819050919050565b600061472461471f61471a84613d2c565b6146ff565b613d2c565b9050919050565b600061473682614709565b9050919050565b60006147488261472b565b9050919050565b6147588161473d565b82525050565b6000602082019050614773600083018461474f565b92915050565b60008060006060848603121561479257614791613b52565b5b60006147a086828701613d9f565b935050602084013567ffffffffffffffff8111156147c1576147c0613b57565b5b6147cd86828701614675565b925050604084013567ffffffffffffffff8111156147ee576147ed613b57565b5b6147fa86828701614675565b9150509250925092565b7f4e487b7100000000000000000000000000000000000000000000000000000000600052602260045260246000fd5b6000600282049050600182168061484b57607f821691505b60208210810361485e5761485d614804565b5b50919050565b60006060820190506148796000830186613d5e565b6148866020830185613df4565b6148936040830184613d5e565b949350505050565b7f4e487b7100000000000000000000000000000000000000000000000000000000600052601160045260246000fd5b60006148d582613cc9565b91506148e083613cc9565b92508282019050808211156148f8576148f761489b565b5b92915050565b7f4e487b7100000000000000000000000000000000000000000000000000000000600052603260045260246000fd5b600061493882613cc9565b91507fffffffffffffffffffffffffffffffffffffffffffffffffffffffffffffffff820361496a5761496961489b565b5b600182019050919050565b600060608201905061498a6000830186613df4565b6149976020830185613df4565b6149a46040830184613df4565b949350505050565b60006040820190506149c16000830185613df4565b6149ce6020830184613df4565b9392505050565b60006040820190506149ea6000830185613d5e565b6149f76020830184613df4565b9392505050565b6000819050919050565b600067ffffffffffffffff82169050919050565b6000614a37614a32614a2d846149fe565b6146ff565b614a08565b9050919050565b614a4781614a1c565b82525050565b6000602082019050614a626000830184614a3e565b92915050565b7f45524337323155524953746f726167653a2055524920717565727920666f722060008201527f6e6f6e6578697374656e7420746f6b656e000000000000000000000000000000602082015250565b6000614ac4603183613c22565b9150614acf82614a68565b604082019050919050565b60006020820190508181036000830152614af381614ab7565b9050919050565b600081905092915050565b7f68747470733a2f2f6c75636b7973746172736869702e76657263656c2e61707060008201527f2f696d672f636861726163746572732f00000000000000000000000000000000602082015250565b6000614b61603083614afa565b9150614b6c82614b05565b603082019050919050565b6000614b8282613c17565b614b8c8185614afa565b9350614b9c818560208601613c33565b80840191505092915050565b6000614bb382614b54565b9150614bbf8284614b77565b915081905092915050565b600081905092915050565b50565b6000614be5600083614bca565b9150614bf082614bd5565b600082019050919050565b6000614c0682614bd8565b9150819050919050565b7f4661696c656420746f2073656e6420457468657220746f205472656173757279600082015250565b6000614c46602083613c22565b9150614c5182614c10565b602082019050919050565b60006020820190508181036000830152614c7581614c39565b9050919050565b6000819050919050565b614c97614c9282613cc9565b614c7c565b82525050565b60008160601b9050919050565b6000614cb582614c9d565b9050919050565b6000614cc782614caa565b9050919050565b614cdf614cda82613d4c565b614cbc565b82525050565b6000614cf18286614c86565b602082019150614d018285614c86565b602082019150614d118284614cce565b601482019150819050949350505050565b7f4e487b7100000000000000000000000000000000000000000000000000000000600052601260045260246000fd5b6000614d5c82613cc9565b9150614d6783613cc9565b925082614d7757614d76614d22565b5b828206905092915050565b60008190508160005260206000209050919050565b60006020601f8301049050919050565b600082821b905092915050565b600060088302614de47fffffffffffffffffffffffffffffffffffffffffffffffffffffffffffffffff82614da7565b614dee8683614da7565b95508019841693508086168417925050509392505050565b6000614e21614e1c614e1784613cc9565b6146ff565b613cc9565b9050919050565b6000819050919050565b614e3b83614e06565b614e4f614e4782614e28565b848454614db4565b825550505050565b600090565b614e64614e57565b614e6f818484614e32565b505050565b5b81811015614e9357614e88600082614e5c565b600181019050614e75565b5050565b601f821115614ed857614ea981614d82565b614eb284614d97565b81016020851015614ec1578190505b614ed5614ecd85614d97565b830182614e74565b50505b505050565b600082821c905092915050565b6000614efb60001984600802614edd565b1980831691505092915050565b6000614f148383614eea565b9150826002028217905092915050565b614f2d82613c17565b67ffffffffffffffff811115614f4657614f45613e76565b5b614f508254614833565b614f5b828285614e97565b600060209050601f831160018114614f8e5760008415614f7c578287015190505b614f868582614f08565b865550614fee565b601f198416614f9c86614d82565b60005b82811015614fc457848901518255600182019150602085019450602081019050614f9f565b86831015614fe15784890151614fdd601f891682614eea565b8355505b6001600288020188555050505b505050505050565b600060808201905061500b6000830187613df4565b818103602083015261501d8186613c6e565b905081810360408301526150318185613c6e565b90506150406060830184613df4565b95945050505050565b61505281614291565b811461505d57600080fd5b50565b60008151905061506f81615049565b92915050565b60006020828403121561508b5761508a613b52565b5b600061509984828501615060565b91505092915050565b600081519050919050565b600082825260208201905092915050565b60006150c9826150a2565b6150d381856150ad565b93506150e3818560208601613c33565b6150ec81613c5d565b840191505092915050565b600060808201905061510c6000830187613d5e565b6151196020830186613d5e565b6151266040830185613df4565b818103606083015261513881846150be565b905095945050505050565b60008151905061515281613b88565b92915050565b60006020828403121561516e5761516d613b52565b5b600061517c84828501615143565b91505092915050565b6000615190826150a2565b61519a8185614bca565b93506151aa818560208601613c33565b80840191505092915050565b60006151c28284615185565b915081905092915050565b60006151d882613cc9565b91506151e383613cc9565b92508282039050818111156151fb576151fa61489b565b5b92915050565b7f4e487b7100000000000000000000000000000000000000000000000000000000600052603160045260246000fdfea26469706673582212201145e0abb934d8d16210e5a578c2e0f3a449e2992f69fa43dbfd9cd98bb945df64736f6c63430008140033",
  "linkReferences": {},
  "deployedLinkReferences": {}
}