{
  "_format": "hh-sol-artifact-1",
  "contractName": "DungeonAdventure",
  "sourceName": "contracts/DungeonAdventure.sol",
  "abi": [
    {
      "inputs": [],
      "stateMutability": "nonpayable",
      "type": "constructor"
    },
    {
      "inputs": [],
      "name": "AccessControlBadConfirmation",
      "type": "error"
    },
    {
      "inputs": [
        {
          "internalType": "address",
          "name": "account",
          "type": "address"
        },
        {
          "internalType": "bytes32",
          "name": "neededRole",
          "type": "bytes32"
        }
      ],
      "name": "AccessControlUnauthorizedAccount",
      "type": "error"
    },
    {
      "inputs": [
        {
          "internalType": "address",
          "name": "target",
          "type": "address"
        }
      ],
      "name": "AddressEmptyCode",
      "type": "error"
    },
    {
      "inputs": [
        {
          "internalType": "address",
          "name": "implementation",
          "type": "address"
        }
      ],
      "name": "ERC1967InvalidImplementation",
      "type": "error"
    },
    {
      "inputs": [],
      "name": "ERC1967NonPayable",
      "type": "error"
    },
    {
      "inputs": [],
      "name": "FailedInnerCall",
      "type": "error"
    },
    {
      "inputs": [],
      "name": "InvalidInitialization",
      "type": "error"
    },
    {
      "inputs": [],
      "name": "NotInitializing",
      "type": "error"
    },
    {
      "inputs": [],
      "name": "UUPSUnauthorizedCallContext",
      "type": "error"
    },
    {
      "inputs": [
        {
          "internalType": "bytes32",
          "name": "slot",
          "type": "bytes32"
        }
      ],
      "name": "UUPSUnsupportedProxiableUUID",
      "type": "error"
    },
    {
      "anonymous": false,
      "inputs": [
        {
          "indexed": true,
          "internalType": "address",
          "name": "player",
          "type": "address"
        },
        {
          "indexed": false,
          "internalType": "uint256",
          "name": "characterId",
          "type": "uint256"
        },
        {
          "indexed": false,
          "internalType": "bool",
          "name": "success",
          "type": "bool"
        },
        {
          "indexed": false,
          "internalType": "string",
          "name": "message",
          "type": "string"
        },
        {
          "indexed": false,
          "internalType": "uint256",
          "name": "winChance",
          "type": "uint256"
        },
        {
          "indexed": false,
          "internalType": "uint256",
          "name": "randomValue",
          "type": "uint256"
        },
        {
          "indexed": false,
          "internalType": "uint256[]",
          "name": "burnedItems",
          "type": "uint256[]"
        },
        {
          "indexed": false,
          "internalType": "uint256",
          "name": "itemPower",
          "type": "uint256"
        }
      ],
      "name": "DungeonResult",
      "type": "event"
    },
    {
      "anonymous": false,
      "inputs": [
        {
          "indexed": false,
          "internalType": "uint64",
          "name": "version",
          "type": "uint64"
        }
      ],
      "name": "Initialized",
      "type": "event"
    },
    {
      "anonymous": false,
      "inputs": [
        {
          "indexed": true,
          "internalType": "bytes32",
          "name": "role",
          "type": "bytes32"
        },
        {
          "indexed": true,
          "internalType": "bytes32",
          "name": "previousAdminRole",
          "type": "bytes32"
        },
        {
          "indexed": true,
          "internalType": "bytes32",
          "name": "newAdminRole",
          "type": "bytes32"
        }
      ],
      "name": "RoleAdminChanged",
      "type": "event"
    },
    {
      "anonymous": false,
      "inputs": [
        {
          "indexed": true,
          "internalType": "bytes32",
          "name": "role",
          "type": "bytes32"
        },
        {
          "indexed": true,
          "internalType": "address",
          "name": "account",
          "type": "address"
        },
        {
          "indexed": true,
          "internalType": "address",
          "name": "sender",
          "type": "address"
        }
      ],
      "name": "RoleGranted",
      "type": "event"
    },
    {
      "anonymous": false,
      "inputs": [
        {
          "indexed": true,
          "internalType": "bytes32",
          "name": "role",
          "type": "bytes32"
        },
        {
          "indexed": true,
          "internalType": "address",
          "name": "account",
          "type": "address"
        },
        {
          "indexed": true,
          "internalType": "address",
          "name": "sender",
          "type": "address"
        }
      ],
      "name": "RoleRevoked",
      "type": "event"
    },
    {
      "anonymous": false,
      "inputs": [
        {
          "indexed": true,
          "internalType": "address",
          "name": "implementation",
          "type": "address"
        }
      ],
      "name": "Upgraded",
      "type": "event"
    },
    {
      "inputs": [],
      "name": "DEFAULT_ADMIN_ROLE",
      "outputs": [
        {
          "internalType": "bytes32",
          "name": "",
          "type": "bytes32"
        }
      ],
      "stateMutability": "view",
      "type": "function"
    },
    {
      "inputs": [],
      "name": "UPGRADER_ROLE",
      "outputs": [
        {
          "internalType": "bytes32",
          "name": "",
          "type": "bytes32"
        }
      ],
      "stateMutability": "view",
      "type": "function"
    },
    {
      "inputs": [],
      "name": "UPGRADE_INTERFACE_VERSION",
      "outputs": [
        {
          "internalType": "string",
          "name": "",
          "type": "string"
        }
      ],
      "stateMutability": "view",
      "type": "function"
    },
    {
      "inputs": [
        {
          "internalType": "uint256",
          "name": "",
          "type": "uint256"
        }
      ],
      "name": "attemptDetails",
      "outputs": [
        {
          "internalType": "uint256",
          "name": "timestamp",
          "type": "uint256"
        },
        {
          "internalType": "address",
          "name": "player",
          "type": "address"
        },
        {
          "internalType": "uint256",
          "name": "requestId",
          "type": "uint256"
        },
        {
          "components": [
            {
              "internalType": "uint256[]",
              "name": "itemIds",
              "type": "uint256[]"
            },
            {
              "internalType": "uint256",
              "name": "experienceToAdd",
              "type": "uint256"
            },
            {
              "internalType": "uint16",
              "name": "durabilityToDeduct",
              "type": "uint16"
            },
            {
              "internalType": "uint256[]",
              "name": "slotToAdd",
              "type": "uint256[]"
            },
            {
              "internalType": "uint256",
              "name": "winPercentage",
              "type": "uint256"
            },
            {
              "internalType": "uint256",
              "name": "itemPower",
              "type": "uint256"
            },
            {
              "internalType": "address",
              "name": "walletId",
              "type": "address"
            },
            {
              "internalType": "uint256",
              "name": "characterId",
              "type": "uint256"
            },
            {
              "internalType": "uint256",
              "name": "entryFee",
              "type": "uint256"
            },
            {
              "internalType": "uint256",
              "name": "lootReward",
              "type": "uint256"
            }
          ],
          "internalType": "struct DungeonAdventure.DungeonParams",
          "name": "params",
          "type": "tuple"
        },
        {
          "internalType": "bool",
          "name": "pending",
          "type": "bool"
        }
      ],
      "stateMutability": "view",
      "type": "function"
    },
    {
      "inputs": [],
      "name": "characterContract",
      "outputs": [
        {
          "internalType": "contract CreateCharacter",
          "name": "",
          "type": "address"
        }
      ],
      "stateMutability": "view",
      "type": "function"
    },
    {
      "inputs": [
        {
          "internalType": "address",
          "name": "",
          "type": "address"
        }
      ],
      "name": "dungeonAttempts",
      "outputs": [
        {
          "internalType": "uint256",
          "name": "timestamp",
          "type": "uint256"
        },
        {
          "internalType": "uint256",
          "name": "winChance",
          "type": "uint256"
        },
        {
          "internalType": "bool",
          "name": "success",
          "type": "bool"
        },
        {
          "internalType": "uint256",
          "name": "randomValue",
          "type": "uint256"
        }
      ],
      "stateMutability": "view",
      "type": "function"
    },
    {
      "inputs": [],
      "name": "gameTreasury",
      "outputs": [
        {
          "internalType": "contract GameTreasury",
          "name": "",
          "type": "address"
        }
      ],
      "stateMutability": "view",
      "type": "function"
    },
    {
      "inputs": [
        {
          "internalType": "address",
          "name": "player",
          "type": "address"
        }
      ],
      "name": "getDungeonAttemptDetails",
      "outputs": [
        {
          "components": [
            {
              "internalType": "uint256",
              "name": "timestamp",
              "type": "uint256"
            },
            {
              "internalType": "uint256",
              "name": "winChance",
              "type": "uint256"
            },
            {
              "internalType": "bool",
              "name": "success",
              "type": "bool"
            },
            {
              "internalType": "uint256",
              "name": "randomValue",
              "type": "uint256"
            }
          ],
          "internalType": "struct DungeonAdventure.DungeonAttempt",
          "name": "",
          "type": "tuple"
        }
      ],
      "stateMutability": "view",
      "type": "function"
    },
    {
      "inputs": [
        {
          "internalType": "bytes32",
          "name": "role",
          "type": "bytes32"
        }
      ],
      "name": "getRoleAdmin",
      "outputs": [
        {
          "internalType": "bytes32",
          "name": "",
          "type": "bytes32"
        }
      ],
      "stateMutability": "view",
      "type": "function"
    },
    {
      "inputs": [
        {
          "components": [
            {
              "internalType": "uint256[]",
              "name": "itemIds",
              "type": "uint256[]"
            },
            {
              "internalType": "uint256",
              "name": "experienceToAdd",
              "type": "uint256"
            },
            {
              "internalType": "uint16",
              "name": "durabilityToDeduct",
              "type": "uint16"
            },
            {
              "internalType": "uint256[]",
              "name": "slotToAdd",
              "type": "uint256[]"
            },
            {
              "internalType": "uint256",
              "name": "winPercentage",
              "type": "uint256"
            },
            {
              "internalType": "uint256",
              "name": "itemPower",
              "type": "uint256"
            },
            {
              "internalType": "address",
              "name": "walletId",
              "type": "address"
            },
            {
              "internalType": "uint256",
              "name": "characterId",
              "type": "uint256"
            },
            {
              "internalType": "uint256",
              "name": "entryFee",
              "type": "uint256"
            },
            {
              "internalType": "uint256",
              "name": "lootReward",
              "type": "uint256"
            }
          ],
          "internalType": "struct DungeonAdventure.DungeonParams",
          "name": "params",
          "type": "tuple"
        }
      ],
      "name": "goDungeon",
      "outputs": [],
      "stateMutability": "nonpayable",
      "type": "function"
    },
    {
      "inputs": [
        {
          "internalType": "bytes32",
          "name": "role",
          "type": "bytes32"
        },
        {
          "internalType": "address",
          "name": "account",
          "type": "address"
        }
      ],
      "name": "grantRole",
      "outputs": [],
      "stateMutability": "nonpayable",
      "type": "function"
    },
    {
      "inputs": [
        {
          "internalType": "bytes32",
          "name": "role",
          "type": "bytes32"
        },
        {
          "internalType": "address",
          "name": "account",
          "type": "address"
        }
      ],
      "name": "hasRole",
      "outputs": [
        {
          "internalType": "bool",
          "name": "",
          "type": "bool"
        }
      ],
      "stateMutability": "view",
      "type": "function"
    },
    {
      "inputs": [
        {
          "internalType": "address",
          "name": "defaultAdmin",
          "type": "address"
        },
        {
          "internalType": "address",
          "name": "upgrader",
          "type": "address"
        },
        {
          "internalType": "address",
          "name": "_itemContractAddress",
          "type": "address"
        },
        {
          "internalType": "address",
          "name": "_characterContractAddress",
          "type": "address"
        },
        {
          "internalType": "address",
          "name": "_randomnessProvider",
          "type": "address"
        },
        {
          "internalType": "address",
          "name": "_gameTreasuryAddress",
          "type": "address"
        }
      ],
      "name": "initialize",
      "outputs": [],
      "stateMutability": "nonpayable",
      "type": "function"
    },
    {
      "inputs": [],
      "name": "itemContract",
      "outputs": [
        {
          "internalType": "contract MintItem",
          "name": "",
          "type": "address"
        }
      ],
      "stateMutability": "view",
      "type": "function"
    },
    {
      "inputs": [],
      "name": "paymentToken",
      "outputs": [
        {
          "internalType": "contract IERC20",
          "name": "",
          "type": "address"
        }
      ],
      "stateMutability": "view",
      "type": "function"
    },
    {
      "inputs": [
        {
          "internalType": "uint256",
          "name": "requestId",
          "type": "uint256"
        },
        {
          "internalType": "uint256",
          "name": "randomValue",
          "type": "uint256"
        }
      ],
      "name": "processDungeonAttempt",
      "outputs": [],
      "stateMutability": "nonpayable",
      "type": "function"
    },
    {
      "inputs": [],
      "name": "proxiableUUID",
      "outputs": [
        {
          "internalType": "bytes32",
          "name": "",
          "type": "bytes32"
        }
      ],
      "stateMutability": "view",
      "type": "function"
    },
    {
      "inputs": [],
      "name": "randomnessProvider",
      "outputs": [
        {
          "internalType": "contract RandomnessProvider",
          "name": "",
          "type": "address"
        }
      ],
      "stateMutability": "view",
      "type": "function"
    },
    {
      "inputs": [
        {
          "internalType": "bytes32",
          "name": "role",
          "type": "bytes32"
        },
        {
          "internalType": "address",
          "name": "callerConfirmation",
          "type": "address"
        }
      ],
      "name": "renounceRole",
      "outputs": [],
      "stateMutability": "nonpayable",
      "type": "function"
    },
    {
      "inputs": [
        {
          "internalType": "bytes32",
          "name": "role",
          "type": "bytes32"
        },
        {
          "internalType": "address",
          "name": "account",
          "type": "address"
        }
      ],
      "name": "revokeRole",
      "outputs": [],
      "stateMutability": "nonpayable",
      "type": "function"
    },
    {
      "inputs": [
        {
          "internalType": "address",
          "name": "_newCreateCharacterAddress",
          "type": "address"
        }
      ],
      "name": "setCharacterContractAddress",
      "outputs": [],
      "stateMutability": "nonpayable",
      "type": "function"
    },
    {
      "inputs": [
        {
          "internalType": "address",
          "name": "_gameTreasuryAddress",
          "type": "address"
        }
      ],
      "name": "setGameTreasuryAddress",
      "outputs": [],
      "stateMutability": "nonpayable",
      "type": "function"
    },
    {
      "inputs": [
        {
          "internalType": "address",
          "name": "_newItemContractAddress",
          "type": "address"
        }
      ],
      "name": "setMintItemContractAddress",
      "outputs": [],
      "stateMutability": "nonpayable",
      "type": "function"
    },
    {
      "inputs": [
        {
          "internalType": "address",
          "name": "_tokenAddress",
          "type": "address"
        }
      ],
      "name": "setPaymentToken",
      "outputs": [],
      "stateMutability": "nonpayable",
      "type": "function"
    },
    {
      "inputs": [
        {
          "internalType": "address",
          "name": "_randomnessProvider",
          "type": "address"
        }
      ],
      "name": "setRandomnessProvider",
      "outputs": [],
      "stateMutability": "nonpayable",
      "type": "function"
    },
    {
      "inputs": [
        {
          "internalType": "bytes4",
          "name": "interfaceId",
          "type": "bytes4"
        }
      ],
      "name": "supportsInterface",
      "outputs": [
        {
          "internalType": "bool",
          "name": "",
          "type": "bool"
        }
      ],
      "stateMutability": "view",
      "type": "function"
    },
    {
      "inputs": [
        {
          "internalType": "address",
          "name": "newImplementation",
          "type": "address"
        },
        {
          "internalType": "bytes",
          "name": "data",
          "type": "bytes"
        }
      ],
      "name": "upgradeToAndCall",
      "outputs": [],
      "stateMutability": "payable",
      "type": "function"
    }
  ],
  "bytecode": "0x60a06040523073ffffffffffffffffffffffffffffffffffffffff1660809073ffffffffffffffffffffffffffffffffffffffff168152503480156200004457600080fd5b50620000556200005b60201b60201c565b620001cf565b60006200006d6200016560201b60201c565b90508060000160089054906101000a900460ff1615620000b9576040517ff92ee8a900000000000000000000000000000000000000000000000000000000815260040160405180910390fd5b67ffffffffffffffff80168160000160009054906101000a900467ffffffffffffffff1667ffffffffffffffff1614620001625767ffffffffffffffff8160000160006101000a81548167ffffffffffffffff021916908367ffffffffffffffff1602179055507fc7f505b2f371ae2175ee4913f4499e1f2633a7b5936321eed1cdaeb6115181d267ffffffffffffffff604051620001599190620001b2565b60405180910390a15b50565b60007ff0c57e16840df040f15088dc2f81fe391c3923bec73e23a9662efc9c229c6a00905090565b600067ffffffffffffffff82169050919050565b620001ac816200018d565b82525050565b6000602082019050620001c96000830184620001a1565b92915050565b608051613cd0620001f960003960008181611d6401528181611db90152611f970152613cd06000f3fe60806040526004361061019c5760003560e01c806391d14854116100ec578063c1e0bdf51161008a578063ce9bf5ac11610064578063ce9bf5ac146105ce578063d2f9efab146105f9578063d547741f14610624578063f72c0d8b1461064d5761019c565b8063c1e0bdf514610527578063c7a4e72d14610568578063cc2a9a5b146105a55761019c565b8063a9cd7d53116100c6578063a9cd7d531461046a578063ad3cb1cc14610493578063b15fbc14146104be578063b1625fab146104e75761019c565b806391d14854146103d9578063a1365bf114610416578063a217fddf1461043f5761019c565b806337c61ee81161015957806352d1902d1161013357806352d1902d146103315780636a326ab11461035c57806383499df6146103855780638d76f940146103ae5761019c565b806337c61ee8146102c157806343b60f74146102ea5780634f1ef286146103155761019c565b806301ffc9a7146101a1578063162f8e4e146101de578063248a9ca3146102075780632f2ff15d146102445780633013ce291461026d57806336568abe14610298575b600080fd5b3480156101ad57600080fd5b506101c860048036038101906101c39190612628565b610678565b6040516101d59190612670565b60405180910390f35b3480156101ea57600080fd5b50610205600480360381019061020091906126e9565b6106f2565b005b34801561021357600080fd5b5061022e6004803603810190610229919061274c565b610735565b60405161023b9190612788565b60405180910390f35b34801561025057600080fd5b5061026b600480360381019061026691906127a3565b610763565b005b34801561027957600080fd5b50610282610785565b60405161028f9190612842565b60405180910390f35b3480156102a457600080fd5b506102bf60048036038101906102ba91906127a3565b6107ab565b005b3480156102cd57600080fd5b506102e860048036038101906102e39190612893565b610826565b005b3480156102f657600080fd5b506102ff610bb2565b60405161030c91906128f4565b60405180910390f35b61032f600480360381019061032a9190612a55565b610bd8565b005b34801561033d57600080fd5b50610346610bf7565b6040516103539190612788565b60405180910390f35b34801561036857600080fd5b50610383600480360381019061037e91906126e9565b610c2a565b005b34801561039157600080fd5b506103ac60048036038101906103a791906126e9565b610c6e565b005b3480156103ba57600080fd5b506103c3610cb2565b6040516103d09190612ad2565b60405180910390f35b3480156103e557600080fd5b5061040060048036038101906103fb91906127a3565b610cd6565b60405161040d9190612670565b60405180910390f35b34801561042257600080fd5b5061043d600480360381019061043891906126e9565b610d4f565b005b34801561044b57600080fd5b50610454610d93565b6040516104619190612788565b60405180910390f35b34801561047657600080fd5b50610491600480360381019061048c9190612b12565b610d9a565b005b34801561049f57600080fd5b506104a8611390565b6040516104b59190612bda565b60405180910390f35b3480156104ca57600080fd5b506104e560048036038101906104e091906126e9565b6113c9565b005b3480156104f357600080fd5b5061050e600480360381019061050991906126e9565b61140d565b60405161051e9493929190612c0b565b60405180910390f35b34801561053357600080fd5b5061054e60048036038101906105499190612c50565b61144a565b60405161055f959493929190612e57565b60405180910390f35b34801561057457600080fd5b5061058f600480360381019061058a91906126e9565b61161a565b60405161059c9190612f15565b60405180910390f35b3480156105b157600080fd5b506105cc60048036038101906105c79190612f30565b6116ac565b005b3480156105da57600080fd5b506105e3611983565b6040516105f09190612fde565b60405180910390f35b34801561060557600080fd5b5061060e6119a9565b60405161061b919061302c565b60405180910390f35b34801561063057600080fd5b5061064b600480360381019061064691906127a3565b6119cf565b005b34801561065957600080fd5b506106626119f1565b60405161066f9190612788565b60405180910390f35b60007f7965db0b000000000000000000000000000000000000000000000000000000007bffffffffffffffffffffffffffffffffffffffffffffffffffffffff1916827bffffffffffffffffffffffffffffffffffffffffffffffffffffffff191614806106eb57506106ea82611a15565b5b9050919050565b806000806101000a81548173ffffffffffffffffffffffffffffffffffffffff021916908373ffffffffffffffffffffffffffffffffffffffff16021790555050565b600080610740611a7f565b905080600001600084815260200190815260200160002060010154915050919050565b61076c82610735565b61077581611aa7565b61077f8383611abb565b50505050565b600660009054906101000a900473ffffffffffffffffffffffffffffffffffffffff1681565b6107b3611bbc565b73ffffffffffffffffffffffffffffffffffffffff168173ffffffffffffffffffffffffffffffffffffffff1614610817576040517f6697b23200000000000000000000000000000000000000000000000000000000815260040160405180910390fd5b6108218282611bc4565b505050565b600060036000848152602001908152602001600020905080600e0160009054906101000a900460ff1661088e576040517f08c379a0000000000000000000000000000000000000000000000000000000008152600401610885906130b9565b60405180910390fd5b6108cd6040518060400160405280602081526020017f52616e646f6d6e6573732066756c66696c6c656420776974682076616c75653a81525083611cc6565b600081600301600401546064846108e49190613108565b109050600081610929576040518060400160405280601e81526020017f4661696c65642120426574746572206c75636b206e6578742074696d652e0000815250610960565b6040518060400160405280601781526020017f5375636365737321204c6f6f742041637175697265642e0000000000000000008152505b905060405180608001604052808460000154815260200184600301600401548152602001831515815260200185815250600460008560010160009054906101000a900473ffffffffffffffffffffffffffffffffffffffff1673ffffffffffffffffffffffffffffffffffffffff1673ffffffffffffffffffffffffffffffffffffffff168152602001908152602001600020600082015181600001556020820151816001015560408201518160020160006101000a81548160ff021916908315150217905550606082015181600301559050508260030160060160009054906101000a900473ffffffffffffffffffffffffffffffffffffffff1673ffffffffffffffffffffffffffffffffffffffff167f8232ae94e90609bda2d72290904fea1368caf5dcde821b07bdc03cc879b6c9af8460030160070154848487600301600401548989600d018a60030160050154604051610ac59796959493929190613220565b60405180910390a28115610b8e57600560009054906101000a900473ffffffffffffffffffffffffffffffffffffffff1673ffffffffffffffffffffffffffffffffffffffff1663bec3fa178460010160009054906101000a900473ffffffffffffffffffffffffffffffffffffffff1685600301600901546040518363ffffffff1660e01b8152600401610b5b92919061329d565b600060405180830381600087803b158015610b7557600080fd5b505af1158015610b89573d6000803e3d6000fd5b505050505b600083600e0160006101000a81548160ff0219169083151502179055505050505050565b600160009054906101000a900473ffffffffffffffffffffffffffffffffffffffff1681565b610be0611d62565b610be982611e48565b610bf38282611e76565b5050565b6000610c01611f95565b7f360894a13ba1a3210667c828492db98dca3e2076cc3735a920a3ca505d382bbc60001b905090565b80600660006101000a81548173ffffffffffffffffffffffffffffffffffffffff021916908373ffffffffffffffffffffffffffffffffffffffff16021790555050565b80600160006101000a81548173ffffffffffffffffffffffffffffffffffffffff021916908373ffffffffffffffffffffffffffffffffffffffff16021790555050565b60008054906101000a900473ffffffffffffffffffffffffffffffffffffffff1681565b600080610ce1611a7f565b905080600001600085815260200190815260200160002060000160008473ffffffffffffffffffffffffffffffffffffffff1673ffffffffffffffffffffffffffffffffffffffff16815260200190815260200160002060009054906101000a900460ff1691505092915050565b80600560006101000a81548173ffffffffffffffffffffffffffffffffffffffff021916908373ffffffffffffffffffffffffffffffffffffffff16021790555050565b6000801b81565b600081610100013511610de2576040517f08c379a0000000000000000000000000000000000000000000000000000000008152600401610dd990613312565b60405180910390fd5b606481608001351115610e2a576040517f08c379a0000000000000000000000000000000000000000000000000000000008152600401610e219061337e565b60405180910390fd5b60008160e0013503610e71576040517f08c379a0000000000000000000000000000000000000000000000000000000008152600401610e68906133ea565b60405180910390fd5b600660009054906101000a900473ffffffffffffffffffffffffffffffffffffffff1673ffffffffffffffffffffffffffffffffffffffff166323b872dd33600560009054906101000a900473ffffffffffffffffffffffffffffffffffffffff168461010001356040518463ffffffff1660e01b8152600401610ef79392919061340a565b6020604051808303816000875af1158015610f16573d6000803e3d6000fd5b505050506040513d601f19601f82011682018060405250810190610f3a919061346d565b610f79576040517f08c379a0000000000000000000000000000000000000000000000000000000008152600401610f70906134e6565b60405180910390fd5b60008060009054906101000a900473ffffffffffffffffffffffffffffffffffffffff1673ffffffffffffffffffffffffffffffffffffffff16633604c9fb838060000190610fc89190613515565b856040016020810190610fdb91906135a4565b6040518463ffffffff1660e01b8152600401610ff99392919061364a565b6000604051808303816000875af1158015611018573d6000803e3d6000fd5b505050506040513d6000823e3d601f19601f820116820180604052508101906110419190613759565b9050600160009054906101000a900473ffffffffffffffffffffffffffffffffffffffff1673ffffffffffffffffffffffffffffffffffffffff16632f56d04b8360e00135846020013585806060019061109b9190613515565b6040518563ffffffff1660e01b81526004016110ba94939291906137a2565b600060405180830381600087803b1580156110d457600080fd5b505af11580156110e8573d6000803e3d6000fd5b505050506000600260009054906101000a900473ffffffffffffffffffffffffffffffffffffffff1673ffffffffffffffffffffffffffffffffffffffff16633a9098d1600160006040518363ffffffff1660e01b815260040161114d9291906138a4565b6020604051808303816000875af115801561116c573d6000803e3d6000fd5b505050506040513d601f19601f8201168201806040525081019061119091906138cd565b905060006040518060c001604052804281526020013373ffffffffffffffffffffffffffffffffffffffff168152602001838152602001856111d190613ac9565b81526020018481526020016001151581525090506111ee8261201c565b80600360008481526020019081526020016000206000820151816000015560208201518160010160006101000a81548173ffffffffffffffffffffffffffffffffffffffff021916908373ffffffffffffffffffffffffffffffffffffffff16021790555060408201518160020155606082015181600301600082015181600001908051906020019061128292919061251e565b506020820151816001015560408201518160020160006101000a81548161ffff021916908361ffff16021790555060608201518160030190805190602001906112cc92919061251e565b506080820151816004015560a0820151816005015560c08201518160060160006101000a81548173ffffffffffffffffffffffffffffffffffffffff021916908373ffffffffffffffffffffffffffffffffffffffff16021790555060e08201518160070155610100820151816008015561012082015181600901555050608082015181600d01908051906020019061136692919061251e565b5060a082015181600e0160006101000a81548160ff02191690831515021790555090505050505050565b6040518060400160405280600581526020017f352e302e3000000000000000000000000000000000000000000000000000000081525081565b80600260006101000a81548173ffffffffffffffffffffffffffffffffffffffff021916908373ffffffffffffffffffffffffffffffffffffffff16021790555050565b60046020528060005260406000206000915090508060000154908060010154908060020160009054906101000a900460ff16908060030154905084565b60036020528060005260406000206000915090508060000154908060010160009054906101000a900473ffffffffffffffffffffffffffffffffffffffff16908060020154908060030160405180610140016040529081600082018054806020026020016040519081016040528092919081815260200182805480156114ef57602002820191906000526020600020905b8154815260200190600101908083116114db575b50505050508152602001600182015481526020016002820160009054906101000a900461ffff1661ffff1661ffff1681526020016003820180548060200260200160405190810160405280929190818152602001828054801561157157602002820191906000526020600020905b81548152602001906001019080831161155d575b5050505050815260200160048201548152602001600582015481526020016006820160009054906101000a900473ffffffffffffffffffffffffffffffffffffffff1673ffffffffffffffffffffffffffffffffffffffff1673ffffffffffffffffffffffffffffffffffffffff16815260200160078201548152602001600882015481526020016009820154815250509080600e0160009054906101000a900460ff16905085565b61162261256b565b600460008373ffffffffffffffffffffffffffffffffffffffff1673ffffffffffffffffffffffffffffffffffffffff16815260200190815260200160002060405180608001604052908160008201548152602001600182015481526020016002820160009054906101000a900460ff161515151581526020016003820154815250509050919050565b60006116b66120b5565b905060008160000160089054906101000a900460ff1615905060008260000160009054906101000a900467ffffffffffffffff1690506000808267ffffffffffffffff161480156117045750825b9050600060018367ffffffffffffffff16148015611739575060003073ffffffffffffffffffffffffffffffffffffffff163b145b905081158015611747575080155b1561177e576040517ff92ee8a900000000000000000000000000000000000000000000000000000000815260040160405180910390fd5b60018560000160006101000a81548167ffffffffffffffff021916908367ffffffffffffffff16021790555083156117ce5760018560000160086101000a81548160ff0219169083151502179055505b6117d66120dd565b6117de6120e7565b6117eb6000801b8c611abb565b506118167f189ab7a9244df0848122154315af71fe140f3db0fe014031783b0946b8c9d2e38b611abb565b50886000806101000a81548173ffffffffffffffffffffffffffffffffffffffff021916908373ffffffffffffffffffffffffffffffffffffffff16021790555087600160006101000a81548173ffffffffffffffffffffffffffffffffffffffff021916908373ffffffffffffffffffffffffffffffffffffffff16021790555086600260006101000a81548173ffffffffffffffffffffffffffffffffffffffff021916908373ffffffffffffffffffffffffffffffffffffffff16021790555085600560006101000a81548173ffffffffffffffffffffffffffffffffffffffff021916908373ffffffffffffffffffffffffffffffffffffffff16021790555083156119765760008560000160086101000a81548160ff0219169083151502179055507fc7f505b2f371ae2175ee4913f4499e1f2633a7b5936321eed1cdaeb6115181d2600160405161196d9190613b21565b60405180910390a15b5050505050505050505050565b600260009054906101000a900473ffffffffffffffffffffffffffffffffffffffff1681565b600560009054906101000a900473ffffffffffffffffffffffffffffffffffffffff1681565b6119d882610735565b6119e181611aa7565b6119eb8383611bc4565b50505050565b7f189ab7a9244df0848122154315af71fe140f3db0fe014031783b0946b8c9d2e381565b60007f01ffc9a7000000000000000000000000000000000000000000000000000000007bffffffffffffffffffffffffffffffffffffffffffffffffffffffff1916827bffffffffffffffffffffffffffffffffffffffffffffffffffffffff1916149050919050565b60007f02dd7bc7dec4dceedda775e58dd541e08a116c6c53815c0bd028192f7b626800905090565b611ab881611ab3611bbc565b6120f1565b50565b600080611ac6611a7f565b9050611ad28484610cd6565b611bb057600181600001600086815260200190815260200160002060000160008573ffffffffffffffffffffffffffffffffffffffff1673ffffffffffffffffffffffffffffffffffffffff16815260200190815260200160002060006101000a81548160ff021916908315150217905550611b4c611bbc565b73ffffffffffffffffffffffffffffffffffffffff168373ffffffffffffffffffffffffffffffffffffffff16857f2f8788117e7eff1d82e926ec794901d17c78024a50270940304540a733656f0d60405160405180910390a46001915050611bb6565b60009150505b92915050565b600033905090565b600080611bcf611a7f565b9050611bdb8484610cd6565b15611cba57600081600001600086815260200190815260200160002060000160008573ffffffffffffffffffffffffffffffffffffffff1673ffffffffffffffffffffffffffffffffffffffff16815260200190815260200160002060006101000a81548160ff021916908315150217905550611c56611bbc565b73ffffffffffffffffffffffffffffffffffffffff168373ffffffffffffffffffffffffffffffffffffffff16857ff6391f5c32d9c69d2a47ea670b442974b53935d1edc7fd64eb21e047a839171b60405160405180910390a46001915050611cc0565b60009150505b92915050565b611d5e8282604051602401611cdc929190613b3c565b6040516020818303038152906040527fb60e72cc000000000000000000000000000000000000000000000000000000007bffffffffffffffffffffffffffffffffffffffffffffffffffffffff19166020820180517bffffffffffffffffffffffffffffffffffffffffffffffffffffffff8381831617835250505050612142565b5050565b7f000000000000000000000000000000000000000000000000000000000000000073ffffffffffffffffffffffffffffffffffffffff163073ffffffffffffffffffffffffffffffffffffffff161480611e0f57507f000000000000000000000000000000000000000000000000000000000000000073ffffffffffffffffffffffffffffffffffffffff16611df661215c565b73ffffffffffffffffffffffffffffffffffffffff1614155b15611e46576040517fe07c8dba00000000000000000000000000000000000000000000000000000000815260040160405180910390fd5b565b7f189ab7a9244df0848122154315af71fe140f3db0fe014031783b0946b8c9d2e3611e7281611aa7565b5050565b8173ffffffffffffffffffffffffffffffffffffffff166352d1902d6040518163ffffffff1660e01b8152600401602060405180830381865afa925050508015611ede57506040513d601f19601f82011682018060405250810190611edb9190613b81565b60015b611f1f57816040517f4c9c8ce3000000000000000000000000000000000000000000000000000000008152600401611f169190613bae565b60405180910390fd5b7f360894a13ba1a3210667c828492db98dca3e2076cc3735a920a3ca505d382bbc60001b8114611f8657806040517faa1d49a4000000000000000000000000000000000000000000000000000000008152600401611f7d9190612788565b60405180910390fd5b611f9083836121b3565b505050565b7f000000000000000000000000000000000000000000000000000000000000000073ffffffffffffffffffffffffffffffffffffffff163073ffffffffffffffffffffffffffffffffffffffff161461201a576040517fe07c8dba00000000000000000000000000000000000000000000000000000000815260040160405180910390fd5b565b6120b2816040516024016120309190613bc9565b6040516020818303038152906040527ff82c50f1000000000000000000000000000000000000000000000000000000007bffffffffffffffffffffffffffffffffffffffffffffffffffffffff19166020820180517bffffffffffffffffffffffffffffffffffffffffffffffffffffffff8381831617835250505050612142565b50565b60007ff0c57e16840df040f15088dc2f81fe391c3923bec73e23a9662efc9c229c6a00905090565b6120e5612226565b565b6120ef612226565b565b6120fb8282610cd6565b61213e5780826040517fe2517d3f000000000000000000000000000000000000000000000000000000008152600401612135929190613be4565b60405180910390fd5b5050565b61215981612151612266612287565b63ffffffff16565b50565b600061218a7f360894a13ba1a3210667c828492db98dca3e2076cc3735a920a3ca505d382bbc60001b612292565b60000160009054906101000a900473ffffffffffffffffffffffffffffffffffffffff16905090565b6121bc8261229c565b8173ffffffffffffffffffffffffffffffffffffffff167fbc7cd75a20ee27fd9adebab32041f755214dbc6bffa90cc0225b39da2e5c2d3b60405160405180910390a2600081511115612219576122138282612369565b50612222565b6122216123ed565b5b5050565b61222e61242a565b612264576040517fd7e6bcf800000000000000000000000000000000000000000000000000000000815260040160405180910390fd5b565b60006a636f6e736f6c652e6c6f679050600080835160208501845afa505050565b612595819050919050565b6000819050919050565b60008173ffffffffffffffffffffffffffffffffffffffff163b036122f857806040517f4c9c8ce30000000000000000000000000000000000000000000000000000000081526004016122ef9190613bae565b60405180910390fd5b806123257f360894a13ba1a3210667c828492db98dca3e2076cc3735a920a3ca505d382bbc60001b612292565b60000160006101000a81548173ffffffffffffffffffffffffffffffffffffffff021916908373ffffffffffffffffffffffffffffffffffffffff16021790555050565b60606000808473ffffffffffffffffffffffffffffffffffffffff16846040516123939190613c54565b600060405180830381855af49150503d80600081146123ce576040519150601f19603f3d011682016040523d82523d6000602084013e6123d3565b606091505b50915091506123e385838361244a565b9250505092915050565b6000341115612428576040517fb398979f00000000000000000000000000000000000000000000000000000000815260040160405180910390fd5b565b60006124346120b5565b60000160089054906101000a900460ff16905090565b60608261245f5761245a826124d9565b6124d1565b60008251148015612487575060008473ffffffffffffffffffffffffffffffffffffffff163b145b156124c957836040517f9996b3150000000000000000000000000000000000000000000000000000000081526004016124c09190613bae565b60405180910390fd5b8190506124d2565b5b9392505050565b6000815111156124ec5780518082602001fd5b6040517f1425ea4200000000000000000000000000000000000000000000000000000000815260040160405180910390fd5b82805482825590600052602060002090810192821561255a579160200282015b8281111561255957825182559160200191906001019061253e565b5b509050612567919061259f565b5090565b60405180608001604052806000815260200160008152602001600015158152602001600081525090565b61259d613c6b565b565b5b808211156125b85760008160009055506001016125a0565b5090565b6000604051905090565b600080fd5b600080fd5b60007fffffffff0000000000000000000000000000000000000000000000000000000082169050919050565b612605816125d0565b811461261057600080fd5b50565b600081359050612622816125fc565b92915050565b60006020828403121561263e5761263d6125c6565b5b600061264c84828501612613565b91505092915050565b60008115159050919050565b61266a81612655565b82525050565b60006020820190506126856000830184612661565b92915050565b600073ffffffffffffffffffffffffffffffffffffffff82169050919050565b60006126b68261268b565b9050919050565b6126c6816126ab565b81146126d157600080fd5b50565b6000813590506126e3816126bd565b92915050565b6000602082840312156126ff576126fe6125c6565b5b600061270d848285016126d4565b91505092915050565b6000819050919050565b61272981612716565b811461273457600080fd5b50565b60008135905061274681612720565b92915050565b600060208284031215612762576127616125c6565b5b600061277084828501612737565b91505092915050565b61278281612716565b82525050565b600060208201905061279d6000830184612779565b92915050565b600080604083850312156127ba576127b96125c6565b5b60006127c885828601612737565b92505060206127d9858286016126d4565b9150509250929050565b6000819050919050565b60006128086128036127fe8461268b565b6127e3565b61268b565b9050919050565b600061281a826127ed565b9050919050565b600061282c8261280f565b9050919050565b61283c81612821565b82525050565b60006020820190506128576000830184612833565b92915050565b6000819050919050565b6128708161285d565b811461287b57600080fd5b50565b60008135905061288d81612867565b92915050565b600080604083850312156128aa576128a96125c6565b5b60006128b88582860161287e565b92505060206128c98582860161287e565b9150509250929050565b60006128de8261280f565b9050919050565b6128ee816128d3565b82525050565b600060208201905061290960008301846128e5565b92915050565b600080fd5b600080fd5b6000601f19601f8301169050919050565b7f4e487b7100000000000000000000000000000000000000000000000000000000600052604160045260246000fd5b61296282612919565b810181811067ffffffffffffffff821117156129815761298061292a565b5b80604052505050565b60006129946125bc565b90506129a08282612959565b919050565b600067ffffffffffffffff8211156129c0576129bf61292a565b5b6129c982612919565b9050602081019050919050565b82818337600083830152505050565b60006129f86129f3846129a5565b61298a565b905082815260208101848484011115612a1457612a13612914565b5b612a1f8482856129d6565b509392505050565b600082601f830112612a3c57612a3b61290f565b5b8135612a4c8482602086016129e5565b91505092915050565b60008060408385031215612a6c57612a6b6125c6565b5b6000612a7a858286016126d4565b925050602083013567ffffffffffffffff811115612a9b57612a9a6125cb565b5b612aa785828601612a27565b9150509250929050565b6000612abc8261280f565b9050919050565b612acc81612ab1565b82525050565b6000602082019050612ae76000830184612ac3565b92915050565b600080fd5b60006101408284031215612b0957612b08612aed565b5b81905092915050565b600060208284031215612b2857612b276125c6565b5b600082013567ffffffffffffffff811115612b4657612b456125cb565b5b612b5284828501612af2565b91505092915050565b600081519050919050565b600082825260208201905092915050565b60005b83811015612b95578082015181840152602081019050612b7a565b60008484015250505050565b6000612bac82612b5b565b612bb68185612b66565b9350612bc6818560208601612b77565b612bcf81612919565b840191505092915050565b60006020820190508181036000830152612bf48184612ba1565b905092915050565b612c058161285d565b82525050565b6000608082019050612c206000830187612bfc565b612c2d6020830186612bfc565b612c3a6040830185612661565b612c476060830184612bfc565b95945050505050565b600060208284031215612c6657612c656125c6565b5b6000612c748482850161287e565b91505092915050565b612c86816126ab565b82525050565b600081519050919050565b600082825260208201905092915050565b6000819050602082019050919050565b612cc18161285d565b82525050565b6000612cd38383612cb8565b60208301905092915050565b6000602082019050919050565b6000612cf782612c8c565b612d018185612c97565b9350612d0c83612ca8565b8060005b83811015612d3d578151612d248882612cc7565b9750612d2f83612cdf565b925050600181019050612d10565b5085935050505092915050565b600061ffff82169050919050565b612d6181612d4a565b82525050565b612d70816126ab565b82525050565b6000610140830160008301518482036000860152612d948282612cec565b9150506020830151612da96020860182612cb8565b506040830151612dbc6040860182612d58565b5060608301518482036060860152612dd48282612cec565b9150506080830151612de96080860182612cb8565b5060a0830151612dfc60a0860182612cb8565b5060c0830151612e0f60c0860182612d67565b5060e0830151612e2260e0860182612cb8565b50610100830151612e37610100860182612cb8565b50610120830151612e4c610120860182612cb8565b508091505092915050565b600060a082019050612e6c6000830188612bfc565b612e796020830187612c7d565b612e866040830186612bfc565b8181036060830152612e988185612d76565b9050612ea76080830184612661565b9695505050505050565b612eba81612655565b82525050565b608082016000820151612ed66000850182612cb8565b506020820151612ee96020850182612cb8565b506040820151612efc6040850182612eb1565b506060820151612f0f6060850182612cb8565b50505050565b6000608082019050612f2a6000830184612ec0565b92915050565b60008060008060008060c08789031215612f4d57612f4c6125c6565b5b6000612f5b89828a016126d4565b9650506020612f6c89828a016126d4565b9550506040612f7d89828a016126d4565b9450506060612f8e89828a016126d4565b9350506080612f9f89828a016126d4565b92505060a0612fb089828a016126d4565b9150509295509295509295565b6000612fc88261280f565b9050919050565b612fd881612fbd565b82525050565b6000602082019050612ff36000830184612fcf565b92915050565b6000613004826127ed565b9050919050565b600061301682612ff9565b9050919050565b6130268161300b565b82525050565b6000602082019050613041600083018461301d565b92915050565b7f4e6f2070656e64696e6720617474656d7074206f7220616c726561647920707260008201527f6f63657373656400000000000000000000000000000000000000000000000000602082015250565b60006130a3602783612b66565b91506130ae82613047565b604082019050919050565b600060208201905081810360008301526130d281613096565b9050919050565b7f4e487b7100000000000000000000000000000000000000000000000000000000600052601260045260246000fd5b60006131138261285d565b915061311e8361285d565b92508261312e5761312d6130d9565b5b828206905092915050565b600081549050919050565b600082825260208201905092915050565b60008190508160005260206000209050919050565b60008160001c9050919050565b6000819050919050565b600061319461318f8361316a565b613177565b9050919050565b60006131a78254613181565b9050919050565b6000600182019050919050565b60006131c682613139565b6131d08185613144565b93506131db83613155565b8060005b83811015613213576131f08261319b565b6131fa8882612cc7565b9750613205836131ae565b9250506001810190506131df565b5085935050505092915050565b600060e082019050613235600083018a612bfc565b6132426020830189612661565b81810360408301526132548188612ba1565b90506132636060830187612bfc565b6132706080830186612bfc565b81810360a083015261328281856131bb565b905061329160c0830184612bfc565b98975050505050505050565b60006040820190506132b26000830185612c7d565b6132bf6020830184612bfc565b9392505050565b7f496e76616c696420746f6b656e20616d6f756e74000000000000000000000000600082015250565b60006132fc601483612b66565b9150613307826132c6565b602082019050919050565b6000602082019050818103600083015261332b816132ef565b9050919050565b7f496e76616c69642077696e2070657263656e7461676500000000000000000000600082015250565b6000613368601683612b66565b915061337382613332565b602082019050919050565b600060208201905081810360008301526133978161335b565b9050919050565b7f496e76616c696420636861726163746572204944000000000000000000000000600082015250565b60006133d4601483612b66565b91506133df8261339e565b602082019050919050565b60006020820190508181036000830152613403816133c7565b9050919050565b600060608201905061341f6000830186612c7d565b61342c6020830185612c7d565b6134396040830184612bfc565b949350505050565b61344a81612655565b811461345557600080fd5b50565b60008151905061346781613441565b92915050565b600060208284031215613483576134826125c6565b5b600061349184828501613458565b91505092915050565b7f546f6b656e207472616e73666572206661696c65640000000000000000000000600082015250565b60006134d0601583612b66565b91506134db8261349a565b602082019050919050565b600060208201905081810360008301526134ff816134c3565b9050919050565b600080fd5b600080fd5b600080fd5b6000808335600160200384360303811261353257613531613506565b5b80840192508235915067ffffffffffffffff8211156135545761355361350b565b5b6020830192506020820236038313156135705761356f613510565b5b509250929050565b61358181612d4a565b811461358c57600080fd5b50565b60008135905061359e81613578565b92915050565b6000602082840312156135ba576135b96125c6565b5b60006135c88482850161358f565b91505092915050565b600080fd5b82818337505050565b60006135eb8385613144565b93507f07ffffffffffffffffffffffffffffffffffffffffffffffffffffffffffffff83111561361e5761361d6135d1565b5b60208302925061362f8385846135d6565b82840190509392505050565b61364481612d4a565b82525050565b600060408201905081810360008301526136658185876135df565b9050613674602083018461363b565b949350505050565b600067ffffffffffffffff8211156136975761369661292a565b5b602082029050602081019050919050565b600080fd5b6000815190506136bc81612867565b92915050565b60006136d56136d08461367c565b61298a565b905080838252602082019050602084028301858111156136f8576136f76136a8565b5b835b81811015613721578061370d88826136ad565b8452602084019350506020810190506136fa565b5050509392505050565b600082601f8301126137405761373f61290f565b5b81516137508482602086016136c2565b91505092915050565b60006020828403121561376f5761376e6125c6565b5b600082015167ffffffffffffffff81111561378d5761378c6125cb565b5b6137998482850161372b565b91505092915050565b60006060820190506137b76000830187612bfc565b6137c46020830186612bfc565b81810360408301526137d78184866135df565b905095945050505050565b6000819050919050565b600063ffffffff82169050919050565b600061381761381261380d846137e2565b6127e3565b6137ec565b9050919050565b613827816137fc565b82525050565b7f4e487b7100000000000000000000000000000000000000000000000000000000600052602160045260246000fd5b6001811061386d5761386c61382d565b5b50565b600081905061387e8261385c565b919050565b600061388e82613870565b9050919050565b61389e81613883565b82525050565b60006040820190506138b9600083018561381e565b6138c66020830184613895565b9392505050565b6000602082840312156138e3576138e26125c6565b5b60006138f1848285016136ad565b91505092915050565b600080fd5b600080fd5b60006139176139128461367c565b61298a565b9050808382526020820190506020840283018581111561393a576139396136a8565b5b835b81811015613963578061394f888261287e565b84526020840193505060208101905061393c565b5050509392505050565b600082601f8301126139825761398161290f565b5b8135613992848260208601613904565b91505092915050565b600061014082840312156139b2576139b16138fa565b5b6139bd61014061298a565b9050600082013567ffffffffffffffff8111156139dd576139dc6138ff565b5b6139e98482850161396d565b60008301525060206139fd8482850161287e565b6020830152506040613a118482850161358f565b604083015250606082013567ffffffffffffffff811115613a3557613a346138ff565b5b613a418482850161396d565b6060830152506080613a558482850161287e565b60808301525060a0613a698482850161287e565b60a08301525060c0613a7d848285016126d4565b60c08301525060e0613a918482850161287e565b60e083015250610100613aa68482850161287e565b61010083015250610120613abc8482850161287e565b6101208301525092915050565b6000613ad5368361399b565b9050919050565b600067ffffffffffffffff82169050919050565b6000613b0b613b06613b01846137e2565b6127e3565b613adc565b9050919050565b613b1b81613af0565b82525050565b6000602082019050613b366000830184613b12565b92915050565b60006040820190508181036000830152613b568185612ba1565b9050613b656020830184612bfc565b9392505050565b600081519050613b7b81612720565b92915050565b600060208284031215613b9757613b966125c6565b5b6000613ba584828501613b6c565b91505092915050565b6000602082019050613bc36000830184612c7d565b92915050565b6000602082019050613bde6000830184612bfc565b92915050565b6000604082019050613bf96000830185612c7d565b613c066020830184612779565b9392505050565b600081519050919050565b600081905092915050565b6000613c2e82613c0d565b613c388185613c18565b9350613c48818560208601612b77565b80840191505092915050565b6000613c608284613c23565b915081905092915050565b7f4e487b7100000000000000000000000000000000000000000000000000000000600052605160045260246000fdfea2646970667358221220edaacea99d0a3d6c916e10b05cae4cd5302f41ac1c529ca75de1f217f1bd9b0764736f6c63430008140033",
  "linkReferences": {},
  "deployedLinkReferences": {}
}