{
  "_format": "hh-sol-artifact-1",
  "contractName": "DungeonAdventure",
  "sourceName": "contracts/DungeonAdventure.sol",
  "abi": [
    {
      "inputs": [],
      "stateMutability": "nonpayable",
      "type": "constructor"
    },
    {
      "inputs": [],
      "name": "AccessControlBadConfirmation",
      "type": "error"
    },
    {
      "inputs": [
        {
          "internalType": "address",
          "name": "account",
          "type": "address"
        },
        {
          "internalType": "bytes32",
          "name": "neededRole",
          "type": "bytes32"
        }
      ],
      "name": "AccessControlUnauthorizedAccount",
      "type": "error"
    },
    {
      "inputs": [
        {
          "internalType": "address",
          "name": "target",
          "type": "address"
        }
      ],
      "name": "AddressEmptyCode",
      "type": "error"
    },
    {
      "inputs": [],
      "name": "ECDSAInvalidSignature",
      "type": "error"
    },
    {
      "inputs": [
        {
          "internalType": "uint256",
          "name": "length",
          "type": "uint256"
        }
      ],
      "name": "ECDSAInvalidSignatureLength",
      "type": "error"
    },
    {
      "inputs": [
        {
          "internalType": "bytes32",
          "name": "s",
          "type": "bytes32"
        }
      ],
      "name": "ECDSAInvalidSignatureS",
      "type": "error"
    },
    {
      "inputs": [
        {
          "internalType": "address",
          "name": "implementation",
          "type": "address"
        }
      ],
      "name": "ERC1967InvalidImplementation",
      "type": "error"
    },
    {
      "inputs": [],
      "name": "ERC1967NonPayable",
      "type": "error"
    },
    {
      "inputs": [],
      "name": "FailedInnerCall",
      "type": "error"
    },
    {
      "inputs": [],
      "name": "InvalidInitialization",
      "type": "error"
    },
    {
      "inputs": [],
      "name": "NotInitializing",
      "type": "error"
    },
    {
      "inputs": [],
      "name": "UUPSUnauthorizedCallContext",
      "type": "error"
    },
    {
      "inputs": [
        {
          "internalType": "bytes32",
          "name": "slot",
          "type": "bytes32"
        }
      ],
      "name": "UUPSUnsupportedProxiableUUID",
      "type": "error"
    },
    {
      "anonymous": false,
      "inputs": [
        {
          "indexed": true,
          "internalType": "address",
          "name": "player",
          "type": "address"
        },
        {
          "indexed": false,
          "internalType": "uint256",
          "name": "characterId",
          "type": "uint256"
        },
        {
          "indexed": false,
          "internalType": "bool",
          "name": "success",
          "type": "bool"
        },
        {
          "indexed": false,
          "internalType": "string",
          "name": "message",
          "type": "string"
        },
        {
          "indexed": false,
          "internalType": "uint256",
          "name": "winChance",
          "type": "uint256"
        },
        {
          "indexed": false,
          "internalType": "uint256",
          "name": "randomValue",
          "type": "uint256"
        },
        {
          "indexed": false,
          "internalType": "uint256[]",
          "name": "burnedItems",
          "type": "uint256[]"
        },
        {
          "indexed": false,
          "internalType": "uint256",
          "name": "itemPower",
          "type": "uint256"
        }
      ],
      "name": "DungeonResult",
      "type": "event"
    },
    {
      "anonymous": false,
      "inputs": [
        {
          "indexed": false,
          "internalType": "uint64",
          "name": "version",
          "type": "uint64"
        }
      ],
      "name": "Initialized",
      "type": "event"
    },
    {
      "anonymous": false,
      "inputs": [
        {
          "indexed": true,
          "internalType": "bytes32",
          "name": "role",
          "type": "bytes32"
        },
        {
          "indexed": true,
          "internalType": "bytes32",
          "name": "previousAdminRole",
          "type": "bytes32"
        },
        {
          "indexed": true,
          "internalType": "bytes32",
          "name": "newAdminRole",
          "type": "bytes32"
        }
      ],
      "name": "RoleAdminChanged",
      "type": "event"
    },
    {
      "anonymous": false,
      "inputs": [
        {
          "indexed": true,
          "internalType": "bytes32",
          "name": "role",
          "type": "bytes32"
        },
        {
          "indexed": true,
          "internalType": "address",
          "name": "account",
          "type": "address"
        },
        {
          "indexed": true,
          "internalType": "address",
          "name": "sender",
          "type": "address"
        }
      ],
      "name": "RoleGranted",
      "type": "event"
    },
    {
      "anonymous": false,
      "inputs": [
        {
          "indexed": true,
          "internalType": "bytes32",
          "name": "role",
          "type": "bytes32"
        },
        {
          "indexed": true,
          "internalType": "address",
          "name": "account",
          "type": "address"
        },
        {
          "indexed": true,
          "internalType": "address",
          "name": "sender",
          "type": "address"
        }
      ],
      "name": "RoleRevoked",
      "type": "event"
    },
    {
      "anonymous": false,
      "inputs": [
        {
          "indexed": false,
          "internalType": "bytes",
          "name": "signature",
          "type": "bytes"
        }
      ],
      "name": "SignatureReceived",
      "type": "event"
    },
    {
      "anonymous": false,
      "inputs": [
        {
          "indexed": true,
          "internalType": "address",
          "name": "implementation",
          "type": "address"
        }
      ],
      "name": "Upgraded",
      "type": "event"
    },
    {
      "inputs": [],
      "name": "DEFAULT_ADMIN_ROLE",
      "outputs": [
        {
          "internalType": "bytes32",
          "name": "",
          "type": "bytes32"
        }
      ],
      "stateMutability": "view",
      "type": "function"
    },
    {
      "inputs": [],
      "name": "UPGRADER_ROLE",
      "outputs": [
        {
          "internalType": "bytes32",
          "name": "",
          "type": "bytes32"
        }
      ],
      "stateMutability": "view",
      "type": "function"
    },
    {
      "inputs": [],
      "name": "UPGRADE_INTERFACE_VERSION",
      "outputs": [
        {
          "internalType": "string",
          "name": "",
          "type": "string"
        }
      ],
      "stateMutability": "view",
      "type": "function"
    },
    {
      "inputs": [
        {
          "internalType": "uint256",
          "name": "",
          "type": "uint256"
        }
      ],
      "name": "attemptDetails",
      "outputs": [
        {
          "internalType": "uint256",
          "name": "timestamp",
          "type": "uint256"
        },
        {
          "internalType": "address",
          "name": "player",
          "type": "address"
        },
        {
          "internalType": "uint256",
          "name": "requestId",
          "type": "uint256"
        },
        {
          "components": [
            {
              "internalType": "uint256[]",
              "name": "itemIds",
              "type": "uint256[]"
            },
            {
              "internalType": "uint256",
              "name": "experienceToAdd",
              "type": "uint256"
            },
            {
              "internalType": "uint16",
              "name": "durabilityToDeduct",
              "type": "uint16"
            },
            {
              "internalType": "uint256[]",
              "name": "slotToAdd",
              "type": "uint256[]"
            },
            {
              "internalType": "uint256",
              "name": "winPercentage",
              "type": "uint256"
            },
            {
              "internalType": "uint256",
              "name": "itemPower",
              "type": "uint256"
            },
            {
              "internalType": "address",
              "name": "walletId",
              "type": "address"
            },
            {
              "internalType": "uint256",
              "name": "characterId",
              "type": "uint256"
            },
            {
              "internalType": "uint256",
              "name": "entryFee",
              "type": "uint256"
            },
            {
              "internalType": "uint256",
              "name": "lootReward",
              "type": "uint256"
            },
            {
              "internalType": "uint256",
              "name": "timestamp",
              "type": "uint256"
            },
            {
              "internalType": "bytes",
              "name": "signature",
              "type": "bytes"
            }
          ],
          "internalType": "struct DungeonAdventure.DungeonParams",
          "name": "params",
          "type": "tuple"
        },
        {
          "internalType": "bool",
          "name": "pending",
          "type": "bool"
        }
      ],
      "stateMutability": "view",
      "type": "function"
    },
    {
      "inputs": [],
      "name": "characterContract",
      "outputs": [
        {
          "internalType": "contract CreateCharacter",
          "name": "",
          "type": "address"
        }
      ],
      "stateMutability": "view",
      "type": "function"
    },
    {
      "inputs": [
        {
          "internalType": "address",
          "name": "",
          "type": "address"
        }
      ],
      "name": "dungeonAttempts",
      "outputs": [
        {
          "internalType": "uint256",
          "name": "timestamp",
          "type": "uint256"
        },
        {
          "internalType": "uint256",
          "name": "winChance",
          "type": "uint256"
        },
        {
          "internalType": "bool",
          "name": "success",
          "type": "bool"
        },
        {
          "internalType": "uint256",
          "name": "randomValue",
          "type": "uint256"
        }
      ],
      "stateMutability": "view",
      "type": "function"
    },
    {
      "inputs": [],
      "name": "gameTreasury",
      "outputs": [
        {
          "internalType": "contract GameTreasury",
          "name": "",
          "type": "address"
        }
      ],
      "stateMutability": "view",
      "type": "function"
    },
    {
      "inputs": [
        {
          "internalType": "address",
          "name": "player",
          "type": "address"
        }
      ],
      "name": "getDungeonAttemptDetails",
      "outputs": [
        {
          "components": [
            {
              "internalType": "uint256",
              "name": "timestamp",
              "type": "uint256"
            },
            {
              "internalType": "uint256",
              "name": "winChance",
              "type": "uint256"
            },
            {
              "internalType": "bool",
              "name": "success",
              "type": "bool"
            },
            {
              "internalType": "uint256",
              "name": "randomValue",
              "type": "uint256"
            }
          ],
          "internalType": "struct DungeonAdventure.DungeonAttempt",
          "name": "",
          "type": "tuple"
        }
      ],
      "stateMutability": "view",
      "type": "function"
    },
    {
      "inputs": [
        {
          "internalType": "bytes32",
          "name": "role",
          "type": "bytes32"
        }
      ],
      "name": "getRoleAdmin",
      "outputs": [
        {
          "internalType": "bytes32",
          "name": "",
          "type": "bytes32"
        }
      ],
      "stateMutability": "view",
      "type": "function"
    },
    {
      "inputs": [
        {
          "components": [
            {
              "internalType": "uint256[]",
              "name": "itemIds",
              "type": "uint256[]"
            },
            {
              "internalType": "uint256",
              "name": "experienceToAdd",
              "type": "uint256"
            },
            {
              "internalType": "uint16",
              "name": "durabilityToDeduct",
              "type": "uint16"
            },
            {
              "internalType": "uint256[]",
              "name": "slotToAdd",
              "type": "uint256[]"
            },
            {
              "internalType": "uint256",
              "name": "winPercentage",
              "type": "uint256"
            },
            {
              "internalType": "uint256",
              "name": "itemPower",
              "type": "uint256"
            },
            {
              "internalType": "address",
              "name": "walletId",
              "type": "address"
            },
            {
              "internalType": "uint256",
              "name": "characterId",
              "type": "uint256"
            },
            {
              "internalType": "uint256",
              "name": "entryFee",
              "type": "uint256"
            },
            {
              "internalType": "uint256",
              "name": "lootReward",
              "type": "uint256"
            },
            {
              "internalType": "uint256",
              "name": "timestamp",
              "type": "uint256"
            },
            {
              "internalType": "bytes",
              "name": "signature",
              "type": "bytes"
            }
          ],
          "internalType": "struct DungeonAdventure.DungeonParams",
          "name": "params",
          "type": "tuple"
        }
      ],
      "name": "goDungeon",
      "outputs": [],
      "stateMutability": "nonpayable",
      "type": "function"
    },
    {
      "inputs": [
        {
          "internalType": "bytes32",
          "name": "role",
          "type": "bytes32"
        },
        {
          "internalType": "address",
          "name": "account",
          "type": "address"
        }
      ],
      "name": "grantRole",
      "outputs": [],
      "stateMutability": "nonpayable",
      "type": "function"
    },
    {
      "inputs": [
        {
          "internalType": "bytes32",
          "name": "role",
          "type": "bytes32"
        },
        {
          "internalType": "address",
          "name": "account",
          "type": "address"
        }
      ],
      "name": "hasRole",
      "outputs": [
        {
          "internalType": "bool",
          "name": "",
          "type": "bool"
        }
      ],
      "stateMutability": "view",
      "type": "function"
    },
    {
      "inputs": [
        {
          "internalType": "address",
          "name": "defaultAdmin",
          "type": "address"
        },
        {
          "internalType": "address",
          "name": "upgrader",
          "type": "address"
        },
        {
          "internalType": "address",
          "name": "_itemContractAddress",
          "type": "address"
        },
        {
          "internalType": "address",
          "name": "_characterContractAddress",
          "type": "address"
        },
        {
          "internalType": "address",
          "name": "_randomnessProvider",
          "type": "address"
        },
        {
          "internalType": "address",
          "name": "_gameTreasuryAddress",
          "type": "address"
        }
      ],
      "name": "initialize",
      "outputs": [],
      "stateMutability": "nonpayable",
      "type": "function"
    },
    {
      "inputs": [],
      "name": "itemContract",
      "outputs": [
        {
          "internalType": "contract MintItem",
          "name": "",
          "type": "address"
        }
      ],
      "stateMutability": "view",
      "type": "function"
    },
    {
      "inputs": [],
      "name": "knownServerAddress",
      "outputs": [
        {
          "internalType": "address",
          "name": "",
          "type": "address"
        }
      ],
      "stateMutability": "view",
      "type": "function"
    },
    {
      "inputs": [],
      "name": "paymentToken",
      "outputs": [
        {
          "internalType": "contract IERC20",
          "name": "",
          "type": "address"
        }
      ],
      "stateMutability": "view",
      "type": "function"
    },
    {
      "inputs": [
        {
          "internalType": "uint256",
          "name": "requestId",
          "type": "uint256"
        },
        {
          "internalType": "uint256",
          "name": "randomValue",
          "type": "uint256"
        }
      ],
      "name": "processDungeonAttempt",
      "outputs": [],
      "stateMutability": "nonpayable",
      "type": "function"
    },
    {
      "inputs": [],
      "name": "proxiableUUID",
      "outputs": [
        {
          "internalType": "bytes32",
          "name": "",
          "type": "bytes32"
        }
      ],
      "stateMutability": "view",
      "type": "function"
    },
    {
      "inputs": [],
      "name": "randomnessProvider",
      "outputs": [
        {
          "internalType": "contract RandomnessProvider",
          "name": "",
          "type": "address"
        }
      ],
      "stateMutability": "view",
      "type": "function"
    },
    {
      "inputs": [
        {
          "internalType": "bytes32",
          "name": "role",
          "type": "bytes32"
        },
        {
          "internalType": "address",
          "name": "callerConfirmation",
          "type": "address"
        }
      ],
      "name": "renounceRole",
      "outputs": [],
      "stateMutability": "nonpayable",
      "type": "function"
    },
    {
      "inputs": [
        {
          "internalType": "bytes32",
          "name": "role",
          "type": "bytes32"
        },
        {
          "internalType": "address",
          "name": "account",
          "type": "address"
        }
      ],
      "name": "revokeRole",
      "outputs": [],
      "stateMutability": "nonpayable",
      "type": "function"
    },
    {
      "inputs": [
        {
          "internalType": "address",
          "name": "_newCreateCharacterAddress",
          "type": "address"
        }
      ],
      "name": "setCharacterContractAddress",
      "outputs": [],
      "stateMutability": "nonpayable",
      "type": "function"
    },
    {
      "inputs": [
        {
          "internalType": "address",
          "name": "_gameTreasuryAddress",
          "type": "address"
        }
      ],
      "name": "setGameTreasuryAddress",
      "outputs": [],
      "stateMutability": "nonpayable",
      "type": "function"
    },
    {
      "inputs": [
        {
          "internalType": "address",
          "name": "_knownServerAddress",
          "type": "address"
        }
      ],
      "name": "setKnownServerAddress",
      "outputs": [],
      "stateMutability": "nonpayable",
      "type": "function"
    },
    {
      "inputs": [
        {
          "internalType": "address",
          "name": "_newItemContractAddress",
          "type": "address"
        }
      ],
      "name": "setMintItemContractAddress",
      "outputs": [],
      "stateMutability": "nonpayable",
      "type": "function"
    },
    {
      "inputs": [
        {
          "internalType": "address",
          "name": "_tokenAddress",
          "type": "address"
        }
      ],
      "name": "setPaymentToken",
      "outputs": [],
      "stateMutability": "nonpayable",
      "type": "function"
    },
    {
      "inputs": [
        {
          "internalType": "address",
          "name": "_randomnessProvider",
          "type": "address"
        }
      ],
      "name": "setRandomnessProvider",
      "outputs": [],
      "stateMutability": "nonpayable",
      "type": "function"
    },
    {
      "inputs": [
        {
          "internalType": "bytes4",
          "name": "interfaceId",
          "type": "bytes4"
        }
      ],
      "name": "supportsInterface",
      "outputs": [
        {
          "internalType": "bool",
          "name": "",
          "type": "bool"
        }
      ],
      "stateMutability": "view",
      "type": "function"
    },
    {
      "inputs": [
        {
          "internalType": "address",
          "name": "newImplementation",
          "type": "address"
        },
        {
          "internalType": "bytes",
          "name": "data",
          "type": "bytes"
        }
      ],
      "name": "upgradeToAndCall",
      "outputs": [],
      "stateMutability": "payable",
      "type": "function"
    }
  ],
  "bytecode": "0x60a06040523073ffffffffffffffffffffffffffffffffffffffff1660809073ffffffffffffffffffffffffffffffffffffffff168152503480156200004457600080fd5b50620000556200005b60201b60201c565b620001cf565b60006200006d6200016560201b60201c565b90508060000160089054906101000a900460ff1615620000b9576040517ff92ee8a900000000000000000000000000000000000000000000000000000000815260040160405180910390fd5b67ffffffffffffffff80168160000160009054906101000a900467ffffffffffffffff1667ffffffffffffffff1614620001625767ffffffffffffffff8160000160006101000a81548167ffffffffffffffff021916908367ffffffffffffffff1602179055507fc7f505b2f371ae2175ee4913f4499e1f2633a7b5936321eed1cdaeb6115181d267ffffffffffffffff604051620001599190620001b2565b60405180910390a15b50565b60007ff0c57e16840df040f15088dc2f81fe391c3923bec73e23a9662efc9c229c6a00905090565b600067ffffffffffffffff82169050919050565b620001ac816200018d565b82525050565b6000602082019050620001c96000830184620001a1565b92915050565b608051614d0d620001f96000396000818161245e015281816124b301526126910152614d0d6000f3fe6080604052600436106101c25760003560e01c80638d76f940116100f7578063c1e0bdf511610095578063d2f9efab11610064578063d2f9efab1461064a578063d547741f14610675578063dad37ee91461069e578063f72c0d8b146106c7576101c2565b8063c1e0bdf514610578578063c7a4e72d146105b9578063cc2a9a5b146105f6578063ce9bf5ac1461061f576101c2565b8063a217fddf116100d1578063a217fddf146104b9578063ad3cb1cc146104e4578063b15fbc141461050f578063b1625fab14610538576101c2565b80638d76f9401461042857806391d1485414610453578063a1365bf114610490576101c2565b806336b426df116101645780634f1ef2861161013e5780634f1ef2861461038f57806352d1902d146103ab5780636a326ab1146103d657806383499df6146103ff576101c2565b806336b426df1461031057806337c61ee81461033b57806343b60f7414610364576101c2565b80632f2ff15d116101a05780632f2ff15d1461026a5780633013ce29146102935780633115370d146102be57806336568abe146102e7576101c2565b806301ffc9a7146101c7578063162f8e4e14610204578063248a9ca31461022d575b600080fd5b3480156101d357600080fd5b506101ee60048036038101906101e9919061303e565b6106f2565b6040516101fb9190613086565b60405180910390f35b34801561021057600080fd5b5061022b600480360381019061022691906130ff565b61076c565b005b34801561023957600080fd5b50610254600480360381019061024f9190613162565b6107af565b604051610261919061319e565b60405180910390f35b34801561027657600080fd5b50610291600480360381019061028c91906131b9565b6107dd565b005b34801561029f57600080fd5b506102a86107ff565b6040516102b59190613258565b60405180910390f35b3480156102ca57600080fd5b506102e560048036038101906102e09190613298565b610825565b005b3480156102f357600080fd5b5061030e600480360381019061030991906131b9565b610f9d565b005b34801561031c57600080fd5b50610325611018565b60405161033291906132f0565b60405180910390f35b34801561034757600080fd5b50610362600480360381019061035d9190613341565b61103e565b005b34801561037057600080fd5b506103796113a4565b60405161038691906133a2565b60405180910390f35b6103a960048036038101906103a49190613503565b6113ca565b005b3480156103b757600080fd5b506103c06113e9565b6040516103cd919061319e565b60405180910390f35b3480156103e257600080fd5b506103fd60048036038101906103f891906130ff565b61141c565b005b34801561040b57600080fd5b50610426600480360381019061042191906130ff565b611460565b005b34801561043457600080fd5b5061043d6114a4565b60405161044a9190613580565b60405180910390f35b34801561045f57600080fd5b5061047a600480360381019061047591906131b9565b6114c8565b6040516104879190613086565b60405180910390f35b34801561049c57600080fd5b506104b760048036038101906104b291906130ff565b611541565b005b3480156104c557600080fd5b506104ce611585565b6040516104db919061319e565b60405180910390f35b3480156104f057600080fd5b506104f961158c565b604051610506919061361a565b60405180910390f35b34801561051b57600080fd5b50610536600480360381019061053191906130ff565b6115c5565b005b34801561054457600080fd5b5061055f600480360381019061055a91906130ff565b611609565b60405161056f949392919061364b565b60405180910390f35b34801561058457600080fd5b5061059f600480360381019061059a9190613690565b611646565b6040516105b095949392919061390e565b60405180910390f35b3480156105c557600080fd5b506105e060048036038101906105db91906130ff565b6118b2565b6040516105ed91906139cc565b60405180910390f35b34801561060257600080fd5b5061061d600480360381019061061891906139e7565b611944565b005b34801561062b57600080fd5b50610634611c1b565b6040516106419190613a95565b60405180910390f35b34801561065657600080fd5b5061065f611c41565b60405161066c9190613ae3565b60405180910390f35b34801561068157600080fd5b5061069c600480360381019061069791906131b9565b611c67565b005b3480156106aa57600080fd5b506106c560048036038101906106c091906130ff565b611c89565b005b3480156106d357600080fd5b506106dc611ccd565b6040516106e9919061319e565b60405180910390f35b60007f7965db0b000000000000000000000000000000000000000000000000000000007bffffffffffffffffffffffffffffffffffffffffffffffffffffffff1916827bffffffffffffffffffffffffffffffffffffffffffffffffffffffff19161480610765575061076482611cf1565b5b9050919050565b806000806101000a81548173ffffffffffffffffffffffffffffffffffffffff021916908373ffffffffffffffffffffffffffffffffffffffff16021790555050565b6000806107ba611d5b565b905080600001600084815260200190815260200160002060010154915050919050565b6107e6826107af565b6107ef81611d83565b6107f98383611d97565b50505050565b600660009054906101000a900473ffffffffffffffffffffffffffffffffffffffff1681565b7fd5abd8bafd66536a7715960b4606ae43cbe944953190b51b2e984dff14d6b610818061016001906108579190613b0d565b604051610865929190613bae565b60405180910390a16108b16040518060400160405280600a81526020017f456e747279204665653a00000000000000000000000000000000000000000000815250826101000135611e98565b6108f46040518060400160405280600f81526020017f57696e2050657263656e746167653a00000000000000000000000000000000008152508260800135611e98565b6109376040518060400160405280600d81526020017f4368617261637465722049443a000000000000000000000000000000000000008152508260e00135611e98565b6109886040518060400160405280600a81526020017f57616c6c65742049643a000000000000000000000000000000000000000000008152508260c001602081019061098391906130ff565b611f34565b600061099c8261099790613e46565b611fd0565b90506109dd6040518060400160405280601481526020017f566572696669636174696f6e20526573756c743a00000000000000000000000081525082612184565b80610a1d576040517f08c379a0000000000000000000000000000000000000000000000000000000008152600401610a1490613ea5565b60405180910390fd5b610a5b6040518060400160405280600e81526020017f7375636365737320766572696679000000000000000000000000000000000000815250612220565b600660009054906101000a900473ffffffffffffffffffffffffffffffffffffffff1673ffffffffffffffffffffffffffffffffffffffff166323b872dd33600560009054906101000a900473ffffffffffffffffffffffffffffffffffffffff168561010001356040518463ffffffff1660e01b8152600401610ae193929190613ec5565b6020604051808303816000875af1158015610b00573d6000803e3d6000fd5b505050506040513d601f19601f82011682018060405250810190610b249190613f28565b610b63576040517f08c379a0000000000000000000000000000000000000000000000000000000008152600401610b5a90613fa1565b60405180910390fd5b60008060009054906101000a900473ffffffffffffffffffffffffffffffffffffffff1673ffffffffffffffffffffffffffffffffffffffff16633604c9fb848060000190610bb29190613fc1565b866040016020810190610bc59190614024565b6040518463ffffffff1660e01b8152600401610be3939291906140db565b6000604051808303816000875af1158015610c02573d6000803e3d6000fd5b505050506040513d6000823e3d601f19601f82011682018060405250810190610c2b91906141b9565b9050600160009054906101000a900473ffffffffffffffffffffffffffffffffffffffff1673ffffffffffffffffffffffffffffffffffffffff16632f56d04b8460e001358560200135868060600190610c859190613fc1565b6040518563ffffffff1660e01b8152600401610ca49493929190614202565b600060405180830381600087803b158015610cbe57600080fd5b505af1158015610cd2573d6000803e3d6000fd5b505050506000600260009054906101000a900473ffffffffffffffffffffffffffffffffffffffff1673ffffffffffffffffffffffffffffffffffffffff16633a9098d1600160006040518363ffffffff1660e01b8152600401610d37929190614304565b6020604051808303816000875af1158015610d56573d6000803e3d6000fd5b505050506040513d601f19601f82011682018060405250810190610d7a919061432d565b905060006040518060c001604052804281526020013373ffffffffffffffffffffffffffffffffffffffff16815260200183815260200186610dbb90613e46565b8152602001848152602001600115158152509050610dd8826122b9565b80600360008481526020019081526020016000206000820151816000015560208201518160010160006101000a81548173ffffffffffffffffffffffffffffffffffffffff021916908373ffffffffffffffffffffffffffffffffffffffff160217905550604082015181600201556060820151816003016000820151816000019080519060200190610e6c929190612f34565b506020820151816001015560408201518160020160006101000a81548161ffff021916908361ffff1602179055506060820151816003019080519060200190610eb6929190612f34565b506080820151816004015560a0820151816005015560c08201518160060160006101000a81548173ffffffffffffffffffffffffffffffffffffffff021916908373ffffffffffffffffffffffffffffffffffffffff16021790555060e082015181600701556101008201518160080155610120820151816009015561014082015181600a015561016082015181600b019081610f53919061455c565b505050608082015181600f019080519060200190610f72929190612f34565b5060a08201518160100160006101000a81548160ff0219169083151502179055509050505050505050565b610fa5612352565b73ffffffffffffffffffffffffffffffffffffffff168173ffffffffffffffffffffffffffffffffffffffff1614611009576040517f6697b23200000000000000000000000000000000000000000000000000000000815260040160405180910390fd5b611013828261235a565b505050565b600760009054906101000a900473ffffffffffffffffffffffffffffffffffffffff1681565b60006003600084815260200190815260200160002090508060100160009054906101000a900460ff166110a6576040517f08c379a000000000000000000000000000000000000000000000000000000000815260040161109d906146a0565b60405180910390fd5b6000670de0b6b3a764000082600301600401546110c3919061471e565b90506000816064856110d5919061474f565b10905060008161111a576040518060400160405280601e81526020017f4661696c65642120426574746572206c75636b206e6578742074696d652e0000815250611151565b6040518060400160405280601781526020017f5375636365737321204c6f6f742041637175697265642e0000000000000000008152505b905060405180608001604052808560000154815260200185600301600401548152602001831515815260200186815250600460008660010160009054906101000a900473ffffffffffffffffffffffffffffffffffffffff1673ffffffffffffffffffffffffffffffffffffffff1673ffffffffffffffffffffffffffffffffffffffff168152602001908152602001600020600082015181600001556020820151816001015560408201518160020160006101000a81548160ff021916908315150217905550606082015181600301559050508360030160060160009054906101000a900473ffffffffffffffffffffffffffffffffffffffff1673ffffffffffffffffffffffffffffffffffffffff167f8232ae94e90609bda2d72290904fea1368caf5dcde821b07bdc03cc879b6c9af8560030160070154848488600301600401548a8a600f018b600301600501546040516112b69796959493929190614856565b60405180910390a2811561137f57600560009054906101000a900473ffffffffffffffffffffffffffffffffffffffff1673ffffffffffffffffffffffffffffffffffffffff1663bec3fa178560010160009054906101000a900473ffffffffffffffffffffffffffffffffffffffff1686600301600901546040518363ffffffff1660e01b815260040161134c9291906148d3565b600060405180830381600087803b15801561136657600080fd5b505af115801561137a573d6000803e3d6000fd5b505050505b60008460100160006101000a81548160ff021916908315150217905550505050505050565b600160009054906101000a900473ffffffffffffffffffffffffffffffffffffffff1681565b6113d261245c565b6113db82612542565b6113e58282612570565b5050565b60006113f361268f565b7f360894a13ba1a3210667c828492db98dca3e2076cc3735a920a3ca505d382bbc60001b905090565b80600660006101000a81548173ffffffffffffffffffffffffffffffffffffffff021916908373ffffffffffffffffffffffffffffffffffffffff16021790555050565b80600160006101000a81548173ffffffffffffffffffffffffffffffffffffffff021916908373ffffffffffffffffffffffffffffffffffffffff16021790555050565b60008054906101000a900473ffffffffffffffffffffffffffffffffffffffff1681565b6000806114d3611d5b565b905080600001600085815260200190815260200160002060000160008473ffffffffffffffffffffffffffffffffffffffff1673ffffffffffffffffffffffffffffffffffffffff16815260200190815260200160002060009054906101000a900460ff1691505092915050565b80600560006101000a81548173ffffffffffffffffffffffffffffffffffffffff021916908373ffffffffffffffffffffffffffffffffffffffff16021790555050565b6000801b81565b6040518060400160405280600581526020017f352e302e3000000000000000000000000000000000000000000000000000000081525081565b80600260006101000a81548173ffffffffffffffffffffffffffffffffffffffff021916908373ffffffffffffffffffffffffffffffffffffffff16021790555050565b60046020528060005260406000206000915090508060000154908060010154908060020160009054906101000a900460ff16908060030154905084565b60036020528060005260406000206000915090508060000154908060010160009054906101000a900473ffffffffffffffffffffffffffffffffffffffff16908060020154908060030160405180610180016040529081600082018054806020026020016040519081016040528092919081815260200182805480156116eb57602002820191906000526020600020905b8154815260200190600101908083116116d7575b50505050508152602001600182015481526020016002820160009054906101000a900461ffff1661ffff1661ffff1681526020016003820180548060200260200160405190810160405280929190818152602001828054801561176d57602002820191906000526020600020905b815481526020019060010190808311611759575b5050505050815260200160048201548152602001600582015481526020016006820160009054906101000a900473ffffffffffffffffffffffffffffffffffffffff1673ffffffffffffffffffffffffffffffffffffffff1673ffffffffffffffffffffffffffffffffffffffff168152602001600782015481526020016008820154815260200160098201548152602001600a8201548152602001600b8201805461181890614389565b80601f016020809104026020016040519081016040528092919081815260200182805461184490614389565b80156118915780601f1061186657610100808354040283529160200191611891565b820191906000526020600020905b81548152906001019060200180831161187457829003601f168201915b505050505081525050908060100160009054906101000a900460ff16905085565b6118ba612f81565b600460008373ffffffffffffffffffffffffffffffffffffffff1673ffffffffffffffffffffffffffffffffffffffff16815260200190815260200160002060405180608001604052908160008201548152602001600182015481526020016002820160009054906101000a900460ff161515151581526020016003820154815250509050919050565b600061194e612716565b905060008160000160089054906101000a900460ff1615905060008260000160009054906101000a900467ffffffffffffffff1690506000808267ffffffffffffffff1614801561199c5750825b9050600060018367ffffffffffffffff161480156119d1575060003073ffffffffffffffffffffffffffffffffffffffff163b145b9050811580156119df575080155b15611a16576040517ff92ee8a900000000000000000000000000000000000000000000000000000000815260040160405180910390fd5b60018560000160006101000a81548167ffffffffffffffff021916908367ffffffffffffffff1602179055508315611a665760018560000160086101000a81548160ff0219169083151502179055505b611a6e61273e565b611a76612748565b611a836000801b8c611d97565b50611aae7f189ab7a9244df0848122154315af71fe140f3db0fe014031783b0946b8c9d2e38b611d97565b50886000806101000a81548173ffffffffffffffffffffffffffffffffffffffff021916908373ffffffffffffffffffffffffffffffffffffffff16021790555087600160006101000a81548173ffffffffffffffffffffffffffffffffffffffff021916908373ffffffffffffffffffffffffffffffffffffffff16021790555086600260006101000a81548173ffffffffffffffffffffffffffffffffffffffff021916908373ffffffffffffffffffffffffffffffffffffffff16021790555085600560006101000a81548173ffffffffffffffffffffffffffffffffffffffff021916908373ffffffffffffffffffffffffffffffffffffffff1602179055508315611c0e5760008560000160086101000a81548160ff0219169083151502179055507fc7f505b2f371ae2175ee4913f4499e1f2633a7b5936321eed1cdaeb6115181d26001604051611c059190614941565b60405180910390a15b5050505050505050505050565b600260009054906101000a900473ffffffffffffffffffffffffffffffffffffffff1681565b600560009054906101000a900473ffffffffffffffffffffffffffffffffffffffff1681565b611c70826107af565b611c7981611d83565b611c83838361235a565b50505050565b80600760006101000a81548173ffffffffffffffffffffffffffffffffffffffff021916908373ffffffffffffffffffffffffffffffffffffffff16021790555050565b7f189ab7a9244df0848122154315af71fe140f3db0fe014031783b0946b8c9d2e381565b60007f01ffc9a7000000000000000000000000000000000000000000000000000000007bffffffffffffffffffffffffffffffffffffffffffffffffffffffff1916827bffffffffffffffffffffffffffffffffffffffffffffffffffffffff1916149050919050565b60007f02dd7bc7dec4dceedda775e58dd541e08a116c6c53815c0bd028192f7b626800905090565b611d9481611d8f612352565b612752565b50565b600080611da2611d5b565b9050611dae84846114c8565b611e8c57600181600001600086815260200190815260200160002060000160008573ffffffffffffffffffffffffffffffffffffffff1673ffffffffffffffffffffffffffffffffffffffff16815260200190815260200160002060006101000a81548160ff021916908315150217905550611e28612352565b73ffffffffffffffffffffffffffffffffffffffff168373ffffffffffffffffffffffffffffffffffffffff16857f2f8788117e7eff1d82e926ec794901d17c78024a50270940304540a733656f0d60405160405180910390a46001915050611e92565b60009150505b92915050565b611f308282604051602401611eae92919061495c565b6040516020818303038152906040527fb60e72cc000000000000000000000000000000000000000000000000000000007bffffffffffffffffffffffffffffffffffffffffffffffffffffffff19166020820180517bffffffffffffffffffffffffffffffffffffffffffffffffffffffff83818316178352505050506127a3565b5050565b611fcc8282604051602401611f4a92919061498c565b6040516020818303038152906040527f319af333000000000000000000000000000000000000000000000000000000007bffffffffffffffffffffffffffffffffffffffffffffffffffffffff19166020820180517bffffffffffffffffffffffffffffffffffffffffffffffffffffffff83818316178352505050506127a3565b5050565b60008061012c905080836101400151611fe991906149bc565b4211158015611ffd57508261014001514210155b61203c576040517f08c379a000000000000000000000000000000000000000000000000000000000815260040161203390614a62565b60405180910390fd5b61204a8361014001516122b9565b60008360e00151846040015185610100015186602001518760a0015188610120015189608001518a610140015160405160200161208e989796959493929190614a82565b60405160208183030381529060405280519060200120905060006120b1826127bd565b905060006120c4828761016001516127f3565b90506121286040518060400160405280600681526020017f7369676e6572000000000000000000000000000000000000000000000000000081525082600760009054906101000a900473ffffffffffffffffffffffffffffffffffffffff1661281f565b600760009054906101000a900473ffffffffffffffffffffffffffffffffffffffff1673ffffffffffffffffffffffffffffffffffffffff168173ffffffffffffffffffffffffffffffffffffffff1614945050505050919050565b61221c828260405160240161219a929190614b00565b6040516020818303038152906040527fc3b55635000000000000000000000000000000000000000000000000000000007bffffffffffffffffffffffffffffffffffffffffffffffffffffffff19166020820180517bffffffffffffffffffffffffffffffffffffffffffffffffffffffff83818316178352505050506127a3565b5050565b6122b681604051602401612234919061361a565b6040516020818303038152906040527f41304fac000000000000000000000000000000000000000000000000000000007bffffffffffffffffffffffffffffffffffffffffffffffffffffffff19166020820180517bffffffffffffffffffffffffffffffffffffffffffffffffffffffff83818316178352505050506127a3565b50565b61234f816040516024016122cd9190614b30565b6040516020818303038152906040527ff82c50f1000000000000000000000000000000000000000000000000000000007bffffffffffffffffffffffffffffffffffffffffffffffffffffffff19166020820180517bffffffffffffffffffffffffffffffffffffffffffffffffffffffff83818316178352505050506127a3565b50565b600033905090565b600080612365611d5b565b905061237184846114c8565b1561245057600081600001600086815260200190815260200160002060000160008573ffffffffffffffffffffffffffffffffffffffff1673ffffffffffffffffffffffffffffffffffffffff16815260200190815260200160002060006101000a81548160ff0219169083151502179055506123ec612352565b73ffffffffffffffffffffffffffffffffffffffff168373ffffffffffffffffffffffffffffffffffffffff16857ff6391f5c32d9c69d2a47ea670b442974b53935d1edc7fd64eb21e047a839171b60405160405180910390a46001915050612456565b60009150505b92915050565b7f000000000000000000000000000000000000000000000000000000000000000073ffffffffffffffffffffffffffffffffffffffff163073ffffffffffffffffffffffffffffffffffffffff16148061250957507f000000000000000000000000000000000000000000000000000000000000000073ffffffffffffffffffffffffffffffffffffffff166124f06128be565b73ffffffffffffffffffffffffffffffffffffffff1614155b15612540576040517fe07c8dba00000000000000000000000000000000000000000000000000000000815260040160405180910390fd5b565b7f189ab7a9244df0848122154315af71fe140f3db0fe014031783b0946b8c9d2e361256c81611d83565b5050565b8173ffffffffffffffffffffffffffffffffffffffff166352d1902d6040518163ffffffff1660e01b8152600401602060405180830381865afa9250505080156125d857506040513d601f19601f820116820180604052508101906125d59190614b60565b60015b61261957816040517f4c9c8ce300000000000000000000000000000000000000000000000000000000815260040161261091906132f0565b60405180910390fd5b7f360894a13ba1a3210667c828492db98dca3e2076cc3735a920a3ca505d382bbc60001b811461268057806040517faa1d49a4000000000000000000000000000000000000000000000000000000008152600401612677919061319e565b60405180910390fd5b61268a8383612915565b505050565b7f000000000000000000000000000000000000000000000000000000000000000073ffffffffffffffffffffffffffffffffffffffff163073ffffffffffffffffffffffffffffffffffffffff1614612714576040517fe07c8dba00000000000000000000000000000000000000000000000000000000815260040160405180910390fd5b565b60007ff0c57e16840df040f15088dc2f81fe391c3923bec73e23a9662efc9c229c6a00905090565b612746612988565b565b612750612988565b565b61275c82826114c8565b61279f5780826040517fe2517d3f000000000000000000000000000000000000000000000000000000008152600401612796929190614b8d565b60405180910390fd5b5050565b6127ba816127b26129c86129e9565b63ffffffff16565b50565b60007f19457468657265756d205369676e6564204d6573736167653a0a33320000000060005281601c52603c6000209050919050565b60008060008061280386866129f4565b9250925092506128138282612a50565b82935050505092915050565b6128b983838360405160240161283793929190614bb6565b6040516020818303038152906040527ffcec75e0000000000000000000000000000000000000000000000000000000007bffffffffffffffffffffffffffffffffffffffffffffffffffffffff19166020820180517bffffffffffffffffffffffffffffffffffffffffffffffffffffffff83818316178352505050506127a3565b505050565b60006128ec7f360894a13ba1a3210667c828492db98dca3e2076cc3735a920a3ca505d382bbc60001b612bb4565b60000160009054906101000a900473ffffffffffffffffffffffffffffffffffffffff16905090565b61291e82612bbe565b8173ffffffffffffffffffffffffffffffffffffffff167fbc7cd75a20ee27fd9adebab32041f755214dbc6bffa90cc0225b39da2e5c2d3b60405160405180910390a260008151111561297b576129758282612c8b565b50612984565b612983612d0f565b5b5050565b612990612d4c565b6129c6576040517fd7e6bcf800000000000000000000000000000000000000000000000000000000815260040160405180910390fd5b565b60006a636f6e736f6c652e6c6f679050600080835160208501845afa505050565b612fab819050919050565b60008060006041845103612a395760008060006020870151925060408701519150606087015160001a9050612a2b88828585612d6c565b955095509550505050612a49565b60006002855160001b9250925092505b9250925092565b60006003811115612a6457612a6361428d565b5b826003811115612a7757612a7661428d565b5b0315612bb05760016003811115612a9157612a9061428d565b5b826003811115612aa457612aa361428d565b5b03612adb576040517ff645eedf00000000000000000000000000000000000000000000000000000000815260040160405180910390fd5b60026003811115612aef57612aee61428d565b5b826003811115612b0257612b0161428d565b5b03612b47578060001c6040517ffce698f7000000000000000000000000000000000000000000000000000000008152600401612b3e9190614b30565b60405180910390fd5b600380811115612b5a57612b5961428d565b5b826003811115612b6d57612b6c61428d565b5b03612baf57806040517fd78bce0c000000000000000000000000000000000000000000000000000000008152600401612ba6919061319e565b60405180910390fd5b5b5050565b6000819050919050565b60008173ffffffffffffffffffffffffffffffffffffffff163b03612c1a57806040517f4c9c8ce3000000000000000000000000000000000000000000000000000000008152600401612c1191906132f0565b60405180910390fd5b80612c477f360894a13ba1a3210667c828492db98dca3e2076cc3735a920a3ca505d382bbc60001b612bb4565b60000160006101000a81548173ffffffffffffffffffffffffffffffffffffffff021916908373ffffffffffffffffffffffffffffffffffffffff16021790555050565b60606000808473ffffffffffffffffffffffffffffffffffffffff1684604051612cb59190614c30565b600060405180830381855af49150503d8060008114612cf0576040519150601f19603f3d011682016040523d82523d6000602084013e612cf5565b606091505b5091509150612d05858383612e60565b9250505092915050565b6000341115612d4a576040517fb398979f00000000000000000000000000000000000000000000000000000000815260040160405180910390fd5b565b6000612d56612716565b60000160089054906101000a900460ff16905090565b60008060007f7fffffffffffffffffffffffffffffff5d576e7357a4501ddfe92f46681b20a08460001c1115612dac576000600385925092509250612e56565b600060018888888860405160008152602001604052604051612dd19493929190614c63565b6020604051602081039080840390855afa158015612df3573d6000803e3d6000fd5b505050602060405103519050600073ffffffffffffffffffffffffffffffffffffffff168173ffffffffffffffffffffffffffffffffffffffff1603612e4757600060016000801b93509350935050612e56565b8060008060001b935093509350505b9450945094915050565b606082612e7557612e7082612eef565b612ee7565b60008251148015612e9d575060008473ffffffffffffffffffffffffffffffffffffffff163b145b15612edf57836040517f9996b315000000000000000000000000000000000000000000000000000000008152600401612ed691906132f0565b60405180910390fd5b819050612ee8565b5b9392505050565b600081511115612f025780518082602001fd5b6040517f1425ea4200000000000000000000000000000000000000000000000000000000815260040160405180910390fd5b828054828255906000526020600020908101928215612f70579160200282015b82811115612f6f578251825591602001919060010190612f54565b5b509050612f7d9190612fb5565b5090565b60405180608001604052806000815260200160008152602001600015158152602001600081525090565b612fb3614ca8565b565b5b80821115612fce576000816000905550600101612fb6565b5090565b6000604051905090565b600080fd5b600080fd5b60007fffffffff0000000000000000000000000000000000000000000000000000000082169050919050565b61301b81612fe6565b811461302657600080fd5b50565b60008135905061303881613012565b92915050565b60006020828403121561305457613053612fdc565b5b600061306284828501613029565b91505092915050565b60008115159050919050565b6130808161306b565b82525050565b600060208201905061309b6000830184613077565b92915050565b600073ffffffffffffffffffffffffffffffffffffffff82169050919050565b60006130cc826130a1565b9050919050565b6130dc816130c1565b81146130e757600080fd5b50565b6000813590506130f9816130d3565b92915050565b60006020828403121561311557613114612fdc565b5b6000613123848285016130ea565b91505092915050565b6000819050919050565b61313f8161312c565b811461314a57600080fd5b50565b60008135905061315c81613136565b92915050565b60006020828403121561317857613177612fdc565b5b60006131868482850161314d565b91505092915050565b6131988161312c565b82525050565b60006020820190506131b3600083018461318f565b92915050565b600080604083850312156131d0576131cf612fdc565b5b60006131de8582860161314d565b92505060206131ef858286016130ea565b9150509250929050565b6000819050919050565b600061321e613219613214846130a1565b6131f9565b6130a1565b9050919050565b600061323082613203565b9050919050565b600061324282613225565b9050919050565b61325281613237565b82525050565b600060208201905061326d6000830184613249565b92915050565b600080fd5b6000610180828403121561328f5761328e613273565b5b81905092915050565b6000602082840312156132ae576132ad612fdc565b5b600082013567ffffffffffffffff8111156132cc576132cb612fe1565b5b6132d884828501613278565b91505092915050565b6132ea816130c1565b82525050565b600060208201905061330560008301846132e1565b92915050565b6000819050919050565b61331e8161330b565b811461332957600080fd5b50565b60008135905061333b81613315565b92915050565b6000806040838503121561335857613357612fdc565b5b60006133668582860161332c565b92505060206133778582860161332c565b9150509250929050565b600061338c82613225565b9050919050565b61339c81613381565b82525050565b60006020820190506133b76000830184613393565b92915050565b600080fd5b600080fd5b6000601f19601f8301169050919050565b7f4e487b7100000000000000000000000000000000000000000000000000000000600052604160045260246000fd5b613410826133c7565b810181811067ffffffffffffffff8211171561342f5761342e6133d8565b5b80604052505050565b6000613442612fd2565b905061344e8282613407565b919050565b600067ffffffffffffffff82111561346e5761346d6133d8565b5b613477826133c7565b9050602081019050919050565b82818337600083830152505050565b60006134a66134a184613453565b613438565b9050828152602081018484840111156134c2576134c16133c2565b5b6134cd848285613484565b509392505050565b600082601f8301126134ea576134e96133bd565b5b81356134fa848260208601613493565b91505092915050565b6000806040838503121561351a57613519612fdc565b5b6000613528858286016130ea565b925050602083013567ffffffffffffffff81111561354957613548612fe1565b5b613555858286016134d5565b9150509250929050565b600061356a82613225565b9050919050565b61357a8161355f565b82525050565b60006020820190506135956000830184613571565b92915050565b600081519050919050565b600082825260208201905092915050565b60005b838110156135d55780820151818401526020810190506135ba565b60008484015250505050565b60006135ec8261359b565b6135f681856135a6565b93506136068185602086016135b7565b61360f816133c7565b840191505092915050565b6000602082019050818103600083015261363481846135e1565b905092915050565b6136458161330b565b82525050565b6000608082019050613660600083018761363c565b61366d602083018661363c565b61367a6040830185613077565b613687606083018461363c565b95945050505050565b6000602082840312156136a6576136a5612fdc565b5b60006136b48482850161332c565b91505092915050565b600081519050919050565b600082825260208201905092915050565b6000819050602082019050919050565b6136f28161330b565b82525050565b600061370483836136e9565b60208301905092915050565b6000602082019050919050565b6000613728826136bd565b61373281856136c8565b935061373d836136d9565b8060005b8381101561376e57815161375588826136f8565b975061376083613710565b925050600181019050613741565b5085935050505092915050565b600061ffff82169050919050565b6137928161377b565b82525050565b6137a1816130c1565b82525050565b600081519050919050565b600082825260208201905092915050565b60006137ce826137a7565b6137d881856137b2565b93506137e88185602086016135b7565b6137f1816133c7565b840191505092915050565b600061018083016000830151848203600086015261381a828261371d565b915050602083015161382f60208601826136e9565b5060408301516138426040860182613789565b506060830151848203606086015261385a828261371d565b915050608083015161386f60808601826136e9565b5060a083015161388260a08601826136e9565b5060c083015161389560c0860182613798565b5060e08301516138a860e08601826136e9565b506101008301516138bd6101008601826136e9565b506101208301516138d26101208601826136e9565b506101408301516138e76101408601826136e9565b5061016083015184820361016086015261390182826137c3565b9150508091505092915050565b600060a082019050613923600083018861363c565b61393060208301876132e1565b61393d604083018661363c565b818103606083015261394f81856137fc565b905061395e6080830184613077565b9695505050505050565b6139718161306b565b82525050565b60808201600082015161398d60008501826136e9565b5060208201516139a060208501826136e9565b5060408201516139b36040850182613968565b5060608201516139c660608501826136e9565b50505050565b60006080820190506139e16000830184613977565b92915050565b60008060008060008060c08789031215613a0457613a03612fdc565b5b6000613a1289828a016130ea565b9650506020613a2389828a016130ea565b9550506040613a3489828a016130ea565b9450506060613a4589828a016130ea565b9350506080613a5689828a016130ea565b92505060a0613a6789828a016130ea565b9150509295509295509295565b6000613a7f82613225565b9050919050565b613a8f81613a74565b82525050565b6000602082019050613aaa6000830184613a86565b92915050565b6000613abb82613203565b9050919050565b6000613acd82613ab0565b9050919050565b613add81613ac2565b82525050565b6000602082019050613af86000830184613ad4565b92915050565b600080fd5b600080fd5b600080fd5b60008083356001602003843603038112613b2a57613b29613afe565b5b80840192508235915067ffffffffffffffff821115613b4c57613b4b613b03565b5b602083019250600182023603831315613b6857613b67613b08565b5b509250929050565b600082825260208201905092915050565b6000613b8d8385613b70565b9350613b9a838584613484565b613ba3836133c7565b840190509392505050565b60006020820190508181036000830152613bc9818486613b81565b90509392505050565b600080fd5b600080fd5b600067ffffffffffffffff821115613bf757613bf66133d8565b5b602082029050602081019050919050565b600080fd5b6000613c20613c1b84613bdc565b613438565b90508083825260208201905060208402830185811115613c4357613c42613c08565b5b835b81811015613c6c5780613c58888261332c565b845260208401935050602081019050613c45565b5050509392505050565b600082601f830112613c8b57613c8a6133bd565b5b8135613c9b848260208601613c0d565b91505092915050565b613cad8161377b565b8114613cb857600080fd5b50565b600081359050613cca81613ca4565b92915050565b60006101808284031215613ce757613ce6613bd2565b5b613cf2610180613438565b9050600082013567ffffffffffffffff811115613d1257613d11613bd7565b5b613d1e84828501613c76565b6000830152506020613d328482850161332c565b6020830152506040613d4684828501613cbb565b604083015250606082013567ffffffffffffffff811115613d6a57613d69613bd7565b5b613d7684828501613c76565b6060830152506080613d8a8482850161332c565b60808301525060a0613d9e8482850161332c565b60a08301525060c0613db2848285016130ea565b60c08301525060e0613dc68482850161332c565b60e083015250610100613ddb8482850161332c565b61010083015250610120613df18482850161332c565b61012083015250610140613e078482850161332c565b6101408301525061016082013567ffffffffffffffff811115613e2d57613e2c613bd7565b5b613e39848285016134d5565b6101608301525092915050565b6000613e523683613cd0565b9050919050565b7f496e76616c6964207369676e6174757265000000000000000000000000000000600082015250565b6000613e8f6011836135a6565b9150613e9a82613e59565b602082019050919050565b60006020820190508181036000830152613ebe81613e82565b9050919050565b6000606082019050613eda60008301866132e1565b613ee760208301856132e1565b613ef4604083018461363c565b949350505050565b613f058161306b565b8114613f1057600080fd5b50565b600081519050613f2281613efc565b92915050565b600060208284031215613f3e57613f3d612fdc565b5b6000613f4c84828501613f13565b91505092915050565b7f546f6b656e207472616e73666572206661696c65640000000000000000000000600082015250565b6000613f8b6015836135a6565b9150613f9682613f55565b602082019050919050565b60006020820190508181036000830152613fba81613f7e565b9050919050565b60008083356001602003843603038112613fde57613fdd613afe565b5b80840192508235915067ffffffffffffffff82111561400057613fff613b03565b5b60208301925060208202360383131561401c5761401b613b08565b5b509250929050565b60006020828403121561403a57614039612fdc565b5b600061404884828501613cbb565b91505092915050565b600082825260208201905092915050565b600080fd5b82818337505050565b600061407c8385614051565b93507f07ffffffffffffffffffffffffffffffffffffffffffffffffffffffffffffff8311156140af576140ae614062565b5b6020830292506140c0838584614067565b82840190509392505050565b6140d58161377b565b82525050565b600060408201905081810360008301526140f6818587614070565b905061410560208301846140cc565b949350505050565b60008151905061411c81613315565b92915050565b600061413561413084613bdc565b613438565b9050808382526020820190506020840283018581111561415857614157613c08565b5b835b81811015614181578061416d888261410d565b84526020840193505060208101905061415a565b5050509392505050565b600082601f8301126141a05761419f6133bd565b5b81516141b0848260208601614122565b91505092915050565b6000602082840312156141cf576141ce612fdc565b5b600082015167ffffffffffffffff8111156141ed576141ec612fe1565b5b6141f98482850161418b565b91505092915050565b6000606082019050614217600083018761363c565b614224602083018661363c565b8181036040830152614237818486614070565b905095945050505050565b6000819050919050565b600063ffffffff82169050919050565b600061427761427261426d84614242565b6131f9565b61424c565b9050919050565b6142878161425c565b82525050565b7f4e487b7100000000000000000000000000000000000000000000000000000000600052602160045260246000fd5b600181106142cd576142cc61428d565b5b50565b60008190506142de826142bc565b919050565b60006142ee826142d0565b9050919050565b6142fe816142e3565b82525050565b6000604082019050614319600083018561427e565b61432660208301846142f5565b9392505050565b60006020828403121561434357614342612fdc565b5b60006143518482850161410d565b91505092915050565b7f4e487b7100000000000000000000000000000000000000000000000000000000600052602260045260246000fd5b600060028204905060018216806143a157607f821691505b6020821081036143b4576143b361435a565b5b50919050565b60008190508160005260206000209050919050565b60006020601f8301049050919050565b600082821b905092915050565b60006008830261441c7fffffffffffffffffffffffffffffffffffffffffffffffffffffffffffffffff826143df565b61442686836143df565b95508019841693508086168417925050509392505050565b600061445961445461444f8461330b565b6131f9565b61330b565b9050919050565b6000819050919050565b6144738361443e565b61448761447f82614460565b8484546143ec565b825550505050565b600090565b61449c61448f565b6144a781848461446a565b505050565b5b818110156144cb576144c0600082614494565b6001810190506144ad565b5050565b601f821115614510576144e1816143ba565b6144ea846143cf565b810160208510156144f9578190505b61450d614505856143cf565b8301826144ac565b50505b505050565b600082821c905092915050565b600061453360001984600802614515565b1980831691505092915050565b600061454c8383614522565b9150826002028217905092915050565b614565826137a7565b67ffffffffffffffff81111561457e5761457d6133d8565b5b6145888254614389565b6145938282856144cf565b600060209050601f8311600181146145c657600084156145b4578287015190505b6145be8582614540565b865550614626565b601f1984166145d4866143ba565b60005b828110156145fc578489015182556001820191506020850194506020810190506145d7565b868310156146195784890151614615601f891682614522565b8355505b6001600288020188555050505b505050505050565b7f4e6f2070656e64696e6720617474656d7074206f7220616c726561647920707260008201527f6f63657373656400000000000000000000000000000000000000000000000000602082015250565b600061468a6027836135a6565b91506146958261462e565b604082019050919050565b600060208201905081810360008301526146b98161467d565b9050919050565b7f4e487b7100000000000000000000000000000000000000000000000000000000600052601260045260246000fd5b7f4e487b7100000000000000000000000000000000000000000000000000000000600052601160045260246000fd5b60006147298261330b565b91506147348361330b565b925082614744576147436146c0565b5b828204905092915050565b600061475a8261330b565b91506147658361330b565b925082614775576147746146c0565b5b828206905092915050565b600081549050919050565b60008190508160005260206000209050919050565b60008160001c9050919050565b6000819050919050565b60006147ca6147c5836147a0565b6147ad565b9050919050565b60006147dd82546147b7565b9050919050565b6000600182019050919050565b60006147fc82614780565b6148068185614051565b93506148118361478b565b8060005b8381101561484957614826826147d1565b61483088826136f8565b975061483b836147e4565b925050600181019050614815565b5085935050505092915050565b600060e08201905061486b600083018a61363c565b6148786020830189613077565b818103604083015261488a81886135e1565b9050614899606083018761363c565b6148a6608083018661363c565b81810360a08301526148b881856147f1565b90506148c760c083018461363c565b98975050505050505050565b60006040820190506148e860008301856132e1565b6148f5602083018461363c565b9392505050565b600067ffffffffffffffff82169050919050565b600061492b61492661492184614242565b6131f9565b6148fc565b9050919050565b61493b81614910565b82525050565b60006020820190506149566000830184614932565b92915050565b6000604082019050818103600083015261497681856135e1565b9050614985602083018461363c565b9392505050565b600060408201905081810360008301526149a681856135e1565b90506149b560208301846132e1565b9392505050565b60006149c78261330b565b91506149d28361330b565b92508282019050808211156149ea576149e96146ef565b5b92915050565b7f54696d657374616d70206973206e6f742077697468696e2074686520616c6c6f60008201527f7765642072616e67652e00000000000000000000000000000000000000000000602082015250565b6000614a4c602a836135a6565b9150614a57826149f0565b604082019050919050565b60006020820190508181036000830152614a7b81614a3f565b9050919050565b600061010082019050614a98600083018b61363c565b614aa5602083018a6140cc565b614ab2604083018961363c565b614abf606083018861363c565b614acc608083018761363c565b614ad960a083018661363c565b614ae660c083018561363c565b614af360e083018461363c565b9998505050505050505050565b60006040820190508181036000830152614b1a81856135e1565b9050614b296020830184613077565b9392505050565b6000602082019050614b45600083018461363c565b92915050565b600081519050614b5a81613136565b92915050565b600060208284031215614b7657614b75612fdc565b5b6000614b8484828501614b4b565b91505092915050565b6000604082019050614ba260008301856132e1565b614baf602083018461318f565b9392505050565b60006060820190508181036000830152614bd081866135e1565b9050614bdf60208301856132e1565b614bec60408301846132e1565b949350505050565b600081905092915050565b6000614c0a826137a7565b614c148185614bf4565b9350614c248185602086016135b7565b80840191505092915050565b6000614c3c8284614bff565b915081905092915050565b600060ff82169050919050565b614c5d81614c47565b82525050565b6000608082019050614c78600083018761318f565b614c856020830186614c54565b614c92604083018561318f565b614c9f606083018461318f565b95945050505050565b7f4e487b7100000000000000000000000000000000000000000000000000000000600052605160045260246000fdfea26469706673582212200bc2e468c75f781df1a7e0e6773c744ce80c0dbab629257372fc176c97031b6464736f6c63430008140033",
  "linkReferences": {},
  "deployedLinkReferences": {}
}