{
  "_format": "hh-sol-artifact-1",
  "contractName": "DungeonAdventure",
  "sourceName": "contracts/DungeonAdventure.sol",
  "abi": [
    {
      "inputs": [],
      "stateMutability": "nonpayable",
      "type": "constructor"
    },
    {
      "inputs": [
        {
          "internalType": "address",
          "name": "target",
          "type": "address"
        }
      ],
      "name": "AddressEmptyCode",
      "type": "error"
    },
    {
      "inputs": [],
      "name": "ECDSAInvalidSignature",
      "type": "error"
    },
    {
      "inputs": [
        {
          "internalType": "uint256",
          "name": "length",
          "type": "uint256"
        }
      ],
      "name": "ECDSAInvalidSignatureLength",
      "type": "error"
    },
    {
      "inputs": [
        {
          "internalType": "bytes32",
          "name": "s",
          "type": "bytes32"
        }
      ],
      "name": "ECDSAInvalidSignatureS",
      "type": "error"
    },
    {
      "inputs": [
        {
          "internalType": "address",
          "name": "implementation",
          "type": "address"
        }
      ],
      "name": "ERC1967InvalidImplementation",
      "type": "error"
    },
    {
      "inputs": [],
      "name": "ERC1967NonPayable",
      "type": "error"
    },
    {
      "inputs": [],
      "name": "FailedInnerCall",
      "type": "error"
    },
    {
      "inputs": [],
      "name": "InvalidInitialization",
      "type": "error"
    },
    {
      "inputs": [],
      "name": "NotInitializing",
      "type": "error"
    },
    {
      "inputs": [
        {
          "internalType": "address",
          "name": "owner",
          "type": "address"
        }
      ],
      "name": "OwnableInvalidOwner",
      "type": "error"
    },
    {
      "inputs": [
        {
          "internalType": "address",
          "name": "account",
          "type": "address"
        }
      ],
      "name": "OwnableUnauthorizedAccount",
      "type": "error"
    },
    {
      "inputs": [],
      "name": "UUPSUnauthorizedCallContext",
      "type": "error"
    },
    {
      "inputs": [
        {
          "internalType": "bytes32",
          "name": "slot",
          "type": "bytes32"
        }
      ],
      "name": "UUPSUnsupportedProxiableUUID",
      "type": "error"
    },
    {
      "anonymous": false,
      "inputs": [
        {
          "indexed": true,
          "internalType": "address",
          "name": "player",
          "type": "address"
        },
        {
          "indexed": false,
          "internalType": "uint256",
          "name": "characterId",
          "type": "uint256"
        },
        {
          "indexed": false,
          "internalType": "bool",
          "name": "success",
          "type": "bool"
        },
        {
          "indexed": false,
          "internalType": "string",
          "name": "message",
          "type": "string"
        },
        {
          "indexed": false,
          "internalType": "uint256",
          "name": "winChance",
          "type": "uint256"
        },
        {
          "indexed": false,
          "internalType": "uint256",
          "name": "randomValue",
          "type": "uint256"
        },
        {
          "indexed": false,
          "internalType": "uint256[]",
          "name": "burnedItems",
          "type": "uint256[]"
        },
        {
          "indexed": false,
          "internalType": "uint256",
          "name": "itemPower",
          "type": "uint256"
        },
        {
          "indexed": false,
          "internalType": "uint256",
          "name": "randomNormalized",
          "type": "uint256"
        },
        {
          "indexed": false,
          "internalType": "uint256",
          "name": "characterCreationDate",
          "type": "uint256"
        },
        {
          "indexed": false,
          "internalType": "uint256",
          "name": "lootReward",
          "type": "uint256"
        },
        {
          "indexed": false,
          "internalType": "uint256",
          "name": "dungeonTimestamp",
          "type": "uint256"
        },
        {
          "indexed": false,
          "internalType": "string",
          "name": "name",
          "type": "string"
        },
        {
          "indexed": false,
          "internalType": "string",
          "name": "imageURI",
          "type": "string"
        },
        {
          "indexed": false,
          "internalType": "uint256",
          "name": "experience",
          "type": "uint256"
        },
        {
          "indexed": false,
          "internalType": "uint256[]",
          "name": "openSlots",
          "type": "uint256[]"
        }
      ],
      "name": "DungeonResult",
      "type": "event"
    },
    {
      "anonymous": false,
      "inputs": [
        {
          "indexed": false,
          "internalType": "uint64",
          "name": "version",
          "type": "uint64"
        }
      ],
      "name": "Initialized",
      "type": "event"
    },
    {
      "anonymous": false,
      "inputs": [
        {
          "indexed": true,
          "internalType": "address",
          "name": "previousOwner",
          "type": "address"
        },
        {
          "indexed": true,
          "internalType": "address",
          "name": "newOwner",
          "type": "address"
        }
      ],
      "name": "OwnershipTransferred",
      "type": "event"
    },
    {
      "anonymous": false,
      "inputs": [
        {
          "indexed": false,
          "internalType": "bytes",
          "name": "signature",
          "type": "bytes"
        }
      ],
      "name": "SignatureReceived",
      "type": "event"
    },
    {
      "anonymous": false,
      "inputs": [
        {
          "indexed": true,
          "internalType": "address",
          "name": "implementation",
          "type": "address"
        }
      ],
      "name": "Upgraded",
      "type": "event"
    },
    {
      "inputs": [],
      "name": "UPGRADE_INTERFACE_VERSION",
      "outputs": [
        {
          "internalType": "string",
          "name": "",
          "type": "string"
        }
      ],
      "stateMutability": "view",
      "type": "function"
    },
    {
      "inputs": [
        {
          "internalType": "uint256",
          "name": "",
          "type": "uint256"
        }
      ],
      "name": "attemptDetails",
      "outputs": [
        {
          "internalType": "uint256",
          "name": "timestamp",
          "type": "uint256"
        },
        {
          "internalType": "address",
          "name": "player",
          "type": "address"
        },
        {
          "internalType": "uint256",
          "name": "requestId",
          "type": "uint256"
        },
        {
          "components": [
            {
              "internalType": "uint256[]",
              "name": "itemIds",
              "type": "uint256[]"
            },
            {
              "internalType": "uint256",
              "name": "experienceToAdd",
              "type": "uint256"
            },
            {
              "internalType": "uint16",
              "name": "durabilityToDeduct",
              "type": "uint16"
            },
            {
              "internalType": "uint256[]",
              "name": "slotToAdd",
              "type": "uint256[]"
            },
            {
              "internalType": "uint256",
              "name": "winPercentage",
              "type": "uint256"
            },
            {
              "internalType": "uint256",
              "name": "itemPower",
              "type": "uint256"
            },
            {
              "internalType": "address",
              "name": "walletId",
              "type": "address"
            },
            {
              "internalType": "uint256",
              "name": "characterId",
              "type": "uint256"
            },
            {
              "internalType": "uint256",
              "name": "entryFee",
              "type": "uint256"
            },
            {
              "internalType": "uint256",
              "name": "lootReward",
              "type": "uint256"
            },
            {
              "internalType": "uint256",
              "name": "timestamp",
              "type": "uint256"
            },
            {
              "internalType": "bytes",
              "name": "signature",
              "type": "bytes"
            },
            {
              "internalType": "uint8",
              "name": "starRating",
              "type": "uint8"
            }
          ],
          "internalType": "struct DungeonAdventure.DungeonParams",
          "name": "params",
          "type": "tuple"
        },
        {
          "internalType": "bool",
          "name": "pending",
          "type": "bool"
        }
      ],
      "stateMutability": "view",
      "type": "function"
    },
    {
      "inputs": [],
      "name": "characterContract",
      "outputs": [
        {
          "internalType": "contract CreateCharacter",
          "name": "",
          "type": "address"
        }
      ],
      "stateMutability": "view",
      "type": "function"
    },
    {
      "inputs": [],
      "name": "gameTreasury",
      "outputs": [
        {
          "internalType": "contract GameTreasury",
          "name": "",
          "type": "address"
        }
      ],
      "stateMutability": "view",
      "type": "function"
    },
    {
      "inputs": [
        {
          "internalType": "uint256",
          "name": "characterId",
          "type": "uint256"
        }
      ],
      "name": "getCharacterEnergy",
      "outputs": [
        {
          "internalType": "uint256",
          "name": "possibleEntries",
          "type": "uint256"
        }
      ],
      "stateMutability": "view",
      "type": "function"
    },
    {
      "inputs": [
        {
          "internalType": "uint256",
          "name": "characterId",
          "type": "uint256"
        }
      ],
      "name": "getLastEnergyUpdateTime",
      "outputs": [
        {
          "internalType": "uint256",
          "name": "",
          "type": "uint256"
        }
      ],
      "stateMutability": "view",
      "type": "function"
    },
    {
      "inputs": [
        {
          "components": [
            {
              "internalType": "uint256[]",
              "name": "itemIds",
              "type": "uint256[]"
            },
            {
              "internalType": "uint256",
              "name": "experienceToAdd",
              "type": "uint256"
            },
            {
              "internalType": "uint16",
              "name": "durabilityToDeduct",
              "type": "uint16"
            },
            {
              "internalType": "uint256[]",
              "name": "slotToAdd",
              "type": "uint256[]"
            },
            {
              "internalType": "uint256",
              "name": "winPercentage",
              "type": "uint256"
            },
            {
              "internalType": "uint256",
              "name": "itemPower",
              "type": "uint256"
            },
            {
              "internalType": "address",
              "name": "walletId",
              "type": "address"
            },
            {
              "internalType": "uint256",
              "name": "characterId",
              "type": "uint256"
            },
            {
              "internalType": "uint256",
              "name": "entryFee",
              "type": "uint256"
            },
            {
              "internalType": "uint256",
              "name": "lootReward",
              "type": "uint256"
            },
            {
              "internalType": "uint256",
              "name": "timestamp",
              "type": "uint256"
            },
            {
              "internalType": "bytes",
              "name": "signature",
              "type": "bytes"
            },
            {
              "internalType": "uint8",
              "name": "starRating",
              "type": "uint8"
            }
          ],
          "internalType": "struct DungeonAdventure.DungeonParams",
          "name": "params",
          "type": "tuple"
        }
      ],
      "name": "goDungeon",
      "outputs": [],
      "stateMutability": "nonpayable",
      "type": "function"
    },
    {
      "inputs": [
        {
          "internalType": "address",
          "name": "initialOwner",
          "type": "address"
        },
        {
          "internalType": "address",
          "name": "_itemContractAddress",
          "type": "address"
        },
        {
          "internalType": "address",
          "name": "_characterContractAddress",
          "type": "address"
        },
        {
          "internalType": "address",
          "name": "_randomnessProvider",
          "type": "address"
        },
        {
          "internalType": "address",
          "name": "_gameTreasuryAddress",
          "type": "address"
        },
        {
          "internalType": "address",
          "name": "_knownServerAddress",
          "type": "address"
        },
        {
          "internalType": "address",
          "name": "_paymentToken",
          "type": "address"
        },
        {
          "internalType": "address",
          "name": "_tournamentContract",
          "type": "address"
        }
      ],
      "name": "initialize",
      "outputs": [],
      "stateMutability": "nonpayable",
      "type": "function"
    },
    {
      "inputs": [],
      "name": "itemContract",
      "outputs": [
        {
          "internalType": "contract MintItem",
          "name": "",
          "type": "address"
        }
      ],
      "stateMutability": "view",
      "type": "function"
    },
    {
      "inputs": [],
      "name": "knownServerAddress",
      "outputs": [
        {
          "internalType": "address",
          "name": "",
          "type": "address"
        }
      ],
      "stateMutability": "view",
      "type": "function"
    },
    {
      "inputs": [],
      "name": "owner",
      "outputs": [
        {
          "internalType": "address",
          "name": "",
          "type": "address"
        }
      ],
      "stateMutability": "view",
      "type": "function"
    },
    {
      "inputs": [],
      "name": "paymentToken",
      "outputs": [
        {
          "internalType": "contract IERC20",
          "name": "",
          "type": "address"
        }
      ],
      "stateMutability": "view",
      "type": "function"
    },
    {
      "inputs": [
        {
          "internalType": "uint256",
          "name": "requestId",
          "type": "uint256"
        },
        {
          "internalType": "uint256",
          "name": "randomValue",
          "type": "uint256"
        }
      ],
      "name": "processDungeonAttempt",
      "outputs": [],
      "stateMutability": "nonpayable",
      "type": "function"
    },
    {
      "inputs": [],
      "name": "proxiableUUID",
      "outputs": [
        {
          "internalType": "bytes32",
          "name": "",
          "type": "bytes32"
        }
      ],
      "stateMutability": "view",
      "type": "function"
    },
    {
      "inputs": [],
      "name": "randomnessProvider",
      "outputs": [
        {
          "internalType": "contract RandomnessProvider",
          "name": "",
          "type": "address"
        }
      ],
      "stateMutability": "view",
      "type": "function"
    },
    {
      "inputs": [],
      "name": "renounceOwnership",
      "outputs": [],
      "stateMutability": "nonpayable",
      "type": "function"
    },
    {
      "inputs": [
        {
          "internalType": "address",
          "name": "_newCreateCharacterAddress",
          "type": "address"
        }
      ],
      "name": "setCharacterContractAddress",
      "outputs": [],
      "stateMutability": "nonpayable",
      "type": "function"
    },
    {
      "inputs": [
        {
          "internalType": "address",
          "name": "_gameTreasuryAddress",
          "type": "address"
        }
      ],
      "name": "setGameTreasuryAddress",
      "outputs": [],
      "stateMutability": "nonpayable",
      "type": "function"
    },
    {
      "inputs": [
        {
          "internalType": "address",
          "name": "_knownServerAddress",
          "type": "address"
        }
      ],
      "name": "setKnownServerAddress",
      "outputs": [],
      "stateMutability": "nonpayable",
      "type": "function"
    },
    {
      "inputs": [
        {
          "internalType": "address",
          "name": "_newItemContractAddress",
          "type": "address"
        }
      ],
      "name": "setMintItemContractAddress",
      "outputs": [],
      "stateMutability": "nonpayable",
      "type": "function"
    },
    {
      "inputs": [
        {
          "internalType": "address",
          "name": "_tokenAddress",
          "type": "address"
        }
      ],
      "name": "setPaymentToken",
      "outputs": [],
      "stateMutability": "nonpayable",
      "type": "function"
    },
    {
      "inputs": [
        {
          "internalType": "address",
          "name": "_randomnessProvider",
          "type": "address"
        }
      ],
      "name": "setRandomnessProvider",
      "outputs": [],
      "stateMutability": "nonpayable",
      "type": "function"
    },
    {
      "inputs": [],
      "name": "tournamentContract",
      "outputs": [
        {
          "internalType": "contract TournamentContract",
          "name": "",
          "type": "address"
        }
      ],
      "stateMutability": "view",
      "type": "function"
    },
    {
      "inputs": [
        {
          "internalType": "address",
          "name": "newOwner",
          "type": "address"
        }
      ],
      "name": "transferOwnership",
      "outputs": [],
      "stateMutability": "nonpayable",
      "type": "function"
    },
    {
      "inputs": [
        {
          "internalType": "address",
          "name": "newImplementation",
          "type": "address"
        },
        {
          "internalType": "bytes",
          "name": "data",
          "type": "bytes"
        }
      ],
      "name": "upgradeToAndCall",
      "outputs": [],
      "stateMutability": "payable",
      "type": "function"
    }
  ],
  "bytecode": "0x60a080604052346100cd57306080527ff0c57e16840df040f15088dc2f81fe391c3923bec73e23a9662efc9c229c6a009081549060ff8260401c166100be57506001600160401b036002600160401b031982821601610079575b604051612dff9081620000d38239608051818181611e310152611ed90152f35b6001600160401b031990911681179091556040519081527fc7f505b2f371ae2175ee4913f4499e1f2633a7b5936321eed1cdaeb6115181d290602090a1388080610059565b63f92ee8a960e01b8152600490fd5b600080fdfe6080604052600436101561001257600080fd5b6000803560e01c8063162f8e4e1461258e5780633013ce291461256557806336b426df1461253c57806337c61ee8146120e457806343b60f74146120bb5780634f1ef28614611e9b57806352d1902d14611e1e5780636a326ab114611dde578063710e054e14611db7578063715018a614611d4c5780637ec80d1614611af257806383499df614611ab25780638a29e2de146118ca5780638d76f940146118a35780638da5cb5b1461186d578063a1365bf11461182d578063a6920bfc14610524578063ad3cb1cc146104da578063b15fbc141461049a578063c1e0bdf51461021a578063ce9bf5ac146101f1578063d2f9efab146101c8578063dad37ee914610188578063f2fde38b1461015b5763fbeb89dd1461013057600080fd5b346101585780600319360112610158576003546040516001600160a01b039091168152602090f35b80fd5b5034610158576020366003190112610158576101856101786125ce565b6101806127b8565b6127f1565b80f35b5034610158576020366003190112610158576101a26125ce565b6101aa6127b8565b60018060a01b03166001600160601b0360a01b600854161760085580f35b50346101585780600319360112610158576006546040516001600160a01b039091168152602090f35b50346101585780600319360112610158576002546040516001600160a01b039091168152602090f35b50346101585760203660031901126101585760043581526004602052604081209081549060018060a01b03600184015416926002810154906040519261025f846125f7565b61026b600383016126f9565b84526004820154602085015261ffff6005830154166040850152610291600683016126f9565b606085015260078201546080850152600882015460a085015260098201546001600160a01b031660c0850152600a82015460e0850152600b820154610100850152600c820154610120850152600d820154610140850152604051600e830180549192919082906103008361274a565b808652926001811690811561046f5750600114610432575b505050918161032d60119360ff95038261262e565b61016086015282600f820154166101808601520154169060405194859485526020850152604084015260a0606084015260ff61018061041d6103af61038086516101a060a08a0152610240890190612784565b602087015160c0890152604087015161ffff1660e08901526060870151888203609f19016101008a0152612784565b608086015161012088015260a086015161014088015260018060a01b0360c08701511661016088015260e0860151838801526101008601516101a08801526101208601516101c08801526101408601516101e0880152610160860151609f19888303016102008901526126d4565b93015116610220840152151560808301520390f35b9080935052602082205b81831061045557505081016020018161032d6011610318565b60018160209294939454838588010152019101919061043c565b60ff191660208088019190915293151560051b8601909301935084925061032d915060119050610318565b5034610158576020366003190112610158576104b46125ce565b6104bc6127b8565b60018060a01b03166001600160601b0360a01b600254161760025580f35b50346101585780600319360112610158576105206040516104fa81612613565b60058152640352e302e360dc1b60208201526040519182916020835260208301906126d4565b0390f35b5034610158576003196020368201126111d9576001600160401b03600435116111d9576101a09060043536030112610158576001546040516331a9108f60e11b81526004803560e401359082015290602090829060249082906001600160a01b03165afa9081156111dd5782916117eb575b50336001600160a01b0390911603611794578060043560e40135807a184f03e93ff9f4daa797ed6e38ed64bf6a1f0100000000000000008082101561177f575b50600a906d04ee2d6d415b85acef810000000080821015611772575b50662386f26fc1000080821015611765575b506305f5e10080821015611758575b506127108082101561174b575b50606481101561173d575b1015611732575b600a602160018401936106448561264f565b94610652604051968761262e565b808652610661601f199161264f565b013660208701378401015b60001901916f181899199a1a9b1b9c1cb0b131b232b360811b8282061a835304801561069b57600a909161066c565b505081546001600160a01b0316825b6106b860048035018061292e565b9050811015610835576106cf60048035018061292e565b8210156108215760405190632ef8e38160e11b82528260051b013560048201528481602481865afa9081156108165785916107d1575b506040516107306020828161072381830196878151938492016126b1565b810103808452018261262e565b519020604051602081019061075060208288516107238187858d016126b1565b519020036107665761076190612909565b6106aa565b60405162461bcd60e51b815260206004820152603a60248201527f4f6e65206f72206d6f7265206974656d7320617265206e6f74206f776e65642060448201527f62792074686520737065636966696564206368617261637465720000000000006064820152608490fd5b90503d8086833e6107e2818361262e565b81016020828203126108125781516001600160401b03811161080e576108089201612963565b38610705565b8680fd5b8580fd5b6040513d87823e3d90fd5b634e487b7160e01b85526032600452602485fd5b60043560e401358452600560205260408420844261545f1981011161171e574261a8bf1981011161171e574261fd1f1981011161171e57426201517f1981011161171e57805b82548082101561094b5761088f8285612d40565b90546201517f1942019160031b1c1060001461093c576000198101908111610928576108be6108e89185612d40565b90549060031b1c6108cf8386612d40565b90919082549060031b91821b91600019901b1916179055565b8254801561091457600019016108fe8185612d40565b8154906000199060031b1b19169055835561087b565b634e487b7160e01b83526031600452602483fd5b634e487b7160e01b83526011600452602483fd5b5061094690612909565b61087b565b835483908590828080805b8481106116835750859260048510156115715750505050600191825b61151f575b5050156114b45761098d36600435600401612a1d565b61014081015161012c810181116109285761012c01421115806114a5575b1561144d5760e081015161ffff604083015116610100830151602084015160a0850151610120860151906080870151926101408801519460ff6101808a015116966040519860208a015260408901526060880152608087015260a086015260c085015260e08401526101008301526101208201526101208152806101408101106001600160401b03610140830111176110ff57610a949181610140610a8b9301604052602081519101207f19457468657265756d205369676e6564204d6573736167653a0a3332000000008552601c52610160603c852091015190612be2565b90929192612cae565b6008546001600160a01b03908116911603611414576007546006546001600160a01b0391821691166101046004350135605f8082028290041490151715610928576040516323b872dd60e01b8152336004808301919091526001600160a01b039092166024820152606491356101040135605f02829004604482015291602091839190829086908290810103925af19081156111dd5782916113f5575b50156113a1576007546003546001600160a01b039182169116610104600435013560058082028290041490151715610928576040516323b872dd60e01b8152336004808301919091526001600160a01b039092166024820152606491356101040135600502829004604482015291602091839190829086908290810103925af19081156111dd578291611372575b50156113185780546001600160a01b031681610bdf60048035018061292e565b9092604460043501359361ffff851685036111e85783610c229361ffff9660405197889687958694633604c9fb60e01b8652604060048701526044860191612b99565b9116602483015203925af19081156111dd5782916112d7575b5060015460405163d070aebb60e01b81526004803560e401359082015283916001600160a01b031690602081602481855afa90811561114c5783916112a2575b506101846004350190600160ff610c9184612bbd565b16149182611295575b821561126c575b8215611243575b821561121a575b82156111ec575b5050611157575b50600254604051633a9098d160e01b815260016004820152602481018390529160209183916044918391906001600160a01b03165af190811561114c578391611115575b50604051918260c08101106001600160401b0360c0850111176110ff5760c08301604052428352336020840152816040840152610d4336600435600401612a1d565b60608401526080830152600160a08301528252600460205260408220815181556001810160018060a01b036020840151166001600160601b0360a01b8254161790556040820151600282015560608201519081518051906001600160401b03821161108957600160401b82116110895760209060038401548360038601558084106110e2575b500160038301865260208620865b8381106110ce5750505050602082015160048201556005810161ffff60408401511661ffff1982541617905560608201518051906001600160401b03821161108957600160401b82116110895760209060068401548360068601558084106110b1575b500160068301865260208620865b83811061109d57505050506080820151600782015560a082015160088201556009810160018060a01b0360c0840151166001600160601b0360a01b82541617905560e0820151600a820155610100820151600b820155610120820151600c820155610140820151600d8201556101608201518051906001600160401b038211611089578190610eda600e85015461274a565b601f811161104b575b50602090601f8311600114610fdc578792610fd1575b50508160011b916000199060031b1c191617600e8201555b60ff610180600f8301930151169160ff199283825416179055601081016080840151908151916001600160401b038311610fbd57600160401b8311610fbd576020908254848455808510610fa3575b500190865260208620865b838110610f8f575050505060a0601160ff9201930151151591835416911617905580f35b600190602084519401938184015501610f6b565b838952828920610fb7918101908601612bcb565b88610f60565b634e487b7160e01b87526041600452602487fd5b015190508680610ef9565b9250600e84018752602087209087935b601f1984168510611030576001945083601f19811610611017575b505050811b01600e820155610f11565b015160001960f88460031b161c19169055868080611007565b81810151835560209485019460019093019290910190610fec565b61107990600e8601895260208920601f850160051c8101916020861061107f575b601f0160051c0190612bcb565b87610ee3565b909150819061106c565b634e487b7160e01b86526041600452602486fd5b600190602084519401938184015501610e48565b6006850188528288206110c8918101908501612bcb565b87610e3a565b600190602084519401938184015501610dd7565b6003850188528288206110f9918101908501612bcb565b87610dc9565b634e487b7160e01b600052604160045260246000fd5b90506020813d602011611144575b816111306020938361262e565b8101031261113f575183610d01565b600080fd5b3d9150611123565b6040513d85823e3d90fd5b61116b60646004350160043560040161292e565b90823b156111e8576111b692849283604051809681958294632f56d04b60e01b845260e460043501356004850152602460043501356024850152606060448501526064840191612b99565b03925af180156111dd5715610cbd576111ce906125e4565b6111d9578183610cbd565b5080fd5b6040513d84823e3d90fd5b8380fd5b60049192506111fc60ff91612bbd565b1614908161120d575b508580610cb6565b6109389150111585611205565b9150600460ff61122984612bbd565b161480611237575b91610caf565b506107a8811115611231565b9150600360ff61125284612bbd565b161480611260575b91610ca8565b5061061881111561125a565b9150600260ff61127b84612bbd565b161480611289575b91610ca1565b50610488811115611283565b6102f88211159250610c9a565b9250506020823d6020116112cf575b816112be6020938361262e565b8101031261113f5783915185610c7b565b3d91506112b1565b90503d8083833e6112e8818361262e565b81016020828203126113145781516001600160401b0381116111e85761130e9201612b3b565b82610c3b565b8280fd5b60405162461bcd60e51b815260206004820152602c60248201527f546f6b656e207472616e7366657220746f20746f75726e616d656e7420636f6e60448201526b1d1c9858dd0819985a5b195960a21b6064820152608490fd5b611394915060203d60201161139a575b61138c818361262e565b810190612b23565b82610bbf565b503d611382565b60405162461bcd60e51b815260206004820152602660248201527f546f6b656e207472616e7366657220746f2067616d652074726561737572792060448201526519985a5b195960d21b6064820152608490fd5b61140e915060203d60201161139a5761138c818361262e565b82610b31565b60405162461bcd60e51b8152602060048201526011602482015270496e76616c6964207369676e617475726560781b6044820152606490fd5b60405162461bcd60e51b815260206004820152602a60248201527f54696d657374616d70206973206e6f742077697468696e2074686520616c6c6f6044820152693bb2b2103930b733b29760b11b6064820152608490fd5b506101408101514210156109ab565b60405162461bcd60e51b815260206004820152603b60248201527f43686172616374657220646f6573206e6f74206861766520656e6f756768206560448201527f6e6572677920746f20656e746572207468652064756e67656f6e2e00000000006064820152608490fd5b600160401b82101561155d578161153e91600161155694018155612d40565b429082549060031b91821b91600019901b1916179055565b8280610977565b634e487b7160e01b84526041600452602484fd5b1580611648575b156115895750505060019182610972565b600110158061160d575b156115a357505060019182610972565b6002909391931115806115c5575b6115bc575b82610972565b600192506115b6565b50816000198101116115f95761fd206115f26115e5600019850184612d40565b90549060031b1c42612d33565b10156115b1565b634e487b7160e01b84526011600452602484fd5b50826000198101116116345761a8c061162d6115e5600019860187612d40565b1015611593565b634e487b7160e01b85526011600452602485fd5b508360001981011161166f576154606116686115e5600019870188612d40565b1015611578565b634e487b7160e01b86526011600452602486fd5b61168d8187612d40565b90549060039161fd1f19420191831b1c10156116b3575b506116ae90612909565b610956565b926116bd90612909565b926116c88288612d40565b90544261a8bf190191831b1c106116a457916116e390612909565b916116ee8288612d40565b61545f9291921942019254911b1c1015611709575b876116a4565b926117166116ae91612909565b939050611703565b634e487b7160e01b81526011600452602490fd5b600190910190610632565b60646002910493019261062b565b6004910493019238610620565b6008910493019238610613565b6010910493019238610604565b60209104930192386105f2565b6040935060043560e40135049050600a6105d6565b60405162461bcd60e51b815260206004820152602960248201527f43616c6c6572206973206e6f7420746865206f776e6572206f662074686520636044820152683430b930b1ba32b91760b91b6064820152608490fd5b90506020813d602011611825575b816118066020938361262e565b810103126111d957516001600160a01b03811681036111d95738610596565b3d91506117f9565b5034610158576020366003190112610158576118476125ce565b61184f6127b8565b60018060a01b03166001600160601b0360a01b600654161760065580f35b5034610158578060031936011261015857600080516020612daa833981519152546040516001600160a01b039091168152602090f35b5034610158578060031936011261015857546040516001600160a01b039091168152602090f35b503461015857610100366003190112610158576118e56125ce565b6024356001600160a01b03818116929183900361113f576044359281841680940361113f5760643582811680910361113f5760843583811680910361113f5760a4359084821680920361113f5760c4359285841680940361113f5760e43595861680960361113f577ff0c57e16840df040f15088dc2f81fe391c3923bec73e23a9662efc9c229c6a0097885460ff8160401c1615986001600160401b03821680159081611aaa575b6001149081611aa0575b159081611a97575b50611a855767ffffffffffffffff1982166001178b556119d0918a611a66575b506119c86128c8565b6101806128c8565b6119d86128c8565b6001600160601b0360a01b95868b5416178a558560015416176001558460025416176002558360065416176006558260085416176008558160075416176007556003541617600355611a28575080f35b68ff00000000000000001981541690557fc7f505b2f371ae2175ee4913f4499e1f2633a7b5936321eed1cdaeb6115181d2602060405160018152a180f35b68ffffffffffffffffff191668010000000000000001178b55386119bf565b60405163f92ee8a960e01b8152600490fd5b9050153861199f565b303b159150611997565b8b915061198d565b503461015857602036600319011261015857611acc6125ce565b611ad46127b8565b60018060a01b03166001600160601b0360a01b600154161760015580f35b50346101585760203660031901126101585760043581526005602052604081209061a8bf194201428111611d385761fd1f19420190428211610928576201517f194201914283116115f9578392849585869487948354955b868110611c8057898060048b108a8e8d83611c6b575b50615460611b6e8342612d33565b1015611c52575b61a8c0611b828342612d33565b101580611c48575b611c2f575b61fd20611b9c8342612d33565b10159081611c24575b50611bf9575b611bb9620151809142612d33565b10159081611bf1575b50611bd3575b602082604051908152f35b506004811115611be7576020905b90611bc8565b5060206004611be1565b905083611bc2565b926003811115611c1557611bb962015180915b94915050611bab565b5062015180611bb96003611c0c565b600391501085611ba5565b936002811115611c40575b93611b8f565b506002611c3a565b5060028110611b8a565b936001811115611c63575b93611b75565b506001611c5d565b909450600403600481116115f9579385611b60565b85611c8b8287612d40565b919054600392831b1c1015611caa575b50611ca590612909565b611b4a565b98611cb490612909565b9882611cc08388612d40565b905490831b1c1015611d28575b83611cd88388612d40565b905490831b1c1015611d18575b88611cf08388612d40565b905490831b1c1115611c9b57819850611d0c611ca59287612d40565b9054911b1c9790611c9b565b93611d2290612909565b93611ce5565b9a611d3290612909565b9a611ccd565b634e487b7160e01b82526011600452602482fd5b5034610158578060031936011261015857611d656127b8565b600080516020612daa83398151915280546001600160a01b031981169091556000906001600160a01b03167f8be0079c531659141344cd1fd0a4f28419497f9722a3daafe3b4186f6b6457e08280a380f35b5034610158576020366003190112610158576020611dd6600435612d6e565b604051908152f35b503461015857602036600319011261015857611df86125ce565b611e006127b8565b60018060a01b03166001600160601b0360a01b600754161760075580f35b50346101585780600319360112610158577f00000000000000000000000000000000000000000000000000000000000000006001600160a01b03163003611e895760206040517f360894a13ba1a3210667c828492db98dca3e2076cc3735a920a3ca505d382bbc8152f35b60405163703e46dd60e11b8152600490fd5b50604036600319011261015857611eb06125ce565b6024356001600160401b03811161131457611ecf90369060040161266a565b6001600160a01b037f0000000000000000000000000000000000000000000000000000000000000000811630811490811561208d575b50611e8957611f126127b8565b6040516352d1902d60e01b8152908316926020918281600481885afa86918161205e575b50611f5457604051634c9c8ce360e01b815260048101869052602490fd5b9385947f360894a13ba1a3210667c828492db98dca3e2076cc3735a920a3ca505d382bbc908181036120465750823b1561202d5780546001600160a01b0319168217905560405185917fbc7cd75a20ee27fd9adebab32041f755214dbc6bffa90cc0225b39da2e5c2d3b8380a2845115612010575080848461200396519101845af4903d15612007573d611fe78161264f565b90611ff5604051928361262e565b81528581943d92013e612865565b5080f35b60609250612865565b93505050503461201e575080f35b63b398979f60e01b8152600490fd5b604051634c9c8ce360e01b815260048101839052602490fd5b60249060405190632a87526960e21b82526004820152fd5b9091508381813d8311612086575b612076818361262e565b8101031261080e57519038611f36565b503d61206c565b9050817f360894a13ba1a3210667c828492db98dca3e2076cc3735a920a3ca505d382bbc5416141538611f05565b50346101585780600319360112610158576001546040516001600160a01b039091168152602090f35b5034610158576040366003190112610158576002546001600160a01b031633036124e1576004358152600460205260408120601181019060ff8254161561248c5760078101908154908161271060243506106000146124505760405161214981612613565b601781527f5375636365737321204c6f6f742041637175697265642e0000000000000000006020820152905b8261271060243506106123d9575b600154600a820154604051630f0bb11360e21b815260048101829052939290918890859060249082906001600160a01b03165afa9182156123ce57889089938a958b978c9261231d575b50601060018060a01b036009870154169a5495612217600882015493600c8301549660206040519e8f928352612710602435061091015260408d6101e091829101528d01906126d4565b9660608c015260243560808c01528a870360a08c01520194602086549182815201958d5260208d20908d5b8181106123075750505060c08901526127106024350660e0890152610100880152610120870152426101408701528582036101608701526122969291612287916126d4565b908582036101808701526126d4565b906101a08401528281036101c084015260208083519283815201920190865b8181106122f15750505090807f6db701ad6a2d0f44769d0a7246e081a8b527d50e5a18504a3613f2f0b6c33bdc920390a2805460ff1916905580f35b82518452602093840193909201916001016122b5565b8254885260209097019660019283019201612242565b96509450509450503d918289853e612335838561262e565b60a08484810103126123ca5783516001600160401b0381116123c65761236090848601908601612963565b9460208501516001600160401b0381116123c25761238390858701908701612963565b916040860151946060870151906001600160401b0382116123be576080916123af918901908901612b3b565b960151969294959690386121cd565b8c80fd5b8a80fd5b8980fd5b8880fd5b6040513d8a823e3d90fd5b6006546001820154600c8301546001600160a01b0392831692899216833b156113145760449083604051958694859363bec3fa1760e01b8552600485015260248401525af180156124455761242f575b50612183565b9561243d60249392976125e4565b959091612429565b6040513d89823e3d90fd5b60405161245c81612613565b601e81527f4661696c65642120426574746572206c75636b206e6578742074696d652e0000602082015290612175565b60405162461bcd60e51b815260206004820152602760248201527f4e6f2070656e64696e6720617474656d7074206f7220616c72656164792070726044820152661bd8d95cdcd95960ca1b6064820152608490fd5b60405162461bcd60e51b815260206004820152602d60248201527f43616c6c6572206973206e6f74207468652052616e646f6d6e65737350726f7660448201526c1a59195c8818dbdb9d1c9858dd609a1b6064820152608490fd5b50346101585780600319360112610158576008546040516001600160a01b039091168152602090f35b50346101585780600319360112610158576007546040516001600160a01b039091168152602090f35b5034610158576020366003190112610158576125a86125ce565b6125b06127b8565b81546001600160a01b0319166001600160a01b039190911617815580f35b600435906001600160a01b038216820361113f57565b6001600160401b0381116110ff57604052565b6101a081019081106001600160401b038211176110ff57604052565b604081019081106001600160401b038211176110ff57604052565b90601f801991011681019081106001600160401b038211176110ff57604052565b6001600160401b0381116110ff57601f01601f191660200190565b81601f8201121561113f578035906126818261264f565b9261268f604051948561262e565b8284526020838301011161113f57816000926020809301838601378301015290565b60005b8381106126c45750506000910152565b81810151838201526020016126b4565b906020916126ed815180928185528580860191016126b1565b601f01601f1916010190565b9060405191828154918282526020928383019160005283600020936000905b8282106127305750505061272e9250038361262e565b565b855484526001958601958895509381019390910190612718565b90600182811c9216801561277a575b602083101461276457565b634e487b7160e01b600052602260045260246000fd5b91607f1691612759565b90815180825260208080930193019160005b8281106127a4575050505090565b835185529381019392810192600101612796565b600080516020612daa833981519152546001600160a01b031633036127d957565b60405163118cdaa760e01b8152336004820152602490fd5b6001600160a01b0390811690811561284c57600080516020612daa83398151915280546001600160a01b031981168417909155167f8be0079c531659141344cd1fd0a4f28419497f9722a3daafe3b4186f6b6457e0600080a3565b604051631e4fbdf760e01b815260006004820152602490fd5b9061288c575080511561287a57805190602001fd5b604051630a12f52160e11b8152600490fd5b815115806128bf575b61289d575090565b604051639996b31560e01b81526001600160a01b039091166004820152602490fd5b50803b15612895565b60ff7ff0c57e16840df040f15088dc2f81fe391c3923bec73e23a9662efc9c229c6a005460401c16156128f757565b604051631afcd79f60e31b8152600490fd5b60001981146129185760010190565b634e487b7160e01b600052601160045260246000fd5b903590601e198136030182121561113f57018035906001600160401b03821161113f57602001918160051b3603831361113f57565b81601f8201121561113f5780516129798161264f565b92612987604051948561262e565b8184526020828401011161113f576129a591602080850191016126b1565b90565b6001600160401b0381116110ff5760051b60200190565b81601f8201121561113f578035916129d6836129a8565b926129e4604051948561262e565b808452602092838086019260051b82010192831161113f578301905b828210612a0e575050505090565b81358152908301908301612a00565b9190916101a08184031261113f5760405190612a38826125f7565b819381356001600160401b039081811161113f5782612a589185016129bf565b845260208301356020850152604083013561ffff8116810361113f576040850152606083013581811161113f5782612a919185016129bf565b60608501526080838101359085015260a0808401359085015260c08301356001600160a01b038116810361113f5760c085015260e083013560e0850152610100808401359085015261012080840135908501526101408084013590850152610160918284013591821161113f57612b0991840161266a565b90830152610180809101359160ff8316830361113f570152565b9081602091031261113f5751801515810361113f5790565b81601f8201121561113f57805191612b52836129a8565b92612b60604051948561262e565b808452602092838086019260051b82010192831161113f578301905b828210612b8a575050505090565b81518152908301908301612b7c565b81835290916001600160fb1b03831161113f5760209260051b809284830137010190565b3560ff8116810361113f5790565b818110612bd6575050565b60008155600101612bcb565b8151919060418303612c1357612c0c92506020820151906060604084015193015160001a90612c1e565b9192909190565b505060009160029190565b91907f7fffffffffffffffffffffffffffffff5d576e7357a4501ddfe92f46681b20a08411612ca257926020929160ff608095604051948552168484015260408301526060820152600092839182805260015afa15612c965780516001600160a01b03811615612c8d57918190565b50809160019190565b604051903d90823e3d90fd5b50505060009160039190565b6004811015612d1d5780612cc0575050565b60018103612cda5760405163f645eedf60e01b8152600490fd5b60028103612cfb5760405163fce698f760e01b815260048101839052602490fd5b600314612d055750565b602490604051906335e2f38360e21b82526004820152fd5b634e487b7160e01b600052602160045260246000fd5b9190820391821161291857565b8054821015612d585760005260206000200190600090565b634e487b7160e01b600052603260045260246000fd5b6000526005602052604060002080548015612da257600019810190811161291857612d9891612d40565b90549060031b1c90565b505060009056fe9016d09d72d40fdae2fd8ceac6b6234c7706214fd39c1cd1e609a0528c199300a2646970667358221220f7847027a2dac16b17443c1353c815538de3741e4e101ea52246f0b8095cd67d64736f6c63430008140033",
  "linkReferences": {},
  "deployedLinkReferences": {}
}