{
  "_format": "hh-sol-artifact-1",
  "contractName": "DungeonAdventure",
  "sourceName": "contracts/DungeonAdventure.sol",
  "abi": [
    {
      "inputs": [],
      "stateMutability": "nonpayable",
      "type": "constructor"
    },
    {
      "inputs": [
        {
          "internalType": "address",
          "name": "target",
          "type": "address"
        }
      ],
      "name": "AddressEmptyCode",
      "type": "error"
    },
    {
      "inputs": [],
      "name": "ECDSAInvalidSignature",
      "type": "error"
    },
    {
      "inputs": [
        {
          "internalType": "uint256",
          "name": "length",
          "type": "uint256"
        }
      ],
      "name": "ECDSAInvalidSignatureLength",
      "type": "error"
    },
    {
      "inputs": [
        {
          "internalType": "bytes32",
          "name": "s",
          "type": "bytes32"
        }
      ],
      "name": "ECDSAInvalidSignatureS",
      "type": "error"
    },
    {
      "inputs": [
        {
          "internalType": "address",
          "name": "implementation",
          "type": "address"
        }
      ],
      "name": "ERC1967InvalidImplementation",
      "type": "error"
    },
    {
      "inputs": [],
      "name": "ERC1967NonPayable",
      "type": "error"
    },
    {
      "inputs": [],
      "name": "FailedInnerCall",
      "type": "error"
    },
    {
      "inputs": [],
      "name": "InvalidInitialization",
      "type": "error"
    },
    {
      "inputs": [],
      "name": "NotInitializing",
      "type": "error"
    },
    {
      "inputs": [
        {
          "internalType": "address",
          "name": "owner",
          "type": "address"
        }
      ],
      "name": "OwnableInvalidOwner",
      "type": "error"
    },
    {
      "inputs": [
        {
          "internalType": "address",
          "name": "account",
          "type": "address"
        }
      ],
      "name": "OwnableUnauthorizedAccount",
      "type": "error"
    },
    {
      "inputs": [],
      "name": "UUPSUnauthorizedCallContext",
      "type": "error"
    },
    {
      "inputs": [
        {
          "internalType": "bytes32",
          "name": "slot",
          "type": "bytes32"
        }
      ],
      "name": "UUPSUnsupportedProxiableUUID",
      "type": "error"
    },
    {
      "anonymous": false,
      "inputs": [
        {
          "indexed": true,
          "internalType": "address",
          "name": "player",
          "type": "address"
        },
        {
          "indexed": false,
          "internalType": "uint256",
          "name": "characterId",
          "type": "uint256"
        },
        {
          "indexed": false,
          "internalType": "bool",
          "name": "success",
          "type": "bool"
        },
        {
          "indexed": false,
          "internalType": "string",
          "name": "message",
          "type": "string"
        },
        {
          "indexed": false,
          "internalType": "uint256",
          "name": "winChance",
          "type": "uint256"
        },
        {
          "indexed": false,
          "internalType": "uint256",
          "name": "randomValue",
          "type": "uint256"
        },
        {
          "indexed": false,
          "internalType": "uint256[]",
          "name": "burnedItems",
          "type": "uint256[]"
        },
        {
          "indexed": false,
          "internalType": "uint256",
          "name": "itemPower",
          "type": "uint256"
        },
        {
          "indexed": false,
          "internalType": "uint256",
          "name": "randomNormalized",
          "type": "uint256"
        },
        {
          "indexed": false,
          "internalType": "uint256",
          "name": "characterCreationDate",
          "type": "uint256"
        },
        {
          "indexed": false,
          "internalType": "uint256",
          "name": "lootReward",
          "type": "uint256"
        },
        {
          "indexed": false,
          "internalType": "uint256",
          "name": "dungeonTimestamp",
          "type": "uint256"
        }
      ],
      "name": "DungeonResult",
      "type": "event"
    },
    {
      "anonymous": false,
      "inputs": [
        {
          "indexed": false,
          "internalType": "uint64",
          "name": "version",
          "type": "uint64"
        }
      ],
      "name": "Initialized",
      "type": "event"
    },
    {
      "anonymous": false,
      "inputs": [
        {
          "indexed": true,
          "internalType": "address",
          "name": "previousOwner",
          "type": "address"
        },
        {
          "indexed": true,
          "internalType": "address",
          "name": "newOwner",
          "type": "address"
        }
      ],
      "name": "OwnershipTransferred",
      "type": "event"
    },
    {
      "anonymous": false,
      "inputs": [
        {
          "indexed": false,
          "internalType": "bytes",
          "name": "signature",
          "type": "bytes"
        }
      ],
      "name": "SignatureReceived",
      "type": "event"
    },
    {
      "anonymous": false,
      "inputs": [
        {
          "indexed": true,
          "internalType": "address",
          "name": "implementation",
          "type": "address"
        }
      ],
      "name": "Upgraded",
      "type": "event"
    },
    {
      "inputs": [],
      "name": "UPGRADE_INTERFACE_VERSION",
      "outputs": [
        {
          "internalType": "string",
          "name": "",
          "type": "string"
        }
      ],
      "stateMutability": "view",
      "type": "function"
    },
    {
      "inputs": [
        {
          "internalType": "uint256",
          "name": "",
          "type": "uint256"
        }
      ],
      "name": "attemptDetails",
      "outputs": [
        {
          "internalType": "uint256",
          "name": "timestamp",
          "type": "uint256"
        },
        {
          "internalType": "address",
          "name": "player",
          "type": "address"
        },
        {
          "internalType": "uint256",
          "name": "requestId",
          "type": "uint256"
        },
        {
          "components": [
            {
              "internalType": "uint256[]",
              "name": "itemIds",
              "type": "uint256[]"
            },
            {
              "internalType": "uint256",
              "name": "experienceToAdd",
              "type": "uint256"
            },
            {
              "internalType": "uint16",
              "name": "durabilityToDeduct",
              "type": "uint16"
            },
            {
              "internalType": "uint256[]",
              "name": "slotToAdd",
              "type": "uint256[]"
            },
            {
              "internalType": "uint256",
              "name": "winPercentage",
              "type": "uint256"
            },
            {
              "internalType": "uint256",
              "name": "itemPower",
              "type": "uint256"
            },
            {
              "internalType": "address",
              "name": "walletId",
              "type": "address"
            },
            {
              "internalType": "uint256",
              "name": "characterId",
              "type": "uint256"
            },
            {
              "internalType": "uint256",
              "name": "entryFee",
              "type": "uint256"
            },
            {
              "internalType": "uint256",
              "name": "lootReward",
              "type": "uint256"
            },
            {
              "internalType": "uint256",
              "name": "timestamp",
              "type": "uint256"
            },
            {
              "internalType": "bytes",
              "name": "signature",
              "type": "bytes"
            },
            {
              "internalType": "uint8",
              "name": "starRating",
              "type": "uint8"
            }
          ],
          "internalType": "struct DungeonAdventure.DungeonParams",
          "name": "params",
          "type": "tuple"
        },
        {
          "internalType": "bool",
          "name": "pending",
          "type": "bool"
        }
      ],
      "stateMutability": "view",
      "type": "function"
    },
    {
      "inputs": [],
      "name": "characterContract",
      "outputs": [
        {
          "internalType": "contract CreateCharacter",
          "name": "",
          "type": "address"
        }
      ],
      "stateMutability": "view",
      "type": "function"
    },
    {
      "inputs": [],
      "name": "gameTreasury",
      "outputs": [
        {
          "internalType": "contract GameTreasury",
          "name": "",
          "type": "address"
        }
      ],
      "stateMutability": "view",
      "type": "function"
    },
    {
      "inputs": [
        {
          "internalType": "uint256",
          "name": "characterId",
          "type": "uint256"
        }
      ],
      "name": "getCharacterEnergy",
      "outputs": [
        {
          "internalType": "uint256",
          "name": "possibleEntries",
          "type": "uint256"
        }
      ],
      "stateMutability": "view",
      "type": "function"
    },
    {
      "inputs": [
        {
          "internalType": "uint256",
          "name": "characterId",
          "type": "uint256"
        }
      ],
      "name": "getLastEnergyUpdateTime",
      "outputs": [
        {
          "internalType": "uint256",
          "name": "",
          "type": "uint256"
        }
      ],
      "stateMutability": "view",
      "type": "function"
    },
    {
      "inputs": [
        {
          "components": [
            {
              "internalType": "uint256[]",
              "name": "itemIds",
              "type": "uint256[]"
            },
            {
              "internalType": "uint256",
              "name": "experienceToAdd",
              "type": "uint256"
            },
            {
              "internalType": "uint16",
              "name": "durabilityToDeduct",
              "type": "uint16"
            },
            {
              "internalType": "uint256[]",
              "name": "slotToAdd",
              "type": "uint256[]"
            },
            {
              "internalType": "uint256",
              "name": "winPercentage",
              "type": "uint256"
            },
            {
              "internalType": "uint256",
              "name": "itemPower",
              "type": "uint256"
            },
            {
              "internalType": "address",
              "name": "walletId",
              "type": "address"
            },
            {
              "internalType": "uint256",
              "name": "characterId",
              "type": "uint256"
            },
            {
              "internalType": "uint256",
              "name": "entryFee",
              "type": "uint256"
            },
            {
              "internalType": "uint256",
              "name": "lootReward",
              "type": "uint256"
            },
            {
              "internalType": "uint256",
              "name": "timestamp",
              "type": "uint256"
            },
            {
              "internalType": "bytes",
              "name": "signature",
              "type": "bytes"
            },
            {
              "internalType": "uint8",
              "name": "starRating",
              "type": "uint8"
            }
          ],
          "internalType": "struct DungeonAdventure.DungeonParams",
          "name": "params",
          "type": "tuple"
        }
      ],
      "name": "goDungeon",
      "outputs": [],
      "stateMutability": "nonpayable",
      "type": "function"
    },
    {
      "inputs": [
        {
          "internalType": "address",
          "name": "initialOwner",
          "type": "address"
        },
        {
          "internalType": "address",
          "name": "_itemContractAddress",
          "type": "address"
        },
        {
          "internalType": "address",
          "name": "_characterContractAddress",
          "type": "address"
        },
        {
          "internalType": "address",
          "name": "_randomnessProvider",
          "type": "address"
        },
        {
          "internalType": "address",
          "name": "_gameTreasuryAddress",
          "type": "address"
        },
        {
          "internalType": "address",
          "name": "_knownServerAddress",
          "type": "address"
        },
        {
          "internalType": "address",
          "name": "_paymentToken",
          "type": "address"
        },
        {
          "internalType": "address",
          "name": "_tournamentContract",
          "type": "address"
        }
      ],
      "name": "initialize",
      "outputs": [],
      "stateMutability": "nonpayable",
      "type": "function"
    },
    {
      "inputs": [],
      "name": "itemContract",
      "outputs": [
        {
          "internalType": "contract MintItem",
          "name": "",
          "type": "address"
        }
      ],
      "stateMutability": "view",
      "type": "function"
    },
    {
      "inputs": [],
      "name": "knownServerAddress",
      "outputs": [
        {
          "internalType": "address",
          "name": "",
          "type": "address"
        }
      ],
      "stateMutability": "view",
      "type": "function"
    },
    {
      "inputs": [],
      "name": "owner",
      "outputs": [
        {
          "internalType": "address",
          "name": "",
          "type": "address"
        }
      ],
      "stateMutability": "view",
      "type": "function"
    },
    {
      "inputs": [],
      "name": "paymentToken",
      "outputs": [
        {
          "internalType": "contract IERC20",
          "name": "",
          "type": "address"
        }
      ],
      "stateMutability": "view",
      "type": "function"
    },
    {
      "inputs": [
        {
          "internalType": "uint256",
          "name": "requestId",
          "type": "uint256"
        },
        {
          "internalType": "uint256",
          "name": "randomValue",
          "type": "uint256"
        }
      ],
      "name": "processDungeonAttempt",
      "outputs": [],
      "stateMutability": "nonpayable",
      "type": "function"
    },
    {
      "inputs": [],
      "name": "proxiableUUID",
      "outputs": [
        {
          "internalType": "bytes32",
          "name": "",
          "type": "bytes32"
        }
      ],
      "stateMutability": "view",
      "type": "function"
    },
    {
      "inputs": [],
      "name": "randomnessProvider",
      "outputs": [
        {
          "internalType": "contract RandomnessProvider",
          "name": "",
          "type": "address"
        }
      ],
      "stateMutability": "view",
      "type": "function"
    },
    {
      "inputs": [],
      "name": "renounceOwnership",
      "outputs": [],
      "stateMutability": "nonpayable",
      "type": "function"
    },
    {
      "inputs": [
        {
          "internalType": "address",
          "name": "_newCreateCharacterAddress",
          "type": "address"
        }
      ],
      "name": "setCharacterContractAddress",
      "outputs": [],
      "stateMutability": "nonpayable",
      "type": "function"
    },
    {
      "inputs": [
        {
          "internalType": "address",
          "name": "_gameTreasuryAddress",
          "type": "address"
        }
      ],
      "name": "setGameTreasuryAddress",
      "outputs": [],
      "stateMutability": "nonpayable",
      "type": "function"
    },
    {
      "inputs": [
        {
          "internalType": "address",
          "name": "_knownServerAddress",
          "type": "address"
        }
      ],
      "name": "setKnownServerAddress",
      "outputs": [],
      "stateMutability": "nonpayable",
      "type": "function"
    },
    {
      "inputs": [
        {
          "internalType": "address",
          "name": "_newItemContractAddress",
          "type": "address"
        }
      ],
      "name": "setMintItemContractAddress",
      "outputs": [],
      "stateMutability": "nonpayable",
      "type": "function"
    },
    {
      "inputs": [
        {
          "internalType": "address",
          "name": "_tokenAddress",
          "type": "address"
        }
      ],
      "name": "setPaymentToken",
      "outputs": [],
      "stateMutability": "nonpayable",
      "type": "function"
    },
    {
      "inputs": [
        {
          "internalType": "address",
          "name": "_randomnessProvider",
          "type": "address"
        }
      ],
      "name": "setRandomnessProvider",
      "outputs": [],
      "stateMutability": "nonpayable",
      "type": "function"
    },
    {
      "inputs": [],
      "name": "tournamentContract",
      "outputs": [
        {
          "internalType": "contract TournamentContract",
          "name": "",
          "type": "address"
        }
      ],
      "stateMutability": "view",
      "type": "function"
    },
    {
      "inputs": [
        {
          "internalType": "address",
          "name": "newOwner",
          "type": "address"
        }
      ],
      "name": "transferOwnership",
      "outputs": [],
      "stateMutability": "nonpayable",
      "type": "function"
    },
    {
      "inputs": [
        {
          "internalType": "address",
          "name": "newImplementation",
          "type": "address"
        },
        {
          "internalType": "bytes",
          "name": "data",
          "type": "bytes"
        }
      ],
      "name": "upgradeToAndCall",
      "outputs": [],
      "stateMutability": "payable",
      "type": "function"
    }
  ],
  "bytecode": "0x60a0604052306080523480156200001557600080fd5b506200002062000026565b620000da565b7ff0c57e16840df040f15088dc2f81fe391c3923bec73e23a9662efc9c229c6a00805468010000000000000000900460ff1615620000775760405163f92ee8a960e01b815260040160405180910390fd5b80546001600160401b0390811614620000d75780546001600160401b0319166001600160401b0390811782556040519081527fc7f505b2f371ae2175ee4913f4499e1f2633a7b5936321eed1cdaeb6115181d29060200160405180910390a15b50565b60805161326562000104600039600081816119a0015281816119c90152611b0f01526132656000f3fe6080604052600436106101665760003560e01c80638a29e2de116100d1578063b15fbc141161008a578063d2f9efab11610064578063d2f9efab14610461578063dad37ee914610481578063f2fde38b146104a1578063fbeb89dd146104c157600080fd5b8063b15fbc14146103f0578063c1e0bdf514610410578063ce9bf5ac1461044157600080fd5b80638a29e2de146102f55780638d76f940146103155780638da5cb5b14610335578063a1365bf114610372578063a6920bfc14610392578063ad3cb1cc146103b257600080fd5b806352d1902d1161012357806352d1902d1461023d5780636a326ab114610260578063710e054e14610280578063715018a6146102a05780637ec80d16146102b557806383499df6146102d557600080fd5b8063162f8e4e1461016b5780633013ce291461018d57806336b426df146101ca57806337c61ee8146101ea57806343b60f741461020a5780634f1ef2861461022a575b600080fd5b34801561017757600080fd5b5061018b610186366004612691565b6104e1565b005b34801561019957600080fd5b506007546101ad906001600160a01b031681565b6040516001600160a01b0390911681526020015b60405180910390f35b3480156101d657600080fd5b506008546101ad906001600160a01b031681565b3480156101f657600080fd5b5061018b6102053660046126ae565b61050b565b34801561021657600080fd5b506001546101ad906001600160a01b031681565b61018b6102383660046127bc565b6107e9565b34801561024957600080fd5b50610252610808565b6040519081526020016101c1565b34801561026c57600080fd5b5061018b61027b366004612691565b610825565b34801561028c57600080fd5b5061025261029b36600461280b565b61084f565b3480156102ac57600080fd5b5061018b6108a1565b3480156102c157600080fd5b506102526102d036600461280b565b6108b5565b3480156102e157600080fd5b5061018b6102f0366004612691565b610ac3565b34801561030157600080fd5b5061018b610310366004612824565b610aed565b34801561032157600080fd5b506000546101ad906001600160a01b031681565b34801561034157600080fd5b507f9016d09d72d40fdae2fd8ceac6b6234c7706214fd39c1cd1e609a0528c199300546001600160a01b03166101ad565b34801561037e57600080fd5b5061018b61038d366004612691565b610c78565b34801561039e57600080fd5b5061018b6103ad3660046128cd565b610ca2565b3480156103be57600080fd5b506103e3604051806040016040528060058152602001640352e302e360dc1b81525081565b6040516101c19190612958565b3480156103fc57600080fd5b5061018b61040b366004612691565b611693565b34801561041c57600080fd5b5061043061042b36600461280b565b6116bd565b6040516101c19594939291906129a6565b34801561044d57600080fd5b506002546101ad906001600160a01b031681565b34801561046d57600080fd5b506006546101ad906001600160a01b031681565b34801561048d57600080fd5b5061018b61049c366004612691565b6118d2565b3480156104ad57600080fd5b5061018b6104bc366004612691565b6118fc565b3480156104cd57600080fd5b506003546101ad906001600160a01b031681565b6104e961193a565b600080546001600160a01b0319166001600160a01b0392909216919091179055565b6002546001600160a01b031633146105805760405162461bcd60e51b815260206004820152602d60248201527f43616c6c6572206973206e6f74207468652052616e646f6d6e65737350726f7660448201526c1a59195c8818dbdb9d1c9858dd609a1b60648201526084015b60405180910390fd5b6000828152600460205260409020601181015460ff166105f25760405162461bcd60e51b815260206004820152602760248201527f4e6f2070656e64696e6720617474656d7074206f7220616c72656164792070726044820152661bd8d95cdcd95960ca1b6064820152608401610577565b600061060061271084612aee565b6007830154909150811060008161064c576040518060400160405280601e81526020017f4661696c65642120426574746572206c75636b206e6578742074696d652e0000815250610683565b6040518060400160405280601781526020017f5375636365737321204c6f6f742041637175697265642e0000000000000000008152505b905081156106fc576006546001850154600c86015460405163bec3fa1760e01b81526001600160a01b039283166004820152602481019190915291169063bec3fa1790604401600060405180830381600087803b1580156106e357600080fd5b505af11580156106f7573d6000803e3d6000fd5b505050505b6009840154600a85015460078601546008870154600154604051630a2e8f9d60e31b8152600481018590526001600160a01b03958616957fbce8ecf6c800f755d1f14fbe1fcc65e6b5c3d1288b1d9217e8628e82223b2e4395948994899491938e9360108f01938e929116906351747ce890602401602060405180830381865afa15801561078e573d6000803e3d6000fd5b505050506040513d601f19601f820116820180604052508101906107b29190612b02565b600c8f01546040516107cf9a999897969594939291904290612b1b565b60405180910390a2505050601101805460ff191690555050565b6107f1611995565b6107fa82611a3a565b6108048282611a42565b5050565b6000610812611b04565b5060008051602061321083398151915290565b61082d61193a565b600780546001600160a01b0319166001600160a01b0392909216919091179055565b60008181526005602052604081208054820361086e5750600092915050565b8054819061087e90600190612bcf565b8154811061088e5761088e612be2565b9060005260206000200154915050919050565b6108a961193a565b6108b36000611b4d565b565b600081815260056020526040812042826108d161a8c083612bcf565b905060006108e161fd2084612bcf565b905060006108f26201518085612bcf565b905060008060008060005b89548110156109ee57858a828154811061091957610919612be2565b9060005260206000200154106109dc578461093381612bf8565b955050868a828154811061094957610949612be2565b906000526020600020015410610967578361096381612bf8565b9450505b878a828154811061097a5761097a612be2565b906000526020600020015410610998578261099481612bf8565b9350505b818a82815481106109ab576109ab612be2565b906000526020600020015411156109dc578981815481106109ce576109ce612be2565b906000526020600020015491505b806109e681612bf8565b9150506108fd565b50600099506004841015610a0a57610a07846004612bcf565b99505b615460610a17828a612bcf565b10610a2a57610a278a6001611bbe565b99505b61a8c0610a37828a612bcf565b10158015610a455750600283105b15610a5857610a558a6002611bbe565b99505b61fd20610a65828a612bcf565b10158015610a735750600383105b15610a8657610a838a6003611bbe565b99505b62015180610a94828a612bcf565b10158015610aa25750600484105b15610ab557610ab28a6004611bbe565b99505b505050505050505050919050565b610acb61193a565b600180546001600160a01b0319166001600160a01b0392909216919091179055565b7ff0c57e16840df040f15088dc2f81fe391c3923bec73e23a9662efc9c229c6a008054600160401b810460ff1615906001600160401b0316600081158015610b325750825b90506000826001600160401b03166001148015610b4e5750303b155b905081158015610b5c575080155b15610b7a5760405163f92ee8a960e01b815260040160405180910390fd5b845467ffffffffffffffff191660011785558315610ba457845460ff60401b1916600160401b1785555b610bad8d611bd8565b610bb5611be9565b600080546001600160a01b03199081166001600160a01b038f8116919091179092556001805482168e84161790556002805482168d84161790556006805482168c84161790556008805482168b84161790556007805482168a8416179055600380549091169188169190911790558315610c6957845460ff60401b19168555604051600181527fc7f505b2f371ae2175ee4913f4499e1f2633a7b5936321eed1cdaeb6115181d29060200160405180910390a15b50505050505050505050505050565b610c8061193a565b600680546001600160a01b0319166001600160a01b0392909216919091179055565b6001546040516331a9108f60e11b815260e0830135600482015233916001600160a01b031690636352211e90602401602060405180830381865afa158015610cee573d6000803e3d6000fd5b505050506040513d601f19601f82011682018060405250810190610d129190612c11565b6001600160a01b031614610d7a5760405162461bcd60e51b815260206004820152602960248201527f43616c6c6572206973206e6f7420746865206f776e6572206f662074686520636044820152683430b930b1ba32b91760b91b6064820152608401610577565b6000610d898260e00135611bf1565b905060005b610d988380612c2e565b9050811015610f0d57600080546001600160a01b0316635df1c702610dbd8680612c2e565b85818110610dcd57610dcd612be2565b905060200201356040518263ffffffff1660e01b8152600401610df291815260200190565b600060405180830381865afa158015610e0f573d6000803e3d6000fd5b505050506040513d6000823e601f3d908101601f19168201604052610e379190810190612c7e565b905082604051602001610e4a9190612ceb565b6040516020818303038152906040528051906020012081604051602001610e719190612ceb565b6040516020818303038152906040528051906020012014610efa5760405162461bcd60e51b815260206004820152603a60248201527f4f6e65206f72206d6f7265206974656d7320617265206e6f74206f776e65642060448201527f62792074686520737065636966696564206368617261637465720000000000006064820152608401610577565b5080610f0581612bf8565b915050610d8e565b50610f1b8260e00135611c83565b610f8d5760405162461bcd60e51b815260206004820152603b60248201527f43686172616374657220646f6573206e6f74206861766520656e6f756768206560448201527f6e6572677920746f20656e746572207468652064756e67656f6e2e00000000006064820152608401610577565b6000610fa0610f9b84612db3565b611f79565b905080610fe35760405162461bcd60e51b8152602060048201526011602482015270496e76616c6964207369676e617475726560781b6044820152606401610577565b6007546006546001600160a01b03918216916323b872dd913391166064611010610100890135605f612ec4565b61101a9190612edb565b6040516001600160e01b031960e086901b1681526001600160a01b03938416600482015292909116602483015260448201526064016020604051808303816000875af115801561106e573d6000803e3d6000fd5b505050506040513d601f19601f820116820180604052508101906110929190612eef565b6110ed5760405162461bcd60e51b815260206004820152602660248201527f546f6b656e207472616e7366657220746f2067616d652074726561737572792060448201526519985a5b195960d21b6064820152608401610577565b6007546003546001600160a01b03918216916323b872dd91339116606461111a6101008901356005612ec4565b6111249190612edb565b6040516001600160e01b031960e086901b1681526001600160a01b03938416600482015292909116602483015260448201526064016020604051808303816000875af1158015611178573d6000803e3d6000fd5b505050506040513d601f19601f8201168201806040525081019061119c9190612eef565b6111fd5760405162461bcd60e51b815260206004820152602c60248201527f546f6b656e207472616e7366657220746f20746f75726e616d656e7420636f6e60448201526b1d1c9858dd0819985a5b195960a21b6064820152608401610577565b600080546001600160a01b0316633604c9fb6112198680612c2e565b6112296060890160408a01612f11565b6040518463ffffffff1660e01b815260040161124793929190612f5e565b6000604051808303816000875af1158015611266573d6000803e3d6000fd5b505050506040513d6000823e601f3d908101601f1916820160405261128e9190810190612f86565b60015460405163d070aebb60e01b815260e087013560048201529192506000916001600160a01b039091169063d070aebb90602401602060405180830381865afa1580156112e0573d6000803e3d6000fd5b505050506040513d601f19601f820116820180604052508101906113049190612b02565b90506113186101a086016101808701613016565b60ff16600114801561132c57506102f88111155b8061135857506113446101a086016101808701613016565b60ff16600214801561135857506104888111155b8061138457506113706101a086016101808701613016565b60ff16600314801561138457506106188111155b806113b0575061139c6101a086016101808701613016565b60ff1660041480156113b057506107a88111155b806113dc57506113c86101a086016101808701613016565b60ff1660041480156113dc57506109388111155b1561145b576001546001600160a01b0316632f56d04b60e0870135602088013561140960608a018a612c2e565b6040518563ffffffff1660e01b81526004016114289493929190613031565b600060405180830381600087803b15801561144257600080fd5b505af1158015611456573d6000803e3d6000fd5b505050505b600254604051633a9098d160e01b81526000916001600160a01b031690633a9098d19061148f906001908590600401613067565b6020604051808303816000875af11580156114ae573d6000803e3d6000fd5b505050506040513d601f19601f820116820180604052508101906114d29190612b02565b905060006040518060c00160405280428152602001336001600160a01b031681526020018381526020018861150690612db3565b8152602080820187905260016040928301819052600086815260048352839020845181558483015191810180546001600160a01b0319166001600160a01b039093169290921790915591830151600283015560608301518051805194955085949192600385019261157a928492019061260c565b506020828101516001830155604083015160028301805461ffff191661ffff909216919091179055606083015180516115b9926003850192019061260c565b506080820151600482015560a0820151600582015560c08201516006820180546001600160a01b0319166001600160a01b0390921691909117905560e0820151600782015561010082015160088201556101208201516009820155610140820151600a820155610160820151600b8201906116349082613127565b506101809190910151600c909101805460ff191660ff9092169190911790556080820151805161166e91601084019160209091019061260c565b5060a091909101516011909101805460ff191691151591909117905550505050505050565b61169b61193a565b600280546001600160a01b0319166001600160a01b0392909216919091179055565b60046020908152600091825260409182902080546001820154600283015485516003850180546101c0978102830188019098526101a0820188815294976001600160a01b039094169692959491939092849291849184018282801561174157602002820191906000526020600020905b81548152602001906001019080831161172d575b50505050508152602001600182015481526020016002820160009054906101000a900461ffff1661ffff1661ffff168152602001600382018054806020026020016040519081016040528092919081815260200182805480156117c357602002820191906000526020600020905b8154815260200190600101908083116117af575b5050509183525050600482015460208201526005820154604082015260068201546001600160a01b0316606082015260078201546080820152600882015460a0820152600982015460c0820152600a82015460e0820152600b82018054610100909201916118309061309f565b80601f016020809104026020016040519081016040528092919081815260200182805461185c9061309f565b80156118a95780601f1061187e576101008083540402835291602001916118a9565b820191906000526020600020905b81548152906001019060200180831161188c57829003601f168201915b5050509183525050600c919091015460ff90811660209092019190915260119092015490911685565b6118da61193a565b600880546001600160a01b0319166001600160a01b0392909216919091179055565b61190461193a565b6001600160a01b03811661192e57604051631e4fbdf760e01b815260006004820152602401610577565b61193781611b4d565b50565b3361196c7f9016d09d72d40fdae2fd8ceac6b6234c7706214fd39c1cd1e609a0528c199300546001600160a01b031690565b6001600160a01b0316146108b35760405163118cdaa760e01b8152336004820152602401610577565b306001600160a01b037f0000000000000000000000000000000000000000000000000000000000000000161480611a1c57507f00000000000000000000000000000000000000000000000000000000000000006001600160a01b0316611a10600080516020613210833981519152546001600160a01b031690565b6001600160a01b031614155b156108b35760405163703e46dd60e11b815260040160405180910390fd5b61193761193a565b816001600160a01b03166352d1902d6040518163ffffffff1660e01b8152600401602060405180830381865afa925050508015611a9c575060408051601f3d908101601f19168201909252611a9991810190612b02565b60015b611ac457604051634c9c8ce360e01b81526001600160a01b0383166004820152602401610577565b6000805160206132108339815191528114611af557604051632a87526960e21b815260048101829052602401610577565b611aff838361210c565b505050565b306001600160a01b037f000000000000000000000000000000000000000000000000000000000000000016146108b35760405163703e46dd60e11b815260040160405180910390fd5b7f9016d09d72d40fdae2fd8ceac6b6234c7706214fd39c1cd1e609a0528c19930080546001600160a01b031981166001600160a01b03848116918217845560405192169182907f8be0079c531659141344cd1fd0a4f28419497f9722a3daafe3b4186f6b6457e090600090a3505050565b6000818311611bcd5781611bcf565b825b90505b92915050565b611be0612162565b611937816121ab565b6108b3612162565b60606000611bfe836121b3565b60010190506000816001600160401b03811115611c1d57611c1d6126d0565b6040519080825280601f01601f191660200182016040528015611c47576020820181803683370190505b5090508181016020015b600019016f181899199a1a9b1b9c1cb0b131b232b360811b600a86061a8153600a8504945084611c5157509392505050565b60008181526005602052604081204282611c9f61546083612bcf565b90506000611caf61a8c084612bcf565b90506000611cbf61fd2085612bcf565b90506000611cd06201518086612bcf565b905060005b8654811015611d8a5781878281548110611cf157611cf1612be2565b90600052602060002001541015611d785786548790611d1290600190612bcf565b81548110611d2257611d22612be2565b9060005260206000200154878281548110611d3f57611d3f612be2565b906000526020600020018190555086805480611d5d57611d5d6131e6565b60019003818190600052602060002001600090559055611cd5565b80611d8281612bf8565b915050611cd5565b5060008080805b8954841015611e3d57858a8581548110611dad57611dad612be2565b906000526020600020015410611e2b5780611dc781612bf8565b915050868a8581548110611ddd57611ddd612be2565b906000526020600020015410611e2b5781611df781612bf8565b925050878a8581548110611e0d57611e0d612be2565b906000526020600020015410611e2b5782611e2781612bf8565b9350505b83611e3581612bf8565b945050611d91565b895460009060041115611e5257506001611f4d565b83158015611e9857508a54615460908c90611e6f90600190612bcf565b81548110611e7f57611e7f612be2565b90600052602060002001548b611e959190612bcf565b10155b15611ea557506001611f4d565b60018311158015611eee57508a5461a8c0908c90611ec590600190612bcf565b81548110611ed557611ed5612be2565b90600052602060002001548b611eeb9190612bcf565b10155b15611efb57506001611f4d565b60028211158015611f4457508a5461fd20908c90611f1b90600190612bcf565b81548110611f2b57611f2b612be2565b90600052602060002001548b611f419190612bcf565b10155b15611f4d575060015b8015611f69578a54600181018c5560008c815260209020018a90555b9c9b505050505050505050505050565b61014081015160009061012c90611f919082906131fc565b4211158015611fa557508261014001514210155b6120045760405162461bcd60e51b815260206004820152602a60248201527f54696d657374616d70206973206e6f742077697468696e2074686520616c6c6f6044820152693bb2b2103930b733b29760b11b6064820152608401610577565b60e083015160408085015161010086015160208088015160a08901516101208a015160808b01516101408c01516101808d0151985160009a61208d9a9099989790910198895261ffff97909716602089015260408801959095526060870193909352608086019190915260a085015260c084015260e083015260ff166101008201526101200190565b60405160208183030381529060405280519060200120905060006120de827f19457468657265756d205369676e6564204d6573736167653a0a3332000000006000908152601c91909152603c902090565b905060006120f18287610160015161228b565b6008546001600160a01b039182169116149695505050505050565b612115826122b5565b6040516001600160a01b038316907fbc7cd75a20ee27fd9adebab32041f755214dbc6bffa90cc0225b39da2e5c2d3b90600090a280511561215a57611aff828261231a565b610804612390565b7ff0c57e16840df040f15088dc2f81fe391c3923bec73e23a9662efc9c229c6a0054600160401b900460ff166108b357604051631afcd79f60e31b815260040160405180910390fd5b611904612162565b60008072184f03e93ff9f4daa797ed6e38ed64bf6a1f0160401b83106121f25772184f03e93ff9f4daa797ed6e38ed64bf6a1f0160401b830492506040015b6d04ee2d6d415b85acef8100000000831061221e576d04ee2d6d415b85acef8100000000830492506020015b662386f26fc10000831061223c57662386f26fc10000830492506010015b6305f5e1008310612254576305f5e100830492506008015b612710831061226857612710830492506004015b6064831061227a576064830492506002015b600a8310611bd25760010192915050565b60008060008061229b86866123af565b9250925092506122ab82826123fc565b5090949350505050565b806001600160a01b03163b6000036122eb57604051634c9c8ce360e01b81526001600160a01b0382166004820152602401610577565b60008051602061321083398151915280546001600160a01b0319166001600160a01b0392909216919091179055565b6060600080846001600160a01b0316846040516123379190612ceb565b600060405180830381855af49150503d8060008114612372576040519150601f19603f3d011682016040523d82523d6000602084013e612377565b606091505b50915091506123878583836124b5565b95945050505050565b34156108b35760405163b398979f60e01b815260040160405180910390fd5b600080600083516041036123e95760208401516040850151606086015160001a6123db88828585612514565b9550955095505050506123f5565b50508151600091506002905b9250925092565b600082600381111561241057612410613051565b03612419575050565b600182600381111561242d5761242d613051565b0361244b5760405163f645eedf60e01b815260040160405180910390fd5b600282600381111561245f5761245f613051565b036124805760405163fce698f760e01b815260048101829052602401610577565b600382600381111561249457612494613051565b03610804576040516335e2f38360e21b815260048101829052602401610577565b6060826124ca576124c5826125e3565b61250d565b81511580156124e157506001600160a01b0384163b155b1561250a57604051639996b31560e01b81526001600160a01b0385166004820152602401610577565b50805b9392505050565b600080807f7fffffffffffffffffffffffffffffff5d576e7357a4501ddfe92f46681b20a084111561254f57506000915060039050826125d9565b604080516000808252602082018084528a905260ff891692820192909252606081018790526080810186905260019060a0016020604051602081039080840390855afa1580156125a3573d6000803e3d6000fd5b5050604051601f1901519150506001600160a01b0381166125cf575060009250600191508290506125d9565b9250600091508190505b9450945094915050565b8051156125f35780518082602001fd5b604051630a12f52160e11b815260040160405180910390fd5b828054828255906000526020600020908101928215612647579160200282015b8281111561264757825182559160200191906001019061262c565b50612653929150612657565b5090565b5b808211156126535760008155600101612658565b6001600160a01b038116811461193757600080fd5b803561268c8161266c565b919050565b6000602082840312156126a357600080fd5b813561250d8161266c565b600080604083850312156126c157600080fd5b50508035926020909101359150565b634e487b7160e01b600052604160045260246000fd5b6040516101a081016001600160401b0381118282101715612709576127096126d0565b60405290565b604051601f8201601f191681016001600160401b0381118282101715612737576127376126d0565b604052919050565b60006001600160401b03821115612758576127586126d0565b50601f01601f191660200190565b600082601f83011261277757600080fd5b813561278a6127858261273f565b61270f565b81815284602083860101111561279f57600080fd5b816020850160208301376000918101602001919091529392505050565b600080604083850312156127cf57600080fd5b82356127da8161266c565b915060208301356001600160401b038111156127f557600080fd5b61280185828601612766565b9150509250929050565b60006020828403121561281d57600080fd5b5035919050565b600080600080600080600080610100898b03121561284157600080fd5b883561284c8161266c565b9750602089013561285c8161266c565b9650604089013561286c8161266c565b9550606089013561287c8161266c565b9450608089013561288c8161266c565b935060a089013561289c8161266c565b925060c08901356128ac8161266c565b915060e08901356128bc8161266c565b809150509295985092959890939650565b6000602082840312156128df57600080fd5b81356001600160401b038111156128f557600080fd5b82016101a0818503121561250d57600080fd5b60005b8381101561292357818101518382015260200161290b565b50506000910152565b60008151808452612944816020860160208601612908565b601f01601f19169290920160200192915050565b602081526000611bcf602083018461292c565b600081518084526020808501945080840160005b8381101561299b5781518752958201959082019060010161297f565b509495945050505050565b85815260018060a01b038516602082015283604082015260a06060820152600083516101a08060a08501526129df61024085018361296b565b9150602086015160c08501526040860151612a0060e086018261ffff169052565b506060860151609f19610100818786030181880152612a1f858461296b565b945060808901519250610120838189015260a08a0151935061014084818a015260c08b01519450610160612a5d818b01876001600160a01b03169052565b60e08c0151955061018086818c0152848d0151888c0152838d01516101c08c0152828d01516101e08c0152818d01519750858b8a03016102008c0152612aa3898961292c565b9850808d0151975050505050505050612ac261022085018260ff169052565b50831515608084015290505b9695505050505050565b634e487b7160e01b600052601260045260246000fd5b600082612afd57612afd612ad8565b500690565b600060208284031215612b1457600080fd5b5051919050565b60006101608d835260208d151581850152816040850152612b3e8285018e61292c565b606085018d9052608085018c905284810360a08601528a5480825260008c81528381209450918301915b81811015612b8457845483526001948501949284019201612b68565b505060c085019990995250505060e0810194909452610100840192909252610120830152610140909101529695505050505050565b634e487b7160e01b600052601160045260246000fd5b81810381811115611bd257611bd2612bb9565b634e487b7160e01b600052603260045260246000fd5b600060018201612c0a57612c0a612bb9565b5060010190565b600060208284031215612c2357600080fd5b815161250d8161266c565b6000808335601e19843603018112612c4557600080fd5b8301803591506001600160401b03821115612c5f57600080fd5b6020019150600581901b3603821315612c7757600080fd5b9250929050565b600060208284031215612c9057600080fd5b81516001600160401b03811115612ca657600080fd5b8201601f81018413612cb757600080fd5b8051612cc56127858261273f565b818152856020838501011115612cda57600080fd5b612387826020830160208601612908565b60008251612cfd818460208701612908565b9190910192915050565b60006001600160401b03821115612d2057612d206126d0565b5060051b60200190565b600082601f830112612d3b57600080fd5b81356020612d4b61278583612d07565b82815260059290921b84018101918181019086841115612d6a57600080fd5b8286015b84811015612d855780358352918301918301612d6e565b509695505050505050565b803561ffff8116811461268c57600080fd5b803560ff8116811461268c57600080fd5b60006101a08236031215612dc657600080fd5b612dce6126e6565b82356001600160401b0380821115612de557600080fd5b612df136838701612d2a565b835260208501356020840152612e0960408601612d90565b60408401526060850135915080821115612e2257600080fd5b612e2e36838701612d2a565b60608401526080850135608084015260a085013560a0840152612e5360c08601612681565b60c084015260e0858101359084015261010080860135908401526101208086013590840152610140808601359084015261016091508185013581811115612e9957600080fd5b612ea536828801612766565b83850152505050610180612eba818501612da2565b9082015292915050565b8082028115828204841417611bd257611bd2612bb9565b600082612eea57612eea612ad8565b500490565b600060208284031215612f0157600080fd5b8151801515811461250d57600080fd5b600060208284031215612f2357600080fd5b611bcf82612d90565b81835260006001600160fb1b03831115612f4557600080fd5b8260051b80836020870137939093016020019392505050565b604081526000612f72604083018587612f2c565b905061ffff83166020830152949350505050565b60006020808385031215612f9957600080fd5b82516001600160401b03811115612faf57600080fd5b8301601f81018513612fc057600080fd5b8051612fce61278582612d07565b81815260059190911b82018301908381019087831115612fed57600080fd5b928401925b8284101561300b57835182529284019290840190612ff2565b979650505050505050565b60006020828403121561302857600080fd5b611bcf82612da2565b848152836020820152606060408201526000612ace606083018486612f2c565b634e487b7160e01b600052602160045260246000fd5b63ffffffff83168152604081016001831061309257634e487b7160e01b600052602160045260246000fd5b8260208301529392505050565b600181811c908216806130b357607f821691505b6020821081036130d357634e487b7160e01b600052602260045260246000fd5b50919050565b601f821115611aff57600081815260208120601f850160051c810160208610156131005750805b601f850160051c820191505b8181101561311f5782815560010161310c565b505050505050565b81516001600160401b03811115613140576131406126d0565b6131548161314e845461309f565b846130d9565b602080601f83116001811461318957600084156131715750858301515b600019600386901b1c1916600185901b17855561311f565b600085815260208120601f198616915b828110156131b857888601518255948401946001909101908401613199565b50858210156131d65787850151600019600388901b60f8161c191681555b5050505050600190811b01905550565b634e487b7160e01b600052603160045260246000fd5b80820180821115611bd257611bd2612bb956fe360894a13ba1a3210667c828492db98dca3e2076cc3735a920a3ca505d382bbca2646970667358221220aa9a302fa85e74e0a7ed4006855b2c5a8887a8bef0628fd64c94e647a80d84be64736f6c63430008140033",
  "linkReferences": {},
  "deployedLinkReferences": {}
}