{
  "_format": "hh-sol-artifact-1",
  "contractName": "DungeonAdventure",
  "sourceName": "contracts/DungeonAdventure.sol",
  "abi": [
    {
      "inputs": [],
      "stateMutability": "nonpayable",
      "type": "constructor"
    },
    {
      "inputs": [],
      "name": "AccessControlBadConfirmation",
      "type": "error"
    },
    {
      "inputs": [
        {
          "internalType": "address",
          "name": "account",
          "type": "address"
        },
        {
          "internalType": "bytes32",
          "name": "neededRole",
          "type": "bytes32"
        }
      ],
      "name": "AccessControlUnauthorizedAccount",
      "type": "error"
    },
    {
      "inputs": [
        {
          "internalType": "address",
          "name": "target",
          "type": "address"
        }
      ],
      "name": "AddressEmptyCode",
      "type": "error"
    },
    {
      "inputs": [
        {
          "internalType": "address",
          "name": "implementation",
          "type": "address"
        }
      ],
      "name": "ERC1967InvalidImplementation",
      "type": "error"
    },
    {
      "inputs": [],
      "name": "ERC1967NonPayable",
      "type": "error"
    },
    {
      "inputs": [],
      "name": "FailedInnerCall",
      "type": "error"
    },
    {
      "inputs": [],
      "name": "InvalidInitialization",
      "type": "error"
    },
    {
      "inputs": [],
      "name": "NotInitializing",
      "type": "error"
    },
    {
      "inputs": [],
      "name": "UUPSUnauthorizedCallContext",
      "type": "error"
    },
    {
      "inputs": [
        {
          "internalType": "bytes32",
          "name": "slot",
          "type": "bytes32"
        }
      ],
      "name": "UUPSUnsupportedProxiableUUID",
      "type": "error"
    },
    {
      "anonymous": false,
      "inputs": [
        {
          "indexed": true,
          "internalType": "address",
          "name": "player",
          "type": "address"
        },
        {
          "indexed": false,
          "internalType": "uint256",
          "name": "characterId",
          "type": "uint256"
        },
        {
          "indexed": false,
          "internalType": "bool",
          "name": "success",
          "type": "bool"
        },
        {
          "indexed": false,
          "internalType": "string",
          "name": "message",
          "type": "string"
        },
        {
          "indexed": false,
          "internalType": "uint256",
          "name": "winChance",
          "type": "uint256"
        },
        {
          "indexed": false,
          "internalType": "uint256",
          "name": "randomValue",
          "type": "uint256"
        },
        {
          "indexed": false,
          "internalType": "uint256[]",
          "name": "burnedItems",
          "type": "uint256[]"
        }
      ],
      "name": "DungeonResult",
      "type": "event"
    },
    {
      "anonymous": false,
      "inputs": [
        {
          "indexed": false,
          "internalType": "uint64",
          "name": "version",
          "type": "uint64"
        }
      ],
      "name": "Initialized",
      "type": "event"
    },
    {
      "anonymous": false,
      "inputs": [
        {
          "indexed": true,
          "internalType": "bytes32",
          "name": "role",
          "type": "bytes32"
        },
        {
          "indexed": true,
          "internalType": "bytes32",
          "name": "previousAdminRole",
          "type": "bytes32"
        },
        {
          "indexed": true,
          "internalType": "bytes32",
          "name": "newAdminRole",
          "type": "bytes32"
        }
      ],
      "name": "RoleAdminChanged",
      "type": "event"
    },
    {
      "anonymous": false,
      "inputs": [
        {
          "indexed": true,
          "internalType": "bytes32",
          "name": "role",
          "type": "bytes32"
        },
        {
          "indexed": true,
          "internalType": "address",
          "name": "account",
          "type": "address"
        },
        {
          "indexed": true,
          "internalType": "address",
          "name": "sender",
          "type": "address"
        }
      ],
      "name": "RoleGranted",
      "type": "event"
    },
    {
      "anonymous": false,
      "inputs": [
        {
          "indexed": true,
          "internalType": "bytes32",
          "name": "role",
          "type": "bytes32"
        },
        {
          "indexed": true,
          "internalType": "address",
          "name": "account",
          "type": "address"
        },
        {
          "indexed": true,
          "internalType": "address",
          "name": "sender",
          "type": "address"
        }
      ],
      "name": "RoleRevoked",
      "type": "event"
    },
    {
      "anonymous": false,
      "inputs": [
        {
          "indexed": true,
          "internalType": "address",
          "name": "implementation",
          "type": "address"
        }
      ],
      "name": "Upgraded",
      "type": "event"
    },
    {
      "inputs": [],
      "name": "DEFAULT_ADMIN_ROLE",
      "outputs": [
        {
          "internalType": "bytes32",
          "name": "",
          "type": "bytes32"
        }
      ],
      "stateMutability": "view",
      "type": "function"
    },
    {
      "inputs": [],
      "name": "UPGRADER_ROLE",
      "outputs": [
        {
          "internalType": "bytes32",
          "name": "",
          "type": "bytes32"
        }
      ],
      "stateMutability": "view",
      "type": "function"
    },
    {
      "inputs": [],
      "name": "UPGRADE_INTERFACE_VERSION",
      "outputs": [
        {
          "internalType": "string",
          "name": "",
          "type": "string"
        }
      ],
      "stateMutability": "view",
      "type": "function"
    },
    {
      "inputs": [
        {
          "internalType": "uint256",
          "name": "",
          "type": "uint256"
        }
      ],
      "name": "attemptDetails",
      "outputs": [
        {
          "internalType": "uint256",
          "name": "timestamp",
          "type": "uint256"
        },
        {
          "internalType": "address",
          "name": "player",
          "type": "address"
        },
        {
          "internalType": "uint256",
          "name": "requestId",
          "type": "uint256"
        },
        {
          "components": [
            {
              "internalType": "uint256[]",
              "name": "itemIds",
              "type": "uint256[]"
            },
            {
              "internalType": "uint256",
              "name": "experienceToAdd",
              "type": "uint256"
            },
            {
              "internalType": "uint16",
              "name": "durabilityToDeduct",
              "type": "uint16"
            },
            {
              "internalType": "uint256[]",
              "name": "slotToAdd",
              "type": "uint256[]"
            },
            {
              "internalType": "uint256",
              "name": "winPercentage",
              "type": "uint256"
            },
            {
              "internalType": "uint256",
              "name": "itemPower",
              "type": "uint256"
            },
            {
              "internalType": "address",
              "name": "walletId",
              "type": "address"
            },
            {
              "internalType": "uint256",
              "name": "characterId",
              "type": "uint256"
            },
            {
              "internalType": "uint256",
              "name": "entryFee",
              "type": "uint256"
            },
            {
              "internalType": "uint256",
              "name": "lootReward",
              "type": "uint256"
            }
          ],
          "internalType": "struct DungeonAdventure.DungeonParams",
          "name": "params",
          "type": "tuple"
        },
        {
          "internalType": "bool",
          "name": "pending",
          "type": "bool"
        }
      ],
      "stateMutability": "view",
      "type": "function"
    },
    {
      "inputs": [],
      "name": "characterContract",
      "outputs": [
        {
          "internalType": "contract CreateCharacter",
          "name": "",
          "type": "address"
        }
      ],
      "stateMutability": "view",
      "type": "function"
    },
    {
      "inputs": [
        {
          "internalType": "address",
          "name": "",
          "type": "address"
        }
      ],
      "name": "dungeonAttempts",
      "outputs": [
        {
          "internalType": "uint256",
          "name": "timestamp",
          "type": "uint256"
        },
        {
          "internalType": "uint256",
          "name": "winChance",
          "type": "uint256"
        },
        {
          "internalType": "bool",
          "name": "success",
          "type": "bool"
        },
        {
          "internalType": "uint256",
          "name": "randomValue",
          "type": "uint256"
        }
      ],
      "stateMutability": "view",
      "type": "function"
    },
    {
      "inputs": [],
      "name": "gameTreasury",
      "outputs": [
        {
          "internalType": "contract GameTreasury",
          "name": "",
          "type": "address"
        }
      ],
      "stateMutability": "view",
      "type": "function"
    },
    {
      "inputs": [
        {
          "internalType": "address",
          "name": "player",
          "type": "address"
        }
      ],
      "name": "getDungeonAttemptDetails",
      "outputs": [
        {
          "components": [
            {
              "internalType": "uint256",
              "name": "timestamp",
              "type": "uint256"
            },
            {
              "internalType": "uint256",
              "name": "winChance",
              "type": "uint256"
            },
            {
              "internalType": "bool",
              "name": "success",
              "type": "bool"
            },
            {
              "internalType": "uint256",
              "name": "randomValue",
              "type": "uint256"
            }
          ],
          "internalType": "struct DungeonAdventure.DungeonAttempt",
          "name": "",
          "type": "tuple"
        }
      ],
      "stateMutability": "view",
      "type": "function"
    },
    {
      "inputs": [
        {
          "internalType": "bytes32",
          "name": "role",
          "type": "bytes32"
        }
      ],
      "name": "getRoleAdmin",
      "outputs": [
        {
          "internalType": "bytes32",
          "name": "",
          "type": "bytes32"
        }
      ],
      "stateMutability": "view",
      "type": "function"
    },
    {
      "inputs": [
        {
          "components": [
            {
              "internalType": "uint256[]",
              "name": "itemIds",
              "type": "uint256[]"
            },
            {
              "internalType": "uint256",
              "name": "experienceToAdd",
              "type": "uint256"
            },
            {
              "internalType": "uint16",
              "name": "durabilityToDeduct",
              "type": "uint16"
            },
            {
              "internalType": "uint256[]",
              "name": "slotToAdd",
              "type": "uint256[]"
            },
            {
              "internalType": "uint256",
              "name": "winPercentage",
              "type": "uint256"
            },
            {
              "internalType": "uint256",
              "name": "itemPower",
              "type": "uint256"
            },
            {
              "internalType": "address",
              "name": "walletId",
              "type": "address"
            },
            {
              "internalType": "uint256",
              "name": "characterId",
              "type": "uint256"
            },
            {
              "internalType": "uint256",
              "name": "entryFee",
              "type": "uint256"
            },
            {
              "internalType": "uint256",
              "name": "lootReward",
              "type": "uint256"
            }
          ],
          "internalType": "struct DungeonAdventure.DungeonParams",
          "name": "params",
          "type": "tuple"
        }
      ],
      "name": "goDungeon",
      "outputs": [],
      "stateMutability": "payable",
      "type": "function"
    },
    {
      "inputs": [
        {
          "internalType": "bytes32",
          "name": "role",
          "type": "bytes32"
        },
        {
          "internalType": "address",
          "name": "account",
          "type": "address"
        }
      ],
      "name": "grantRole",
      "outputs": [],
      "stateMutability": "nonpayable",
      "type": "function"
    },
    {
      "inputs": [
        {
          "internalType": "bytes32",
          "name": "role",
          "type": "bytes32"
        },
        {
          "internalType": "address",
          "name": "account",
          "type": "address"
        }
      ],
      "name": "hasRole",
      "outputs": [
        {
          "internalType": "bool",
          "name": "",
          "type": "bool"
        }
      ],
      "stateMutability": "view",
      "type": "function"
    },
    {
      "inputs": [
        {
          "internalType": "address",
          "name": "defaultAdmin",
          "type": "address"
        },
        {
          "internalType": "address",
          "name": "upgrader",
          "type": "address"
        },
        {
          "internalType": "address",
          "name": "_itemContractAddress",
          "type": "address"
        },
        {
          "internalType": "address",
          "name": "_characterContractAddress",
          "type": "address"
        },
        {
          "internalType": "address",
          "name": "_randomnessProvider",
          "type": "address"
        },
        {
          "internalType": "address",
          "name": "_gameTreasuryAddress",
          "type": "address"
        }
      ],
      "name": "initialize",
      "outputs": [],
      "stateMutability": "nonpayable",
      "type": "function"
    },
    {
      "inputs": [],
      "name": "itemContract",
      "outputs": [
        {
          "internalType": "contract MintItem",
          "name": "",
          "type": "address"
        }
      ],
      "stateMutability": "view",
      "type": "function"
    },
    {
      "inputs": [
        {
          "internalType": "uint256",
          "name": "requestId",
          "type": "uint256"
        },
        {
          "internalType": "uint256",
          "name": "randomValue",
          "type": "uint256"
        }
      ],
      "name": "processDungeonAttempt",
      "outputs": [],
      "stateMutability": "nonpayable",
      "type": "function"
    },
    {
      "inputs": [],
      "name": "proxiableUUID",
      "outputs": [
        {
          "internalType": "bytes32",
          "name": "",
          "type": "bytes32"
        }
      ],
      "stateMutability": "view",
      "type": "function"
    },
    {
      "inputs": [],
      "name": "randomnessProvider",
      "outputs": [
        {
          "internalType": "contract RandomnessProvider",
          "name": "",
          "type": "address"
        }
      ],
      "stateMutability": "view",
      "type": "function"
    },
    {
      "inputs": [
        {
          "internalType": "bytes32",
          "name": "role",
          "type": "bytes32"
        },
        {
          "internalType": "address",
          "name": "callerConfirmation",
          "type": "address"
        }
      ],
      "name": "renounceRole",
      "outputs": [],
      "stateMutability": "nonpayable",
      "type": "function"
    },
    {
      "inputs": [
        {
          "internalType": "bytes32",
          "name": "role",
          "type": "bytes32"
        },
        {
          "internalType": "address",
          "name": "account",
          "type": "address"
        }
      ],
      "name": "revokeRole",
      "outputs": [],
      "stateMutability": "nonpayable",
      "type": "function"
    },
    {
      "inputs": [
        {
          "internalType": "address",
          "name": "_newCreateCharacterAddress",
          "type": "address"
        }
      ],
      "name": "setCharacterContractAddress",
      "outputs": [],
      "stateMutability": "nonpayable",
      "type": "function"
    },
    {
      "inputs": [
        {
          "internalType": "address",
          "name": "_gameTreasuryAddress",
          "type": "address"
        }
      ],
      "name": "setGameTreasuryAddress",
      "outputs": [],
      "stateMutability": "nonpayable",
      "type": "function"
    },
    {
      "inputs": [
        {
          "internalType": "address",
          "name": "_newItemContractAddress",
          "type": "address"
        }
      ],
      "name": "setMintItemContractAddress",
      "outputs": [],
      "stateMutability": "nonpayable",
      "type": "function"
    },
    {
      "inputs": [
        {
          "internalType": "address",
          "name": "_randomnessProvider",
          "type": "address"
        }
      ],
      "name": "setRandomnessProvider",
      "outputs": [],
      "stateMutability": "nonpayable",
      "type": "function"
    },
    {
      "inputs": [
        {
          "internalType": "bytes4",
          "name": "interfaceId",
          "type": "bytes4"
        }
      ],
      "name": "supportsInterface",
      "outputs": [
        {
          "internalType": "bool",
          "name": "",
          "type": "bool"
        }
      ],
      "stateMutability": "view",
      "type": "function"
    },
    {
      "inputs": [
        {
          "internalType": "address",
          "name": "newImplementation",
          "type": "address"
        },
        {
          "internalType": "bytes",
          "name": "data",
          "type": "bytes"
        }
      ],
      "name": "upgradeToAndCall",
      "outputs": [],
      "stateMutability": "payable",
      "type": "function"
    }
  ],
  "bytecode": "0x60a06040523073ffffffffffffffffffffffffffffffffffffffff1660809073ffffffffffffffffffffffffffffffffffffffff168152503480156200004457600080fd5b50620000556200005b60201b60201c565b620001cf565b60006200006d6200016560201b60201c565b90508060000160089054906101000a900460ff1615620000b9576040517ff92ee8a900000000000000000000000000000000000000000000000000000000815260040160405180910390fd5b67ffffffffffffffff80168160000160009054906101000a900467ffffffffffffffff1667ffffffffffffffff1614620001625767ffffffffffffffff8160000160006101000a81548167ffffffffffffffff021916908367ffffffffffffffff1602179055507fc7f505b2f371ae2175ee4913f4499e1f2633a7b5936321eed1cdaeb6115181d267ffffffffffffffff604051620001599190620001b2565b60405180910390a15b50565b60007ff0c57e16840df040f15088dc2f81fe391c3923bec73e23a9662efc9c229c6a00905090565b600067ffffffffffffffff82169050919050565b620001ac816200018d565b82525050565b6000602082019050620001c96000830184620001a1565b92915050565b608051613a03620001f960003960008181611b5f01528181611bb40152611d920152613a036000f3fe6080604052600436106101665760003560e01c8063a1365bf1116100d1578063c1e0bdf51161008a578063ce9bf5ac11610064578063ce9bf5ac14610537578063d2f9efab14610562578063d547741f1461058d578063f72c0d8b146105b657610166565b8063c1e0bdf514610490578063c7a4e72d146104d1578063cc2a9a5b1461050e57610166565b8063a1365bf11461038c578063a217fddf146103b5578063a9cd7d53146103e0578063ad3cb1cc146103fc578063b15fbc1414610427578063b1625fab1461045057610166565b806343b60f741161012357806343b60f74146102895780634f1ef286146102b457806352d1902d146102d057806383499df6146102fb5780638d76f9401461032457806391d148541461034f57610166565b806301ffc9a71461016b578063162f8e4e146101a8578063248a9ca3146101d15780632f2ff15d1461020e57806336568abe1461023757806337c61ee814610260575b600080fd5b34801561017757600080fd5b50610192600480360381019061018d9190612423565b6105e1565b60405161019f919061246b565b60405180910390f35b3480156101b457600080fd5b506101cf60048036038101906101ca91906124e4565b61065b565b005b3480156101dd57600080fd5b506101f860048036038101906101f39190612547565b61069e565b6040516102059190612583565b60405180910390f35b34801561021a57600080fd5b506102356004803603810190610230919061259e565b6106cc565b005b34801561024357600080fd5b5061025e6004803603810190610259919061259e565b6106ee565b005b34801561026c57600080fd5b5061028760048036038101906102829190612614565b610769565b005b34801561029557600080fd5b5061029e610a2b565b6040516102ab91906126b3565b60405180910390f35b6102ce60048036038101906102c99190612814565b610a51565b005b3480156102dc57600080fd5b506102e5610a70565b6040516102f29190612583565b60405180910390f35b34801561030757600080fd5b50610322600480360381019061031d91906124e4565b610aa3565b005b34801561033057600080fd5b50610339610ae7565b6040516103469190612891565b60405180910390f35b34801561035b57600080fd5b506103766004803603810190610371919061259e565b610b0b565b604051610383919061246b565b60405180910390f35b34801561039857600080fd5b506103b360048036038101906103ae91906124e4565b610b84565b005b3480156103c157600080fd5b506103ca610bc8565b6040516103d79190612583565b60405180910390f35b6103fa60048036038101906103f591906128d1565b610bcf565b005b34801561040857600080fd5b5061041161118b565b60405161041e9190612999565b60405180910390f35b34801561043357600080fd5b5061044e600480360381019061044991906124e4565b6111c4565b005b34801561045c57600080fd5b50610477600480360381019061047291906124e4565b611208565b60405161048794939291906129ca565b60405180910390f35b34801561049c57600080fd5b506104b760048036038101906104b29190612a0f565b611245565b6040516104c8959493929190612c16565b60405180910390f35b3480156104dd57600080fd5b506104f860048036038101906104f391906124e4565b611415565b6040516105059190612cd4565b60405180910390f35b34801561051a57600080fd5b5061053560048036038101906105309190612cef565b6114a7565b005b34801561054357600080fd5b5061054c61177e565b6040516105599190612d9d565b60405180910390f35b34801561056e57600080fd5b506105776117a4565b6040516105849190612deb565b60405180910390f35b34801561059957600080fd5b506105b460048036038101906105af919061259e565b6117ca565b005b3480156105c257600080fd5b506105cb6117ec565b6040516105d89190612583565b60405180910390f35b60007f7965db0b000000000000000000000000000000000000000000000000000000007bffffffffffffffffffffffffffffffffffffffffffffffffffffffff1916827bffffffffffffffffffffffffffffffffffffffffffffffffffffffff19161480610654575061065382611810565b5b9050919050565b806000806101000a81548173ffffffffffffffffffffffffffffffffffffffff021916908373ffffffffffffffffffffffffffffffffffffffff16021790555050565b6000806106a961187a565b905080600001600084815260200190815260200160002060010154915050919050565b6106d58261069e565b6106de816118a2565b6106e883836118b6565b50505050565b6106f66119b7565b73ffffffffffffffffffffffffffffffffffffffff168173ffffffffffffffffffffffffffffffffffffffff161461075a576040517f6697b23200000000000000000000000000000000000000000000000000000000815260040160405180910390fd5b61076482826119bf565b505050565b600060036000848152602001908152602001600020905080600e0160009054906101000a900460ff166107d1576040517f08c379a00000000000000000000000000000000000000000000000000000000081526004016107c890612e78565b60405180910390fd5b6108106040518060400160405280602081526020017f52616e646f6d6e6573732066756c66696c6c656420776974682076616c75653a81525083611ac1565b600081600301600401546064846108279190612ec7565b10905060008161086c576040518060400160405280601e81526020017f4661696c65642120426574746572206c75636b206e6578742074696d652e00008152506108a3565b6040518060400160405280601781526020017f5375636365737321204c6f6f742041637175697265642e0000000000000000008152505b905060405180608001604052808460000154815260200184600301600401548152602001831515815260200185815250600460008560010160009054906101000a900473ffffffffffffffffffffffffffffffffffffffff1673ffffffffffffffffffffffffffffffffffffffff1673ffffffffffffffffffffffffffffffffffffffff168152602001908152602001600020600082015181600001556020820151816001015560408201518160020160006101000a81548160ff021916908315150217905550606082015181600301559050508260030160060160009054906101000a900473ffffffffffffffffffffffffffffffffffffffff1673ffffffffffffffffffffffffffffffffffffffff167f44bc61cabadba1ae8c9d3ffdfce8030384e13b45dbe58d576e111a8e526aec748460030160070154848487600301600401548989600d016040516109ff96959493929190612fdf565b60405180910390a2600083600e0160006101000a81548160ff0219169083151502179055505050505050565b600160009054906101000a900473ffffffffffffffffffffffffffffffffffffffff1681565b610a59611b5d565b610a6282611c43565b610a6c8282611c71565b5050565b6000610a7a611d90565b7f360894a13ba1a3210667c828492db98dca3e2076cc3735a920a3ca505d382bbc60001b905090565b80600160006101000a81548173ffffffffffffffffffffffffffffffffffffffff021916908373ffffffffffffffffffffffffffffffffffffffff16021790555050565b60008054906101000a900473ffffffffffffffffffffffffffffffffffffffff1681565b600080610b1661187a565b905080600001600085815260200190815260200160002060000160008473ffffffffffffffffffffffffffffffffffffffff1673ffffffffffffffffffffffffffffffffffffffff16815260200190815260200160002060009054906101000a900460ff1691505092915050565b80600560006101000a81548173ffffffffffffffffffffffffffffffffffffffff021916908373ffffffffffffffffffffffffffffffffffffffff16021790555050565b6000801b81565b8061010001353414610c16576040517f08c379a0000000000000000000000000000000000000000000000000000000008152600401610c0d9061309a565b60405180910390fd5b606481608001351115610c5e576040517f08c379a0000000000000000000000000000000000000000000000000000000008152600401610c5590613106565b60405180910390fd5b60008160e0013503610ca5576040517f08c379a0000000000000000000000000000000000000000000000000000000008152600401610c9c90613172565b60405180910390fd5b6000600560009054906101000a900473ffffffffffffffffffffffffffffffffffffffff1673ffffffffffffffffffffffffffffffffffffffff1634604051610ced906131c3565b60006040518083038185875af1925050503d8060008114610d2a576040519150601f19603f3d011682016040523d82523d6000602084013e610d2f565b606091505b5050905080610d73576040517f08c379a0000000000000000000000000000000000000000000000000000000008152600401610d6a90613224565b60405180910390fd5b60008060009054906101000a900473ffffffffffffffffffffffffffffffffffffffff1673ffffffffffffffffffffffffffffffffffffffff16633604c9fb848060000190610dc29190613253565b866040016020810190610dd591906132e2565b6040518463ffffffff1660e01b8152600401610df393929190613388565b6000604051808303816000875af1158015610e12573d6000803e3d6000fd5b505050506040513d6000823e3d601f19601f82011682018060405250810190610e3b9190613497565b9050600160009054906101000a900473ffffffffffffffffffffffffffffffffffffffff1673ffffffffffffffffffffffffffffffffffffffff16632f56d04b8460e001358560200135868060600190610e959190613253565b6040518563ffffffff1660e01b8152600401610eb494939291906134e0565b600060405180830381600087803b158015610ece57600080fd5b505af1158015610ee2573d6000803e3d6000fd5b505050506000600260009054906101000a900473ffffffffffffffffffffffffffffffffffffffff1673ffffffffffffffffffffffffffffffffffffffff16633a9098d1600160006040518363ffffffff1660e01b8152600401610f479291906135e2565b6020604051808303816000875af1158015610f66573d6000803e3d6000fd5b505050506040513d601f19601f82011682018060405250810190610f8a919061360b565b905060006040518060c001604052804281526020013373ffffffffffffffffffffffffffffffffffffffff16815260200183815260200186610fcb90613807565b8152602001848152602001600115158152509050610fe882611e17565b80600360008481526020019081526020016000206000820151816000015560208201518160010160006101000a81548173ffffffffffffffffffffffffffffffffffffffff021916908373ffffffffffffffffffffffffffffffffffffffff16021790555060408201518160020155606082015181600301600082015181600001908051906020019061107c929190612319565b506020820151816001015560408201518160020160006101000a81548161ffff021916908361ffff16021790555060608201518160030190805190602001906110c6929190612319565b506080820151816004015560a0820151816005015560c08201518160060160006101000a81548173ffffffffffffffffffffffffffffffffffffffff021916908373ffffffffffffffffffffffffffffffffffffffff16021790555060e08201518160070155610100820151816008015561012082015181600901555050608082015181600d019080519060200190611160929190612319565b5060a082015181600e0160006101000a81548160ff0219169083151502179055509050505050505050565b6040518060400160405280600581526020017f352e302e3000000000000000000000000000000000000000000000000000000081525081565b80600260006101000a81548173ffffffffffffffffffffffffffffffffffffffff021916908373ffffffffffffffffffffffffffffffffffffffff16021790555050565b60046020528060005260406000206000915090508060000154908060010154908060020160009054906101000a900460ff16908060030154905084565b60036020528060005260406000206000915090508060000154908060010160009054906101000a900473ffffffffffffffffffffffffffffffffffffffff16908060020154908060030160405180610140016040529081600082018054806020026020016040519081016040528092919081815260200182805480156112ea57602002820191906000526020600020905b8154815260200190600101908083116112d6575b50505050508152602001600182015481526020016002820160009054906101000a900461ffff1661ffff1661ffff1681526020016003820180548060200260200160405190810160405280929190818152602001828054801561136c57602002820191906000526020600020905b815481526020019060010190808311611358575b5050505050815260200160048201548152602001600582015481526020016006820160009054906101000a900473ffffffffffffffffffffffffffffffffffffffff1673ffffffffffffffffffffffffffffffffffffffff1673ffffffffffffffffffffffffffffffffffffffff16815260200160078201548152602001600882015481526020016009820154815250509080600e0160009054906101000a900460ff16905085565b61141d612366565b600460008373ffffffffffffffffffffffffffffffffffffffff1673ffffffffffffffffffffffffffffffffffffffff16815260200190815260200160002060405180608001604052908160008201548152602001600182015481526020016002820160009054906101000a900460ff161515151581526020016003820154815250509050919050565b60006114b1611eb0565b905060008160000160089054906101000a900460ff1615905060008260000160009054906101000a900467ffffffffffffffff1690506000808267ffffffffffffffff161480156114ff5750825b9050600060018367ffffffffffffffff16148015611534575060003073ffffffffffffffffffffffffffffffffffffffff163b145b905081158015611542575080155b15611579576040517ff92ee8a900000000000000000000000000000000000000000000000000000000815260040160405180910390fd5b60018560000160006101000a81548167ffffffffffffffff021916908367ffffffffffffffff16021790555083156115c95760018560000160086101000a81548160ff0219169083151502179055505b6115d1611ed8565b6115d9611ee2565b6115e66000801b8c6118b6565b506116117f189ab7a9244df0848122154315af71fe140f3db0fe014031783b0946b8c9d2e38b6118b6565b50886000806101000a81548173ffffffffffffffffffffffffffffffffffffffff021916908373ffffffffffffffffffffffffffffffffffffffff16021790555087600160006101000a81548173ffffffffffffffffffffffffffffffffffffffff021916908373ffffffffffffffffffffffffffffffffffffffff16021790555086600260006101000a81548173ffffffffffffffffffffffffffffffffffffffff021916908373ffffffffffffffffffffffffffffffffffffffff16021790555085600560006101000a81548173ffffffffffffffffffffffffffffffffffffffff021916908373ffffffffffffffffffffffffffffffffffffffff16021790555083156117715760008560000160086101000a81548160ff0219169083151502179055507fc7f505b2f371ae2175ee4913f4499e1f2633a7b5936321eed1cdaeb6115181d26001604051611768919061385f565b60405180910390a15b5050505050505050505050565b600260009054906101000a900473ffffffffffffffffffffffffffffffffffffffff1681565b600560009054906101000a900473ffffffffffffffffffffffffffffffffffffffff1681565b6117d38261069e565b6117dc816118a2565b6117e683836119bf565b50505050565b7f189ab7a9244df0848122154315af71fe140f3db0fe014031783b0946b8c9d2e381565b60007f01ffc9a7000000000000000000000000000000000000000000000000000000007bffffffffffffffffffffffffffffffffffffffffffffffffffffffff1916827bffffffffffffffffffffffffffffffffffffffffffffffffffffffff1916149050919050565b60007f02dd7bc7dec4dceedda775e58dd541e08a116c6c53815c0bd028192f7b626800905090565b6118b3816118ae6119b7565b611eec565b50565b6000806118c161187a565b90506118cd8484610b0b565b6119ab57600181600001600086815260200190815260200160002060000160008573ffffffffffffffffffffffffffffffffffffffff1673ffffffffffffffffffffffffffffffffffffffff16815260200190815260200160002060006101000a81548160ff0219169083151502179055506119476119b7565b73ffffffffffffffffffffffffffffffffffffffff168373ffffffffffffffffffffffffffffffffffffffff16857f2f8788117e7eff1d82e926ec794901d17c78024a50270940304540a733656f0d60405160405180910390a460019150506119b1565b60009150505b92915050565b600033905090565b6000806119ca61187a565b90506119d68484610b0b565b15611ab557600081600001600086815260200190815260200160002060000160008573ffffffffffffffffffffffffffffffffffffffff1673ffffffffffffffffffffffffffffffffffffffff16815260200190815260200160002060006101000a81548160ff021916908315150217905550611a516119b7565b73ffffffffffffffffffffffffffffffffffffffff168373ffffffffffffffffffffffffffffffffffffffff16857ff6391f5c32d9c69d2a47ea670b442974b53935d1edc7fd64eb21e047a839171b60405160405180910390a46001915050611abb565b60009150505b92915050565b611b598282604051602401611ad792919061387a565b6040516020818303038152906040527fb60e72cc000000000000000000000000000000000000000000000000000000007bffffffffffffffffffffffffffffffffffffffffffffffffffffffff19166020820180517bffffffffffffffffffffffffffffffffffffffffffffffffffffffff8381831617835250505050611f3d565b5050565b7f000000000000000000000000000000000000000000000000000000000000000073ffffffffffffffffffffffffffffffffffffffff163073ffffffffffffffffffffffffffffffffffffffff161480611c0a57507f000000000000000000000000000000000000000000000000000000000000000073ffffffffffffffffffffffffffffffffffffffff16611bf1611f57565b73ffffffffffffffffffffffffffffffffffffffff1614155b15611c41576040517fe07c8dba00000000000000000000000000000000000000000000000000000000815260040160405180910390fd5b565b7f189ab7a9244df0848122154315af71fe140f3db0fe014031783b0946b8c9d2e3611c6d816118a2565b5050565b8173ffffffffffffffffffffffffffffffffffffffff166352d1902d6040518163ffffffff1660e01b8152600401602060405180830381865afa925050508015611cd957506040513d601f19601f82011682018060405250810190611cd691906138bf565b60015b611d1a57816040517f4c9c8ce3000000000000000000000000000000000000000000000000000000008152600401611d1191906138ec565b60405180910390fd5b7f360894a13ba1a3210667c828492db98dca3e2076cc3735a920a3ca505d382bbc60001b8114611d8157806040517faa1d49a4000000000000000000000000000000000000000000000000000000008152600401611d789190612583565b60405180910390fd5b611d8b8383611fae565b505050565b7f000000000000000000000000000000000000000000000000000000000000000073ffffffffffffffffffffffffffffffffffffffff163073ffffffffffffffffffffffffffffffffffffffff1614611e15576040517fe07c8dba00000000000000000000000000000000000000000000000000000000815260040160405180910390fd5b565b611ead81604051602401611e2b9190613907565b6040516020818303038152906040527ff82c50f1000000000000000000000000000000000000000000000000000000007bffffffffffffffffffffffffffffffffffffffffffffffffffffffff19166020820180517bffffffffffffffffffffffffffffffffffffffffffffffffffffffff8381831617835250505050611f3d565b50565b60007ff0c57e16840df040f15088dc2f81fe391c3923bec73e23a9662efc9c229c6a00905090565b611ee0612021565b565b611eea612021565b565b611ef68282610b0b565b611f395780826040517fe2517d3f000000000000000000000000000000000000000000000000000000008152600401611f30929190613922565b60405180910390fd5b5050565b611f5481611f4c612061612082565b63ffffffff16565b50565b6000611f857f360894a13ba1a3210667c828492db98dca3e2076cc3735a920a3ca505d382bbc60001b61208d565b60000160009054906101000a900473ffffffffffffffffffffffffffffffffffffffff16905090565b611fb782612097565b8173ffffffffffffffffffffffffffffffffffffffff167fbc7cd75a20ee27fd9adebab32041f755214dbc6bffa90cc0225b39da2e5c2d3b60405160405180910390a26000815111156120145761200e8282612164565b5061201d565b61201c6121e8565b5b5050565b612029612225565b61205f576040517fd7e6bcf800000000000000000000000000000000000000000000000000000000815260040160405180910390fd5b565b60006a636f6e736f6c652e6c6f679050600080835160208501845afa505050565b612390819050919050565b6000819050919050565b60008173ffffffffffffffffffffffffffffffffffffffff163b036120f357806040517f4c9c8ce30000000000000000000000000000000000000000000000000000000081526004016120ea91906138ec565b60405180910390fd5b806121207f360894a13ba1a3210667c828492db98dca3e2076cc3735a920a3ca505d382bbc60001b61208d565b60000160006101000a81548173ffffffffffffffffffffffffffffffffffffffff021916908373ffffffffffffffffffffffffffffffffffffffff16021790555050565b60606000808473ffffffffffffffffffffffffffffffffffffffff168460405161218e9190613987565b600060405180830381855af49150503d80600081146121c9576040519150601f19603f3d011682016040523d82523d6000602084013e6121ce565b606091505b50915091506121de858383612245565b9250505092915050565b6000341115612223576040517fb398979f00000000000000000000000000000000000000000000000000000000815260040160405180910390fd5b565b600061222f611eb0565b60000160089054906101000a900460ff16905090565b60608261225a57612255826122d4565b6122cc565b60008251148015612282575060008473ffffffffffffffffffffffffffffffffffffffff163b145b156122c457836040517f9996b3150000000000000000000000000000000000000000000000000000000081526004016122bb91906138ec565b60405180910390fd5b8190506122cd565b5b9392505050565b6000815111156122e75780518082602001fd5b6040517f1425ea4200000000000000000000000000000000000000000000000000000000815260040160405180910390fd5b828054828255906000526020600020908101928215612355579160200282015b82811115612354578251825591602001919060010190612339565b5b509050612362919061239a565b5090565b60405180608001604052806000815260200160008152602001600015158152602001600081525090565b61239861399e565b565b5b808211156123b357600081600090555060010161239b565b5090565b6000604051905090565b600080fd5b600080fd5b60007fffffffff0000000000000000000000000000000000000000000000000000000082169050919050565b612400816123cb565b811461240b57600080fd5b50565b60008135905061241d816123f7565b92915050565b600060208284031215612439576124386123c1565b5b60006124478482850161240e565b91505092915050565b60008115159050919050565b61246581612450565b82525050565b6000602082019050612480600083018461245c565b92915050565b600073ffffffffffffffffffffffffffffffffffffffff82169050919050565b60006124b182612486565b9050919050565b6124c1816124a6565b81146124cc57600080fd5b50565b6000813590506124de816124b8565b92915050565b6000602082840312156124fa576124f96123c1565b5b6000612508848285016124cf565b91505092915050565b6000819050919050565b61252481612511565b811461252f57600080fd5b50565b6000813590506125418161251b565b92915050565b60006020828403121561255d5761255c6123c1565b5b600061256b84828501612532565b91505092915050565b61257d81612511565b82525050565b60006020820190506125986000830184612574565b92915050565b600080604083850312156125b5576125b46123c1565b5b60006125c385828601612532565b92505060206125d4858286016124cf565b9150509250929050565b6000819050919050565b6125f1816125de565b81146125fc57600080fd5b50565b60008135905061260e816125e8565b92915050565b6000806040838503121561262b5761262a6123c1565b5b6000612639858286016125ff565b925050602061264a858286016125ff565b9150509250929050565b6000819050919050565b600061267961267461266f84612486565b612654565b612486565b9050919050565b600061268b8261265e565b9050919050565b600061269d82612680565b9050919050565b6126ad81612692565b82525050565b60006020820190506126c860008301846126a4565b92915050565b600080fd5b600080fd5b6000601f19601f8301169050919050565b7f4e487b7100000000000000000000000000000000000000000000000000000000600052604160045260246000fd5b612721826126d8565b810181811067ffffffffffffffff821117156127405761273f6126e9565b5b80604052505050565b60006127536123b7565b905061275f8282612718565b919050565b600067ffffffffffffffff82111561277f5761277e6126e9565b5b612788826126d8565b9050602081019050919050565b82818337600083830152505050565b60006127b76127b284612764565b612749565b9050828152602081018484840111156127d3576127d26126d3565b5b6127de848285612795565b509392505050565b600082601f8301126127fb576127fa6126ce565b5b813561280b8482602086016127a4565b91505092915050565b6000806040838503121561282b5761282a6123c1565b5b6000612839858286016124cf565b925050602083013567ffffffffffffffff81111561285a576128596123c6565b5b612866858286016127e6565b9150509250929050565b600061287b82612680565b9050919050565b61288b81612870565b82525050565b60006020820190506128a66000830184612882565b92915050565b600080fd5b600061014082840312156128c8576128c76128ac565b5b81905092915050565b6000602082840312156128e7576128e66123c1565b5b600082013567ffffffffffffffff811115612905576129046123c6565b5b612911848285016128b1565b91505092915050565b600081519050919050565b600082825260208201905092915050565b60005b83811015612954578082015181840152602081019050612939565b60008484015250505050565b600061296b8261291a565b6129758185612925565b9350612985818560208601612936565b61298e816126d8565b840191505092915050565b600060208201905081810360008301526129b38184612960565b905092915050565b6129c4816125de565b82525050565b60006080820190506129df60008301876129bb565b6129ec60208301866129bb565b6129f9604083018561245c565b612a0660608301846129bb565b95945050505050565b600060208284031215612a2557612a246123c1565b5b6000612a33848285016125ff565b91505092915050565b612a45816124a6565b82525050565b600081519050919050565b600082825260208201905092915050565b6000819050602082019050919050565b612a80816125de565b82525050565b6000612a928383612a77565b60208301905092915050565b6000602082019050919050565b6000612ab682612a4b565b612ac08185612a56565b9350612acb83612a67565b8060005b83811015612afc578151612ae38882612a86565b9750612aee83612a9e565b925050600181019050612acf565b5085935050505092915050565b600061ffff82169050919050565b612b2081612b09565b82525050565b612b2f816124a6565b82525050565b6000610140830160008301518482036000860152612b538282612aab565b9150506020830151612b686020860182612a77565b506040830151612b7b6040860182612b17565b5060608301518482036060860152612b938282612aab565b9150506080830151612ba86080860182612a77565b5060a0830151612bbb60a0860182612a77565b5060c0830151612bce60c0860182612b26565b5060e0830151612be160e0860182612a77565b50610100830151612bf6610100860182612a77565b50610120830151612c0b610120860182612a77565b508091505092915050565b600060a082019050612c2b60008301886129bb565b612c386020830187612a3c565b612c4560408301866129bb565b8181036060830152612c578185612b35565b9050612c66608083018461245c565b9695505050505050565b612c7981612450565b82525050565b608082016000820151612c956000850182612a77565b506020820151612ca86020850182612a77565b506040820151612cbb6040850182612c70565b506060820151612cce6060850182612a77565b50505050565b6000608082019050612ce96000830184612c7f565b92915050565b60008060008060008060c08789031215612d0c57612d0b6123c1565b5b6000612d1a89828a016124cf565b9650506020612d2b89828a016124cf565b9550506040612d3c89828a016124cf565b9450506060612d4d89828a016124cf565b9350506080612d5e89828a016124cf565b92505060a0612d6f89828a016124cf565b9150509295509295509295565b6000612d8782612680565b9050919050565b612d9781612d7c565b82525050565b6000602082019050612db26000830184612d8e565b92915050565b6000612dc38261265e565b9050919050565b6000612dd582612db8565b9050919050565b612de581612dca565b82525050565b6000602082019050612e006000830184612ddc565b92915050565b7f4e6f2070656e64696e6720617474656d7074206f7220616c726561647920707260008201527f6f63657373656400000000000000000000000000000000000000000000000000602082015250565b6000612e62602783612925565b9150612e6d82612e06565b604082019050919050565b60006020820190508181036000830152612e9181612e55565b9050919050565b7f4e487b7100000000000000000000000000000000000000000000000000000000600052601260045260246000fd5b6000612ed2826125de565b9150612edd836125de565b925082612eed57612eec612e98565b5b828206905092915050565b600081549050919050565b600082825260208201905092915050565b60008190508160005260206000209050919050565b60008160001c9050919050565b6000819050919050565b6000612f53612f4e83612f29565b612f36565b9050919050565b6000612f668254612f40565b9050919050565b6000600182019050919050565b6000612f8582612ef8565b612f8f8185612f03565b9350612f9a83612f14565b8060005b83811015612fd257612faf82612f5a565b612fb98882612a86565b9750612fc483612f6d565b925050600181019050612f9e565b5085935050505092915050565b600060c082019050612ff460008301896129bb565b613001602083018861245c565b81810360408301526130138187612960565b905061302260608301866129bb565b61302f60808301856129bb565b81810360a08301526130418184612f7a565b9050979650505050505050565b7f496e636f727265637420656e7472792066656500000000000000000000000000600082015250565b6000613084601383612925565b915061308f8261304e565b602082019050919050565b600060208201905081810360008301526130b381613077565b9050919050565b7f496e76616c69642077696e207065726300000000000000000000000000000000600082015250565b60006130f0601083612925565b91506130fb826130ba565b602082019050919050565b6000602082019050818103600083015261311f816130e3565b9050919050565b7f496e76616c696420636861726163746572204944000000000000000000000000600082015250565b600061315c601483612925565b915061316782613126565b602082019050919050565b6000602082019050818103600083015261318b8161314f565b9050919050565b600081905092915050565b50565b60006131ad600083613192565b91506131b88261319d565b600082019050919050565b60006131ce826131a0565b9150819050919050565b7f4661696c656420746f2073656e6420457468657220746f205472656173757279600082015250565b600061320e602083612925565b9150613219826131d8565b602082019050919050565b6000602082019050818103600083015261323d81613201565b9050919050565b600080fd5b600080fd5b600080fd5b600080833560016020038436030381126132705761326f613244565b5b80840192508235915067ffffffffffffffff82111561329257613291613249565b5b6020830192506020820236038313156132ae576132ad61324e565b5b509250929050565b6132bf81612b09565b81146132ca57600080fd5b50565b6000813590506132dc816132b6565b92915050565b6000602082840312156132f8576132f76123c1565b5b6000613306848285016132cd565b91505092915050565b600080fd5b82818337505050565b60006133298385612f03565b93507f07ffffffffffffffffffffffffffffffffffffffffffffffffffffffffffffff83111561335c5761335b61330f565b5b60208302925061336d838584613314565b82840190509392505050565b61338281612b09565b82525050565b600060408201905081810360008301526133a381858761331d565b90506133b26020830184613379565b949350505050565b600067ffffffffffffffff8211156133d5576133d46126e9565b5b602082029050602081019050919050565b600080fd5b6000815190506133fa816125e8565b92915050565b600061341361340e846133ba565b612749565b90508083825260208201905060208402830185811115613436576134356133e6565b5b835b8181101561345f578061344b88826133eb565b845260208401935050602081019050613438565b5050509392505050565b600082601f83011261347e5761347d6126ce565b5b815161348e848260208601613400565b91505092915050565b6000602082840312156134ad576134ac6123c1565b5b600082015167ffffffffffffffff8111156134cb576134ca6123c6565b5b6134d784828501613469565b91505092915050565b60006060820190506134f560008301876129bb565b61350260208301866129bb565b818103604083015261351581848661331d565b905095945050505050565b6000819050919050565b600063ffffffff82169050919050565b600061355561355061354b84613520565b612654565b61352a565b9050919050565b6135658161353a565b82525050565b7f4e487b7100000000000000000000000000000000000000000000000000000000600052602160045260246000fd5b600181106135ab576135aa61356b565b5b50565b60008190506135bc8261359a565b919050565b60006135cc826135ae565b9050919050565b6135dc816135c1565b82525050565b60006040820190506135f7600083018561355c565b61360460208301846135d3565b9392505050565b600060208284031215613621576136206123c1565b5b600061362f848285016133eb565b91505092915050565b600080fd5b600080fd5b6000613655613650846133ba565b612749565b90508083825260208201905060208402830185811115613678576136776133e6565b5b835b818110156136a1578061368d88826125ff565b84526020840193505060208101905061367a565b5050509392505050565b600082601f8301126136c0576136bf6126ce565b5b81356136d0848260208601613642565b91505092915050565b600061014082840312156136f0576136ef613638565b5b6136fb610140612749565b9050600082013567ffffffffffffffff81111561371b5761371a61363d565b5b613727848285016136ab565b600083015250602061373b848285016125ff565b602083015250604061374f848285016132cd565b604083015250606082013567ffffffffffffffff8111156137735761377261363d565b5b61377f848285016136ab565b6060830152506080613793848285016125ff565b60808301525060a06137a7848285016125ff565b60a08301525060c06137bb848285016124cf565b60c08301525060e06137cf848285016125ff565b60e0830152506101006137e4848285016125ff565b610100830152506101206137fa848285016125ff565b6101208301525092915050565b600061381336836136d9565b9050919050565b600067ffffffffffffffff82169050919050565b600061384961384461383f84613520565b612654565b61381a565b9050919050565b6138598161382e565b82525050565b60006020820190506138746000830184613850565b92915050565b600060408201905081810360008301526138948185612960565b90506138a360208301846129bb565b9392505050565b6000815190506138b98161251b565b92915050565b6000602082840312156138d5576138d46123c1565b5b60006138e3848285016138aa565b91505092915050565b60006020820190506139016000830184612a3c565b92915050565b600060208201905061391c60008301846129bb565b92915050565b60006040820190506139376000830185612a3c565b6139446020830184612574565b9392505050565b600081519050919050565b60006139618261394b565b61396b8185613192565b935061397b818560208601612936565b80840191505092915050565b60006139938284613956565b915081905092915050565b7f4e487b7100000000000000000000000000000000000000000000000000000000600052605160045260246000fdfea264697066735822122068766b76a63964a3d1f3b1b5eed3dac6277da3cacd77ad0d35ae0f714ba16a6064736f6c63430008140033",
  "linkReferences": {},
  "deployedLinkReferences": {}
}