{
  "_format": "hh-sol-artifact-1",
  "contractName": "GameMarketplace",
  "sourceName": "contracts/GameMarketplace.sol",
  "abi": [
    {
      "inputs": [],
      "stateMutability": "nonpayable",
      "type": "constructor"
    },
    {
      "inputs": [
        {
          "internalType": "address",
          "name": "target",
          "type": "address"
        }
      ],
      "name": "AddressEmptyCode",
      "type": "error"
    },
    {
      "inputs": [],
      "name": "ECDSAInvalidSignature",
      "type": "error"
    },
    {
      "inputs": [
        {
          "internalType": "uint256",
          "name": "length",
          "type": "uint256"
        }
      ],
      "name": "ECDSAInvalidSignatureLength",
      "type": "error"
    },
    {
      "inputs": [
        {
          "internalType": "bytes32",
          "name": "s",
          "type": "bytes32"
        }
      ],
      "name": "ECDSAInvalidSignatureS",
      "type": "error"
    },
    {
      "inputs": [
        {
          "internalType": "address",
          "name": "implementation",
          "type": "address"
        }
      ],
      "name": "ERC1967InvalidImplementation",
      "type": "error"
    },
    {
      "inputs": [],
      "name": "ERC1967NonPayable",
      "type": "error"
    },
    {
      "inputs": [],
      "name": "FailedInnerCall",
      "type": "error"
    },
    {
      "inputs": [],
      "name": "InvalidInitialization",
      "type": "error"
    },
    {
      "inputs": [],
      "name": "NotInitializing",
      "type": "error"
    },
    {
      "inputs": [
        {
          "internalType": "address",
          "name": "owner",
          "type": "address"
        }
      ],
      "name": "OwnableInvalidOwner",
      "type": "error"
    },
    {
      "inputs": [
        {
          "internalType": "address",
          "name": "account",
          "type": "address"
        }
      ],
      "name": "OwnableUnauthorizedAccount",
      "type": "error"
    },
    {
      "inputs": [],
      "name": "ReentrancyGuardReentrantCall",
      "type": "error"
    },
    {
      "inputs": [],
      "name": "UUPSUnauthorizedCallContext",
      "type": "error"
    },
    {
      "inputs": [
        {
          "internalType": "bytes32",
          "name": "slot",
          "type": "bytes32"
        }
      ],
      "name": "UUPSUnsupportedProxiableUUID",
      "type": "error"
    },
    {
      "anonymous": false,
      "inputs": [
        {
          "indexed": false,
          "internalType": "uint64",
          "name": "version",
          "type": "uint64"
        }
      ],
      "name": "Initialized",
      "type": "event"
    },
    {
      "anonymous": false,
      "inputs": [
        {
          "indexed": true,
          "internalType": "address",
          "name": "nftAddress",
          "type": "address"
        },
        {
          "indexed": true,
          "internalType": "uint256",
          "name": "tokenId",
          "type": "uint256"
        },
        {
          "indexed": false,
          "internalType": "address",
          "name": "buyer",
          "type": "address"
        },
        {
          "indexed": false,
          "internalType": "uint256",
          "name": "price",
          "type": "uint256"
        },
        {
          "indexed": false,
          "internalType": "uint256[]",
          "name": "itemTokenIds",
          "type": "uint256[]"
        },
        {
          "indexed": false,
          "internalType": "string",
          "name": "itemType",
          "type": "string"
        },
        {
          "indexed": false,
          "internalType": "uint256",
          "name": "power",
          "type": "uint256"
        },
        {
          "indexed": false,
          "internalType": "uint256",
          "name": "durability",
          "type": "uint256"
        },
        {
          "indexed": false,
          "internalType": "string",
          "name": "characterOwner",
          "type": "string"
        },
        {
          "indexed": false,
          "internalType": "string",
          "name": "imageUrl",
          "type": "string"
        }
      ],
      "name": "ItemBought",
      "type": "event"
    },
    {
      "anonymous": false,
      "inputs": [
        {
          "indexed": true,
          "internalType": "address",
          "name": "nftAddress",
          "type": "address"
        },
        {
          "indexed": true,
          "internalType": "uint256",
          "name": "tokenId",
          "type": "uint256"
        },
        {
          "indexed": false,
          "internalType": "address",
          "name": "seller",
          "type": "address"
        },
        {
          "indexed": false,
          "internalType": "uint256",
          "name": "price",
          "type": "uint256"
        },
        {
          "indexed": false,
          "internalType": "uint256[]",
          "name": "itemTokenIds",
          "type": "uint256[]"
        },
        {
          "indexed": false,
          "internalType": "string",
          "name": "itemType",
          "type": "string"
        },
        {
          "indexed": false,
          "internalType": "uint256",
          "name": "power",
          "type": "uint256"
        },
        {
          "indexed": false,
          "internalType": "uint256",
          "name": "durability",
          "type": "uint256"
        },
        {
          "indexed": false,
          "internalType": "string",
          "name": "characterOwner",
          "type": "string"
        },
        {
          "indexed": false,
          "internalType": "string",
          "name": "imageUrl",
          "type": "string"
        }
      ],
      "name": "ItemListed",
      "type": "event"
    },
    {
      "anonymous": false,
      "inputs": [
        {
          "indexed": true,
          "internalType": "address",
          "name": "nftAddress",
          "type": "address"
        },
        {
          "indexed": true,
          "internalType": "uint256",
          "name": "tokenId",
          "type": "uint256"
        }
      ],
      "name": "ListingCancelled",
      "type": "event"
    },
    {
      "anonymous": false,
      "inputs": [
        {
          "indexed": true,
          "internalType": "address",
          "name": "previousOwner",
          "type": "address"
        },
        {
          "indexed": true,
          "internalType": "address",
          "name": "newOwner",
          "type": "address"
        }
      ],
      "name": "OwnershipTransferred",
      "type": "event"
    },
    {
      "anonymous": false,
      "inputs": [
        {
          "indexed": true,
          "internalType": "address",
          "name": "nftAddress",
          "type": "address"
        },
        {
          "indexed": true,
          "internalType": "uint256",
          "name": "tokenId",
          "type": "uint256"
        },
        {
          "indexed": false,
          "internalType": "uint256",
          "name": "newPrice",
          "type": "uint256"
        }
      ],
      "name": "PriceChanged",
      "type": "event"
    },
    {
      "anonymous": false,
      "inputs": [
        {
          "indexed": true,
          "internalType": "address",
          "name": "implementation",
          "type": "address"
        }
      ],
      "name": "Upgraded",
      "type": "event"
    },
    {
      "inputs": [],
      "name": "UPGRADE_INTERFACE_VERSION",
      "outputs": [
        {
          "internalType": "string",
          "name": "",
          "type": "string"
        }
      ],
      "stateMutability": "view",
      "type": "function"
    },
    {
      "inputs": [
        {
          "internalType": "address",
          "name": "nftAddress",
          "type": "address"
        },
        {
          "internalType": "uint256",
          "name": "tokenId",
          "type": "uint256"
        },
        {
          "internalType": "uint256",
          "name": "tokenAmount",
          "type": "uint256"
        }
      ],
      "name": "buyItem",
      "outputs": [],
      "stateMutability": "nonpayable",
      "type": "function"
    },
    {
      "inputs": [
        {
          "internalType": "address",
          "name": "nftAddress",
          "type": "address"
        },
        {
          "internalType": "uint256",
          "name": "tokenId",
          "type": "uint256"
        }
      ],
      "name": "cancelListing",
      "outputs": [],
      "stateMutability": "nonpayable",
      "type": "function"
    },
    {
      "inputs": [
        {
          "internalType": "address",
          "name": "nftAddress",
          "type": "address"
        },
        {
          "internalType": "uint256",
          "name": "tokenId",
          "type": "uint256"
        },
        {
          "internalType": "uint256",
          "name": "newPrice",
          "type": "uint256"
        }
      ],
      "name": "changePrice",
      "outputs": [],
      "stateMutability": "nonpayable",
      "type": "function"
    },
    {
      "inputs": [],
      "name": "characterContract",
      "outputs": [
        {
          "internalType": "contract CreateCharacter",
          "name": "",
          "type": "address"
        }
      ],
      "stateMutability": "view",
      "type": "function"
    },
    {
      "inputs": [],
      "name": "gameTreasury",
      "outputs": [
        {
          "internalType": "contract GameTreasury",
          "name": "",
          "type": "address"
        }
      ],
      "stateMutability": "view",
      "type": "function"
    },
    {
      "inputs": [
        {
          "internalType": "address",
          "name": "initialOwner",
          "type": "address"
        },
        {
          "internalType": "address",
          "name": "_itemContract",
          "type": "address"
        },
        {
          "internalType": "address",
          "name": "_characterContract",
          "type": "address"
        },
        {
          "internalType": "address",
          "name": "_gameTreasuryAddress",
          "type": "address"
        },
        {
          "internalType": "address",
          "name": "_paymentToken",
          "type": "address"
        },
        {
          "internalType": "address",
          "name": "_authorizedSigner",
          "type": "address"
        }
      ],
      "name": "initialize",
      "outputs": [],
      "stateMutability": "nonpayable",
      "type": "function"
    },
    {
      "inputs": [],
      "name": "itemContract",
      "outputs": [
        {
          "internalType": "contract MintItem",
          "name": "",
          "type": "address"
        }
      ],
      "stateMutability": "view",
      "type": "function"
    },
    {
      "inputs": [
        {
          "internalType": "address",
          "name": "nftAddress",
          "type": "address"
        },
        {
          "internalType": "uint256",
          "name": "tokenId",
          "type": "uint256"
        },
        {
          "internalType": "uint256",
          "name": "price",
          "type": "uint256"
        },
        {
          "internalType": "uint256[]",
          "name": "itemTokenIds",
          "type": "uint256[]"
        },
        {
          "internalType": "string",
          "name": "itemType",
          "type": "string"
        },
        {
          "internalType": "uint256",
          "name": "power",
          "type": "uint256"
        },
        {
          "internalType": "uint256",
          "name": "durability",
          "type": "uint256"
        },
        {
          "internalType": "string",
          "name": "characterOwner",
          "type": "string"
        },
        {
          "internalType": "string",
          "name": "imageUrl",
          "type": "string"
        },
        {
          "internalType": "bytes",
          "name": "signature",
          "type": "bytes"
        }
      ],
      "name": "listItemForSale",
      "outputs": [],
      "stateMutability": "nonpayable",
      "type": "function"
    },
    {
      "inputs": [
        {
          "internalType": "address",
          "name": "",
          "type": "address"
        },
        {
          "internalType": "uint256",
          "name": "",
          "type": "uint256"
        }
      ],
      "name": "listings",
      "outputs": [
        {
          "internalType": "uint256",
          "name": "tokenId",
          "type": "uint256"
        },
        {
          "internalType": "address payable",
          "name": "seller",
          "type": "address"
        },
        {
          "internalType": "uint256",
          "name": "price",
          "type": "uint256"
        },
        {
          "internalType": "bool",
          "name": "isActive",
          "type": "bool"
        },
        {
          "internalType": "string",
          "name": "itemType",
          "type": "string"
        },
        {
          "internalType": "uint256",
          "name": "power",
          "type": "uint256"
        },
        {
          "internalType": "uint256",
          "name": "durability",
          "type": "uint256"
        },
        {
          "internalType": "string",
          "name": "characterOwner",
          "type": "string"
        },
        {
          "internalType": "string",
          "name": "imageUrl",
          "type": "string"
        }
      ],
      "stateMutability": "view",
      "type": "function"
    },
    {
      "inputs": [],
      "name": "owner",
      "outputs": [
        {
          "internalType": "address",
          "name": "",
          "type": "address"
        }
      ],
      "stateMutability": "view",
      "type": "function"
    },
    {
      "inputs": [],
      "name": "paymentToken",
      "outputs": [
        {
          "internalType": "contract IERC20",
          "name": "",
          "type": "address"
        }
      ],
      "stateMutability": "view",
      "type": "function"
    },
    {
      "inputs": [],
      "name": "proxiableUUID",
      "outputs": [
        {
          "internalType": "bytes32",
          "name": "",
          "type": "bytes32"
        }
      ],
      "stateMutability": "view",
      "type": "function"
    },
    {
      "inputs": [],
      "name": "renounceOwnership",
      "outputs": [],
      "stateMutability": "nonpayable",
      "type": "function"
    },
    {
      "inputs": [
        {
          "internalType": "address",
          "name": "_authorizedSigner",
          "type": "address"
        }
      ],
      "name": "setAuthorizedSigner",
      "outputs": [],
      "stateMutability": "nonpayable",
      "type": "function"
    },
    {
      "inputs": [
        {
          "internalType": "address",
          "name": "_newCreateCharacterContract",
          "type": "address"
        }
      ],
      "name": "setCreateCharacterContractAddress",
      "outputs": [],
      "stateMutability": "nonpayable",
      "type": "function"
    },
    {
      "inputs": [
        {
          "internalType": "address",
          "name": "_gameTreasuryAddress",
          "type": "address"
        }
      ],
      "name": "setGameTreasuryAddress",
      "outputs": [],
      "stateMutability": "nonpayable",
      "type": "function"
    },
    {
      "inputs": [
        {
          "internalType": "address",
          "name": "_itemContract",
          "type": "address"
        }
      ],
      "name": "setMintItemAddress",
      "outputs": [],
      "stateMutability": "nonpayable",
      "type": "function"
    },
    {
      "inputs": [
        {
          "internalType": "address",
          "name": "_tokenAddress",
          "type": "address"
        }
      ],
      "name": "setPaymentToken",
      "outputs": [],
      "stateMutability": "nonpayable",
      "type": "function"
    },
    {
      "inputs": [
        {
          "internalType": "address",
          "name": "newOwner",
          "type": "address"
        }
      ],
      "name": "transferOwnership",
      "outputs": [],
      "stateMutability": "nonpayable",
      "type": "function"
    },
    {
      "inputs": [
        {
          "internalType": "address",
          "name": "newImplementation",
          "type": "address"
        },
        {
          "internalType": "bytes",
          "name": "data",
          "type": "bytes"
        }
      ],
      "name": "upgradeToAndCall",
      "outputs": [],
      "stateMutability": "payable",
      "type": "function"
    }
  ],
  "bytecode": "0x60a080604052346100cc57306080527ff0c57e16840df040f15088dc2f81fe391c3923bec73e23a9662efc9c229c6a009081549060ff8260401c166100bd57506001600160401b036002600160401b031982821601610078575b60405161254590816100d28239608051818181610dab0152610e640152f35b6001600160401b031990911681179091556040519081527fc7f505b2f371ae2175ee4913f4499e1f2633a7b5936321eed1cdaeb6115181d290602090a1388080610059565b63f92ee8a960e01b8152600490fd5b600080fdfe6080604052600436101561001257600080fd5b6000803560e01c806207df30146119ae5780632bb89b84146110d85780633013ce29146110af5780633b828cb11461106f57806343b60f74146110465780634f1ef28614610e1557806352d1902d14610d985780636a326ab114610d58578063715018a614610cee578063741cbae414610c695780638d76f94014610c405780638da5cb5b14610c0a578063a1365bf114610bca578063ad3cb1cc14610b80578063af01195214610b40578063b2ddee0614610ab2578063cc2a9a5b146108cf578063d279b0ca1461088f578063d2f9efab14610866578063f2fde38b146108395763f6b45c461461010357600080fd5b346108365761011136611cb5565b60026000805160206124f083398151915254146108245760026000805160206124f08339815191525560018060a01b0383168452836020526040842082855260205260408420918254926004810192600582019561019f600184019660018060a01b038854169060405161019081610189818c612362565b0382611b27565b6101998b611b48565b91612053565b1561079357600383019660ff8854161561075657600284015483036106fb5782600a81048103116106e757600480546003546040516323b872dd60e01b815233938101939093526001600160a01b039081166024840152600a86046044840152602091839160649183918f91165af1908115610678578a916106c8575b5015610683576004805488546040516323b872dd60e01b815233938101939093526001600160a01b039081166024840152600a860486036044840152602091839160649183918f91165af1908115610678578a91610649575b501561060457604051602081018161028d82856123b7565b03916102a1601f1993848101835282611b27565b5190206040516020810190636d616c6560e01b8252600481526102c381611b0c565b519020149081156105b2575b50156104c35760025487548a916001600160a01b039182169116803b156104bf576040516323b872dd60e01b81526001600160a01b039290921660048301523360248301526044820188905282908290606490829084905af180156103d0576104a7575b505b86548110156103df57868a5260208a2081015460015489548c926001600160a01b039283169290911690823b156103db576040516323b872dd60e01b81526001600160a01b0392909216600483015233602483015260448201529082908290606490829084905af180156103d0576103b8575b50506103b39061202e565b610335565b6103c190611ae3565b6103cc5789386103a8565b8980fd5b6040513d84823e3d90fd5b8380fd5b5061048f929396506104756009917feda7c24be6112a64ccfde64f3c8c5ece34ec7b0d773887a96cf07d4f726449f49796995b60ff19815416905560068901549061045960078b01549161044b6040519a8b9a338c5260208c01526101008060408d01528b0190612362565b9089820360608b015261243a565b91608088015260a087015285810360c08701526008890161243a565b84810360e08601526001600160a01b03909216960161243a565b0390a360016000805160206124f08339815191525580f35b6104b090611ae3565b6104bb578838610333565b8880fd5b8280fd5b9193969092958860018060a01b03600154169160018060a01b03905416823b156105ae576040516323b872dd60e01b81526001600160a01b03919091166004820152336024820152604481018a9052918290606490829084905af180156105a35761055d575b5091600961047561048f937feda7c24be6112a64ccfde64f3c8c5ece34ec7b0d773887a96cf07d4f726449f4979695610412565b61047561048f937feda7c24be6112a64ccfde64f3c8c5ece34ec7b0d773887a96cf07d4f726449f4979695939a610595600994611ae3565b9a9395969750935050610529565b6040513d8b823e3d90fd5b5080fd5b90506040516105d66020820192826105ca85876123b7565b03908101835282611b27565b51902060405160208101906566656d616c6560d01b8252600681526105fa81611b0c565b51902014386102cf565b60405162461bcd60e51b815260206004820152601d60248201527f4661696c656420746f2073656e64204c6f6f7420746f2053656c6c65720000006044820152606490fd5b61066b915060203d602011610671575b6106638183611b27565b81019061239f565b38610275565b503d610659565b6040513d8c823e3d90fd5b60405162461bcd60e51b815260206004820152601f60248201527f4661696c656420746f2073656e64204c6f6f7420746f205472656173757279006044820152606490fd5b6106e1915060203d602011610671576106638183611b27565b3861021c565b634e487b7160e01b89526011600452602489fd5b60405162461bcd60e51b815260206004820152602d60248201527f546f6b656e20616d6f756e7420646f6573206e6f74206d61746368207468652060448201526c6c697374696e6720707269636560981b6064820152608490fd5b60405162461bcd60e51b81526020600482015260156024820152744c697374696e67206973206e6f742061637469766560581b6044820152606490fd5b60405160849185906001600160a01b03167f93ec4766fcd2d9dfdceab8f2e13ba0d9d826645cf03167fdb92b3b7359b5248c8b80a362461bcd60e51b815260206004820152603460248201527f4f776e6572206e6f206c6f6e67657220706f737365737365732074686520697460448201527332b696103634b9ba34b733903932b6b7bb32b21760611b6064820152fd5b604051633ee5aeb560e01b8152600490fd5b80fd5b503461083657602036600319011261083657610863610856611a8e565b61085e611cdf565b611d18565b80f35b50346108365780600319360112610836576003546040516001600160a01b039091168152602090f35b5034610836576020366003190112610836576108a9611a8e565b6108b1611cdf565b60018060a01b03166001600160601b0360a01b600554161760055580f35b50346108365760c0366003190112610836576108e9611a8e565b6024356001600160a01b03818116918290036103db5760443590808216809203610aae5760643592818416809403610aaa57608435828116809103610aa65760a435928316809303610aa6577ff0c57e16840df040f15088dc2f81fe391c3923bec73e23a9662efc9c229c6a009485549460ff8660401c1615956001600160401b03811698891580610a9f575b6001809b149081610a95575b159081610a8c575b50610a7a5767ffffffffffffffff1982168a1789556109ba9188610a5b575b506109b2611def565b61085e611def565b6109c2611def565b6109ca611def565b876000805160206124f0833981519152556001600160601b0360a01b93848954161788558360025416176002558260035416176003558160045416176004556005541617600555610a19578280f35b805468ff0000000000000000191690556040519081527fc7f505b2f371ae2175ee4913f4499e1f2633a7b5936321eed1cdaeb6115181d290602090a138808280f35b68ffffffffffffffffff191668010000000000000001178955386109a9565b60405163f92ee8a960e01b8152600490fd5b9050153861098a565b303b159150610982565b5087610976565b8680fd5b8580fd5b8480fd5b503461083657604036600319011261083657610acc611a8e565b6024359060018060a01b0380911690818452836020526040842083855260205260408420610b1360038201926001845493610b0960ff86166122d1565b0154163314612316565b60ff191690557f93ec4766fcd2d9dfdceab8f2e13ba0d9d826645cf03167fdb92b3b7359b5248c8380a380f35b503461083657602036600319011261083657610b5a611a8e565b610b62611cdf565b60018060a01b03166001600160601b0360a01b600254161760025580f35b5034610836578060031936011261083657610bc6604051610ba081611b0c565b60058152640352e302e360dc1b6020820152604051918291602083526020830190611c11565b0390f35b503461083657602036600319011261083657610be4611a8e565b610bec611cdf565b60018060a01b03166001600160601b0360a01b600354161760035580f35b50346108365780600319360112610836576000805160206124d0833981519152546040516001600160a01b039091168152602090f35b50346108365780600319360112610836576001546040516001600160a01b039091168152602090f35b5034610836577f4d624906ce6fd4e4b8b649463516ff505029a1903a8cc34bd82b4ca0f9a479de6020610c9b36611cb5565b80600260018060a098969795981b038096169586895288855260408920888a528552610ce260408a2091610cd560ff6003850154166122d1565b6001830154163314612316565b0155604051908152a380f35b5034610836578060031936011261083657610d07611cdf565b6000805160206124d083398151915280546001600160a01b0319811690915581906001600160a01b03167f8be0079c531659141344cd1fd0a4f28419497f9722a3daafe3b4186f6b6457e08280a380f35b503461083657602036600319011261083657610d72611a8e565b610d7a611cdf565b60018060a01b03166001600160601b0360a01b600454161760045580f35b50346108365780600319360112610836577f00000000000000000000000000000000000000000000000000000000000000006001600160a01b03163003610e035760206040517f360894a13ba1a3210667c828492db98dca3e2076cc3735a920a3ca505d382bbc8152f35b60405163703e46dd60e11b8152600490fd5b50604036600319011261083657610e2a611a8e565b6024356001600160401b0381116104bf57366023820112156104bf57610e5a903690602481600401359101611c7e565b6001600160a01b037f00000000000000000000000000000000000000000000000000000000000000008116308114908115611018575b50610e0357610e9d611cdf565b6040516352d1902d60e01b8152908316926020918281600481885afa869181610fe9575b50610edf57604051634c9c8ce360e01b815260048101869052602490fd5b9385947f360894a13ba1a3210667c828492db98dca3e2076cc3735a920a3ca505d382bbc90818103610fd15750823b15610fb85780546001600160a01b0319168217905560405185917fbc7cd75a20ee27fd9adebab32041f755214dbc6bffa90cc0225b39da2e5c2d3b8380a2845115610f9b5750808484610f8e96519101845af4903d15610f92573d610f7281611c63565b90610f806040519283611b27565b81528581943d92013e611d8c565b5080f35b60609250611d8c565b935050505034610fa9575080f35b63b398979f60e01b8152600490fd5b604051634c9c8ce360e01b815260048101839052602490fd5b60249060405190632a87526960e21b82526004820152fd5b9091508381813d8311611011575b6110018183611b27565b81010312610aa657519038610ec1565b503d610ff7565b9050817f360894a13ba1a3210667c828492db98dca3e2076cc3735a920a3ca505d382bbc5416141538610e90565b50346108365780600319360112610836576002546040516001600160a01b039091168152602090f35b503461083657602036600319011261083657611089611a8e565b611091611cdf565b60018060a01b03166001600160601b0360a01b600154161760015580f35b50346108365780600319360112610836576004546040516001600160a01b039091168152602090f35b503461083657610140366003190112610836576110f3611a8e565b6001600160401b03606435116105ae573660236064350112156105ae576001600160401b0360643560040135116105ae573660246064356004013560051b6064350101116105ae576084356001600160401b0381116104bf5761115a903690600401611c36565b9060e4356001600160401b038111610aae5761117a903690600401611c36565b9290610104356001600160401b038111610aa65761119c903690600401611c36565b919094610124356001600160401b0381116104bb576111bf903690600401611c36565b6111ed6111d83660643560040135602460643501611e30565b6111e336898b611c7e565b3391602435612053565b156119435760405160243560208201528a91906001600160fb1b0360046064350135116104bf576112da936112d1937f19457468657265756d205369676e6564204d6573736167653a0a333200000000836112b360808f968f8f988f8f8f909b8294826112cb9e6064356004013560051b60246064350160408b0137836064356004013560051b8a0193604085013760a435838501604081019190915260c43560608201528a01370101918583018a815237018683820152036060810184520182611b27565b602081519101209152601c52603c8d20923691611c7e565b90611ebe565b90929192611f8a565b6005546001600160a01b039081169116036118f357604051806101408101106001600160401b03610140830111176118df57610140810160405260243581523360208201526044356040820152600160608201526113443660643560040135602460643501611e30565b6080820152611354368688611c7e565b60a082015260a43560c082015260c43560e0820152611374368385611c7e565b610100820152611385368589611c7e565b61012082015260018060a01b038816895288602052604089206024358a526020526040892090805182556001820160018060a01b036020830151166001600160601b0360a01b82541617905560408101516002830155600382016060820151151560ff8019835416911617905560808101518051906001600160401b0382116117ef576801000000000000000082116117ef57602060048501918d8354858555858181106118c4575b50505001908c5260208c208c5b8381106118b0575050505060a08101518051906001600160401b0382116117ef5781908c61146c6005870154611aa9565b601f811161187d575b5050602090601f831160011461180e578d92611803575b50508160011b916000199060031b1c19161760058301555b60c0810151600683015560e081015160078301556101008101519081516001600160401b0381116117ef578b6114dd6008860154611aa9565b601f81116117bc575b50506020928c601f8311600114611748576101209490918361173d575b50508160011b916000199060031b1c19161760088401555b01518051906001600160401b0382116117295761153b6009840154611aa9565b601f81116116eb575b506020908b601f8411600114611650578361163f97947f68407692b576e26c8d9a6ab7affe26ea88c6249cd685306d508007df4670c9db9b9a999794611621979460099492611645575b50508160011b916000199060031b1c1916179101555b61160360405197889733895260443560208a015261010060408a0152606435600401356101008a01526064356004013560051b6024606435016101208b01376101206064356004013560051b8a01818b82030160608c01520191611e9d565b9160a435608088015260c43560a088015286830360c0880152611e9d565b83810360e0850152602435976001600160a01b031696909190611e9d565b0390a380f35b01519050388061158e565b5090600984018c5260208c20918c5b601f19851681106116d357506001847f68407692b576e26c8d9a6ab7affe26ea88c6249cd685306d508007df4670c9db9b9a999794611621979460099461163f9b98601f198116106116ba575b505050811b019101556115a4565b015160001960f88460031b161c191690553880806116ac565b9192602060018192868501518155019401920161165f565b61171990600985018d5260208d20601f850160051c8101916020861061171f575b601f0160051c0190611e86565b38611544565b909150819061170c565b634e487b7160e01b8b52604160045260248bfd5b015190503880611503565b50909192600885018d5260208d20918d5b601f19851681106117a457509183916001936101209695601f1981161061178b575b505050811b01600884015561151b565b015160001960f88460031b161c1916905538808061177b565b91926020600181928685015181550194019201611759565b60206117e89260088801815220601f840160051c8101916020851061171f57601f0160051c0190611e86565b8b386114e6565b634e487b7160e01b8c52604160045260248cfd5b01519050388061148c565b9250600585018d5260208d20908d935b601f1984168510611862576001945083601f19811610611849575b505050811b0160058301556114a4565b015160001960f88460031b161c19169055388080611839565b8181015183556020948501946001909301929091019061181e565b60206118a99260058901815220601f850160051c8101916020861061171f57601f0160051c0190611e86565b8c38611475565b60019060208451940193818401550161143b565b8483876118d79552209182019101611e86565b8d388561142e565b634e487b7160e01b89526041600452602489fd5b60405162461bcd60e51b815260206004820152602260248201527f496e76616c6964206f7220756e617574686f72697a6564207369676e61747572604482015261329760f11b6064820152608490fd5b60405162461bcd60e51b815260206004820152603860248201527f4f776e6572206e6f206c6f6e67657220706f737365737365732074686520697460448201527f656d2c2063616e6e6f74206c69737420746865206974656d00000000000000006064820152608490fd5b5034610836576040366003190112610836576001600160a01b0390604090826119d5611a8e565b1681528060205281812060243582526020522090610bc682549160018401541692611a7f60028201549160ff60038201541690611a1460058201611b48565b91611a67600683015493600784015492611a3c6009611a3560088801611b48565b9601611b48565b976040519b8c9b8c5260208c015260408b0152151560608a01526101208060808b0152890190611c11565b9260a088015260c087015285820360e0870152611c11565b90838203610100850152611c11565b600435906001600160a01b0382168203611aa457565b600080fd5b90600182811c92168015611ad9575b6020831014611ac357565b634e487b7160e01b600052602260045260246000fd5b91607f1691611ab8565b6001600160401b038111611af657604052565b634e487b7160e01b600052604160045260246000fd5b604081019081106001600160401b03821117611af657604052565b90601f801991011681019081106001600160401b03821117611af657604052565b9060405191826000825492611b5c84611aa9565b908184526001948581169081600014611bcb5750600114611b88575b5050611b8692500383611b27565b565b9093915060005260209081600020936000915b818310611bb3575050611b8693508201013880611b78565b85548884018501529485019487945091830191611b9b565b915050611b8694506020925060ff191682840152151560051b8201013880611b78565b60005b838110611c015750506000910152565b8181015183820152602001611bf1565b90602091611c2a81518092818552858086019101611bee565b601f01601f1916010190565b9181601f84011215611aa4578235916001600160401b038311611aa45760208381860195010111611aa457565b6001600160401b038111611af657601f01601f191660200190565b929192611c8a82611c63565b91611c986040519384611b27565b829481845281830111611aa4578281602093846000960137010152565b6060906003190112611aa4576004356001600160a01b0381168103611aa457906024359060443590565b6000805160206124d0833981519152546001600160a01b03163303611d0057565b60405163118cdaa760e01b8152336004820152602490fd5b6001600160a01b03908116908115611d73576000805160206124d083398151915280546001600160a01b031981168417909155167f8be0079c531659141344cd1fd0a4f28419497f9722a3daafe3b4186f6b6457e0600080a3565b604051631e4fbdf760e01b815260006004820152602490fd5b90611db35750805115611da157805190602001fd5b604051630a12f52160e11b8152600490fd5b81511580611de6575b611dc4575090565b604051639996b31560e01b81526001600160a01b039091166004820152602490fd5b50803b15611dbc565b60ff7ff0c57e16840df040f15088dc2f81fe391c3923bec73e23a9662efc9c229c6a005460401c1615611e1e57565b604051631afcd79f60e31b8152600490fd5b9092916001600160401b038411611af6578360051b6040519260208094611e5982850182611b27565b8097815201918101928311611aa457905b828210611e775750505050565b81358152908301908301611e6a565b818110611e91575050565b60008155600101611e86565b908060209392818452848401376000828201840152601f01601f1916010190565b8151919060418303611eef57611ee892506020820151906060604084015193015160001a90611efa565b9192909190565b505060009160029190565b91907f7fffffffffffffffffffffffffffffff5d576e7357a4501ddfe92f46681b20a08411611f7e57926020929160ff608095604051948552168484015260408301526060820152600092839182805260015afa15611f725780516001600160a01b03811615611f6957918190565b50809160019190565b604051903d90823e3d90fd5b50505060009160039190565b6004811015611ff95780611f9c575050565b60018103611fb65760405163f645eedf60e01b8152600490fd5b60028103611fd75760405163fce698f760e01b815260048101839052602490fd5b600314611fe15750565b602490604051906335e2f38360e21b82526004820152fd5b634e487b7160e01b600052602160045260246000fd5b90816020910312611aa457516001600160a01b0381168103611aa45790565b600019811461203d5760010190565b634e487b7160e01b600052601160045260246000fd5b909160009360409283519560209384880181519886818b848387019d612079918f611bee565b8101038083520161208a9082611b27565b51902097865198868a01636d616c6560e01b815260049a8b81526120ad81611b0c565b51902014159182612279575b505015612208575060015484516331a9108f60e11b8152878101929092526001600160a01b039084908390602490829085165afa9182156121fd576000926121de575b508083169116145b156121d4576001805490956000956001600160a01b0394928516929190885b612133575b505050505050505090565b80518810156121cf57828860051b820101518751906331a9108f60e11b8252838201528381602481885afa9081156121c457600091612197575b508680871691160361218957612183899861202e565b97612123565b505050505050505050600090565b6121b79150843d86116121bd575b6121af8183611b27565b81019061200f565b3861216d565b503d6121a5565b88513d6000823e3d90fd5b612128565b5050505050600090565b6121f6919250843d86116121bd576121af8183611b27565b90386120fc565b85513d6000823e3d90fd5b60025485516331a9108f60e11b81528881019390935290916001600160a01b039185908290602490829086165afa92831561226e579261224f575b50808316911614612104565b612267919250843d86116121bd576121af8183611b27565b9038612243565b8651903d90823e3d90fd5b9091506122a3868851809361229683830196879251928391611bee565b8101038084520182611b27565b5190208551858101906566656d616c6560d01b8252600681526122c581611b0c565b519020141538806120b9565b156122d857565b60405162461bcd60e51b8152602060048201526016602482015275131a5cdd1a5b99c8191bd95cc81b9bdd08195e1a5cdd60521b6044820152606490fd5b1561231d57565b60405162461bcd60e51b815260206004820152601860248201527f43616c6c6572206973206e6f74207468652073656c6c657200000000000000006044820152606490fd5b90815480825260208092019260005281600020916000905b828210612388575050505090565b83548552938401936001938401939091019061237a565b90816020910312611aa457518015158103611aa45790565b6000929181546123c681611aa9565b9260019180831690811561241f57506001146123e3575b50505050565b90919293945060005260209081600020906000915b85831061240e57505050500190388080806123dd565b8054858401529183019181016123f8565b60ff19168452505050811515909102019150388080806123dd565b906000929180549161244b83611aa9565b9182825260019384811690816000146124ac575060011461246c5750505050565b90919394506000526020928360002092846000945b8386106124985750505050010190388080806123dd565b805485870183015294019385908201612481565b9294505050602093945060ff191683830152151560051b010190388080806123dd56fe9016d09d72d40fdae2fd8ceac6b6234c7706214fd39c1cd1e609a0528c1993009b779b17422d0df92223018b32b4d1fa46e071723d6817e2486d003becc55f00a2646970667358221220da54b69b29f5d3375083ff46086c3fb090fdee2a44409a7e841f8e8d93203c1c64736f6c63430008140033",
  "linkReferences": {},
  "deployedLinkReferences": {}
}