{
  "_format": "hh-sol-artifact-1",
  "contractName": "GameMarketplace",
  "sourceName": "contracts/GameMarketplace.sol",
  "abi": [
    {
      "inputs": [],
      "stateMutability": "nonpayable",
      "type": "constructor"
    },
    {
      "inputs": [
        {
          "internalType": "address",
          "name": "target",
          "type": "address"
        }
      ],
      "name": "AddressEmptyCode",
      "type": "error"
    },
    {
      "inputs": [
        {
          "internalType": "address",
          "name": "implementation",
          "type": "address"
        }
      ],
      "name": "ERC1967InvalidImplementation",
      "type": "error"
    },
    {
      "inputs": [],
      "name": "ERC1967NonPayable",
      "type": "error"
    },
    {
      "inputs": [],
      "name": "FailedInnerCall",
      "type": "error"
    },
    {
      "inputs": [],
      "name": "InvalidInitialization",
      "type": "error"
    },
    {
      "inputs": [],
      "name": "NotInitializing",
      "type": "error"
    },
    {
      "inputs": [
        {
          "internalType": "address",
          "name": "owner",
          "type": "address"
        }
      ],
      "name": "OwnableInvalidOwner",
      "type": "error"
    },
    {
      "inputs": [
        {
          "internalType": "address",
          "name": "account",
          "type": "address"
        }
      ],
      "name": "OwnableUnauthorizedAccount",
      "type": "error"
    },
    {
      "inputs": [],
      "name": "ReentrancyGuardReentrantCall",
      "type": "error"
    },
    {
      "inputs": [],
      "name": "UUPSUnauthorizedCallContext",
      "type": "error"
    },
    {
      "inputs": [
        {
          "internalType": "bytes32",
          "name": "slot",
          "type": "bytes32"
        }
      ],
      "name": "UUPSUnsupportedProxiableUUID",
      "type": "error"
    },
    {
      "anonymous": false,
      "inputs": [
        {
          "indexed": false,
          "internalType": "uint64",
          "name": "version",
          "type": "uint64"
        }
      ],
      "name": "Initialized",
      "type": "event"
    },
    {
      "anonymous": false,
      "inputs": [
        {
          "indexed": true,
          "internalType": "address",
          "name": "nftAddress",
          "type": "address"
        },
        {
          "indexed": true,
          "internalType": "uint256",
          "name": "tokenId",
          "type": "uint256"
        },
        {
          "indexed": false,
          "internalType": "address",
          "name": "buyer",
          "type": "address"
        },
        {
          "indexed": false,
          "internalType": "uint256",
          "name": "price",
          "type": "uint256"
        },
        {
          "indexed": false,
          "internalType": "uint256[]",
          "name": "itemTokenIds",
          "type": "uint256[]"
        },
        {
          "indexed": false,
          "internalType": "string",
          "name": "itemType",
          "type": "string"
        },
        {
          "indexed": false,
          "internalType": "uint16",
          "name": "power",
          "type": "uint16"
        },
        {
          "indexed": false,
          "internalType": "uint8",
          "name": "durability",
          "type": "uint8"
        },
        {
          "indexed": false,
          "internalType": "string",
          "name": "characterOwner",
          "type": "string"
        },
        {
          "indexed": false,
          "internalType": "string",
          "name": "imageUrl",
          "type": "string"
        }
      ],
      "name": "ItemBought",
      "type": "event"
    },
    {
      "anonymous": false,
      "inputs": [
        {
          "indexed": true,
          "internalType": "address",
          "name": "nftAddress",
          "type": "address"
        },
        {
          "indexed": true,
          "internalType": "uint256",
          "name": "tokenId",
          "type": "uint256"
        },
        {
          "indexed": false,
          "internalType": "address",
          "name": "seller",
          "type": "address"
        },
        {
          "indexed": false,
          "internalType": "uint256",
          "name": "price",
          "type": "uint256"
        },
        {
          "indexed": false,
          "internalType": "uint256[]",
          "name": "itemTokenIds",
          "type": "uint256[]"
        },
        {
          "indexed": false,
          "internalType": "string",
          "name": "itemType",
          "type": "string"
        },
        {
          "indexed": false,
          "internalType": "uint16",
          "name": "power",
          "type": "uint16"
        },
        {
          "indexed": false,
          "internalType": "uint8",
          "name": "durability",
          "type": "uint8"
        },
        {
          "indexed": false,
          "internalType": "string",
          "name": "characterOwner",
          "type": "string"
        },
        {
          "indexed": false,
          "internalType": "string",
          "name": "imageUrl",
          "type": "string"
        }
      ],
      "name": "ItemListed",
      "type": "event"
    },
    {
      "anonymous": false,
      "inputs": [
        {
          "indexed": true,
          "internalType": "address",
          "name": "nftAddress",
          "type": "address"
        },
        {
          "indexed": true,
          "internalType": "uint256",
          "name": "tokenId",
          "type": "uint256"
        }
      ],
      "name": "ListingCancelled",
      "type": "event"
    },
    {
      "anonymous": false,
      "inputs": [
        {
          "indexed": true,
          "internalType": "address",
          "name": "previousOwner",
          "type": "address"
        },
        {
          "indexed": true,
          "internalType": "address",
          "name": "newOwner",
          "type": "address"
        }
      ],
      "name": "OwnershipTransferred",
      "type": "event"
    },
    {
      "anonymous": false,
      "inputs": [
        {
          "indexed": true,
          "internalType": "address",
          "name": "nftAddress",
          "type": "address"
        },
        {
          "indexed": true,
          "internalType": "uint256",
          "name": "tokenId",
          "type": "uint256"
        },
        {
          "indexed": false,
          "internalType": "uint256",
          "name": "newPrice",
          "type": "uint256"
        }
      ],
      "name": "PriceChanged",
      "type": "event"
    },
    {
      "anonymous": false,
      "inputs": [
        {
          "indexed": true,
          "internalType": "address",
          "name": "implementation",
          "type": "address"
        }
      ],
      "name": "Upgraded",
      "type": "event"
    },
    {
      "inputs": [],
      "name": "UPGRADE_INTERFACE_VERSION",
      "outputs": [
        {
          "internalType": "string",
          "name": "",
          "type": "string"
        }
      ],
      "stateMutability": "view",
      "type": "function"
    },
    {
      "inputs": [
        {
          "internalType": "address",
          "name": "nftAddress",
          "type": "address"
        },
        {
          "internalType": "uint256",
          "name": "tokenId",
          "type": "uint256"
        },
        {
          "internalType": "uint256",
          "name": "tokenAmount",
          "type": "uint256"
        }
      ],
      "name": "buyItem",
      "outputs": [],
      "stateMutability": "payable",
      "type": "function"
    },
    {
      "inputs": [
        {
          "internalType": "address",
          "name": "nftAddress",
          "type": "address"
        },
        {
          "internalType": "uint256",
          "name": "tokenId",
          "type": "uint256"
        }
      ],
      "name": "cancelListing",
      "outputs": [],
      "stateMutability": "nonpayable",
      "type": "function"
    },
    {
      "inputs": [
        {
          "internalType": "address",
          "name": "nftAddress",
          "type": "address"
        },
        {
          "internalType": "uint256",
          "name": "tokenId",
          "type": "uint256"
        },
        {
          "internalType": "uint256",
          "name": "newPrice",
          "type": "uint256"
        }
      ],
      "name": "changePrice",
      "outputs": [],
      "stateMutability": "nonpayable",
      "type": "function"
    },
    {
      "inputs": [],
      "name": "characterContract",
      "outputs": [
        {
          "internalType": "contract CreateCharacter",
          "name": "",
          "type": "address"
        }
      ],
      "stateMutability": "view",
      "type": "function"
    },
    {
      "inputs": [],
      "name": "gameTreasury",
      "outputs": [
        {
          "internalType": "contract GameTreasury",
          "name": "",
          "type": "address"
        }
      ],
      "stateMutability": "view",
      "type": "function"
    },
    {
      "inputs": [
        {
          "internalType": "address",
          "name": "initialOwner",
          "type": "address"
        },
        {
          "internalType": "address",
          "name": "_itemContract",
          "type": "address"
        },
        {
          "internalType": "address",
          "name": "_characterContract",
          "type": "address"
        },
        {
          "internalType": "address",
          "name": "_gameTreasuryAddress",
          "type": "address"
        },
        {
          "internalType": "address",
          "name": "_paymentToken",
          "type": "address"
        }
      ],
      "name": "initialize",
      "outputs": [],
      "stateMutability": "nonpayable",
      "type": "function"
    },
    {
      "inputs": [],
      "name": "itemContract",
      "outputs": [
        {
          "internalType": "contract MintItem",
          "name": "",
          "type": "address"
        }
      ],
      "stateMutability": "view",
      "type": "function"
    },
    {
      "inputs": [
        {
          "internalType": "address",
          "name": "nftAddress",
          "type": "address"
        },
        {
          "internalType": "uint256",
          "name": "tokenId",
          "type": "uint256"
        },
        {
          "internalType": "uint256",
          "name": "price",
          "type": "uint256"
        },
        {
          "internalType": "uint256[]",
          "name": "itemTokenIds",
          "type": "uint256[]"
        },
        {
          "internalType": "string",
          "name": "itemType",
          "type": "string"
        },
        {
          "internalType": "uint16",
          "name": "power",
          "type": "uint16"
        },
        {
          "internalType": "uint8",
          "name": "durability",
          "type": "uint8"
        },
        {
          "internalType": "string",
          "name": "characterOwner",
          "type": "string"
        },
        {
          "internalType": "string",
          "name": "imageUrl",
          "type": "string"
        }
      ],
      "name": "listItemForSale",
      "outputs": [],
      "stateMutability": "nonpayable",
      "type": "function"
    },
    {
      "inputs": [
        {
          "internalType": "address",
          "name": "",
          "type": "address"
        },
        {
          "internalType": "uint256",
          "name": "",
          "type": "uint256"
        }
      ],
      "name": "listings",
      "outputs": [
        {
          "internalType": "uint256",
          "name": "tokenId",
          "type": "uint256"
        },
        {
          "internalType": "address payable",
          "name": "seller",
          "type": "address"
        },
        {
          "internalType": "uint256",
          "name": "price",
          "type": "uint256"
        },
        {
          "internalType": "bool",
          "name": "isActive",
          "type": "bool"
        },
        {
          "internalType": "string",
          "name": "itemType",
          "type": "string"
        },
        {
          "internalType": "uint16",
          "name": "power",
          "type": "uint16"
        },
        {
          "internalType": "uint8",
          "name": "durability",
          "type": "uint8"
        },
        {
          "internalType": "string",
          "name": "characterOwner",
          "type": "string"
        },
        {
          "internalType": "string",
          "name": "imageUrl",
          "type": "string"
        }
      ],
      "stateMutability": "view",
      "type": "function"
    },
    {
      "inputs": [],
      "name": "owner",
      "outputs": [
        {
          "internalType": "address",
          "name": "",
          "type": "address"
        }
      ],
      "stateMutability": "view",
      "type": "function"
    },
    {
      "inputs": [],
      "name": "paymentToken",
      "outputs": [
        {
          "internalType": "contract IERC20",
          "name": "",
          "type": "address"
        }
      ],
      "stateMutability": "view",
      "type": "function"
    },
    {
      "inputs": [],
      "name": "proxiableUUID",
      "outputs": [
        {
          "internalType": "bytes32",
          "name": "",
          "type": "bytes32"
        }
      ],
      "stateMutability": "view",
      "type": "function"
    },
    {
      "inputs": [],
      "name": "renounceOwnership",
      "outputs": [],
      "stateMutability": "nonpayable",
      "type": "function"
    },
    {
      "inputs": [
        {
          "internalType": "address",
          "name": "_newCreateCharacterContract",
          "type": "address"
        }
      ],
      "name": "setCreateCharacterContractAddress",
      "outputs": [],
      "stateMutability": "nonpayable",
      "type": "function"
    },
    {
      "inputs": [
        {
          "internalType": "address",
          "name": "_gameTreasuryAddress",
          "type": "address"
        }
      ],
      "name": "setGameTreasuryAddress",
      "outputs": [],
      "stateMutability": "nonpayable",
      "type": "function"
    },
    {
      "inputs": [
        {
          "internalType": "address",
          "name": "_itemContract",
          "type": "address"
        }
      ],
      "name": "setMintItemAddress",
      "outputs": [],
      "stateMutability": "nonpayable",
      "type": "function"
    },
    {
      "inputs": [
        {
          "internalType": "address",
          "name": "_tokenAddress",
          "type": "address"
        }
      ],
      "name": "setPaymentToken",
      "outputs": [],
      "stateMutability": "nonpayable",
      "type": "function"
    },
    {
      "inputs": [
        {
          "internalType": "address",
          "name": "newOwner",
          "type": "address"
        }
      ],
      "name": "transferOwnership",
      "outputs": [],
      "stateMutability": "nonpayable",
      "type": "function"
    },
    {
      "inputs": [
        {
          "internalType": "address",
          "name": "newImplementation",
          "type": "address"
        },
        {
          "internalType": "bytes",
          "name": "data",
          "type": "bytes"
        }
      ],
      "name": "upgradeToAndCall",
      "outputs": [],
      "stateMutability": "payable",
      "type": "function"
    }
  ],
  "bytecode": "0x60a080604052346100cc57306080527ff0c57e16840df040f15088dc2f81fe391c3923bec73e23a9662efc9c229c6a009081549060ff8260401c166100bd57506001600160401b036002600160401b031982821601610078575b60405161221b90816100d282396080518181816113a701526114600152f35b6001600160401b031990911681179091556040519081527fc7f505b2f371ae2175ee4913f4499e1f2633a7b5936321eed1cdaeb6115181d290602090a1388080610059565b63f92ee8a960e01b8152600490fd5b600080fdfe6080604052600436101561001257600080fd5b6000803560e01c806207df30146118955780631459457a146116d45780633013ce29146116ab5780633b828cb11461166b57806343b60f74146116425780634f1ef2861461141157806352d1902d146113945780636a326ab114611354578063715018a6146112ea578063741cbae4146112655780638d76f9401461123c5780638da5cb5b14611206578063a1365bf1146111c6578063ad3cb1cc1461117c578063af0119521461113c578063b2ddee06146110ae578063ce66d2a11461086b578063d2f9efab14610842578063f2fde38b146108125763f6b45c46146100f857600080fd5b61010136611b73565b60026000805160206121c683398151915254146108005760026000805160206121c68339815191525560018060a01b0383168452836020526040842082855260205260408420918254926004810192600582019561018f600184019660018060a01b038854169060405161018081610179818c6120d2565b0382611a12565b6101898b611a33565b91611dd4565b156107b357600383019660ff88541615610776576002840154830361071b57600a83048084039084821161070757600480546003546040516323b872dd60e01b815233938101939093526001600160a01b03908116602484015260448301939093529091602091839116818e816064810103925af19081156106fc578b916106dd575b5015610698576004805489546040516323b872dd60e01b815233938101939093526001600160a01b03908116602484015260448301939093529091602091839160649183918f91165af190811561068d578a9161065e575b5015610619576040518154818b61028083611994565b92600181169081156105fb57506001146105bd575b6102a8925003601f198101835282611a12565b6020815191012060405160208101906821b430b930b1ba32b960b91b8252600981526102d3816119f7565b519020036104ce5760025487548a916001600160a01b039182169116803b156104ca576040516323b872dd60e01b81526001600160a01b039290921660048301523360248301526044820188905282908290606490829084905af180156103d6576104b2575b505b86548110156103e557868a5260208a2081015460015489548c926001600160a01b039283169290911690823b156103e1576040516323b872dd60e01b81526001600160a01b0392909216600483015233602483015260448201529082908290606490829084905af180156103d6576103be575b50506103b990611daf565b61033b565b6103c7906119ce565b6103d25789386103ae565b8980fd5b6040513d84823e3d90fd5b8380fd5b5061049a929396506104806008917fb9d78de2205b13c871f752556f21c6fa47f793c2e80b274ff3b885877d4ec1489796995b60ff19815416905560ff61045b60068b01549261044d6040519a8b9a338c5260208c01526101008060408d01528b01906120d2565b9089820360608b015261210f565b9161ffff8116608089015260101c1660a087015285810360c08701526007890161210f565b84810360e08601526001600160a01b03909216960161210f565b0390a360016000805160206121c68339815191525580f35b6104bb906119ce565b6104c6578838610339565b8880fd5b8280fd5b9193969092958860018060a01b03600154169160018060a01b03905416823b156105b9576040516323b872dd60e01b81526001600160a01b03919091166004820152336024820152604481018a9052918290606490829084905af180156105ae57610568575b5091600861048061049a937fb9d78de2205b13c871f752556f21c6fa47f793c2e80b274ff3b885877d4ec148979695610418565b61048061049a937fb9d78de2205b13c871f752556f21c6fa47f793c2e80b274ff3b885877d4ec148979695939a6105a06008946119ce565b9a9395969750935050610534565b6040513d8b823e3d90fd5b5080fd5b5050828b528160208c208c905b8382106105e157505060206102a892820101610295565b6020919250806001915483858801015201910183916105ca565b602092506102a894915060ff19168284015280151502820101610295565b60405162461bcd60e51b815260206004820152601d60248201527f4661696c656420746f2073656e64204c6f6f7420746f2053656c6c65720000006044820152606490fd5b610680915060203d602011610686575b6106788183611a12565b810190611d2b565b3861026a565b503d61066e565b6040513d8c823e3d90fd5b60405162461bcd60e51b815260206004820152601f60248201527f4661696c656420746f2073656e64204c6f6f7420746f205472656173757279006044820152606490fd5b6106f6915060203d602011610686576106788183611a12565b38610212565b6040513d8d823e3d90fd5b634e487b7160e01b8b52601160045260248bfd5b60405162461bcd60e51b815260206004820152602d60248201527f546f6b656e20616d6f756e7420646f6573206e6f74206d61746368207468652060448201526c6c697374696e6720707269636560981b6064820152608490fd5b60405162461bcd60e51b81526020600482015260156024820152744c697374696e67206973206e6f742061637469766560581b6044820152606490fd5b6040519084906001600160a01b03167f93ec4766fcd2d9dfdceab8f2e13ba0d9d826645cf03167fdb92b3b7359b5248c8a80a362461bcd60e51b8152806107fc60048201611d43565b0390fd5b604051633ee5aeb560e01b8152600490fd5b503461083f57602036600319011261083f5761083c61082f611979565b610837611bbb565b611bf4565b80f35b80fd5b503461083f578060031936011261083f576003546040516001600160a01b039091168152602090f35b503461083f5761012036600319011261083f57610886611979565b90606435916001600160401b0383116105b957366023840112156105b95782600401356001600160401b03811161109a578060051b93604051916108cd6020870184611a12565b825260208201602481968301019136831161108257602401905b82821061108a575050506084356001600160401b0381116103e157610910903690600401611b9d565b9060a43561ffff811681036110865760c43560ff811681036110825760e4356001600160401b03811161107e5761094b903690600401611b9d565b906001600160401b03610104351161107e5761096d3661010435600401611b9d565b9460018060a01b036001541660405163020604bf60e21b81526024356004820152602081602481855afa90811561068d578a9161104f575b506001600160a01b03163014908115610ff4575b5015610f99576109cd338287602435611dd4565b15610f8057604051806101408101106001600160401b0361014083011117610f6c57610140810160405260243581523360208201526044356040820152600160608201528560808201528160a082015261ffff851660c082015260ff831660e0820152836101008201528661012082015260018060a01b038816895288602052604089206024358a526020526040892090805182556001820160018060a01b036020830151166001600160601b0360a01b82541617905560408101516002830155600382016060820151151560ff8019835416911617905560808101518051906001600160401b038211610e7957680100000000000000008211610e79576020908c600486015484600488015584818110610f4e575b50505001600484018c5260208c208c5b838110610f3a575050505060a08101518051906001600160401b038211610e795781908c610b246005870154611994565b601f8111610f07575b5050602090601f8311600114610e98578d92610e8d575b50508160011b916000199060031b1c19161760058301555b6006820161ffff60c08301511681549062ff000060e085015160101b169162ffffff1916171790556101008101519081516001600160401b038111610e79578b610ba96007860154611994565b601f8111610e46575b50506020928c601f8311600114610dd25761012094909183610dc7575b50508160011b916000199060031b1c19161760078401555b0151908151906001600160401b038211610db3576008829101928b610c0c8554611994565b601f8111610d78575b5050602090601f8311600114610d14578c92610d09575b50508160011b916000199060031b1c19161790555b60405194610100860190338752604435602088015261010060408801525180915261012086019990895b818110610cf3575050508493849360ff610ced9461ffff610cb88e610cd2977f40828eb73a82541037e33ade9359a4f9fd4b021bdd96f2dda9d79114339ea4749c820360608c0152611afc565b941660808801521660a086015284820360c0860152611afc565b82810360e0840152602435966001600160a01b031695611afc565b0390a380f35b82518c5260209b8c019b90920191600101610c6b565b015190503880610c2c565b848d5260208d209250601f1984168d5b818110610d605750908460019594939210610d47575b505050811b019055610c41565b015160001960f88460031b161c19169055388080610d3a565b92936020600181928786015181550195019301610d24565b60208287610da2945220601f850160051c81019160208610610da9575b601f0160051c0190611d98565b8b38610c15565b9091508190610d95565b634e487b7160e01b8b52604160045260248bfd5b015190503880610bcf565b50909192600785018d5260208d20918d5b601f1985168110610e2e57509183916001936101209695601f19811610610e15575b505050811b016007840155610be7565b015160001960f88460031b161c19169055388080610e05565b91926020600181928685015181550194019201610de3565b6020610e729260078801815220601f840160051c81019160208510610da957601f0160051c0190611d98565b8b38610bb2565b634e487b7160e01b8c52604160045260248cfd5b015190503880610b44565b9250600585018d5260208d20908d935b601f1984168510610eec576001945083601f19811610610ed3575b505050811b016005830155610b5c565b015160001960f88460031b161c19169055388080610ec3565b81810151835560209485019460019093019290910190610ea8565b6020610f339260058901815220601f850160051c81019160208610610da957601f0160051c0190611d98565b8c38610b2d565b600190602084519401938184015501610af3565b84610f649360048a018152209182019101611d98565b8c3884610ae3565b634e487b7160e01b89526041600452602489fd5b60405162461bcd60e51b8152806107fc60048201611d43565b60405162461bcd60e51b815260206004820152602d60248201527f4d61726b6574706c616365206e6f7420617070726f76656420746f207472616e60448201526c1cd9995c881d1a1a5cc8139195609a1b6064820152608490fd5b60405163e985e9c560e01b81523360048201523060248201529150602090829060449082905afa9081156105ae578991611030575b50386109b9565b611049915060203d602011610686576106788183611a12565b38611029565b611071915060203d602011611077575b6110698183611a12565b810190611d0c565b386109a5565b503d61105f565b8680fd5b8580fd5b8480fd5b81358152602091820191016108e7565b634e487b7160e01b83526041600452602483fd5b503461083f57604036600319011261083f576110c8611979565b6024359060018060a01b038091169081845283602052604084208385526020526040842061110f6003820192600184549361110560ff8616612041565b0154163314612086565b60ff191690557f93ec4766fcd2d9dfdceab8f2e13ba0d9d826645cf03167fdb92b3b7359b5248c8380a380f35b503461083f57602036600319011261083f57611156611979565b61115e611bbb565b60018060a01b03166001600160601b0360a01b600254161760025580f35b503461083f578060031936011261083f576111c260405161119c816119f7565b60058152640352e302e360dc1b6020820152604051918291602083526020830190611afc565b0390f35b503461083f57602036600319011261083f576111e0611979565b6111e8611bbb565b60018060a01b03166001600160601b0360a01b600354161760035580f35b503461083f578060031936011261083f576000805160206121a6833981519152546040516001600160a01b039091168152602090f35b503461083f578060031936011261083f576001546040516001600160a01b039091168152602090f35b503461083f577f4d624906ce6fd4e4b8b649463516ff505029a1903a8cc34bd82b4ca0f9a479de602061129736611b73565b80600260018060a098969795981b038096169586895288855260408920888a5285526112de60408a20916112d160ff600385015416612041565b6001830154163314612086565b0155604051908152a380f35b503461083f578060031936011261083f57611303611bbb565b6000805160206121a683398151915280546001600160a01b0319811690915581906001600160a01b03167f8be0079c531659141344cd1fd0a4f28419497f9722a3daafe3b4186f6b6457e08280a380f35b503461083f57602036600319011261083f5761136e611979565b611376611bbb565b60018060a01b03166001600160601b0360a01b600454161760045580f35b503461083f578060031936011261083f577f00000000000000000000000000000000000000000000000000000000000000006001600160a01b031630036113ff5760206040517f360894a13ba1a3210667c828492db98dca3e2076cc3735a920a3ca505d382bbc8152f35b60405163703e46dd60e11b8152600490fd5b50604036600319011261083f57611426611979565b6024356001600160401b0381116104ca57366023820112156104ca57611456903690602481600401359101611b3c565b6001600160a01b037f00000000000000000000000000000000000000000000000000000000000000008116308114908115611614575b506113ff57611499611bbb565b6040516352d1902d60e01b8152908316926020918281600481885afa8691816115e5575b506114db57604051634c9c8ce360e01b815260048101869052602490fd5b9385947f360894a13ba1a3210667c828492db98dca3e2076cc3735a920a3ca505d382bbc908181036115cd5750823b156115b45780546001600160a01b0319168217905560405185917fbc7cd75a20ee27fd9adebab32041f755214dbc6bffa90cc0225b39da2e5c2d3b8380a2845115611597575080848461158a96519101845af4903d1561158e573d61156e81611b21565b9061157c6040519283611a12565b81528581943d92013e611c68565b5080f35b60609250611c68565b9350505050346115a5575080f35b63b398979f60e01b8152600490fd5b604051634c9c8ce360e01b815260048101839052602490fd5b60249060405190632a87526960e21b82526004820152fd5b9091508381813d831161160d575b6115fd8183611a12565b8101031261107e575190386114bd565b503d6115f3565b9050817f360894a13ba1a3210667c828492db98dca3e2076cc3735a920a3ca505d382bbc541614153861148c565b503461083f578060031936011261083f576002546040516001600160a01b039091168152602090f35b503461083f57602036600319011261083f57611685611979565b61168d611bbb565b60018060a01b03166001600160601b0360a01b600154161760015580f35b503461083f578060031936011261083f576004546040516001600160a01b039091168152602090f35b503461083f5760a036600319011261083f576116ee611979565b6024356001600160a01b03818116918290036103e15760443590808216809203611086576064359281841680940361108257608435918216809203611082577ff0c57e16840df040f15088dc2f81fe391c3923bec73e23a9662efc9c229c6a009384549360ff8560401c1615946001600160401b0381169788158061188e575b6001809a149081611884575b15908161187b575b506118695767ffffffffffffffff198216891788556117b2918761184a575b506117aa611ccb565b610837611ccb565b6117ba611ccb565b6117c2611ccb565b866000805160206121c6833981519152556001600160601b0360a01b92838854161787558260025416176002558160035416176003556004541617600455611808578280f35b805468ff0000000000000000191690556040519081527fc7f505b2f371ae2175ee4913f4499e1f2633a7b5936321eed1cdaeb6115181d290602090a138808280f35b68ffffffffffffffffff191668010000000000000001178855386117a1565b60405163f92ee8a960e01b8152600490fd5b90501538611782565b303b15915061177a565b508661176e565b503461083f57604036600319011261083f576001600160a01b0390604090826118bc611979565b16815280602052818120602435825260205220906111c28254916001840154169261196a60028201549160ff6003820154169060ff61194961190060058401611a33565b60068401549461191e600861191760078801611a33565b9601611a33565b976040519b8c9b8c5260208c015260408b0152151560608a01526101208060808b0152890190611afc565b9261ffff811660a089015260101c1660c087015285820360e0870152611afc565b90838203610100850152611afc565b600435906001600160a01b038216820361198f57565b600080fd5b90600182811c921680156119c4575b60208310146119ae57565b634e487b7160e01b600052602260045260246000fd5b91607f16916119a3565b6001600160401b0381116119e157604052565b634e487b7160e01b600052604160045260246000fd5b604081019081106001600160401b038211176119e157604052565b90601f801991011681019081106001600160401b038211176119e157604052565b9060405191826000825492611a4784611994565b908184526001948581169081600014611ab65750600114611a73575b5050611a7192500383611a12565b565b9093915060005260209081600020936000915b818310611a9e575050611a7193508201013880611a63565b85548884018501529485019487945091830191611a86565b915050611a7194506020925060ff191682840152151560051b8201013880611a63565b60005b838110611aec5750506000910152565b8181015183820152602001611adc565b90602091611b1581518092818552858086019101611ad9565b601f01601f1916010190565b6001600160401b0381116119e157601f01601f191660200190565b929192611b4882611b21565b91611b566040519384611a12565b82948184528183011161198f578281602093846000960137010152565b606090600319011261198f576004356001600160a01b038116810361198f57906024359060443590565b9080601f8301121561198f57816020611bb893359101611b3c565b90565b6000805160206121a6833981519152546001600160a01b03163303611bdc57565b60405163118cdaa760e01b8152336004820152602490fd5b6001600160a01b03908116908115611c4f576000805160206121a683398151915280546001600160a01b031981168417909155167f8be0079c531659141344cd1fd0a4f28419497f9722a3daafe3b4186f6b6457e0600080a3565b604051631e4fbdf760e01b815260006004820152602490fd5b90611c8f5750805115611c7d57805190602001fd5b604051630a12f52160e11b8152600490fd5b81511580611cc2575b611ca0575090565b604051639996b31560e01b81526001600160a01b039091166004820152602490fd5b50803b15611c98565b60ff7ff0c57e16840df040f15088dc2f81fe391c3923bec73e23a9662efc9c229c6a005460401c1615611cfa57565b604051631afcd79f60e31b8152600490fd5b9081602091031261198f57516001600160a01b038116810361198f5790565b9081602091031261198f5751801515810361198f5790565b60809060208152603460208201527f4f776e6572206e6f206c6f6e67657220706f737365737365732074686520697460408201527332b696103634b9ba34b733903932b6b7bb32b21760611b60608201520190565b818110611da3575050565b60008155600101611d98565b6000198114611dbe5760010190565b634e487b7160e01b600052601160045260246000fd5b909160009360409283519560209384880181519886818b848387019d611dfa918f611ad9565b81010380835201611e0b9082611a12565b51902097865198868a01636d616c6560e01b815260049a8b8152611e2e816119f7565b51902014918215611fea575b505015611f79575060025484516331a9108f60e11b8152878101929092526001600160a01b039084908390602490829085165afa918215611f6e57600092611f4f575b508083169116145b15611f45576001805490956000956001600160a01b0394928516929190885b611eb4575b505050505050505090565b8051881015611f4057828860051b820101518751906331a9108f60e11b8252838201528381602481885afa908115611f3557600091611f18575b5086808716911603611f0a57611f048998611daf565b97611ea4565b505050505050505050600090565b611f2f9150843d8611611077576110698183611a12565b38611eee565b88513d6000823e3d90fd5b611ea9565b5050505050600090565b611f67919250843d8611611077576110698183611a12565b9038611e7d565b85513d6000823e3d90fd5b60015485516331a9108f60e11b81528881019390935290916001600160a01b039185908290602490829086165afa928315611fdf5792611fc0575b50808316911614611e85565b611fd8919250843d8611611077576110698183611a12565b9038611fb4565b8651903d90823e3d90fd5b909150612014868851809361200783830196879251928391611ad9565b8101038084520182611a12565b5190208551858101906566656d616c6560d01b825260068152612036816119f7565b519020143880611e3a565b1561204857565b60405162461bcd60e51b8152602060048201526016602482015275131a5cdd1a5b99c8191bd95cc81b9bdd08195e1a5cdd60521b6044820152606490fd5b1561208d57565b60405162461bcd60e51b815260206004820152601860248201527f43616c6c6572206973206e6f74207468652073656c6c657200000000000000006044820152606490fd5b90815480825260208092019260005281600020916000905b8282106120f8575050505090565b8354855293840193600193840193909101906120ea565b906000929180549161212083611994565b9182825260019384811690816000146121825750600114612142575b50505050565b90919394506000526020928360002092846000945b83861061216e57505050500101903880808061213c565b805485870183015294019385908201612157565b9294505050602093945060ff191683830152151560051b0101903880808061213c56fe9016d09d72d40fdae2fd8ceac6b6234c7706214fd39c1cd1e609a0528c1993009b779b17422d0df92223018b32b4d1fa46e071723d6817e2486d003becc55f00a2646970667358221220235cd9751b5410b8214f67ba944afe1662ae9312bcb66896cc21e9e6d9e7219164736f6c63430008140033",
  "linkReferences": {},
  "deployedLinkReferences": {}
}