{
  "_format": "hh-sol-artifact-1",
  "contractName": "GameMarketplace",
  "sourceName": "contracts/GameMarketplace.sol",
  "abi": [
    {
      "inputs": [],
      "stateMutability": "nonpayable",
      "type": "constructor"
    },
    {
      "inputs": [],
      "name": "AccessControlBadConfirmation",
      "type": "error"
    },
    {
      "inputs": [
        {
          "internalType": "address",
          "name": "account",
          "type": "address"
        },
        {
          "internalType": "bytes32",
          "name": "neededRole",
          "type": "bytes32"
        }
      ],
      "name": "AccessControlUnauthorizedAccount",
      "type": "error"
    },
    {
      "inputs": [
        {
          "internalType": "address",
          "name": "target",
          "type": "address"
        }
      ],
      "name": "AddressEmptyCode",
      "type": "error"
    },
    {
      "inputs": [
        {
          "internalType": "address",
          "name": "implementation",
          "type": "address"
        }
      ],
      "name": "ERC1967InvalidImplementation",
      "type": "error"
    },
    {
      "inputs": [],
      "name": "ERC1967NonPayable",
      "type": "error"
    },
    {
      "inputs": [],
      "name": "FailedInnerCall",
      "type": "error"
    },
    {
      "inputs": [],
      "name": "InvalidInitialization",
      "type": "error"
    },
    {
      "inputs": [],
      "name": "NotInitializing",
      "type": "error"
    },
    {
      "inputs": [],
      "name": "UUPSUnauthorizedCallContext",
      "type": "error"
    },
    {
      "inputs": [
        {
          "internalType": "bytes32",
          "name": "slot",
          "type": "bytes32"
        }
      ],
      "name": "UUPSUnsupportedProxiableUUID",
      "type": "error"
    },
    {
      "anonymous": false,
      "inputs": [
        {
          "indexed": false,
          "internalType": "uint64",
          "name": "version",
          "type": "uint64"
        }
      ],
      "name": "Initialized",
      "type": "event"
    },
    {
      "anonymous": false,
      "inputs": [
        {
          "indexed": true,
          "internalType": "address",
          "name": "nftAddress",
          "type": "address"
        },
        {
          "indexed": true,
          "internalType": "uint256",
          "name": "tokenId",
          "type": "uint256"
        },
        {
          "indexed": false,
          "internalType": "address",
          "name": "buyer",
          "type": "address"
        },
        {
          "indexed": false,
          "internalType": "uint256",
          "name": "price",
          "type": "uint256"
        },
        {
          "indexed": false,
          "internalType": "uint256[]",
          "name": "itemTokenIds",
          "type": "uint256[]"
        },
        {
          "indexed": false,
          "internalType": "string",
          "name": "itemType",
          "type": "string"
        },
        {
          "indexed": false,
          "internalType": "uint16",
          "name": "power",
          "type": "uint16"
        },
        {
          "indexed": false,
          "internalType": "uint8",
          "name": "durability",
          "type": "uint8"
        },
        {
          "indexed": false,
          "internalType": "string",
          "name": "characterOwner",
          "type": "string"
        }
      ],
      "name": "ItemBought",
      "type": "event"
    },
    {
      "anonymous": false,
      "inputs": [
        {
          "indexed": true,
          "internalType": "address",
          "name": "nftAddress",
          "type": "address"
        },
        {
          "indexed": true,
          "internalType": "uint256",
          "name": "tokenId",
          "type": "uint256"
        },
        {
          "indexed": false,
          "internalType": "address",
          "name": "seller",
          "type": "address"
        },
        {
          "indexed": false,
          "internalType": "uint256",
          "name": "price",
          "type": "uint256"
        },
        {
          "indexed": false,
          "internalType": "uint256[]",
          "name": "itemTokenIds",
          "type": "uint256[]"
        },
        {
          "indexed": false,
          "internalType": "string",
          "name": "itemType",
          "type": "string"
        },
        {
          "indexed": false,
          "internalType": "uint16",
          "name": "power",
          "type": "uint16"
        },
        {
          "indexed": false,
          "internalType": "uint8",
          "name": "durability",
          "type": "uint8"
        },
        {
          "indexed": false,
          "internalType": "string",
          "name": "characterOwner",
          "type": "string"
        }
      ],
      "name": "ItemListed",
      "type": "event"
    },
    {
      "anonymous": false,
      "inputs": [
        {
          "indexed": true,
          "internalType": "address",
          "name": "nftAddress",
          "type": "address"
        },
        {
          "indexed": true,
          "internalType": "uint256",
          "name": "tokenId",
          "type": "uint256"
        }
      ],
      "name": "ListingCancelled",
      "type": "event"
    },
    {
      "anonymous": false,
      "inputs": [
        {
          "indexed": true,
          "internalType": "address",
          "name": "nftAddress",
          "type": "address"
        },
        {
          "indexed": true,
          "internalType": "uint256",
          "name": "tokenId",
          "type": "uint256"
        },
        {
          "indexed": false,
          "internalType": "uint256",
          "name": "newPrice",
          "type": "uint256"
        }
      ],
      "name": "PriceChanged",
      "type": "event"
    },
    {
      "anonymous": false,
      "inputs": [
        {
          "indexed": true,
          "internalType": "bytes32",
          "name": "role",
          "type": "bytes32"
        },
        {
          "indexed": true,
          "internalType": "bytes32",
          "name": "previousAdminRole",
          "type": "bytes32"
        },
        {
          "indexed": true,
          "internalType": "bytes32",
          "name": "newAdminRole",
          "type": "bytes32"
        }
      ],
      "name": "RoleAdminChanged",
      "type": "event"
    },
    {
      "anonymous": false,
      "inputs": [
        {
          "indexed": true,
          "internalType": "bytes32",
          "name": "role",
          "type": "bytes32"
        },
        {
          "indexed": true,
          "internalType": "address",
          "name": "account",
          "type": "address"
        },
        {
          "indexed": true,
          "internalType": "address",
          "name": "sender",
          "type": "address"
        }
      ],
      "name": "RoleGranted",
      "type": "event"
    },
    {
      "anonymous": false,
      "inputs": [
        {
          "indexed": true,
          "internalType": "bytes32",
          "name": "role",
          "type": "bytes32"
        },
        {
          "indexed": true,
          "internalType": "address",
          "name": "account",
          "type": "address"
        },
        {
          "indexed": true,
          "internalType": "address",
          "name": "sender",
          "type": "address"
        }
      ],
      "name": "RoleRevoked",
      "type": "event"
    },
    {
      "anonymous": false,
      "inputs": [
        {
          "indexed": true,
          "internalType": "address",
          "name": "implementation",
          "type": "address"
        }
      ],
      "name": "Upgraded",
      "type": "event"
    },
    {
      "inputs": [],
      "name": "DEFAULT_ADMIN_ROLE",
      "outputs": [
        {
          "internalType": "bytes32",
          "name": "",
          "type": "bytes32"
        }
      ],
      "stateMutability": "view",
      "type": "function"
    },
    {
      "inputs": [],
      "name": "UPGRADE_INTERFACE_VERSION",
      "outputs": [
        {
          "internalType": "string",
          "name": "",
          "type": "string"
        }
      ],
      "stateMutability": "view",
      "type": "function"
    },
    {
      "inputs": [
        {
          "internalType": "address",
          "name": "nftAddress",
          "type": "address"
        },
        {
          "internalType": "uint256",
          "name": "tokenId",
          "type": "uint256"
        }
      ],
      "name": "buyItem",
      "outputs": [],
      "stateMutability": "payable",
      "type": "function"
    },
    {
      "inputs": [
        {
          "internalType": "address",
          "name": "nftAddress",
          "type": "address"
        },
        {
          "internalType": "uint256",
          "name": "tokenId",
          "type": "uint256"
        }
      ],
      "name": "cancelListing",
      "outputs": [],
      "stateMutability": "nonpayable",
      "type": "function"
    },
    {
      "inputs": [
        {
          "internalType": "address",
          "name": "nftAddress",
          "type": "address"
        },
        {
          "internalType": "uint256",
          "name": "tokenId",
          "type": "uint256"
        },
        {
          "internalType": "uint256",
          "name": "newPrice",
          "type": "uint256"
        }
      ],
      "name": "changePrice",
      "outputs": [],
      "stateMutability": "nonpayable",
      "type": "function"
    },
    {
      "inputs": [
        {
          "internalType": "bytes32",
          "name": "role",
          "type": "bytes32"
        }
      ],
      "name": "getRoleAdmin",
      "outputs": [
        {
          "internalType": "bytes32",
          "name": "",
          "type": "bytes32"
        }
      ],
      "stateMutability": "view",
      "type": "function"
    },
    {
      "inputs": [
        {
          "internalType": "bytes32",
          "name": "role",
          "type": "bytes32"
        },
        {
          "internalType": "address",
          "name": "account",
          "type": "address"
        }
      ],
      "name": "grantRole",
      "outputs": [],
      "stateMutability": "nonpayable",
      "type": "function"
    },
    {
      "inputs": [
        {
          "internalType": "bytes32",
          "name": "role",
          "type": "bytes32"
        },
        {
          "internalType": "address",
          "name": "account",
          "type": "address"
        }
      ],
      "name": "hasRole",
      "outputs": [
        {
          "internalType": "bool",
          "name": "",
          "type": "bool"
        }
      ],
      "stateMutability": "view",
      "type": "function"
    },
    {
      "inputs": [
        {
          "internalType": "address",
          "name": "defaultAdmin",
          "type": "address"
        },
        {
          "internalType": "address",
          "name": "_itemContract",
          "type": "address"
        }
      ],
      "name": "initialize",
      "outputs": [],
      "stateMutability": "nonpayable",
      "type": "function"
    },
    {
      "inputs": [],
      "name": "itemContract",
      "outputs": [
        {
          "internalType": "contract MintItem",
          "name": "",
          "type": "address"
        }
      ],
      "stateMutability": "view",
      "type": "function"
    },
    {
      "inputs": [
        {
          "internalType": "address",
          "name": "nftAddress",
          "type": "address"
        },
        {
          "internalType": "uint256",
          "name": "tokenId",
          "type": "uint256"
        },
        {
          "internalType": "uint256",
          "name": "price",
          "type": "uint256"
        },
        {
          "internalType": "uint256[]",
          "name": "itemTokenIds",
          "type": "uint256[]"
        },
        {
          "internalType": "string",
          "name": "itemType",
          "type": "string"
        },
        {
          "internalType": "uint16",
          "name": "power",
          "type": "uint16"
        },
        {
          "internalType": "uint8",
          "name": "durability",
          "type": "uint8"
        },
        {
          "internalType": "string",
          "name": "characterOwner",
          "type": "string"
        }
      ],
      "name": "listItemForSale",
      "outputs": [],
      "stateMutability": "nonpayable",
      "type": "function"
    },
    {
      "inputs": [
        {
          "internalType": "address",
          "name": "",
          "type": "address"
        },
        {
          "internalType": "uint256",
          "name": "",
          "type": "uint256"
        }
      ],
      "name": "listings",
      "outputs": [
        {
          "internalType": "uint256",
          "name": "tokenId",
          "type": "uint256"
        },
        {
          "internalType": "address payable",
          "name": "seller",
          "type": "address"
        },
        {
          "internalType": "uint256",
          "name": "price",
          "type": "uint256"
        },
        {
          "internalType": "bool",
          "name": "isActive",
          "type": "bool"
        },
        {
          "internalType": "string",
          "name": "itemType",
          "type": "string"
        },
        {
          "internalType": "uint16",
          "name": "power",
          "type": "uint16"
        },
        {
          "internalType": "uint8",
          "name": "durability",
          "type": "uint8"
        },
        {
          "internalType": "string",
          "name": "characterOwner",
          "type": "string"
        }
      ],
      "stateMutability": "view",
      "type": "function"
    },
    {
      "inputs": [],
      "name": "proxiableUUID",
      "outputs": [
        {
          "internalType": "bytes32",
          "name": "",
          "type": "bytes32"
        }
      ],
      "stateMutability": "view",
      "type": "function"
    },
    {
      "inputs": [
        {
          "internalType": "bytes32",
          "name": "role",
          "type": "bytes32"
        },
        {
          "internalType": "address",
          "name": "callerConfirmation",
          "type": "address"
        }
      ],
      "name": "renounceRole",
      "outputs": [],
      "stateMutability": "nonpayable",
      "type": "function"
    },
    {
      "inputs": [
        {
          "internalType": "bytes32",
          "name": "role",
          "type": "bytes32"
        },
        {
          "internalType": "address",
          "name": "account",
          "type": "address"
        }
      ],
      "name": "revokeRole",
      "outputs": [],
      "stateMutability": "nonpayable",
      "type": "function"
    },
    {
      "inputs": [
        {
          "internalType": "bytes4",
          "name": "interfaceId",
          "type": "bytes4"
        }
      ],
      "name": "supportsInterface",
      "outputs": [
        {
          "internalType": "bool",
          "name": "",
          "type": "bool"
        }
      ],
      "stateMutability": "view",
      "type": "function"
    },
    {
      "inputs": [
        {
          "internalType": "address",
          "name": "newImplementation",
          "type": "address"
        },
        {
          "internalType": "bytes",
          "name": "data",
          "type": "bytes"
        }
      ],
      "name": "upgradeToAndCall",
      "outputs": [],
      "stateMutability": "payable",
      "type": "function"
    }
  ],
  "bytecode": "0x60a06040523073ffffffffffffffffffffffffffffffffffffffff1660809073ffffffffffffffffffffffffffffffffffffffff168152503480156200004457600080fd5b50620000556200005b60201b60201c565b620001cf565b60006200006d6200016560201b60201c565b90508060000160089054906101000a900460ff1615620000b9576040517ff92ee8a900000000000000000000000000000000000000000000000000000000815260040160405180910390fd5b67ffffffffffffffff80168160000160009054906101000a900467ffffffffffffffff1667ffffffffffffffff1614620001625767ffffffffffffffff8160000160006101000a81548167ffffffffffffffff021916908367ffffffffffffffff1602179055507fc7f505b2f371ae2175ee4913f4499e1f2633a7b5936321eed1cdaeb6115181d267ffffffffffffffff604051620001599190620001b2565b60405180910390a15b50565b60007ff0c57e16840df040f15088dc2f81fe391c3923bec73e23a9662efc9c229c6a00905090565b600067ffffffffffffffff82169050919050565b620001ac816200018d565b82525050565b6000602082019050620001c96000830184620001a1565b92915050565b608051613238620001f960003960008181611662015281816116b7015261187801526132386000f3fe6080604052600436106100fd5760003560e01c8063741cbae411610095578063a217fddf11610064578063a217fddf1461032f578063ad3cb1cc1461035a578063b2ddee0614610385578063c08370b4146103ae578063d547741f146103d7576100fd565b8063741cbae4146102825780638d76f940146102ab57806391d14854146102d65780639f37092a14610313576100fd565b806336568abe116100d157806336568abe146101e9578063485cc955146102125780634f1ef2861461023b57806352d1902d14610257576100fd565b806207df301461010257806301ffc9a714610146578063248a9ca3146101835780632f2ff15d146101c0575b600080fd5b34801561010e57600080fd5b5061012960048036038101906101249190611e60565b610400565b60405161013d989796959493929190611fb4565b60405180910390f35b34801561015257600080fd5b5061016d60048036038101906101689190612098565b6105ad565b60405161017a91906120c5565b60405180910390f35b34801561018f57600080fd5b506101aa60048036038101906101a59190612116565b6105bf565b6040516101b79190612152565b60405180910390f35b3480156101cc57600080fd5b506101e760048036038101906101e2919061216d565b6105ed565b005b3480156101f557600080fd5b50610210600480360381019061020b919061216d565b61060f565b005b34801561021e57600080fd5b50610239600480360381019061023491906121ad565b61068a565b005b61025560048036038101906102509190612322565b610868565b005b34801561026357600080fd5b5061026c610887565b6040516102799190612152565b60405180910390f35b34801561028e57600080fd5b506102a960048036038101906102a4919061237e565b6108ba565b005b3480156102b757600080fd5b506102c0610a4e565b6040516102cd9190612430565b60405180910390f35b3480156102e257600080fd5b506102fd60048036038101906102f8919061216d565b610a74565b60405161030a91906120c5565b60405180910390f35b61032d60048036038101906103289190611e60565b610aed565b005b34801561033b57600080fd5b50610344610da1565b6040516103519190612152565b60405180910390f35b34801561036657600080fd5b5061036f610da8565b60405161037c919061244b565b60405180910390f35b34801561039157600080fd5b506103ac60048036038101906103a79190611e60565b610de1565b005b3480156103ba57600080fd5b506103d560048036038101906103d0919061262e565b610f7d565b005b3480156103e357600080fd5b506103fe60048036038101906103f9919061216d565b61134b565b005b6000602052816000526040600020602052806000526040600020600091509150508060000154908060010160009054906101000a900473ffffffffffffffffffffffffffffffffffffffff16908060020154908060030160009054906101000a900460ff169080600501805461047590612767565b80601f01602080910402602001604051908101604052809291908181526020018280546104a190612767565b80156104ee5780601f106104c3576101008083540402835291602001916104ee565b820191906000526020600020905b8154815290600101906020018083116104d157829003601f168201915b5050505050908060060160009054906101000a900461ffff16908060060160029054906101000a900460ff169080600701805461052a90612767565b80601f016020809104026020016040519081016040528092919081815260200182805461055690612767565b80156105a35780601f10610578576101008083540402835291602001916105a3565b820191906000526020600020905b81548152906001019060200180831161058657829003601f168201915b5050505050905088565b60006105b88261136d565b9050919050565b6000806105ca6113e7565b905080600001600084815260200190815260200160002060010154915050919050565b6105f6826105bf565b6105ff8161140f565b6106098383611423565b50505050565b610617611524565b73ffffffffffffffffffffffffffffffffffffffff168173ffffffffffffffffffffffffffffffffffffffff161461067b576040517f6697b23200000000000000000000000000000000000000000000000000000000815260040160405180910390fd5b610685828261152c565b505050565b600061069461162e565b905060008160000160089054906101000a900460ff1615905060008260000160009054906101000a900467ffffffffffffffff1690506000808267ffffffffffffffff161480156106e25750825b9050600060018367ffffffffffffffff16148015610717575060003073ffffffffffffffffffffffffffffffffffffffff163b145b905081158015610725575080155b1561075c576040517ff92ee8a900000000000000000000000000000000000000000000000000000000815260040160405180910390fd5b60018560000160006101000a81548167ffffffffffffffff021916908367ffffffffffffffff16021790555083156107ac5760018560000160086101000a81548160ff0219169083151502179055505b6107b4611656565b6107c16000801b88611423565b5085600160006101000a81548173ffffffffffffffffffffffffffffffffffffffff021916908373ffffffffffffffffffffffffffffffffffffffff160217905550831561085f5760008560000160086101000a81548160ff0219169083151502179055507fc7f505b2f371ae2175ee4913f4499e1f2633a7b5936321eed1cdaeb6115181d2600160405161085691906127e7565b60405180910390a15b50505050505050565b610870611660565b61087982611746565b6108838282611757565b5050565b6000610891611876565b7f360894a13ba1a3210667c828492db98dca3e2076cc3735a920a3ca505d382bbc60001b905090565b60008060008573ffffffffffffffffffffffffffffffffffffffff1673ffffffffffffffffffffffffffffffffffffffff168152602001908152602001600020600084815260200190815260200160002090508060030160009054906101000a900460ff1661095e576040517f08c379a00000000000000000000000000000000000000000000000000000000081526004016109559061284e565b60405180910390fd5b3373ffffffffffffffffffffffffffffffffffffffff168160010160009054906101000a900473ffffffffffffffffffffffffffffffffffffffff1673ffffffffffffffffffffffffffffffffffffffff16146109f0576040517f08c379a00000000000000000000000000000000000000000000000000000000081526004016109e7906128ba565b60405180910390fd5b818160020181905550828473ffffffffffffffffffffffffffffffffffffffff167f4d624906ce6fd4e4b8b649463516ff505029a1903a8cc34bd82b4ca0f9a479de84604051610a4091906128da565b60405180910390a350505050565b600160009054906101000a900473ffffffffffffffffffffffffffffffffffffffff1681565b600080610a7f6113e7565b905080600001600085815260200190815260200160002060000160008473ffffffffffffffffffffffffffffffffffffffff1673ffffffffffffffffffffffffffffffffffffffff16815260200190815260200160002060009054906101000a900460ff1691505092915050565b60008060008473ffffffffffffffffffffffffffffffffffffffff1673ffffffffffffffffffffffffffffffffffffffff168152602001908152602001600020600083815260200190815260200160002090508060030160009054906101000a900460ff16610b91576040517f08c379a0000000000000000000000000000000000000000000000000000000008152600401610b8890612941565b60405180910390fd5b8060020154341015610bd8576040517f08c379a0000000000000000000000000000000000000000000000000000000008152600401610bcf906129ad565b60405180910390fd5b60008160030160006101000a81548160ff0219169083151502179055508060010160009054906101000a900473ffffffffffffffffffffffffffffffffffffffff1673ffffffffffffffffffffffffffffffffffffffff166108fc349081150290604051600060405180830381858888f19350505050158015610c5f573d6000803e3d6000fd5b50600160009054906101000a900473ffffffffffffffffffffffffffffffffffffffff1673ffffffffffffffffffffffffffffffffffffffff166323b872dd8260010160009054906101000a900473ffffffffffffffffffffffffffffffffffffffff1633856040518463ffffffff1660e01b8152600401610ce3939291906129fd565b600060405180830381600087803b158015610cfd57600080fd5b505af1158015610d11573d6000803e3d6000fd5b50505050818373ffffffffffffffffffffffffffffffffffffffff167f214f19748cb1ec96983710a467eaf37eb2c4b1b401559db53458eda3178a46c7333485600401866005018760060160009054906101000a900461ffff168860060160029054906101000a900460ff1689600701604051610d949796959493929190612bdb565b60405180910390a3505050565b6000801b81565b6040518060400160405280600581526020017f352e302e3000000000000000000000000000000000000000000000000000000081525081565b60008060008473ffffffffffffffffffffffffffffffffffffffff1673ffffffffffffffffffffffffffffffffffffffff168152602001908152602001600020600083815260200190815260200160002090508060030160009054906101000a900460ff16610e85576040517f08c379a0000000000000000000000000000000000000000000000000000000008152600401610e7c9061284e565b60405180910390fd5b3373ffffffffffffffffffffffffffffffffffffffff168160010160009054906101000a900473ffffffffffffffffffffffffffffffffffffffff1673ffffffffffffffffffffffffffffffffffffffff1614610f17576040517f08c379a0000000000000000000000000000000000000000000000000000000008152600401610f0e906128ba565b60405180910390fd5b60008160030160006101000a81548160ff021916908315150217905550818373ffffffffffffffffffffffffffffffffffffffff167f93ec4766fcd2d9dfdceab8f2e13ba0d9d826645cf03167fdb92b3b7359b5248c60405160405180910390a3505050565b3073ffffffffffffffffffffffffffffffffffffffff16600160009054906101000a900473ffffffffffffffffffffffffffffffffffffffff1673ffffffffffffffffffffffffffffffffffffffff1663081812fc896040518263ffffffff1660e01b8152600401610fef91906128da565b602060405180830381865afa15801561100c573d6000803e3d6000fd5b505050506040513d601f19601f820116820180604052508101906110309190612c74565b73ffffffffffffffffffffffffffffffffffffffff1614806110ec5750600160009054906101000a900473ffffffffffffffffffffffffffffffffffffffff1673ffffffffffffffffffffffffffffffffffffffff1663e985e9c533306040518363ffffffff1660e01b81526004016110aa929190612ca1565b602060405180830381865afa1580156110c7573d6000803e3d6000fd5b505050506040513d601f19601f820116820180604052508101906110eb9190612cf6565b5b61112b576040517f08c379a000000000000000000000000000000000000000000000000000000000815260040161112290612d95565b60405180910390fd5b6040518061012001604052808881526020013373ffffffffffffffffffffffffffffffffffffffff1681526020018781526020016001151581526020018681526020018581526020018461ffff1681526020018360ff168152602001828152506000808a73ffffffffffffffffffffffffffffffffffffffff1673ffffffffffffffffffffffffffffffffffffffff16815260200190815260200160002060008981526020019081526020016000206000820151816000015560208201518160010160006101000a81548173ffffffffffffffffffffffffffffffffffffffff021916908373ffffffffffffffffffffffffffffffffffffffff1602179055506040820151816002015560608201518160030160006101000a81548160ff0219169083151502179055506080820151816004019080519060200190611271929190611d4e565b5060a08201518160050190816112879190612f42565b5060c08201518160060160006101000a81548161ffff021916908361ffff16021790555060e08201518160060160026101000a81548160ff021916908360ff1602179055506101008201518160070190816112e29190612f42565b50905050868873ffffffffffffffffffffffffffffffffffffffff167f37323b9c4a3c9d9bc00d880e6a0eec261e1cd31f6e2eb58d589fdef88ba68ac433898989898989604051611339979695949392919061309a565b60405180910390a35050505050505050565b611354826105bf565b61135d8161140f565b611367838361152c565b50505050565b60007f7965db0b000000000000000000000000000000000000000000000000000000007bffffffffffffffffffffffffffffffffffffffffffffffffffffffff1916827bffffffffffffffffffffffffffffffffffffffffffffffffffffffff191614806113e057506113df826118fd565b5b9050919050565b60007f02dd7bc7dec4dceedda775e58dd541e08a116c6c53815c0bd028192f7b626800905090565b6114208161141b611524565b611967565b50565b60008061142e6113e7565b905061143a8484610a74565b61151857600181600001600086815260200190815260200160002060000160008573ffffffffffffffffffffffffffffffffffffffff1673ffffffffffffffffffffffffffffffffffffffff16815260200190815260200160002060006101000a81548160ff0219169083151502179055506114b4611524565b73ffffffffffffffffffffffffffffffffffffffff168373ffffffffffffffffffffffffffffffffffffffff16857f2f8788117e7eff1d82e926ec794901d17c78024a50270940304540a733656f0d60405160405180910390a4600191505061151e565b60009150505b92915050565b600033905090565b6000806115376113e7565b90506115438484610a74565b1561162257600081600001600086815260200190815260200160002060000160008573ffffffffffffffffffffffffffffffffffffffff1673ffffffffffffffffffffffffffffffffffffffff16815260200190815260200160002060006101000a81548160ff0219169083151502179055506115be611524565b73ffffffffffffffffffffffffffffffffffffffff168373ffffffffffffffffffffffffffffffffffffffff16857ff6391f5c32d9c69d2a47ea670b442974b53935d1edc7fd64eb21e047a839171b60405160405180910390a46001915050611628565b60009150505b92915050565b60007ff0c57e16840df040f15088dc2f81fe391c3923bec73e23a9662efc9c229c6a00905090565b61165e6119b8565b565b7f000000000000000000000000000000000000000000000000000000000000000073ffffffffffffffffffffffffffffffffffffffff163073ffffffffffffffffffffffffffffffffffffffff16148061170d57507f000000000000000000000000000000000000000000000000000000000000000073ffffffffffffffffffffffffffffffffffffffff166116f46119f8565b73ffffffffffffffffffffffffffffffffffffffff1614155b15611744576040517fe07c8dba00000000000000000000000000000000000000000000000000000000815260040160405180910390fd5b565b6000801b6117538161140f565b5050565b8173ffffffffffffffffffffffffffffffffffffffff166352d1902d6040518163ffffffff1660e01b8152600401602060405180830381865afa9250505080156117bf57506040513d601f19601f820116820180604052508101906117bc9190613133565b60015b61180057816040517f4c9c8ce30000000000000000000000000000000000000000000000000000000081526004016117f79190613160565b60405180910390fd5b7f360894a13ba1a3210667c828492db98dca3e2076cc3735a920a3ca505d382bbc60001b811461186757806040517faa1d49a400000000000000000000000000000000000000000000000000000000815260040161185e9190612152565b60405180910390fd5b6118718383611a4f565b505050565b7f000000000000000000000000000000000000000000000000000000000000000073ffffffffffffffffffffffffffffffffffffffff163073ffffffffffffffffffffffffffffffffffffffff16146118fb576040517fe07c8dba00000000000000000000000000000000000000000000000000000000815260040160405180910390fd5b565b60007f01ffc9a7000000000000000000000000000000000000000000000000000000007bffffffffffffffffffffffffffffffffffffffffffffffffffffffff1916827bffffffffffffffffffffffffffffffffffffffffffffffffffffffff1916149050919050565b6119718282610a74565b6119b45780826040517fe2517d3f0000000000000000000000000000000000000000000000000000000081526004016119ab92919061317b565b60405180910390fd5b5050565b6119c0611ac2565b6119f6576040517fd7e6bcf800000000000000000000000000000000000000000000000000000000815260040160405180910390fd5b565b6000611a267f360894a13ba1a3210667c828492db98dca3e2076cc3735a920a3ca505d382bbc60001b611ae2565b60000160009054906101000a900473ffffffffffffffffffffffffffffffffffffffff16905090565b611a5882611aec565b8173ffffffffffffffffffffffffffffffffffffffff167fbc7cd75a20ee27fd9adebab32041f755214dbc6bffa90cc0225b39da2e5c2d3b60405160405180910390a2600081511115611ab557611aaf8282611bb9565b50611abe565b611abd611c3d565b5b5050565b6000611acc61162e565b60000160089054906101000a900460ff16905090565b6000819050919050565b60008173ffffffffffffffffffffffffffffffffffffffff163b03611b4857806040517f4c9c8ce3000000000000000000000000000000000000000000000000000000008152600401611b3f9190613160565b60405180910390fd5b80611b757f360894a13ba1a3210667c828492db98dca3e2076cc3735a920a3ca505d382bbc60001b611ae2565b60000160006101000a81548173ffffffffffffffffffffffffffffffffffffffff021916908373ffffffffffffffffffffffffffffffffffffffff16021790555050565b60606000808473ffffffffffffffffffffffffffffffffffffffff1684604051611be391906131eb565b600060405180830381855af49150503d8060008114611c1e576040519150601f19603f3d011682016040523d82523d6000602084013e611c23565b606091505b5091509150611c33858383611c7a565b9250505092915050565b6000341115611c78576040517fb398979f00000000000000000000000000000000000000000000000000000000815260040160405180910390fd5b565b606082611c8f57611c8a82611d09565b611d01565b60008251148015611cb7575060008473ffffffffffffffffffffffffffffffffffffffff163b145b15611cf957836040517f9996b315000000000000000000000000000000000000000000000000000000008152600401611cf09190613160565b60405180910390fd5b819050611d02565b5b9392505050565b600081511115611d1c5780518082602001fd5b6040517f1425ea4200000000000000000000000000000000000000000000000000000000815260040160405180910390fd5b828054828255906000526020600020908101928215611d8a579160200282015b82811115611d89578251825591602001919060010190611d6e565b5b509050611d979190611d9b565b5090565b5b80821115611db4576000816000905550600101611d9c565b5090565b6000604051905090565b600080fd5b600080fd5b600073ffffffffffffffffffffffffffffffffffffffff82169050919050565b6000611df782611dcc565b9050919050565b611e0781611dec565b8114611e1257600080fd5b50565b600081359050611e2481611dfe565b92915050565b6000819050919050565b611e3d81611e2a565b8114611e4857600080fd5b50565b600081359050611e5a81611e34565b92915050565b60008060408385031215611e7757611e76611dc2565b5b6000611e8585828601611e15565b9250506020611e9685828601611e4b565b9150509250929050565b611ea981611e2a565b82525050565b6000611eba82611dcc565b9050919050565b611eca81611eaf565b82525050565b60008115159050919050565b611ee581611ed0565b82525050565b600081519050919050565b600082825260208201905092915050565b60005b83811015611f25578082015181840152602081019050611f0a565b60008484015250505050565b6000601f19601f8301169050919050565b6000611f4d82611eeb565b611f578185611ef6565b9350611f67818560208601611f07565b611f7081611f31565b840191505092915050565b600061ffff82169050919050565b611f9281611f7b565b82525050565b600060ff82169050919050565b611fae81611f98565b82525050565b600061010082019050611fca600083018b611ea0565b611fd7602083018a611ec1565b611fe46040830189611ea0565b611ff16060830188611edc565b81810360808301526120038187611f42565b905061201260a0830186611f89565b61201f60c0830185611fa5565b81810360e08301526120318184611f42565b90509998505050505050505050565b60007fffffffff0000000000000000000000000000000000000000000000000000000082169050919050565b61207581612040565b811461208057600080fd5b50565b6000813590506120928161206c565b92915050565b6000602082840312156120ae576120ad611dc2565b5b60006120bc84828501612083565b91505092915050565b60006020820190506120da6000830184611edc565b92915050565b6000819050919050565b6120f3816120e0565b81146120fe57600080fd5b50565b600081359050612110816120ea565b92915050565b60006020828403121561212c5761212b611dc2565b5b600061213a84828501612101565b91505092915050565b61214c816120e0565b82525050565b60006020820190506121676000830184612143565b92915050565b6000806040838503121561218457612183611dc2565b5b600061219285828601612101565b92505060206121a385828601611e15565b9150509250929050565b600080604083850312156121c4576121c3611dc2565b5b60006121d285828601611e15565b92505060206121e385828601611e15565b9150509250929050565b600080fd5b600080fd5b7f4e487b7100000000000000000000000000000000000000000000000000000000600052604160045260246000fd5b61222f82611f31565b810181811067ffffffffffffffff8211171561224e5761224d6121f7565b5b80604052505050565b6000612261611db8565b905061226d8282612226565b919050565b600067ffffffffffffffff82111561228d5761228c6121f7565b5b61229682611f31565b9050602081019050919050565b82818337600083830152505050565b60006122c56122c084612272565b612257565b9050828152602081018484840111156122e1576122e06121f2565b5b6122ec8482856122a3565b509392505050565b600082601f830112612309576123086121ed565b5b81356123198482602086016122b2565b91505092915050565b6000806040838503121561233957612338611dc2565b5b600061234785828601611e15565b925050602083013567ffffffffffffffff81111561236857612367611dc7565b5b612374858286016122f4565b9150509250929050565b60008060006060848603121561239757612396611dc2565b5b60006123a586828701611e15565b93505060206123b686828701611e4b565b92505060406123c786828701611e4b565b9150509250925092565b6000819050919050565b60006123f66123f16123ec84611dcc565b6123d1565b611dcc565b9050919050565b6000612408826123db565b9050919050565b600061241a826123fd565b9050919050565b61242a8161240f565b82525050565b60006020820190506124456000830184612421565b92915050565b600060208201905081810360008301526124658184611f42565b905092915050565b600067ffffffffffffffff821115612488576124876121f7565b5b602082029050602081019050919050565b600080fd5b60006124b16124ac8461246d565b612257565b905080838252602082019050602084028301858111156124d4576124d3612499565b5b835b818110156124fd57806124e98882611e4b565b8452602084019350506020810190506124d6565b5050509392505050565b600082601f83011261251c5761251b6121ed565b5b813561252c84826020860161249e565b91505092915050565b600067ffffffffffffffff8211156125505761254f6121f7565b5b61255982611f31565b9050602081019050919050565b600061257961257484612535565b612257565b905082815260208101848484011115612595576125946121f2565b5b6125a08482856122a3565b509392505050565b600082601f8301126125bd576125bc6121ed565b5b81356125cd848260208601612566565b91505092915050565b6125df81611f7b565b81146125ea57600080fd5b50565b6000813590506125fc816125d6565b92915050565b61260b81611f98565b811461261657600080fd5b50565b60008135905061262881612602565b92915050565b600080600080600080600080610100898b03121561264f5761264e611dc2565b5b600061265d8b828c01611e15565b985050602061266e8b828c01611e4b565b975050604061267f8b828c01611e4b565b965050606089013567ffffffffffffffff8111156126a05761269f611dc7565b5b6126ac8b828c01612507565b955050608089013567ffffffffffffffff8111156126cd576126cc611dc7565b5b6126d98b828c016125a8565b94505060a06126ea8b828c016125ed565b93505060c06126fb8b828c01612619565b92505060e089013567ffffffffffffffff81111561271c5761271b611dc7565b5b6127288b828c016125a8565b9150509295985092959890939650565b7f4e487b7100000000000000000000000000000000000000000000000000000000600052602260045260246000fd5b6000600282049050600182168061277f57607f821691505b60208210810361279257612791612738565b5b50919050565b6000819050919050565b600067ffffffffffffffff82169050919050565b60006127d16127cc6127c784612798565b6123d1565b6127a2565b9050919050565b6127e1816127b6565b82525050565b60006020820190506127fc60008301846127d8565b92915050565b7f4c697374696e6720646f6573206e6f7420657869737400000000000000000000600082015250565b6000612838601683611ef6565b915061284382612802565b602082019050919050565b600060208201905081810360008301526128678161282b565b9050919050565b7f43616c6c6572206973206e6f74207468652073656c6c65720000000000000000600082015250565b60006128a4601883611ef6565b91506128af8261286e565b602082019050919050565b600060208201905081810360008301526128d381612897565b9050919050565b60006020820190506128ef6000830184611ea0565b92915050565b7f4c697374696e67206973206e6f74206163746976650000000000000000000000600082015250565b600061292b601583611ef6565b9150612936826128f5565b602082019050919050565b6000602082019050818103600083015261295a8161291e565b9050919050565b7f496e73756666696369656e74207061796d656e74000000000000000000000000600082015250565b6000612997601483611ef6565b91506129a282612961565b602082019050919050565b600060208201905081810360008301526129c68161298a565b9050919050565b60006129d8826123fd565b9050919050565b6129e8816129cd565b82525050565b6129f781611dec565b82525050565b6000606082019050612a1260008301866129df565b612a1f60208301856129ee565b612a2c6040830184611ea0565b949350505050565b600081549050919050565b600082825260208201905092915050565b60008190508160005260206000209050919050565b612a6e81611e2a565b82525050565b6000612a808383612a65565b60208301905092915050565b60008160001c9050919050565b6000819050919050565b6000612ab6612ab183612a8c565b612a99565b9050919050565b6000612ac98254612aa3565b9050919050565b6000600182019050919050565b6000612ae882612a34565b612af28185612a3f565b9350612afd83612a50565b8060005b83811015612b3557612b1282612abd565b612b1c8882612a74565b9750612b2783612ad0565b925050600181019050612b01565b5085935050505092915050565b60008190508160005260206000209050919050565b60008154612b6481612767565b612b6e8186611ef6565b94506001821660008114612b895760018114612b9f57612bd2565b60ff198316865281151560200286019350612bd2565b612ba885612b42565b60005b83811015612bca57815481890152600182019150602081019050612bab565b808801955050505b50505092915050565b600060e082019050612bf0600083018a6129ee565b612bfd6020830189611ea0565b8181036040830152612c0f8188612add565b90508181036060830152612c238187612b57565b9050612c326080830186611f89565b612c3f60a0830185611fa5565b81810360c0830152612c518184612b57565b905098975050505050505050565b600081519050612c6e81611dfe565b92915050565b600060208284031215612c8a57612c89611dc2565b5b6000612c9884828501612c5f565b91505092915050565b6000604082019050612cb660008301856129ee565b612cc360208301846129ee565b9392505050565b612cd381611ed0565b8114612cde57600080fd5b50565b600081519050612cf081612cca565b92915050565b600060208284031215612d0c57612d0b611dc2565b5b6000612d1a84828501612ce1565b91505092915050565b7f4d61726b6574706c616365206e6f7420617070726f76656420746f207472616e60008201527f736665722074686973204e465400000000000000000000000000000000000000602082015250565b6000612d7f602d83611ef6565b9150612d8a82612d23565b604082019050919050565b60006020820190508181036000830152612dae81612d72565b9050919050565b60006020601f8301049050919050565b600082821b905092915050565b600060088302612e027fffffffffffffffffffffffffffffffffffffffffffffffffffffffffffffffff82612dc5565b612e0c8683612dc5565b95508019841693508086168417925050509392505050565b6000612e3f612e3a612e3584611e2a565b6123d1565b611e2a565b9050919050565b6000819050919050565b612e5983612e24565b612e6d612e6582612e46565b848454612dd2565b825550505050565b600090565b612e82612e75565b612e8d818484612e50565b505050565b5b81811015612eb157612ea6600082612e7a565b600181019050612e93565b5050565b601f821115612ef657612ec781612b42565b612ed084612db5565b81016020851015612edf578190505b612ef3612eeb85612db5565b830182612e92565b50505b505050565b600082821c905092915050565b6000612f1960001984600802612efb565b1980831691505092915050565b6000612f328383612f08565b9150826002028217905092915050565b612f4b82611eeb565b67ffffffffffffffff811115612f6457612f636121f7565b5b612f6e8254612767565b612f79828285612eb5565b600060209050601f831160018114612fac5760008415612f9a578287015190505b612fa48582612f26565b86555061300c565b601f198416612fba86612b42565b60005b82811015612fe257848901518255600182019150602085019450602081019050612fbd565b86831015612fff5784890151612ffb601f891682612f08565b8355505b6001600288020188555050505b505050505050565b600081519050919050565b6000819050602082019050919050565b6000602082019050919050565b600061304782613014565b6130518185612a3f565b935061305c8361301f565b8060005b8381101561308d5781516130748882612a74565b975061307f8361302f565b925050600181019050613060565b5085935050505092915050565b600060e0820190506130af600083018a6129ee565b6130bc6020830189611ea0565b81810360408301526130ce818861303c565b905081810360608301526130e28187611f42565b90506130f16080830186611f89565b6130fe60a0830185611fa5565b81810360c08301526131108184611f42565b905098975050505050505050565b60008151905061312d816120ea565b92915050565b60006020828403121561314957613148611dc2565b5b60006131578482850161311e565b91505092915050565b600060208201905061317560008301846129ee565b92915050565b600060408201905061319060008301856129ee565b61319d6020830184612143565b9392505050565b600081519050919050565b600081905092915050565b60006131c5826131a4565b6131cf81856131af565b93506131df818560208601611f07565b80840191505092915050565b60006131f782846131ba565b91508190509291505056fea2646970667358221220f60bfce6739158922f9d46aca71537e0289d15c0097ccf14c188b90944dcea3164736f6c63430008140033",
  "linkReferences": {},
  "deployedLinkReferences": {}
}