{
  "_format": "hh-sol-artifact-1",
  "contractName": "GameMarketplace",
  "sourceName": "contracts/GameMarketplace.sol",
  "abi": [
    {
      "inputs": [],
      "stateMutability": "nonpayable",
      "type": "constructor"
    },
    {
      "inputs": [],
      "name": "AccessControlBadConfirmation",
      "type": "error"
    },
    {
      "inputs": [
        {
          "internalType": "address",
          "name": "account",
          "type": "address"
        },
        {
          "internalType": "bytes32",
          "name": "neededRole",
          "type": "bytes32"
        }
      ],
      "name": "AccessControlUnauthorizedAccount",
      "type": "error"
    },
    {
      "inputs": [
        {
          "internalType": "address",
          "name": "target",
          "type": "address"
        }
      ],
      "name": "AddressEmptyCode",
      "type": "error"
    },
    {
      "inputs": [
        {
          "internalType": "address",
          "name": "implementation",
          "type": "address"
        }
      ],
      "name": "ERC1967InvalidImplementation",
      "type": "error"
    },
    {
      "inputs": [],
      "name": "ERC1967NonPayable",
      "type": "error"
    },
    {
      "inputs": [],
      "name": "FailedInnerCall",
      "type": "error"
    },
    {
      "inputs": [],
      "name": "InvalidInitialization",
      "type": "error"
    },
    {
      "inputs": [],
      "name": "NotInitializing",
      "type": "error"
    },
    {
      "inputs": [],
      "name": "UUPSUnauthorizedCallContext",
      "type": "error"
    },
    {
      "inputs": [
        {
          "internalType": "bytes32",
          "name": "slot",
          "type": "bytes32"
        }
      ],
      "name": "UUPSUnsupportedProxiableUUID",
      "type": "error"
    },
    {
      "anonymous": false,
      "inputs": [
        {
          "indexed": false,
          "internalType": "uint64",
          "name": "version",
          "type": "uint64"
        }
      ],
      "name": "Initialized",
      "type": "event"
    },
    {
      "anonymous": false,
      "inputs": [
        {
          "indexed": true,
          "internalType": "address",
          "name": "nftAddress",
          "type": "address"
        },
        {
          "indexed": true,
          "internalType": "uint256",
          "name": "tokenId",
          "type": "uint256"
        },
        {
          "indexed": false,
          "internalType": "address",
          "name": "buyer",
          "type": "address"
        },
        {
          "indexed": false,
          "internalType": "uint256",
          "name": "price",
          "type": "uint256"
        }
      ],
      "name": "ItemBought",
      "type": "event"
    },
    {
      "anonymous": false,
      "inputs": [
        {
          "indexed": true,
          "internalType": "address",
          "name": "nftAddress",
          "type": "address"
        },
        {
          "indexed": true,
          "internalType": "uint256",
          "name": "tokenId",
          "type": "uint256"
        },
        {
          "indexed": false,
          "internalType": "address",
          "name": "seller",
          "type": "address"
        },
        {
          "indexed": false,
          "internalType": "uint256",
          "name": "price",
          "type": "uint256"
        },
        {
          "indexed": false,
          "internalType": "uint256[]",
          "name": "itemTokenIds",
          "type": "uint256[]"
        }
      ],
      "name": "ItemListed",
      "type": "event"
    },
    {
      "anonymous": false,
      "inputs": [
        {
          "indexed": true,
          "internalType": "address",
          "name": "nftAddress",
          "type": "address"
        },
        {
          "indexed": true,
          "internalType": "uint256",
          "name": "tokenId",
          "type": "uint256"
        }
      ],
      "name": "ListingCancelled",
      "type": "event"
    },
    {
      "anonymous": false,
      "inputs": [
        {
          "indexed": true,
          "internalType": "address",
          "name": "nftAddress",
          "type": "address"
        },
        {
          "indexed": true,
          "internalType": "uint256",
          "name": "tokenId",
          "type": "uint256"
        },
        {
          "indexed": false,
          "internalType": "uint256",
          "name": "newPrice",
          "type": "uint256"
        }
      ],
      "name": "PriceChanged",
      "type": "event"
    },
    {
      "anonymous": false,
      "inputs": [
        {
          "indexed": true,
          "internalType": "bytes32",
          "name": "role",
          "type": "bytes32"
        },
        {
          "indexed": true,
          "internalType": "bytes32",
          "name": "previousAdminRole",
          "type": "bytes32"
        },
        {
          "indexed": true,
          "internalType": "bytes32",
          "name": "newAdminRole",
          "type": "bytes32"
        }
      ],
      "name": "RoleAdminChanged",
      "type": "event"
    },
    {
      "anonymous": false,
      "inputs": [
        {
          "indexed": true,
          "internalType": "bytes32",
          "name": "role",
          "type": "bytes32"
        },
        {
          "indexed": true,
          "internalType": "address",
          "name": "account",
          "type": "address"
        },
        {
          "indexed": true,
          "internalType": "address",
          "name": "sender",
          "type": "address"
        }
      ],
      "name": "RoleGranted",
      "type": "event"
    },
    {
      "anonymous": false,
      "inputs": [
        {
          "indexed": true,
          "internalType": "bytes32",
          "name": "role",
          "type": "bytes32"
        },
        {
          "indexed": true,
          "internalType": "address",
          "name": "account",
          "type": "address"
        },
        {
          "indexed": true,
          "internalType": "address",
          "name": "sender",
          "type": "address"
        }
      ],
      "name": "RoleRevoked",
      "type": "event"
    },
    {
      "anonymous": false,
      "inputs": [
        {
          "indexed": true,
          "internalType": "address",
          "name": "implementation",
          "type": "address"
        }
      ],
      "name": "Upgraded",
      "type": "event"
    },
    {
      "inputs": [],
      "name": "DEFAULT_ADMIN_ROLE",
      "outputs": [
        {
          "internalType": "bytes32",
          "name": "",
          "type": "bytes32"
        }
      ],
      "stateMutability": "view",
      "type": "function"
    },
    {
      "inputs": [],
      "name": "UPGRADE_INTERFACE_VERSION",
      "outputs": [
        {
          "internalType": "string",
          "name": "",
          "type": "string"
        }
      ],
      "stateMutability": "view",
      "type": "function"
    },
    {
      "inputs": [
        {
          "internalType": "address",
          "name": "nftAddress",
          "type": "address"
        },
        {
          "internalType": "uint256",
          "name": "tokenId",
          "type": "uint256"
        }
      ],
      "name": "buyItem",
      "outputs": [],
      "stateMutability": "payable",
      "type": "function"
    },
    {
      "inputs": [
        {
          "internalType": "address",
          "name": "nftAddress",
          "type": "address"
        },
        {
          "internalType": "uint256",
          "name": "tokenId",
          "type": "uint256"
        }
      ],
      "name": "cancelListing",
      "outputs": [],
      "stateMutability": "nonpayable",
      "type": "function"
    },
    {
      "inputs": [
        {
          "internalType": "address",
          "name": "nftAddress",
          "type": "address"
        },
        {
          "internalType": "uint256",
          "name": "tokenId",
          "type": "uint256"
        },
        {
          "internalType": "uint256",
          "name": "newPrice",
          "type": "uint256"
        }
      ],
      "name": "changePrice",
      "outputs": [],
      "stateMutability": "nonpayable",
      "type": "function"
    },
    {
      "inputs": [
        {
          "internalType": "bytes32",
          "name": "role",
          "type": "bytes32"
        }
      ],
      "name": "getRoleAdmin",
      "outputs": [
        {
          "internalType": "bytes32",
          "name": "",
          "type": "bytes32"
        }
      ],
      "stateMutability": "view",
      "type": "function"
    },
    {
      "inputs": [
        {
          "internalType": "bytes32",
          "name": "role",
          "type": "bytes32"
        },
        {
          "internalType": "address",
          "name": "account",
          "type": "address"
        }
      ],
      "name": "grantRole",
      "outputs": [],
      "stateMutability": "nonpayable",
      "type": "function"
    },
    {
      "inputs": [
        {
          "internalType": "bytes32",
          "name": "role",
          "type": "bytes32"
        },
        {
          "internalType": "address",
          "name": "account",
          "type": "address"
        }
      ],
      "name": "hasRole",
      "outputs": [
        {
          "internalType": "bool",
          "name": "",
          "type": "bool"
        }
      ],
      "stateMutability": "view",
      "type": "function"
    },
    {
      "inputs": [
        {
          "internalType": "address",
          "name": "defaultAdmin",
          "type": "address"
        },
        {
          "internalType": "address",
          "name": "_itemContract",
          "type": "address"
        }
      ],
      "name": "initialize",
      "outputs": [],
      "stateMutability": "nonpayable",
      "type": "function"
    },
    {
      "inputs": [],
      "name": "itemContract",
      "outputs": [
        {
          "internalType": "contract MintItem",
          "name": "",
          "type": "address"
        }
      ],
      "stateMutability": "view",
      "type": "function"
    },
    {
      "inputs": [
        {
          "internalType": "address",
          "name": "nftAddress",
          "type": "address"
        },
        {
          "internalType": "uint256",
          "name": "tokenId",
          "type": "uint256"
        },
        {
          "internalType": "uint256",
          "name": "price",
          "type": "uint256"
        },
        {
          "internalType": "uint256[]",
          "name": "itemTokenIds",
          "type": "uint256[]"
        }
      ],
      "name": "listItemForSale",
      "outputs": [],
      "stateMutability": "nonpayable",
      "type": "function"
    },
    {
      "inputs": [
        {
          "internalType": "address",
          "name": "",
          "type": "address"
        },
        {
          "internalType": "uint256",
          "name": "",
          "type": "uint256"
        }
      ],
      "name": "listings",
      "outputs": [
        {
          "internalType": "uint256",
          "name": "tokenId",
          "type": "uint256"
        },
        {
          "internalType": "address payable",
          "name": "seller",
          "type": "address"
        },
        {
          "internalType": "uint256",
          "name": "price",
          "type": "uint256"
        },
        {
          "internalType": "bool",
          "name": "isActive",
          "type": "bool"
        }
      ],
      "stateMutability": "view",
      "type": "function"
    },
    {
      "inputs": [],
      "name": "proxiableUUID",
      "outputs": [
        {
          "internalType": "bytes32",
          "name": "",
          "type": "bytes32"
        }
      ],
      "stateMutability": "view",
      "type": "function"
    },
    {
      "inputs": [
        {
          "internalType": "bytes32",
          "name": "role",
          "type": "bytes32"
        },
        {
          "internalType": "address",
          "name": "callerConfirmation",
          "type": "address"
        }
      ],
      "name": "renounceRole",
      "outputs": [],
      "stateMutability": "nonpayable",
      "type": "function"
    },
    {
      "inputs": [
        {
          "internalType": "bytes32",
          "name": "role",
          "type": "bytes32"
        },
        {
          "internalType": "address",
          "name": "account",
          "type": "address"
        }
      ],
      "name": "revokeRole",
      "outputs": [],
      "stateMutability": "nonpayable",
      "type": "function"
    },
    {
      "inputs": [
        {
          "internalType": "bytes4",
          "name": "interfaceId",
          "type": "bytes4"
        }
      ],
      "name": "supportsInterface",
      "outputs": [
        {
          "internalType": "bool",
          "name": "",
          "type": "bool"
        }
      ],
      "stateMutability": "view",
      "type": "function"
    },
    {
      "inputs": [
        {
          "internalType": "address",
          "name": "newImplementation",
          "type": "address"
        },
        {
          "internalType": "bytes",
          "name": "data",
          "type": "bytes"
        }
      ],
      "name": "upgradeToAndCall",
      "outputs": [],
      "stateMutability": "payable",
      "type": "function"
    }
  ],
  "bytecode": "0x60a06040523073ffffffffffffffffffffffffffffffffffffffff1660809073ffffffffffffffffffffffffffffffffffffffff168152503480156200004457600080fd5b50620000556200005b60201b60201c565b620001cf565b60006200006d6200016560201b60201c565b90508060000160089054906101000a900460ff1615620000b9576040517ff92ee8a900000000000000000000000000000000000000000000000000000000815260040160405180910390fd5b67ffffffffffffffff80168160000160009054906101000a900467ffffffffffffffff1667ffffffffffffffff1614620001625767ffffffffffffffff8160000160006101000a81548167ffffffffffffffff021916908367ffffffffffffffff1602179055507fc7f505b2f371ae2175ee4913f4499e1f2633a7b5936321eed1cdaeb6115181d267ffffffffffffffff604051620001599190620001b2565b60405180910390a15b50565b60007ff0c57e16840df040f15088dc2f81fe391c3923bec73e23a9662efc9c229c6a00905090565b600067ffffffffffffffff82169050919050565b620001ac816200018d565b82525050565b6000602082019050620001c96000830184620001a1565b92915050565b608051612af6620001f9600039600081816115490152818161159e015261175f0152612af66000f3fe6080604052600436106100fd5760003560e01c8063741cbae411610095578063a217fddf11610064578063a217fddf1461032b578063ad3cb1cc14610356578063b130ee5c14610381578063b2ddee06146103aa578063d547741f146103d3576100fd565b8063741cbae41461027e5780638d76f940146102a757806391d14854146102d25780639f37092a1461030f576100fd565b806336568abe116100d157806336568abe146101e5578063485cc9551461020e5780634f1ef2861461023757806352d1902d14610253576100fd565b806207df301461010257806301ffc9a714610142578063248a9ca31461017f5780632f2ff15d146101bc575b600080fd5b34801561010e57600080fd5b5061012960048036038101906101249190611d47565b6103fc565b6040516101399493929190611dd2565b60405180910390f35b34801561014e57600080fd5b5061016960048036038101906101649190611e6f565b610466565b6040516101769190611e9c565b60405180910390f35b34801561018b57600080fd5b506101a660048036038101906101a19190611eed565b610478565b6040516101b39190611f29565b60405180910390f35b3480156101c857600080fd5b506101e360048036038101906101de9190611f44565b6104a6565b005b3480156101f157600080fd5b5061020c60048036038101906102079190611f44565b6104c8565b005b34801561021a57600080fd5b5061023560048036038101906102309190611f84565b610543565b005b610251600480360381019061024c919061210a565b610721565b005b34801561025f57600080fd5b50610268610740565b6040516102759190611f29565b60405180910390f35b34801561028a57600080fd5b506102a560048036038101906102a09190612166565b610773565b005b3480156102b357600080fd5b506102bc610907565b6040516102c99190612218565b60405180910390f35b3480156102de57600080fd5b506102f960048036038101906102f49190611f44565b61092d565b6040516103069190611e9c565b60405180910390f35b61032960048036038101906103249190611d47565b6109a6565b005b34801561033757600080fd5b50610340610d25565b60405161034d9190611f29565b60405180910390f35b34801561036257600080fd5b5061036b610d2c565b60405161037891906122b2565b60405180910390f35b34801561038d57600080fd5b506103a860048036038101906103a3919061239c565b610d65565b005b3480156103b657600080fd5b506103d160048036038101906103cc9190611d47565b611096565b005b3480156103df57600080fd5b506103fa60048036038101906103f59190611f44565b611232565b005b6000602052816000526040600020602052806000526040600020600091509150508060000154908060010160009054906101000a900473ffffffffffffffffffffffffffffffffffffffff16908060020154908060030160009054906101000a900460ff16905084565b600061047182611254565b9050919050565b6000806104836112ce565b905080600001600084815260200190815260200160002060010154915050919050565b6104af82610478565b6104b8816112f6565b6104c2838361130a565b50505050565b6104d061140b565b73ffffffffffffffffffffffffffffffffffffffff168173ffffffffffffffffffffffffffffffffffffffff1614610534576040517f6697b23200000000000000000000000000000000000000000000000000000000815260040160405180910390fd5b61053e8282611413565b505050565b600061054d611515565b905060008160000160089054906101000a900460ff1615905060008260000160009054906101000a900467ffffffffffffffff1690506000808267ffffffffffffffff1614801561059b5750825b9050600060018367ffffffffffffffff161480156105d0575060003073ffffffffffffffffffffffffffffffffffffffff163b145b9050811580156105de575080155b15610615576040517ff92ee8a900000000000000000000000000000000000000000000000000000000815260040160405180910390fd5b60018560000160006101000a81548167ffffffffffffffff021916908367ffffffffffffffff16021790555083156106655760018560000160086101000a81548160ff0219169083151502179055505b61066d61153d565b61067a6000801b8861130a565b5085600160006101000a81548173ffffffffffffffffffffffffffffffffffffffff021916908373ffffffffffffffffffffffffffffffffffffffff16021790555083156107185760008560000160086101000a81548160ff0219169083151502179055507fc7f505b2f371ae2175ee4913f4499e1f2633a7b5936321eed1cdaeb6115181d2600160405161070f919061246e565b60405180910390a15b50505050505050565b610729611547565b6107328261162d565b61073c828261163e565b5050565b600061074a61175d565b7f360894a13ba1a3210667c828492db98dca3e2076cc3735a920a3ca505d382bbc60001b905090565b60008060008573ffffffffffffffffffffffffffffffffffffffff1673ffffffffffffffffffffffffffffffffffffffff168152602001908152602001600020600084815260200190815260200160002090508060030160009054906101000a900460ff16610817576040517f08c379a000000000000000000000000000000000000000000000000000000000815260040161080e906124d5565b60405180910390fd5b3373ffffffffffffffffffffffffffffffffffffffff168160010160009054906101000a900473ffffffffffffffffffffffffffffffffffffffff1673ffffffffffffffffffffffffffffffffffffffff16146108a9576040517f08c379a00000000000000000000000000000000000000000000000000000000081526004016108a090612541565b60405180910390fd5b818160020181905550828473ffffffffffffffffffffffffffffffffffffffff167f4d624906ce6fd4e4b8b649463516ff505029a1903a8cc34bd82b4ca0f9a479de846040516108f99190612561565b60405180910390a350505050565b600160009054906101000a900473ffffffffffffffffffffffffffffffffffffffff1681565b6000806109386112ce565b905080600001600085815260200190815260200160002060000160008473ffffffffffffffffffffffffffffffffffffffff1673ffffffffffffffffffffffffffffffffffffffff16815260200190815260200160002060009054906101000a900460ff1691505092915050565b60008060008473ffffffffffffffffffffffffffffffffffffffff1673ffffffffffffffffffffffffffffffffffffffff168152602001908152602001600020600083815260200190815260200160002090508060030160009054906101000a900460ff16610a4a576040517f08c379a0000000000000000000000000000000000000000000000000000000008152600401610a41906125c8565b60405180910390fd5b8060020154341015610a91576040517f08c379a0000000000000000000000000000000000000000000000000000000008152600401610a8890612634565b60405180910390fd5b60008160030160006101000a81548160ff0219169083151502179055508060010160009054906101000a900473ffffffffffffffffffffffffffffffffffffffff1673ffffffffffffffffffffffffffffffffffffffff166108fc349081150290604051600060405180830381858888f19350505050158015610b18573d6000803e3d6000fd5b50600160009054906101000a900473ffffffffffffffffffffffffffffffffffffffff1673ffffffffffffffffffffffffffffffffffffffff166323b872dd8260010160009054906101000a900473ffffffffffffffffffffffffffffffffffffffff1633856040518463ffffffff1660e01b8152600401610b9c93929190612684565b600060405180830381600087803b158015610bb657600080fd5b505af1158015610bca573d6000803e3d6000fd5b5050505060005b8160040180549050811015610cce576000826004018281548110610bf857610bf76126bb565b5b90600052602060002001549050600160009054906101000a900473ffffffffffffffffffffffffffffffffffffffff1673ffffffffffffffffffffffffffffffffffffffff166323b872dd8460010160009054906101000a900473ffffffffffffffffffffffffffffffffffffffff1633846040518463ffffffff1660e01b8152600401610c8893929190612684565b600060405180830381600087803b158015610ca257600080fd5b505af1158015610cb6573d6000803e3d6000fd5b50505050508080610cc690612719565b915050610bd1565b50818373ffffffffffffffffffffffffffffffffffffffff167f3e54435e36ae559863863c86ae49ae6974ff464d5ccf01c2aae2254c9131b1a63334604051610d18929190612761565b60405180910390a3505050565b6000801b81565b6040518060400160405280600581526020017f352e302e3000000000000000000000000000000000000000000000000000000081525081565b3073ffffffffffffffffffffffffffffffffffffffff16600160009054906101000a900473ffffffffffffffffffffffffffffffffffffffff1673ffffffffffffffffffffffffffffffffffffffff1663081812fc856040518263ffffffff1660e01b8152600401610dd79190612561565b602060405180830381865afa158015610df4573d6000803e3d6000fd5b505050506040513d601f19601f82011682018060405250810190610e18919061279f565b73ffffffffffffffffffffffffffffffffffffffff161480610ed45750600160009054906101000a900473ffffffffffffffffffffffffffffffffffffffff1673ffffffffffffffffffffffffffffffffffffffff1663e985e9c533306040518363ffffffff1660e01b8152600401610e929291906127cc565b602060405180830381865afa158015610eaf573d6000803e3d6000fd5b505050506040513d601f19601f82011682018060405250810190610ed39190612821565b5b610f13576040517f08c379a0000000000000000000000000000000000000000000000000000000008152600401610f0a906128c0565b60405180910390fd5b6040518060a001604052808481526020013373ffffffffffffffffffffffffffffffffffffffff168152602001838152602001600115158152602001828152506000808673ffffffffffffffffffffffffffffffffffffffff1673ffffffffffffffffffffffffffffffffffffffff16815260200190815260200160002060008581526020019081526020016000206000820151816000015560208201518160010160006101000a81548173ffffffffffffffffffffffffffffffffffffffff021916908373ffffffffffffffffffffffffffffffffffffffff1602179055506040820151816002015560608201518160030160006101000a81548160ff0219169083151502179055506080820151816004019080519060200190611039929190611c35565b50905050828473ffffffffffffffffffffffffffffffffffffffff167f20b95d60697dea1fa41ba2f4389ecab48ff1fcbfeeb1dc1b8630e6fbedf12f0c3385856040516110889392919061299e565b60405180910390a350505050565b60008060008473ffffffffffffffffffffffffffffffffffffffff1673ffffffffffffffffffffffffffffffffffffffff168152602001908152602001600020600083815260200190815260200160002090508060030160009054906101000a900460ff1661113a576040517f08c379a0000000000000000000000000000000000000000000000000000000008152600401611131906124d5565b60405180910390fd5b3373ffffffffffffffffffffffffffffffffffffffff168160010160009054906101000a900473ffffffffffffffffffffffffffffffffffffffff1673ffffffffffffffffffffffffffffffffffffffff16146111cc576040517f08c379a00000000000000000000000000000000000000000000000000000000081526004016111c390612541565b60405180910390fd5b60008160030160006101000a81548160ff021916908315150217905550818373ffffffffffffffffffffffffffffffffffffffff167f93ec4766fcd2d9dfdceab8f2e13ba0d9d826645cf03167fdb92b3b7359b5248c60405160405180910390a3505050565b61123b82610478565b611244816112f6565b61124e8383611413565b50505050565b60007f7965db0b000000000000000000000000000000000000000000000000000000007bffffffffffffffffffffffffffffffffffffffffffffffffffffffff1916827bffffffffffffffffffffffffffffffffffffffffffffffffffffffff191614806112c757506112c6826117e4565b5b9050919050565b60007f02dd7bc7dec4dceedda775e58dd541e08a116c6c53815c0bd028192f7b626800905090565b6113078161130261140b565b61184e565b50565b6000806113156112ce565b9050611321848461092d565b6113ff57600181600001600086815260200190815260200160002060000160008573ffffffffffffffffffffffffffffffffffffffff1673ffffffffffffffffffffffffffffffffffffffff16815260200190815260200160002060006101000a81548160ff02191690831515021790555061139b61140b565b73ffffffffffffffffffffffffffffffffffffffff168373ffffffffffffffffffffffffffffffffffffffff16857f2f8788117e7eff1d82e926ec794901d17c78024a50270940304540a733656f0d60405160405180910390a46001915050611405565b60009150505b92915050565b600033905090565b60008061141e6112ce565b905061142a848461092d565b1561150957600081600001600086815260200190815260200160002060000160008573ffffffffffffffffffffffffffffffffffffffff1673ffffffffffffffffffffffffffffffffffffffff16815260200190815260200160002060006101000a81548160ff0219169083151502179055506114a561140b565b73ffffffffffffffffffffffffffffffffffffffff168373ffffffffffffffffffffffffffffffffffffffff16857ff6391f5c32d9c69d2a47ea670b442974b53935d1edc7fd64eb21e047a839171b60405160405180910390a4600191505061150f565b60009150505b92915050565b60007ff0c57e16840df040f15088dc2f81fe391c3923bec73e23a9662efc9c229c6a00905090565b61154561189f565b565b7f000000000000000000000000000000000000000000000000000000000000000073ffffffffffffffffffffffffffffffffffffffff163073ffffffffffffffffffffffffffffffffffffffff1614806115f457507f000000000000000000000000000000000000000000000000000000000000000073ffffffffffffffffffffffffffffffffffffffff166115db6118df565b73ffffffffffffffffffffffffffffffffffffffff1614155b1561162b576040517fe07c8dba00000000000000000000000000000000000000000000000000000000815260040160405180910390fd5b565b6000801b61163a816112f6565b5050565b8173ffffffffffffffffffffffffffffffffffffffff166352d1902d6040518163ffffffff1660e01b8152600401602060405180830381865afa9250505080156116a657506040513d601f19601f820116820180604052508101906116a391906129f1565b60015b6116e757816040517f4c9c8ce30000000000000000000000000000000000000000000000000000000081526004016116de9190612a1e565b60405180910390fd5b7f360894a13ba1a3210667c828492db98dca3e2076cc3735a920a3ca505d382bbc60001b811461174e57806040517faa1d49a40000000000000000000000000000000000000000000000000000000081526004016117459190611f29565b60405180910390fd5b6117588383611936565b505050565b7f000000000000000000000000000000000000000000000000000000000000000073ffffffffffffffffffffffffffffffffffffffff163073ffffffffffffffffffffffffffffffffffffffff16146117e2576040517fe07c8dba00000000000000000000000000000000000000000000000000000000815260040160405180910390fd5b565b60007f01ffc9a7000000000000000000000000000000000000000000000000000000007bffffffffffffffffffffffffffffffffffffffffffffffffffffffff1916827bffffffffffffffffffffffffffffffffffffffffffffffffffffffff1916149050919050565b611858828261092d565b61189b5780826040517fe2517d3f000000000000000000000000000000000000000000000000000000008152600401611892929190612a39565b60405180910390fd5b5050565b6118a76119a9565b6118dd576040517fd7e6bcf800000000000000000000000000000000000000000000000000000000815260040160405180910390fd5b565b600061190d7f360894a13ba1a3210667c828492db98dca3e2076cc3735a920a3ca505d382bbc60001b6119c9565b60000160009054906101000a900473ffffffffffffffffffffffffffffffffffffffff16905090565b61193f826119d3565b8173ffffffffffffffffffffffffffffffffffffffff167fbc7cd75a20ee27fd9adebab32041f755214dbc6bffa90cc0225b39da2e5c2d3b60405160405180910390a260008151111561199c576119968282611aa0565b506119a5565b6119a4611b24565b5b5050565b60006119b3611515565b60000160089054906101000a900460ff16905090565b6000819050919050565b60008173ffffffffffffffffffffffffffffffffffffffff163b03611a2f57806040517f4c9c8ce3000000000000000000000000000000000000000000000000000000008152600401611a269190612a1e565b60405180910390fd5b80611a5c7f360894a13ba1a3210667c828492db98dca3e2076cc3735a920a3ca505d382bbc60001b6119c9565b60000160006101000a81548173ffffffffffffffffffffffffffffffffffffffff021916908373ffffffffffffffffffffffffffffffffffffffff16021790555050565b60606000808473ffffffffffffffffffffffffffffffffffffffff1684604051611aca9190612aa9565b600060405180830381855af49150503d8060008114611b05576040519150601f19603f3d011682016040523d82523d6000602084013e611b0a565b606091505b5091509150611b1a858383611b61565b9250505092915050565b6000341115611b5f576040517fb398979f00000000000000000000000000000000000000000000000000000000815260040160405180910390fd5b565b606082611b7657611b7182611bf0565b611be8565b60008251148015611b9e575060008473ffffffffffffffffffffffffffffffffffffffff163b145b15611be057836040517f9996b315000000000000000000000000000000000000000000000000000000008152600401611bd79190612a1e565b60405180910390fd5b819050611be9565b5b9392505050565b600081511115611c035780518082602001fd5b6040517f1425ea4200000000000000000000000000000000000000000000000000000000815260040160405180910390fd5b828054828255906000526020600020908101928215611c71579160200282015b82811115611c70578251825591602001919060010190611c55565b5b509050611c7e9190611c82565b5090565b5b80821115611c9b576000816000905550600101611c83565b5090565b6000604051905090565b600080fd5b600080fd5b600073ffffffffffffffffffffffffffffffffffffffff82169050919050565b6000611cde82611cb3565b9050919050565b611cee81611cd3565b8114611cf957600080fd5b50565b600081359050611d0b81611ce5565b92915050565b6000819050919050565b611d2481611d11565b8114611d2f57600080fd5b50565b600081359050611d4181611d1b565b92915050565b60008060408385031215611d5e57611d5d611ca9565b5b6000611d6c85828601611cfc565b9250506020611d7d85828601611d32565b9150509250929050565b611d9081611d11565b82525050565b6000611da182611cb3565b9050919050565b611db181611d96565b82525050565b60008115159050919050565b611dcc81611db7565b82525050565b6000608082019050611de76000830187611d87565b611df46020830186611da8565b611e016040830185611d87565b611e0e6060830184611dc3565b95945050505050565b60007fffffffff0000000000000000000000000000000000000000000000000000000082169050919050565b611e4c81611e17565b8114611e5757600080fd5b50565b600081359050611e6981611e43565b92915050565b600060208284031215611e8557611e84611ca9565b5b6000611e9384828501611e5a565b91505092915050565b6000602082019050611eb16000830184611dc3565b92915050565b6000819050919050565b611eca81611eb7565b8114611ed557600080fd5b50565b600081359050611ee781611ec1565b92915050565b600060208284031215611f0357611f02611ca9565b5b6000611f1184828501611ed8565b91505092915050565b611f2381611eb7565b82525050565b6000602082019050611f3e6000830184611f1a565b92915050565b60008060408385031215611f5b57611f5a611ca9565b5b6000611f6985828601611ed8565b9250506020611f7a85828601611cfc565b9150509250929050565b60008060408385031215611f9b57611f9a611ca9565b5b6000611fa985828601611cfc565b9250506020611fba85828601611cfc565b9150509250929050565b600080fd5b600080fd5b6000601f19601f8301169050919050565b7f4e487b7100000000000000000000000000000000000000000000000000000000600052604160045260246000fd5b61201782611fce565b810181811067ffffffffffffffff8211171561203657612035611fdf565b5b80604052505050565b6000612049611c9f565b9050612055828261200e565b919050565b600067ffffffffffffffff82111561207557612074611fdf565b5b61207e82611fce565b9050602081019050919050565b82818337600083830152505050565b60006120ad6120a88461205a565b61203f565b9050828152602081018484840111156120c9576120c8611fc9565b5b6120d484828561208b565b509392505050565b600082601f8301126120f1576120f0611fc4565b5b813561210184826020860161209a565b91505092915050565b6000806040838503121561212157612120611ca9565b5b600061212f85828601611cfc565b925050602083013567ffffffffffffffff8111156121505761214f611cae565b5b61215c858286016120dc565b9150509250929050565b60008060006060848603121561217f5761217e611ca9565b5b600061218d86828701611cfc565b935050602061219e86828701611d32565b92505060406121af86828701611d32565b9150509250925092565b6000819050919050565b60006121de6121d96121d484611cb3565b6121b9565b611cb3565b9050919050565b60006121f0826121c3565b9050919050565b6000612202826121e5565b9050919050565b612212816121f7565b82525050565b600060208201905061222d6000830184612209565b92915050565b600081519050919050565b600082825260208201905092915050565b60005b8381101561226d578082015181840152602081019050612252565b60008484015250505050565b600061228482612233565b61228e818561223e565b935061229e81856020860161224f565b6122a781611fce565b840191505092915050565b600060208201905081810360008301526122cc8184612279565b905092915050565b600067ffffffffffffffff8211156122ef576122ee611fdf565b5b602082029050602081019050919050565b600080fd5b6000612318612313846122d4565b61203f565b9050808382526020820190506020840283018581111561233b5761233a612300565b5b835b8181101561236457806123508882611d32565b84526020840193505060208101905061233d565b5050509392505050565b600082601f83011261238357612382611fc4565b5b8135612393848260208601612305565b91505092915050565b600080600080608085870312156123b6576123b5611ca9565b5b60006123c487828801611cfc565b94505060206123d587828801611d32565b93505060406123e687828801611d32565b925050606085013567ffffffffffffffff81111561240757612406611cae565b5b6124138782880161236e565b91505092959194509250565b6000819050919050565b600067ffffffffffffffff82169050919050565b600061245861245361244e8461241f565b6121b9565b612429565b9050919050565b6124688161243d565b82525050565b6000602082019050612483600083018461245f565b92915050565b7f4c697374696e6720646f6573206e6f7420657869737400000000000000000000600082015250565b60006124bf60168361223e565b91506124ca82612489565b602082019050919050565b600060208201905081810360008301526124ee816124b2565b9050919050565b7f43616c6c6572206973206e6f74207468652073656c6c65720000000000000000600082015250565b600061252b60188361223e565b9150612536826124f5565b602082019050919050565b6000602082019050818103600083015261255a8161251e565b9050919050565b60006020820190506125766000830184611d87565b92915050565b7f4c697374696e67206973206e6f74206163746976650000000000000000000000600082015250565b60006125b260158361223e565b91506125bd8261257c565b602082019050919050565b600060208201905081810360008301526125e1816125a5565b9050919050565b7f496e73756666696369656e74207061796d656e74000000000000000000000000600082015250565b600061261e60148361223e565b9150612629826125e8565b602082019050919050565b6000602082019050818103600083015261264d81612611565b9050919050565b600061265f826121e5565b9050919050565b61266f81612654565b82525050565b61267e81611cd3565b82525050565b60006060820190506126996000830186612666565b6126a66020830185612675565b6126b36040830184611d87565b949350505050565b7f4e487b7100000000000000000000000000000000000000000000000000000000600052603260045260246000fd5b7f4e487b7100000000000000000000000000000000000000000000000000000000600052601160045260246000fd5b600061272482611d11565b91507fffffffffffffffffffffffffffffffffffffffffffffffffffffffffffffffff8203612756576127556126ea565b5b600182019050919050565b60006040820190506127766000830185612675565b6127836020830184611d87565b9392505050565b60008151905061279981611ce5565b92915050565b6000602082840312156127b5576127b4611ca9565b5b60006127c38482850161278a565b91505092915050565b60006040820190506127e16000830185612675565b6127ee6020830184612675565b9392505050565b6127fe81611db7565b811461280957600080fd5b50565b60008151905061281b816127f5565b92915050565b60006020828403121561283757612836611ca9565b5b60006128458482850161280c565b91505092915050565b7f4d61726b6574706c616365206e6f7420617070726f76656420746f207472616e60008201527f736665722074686973204e465400000000000000000000000000000000000000602082015250565b60006128aa602d8361223e565b91506128b58261284e565b604082019050919050565b600060208201905081810360008301526128d98161289d565b9050919050565b600081519050919050565b600082825260208201905092915050565b6000819050602082019050919050565b61291581611d11565b82525050565b6000612927838361290c565b60208301905092915050565b6000602082019050919050565b600061294b826128e0565b61295581856128eb565b9350612960836128fc565b8060005b83811015612991578151612978888261291b565b975061298383612933565b925050600181019050612964565b5085935050505092915050565b60006060820190506129b36000830186612675565b6129c06020830185611d87565b81810360408301526129d28184612940565b9050949350505050565b6000815190506129eb81611ec1565b92915050565b600060208284031215612a0757612a06611ca9565b5b6000612a15848285016129dc565b91505092915050565b6000602082019050612a336000830184612675565b92915050565b6000604082019050612a4e6000830185612675565b612a5b6020830184611f1a565b9392505050565b600081519050919050565b600081905092915050565b6000612a8382612a62565b612a8d8185612a6d565b9350612a9d81856020860161224f565b80840191505092915050565b6000612ab58284612a78565b91508190509291505056fea26469706673582212206cd9083db83ce03c678dbe22c8e643aef17d4f1c388351c2155d9807db56654664736f6c63430008140033",
  "linkReferences": {},
  "deployedLinkReferences": {}
}