{
  "_format": "hh-sol-artifact-1",
  "contractName": "GameMarketplace",
  "sourceName": "contracts/GameMarketplace.sol",
  "abi": [
    {
      "inputs": [],
      "stateMutability": "nonpayable",
      "type": "constructor"
    },
    {
      "inputs": [
        {
          "internalType": "address",
          "name": "target",
          "type": "address"
        }
      ],
      "name": "AddressEmptyCode",
      "type": "error"
    },
    {
      "inputs": [
        {
          "internalType": "address",
          "name": "implementation",
          "type": "address"
        }
      ],
      "name": "ERC1967InvalidImplementation",
      "type": "error"
    },
    {
      "inputs": [],
      "name": "ERC1967NonPayable",
      "type": "error"
    },
    {
      "inputs": [],
      "name": "FailedInnerCall",
      "type": "error"
    },
    {
      "inputs": [],
      "name": "InvalidInitialization",
      "type": "error"
    },
    {
      "inputs": [],
      "name": "NotInitializing",
      "type": "error"
    },
    {
      "inputs": [
        {
          "internalType": "address",
          "name": "owner",
          "type": "address"
        }
      ],
      "name": "OwnableInvalidOwner",
      "type": "error"
    },
    {
      "inputs": [
        {
          "internalType": "address",
          "name": "account",
          "type": "address"
        }
      ],
      "name": "OwnableUnauthorizedAccount",
      "type": "error"
    },
    {
      "inputs": [],
      "name": "UUPSUnauthorizedCallContext",
      "type": "error"
    },
    {
      "inputs": [
        {
          "internalType": "bytes32",
          "name": "slot",
          "type": "bytes32"
        }
      ],
      "name": "UUPSUnsupportedProxiableUUID",
      "type": "error"
    },
    {
      "anonymous": false,
      "inputs": [
        {
          "indexed": false,
          "internalType": "uint64",
          "name": "version",
          "type": "uint64"
        }
      ],
      "name": "Initialized",
      "type": "event"
    },
    {
      "anonymous": false,
      "inputs": [
        {
          "indexed": true,
          "internalType": "address",
          "name": "nftAddress",
          "type": "address"
        },
        {
          "indexed": true,
          "internalType": "uint256",
          "name": "tokenId",
          "type": "uint256"
        },
        {
          "indexed": false,
          "internalType": "address",
          "name": "buyer",
          "type": "address"
        },
        {
          "indexed": false,
          "internalType": "uint256",
          "name": "price",
          "type": "uint256"
        },
        {
          "indexed": false,
          "internalType": "uint256[]",
          "name": "itemTokenIds",
          "type": "uint256[]"
        },
        {
          "indexed": false,
          "internalType": "string",
          "name": "itemType",
          "type": "string"
        },
        {
          "indexed": false,
          "internalType": "uint16",
          "name": "power",
          "type": "uint16"
        },
        {
          "indexed": false,
          "internalType": "uint8",
          "name": "durability",
          "type": "uint8"
        },
        {
          "indexed": false,
          "internalType": "string",
          "name": "characterOwner",
          "type": "string"
        }
      ],
      "name": "ItemBought",
      "type": "event"
    },
    {
      "anonymous": false,
      "inputs": [
        {
          "indexed": true,
          "internalType": "address",
          "name": "nftAddress",
          "type": "address"
        },
        {
          "indexed": true,
          "internalType": "uint256",
          "name": "tokenId",
          "type": "uint256"
        },
        {
          "indexed": false,
          "internalType": "address",
          "name": "seller",
          "type": "address"
        },
        {
          "indexed": false,
          "internalType": "uint256",
          "name": "price",
          "type": "uint256"
        },
        {
          "indexed": false,
          "internalType": "uint256[]",
          "name": "itemTokenIds",
          "type": "uint256[]"
        },
        {
          "indexed": false,
          "internalType": "string",
          "name": "itemType",
          "type": "string"
        },
        {
          "indexed": false,
          "internalType": "uint16",
          "name": "power",
          "type": "uint16"
        },
        {
          "indexed": false,
          "internalType": "uint8",
          "name": "durability",
          "type": "uint8"
        },
        {
          "indexed": false,
          "internalType": "string",
          "name": "characterOwner",
          "type": "string"
        }
      ],
      "name": "ItemListed",
      "type": "event"
    },
    {
      "anonymous": false,
      "inputs": [
        {
          "indexed": true,
          "internalType": "address",
          "name": "nftAddress",
          "type": "address"
        },
        {
          "indexed": true,
          "internalType": "uint256",
          "name": "tokenId",
          "type": "uint256"
        }
      ],
      "name": "ListingCancelled",
      "type": "event"
    },
    {
      "anonymous": false,
      "inputs": [
        {
          "indexed": true,
          "internalType": "address",
          "name": "previousOwner",
          "type": "address"
        },
        {
          "indexed": true,
          "internalType": "address",
          "name": "newOwner",
          "type": "address"
        }
      ],
      "name": "OwnershipTransferred",
      "type": "event"
    },
    {
      "anonymous": false,
      "inputs": [
        {
          "indexed": true,
          "internalType": "address",
          "name": "nftAddress",
          "type": "address"
        },
        {
          "indexed": true,
          "internalType": "uint256",
          "name": "tokenId",
          "type": "uint256"
        },
        {
          "indexed": false,
          "internalType": "uint256",
          "name": "newPrice",
          "type": "uint256"
        }
      ],
      "name": "PriceChanged",
      "type": "event"
    },
    {
      "anonymous": false,
      "inputs": [
        {
          "indexed": true,
          "internalType": "address",
          "name": "implementation",
          "type": "address"
        }
      ],
      "name": "Upgraded",
      "type": "event"
    },
    {
      "inputs": [],
      "name": "UPGRADE_INTERFACE_VERSION",
      "outputs": [
        {
          "internalType": "string",
          "name": "",
          "type": "string"
        }
      ],
      "stateMutability": "view",
      "type": "function"
    },
    {
      "inputs": [
        {
          "internalType": "address",
          "name": "nftAddress",
          "type": "address"
        },
        {
          "internalType": "uint256",
          "name": "tokenId",
          "type": "uint256"
        },
        {
          "internalType": "uint256",
          "name": "tokenAmount",
          "type": "uint256"
        }
      ],
      "name": "buyItem",
      "outputs": [],
      "stateMutability": "payable",
      "type": "function"
    },
    {
      "inputs": [
        {
          "internalType": "address",
          "name": "nftAddress",
          "type": "address"
        },
        {
          "internalType": "uint256",
          "name": "tokenId",
          "type": "uint256"
        }
      ],
      "name": "cancelListing",
      "outputs": [],
      "stateMutability": "nonpayable",
      "type": "function"
    },
    {
      "inputs": [
        {
          "internalType": "address",
          "name": "nftAddress",
          "type": "address"
        },
        {
          "internalType": "uint256",
          "name": "tokenId",
          "type": "uint256"
        },
        {
          "internalType": "uint256",
          "name": "newPrice",
          "type": "uint256"
        }
      ],
      "name": "changePrice",
      "outputs": [],
      "stateMutability": "nonpayable",
      "type": "function"
    },
    {
      "inputs": [],
      "name": "characterContract",
      "outputs": [
        {
          "internalType": "contract CreateCharacter",
          "name": "",
          "type": "address"
        }
      ],
      "stateMutability": "view",
      "type": "function"
    },
    {
      "inputs": [],
      "name": "gameTreasury",
      "outputs": [
        {
          "internalType": "contract GameTreasury",
          "name": "",
          "type": "address"
        }
      ],
      "stateMutability": "view",
      "type": "function"
    },
    {
      "inputs": [
        {
          "internalType": "address",
          "name": "initialOwner",
          "type": "address"
        },
        {
          "internalType": "address",
          "name": "_itemContract",
          "type": "address"
        },
        {
          "internalType": "address",
          "name": "_characterContract",
          "type": "address"
        },
        {
          "internalType": "address",
          "name": "_gameTreasuryAddress",
          "type": "address"
        },
        {
          "internalType": "address",
          "name": "_paymentToken",
          "type": "address"
        }
      ],
      "name": "initialize",
      "outputs": [],
      "stateMutability": "nonpayable",
      "type": "function"
    },
    {
      "inputs": [],
      "name": "itemContract",
      "outputs": [
        {
          "internalType": "contract MintItem",
          "name": "",
          "type": "address"
        }
      ],
      "stateMutability": "view",
      "type": "function"
    },
    {
      "inputs": [
        {
          "internalType": "address",
          "name": "nftAddress",
          "type": "address"
        },
        {
          "internalType": "uint256",
          "name": "tokenId",
          "type": "uint256"
        },
        {
          "internalType": "uint256",
          "name": "price",
          "type": "uint256"
        },
        {
          "internalType": "uint256[]",
          "name": "itemTokenIds",
          "type": "uint256[]"
        },
        {
          "internalType": "string",
          "name": "itemType",
          "type": "string"
        },
        {
          "internalType": "uint16",
          "name": "power",
          "type": "uint16"
        },
        {
          "internalType": "uint8",
          "name": "durability",
          "type": "uint8"
        },
        {
          "internalType": "string",
          "name": "characterOwner",
          "type": "string"
        }
      ],
      "name": "listItemForSale",
      "outputs": [],
      "stateMutability": "nonpayable",
      "type": "function"
    },
    {
      "inputs": [
        {
          "internalType": "address",
          "name": "",
          "type": "address"
        },
        {
          "internalType": "uint256",
          "name": "",
          "type": "uint256"
        }
      ],
      "name": "listings",
      "outputs": [
        {
          "internalType": "uint256",
          "name": "tokenId",
          "type": "uint256"
        },
        {
          "internalType": "address payable",
          "name": "seller",
          "type": "address"
        },
        {
          "internalType": "uint256",
          "name": "price",
          "type": "uint256"
        },
        {
          "internalType": "bool",
          "name": "isActive",
          "type": "bool"
        },
        {
          "internalType": "string",
          "name": "itemType",
          "type": "string"
        },
        {
          "internalType": "uint16",
          "name": "power",
          "type": "uint16"
        },
        {
          "internalType": "uint8",
          "name": "durability",
          "type": "uint8"
        },
        {
          "internalType": "string",
          "name": "characterOwner",
          "type": "string"
        }
      ],
      "stateMutability": "view",
      "type": "function"
    },
    {
      "inputs": [],
      "name": "owner",
      "outputs": [
        {
          "internalType": "address",
          "name": "",
          "type": "address"
        }
      ],
      "stateMutability": "view",
      "type": "function"
    },
    {
      "inputs": [],
      "name": "paymentToken",
      "outputs": [
        {
          "internalType": "contract IERC20",
          "name": "",
          "type": "address"
        }
      ],
      "stateMutability": "view",
      "type": "function"
    },
    {
      "inputs": [],
      "name": "proxiableUUID",
      "outputs": [
        {
          "internalType": "bytes32",
          "name": "",
          "type": "bytes32"
        }
      ],
      "stateMutability": "view",
      "type": "function"
    },
    {
      "inputs": [],
      "name": "renounceOwnership",
      "outputs": [],
      "stateMutability": "nonpayable",
      "type": "function"
    },
    {
      "inputs": [
        {
          "internalType": "address",
          "name": "_newCreateCharacterContract",
          "type": "address"
        }
      ],
      "name": "setCreateCharacterContractAddress",
      "outputs": [],
      "stateMutability": "nonpayable",
      "type": "function"
    },
    {
      "inputs": [
        {
          "internalType": "address",
          "name": "_gameTreasuryAddress",
          "type": "address"
        }
      ],
      "name": "setGameTreasuryAddress",
      "outputs": [],
      "stateMutability": "nonpayable",
      "type": "function"
    },
    {
      "inputs": [
        {
          "internalType": "address",
          "name": "_itemContract",
          "type": "address"
        }
      ],
      "name": "setMintItemAddress",
      "outputs": [],
      "stateMutability": "nonpayable",
      "type": "function"
    },
    {
      "inputs": [
        {
          "internalType": "address",
          "name": "_tokenAddress",
          "type": "address"
        }
      ],
      "name": "setPaymentToken",
      "outputs": [],
      "stateMutability": "nonpayable",
      "type": "function"
    },
    {
      "inputs": [
        {
          "internalType": "address",
          "name": "newOwner",
          "type": "address"
        }
      ],
      "name": "transferOwnership",
      "outputs": [],
      "stateMutability": "nonpayable",
      "type": "function"
    },
    {
      "inputs": [
        {
          "internalType": "address",
          "name": "newImplementation",
          "type": "address"
        },
        {
          "internalType": "bytes",
          "name": "data",
          "type": "bytes"
        }
      ],
      "name": "upgradeToAndCall",
      "outputs": [],
      "stateMutability": "payable",
      "type": "function"
    }
  ],
  "bytecode": "0x60a06040523060805234801561001457600080fd5b5061001d610022565b6100d4565b7ff0c57e16840df040f15088dc2f81fe391c3923bec73e23a9662efc9c229c6a00805468010000000000000000900460ff16156100725760405163f92ee8a960e01b815260040160405180910390fd5b80546001600160401b03908116146100d15780546001600160401b0319166001600160401b0390811782556040519081527fc7f505b2f371ae2175ee4913f4499e1f2633a7b5936321eed1cdaeb6115181d29060200160405180910390a15b50565b608051612093620000fe60003960008181611293015281816112bc015261140201526120936000f3fe60806040526004361061011e5760003560e01c80638d76f940116100a0578063b2ddee0611610064578063b2ddee0614610360578063c08370b414610380578063d2f9efab146103a0578063f2fde38b146103c0578063f6b45c46146103e057600080fd5b80638d76f940146102855780638da5cb5b146102a5578063a1365bf1146102e2578063ad3cb1cc14610302578063af0119521461034057600080fd5b80634f1ef286116100e75780634f1ef286146101fa57806352d1902d1461020d5780636a326ab114610230578063715018a614610250578063741cbae41461026557600080fd5b806207df30146101235780631459457a146101605780633013ce29146101825780633b828cb1146101ba57806343b60f74146101da575b600080fd5b34801561012f57600080fd5b5061014361013e366004611761565b6103f3565b6040516101579897969594939291906117dd565b60405180910390f35b34801561016c57600080fd5b5061018061017b36600461184d565b610568565b005b34801561018e57600080fd5b506004546101a2906001600160a01b031681565b6040516001600160a01b039091168152602001610157565b3480156101c657600080fd5b506101806101d53660046118be565b6106c6565b3480156101e657600080fd5b506002546101a2906001600160a01b031681565b61018061020836600461197a565b6106f0565b34801561021957600080fd5b5061022261070f565b604051908152602001610157565b34801561023c57600080fd5b5061018061024b3660046118be565b61072c565b34801561025c57600080fd5b50610180610756565b34801561027157600080fd5b506101806102803660046119de565b61076a565b34801561029157600080fd5b506001546101a2906001600160a01b031681565b3480156102b157600080fd5b507f9016d09d72d40fdae2fd8ceac6b6234c7706214fd39c1cd1e609a0528c199300546001600160a01b03166101a2565b3480156102ee57600080fd5b506101806102fd3660046118be565b610881565b34801561030e57600080fd5b50610333604051806040016040528060058152602001640352e302e360dc1b81525081565b6040516101579190611a13565b34801561034c57600080fd5b5061018061035b3660046118be565b6108ab565b34801561036c57600080fd5b5061018061037b366004611761565b6108d5565b34801561038c57600080fd5b5061018061039b366004611ae9565b6109e1565b3480156103ac57600080fd5b506003546101a2906001600160a01b031681565b3480156103cc57600080fd5b506101806103db3660046118be565b610cee565b6101806103ee3660046119de565b610d2c565b60006020818152928152604080822090935290815220805460018201546002830154600384015460058501805494956001600160a01b0390941694929360ff9092169261043f90611bb7565b80601f016020809104026020016040519081016040528092919081815260200182805461046b90611bb7565b80156104b85780601f1061048d576101008083540402835291602001916104b8565b820191906000526020600020905b81548152906001019060200180831161049b57829003601f168201915b505050506006830154600784018054939461ffff8316946201000090930460ff169350916104e590611bb7565b80601f016020809104026020016040519081016040528092919081815260200182805461051190611bb7565b801561055e5780601f106105335761010080835404028352916020019161055e565b820191906000526020600020905b81548152906001019060200180831161054157829003601f168201915b5050505050905088565b7ff0c57e16840df040f15088dc2f81fe391c3923bec73e23a9662efc9c229c6a008054600160401b810460ff16159067ffffffffffffffff166000811580156105ae5750825b905060008267ffffffffffffffff1660011480156105cb5750303b155b9050811580156105d9575080155b156105f75760405163f92ee8a960e01b815260040160405180910390fd5b845467ffffffffffffffff19166001178555831561062157845460ff60401b1916600160401b1785555b61062a8a61121c565b600180546001600160a01b03808c166001600160a01b031992831617909255600280548b8416908316179055600380548a8416908316179055600480549289169290911691909117905583156106ba57845460ff60401b19168555604051600181527fc7f505b2f371ae2175ee4913f4499e1f2633a7b5936321eed1cdaeb6115181d29060200160405180910390a15b50505050505050505050565b6106ce61122d565b600180546001600160a01b0319166001600160a01b0392909216919091179055565b6106f8611288565b6107018261132d565b61070b8282611335565b5050565b60006107196113f7565b5060008051602061203e83398151915290565b61073461122d565b600480546001600160a01b0319166001600160a01b0392909216919091179055565b61075e61122d565b6107686000611440565b565b6001600160a01b0383166000908152602081815260408083208584529091529020600381015460ff166107dd5760405162461bcd60e51b8152602060048201526016602482015275131a5cdd1a5b99c8191bd95cc81b9bdd08195e1a5cdd60521b60448201526064015b60405180910390fd5b60018101546001600160a01b031633146108345760405162461bcd60e51b815260206004820152601860248201527721b0b63632b91034b9903737ba103a34329039b2b63632b960411b60448201526064016107d4565b6002810182905560405182815283906001600160a01b038616907f4d624906ce6fd4e4b8b649463516ff505029a1903a8cc34bd82b4ca0f9a479de9060200160405180910390a350505050565b61088961122d565b600380546001600160a01b0319166001600160a01b0392909216919091179055565b6108b361122d565b600280546001600160a01b0319166001600160a01b0392909216919091179055565b6001600160a01b0382166000908152602081815260408083208484529091529020600381015460ff166109435760405162461bcd60e51b8152602060048201526016602482015275131a5cdd1a5b99c8191bd95cc81b9bdd08195e1a5cdd60521b60448201526064016107d4565b60018101546001600160a01b0316331461099a5760405162461bcd60e51b815260206004820152601860248201527721b0b63632b91034b9903737ba103a34329039b2b63632b960411b60448201526064016107d4565b60038101805460ff1916905560405182906001600160a01b038516907f93ec4766fcd2d9dfdceab8f2e13ba0d9d826645cf03167fdb92b3b7359b5248c90600090a3505050565b60015460405163020604bf60e21b81526004810189905230916001600160a01b03169063081812fc90602401602060405180830381865afa158015610a2a573d6000803e3d6000fd5b505050506040513d601f19601f82011682018060405250810190610a4e9190611bf1565b6001600160a01b03161480610ad0575060015460405163e985e9c560e01b81523360048201523060248201526001600160a01b039091169063e985e9c590604401602060405180830381865afa158015610aac573d6000803e3d6000fd5b505050506040513d601f19601f82011682018060405250810190610ad09190611c0e565b610b325760405162461bcd60e51b815260206004820152602d60248201527f4d61726b6574706c616365206e6f7420617070726f76656420746f207472616e60448201526c1cd9995c881d1a1a5cc8139195609a1b60648201526084016107d4565b604051806101200160405280888152602001336001600160a01b031681526020018781526020016001151581526020018681526020018581526020018461ffff1681526020018360ff168152602001828152506000808a6001600160a01b03166001600160a01b0316815260200190815260200160002060008981526020019081526020016000206000820151816000015560208201518160010160006101000a8154816001600160a01b0302191690836001600160a01b031602179055506040820151816002015560608201518160030160006101000a81548160ff0219169083151502179055506080820151816004019080519060200190610c379291906116dc565b5060a08201516005820190610c4c9082611c7e565b5060c082015160068201805460e085015160ff16620100000262ffffff1990911661ffff909316929092179190911790556101008201516007820190610c929082611c7e565b5090505086886001600160a01b03167f37323b9c4a3c9d9bc00d880e6a0eec261e1cd31f6e2eb58d589fdef88ba68ac433898989898989604051610cdc9796959493929190611d3e565b60405180910390a35050505050505050565b610cf661122d565b6001600160a01b038116610d2057604051631e4fbdf760e01b8152600060048201526024016107d4565b610d2981611440565b50565b6001600160a01b0383166000908152602081815260408083208584529091529020600381015460ff16610d995760405162461bcd60e51b81526020600482015260156024820152744c697374696e67206973206e6f742061637469766560581b60448201526064016107d4565b80600201548214610e025760405162461bcd60e51b815260206004820152602d60248201527f546f6b656e20616d6f756e7420646f6573206e6f74206d61746368207468652060448201526c6c697374696e6720707269636560981b60648201526084016107d4565b60038101805460ff191690556000610e1b600a84611df5565b90506000610e298285611e17565b600480546003546040516323b872dd60e01b81529394506001600160a01b03918216936323b872dd93610e629333931691889101611e2a565b6020604051808303816000875af1158015610e81573d6000803e3d6000fd5b505050506040513d601f19601f82011682018060405250810190610ea59190611c0e565b610ef15760405162461bcd60e51b815260206004820152601f60248201527f4661696c656420746f2073656e64204c6f6f7420746f2054726561737572790060448201526064016107d4565b6004805460018501546040516323b872dd60e01b81526001600160a01b03928316936323b872dd93610f2a933393911691879101611e2a565b6020604051808303816000875af1158015610f49573d6000803e3d6000fd5b505050506040513d601f19601f82011682018060405250810190610f6d9190611c0e565b610fb95760405162461bcd60e51b815260206004820152601d60248201527f4661696c656420746f2073656e64204c6f6f7420746f2053656c6c657200000060448201526064016107d4565b6040516821b430b930b1ba32b960b91b60208201526029016040516020818303038152906040528051906020012083600501604051602001610ffb9190611e4e565b604051602081830303815290604052805190602001200361113c5760025460018401546040516323b872dd60e01b81526001600160a01b03928316926323b872dd926110509291169033908a90600401611e2a565b600060405180830381600087803b15801561106a57600080fd5b505af115801561107e573d6000803e3d6000fd5b5050505060005b60048401548110156111365760008460040182815481106110a8576110a8611ec4565b60009182526020909120015460018054908701546040516323b872dd60e01b81529293506001600160a01b03918216926323b872dd926110f092169033908690600401611e2a565b600060405180830381600087803b15801561110a57600080fd5b505af115801561111e573d6000803e3d6000fd5b5050505050808061112e90611eda565b915050611085565b506111a9565b60018054908401546040516323b872dd60e01b81526001600160a01b03928316926323b872dd926111769291169033908a90600401611e2a565b600060405180830381600087803b15801561119057600080fd5b505af11580156111a4573d6000803e3d6000fd5b505050505b600683015460405186916001600160a01b038916917f214f19748cb1ec96983710a467eaf37eb2c4b1b401559db53458eda3178a46c79161120c9133918a9160048b019160058c019161ffff82169162010000900460ff169060078e0190611f70565b60405180910390a3505050505050565b6112246114b1565b610d29816114fa565b3361125f7f9016d09d72d40fdae2fd8ceac6b6234c7706214fd39c1cd1e609a0528c199300546001600160a01b031690565b6001600160a01b0316146107685760405163118cdaa760e01b81523360048201526024016107d4565b306001600160a01b037f000000000000000000000000000000000000000000000000000000000000000016148061130f57507f00000000000000000000000000000000000000000000000000000000000000006001600160a01b031661130360008051602061203e833981519152546001600160a01b031690565b6001600160a01b031614155b156107685760405163703e46dd60e11b815260040160405180910390fd5b610d2961122d565b816001600160a01b03166352d1902d6040518163ffffffff1660e01b8152600401602060405180830381865afa92505050801561138f575060408051601f3d908101601f1916820190925261138c91810190612008565b60015b6113b757604051634c9c8ce360e01b81526001600160a01b03831660048201526024016107d4565b60008051602061203e83398151915281146113e857604051632a87526960e21b8152600481018290526024016107d4565b6113f28383611502565b505050565b306001600160a01b037f000000000000000000000000000000000000000000000000000000000000000016146107685760405163703e46dd60e11b815260040160405180910390fd5b7f9016d09d72d40fdae2fd8ceac6b6234c7706214fd39c1cd1e609a0528c19930080546001600160a01b031981166001600160a01b03848116918217845560405192169182907f8be0079c531659141344cd1fd0a4f28419497f9722a3daafe3b4186f6b6457e090600090a3505050565b7ff0c57e16840df040f15088dc2f81fe391c3923bec73e23a9662efc9c229c6a0054600160401b900460ff1661076857604051631afcd79f60e31b815260040160405180910390fd5b610cf66114b1565b61150b82611558565b6040516001600160a01b038316907fbc7cd75a20ee27fd9adebab32041f755214dbc6bffa90cc0225b39da2e5c2d3b90600090a2805115611550576113f282826115bd565b61070b611635565b806001600160a01b03163b60000361158e57604051634c9c8ce360e01b81526001600160a01b03821660048201526024016107d4565b60008051602061203e83398151915280546001600160a01b0319166001600160a01b0392909216919091179055565b6060600080846001600160a01b0316846040516115da9190612021565b600060405180830381855af49150503d8060008114611615576040519150601f19603f3d011682016040523d82523d6000602084013e61161a565b606091505b509150915061162a858383611654565b925050505b92915050565b34156107685760405163b398979f60e01b815260040160405180910390fd5b60608261166957611664826116b3565b6116ac565b815115801561168057506001600160a01b0384163b155b156116a957604051639996b31560e01b81526001600160a01b03851660048201526024016107d4565b50805b9392505050565b8051156116c35780518082602001fd5b604051630a12f52160e11b815260040160405180910390fd5b828054828255906000526020600020908101928215611717579160200282015b828111156117175782518255916020019190600101906116fc565b50611723929150611727565b5090565b5b808211156117235760008155600101611728565b6001600160a01b0381168114610d2957600080fd5b803561175c8161173c565b919050565b6000806040838503121561177457600080fd5b823561177f8161173c565b946020939093013593505050565b60005b838110156117a8578181015183820152602001611790565b50506000910152565b600081518084526117c981602086016020860161178d565b601f01601f19169290920160200192915050565b8881526001600160a01b038816602082015260408101879052851515606082015261010060808201819052600090611817838201886117b1565b905061ffff861660a084015260ff851660c084015282810360e084015261183e81856117b1565b9b9a5050505050505050505050565b600080600080600060a0868803121561186557600080fd5b85356118708161173c565b945060208601356118808161173c565b935060408601356118908161173c565b925060608601356118a08161173c565b915060808601356118b08161173c565b809150509295509295909350565b6000602082840312156118d057600080fd5b81356116ac8161173c565b634e487b7160e01b600052604160045260246000fd5b604051601f8201601f1916810167ffffffffffffffff8111828210171561191a5761191a6118db565b604052919050565b600067ffffffffffffffff83111561193c5761193c6118db565b61194f601f8401601f19166020016118f1565b905082815283838301111561196357600080fd5b828260208301376000602084830101529392505050565b6000806040838503121561198d57600080fd5b82356119988161173c565b9150602083013567ffffffffffffffff8111156119b457600080fd5b8301601f810185136119c557600080fd5b6119d485823560208401611922565b9150509250929050565b6000806000606084860312156119f357600080fd5b83356119fe8161173c565b95602085013595506040909401359392505050565b6020815260006116ac60208301846117b1565b600082601f830112611a3757600080fd5b8135602067ffffffffffffffff821115611a5357611a536118db565b8160051b611a628282016118f1565b9283528481018201928281019087851115611a7c57600080fd5b83870192505b84831015611a9b57823582529183019190830190611a82565b979650505050505050565b600082601f830112611ab757600080fd5b6116ac83833560208501611922565b803561ffff8116811461175c57600080fd5b803560ff8116811461175c57600080fd5b600080600080600080600080610100898b031215611b0657600080fd5b611b0f89611751565b97506020890135965060408901359550606089013567ffffffffffffffff80821115611b3a57600080fd5b611b468c838d01611a26565b965060808b0135915080821115611b5c57600080fd5b611b688c838d01611aa6565b9550611b7660a08c01611ac6565b9450611b8460c08c01611ad8565b935060e08b0135915080821115611b9a57600080fd5b50611ba78b828c01611aa6565b9150509295985092959890939650565b600181811c90821680611bcb57607f821691505b602082108103611beb57634e487b7160e01b600052602260045260246000fd5b50919050565b600060208284031215611c0357600080fd5b81516116ac8161173c565b600060208284031215611c2057600080fd5b815180151581146116ac57600080fd5b601f8211156113f257600081815260208120601f850160051c81016020861015611c575750805b601f850160051c820191505b81811015611c7657828155600101611c63565b505050505050565b815167ffffffffffffffff811115611c9857611c986118db565b611cac81611ca68454611bb7565b84611c30565b602080601f831160018114611ce15760008415611cc95750858301515b600019600386901b1c1916600185901b178555611c76565b600085815260208120601f198616915b82811015611d1057888601518255948401946001909101908401611cf1565b5085821015611d2e5787850151600019600388901b60f8161c191681555b5050505050600190811b01905550565b6001600160a01b0388168152602080820188905260e060408301819052875190830181905260009188810191610100850190845b81811015611d8e57845183529383019391830191600101611d72565b50508481036060860152611da2818a6117b1565b92505050611db6608084018761ffff169052565b60ff851660a084015282810360c0840152611dd181856117b1565b9a9950505050505050505050565b634e487b7160e01b600052601160045260246000fd5b600082611e1257634e487b7160e01b600052601260045260246000fd5b500490565b8181038181111561162f5761162f611ddf565b6001600160a01b039384168152919092166020820152604081019190915260600190565b6000808354611e5c81611bb7565b60018281168015611e745760018114611e8957611eb8565b60ff1984168752821515830287019450611eb8565b8760005260208060002060005b85811015611eaf5781548a820152908401908201611e96565b50505082870194505b50929695505050505050565b634e487b7160e01b600052603260045260246000fd5b600060018201611eec57611eec611ddf565b5060010190565b60008154611f0081611bb7565b808552602060018381168015611f1d5760018114611f3757611f65565b60ff1985168884015283151560051b880183019550611f65565b866000528260002060005b85811015611f5d5781548a8201860152908301908401611f42565b890184019650505b505050505092915050565b6001600160a01b0388168152602080820188905260e0604083018190528754908301819052600088815282812090929091610100850190845b81811015611fc557845483526001948501949284019201611fa9565b50508481036060860152611fd9818a611ef3565b92505050611fed608084018761ffff169052565b60ff851660a084015282810360c0840152611dd18185611ef3565b60006020828403121561201a57600080fd5b5051919050565b6000825161203381846020870161178d565b919091019291505056fe360894a13ba1a3210667c828492db98dca3e2076cc3735a920a3ca505d382bbca2646970667358221220206e70b8223d499155214b0c9e00e0cedb5b9bc6686029169a5a8cdf77a01bbd64736f6c63430008140033",
  "linkReferences": {},
  "deployedLinkReferences": {}
}