{
  "_format": "hh-sol-artifact-1",
  "contractName": "GameMarketplace",
  "sourceName": "contracts/GameMarketplace.sol",
  "abi": [
    {
      "inputs": [],
      "stateMutability": "nonpayable",
      "type": "constructor"
    },
    {
      "inputs": [],
      "name": "AccessControlBadConfirmation",
      "type": "error"
    },
    {
      "inputs": [
        {
          "internalType": "address",
          "name": "account",
          "type": "address"
        },
        {
          "internalType": "bytes32",
          "name": "neededRole",
          "type": "bytes32"
        }
      ],
      "name": "AccessControlUnauthorizedAccount",
      "type": "error"
    },
    {
      "inputs": [
        {
          "internalType": "address",
          "name": "target",
          "type": "address"
        }
      ],
      "name": "AddressEmptyCode",
      "type": "error"
    },
    {
      "inputs": [
        {
          "internalType": "address",
          "name": "implementation",
          "type": "address"
        }
      ],
      "name": "ERC1967InvalidImplementation",
      "type": "error"
    },
    {
      "inputs": [],
      "name": "ERC1967NonPayable",
      "type": "error"
    },
    {
      "inputs": [],
      "name": "FailedInnerCall",
      "type": "error"
    },
    {
      "inputs": [],
      "name": "InvalidInitialization",
      "type": "error"
    },
    {
      "inputs": [],
      "name": "NotInitializing",
      "type": "error"
    },
    {
      "inputs": [],
      "name": "UUPSUnauthorizedCallContext",
      "type": "error"
    },
    {
      "inputs": [
        {
          "internalType": "bytes32",
          "name": "slot",
          "type": "bytes32"
        }
      ],
      "name": "UUPSUnsupportedProxiableUUID",
      "type": "error"
    },
    {
      "anonymous": false,
      "inputs": [
        {
          "indexed": false,
          "internalType": "uint64",
          "name": "version",
          "type": "uint64"
        }
      ],
      "name": "Initialized",
      "type": "event"
    },
    {
      "anonymous": false,
      "inputs": [
        {
          "indexed": true,
          "internalType": "address",
          "name": "nftAddress",
          "type": "address"
        },
        {
          "indexed": true,
          "internalType": "uint256",
          "name": "tokenId",
          "type": "uint256"
        },
        {
          "indexed": false,
          "internalType": "address",
          "name": "buyer",
          "type": "address"
        },
        {
          "indexed": false,
          "internalType": "uint256",
          "name": "price",
          "type": "uint256"
        },
        {
          "indexed": false,
          "internalType": "uint256[]",
          "name": "itemTokenIds",
          "type": "uint256[]"
        },
        {
          "indexed": false,
          "internalType": "string",
          "name": "itemType",
          "type": "string"
        },
        {
          "indexed": false,
          "internalType": "uint16",
          "name": "power",
          "type": "uint16"
        },
        {
          "indexed": false,
          "internalType": "uint8",
          "name": "durability",
          "type": "uint8"
        },
        {
          "indexed": false,
          "internalType": "string",
          "name": "characterOwner",
          "type": "string"
        }
      ],
      "name": "ItemBought",
      "type": "event"
    },
    {
      "anonymous": false,
      "inputs": [
        {
          "indexed": true,
          "internalType": "address",
          "name": "nftAddress",
          "type": "address"
        },
        {
          "indexed": true,
          "internalType": "uint256",
          "name": "tokenId",
          "type": "uint256"
        },
        {
          "indexed": false,
          "internalType": "address",
          "name": "seller",
          "type": "address"
        },
        {
          "indexed": false,
          "internalType": "uint256",
          "name": "price",
          "type": "uint256"
        },
        {
          "indexed": false,
          "internalType": "uint256[]",
          "name": "itemTokenIds",
          "type": "uint256[]"
        },
        {
          "indexed": false,
          "internalType": "string",
          "name": "itemType",
          "type": "string"
        },
        {
          "indexed": false,
          "internalType": "uint16",
          "name": "power",
          "type": "uint16"
        },
        {
          "indexed": false,
          "internalType": "uint8",
          "name": "durability",
          "type": "uint8"
        },
        {
          "indexed": false,
          "internalType": "string",
          "name": "characterOwner",
          "type": "string"
        }
      ],
      "name": "ItemListed",
      "type": "event"
    },
    {
      "anonymous": false,
      "inputs": [
        {
          "indexed": true,
          "internalType": "address",
          "name": "nftAddress",
          "type": "address"
        },
        {
          "indexed": true,
          "internalType": "uint256",
          "name": "tokenId",
          "type": "uint256"
        }
      ],
      "name": "ListingCancelled",
      "type": "event"
    },
    {
      "anonymous": false,
      "inputs": [
        {
          "indexed": true,
          "internalType": "address",
          "name": "nftAddress",
          "type": "address"
        },
        {
          "indexed": true,
          "internalType": "uint256",
          "name": "tokenId",
          "type": "uint256"
        },
        {
          "indexed": false,
          "internalType": "uint256",
          "name": "newPrice",
          "type": "uint256"
        }
      ],
      "name": "PriceChanged",
      "type": "event"
    },
    {
      "anonymous": false,
      "inputs": [
        {
          "indexed": true,
          "internalType": "bytes32",
          "name": "role",
          "type": "bytes32"
        },
        {
          "indexed": true,
          "internalType": "bytes32",
          "name": "previousAdminRole",
          "type": "bytes32"
        },
        {
          "indexed": true,
          "internalType": "bytes32",
          "name": "newAdminRole",
          "type": "bytes32"
        }
      ],
      "name": "RoleAdminChanged",
      "type": "event"
    },
    {
      "anonymous": false,
      "inputs": [
        {
          "indexed": true,
          "internalType": "bytes32",
          "name": "role",
          "type": "bytes32"
        },
        {
          "indexed": true,
          "internalType": "address",
          "name": "account",
          "type": "address"
        },
        {
          "indexed": true,
          "internalType": "address",
          "name": "sender",
          "type": "address"
        }
      ],
      "name": "RoleGranted",
      "type": "event"
    },
    {
      "anonymous": false,
      "inputs": [
        {
          "indexed": true,
          "internalType": "bytes32",
          "name": "role",
          "type": "bytes32"
        },
        {
          "indexed": true,
          "internalType": "address",
          "name": "account",
          "type": "address"
        },
        {
          "indexed": true,
          "internalType": "address",
          "name": "sender",
          "type": "address"
        }
      ],
      "name": "RoleRevoked",
      "type": "event"
    },
    {
      "anonymous": false,
      "inputs": [
        {
          "indexed": true,
          "internalType": "address",
          "name": "implementation",
          "type": "address"
        }
      ],
      "name": "Upgraded",
      "type": "event"
    },
    {
      "inputs": [],
      "name": "DEFAULT_ADMIN_ROLE",
      "outputs": [
        {
          "internalType": "bytes32",
          "name": "",
          "type": "bytes32"
        }
      ],
      "stateMutability": "view",
      "type": "function"
    },
    {
      "inputs": [],
      "name": "UPGRADE_INTERFACE_VERSION",
      "outputs": [
        {
          "internalType": "string",
          "name": "",
          "type": "string"
        }
      ],
      "stateMutability": "view",
      "type": "function"
    },
    {
      "inputs": [
        {
          "internalType": "address",
          "name": "nftAddress",
          "type": "address"
        },
        {
          "internalType": "uint256",
          "name": "tokenId",
          "type": "uint256"
        }
      ],
      "name": "buyItem",
      "outputs": [],
      "stateMutability": "payable",
      "type": "function"
    },
    {
      "inputs": [
        {
          "internalType": "address",
          "name": "nftAddress",
          "type": "address"
        },
        {
          "internalType": "uint256",
          "name": "tokenId",
          "type": "uint256"
        }
      ],
      "name": "cancelListing",
      "outputs": [],
      "stateMutability": "nonpayable",
      "type": "function"
    },
    {
      "inputs": [
        {
          "internalType": "address",
          "name": "nftAddress",
          "type": "address"
        },
        {
          "internalType": "uint256",
          "name": "tokenId",
          "type": "uint256"
        },
        {
          "internalType": "uint256",
          "name": "newPrice",
          "type": "uint256"
        }
      ],
      "name": "changePrice",
      "outputs": [],
      "stateMutability": "nonpayable",
      "type": "function"
    },
    {
      "inputs": [
        {
          "internalType": "bytes32",
          "name": "role",
          "type": "bytes32"
        }
      ],
      "name": "getRoleAdmin",
      "outputs": [
        {
          "internalType": "bytes32",
          "name": "",
          "type": "bytes32"
        }
      ],
      "stateMutability": "view",
      "type": "function"
    },
    {
      "inputs": [
        {
          "internalType": "bytes32",
          "name": "role",
          "type": "bytes32"
        },
        {
          "internalType": "address",
          "name": "account",
          "type": "address"
        }
      ],
      "name": "grantRole",
      "outputs": [],
      "stateMutability": "nonpayable",
      "type": "function"
    },
    {
      "inputs": [
        {
          "internalType": "bytes32",
          "name": "role",
          "type": "bytes32"
        },
        {
          "internalType": "address",
          "name": "account",
          "type": "address"
        }
      ],
      "name": "hasRole",
      "outputs": [
        {
          "internalType": "bool",
          "name": "",
          "type": "bool"
        }
      ],
      "stateMutability": "view",
      "type": "function"
    },
    {
      "inputs": [
        {
          "internalType": "address",
          "name": "defaultAdmin",
          "type": "address"
        },
        {
          "internalType": "address",
          "name": "_itemContract",
          "type": "address"
        }
      ],
      "name": "initialize",
      "outputs": [],
      "stateMutability": "nonpayable",
      "type": "function"
    },
    {
      "inputs": [],
      "name": "itemContract",
      "outputs": [
        {
          "internalType": "contract MintItem",
          "name": "",
          "type": "address"
        }
      ],
      "stateMutability": "view",
      "type": "function"
    },
    {
      "inputs": [
        {
          "internalType": "address",
          "name": "nftAddress",
          "type": "address"
        },
        {
          "internalType": "uint256",
          "name": "tokenId",
          "type": "uint256"
        },
        {
          "internalType": "uint256",
          "name": "price",
          "type": "uint256"
        },
        {
          "internalType": "uint256[]",
          "name": "itemTokenIds",
          "type": "uint256[]"
        },
        {
          "internalType": "string",
          "name": "itemType",
          "type": "string"
        },
        {
          "internalType": "uint16",
          "name": "power",
          "type": "uint16"
        },
        {
          "internalType": "uint8",
          "name": "durability",
          "type": "uint8"
        },
        {
          "internalType": "string",
          "name": "characterOwner",
          "type": "string"
        }
      ],
      "name": "listItemForSale",
      "outputs": [],
      "stateMutability": "nonpayable",
      "type": "function"
    },
    {
      "inputs": [
        {
          "internalType": "address",
          "name": "",
          "type": "address"
        },
        {
          "internalType": "uint256",
          "name": "",
          "type": "uint256"
        }
      ],
      "name": "listings",
      "outputs": [
        {
          "internalType": "uint256",
          "name": "tokenId",
          "type": "uint256"
        },
        {
          "internalType": "address payable",
          "name": "seller",
          "type": "address"
        },
        {
          "internalType": "uint256",
          "name": "price",
          "type": "uint256"
        },
        {
          "internalType": "bool",
          "name": "isActive",
          "type": "bool"
        },
        {
          "internalType": "string",
          "name": "itemType",
          "type": "string"
        },
        {
          "internalType": "uint16",
          "name": "power",
          "type": "uint16"
        },
        {
          "internalType": "uint8",
          "name": "durability",
          "type": "uint8"
        },
        {
          "internalType": "string",
          "name": "characterOwner",
          "type": "string"
        }
      ],
      "stateMutability": "view",
      "type": "function"
    },
    {
      "inputs": [],
      "name": "proxiableUUID",
      "outputs": [
        {
          "internalType": "bytes32",
          "name": "",
          "type": "bytes32"
        }
      ],
      "stateMutability": "view",
      "type": "function"
    },
    {
      "inputs": [
        {
          "internalType": "bytes32",
          "name": "role",
          "type": "bytes32"
        },
        {
          "internalType": "address",
          "name": "callerConfirmation",
          "type": "address"
        }
      ],
      "name": "renounceRole",
      "outputs": [],
      "stateMutability": "nonpayable",
      "type": "function"
    },
    {
      "inputs": [
        {
          "internalType": "bytes32",
          "name": "role",
          "type": "bytes32"
        },
        {
          "internalType": "address",
          "name": "account",
          "type": "address"
        }
      ],
      "name": "revokeRole",
      "outputs": [],
      "stateMutability": "nonpayable",
      "type": "function"
    },
    {
      "inputs": [
        {
          "internalType": "bytes4",
          "name": "interfaceId",
          "type": "bytes4"
        }
      ],
      "name": "supportsInterface",
      "outputs": [
        {
          "internalType": "bool",
          "name": "",
          "type": "bool"
        }
      ],
      "stateMutability": "view",
      "type": "function"
    },
    {
      "inputs": [
        {
          "internalType": "address",
          "name": "newImplementation",
          "type": "address"
        },
        {
          "internalType": "bytes",
          "name": "data",
          "type": "bytes"
        }
      ],
      "name": "upgradeToAndCall",
      "outputs": [],
      "stateMutability": "payable",
      "type": "function"
    }
  ],
  "bytecode": "0x60a06040523073ffffffffffffffffffffffffffffffffffffffff1660809073ffffffffffffffffffffffffffffffffffffffff168152503480156200004457600080fd5b50620000556200005b60201b60201c565b620001cf565b60006200006d6200016560201b60201c565b90508060000160089054906101000a900460ff1615620000b9576040517ff92ee8a900000000000000000000000000000000000000000000000000000000815260040160405180910390fd5b67ffffffffffffffff80168160000160009054906101000a900467ffffffffffffffff1667ffffffffffffffff1614620001625767ffffffffffffffff8160000160006101000a81548167ffffffffffffffff021916908367ffffffffffffffff1602179055507fc7f505b2f371ae2175ee4913f4499e1f2633a7b5936321eed1cdaeb6115181d267ffffffffffffffff604051620001599190620001b2565b60405180910390a15b50565b60007ff0c57e16840df040f15088dc2f81fe391c3923bec73e23a9662efc9c229c6a00905090565b600067ffffffffffffffff82169050919050565b620001ac816200018d565b82525050565b6000602082019050620001c96000830184620001a1565b92915050565b6080516133df620001f960003960008181611763015281816117b8015261197901526133df6000f3fe6080604052600436106100fd5760003560e01c8063741cbae411610095578063a217fddf11610064578063a217fddf1461032f578063ad3cb1cc1461035a578063b2ddee0614610385578063c08370b4146103ae578063d547741f146103d7576100fd565b8063741cbae4146102825780638d76f940146102ab57806391d14854146102d65780639f37092a14610313576100fd565b806336568abe116100d157806336568abe146101e9578063485cc955146102125780634f1ef2861461023b57806352d1902d14610257576100fd565b806207df301461010257806301ffc9a714610146578063248a9ca3146101835780632f2ff15d146101c0575b600080fd5b34801561010e57600080fd5b5061012960048036038101906101249190611f61565b610400565b60405161013d9897969594939291906120b5565b60405180910390f35b34801561015257600080fd5b5061016d60048036038101906101689190612199565b6105ad565b60405161017a91906121c6565b60405180910390f35b34801561018f57600080fd5b506101aa60048036038101906101a59190612217565b6105bf565b6040516101b79190612253565b60405180910390f35b3480156101cc57600080fd5b506101e760048036038101906101e2919061226e565b6105ed565b005b3480156101f557600080fd5b50610210600480360381019061020b919061226e565b61060f565b005b34801561021e57600080fd5b50610239600480360381019061023491906122ae565b61068a565b005b61025560048036038101906102509190612423565b610868565b005b34801561026357600080fd5b5061026c610887565b6040516102799190612253565b60405180910390f35b34801561028e57600080fd5b506102a960048036038101906102a4919061247f565b6108ba565b005b3480156102b757600080fd5b506102c0610a4e565b6040516102cd9190612531565b60405180910390f35b3480156102e257600080fd5b506102fd60048036038101906102f8919061226e565b610a74565b60405161030a91906121c6565b60405180910390f35b61032d60048036038101906103289190611f61565b610aed565b005b34801561033b57600080fd5b50610344610ea2565b6040516103519190612253565b60405180910390f35b34801561036657600080fd5b5061036f610ea9565b60405161037c919061254c565b60405180910390f35b34801561039157600080fd5b506103ac60048036038101906103a79190611f61565b610ee2565b005b3480156103ba57600080fd5b506103d560048036038101906103d0919061272f565b61107e565b005b3480156103e357600080fd5b506103fe60048036038101906103f9919061226e565b61144c565b005b6000602052816000526040600020602052806000526040600020600091509150508060000154908060010160009054906101000a900473ffffffffffffffffffffffffffffffffffffffff16908060020154908060030160009054906101000a900460ff169080600501805461047590612868565b80601f01602080910402602001604051908101604052809291908181526020018280546104a190612868565b80156104ee5780601f106104c3576101008083540402835291602001916104ee565b820191906000526020600020905b8154815290600101906020018083116104d157829003601f168201915b5050505050908060060160009054906101000a900461ffff16908060060160029054906101000a900460ff169080600701805461052a90612868565b80601f016020809104026020016040519081016040528092919081815260200182805461055690612868565b80156105a35780601f10610578576101008083540402835291602001916105a3565b820191906000526020600020905b81548152906001019060200180831161058657829003601f168201915b5050505050905088565b60006105b88261146e565b9050919050565b6000806105ca6114e8565b905080600001600084815260200190815260200160002060010154915050919050565b6105f6826105bf565b6105ff81611510565b6106098383611524565b50505050565b610617611625565b73ffffffffffffffffffffffffffffffffffffffff168173ffffffffffffffffffffffffffffffffffffffff161461067b576040517f6697b23200000000000000000000000000000000000000000000000000000000815260040160405180910390fd5b610685828261162d565b505050565b600061069461172f565b905060008160000160089054906101000a900460ff1615905060008260000160009054906101000a900467ffffffffffffffff1690506000808267ffffffffffffffff161480156106e25750825b9050600060018367ffffffffffffffff16148015610717575060003073ffffffffffffffffffffffffffffffffffffffff163b145b905081158015610725575080155b1561075c576040517ff92ee8a900000000000000000000000000000000000000000000000000000000815260040160405180910390fd5b60018560000160006101000a81548167ffffffffffffffff021916908367ffffffffffffffff16021790555083156107ac5760018560000160086101000a81548160ff0219169083151502179055505b6107b4611757565b6107c16000801b88611524565b5085600160006101000a81548173ffffffffffffffffffffffffffffffffffffffff021916908373ffffffffffffffffffffffffffffffffffffffff160217905550831561085f5760008560000160086101000a81548160ff0219169083151502179055507fc7f505b2f371ae2175ee4913f4499e1f2633a7b5936321eed1cdaeb6115181d2600160405161085691906128e8565b60405180910390a15b50505050505050565b610870611761565b61087982611847565b6108838282611858565b5050565b6000610891611977565b7f360894a13ba1a3210667c828492db98dca3e2076cc3735a920a3ca505d382bbc60001b905090565b60008060008573ffffffffffffffffffffffffffffffffffffffff1673ffffffffffffffffffffffffffffffffffffffff168152602001908152602001600020600084815260200190815260200160002090508060030160009054906101000a900460ff1661095e576040517f08c379a00000000000000000000000000000000000000000000000000000000081526004016109559061294f565b60405180910390fd5b3373ffffffffffffffffffffffffffffffffffffffff168160010160009054906101000a900473ffffffffffffffffffffffffffffffffffffffff1673ffffffffffffffffffffffffffffffffffffffff16146109f0576040517f08c379a00000000000000000000000000000000000000000000000000000000081526004016109e7906129bb565b60405180910390fd5b818160020181905550828473ffffffffffffffffffffffffffffffffffffffff167f4d624906ce6fd4e4b8b649463516ff505029a1903a8cc34bd82b4ca0f9a479de84604051610a4091906129db565b60405180910390a350505050565b600160009054906101000a900473ffffffffffffffffffffffffffffffffffffffff1681565b600080610a7f6114e8565b905080600001600085815260200190815260200160002060000160008473ffffffffffffffffffffffffffffffffffffffff1673ffffffffffffffffffffffffffffffffffffffff16815260200190815260200160002060009054906101000a900460ff1691505092915050565b60008060008473ffffffffffffffffffffffffffffffffffffffff1673ffffffffffffffffffffffffffffffffffffffff168152602001908152602001600020600083815260200190815260200160002090508060030160009054906101000a900460ff16610b91576040517f08c379a0000000000000000000000000000000000000000000000000000000008152600401610b8890612a42565b60405180910390fd5b8060020154341015610bd8576040517f08c379a0000000000000000000000000000000000000000000000000000000008152600401610bcf90612aae565b60405180910390fd5b60008160030160006101000a81548160ff0219169083151502179055508060010160009054906101000a900473ffffffffffffffffffffffffffffffffffffffff1673ffffffffffffffffffffffffffffffffffffffff166108fc349081150290604051600060405180830381858888f19350505050158015610c5f573d6000803e3d6000fd5b50600160009054906101000a900473ffffffffffffffffffffffffffffffffffffffff1673ffffffffffffffffffffffffffffffffffffffff166323b872dd8260010160009054906101000a900473ffffffffffffffffffffffffffffffffffffffff1633856040518463ffffffff1660e01b8152600401610ce393929190612afe565b600060405180830381600087803b158015610cfd57600080fd5b505af1158015610d11573d6000803e3d6000fd5b5050505060005b8160040180549050811015610e15576000826004018281548110610d3f57610d3e612b35565b5b90600052602060002001549050600160009054906101000a900473ffffffffffffffffffffffffffffffffffffffff1673ffffffffffffffffffffffffffffffffffffffff166323b872dd8460010160009054906101000a900473ffffffffffffffffffffffffffffffffffffffff1633846040518463ffffffff1660e01b8152600401610dcf93929190612afe565b600060405180830381600087803b158015610de957600080fd5b505af1158015610dfd573d6000803e3d6000fd5b50505050508080610e0d90612b93565b915050610d18565b50818373ffffffffffffffffffffffffffffffffffffffff167f214f19748cb1ec96983710a467eaf37eb2c4b1b401559db53458eda3178a46c7333485600401866005018760060160009054906101000a900461ffff168860060160029054906101000a900460ff1689600701604051610e959796959493929190612d82565b60405180910390a3505050565b6000801b81565b6040518060400160405280600581526020017f352e302e3000000000000000000000000000000000000000000000000000000081525081565b60008060008473ffffffffffffffffffffffffffffffffffffffff1673ffffffffffffffffffffffffffffffffffffffff168152602001908152602001600020600083815260200190815260200160002090508060030160009054906101000a900460ff16610f86576040517f08c379a0000000000000000000000000000000000000000000000000000000008152600401610f7d9061294f565b60405180910390fd5b3373ffffffffffffffffffffffffffffffffffffffff168160010160009054906101000a900473ffffffffffffffffffffffffffffffffffffffff1673ffffffffffffffffffffffffffffffffffffffff1614611018576040517f08c379a000000000000000000000000000000000000000000000000000000000815260040161100f906129bb565b60405180910390fd5b60008160030160006101000a81548160ff021916908315150217905550818373ffffffffffffffffffffffffffffffffffffffff167f93ec4766fcd2d9dfdceab8f2e13ba0d9d826645cf03167fdb92b3b7359b5248c60405160405180910390a3505050565b3073ffffffffffffffffffffffffffffffffffffffff16600160009054906101000a900473ffffffffffffffffffffffffffffffffffffffff1673ffffffffffffffffffffffffffffffffffffffff1663081812fc896040518263ffffffff1660e01b81526004016110f091906129db565b602060405180830381865afa15801561110d573d6000803e3d6000fd5b505050506040513d601f19601f820116820180604052508101906111319190612e1b565b73ffffffffffffffffffffffffffffffffffffffff1614806111ed5750600160009054906101000a900473ffffffffffffffffffffffffffffffffffffffff1673ffffffffffffffffffffffffffffffffffffffff1663e985e9c533306040518363ffffffff1660e01b81526004016111ab929190612e48565b602060405180830381865afa1580156111c8573d6000803e3d6000fd5b505050506040513d601f19601f820116820180604052508101906111ec9190612e9d565b5b61122c576040517f08c379a000000000000000000000000000000000000000000000000000000000815260040161122390612f3c565b60405180910390fd5b6040518061012001604052808881526020013373ffffffffffffffffffffffffffffffffffffffff1681526020018781526020016001151581526020018681526020018581526020018461ffff1681526020018360ff168152602001828152506000808a73ffffffffffffffffffffffffffffffffffffffff1673ffffffffffffffffffffffffffffffffffffffff16815260200190815260200160002060008981526020019081526020016000206000820151816000015560208201518160010160006101000a81548173ffffffffffffffffffffffffffffffffffffffff021916908373ffffffffffffffffffffffffffffffffffffffff1602179055506040820151816002015560608201518160030160006101000a81548160ff0219169083151502179055506080820151816004019080519060200190611372929190611e4f565b5060a082015181600501908161138891906130e9565b5060c08201518160060160006101000a81548161ffff021916908361ffff16021790555060e08201518160060160026101000a81548160ff021916908360ff1602179055506101008201518160070190816113e391906130e9565b50905050868873ffffffffffffffffffffffffffffffffffffffff167f37323b9c4a3c9d9bc00d880e6a0eec261e1cd31f6e2eb58d589fdef88ba68ac43389898989898960405161143a9796959493929190613241565b60405180910390a35050505050505050565b611455826105bf565b61145e81611510565b611468838361162d565b50505050565b60007f7965db0b000000000000000000000000000000000000000000000000000000007bffffffffffffffffffffffffffffffffffffffffffffffffffffffff1916827bffffffffffffffffffffffffffffffffffffffffffffffffffffffff191614806114e157506114e0826119fe565b5b9050919050565b60007f02dd7bc7dec4dceedda775e58dd541e08a116c6c53815c0bd028192f7b626800905090565b6115218161151c611625565b611a68565b50565b60008061152f6114e8565b905061153b8484610a74565b61161957600181600001600086815260200190815260200160002060000160008573ffffffffffffffffffffffffffffffffffffffff1673ffffffffffffffffffffffffffffffffffffffff16815260200190815260200160002060006101000a81548160ff0219169083151502179055506115b5611625565b73ffffffffffffffffffffffffffffffffffffffff168373ffffffffffffffffffffffffffffffffffffffff16857f2f8788117e7eff1d82e926ec794901d17c78024a50270940304540a733656f0d60405160405180910390a4600191505061161f565b60009150505b92915050565b600033905090565b6000806116386114e8565b90506116448484610a74565b1561172357600081600001600086815260200190815260200160002060000160008573ffffffffffffffffffffffffffffffffffffffff1673ffffffffffffffffffffffffffffffffffffffff16815260200190815260200160002060006101000a81548160ff0219169083151502179055506116bf611625565b73ffffffffffffffffffffffffffffffffffffffff168373ffffffffffffffffffffffffffffffffffffffff16857ff6391f5c32d9c69d2a47ea670b442974b53935d1edc7fd64eb21e047a839171b60405160405180910390a46001915050611729565b60009150505b92915050565b60007ff0c57e16840df040f15088dc2f81fe391c3923bec73e23a9662efc9c229c6a00905090565b61175f611ab9565b565b7f000000000000000000000000000000000000000000000000000000000000000073ffffffffffffffffffffffffffffffffffffffff163073ffffffffffffffffffffffffffffffffffffffff16148061180e57507f000000000000000000000000000000000000000000000000000000000000000073ffffffffffffffffffffffffffffffffffffffff166117f5611af9565b73ffffffffffffffffffffffffffffffffffffffff1614155b15611845576040517fe07c8dba00000000000000000000000000000000000000000000000000000000815260040160405180910390fd5b565b6000801b61185481611510565b5050565b8173ffffffffffffffffffffffffffffffffffffffff166352d1902d6040518163ffffffff1660e01b8152600401602060405180830381865afa9250505080156118c057506040513d601f19601f820116820180604052508101906118bd91906132da565b60015b61190157816040517f4c9c8ce30000000000000000000000000000000000000000000000000000000081526004016118f89190613307565b60405180910390fd5b7f360894a13ba1a3210667c828492db98dca3e2076cc3735a920a3ca505d382bbc60001b811461196857806040517faa1d49a400000000000000000000000000000000000000000000000000000000815260040161195f9190612253565b60405180910390fd5b6119728383611b50565b505050565b7f000000000000000000000000000000000000000000000000000000000000000073ffffffffffffffffffffffffffffffffffffffff163073ffffffffffffffffffffffffffffffffffffffff16146119fc576040517fe07c8dba00000000000000000000000000000000000000000000000000000000815260040160405180910390fd5b565b60007f01ffc9a7000000000000000000000000000000000000000000000000000000007bffffffffffffffffffffffffffffffffffffffffffffffffffffffff1916827bffffffffffffffffffffffffffffffffffffffffffffffffffffffff1916149050919050565b611a728282610a74565b611ab55780826040517fe2517d3f000000000000000000000000000000000000000000000000000000008152600401611aac929190613322565b60405180910390fd5b5050565b611ac1611bc3565b611af7576040517fd7e6bcf800000000000000000000000000000000000000000000000000000000815260040160405180910390fd5b565b6000611b277f360894a13ba1a3210667c828492db98dca3e2076cc3735a920a3ca505d382bbc60001b611be3565b60000160009054906101000a900473ffffffffffffffffffffffffffffffffffffffff16905090565b611b5982611bed565b8173ffffffffffffffffffffffffffffffffffffffff167fbc7cd75a20ee27fd9adebab32041f755214dbc6bffa90cc0225b39da2e5c2d3b60405160405180910390a2600081511115611bb657611bb08282611cba565b50611bbf565b611bbe611d3e565b5b5050565b6000611bcd61172f565b60000160089054906101000a900460ff16905090565b6000819050919050565b60008173ffffffffffffffffffffffffffffffffffffffff163b03611c4957806040517f4c9c8ce3000000000000000000000000000000000000000000000000000000008152600401611c409190613307565b60405180910390fd5b80611c767f360894a13ba1a3210667c828492db98dca3e2076cc3735a920a3ca505d382bbc60001b611be3565b60000160006101000a81548173ffffffffffffffffffffffffffffffffffffffff021916908373ffffffffffffffffffffffffffffffffffffffff16021790555050565b60606000808473ffffffffffffffffffffffffffffffffffffffff1684604051611ce49190613392565b600060405180830381855af49150503d8060008114611d1f576040519150601f19603f3d011682016040523d82523d6000602084013e611d24565b606091505b5091509150611d34858383611d7b565b9250505092915050565b6000341115611d79576040517fb398979f00000000000000000000000000000000000000000000000000000000815260040160405180910390fd5b565b606082611d9057611d8b82611e0a565b611e02565b60008251148015611db8575060008473ffffffffffffffffffffffffffffffffffffffff163b145b15611dfa57836040517f9996b315000000000000000000000000000000000000000000000000000000008152600401611df19190613307565b60405180910390fd5b819050611e03565b5b9392505050565b600081511115611e1d5780518082602001fd5b6040517f1425ea4200000000000000000000000000000000000000000000000000000000815260040160405180910390fd5b828054828255906000526020600020908101928215611e8b579160200282015b82811115611e8a578251825591602001919060010190611e6f565b5b509050611e989190611e9c565b5090565b5b80821115611eb5576000816000905550600101611e9d565b5090565b6000604051905090565b600080fd5b600080fd5b600073ffffffffffffffffffffffffffffffffffffffff82169050919050565b6000611ef882611ecd565b9050919050565b611f0881611eed565b8114611f1357600080fd5b50565b600081359050611f2581611eff565b92915050565b6000819050919050565b611f3e81611f2b565b8114611f4957600080fd5b50565b600081359050611f5b81611f35565b92915050565b60008060408385031215611f7857611f77611ec3565b5b6000611f8685828601611f16565b9250506020611f9785828601611f4c565b9150509250929050565b611faa81611f2b565b82525050565b6000611fbb82611ecd565b9050919050565b611fcb81611fb0565b82525050565b60008115159050919050565b611fe681611fd1565b82525050565b600081519050919050565b600082825260208201905092915050565b60005b8381101561202657808201518184015260208101905061200b565b60008484015250505050565b6000601f19601f8301169050919050565b600061204e82611fec565b6120588185611ff7565b9350612068818560208601612008565b61207181612032565b840191505092915050565b600061ffff82169050919050565b6120938161207c565b82525050565b600060ff82169050919050565b6120af81612099565b82525050565b6000610100820190506120cb600083018b611fa1565b6120d8602083018a611fc2565b6120e56040830189611fa1565b6120f26060830188611fdd565b81810360808301526121048187612043565b905061211360a083018661208a565b61212060c08301856120a6565b81810360e08301526121328184612043565b90509998505050505050505050565b60007fffffffff0000000000000000000000000000000000000000000000000000000082169050919050565b61217681612141565b811461218157600080fd5b50565b6000813590506121938161216d565b92915050565b6000602082840312156121af576121ae611ec3565b5b60006121bd84828501612184565b91505092915050565b60006020820190506121db6000830184611fdd565b92915050565b6000819050919050565b6121f4816121e1565b81146121ff57600080fd5b50565b600081359050612211816121eb565b92915050565b60006020828403121561222d5761222c611ec3565b5b600061223b84828501612202565b91505092915050565b61224d816121e1565b82525050565b60006020820190506122686000830184612244565b92915050565b6000806040838503121561228557612284611ec3565b5b600061229385828601612202565b92505060206122a485828601611f16565b9150509250929050565b600080604083850312156122c5576122c4611ec3565b5b60006122d385828601611f16565b92505060206122e485828601611f16565b9150509250929050565b600080fd5b600080fd5b7f4e487b7100000000000000000000000000000000000000000000000000000000600052604160045260246000fd5b61233082612032565b810181811067ffffffffffffffff8211171561234f5761234e6122f8565b5b80604052505050565b6000612362611eb9565b905061236e8282612327565b919050565b600067ffffffffffffffff82111561238e5761238d6122f8565b5b61239782612032565b9050602081019050919050565b82818337600083830152505050565b60006123c66123c184612373565b612358565b9050828152602081018484840111156123e2576123e16122f3565b5b6123ed8482856123a4565b509392505050565b600082601f83011261240a576124096122ee565b5b813561241a8482602086016123b3565b91505092915050565b6000806040838503121561243a57612439611ec3565b5b600061244885828601611f16565b925050602083013567ffffffffffffffff81111561246957612468611ec8565b5b612475858286016123f5565b9150509250929050565b60008060006060848603121561249857612497611ec3565b5b60006124a686828701611f16565b93505060206124b786828701611f4c565b92505060406124c886828701611f4c565b9150509250925092565b6000819050919050565b60006124f76124f26124ed84611ecd565b6124d2565b611ecd565b9050919050565b6000612509826124dc565b9050919050565b600061251b826124fe565b9050919050565b61252b81612510565b82525050565b60006020820190506125466000830184612522565b92915050565b600060208201905081810360008301526125668184612043565b905092915050565b600067ffffffffffffffff821115612589576125886122f8565b5b602082029050602081019050919050565b600080fd5b60006125b26125ad8461256e565b612358565b905080838252602082019050602084028301858111156125d5576125d461259a565b5b835b818110156125fe57806125ea8882611f4c565b8452602084019350506020810190506125d7565b5050509392505050565b600082601f83011261261d5761261c6122ee565b5b813561262d84826020860161259f565b91505092915050565b600067ffffffffffffffff821115612651576126506122f8565b5b61265a82612032565b9050602081019050919050565b600061267a61267584612636565b612358565b905082815260208101848484011115612696576126956122f3565b5b6126a18482856123a4565b509392505050565b600082601f8301126126be576126bd6122ee565b5b81356126ce848260208601612667565b91505092915050565b6126e08161207c565b81146126eb57600080fd5b50565b6000813590506126fd816126d7565b92915050565b61270c81612099565b811461271757600080fd5b50565b60008135905061272981612703565b92915050565b600080600080600080600080610100898b0312156127505761274f611ec3565b5b600061275e8b828c01611f16565b985050602061276f8b828c01611f4c565b97505060406127808b828c01611f4c565b965050606089013567ffffffffffffffff8111156127a1576127a0611ec8565b5b6127ad8b828c01612608565b955050608089013567ffffffffffffffff8111156127ce576127cd611ec8565b5b6127da8b828c016126a9565b94505060a06127eb8b828c016126ee565b93505060c06127fc8b828c0161271a565b92505060e089013567ffffffffffffffff81111561281d5761281c611ec8565b5b6128298b828c016126a9565b9150509295985092959890939650565b7f4e487b7100000000000000000000000000000000000000000000000000000000600052602260045260246000fd5b6000600282049050600182168061288057607f821691505b60208210810361289357612892612839565b5b50919050565b6000819050919050565b600067ffffffffffffffff82169050919050565b60006128d26128cd6128c884612899565b6124d2565b6128a3565b9050919050565b6128e2816128b7565b82525050565b60006020820190506128fd60008301846128d9565b92915050565b7f4c697374696e6720646f6573206e6f7420657869737400000000000000000000600082015250565b6000612939601683611ff7565b915061294482612903565b602082019050919050565b600060208201905081810360008301526129688161292c565b9050919050565b7f43616c6c6572206973206e6f74207468652073656c6c65720000000000000000600082015250565b60006129a5601883611ff7565b91506129b08261296f565b602082019050919050565b600060208201905081810360008301526129d481612998565b9050919050565b60006020820190506129f06000830184611fa1565b92915050565b7f4c697374696e67206973206e6f74206163746976650000000000000000000000600082015250565b6000612a2c601583611ff7565b9150612a37826129f6565b602082019050919050565b60006020820190508181036000830152612a5b81612a1f565b9050919050565b7f496e73756666696369656e74207061796d656e74000000000000000000000000600082015250565b6000612a98601483611ff7565b9150612aa382612a62565b602082019050919050565b60006020820190508181036000830152612ac781612a8b565b9050919050565b6000612ad9826124fe565b9050919050565b612ae981612ace565b82525050565b612af881611eed565b82525050565b6000606082019050612b136000830186612ae0565b612b206020830185612aef565b612b2d6040830184611fa1565b949350505050565b7f4e487b7100000000000000000000000000000000000000000000000000000000600052603260045260246000fd5b7f4e487b7100000000000000000000000000000000000000000000000000000000600052601160045260246000fd5b6000612b9e82611f2b565b91507fffffffffffffffffffffffffffffffffffffffffffffffffffffffffffffffff8203612bd057612bcf612b64565b5b600182019050919050565b600081549050919050565b600082825260208201905092915050565b60008190508160005260206000209050919050565b612c1581611f2b565b82525050565b6000612c278383612c0c565b60208301905092915050565b60008160001c9050919050565b6000819050919050565b6000612c5d612c5883612c33565b612c40565b9050919050565b6000612c708254612c4a565b9050919050565b6000600182019050919050565b6000612c8f82612bdb565b612c998185612be6565b9350612ca483612bf7565b8060005b83811015612cdc57612cb982612c64565b612cc38882612c1b565b9750612cce83612c77565b925050600181019050612ca8565b5085935050505092915050565b60008190508160005260206000209050919050565b60008154612d0b81612868565b612d158186611ff7565b94506001821660008114612d305760018114612d4657612d79565b60ff198316865281151560200286019350612d79565b612d4f85612ce9565b60005b83811015612d7157815481890152600182019150602081019050612d52565b808801955050505b50505092915050565b600060e082019050612d97600083018a612aef565b612da46020830189611fa1565b8181036040830152612db68188612c84565b90508181036060830152612dca8187612cfe565b9050612dd9608083018661208a565b612de660a08301856120a6565b81810360c0830152612df88184612cfe565b905098975050505050505050565b600081519050612e1581611eff565b92915050565b600060208284031215612e3157612e30611ec3565b5b6000612e3f84828501612e06565b91505092915050565b6000604082019050612e5d6000830185612aef565b612e6a6020830184612aef565b9392505050565b612e7a81611fd1565b8114612e8557600080fd5b50565b600081519050612e9781612e71565b92915050565b600060208284031215612eb357612eb2611ec3565b5b6000612ec184828501612e88565b91505092915050565b7f4d61726b6574706c616365206e6f7420617070726f76656420746f207472616e60008201527f736665722074686973204e465400000000000000000000000000000000000000602082015250565b6000612f26602d83611ff7565b9150612f3182612eca565b604082019050919050565b60006020820190508181036000830152612f5581612f19565b9050919050565b60006020601f8301049050919050565b600082821b905092915050565b600060088302612fa97fffffffffffffffffffffffffffffffffffffffffffffffffffffffffffffffff82612f6c565b612fb38683612f6c565b95508019841693508086168417925050509392505050565b6000612fe6612fe1612fdc84611f2b565b6124d2565b611f2b565b9050919050565b6000819050919050565b61300083612fcb565b61301461300c82612fed565b848454612f79565b825550505050565b600090565b61302961301c565b613034818484612ff7565b505050565b5b818110156130585761304d600082613021565b60018101905061303a565b5050565b601f82111561309d5761306e81612ce9565b61307784612f5c565b81016020851015613086578190505b61309a61309285612f5c565b830182613039565b50505b505050565b600082821c905092915050565b60006130c0600019846008026130a2565b1980831691505092915050565b60006130d983836130af565b9150826002028217905092915050565b6130f282611fec565b67ffffffffffffffff81111561310b5761310a6122f8565b5b6131158254612868565b61312082828561305c565b600060209050601f8311600181146131535760008415613141578287015190505b61314b85826130cd565b8655506131b3565b601f19841661316186612ce9565b60005b8281101561318957848901518255600182019150602085019450602081019050613164565b868310156131a657848901516131a2601f8916826130af565b8355505b6001600288020188555050505b505050505050565b600081519050919050565b6000819050602082019050919050565b6000602082019050919050565b60006131ee826131bb565b6131f88185612be6565b9350613203836131c6565b8060005b8381101561323457815161321b8882612c1b565b9750613226836131d6565b925050600181019050613207565b5085935050505092915050565b600060e082019050613256600083018a612aef565b6132636020830189611fa1565b818103604083015261327581886131e3565b905081810360608301526132898187612043565b9050613298608083018661208a565b6132a560a08301856120a6565b81810360c08301526132b78184612043565b905098975050505050505050565b6000815190506132d4816121eb565b92915050565b6000602082840312156132f0576132ef611ec3565b5b60006132fe848285016132c5565b91505092915050565b600060208201905061331c6000830184612aef565b92915050565b60006040820190506133376000830185612aef565b6133446020830184612244565b9392505050565b600081519050919050565b600081905092915050565b600061336c8261334b565b6133768185613356565b9350613386818560208601612008565b80840191505092915050565b600061339e8284613361565b91508190509291505056fea2646970667358221220beb567049c8fdccc0cc14323628aba1b1de837c9b23478c602ef8fea1cd4e4ad64736f6c63430008140033",
  "linkReferences": {},
  "deployedLinkReferences": {}
}