{
  "_format": "hh-sol-artifact-1",
  "contractName": "MintItem",
  "sourceName": "contracts/MintItem.sol",
  "abi": [
    {
      "inputs": [],
      "stateMutability": "nonpayable",
      "type": "constructor"
    },
    {
      "inputs": [
        {
          "internalType": "address",
          "name": "target",
          "type": "address"
        }
      ],
      "name": "AddressEmptyCode",
      "type": "error"
    },
    {
      "inputs": [],
      "name": "ECDSAInvalidSignature",
      "type": "error"
    },
    {
      "inputs": [
        {
          "internalType": "uint256",
          "name": "length",
          "type": "uint256"
        }
      ],
      "name": "ECDSAInvalidSignatureLength",
      "type": "error"
    },
    {
      "inputs": [
        {
          "internalType": "bytes32",
          "name": "s",
          "type": "bytes32"
        }
      ],
      "name": "ECDSAInvalidSignatureS",
      "type": "error"
    },
    {
      "inputs": [
        {
          "internalType": "address",
          "name": "implementation",
          "type": "address"
        }
      ],
      "name": "ERC1967InvalidImplementation",
      "type": "error"
    },
    {
      "inputs": [],
      "name": "ERC1967NonPayable",
      "type": "error"
    },
    {
      "inputs": [],
      "name": "ERC721EnumerableForbiddenBatchMint",
      "type": "error"
    },
    {
      "inputs": [
        {
          "internalType": "address",
          "name": "sender",
          "type": "address"
        },
        {
          "internalType": "uint256",
          "name": "tokenId",
          "type": "uint256"
        },
        {
          "internalType": "address",
          "name": "owner",
          "type": "address"
        }
      ],
      "name": "ERC721IncorrectOwner",
      "type": "error"
    },
    {
      "inputs": [
        {
          "internalType": "address",
          "name": "operator",
          "type": "address"
        },
        {
          "internalType": "uint256",
          "name": "tokenId",
          "type": "uint256"
        }
      ],
      "name": "ERC721InsufficientApproval",
      "type": "error"
    },
    {
      "inputs": [
        {
          "internalType": "address",
          "name": "approver",
          "type": "address"
        }
      ],
      "name": "ERC721InvalidApprover",
      "type": "error"
    },
    {
      "inputs": [
        {
          "internalType": "address",
          "name": "operator",
          "type": "address"
        }
      ],
      "name": "ERC721InvalidOperator",
      "type": "error"
    },
    {
      "inputs": [
        {
          "internalType": "address",
          "name": "owner",
          "type": "address"
        }
      ],
      "name": "ERC721InvalidOwner",
      "type": "error"
    },
    {
      "inputs": [
        {
          "internalType": "address",
          "name": "receiver",
          "type": "address"
        }
      ],
      "name": "ERC721InvalidReceiver",
      "type": "error"
    },
    {
      "inputs": [
        {
          "internalType": "address",
          "name": "sender",
          "type": "address"
        }
      ],
      "name": "ERC721InvalidSender",
      "type": "error"
    },
    {
      "inputs": [
        {
          "internalType": "uint256",
          "name": "tokenId",
          "type": "uint256"
        }
      ],
      "name": "ERC721NonexistentToken",
      "type": "error"
    },
    {
      "inputs": [
        {
          "internalType": "address",
          "name": "owner",
          "type": "address"
        },
        {
          "internalType": "uint256",
          "name": "index",
          "type": "uint256"
        }
      ],
      "name": "ERC721OutOfBoundsIndex",
      "type": "error"
    },
    {
      "inputs": [],
      "name": "FailedInnerCall",
      "type": "error"
    },
    {
      "inputs": [],
      "name": "InvalidInitialization",
      "type": "error"
    },
    {
      "inputs": [],
      "name": "NotInitializing",
      "type": "error"
    },
    {
      "inputs": [
        {
          "internalType": "address",
          "name": "owner",
          "type": "address"
        }
      ],
      "name": "OwnableInvalidOwner",
      "type": "error"
    },
    {
      "inputs": [
        {
          "internalType": "address",
          "name": "account",
          "type": "address"
        }
      ],
      "name": "OwnableUnauthorizedAccount",
      "type": "error"
    },
    {
      "inputs": [],
      "name": "ReentrancyGuardReentrantCall",
      "type": "error"
    },
    {
      "inputs": [],
      "name": "UUPSUnauthorizedCallContext",
      "type": "error"
    },
    {
      "inputs": [
        {
          "internalType": "bytes32",
          "name": "slot",
          "type": "bytes32"
        }
      ],
      "name": "UUPSUnsupportedProxiableUUID",
      "type": "error"
    },
    {
      "anonymous": false,
      "inputs": [
        {
          "indexed": true,
          "internalType": "address",
          "name": "owner",
          "type": "address"
        },
        {
          "indexed": true,
          "internalType": "address",
          "name": "approved",
          "type": "address"
        },
        {
          "indexed": true,
          "internalType": "uint256",
          "name": "tokenId",
          "type": "uint256"
        }
      ],
      "name": "Approval",
      "type": "event"
    },
    {
      "anonymous": false,
      "inputs": [
        {
          "indexed": true,
          "internalType": "address",
          "name": "owner",
          "type": "address"
        },
        {
          "indexed": true,
          "internalType": "address",
          "name": "operator",
          "type": "address"
        },
        {
          "indexed": false,
          "internalType": "bool",
          "name": "approved",
          "type": "bool"
        }
      ],
      "name": "ApprovalForAll",
      "type": "event"
    },
    {
      "anonymous": false,
      "inputs": [
        {
          "indexed": false,
          "internalType": "uint256",
          "name": "_fromTokenId",
          "type": "uint256"
        },
        {
          "indexed": false,
          "internalType": "uint256",
          "name": "_toTokenId",
          "type": "uint256"
        }
      ],
      "name": "BatchMetadataUpdate",
      "type": "event"
    },
    {
      "anonymous": false,
      "inputs": [
        {
          "indexed": true,
          "internalType": "address",
          "name": "user",
          "type": "address"
        },
        {
          "indexed": false,
          "internalType": "uint256",
          "name": "itemId",
          "type": "uint256"
        },
        {
          "indexed": false,
          "internalType": "string",
          "name": "uri",
          "type": "string"
        },
        {
          "indexed": false,
          "internalType": "uint256",
          "name": "successPercentage",
          "type": "uint256"
        },
        {
          "indexed": false,
          "internalType": "uint256",
          "name": "random",
          "type": "uint256"
        },
        {
          "indexed": false,
          "internalType": "string",
          "name": "functionName",
          "type": "string"
        }
      ],
      "name": "ForgeProcessed",
      "type": "event"
    },
    {
      "anonymous": false,
      "inputs": [
        {
          "indexed": false,
          "internalType": "uint64",
          "name": "version",
          "type": "uint64"
        }
      ],
      "name": "Initialized",
      "type": "event"
    },
    {
      "anonymous": false,
      "inputs": [
        {
          "indexed": false,
          "internalType": "uint256",
          "name": "_tokenId",
          "type": "uint256"
        }
      ],
      "name": "MetadataUpdate",
      "type": "event"
    },
    {
      "anonymous": false,
      "inputs": [
        {
          "indexed": true,
          "internalType": "address",
          "name": "previousOwner",
          "type": "address"
        },
        {
          "indexed": true,
          "internalType": "address",
          "name": "newOwner",
          "type": "address"
        }
      ],
      "name": "OwnershipTransferred",
      "type": "event"
    },
    {
      "anonymous": false,
      "inputs": [
        {
          "indexed": true,
          "internalType": "address",
          "name": "from",
          "type": "address"
        },
        {
          "indexed": true,
          "internalType": "address",
          "name": "to",
          "type": "address"
        },
        {
          "indexed": true,
          "internalType": "uint256",
          "name": "tokenId",
          "type": "uint256"
        }
      ],
      "name": "Transfer",
      "type": "event"
    },
    {
      "anonymous": false,
      "inputs": [
        {
          "indexed": true,
          "internalType": "address",
          "name": "implementation",
          "type": "address"
        }
      ],
      "name": "Upgraded",
      "type": "event"
    },
    {
      "inputs": [],
      "name": "UPGRADE_INTERFACE_VERSION",
      "outputs": [
        {
          "internalType": "string",
          "name": "",
          "type": "string"
        }
      ],
      "stateMutability": "view",
      "type": "function"
    },
    {
      "inputs": [
        {
          "internalType": "uint256",
          "name": "currentPower",
          "type": "uint256"
        }
      ],
      "name": "_adjustPower",
      "outputs": [
        {
          "internalType": "uint256",
          "name": "",
          "type": "uint256"
        }
      ],
      "stateMutability": "view",
      "type": "function"
    },
    {
      "inputs": [
        {
          "internalType": "address",
          "name": "to",
          "type": "address"
        },
        {
          "internalType": "uint256",
          "name": "tokenId",
          "type": "uint256"
        }
      ],
      "name": "approve",
      "outputs": [],
      "stateMutability": "nonpayable",
      "type": "function"
    },
    {
      "inputs": [
        {
          "internalType": "address",
          "name": "owner",
          "type": "address"
        }
      ],
      "name": "balanceOf",
      "outputs": [
        {
          "internalType": "uint256",
          "name": "",
          "type": "uint256"
        }
      ],
      "stateMutability": "view",
      "type": "function"
    },
    {
      "inputs": [
        {
          "internalType": "uint256",
          "name": "tokenId",
          "type": "uint256"
        }
      ],
      "name": "burn",
      "outputs": [],
      "stateMutability": "nonpayable",
      "type": "function"
    },
    {
      "inputs": [
        {
          "components": [
            {
              "internalType": "uint256",
              "name": "tokenId",
              "type": "uint256"
            },
            {
              "internalType": "uint16",
              "name": "itemDurability",
              "type": "uint16"
            },
            {
              "internalType": "uint256",
              "name": "rewardAmount",
              "type": "uint256"
            },
            {
              "internalType": "uint256",
              "name": "timestamp",
              "type": "uint256"
            },
            {
              "internalType": "bytes",
              "name": "signature",
              "type": "bytes"
            }
          ],
          "internalType": "struct MintItem.BurnRequest",
          "name": "params",
          "type": "tuple"
        }
      ],
      "name": "burnItemForReward",
      "outputs": [],
      "stateMutability": "nonpayable",
      "type": "function"
    },
    {
      "inputs": [
        {
          "components": [
            {
              "internalType": "uint256",
              "name": "tokenAmount",
              "type": "uint256"
            },
            {
              "internalType": "uint256[]",
              "name": "tokenIds",
              "type": "uint256[]"
            },
            {
              "internalType": "string[]",
              "name": "newOwners",
              "type": "string[]"
            },
            {
              "internalType": "uint256[]",
              "name": "itemPower",
              "type": "uint256[]"
            },
            {
              "internalType": "uint256",
              "name": "timestamp",
              "type": "uint256"
            },
            {
              "internalType": "bytes",
              "name": "signature",
              "type": "bytes"
            }
          ],
          "internalType": "struct MintItem.ChangeOwnerRequest",
          "name": "params",
          "type": "tuple"
        }
      ],
      "name": "changeItemsCharacterOwner",
      "outputs": [],
      "stateMutability": "nonpayable",
      "type": "function"
    },
    {
      "inputs": [
        {
          "internalType": "uint256[]",
          "name": "tokenIds",
          "type": "uint256[]"
        },
        {
          "internalType": "uint16",
          "name": "decrementAmount",
          "type": "uint16"
        }
      ],
      "name": "changeItemsDurability",
      "outputs": [
        {
          "internalType": "uint256[]",
          "name": "",
          "type": "uint256[]"
        }
      ],
      "stateMutability": "nonpayable",
      "type": "function"
    },
    {
      "inputs": [],
      "name": "dungeonAdventure",
      "outputs": [
        {
          "internalType": "contract DungeonAdventure",
          "name": "",
          "type": "address"
        }
      ],
      "stateMutability": "view",
      "type": "function"
    },
    {
      "inputs": [
        {
          "components": [
            {
              "internalType": "address",
              "name": "to",
              "type": "address"
            },
            {
              "internalType": "uint256",
              "name": "tokenAmount",
              "type": "uint256"
            },
            {
              "internalType": "uint256",
              "name": "itemId1",
              "type": "uint256"
            },
            {
              "internalType": "uint256",
              "name": "itemId2",
              "type": "uint256"
            },
            {
              "internalType": "uint16",
              "name": "newItemPowerRange1",
              "type": "uint16"
            },
            {
              "internalType": "uint16",
              "name": "newItemPowerRange2",
              "type": "uint16"
            },
            {
              "internalType": "string",
              "name": "desiredItemType",
              "type": "string"
            },
            {
              "internalType": "uint256",
              "name": "successPercentage",
              "type": "uint256"
            },
            {
              "internalType": "uint256",
              "name": "timestamp",
              "type": "uint256"
            },
            {
              "internalType": "bytes",
              "name": "signature",
              "type": "bytes"
            }
          ],
          "internalType": "struct MintItem.ForgeItem",
          "name": "params",
          "type": "tuple"
        }
      ],
      "name": "forgeItem",
      "outputs": [
        {
          "internalType": "uint256",
          "name": "itemId",
          "type": "uint256"
        }
      ],
      "stateMutability": "nonpayable",
      "type": "function"
    },
    {
      "inputs": [
        {
          "components": [
            {
              "internalType": "address",
              "name": "to",
              "type": "address"
            },
            {
              "internalType": "uint256",
              "name": "tokenAmount",
              "type": "uint256"
            },
            {
              "internalType": "uint256",
              "name": "itemId1",
              "type": "uint256"
            },
            {
              "internalType": "uint256",
              "name": "itemId2",
              "type": "uint256"
            },
            {
              "internalType": "uint16",
              "name": "newItemPowerRange1",
              "type": "uint16"
            },
            {
              "internalType": "uint16",
              "name": "newItemPowerRange2",
              "type": "uint16"
            },
            {
              "internalType": "string",
              "name": "desiredItemType",
              "type": "string"
            },
            {
              "internalType": "uint256",
              "name": "successPercentage",
              "type": "uint256"
            },
            {
              "internalType": "uint256",
              "name": "timestamp",
              "type": "uint256"
            },
            {
              "internalType": "bytes",
              "name": "signature",
              "type": "bytes"
            }
          ],
          "internalType": "struct MintItem.ForgeItem",
          "name": "params",
          "type": "tuple"
        }
      ],
      "name": "forgeSameValueItem",
      "outputs": [
        {
          "internalType": "uint256",
          "name": "itemId",
          "type": "uint256"
        }
      ],
      "stateMutability": "nonpayable",
      "type": "function"
    },
    {
      "inputs": [],
      "name": "gameTreasury",
      "outputs": [
        {
          "internalType": "contract GameTreasury",
          "name": "",
          "type": "address"
        }
      ],
      "stateMutability": "view",
      "type": "function"
    },
    {
      "inputs": [
        {
          "internalType": "uint256",
          "name": "tokenId",
          "type": "uint256"
        }
      ],
      "name": "getApproved",
      "outputs": [
        {
          "internalType": "address",
          "name": "",
          "type": "address"
        }
      ],
      "stateMutability": "view",
      "type": "function"
    },
    {
      "inputs": [
        {
          "internalType": "uint256",
          "name": "itemId",
          "type": "uint256"
        }
      ],
      "name": "getItemCharacterOwner",
      "outputs": [
        {
          "internalType": "string",
          "name": "",
          "type": "string"
        }
      ],
      "stateMutability": "view",
      "type": "function"
    },
    {
      "inputs": [
        {
          "internalType": "uint256",
          "name": "itemId",
          "type": "uint256"
        }
      ],
      "name": "getItemDurability",
      "outputs": [
        {
          "internalType": "uint16",
          "name": "",
          "type": "uint16"
        }
      ],
      "stateMutability": "view",
      "type": "function"
    },
    {
      "inputs": [
        {
          "internalType": "uint256",
          "name": "itemId",
          "type": "uint256"
        }
      ],
      "name": "getItemPower",
      "outputs": [
        {
          "internalType": "uint256",
          "name": "",
          "type": "uint256"
        }
      ],
      "stateMutability": "view",
      "type": "function"
    },
    {
      "inputs": [
        {
          "internalType": "uint256",
          "name": "itemId",
          "type": "uint256"
        }
      ],
      "name": "getItemType",
      "outputs": [
        {
          "internalType": "string",
          "name": "",
          "type": "string"
        }
      ],
      "stateMutability": "view",
      "type": "function"
    },
    {
      "inputs": [
        {
          "internalType": "address",
          "name": "initialOwner",
          "type": "address"
        },
        {
          "internalType": "address",
          "name": "_gameTreasuryAddress",
          "type": "address"
        },
        {
          "internalType": "address",
          "name": "_paymentToken",
          "type": "address"
        },
        {
          "internalType": "address",
          "name": "_dungeonAdventure",
          "type": "address"
        },
        {
          "internalType": "address",
          "name": "_mintBoxAddress",
          "type": "address"
        },
        {
          "internalType": "address",
          "name": "_authorizedSigner",
          "type": "address"
        }
      ],
      "name": "initialize",
      "outputs": [],
      "stateMutability": "nonpayable",
      "type": "function"
    },
    {
      "inputs": [
        {
          "internalType": "address",
          "name": "owner",
          "type": "address"
        },
        {
          "internalType": "address",
          "name": "operator",
          "type": "address"
        }
      ],
      "name": "isApprovedForAll",
      "outputs": [
        {
          "internalType": "bool",
          "name": "",
          "type": "bool"
        }
      ],
      "stateMutability": "view",
      "type": "function"
    },
    {
      "inputs": [
        {
          "internalType": "uint256",
          "name": "",
          "type": "uint256"
        }
      ],
      "name": "itemTypes",
      "outputs": [
        {
          "internalType": "string",
          "name": "",
          "type": "string"
        }
      ],
      "stateMutability": "view",
      "type": "function"
    },
    {
      "inputs": [
        {
          "internalType": "uint256",
          "name": "",
          "type": "uint256"
        }
      ],
      "name": "items",
      "outputs": [
        {
          "internalType": "string",
          "name": "itemType",
          "type": "string"
        },
        {
          "internalType": "uint256",
          "name": "power",
          "type": "uint256"
        },
        {
          "internalType": "uint16",
          "name": "durability",
          "type": "uint16"
        },
        {
          "internalType": "string",
          "name": "characterOwner",
          "type": "string"
        }
      ],
      "stateMutability": "view",
      "type": "function"
    },
    {
      "inputs": [],
      "name": "mintBoxAddress",
      "outputs": [
        {
          "internalType": "contract MintBox",
          "name": "",
          "type": "address"
        }
      ],
      "stateMutability": "view",
      "type": "function"
    },
    {
      "inputs": [
        {
          "internalType": "address",
          "name": "to",
          "type": "address"
        }
      ],
      "name": "mintItem",
      "outputs": [
        {
          "internalType": "uint256",
          "name": "",
          "type": "uint256"
        }
      ],
      "stateMutability": "nonpayable",
      "type": "function"
    },
    {
      "inputs": [],
      "name": "name",
      "outputs": [
        {
          "internalType": "string",
          "name": "",
          "type": "string"
        }
      ],
      "stateMutability": "view",
      "type": "function"
    },
    {
      "inputs": [],
      "name": "owner",
      "outputs": [
        {
          "internalType": "address",
          "name": "",
          "type": "address"
        }
      ],
      "stateMutability": "view",
      "type": "function"
    },
    {
      "inputs": [
        {
          "internalType": "uint256",
          "name": "tokenId",
          "type": "uint256"
        }
      ],
      "name": "ownerOf",
      "outputs": [
        {
          "internalType": "address",
          "name": "",
          "type": "address"
        }
      ],
      "stateMutability": "view",
      "type": "function"
    },
    {
      "inputs": [],
      "name": "paymentToken",
      "outputs": [
        {
          "internalType": "contract IERC20",
          "name": "",
          "type": "address"
        }
      ],
      "stateMutability": "view",
      "type": "function"
    },
    {
      "inputs": [],
      "name": "proxiableUUID",
      "outputs": [
        {
          "internalType": "bytes32",
          "name": "",
          "type": "bytes32"
        }
      ],
      "stateMutability": "view",
      "type": "function"
    },
    {
      "inputs": [],
      "name": "renounceOwnership",
      "outputs": [],
      "stateMutability": "nonpayable",
      "type": "function"
    },
    {
      "inputs": [
        {
          "components": [
            {
              "internalType": "uint256[]",
              "name": "tokenIds",
              "type": "uint256[]"
            },
            {
              "internalType": "uint256[]",
              "name": "itemPower",
              "type": "uint256[]"
            },
            {
              "internalType": "uint256",
              "name": "tokenAmount",
              "type": "uint256"
            },
            {
              "internalType": "uint256",
              "name": "timestamp",
              "type": "uint256"
            },
            {
              "internalType": "bytes",
              "name": "signature",
              "type": "bytes"
            }
          ],
          "internalType": "struct MintItem.RepairRequest",
          "name": "request",
          "type": "tuple"
        }
      ],
      "name": "repairItemDurability",
      "outputs": [],
      "stateMutability": "nonpayable",
      "type": "function"
    },
    {
      "inputs": [
        {
          "internalType": "address",
          "name": "to",
          "type": "address"
        },
        {
          "internalType": "string",
          "name": "uri",
          "type": "string"
        }
      ],
      "name": "safeMint",
      "outputs": [],
      "stateMutability": "nonpayable",
      "type": "function"
    },
    {
      "inputs": [
        {
          "internalType": "address",
          "name": "from",
          "type": "address"
        },
        {
          "internalType": "address",
          "name": "to",
          "type": "address"
        },
        {
          "internalType": "uint256",
          "name": "tokenId",
          "type": "uint256"
        }
      ],
      "name": "safeTransferFrom",
      "outputs": [],
      "stateMutability": "nonpayable",
      "type": "function"
    },
    {
      "inputs": [
        {
          "internalType": "address",
          "name": "from",
          "type": "address"
        },
        {
          "internalType": "address",
          "name": "to",
          "type": "address"
        },
        {
          "internalType": "uint256",
          "name": "tokenId",
          "type": "uint256"
        },
        {
          "internalType": "bytes",
          "name": "data",
          "type": "bytes"
        }
      ],
      "name": "safeTransferFrom",
      "outputs": [],
      "stateMutability": "nonpayable",
      "type": "function"
    },
    {
      "inputs": [
        {
          "internalType": "address",
          "name": "operator",
          "type": "address"
        },
        {
          "internalType": "bool",
          "name": "approved",
          "type": "bool"
        }
      ],
      "name": "setApprovalForAll",
      "outputs": [],
      "stateMutability": "nonpayable",
      "type": "function"
    },
    {
      "inputs": [
        {
          "internalType": "address",
          "name": "_authorizedSigner",
          "type": "address"
        }
      ],
      "name": "setAuthorizedSigner",
      "outputs": [],
      "stateMutability": "nonpayable",
      "type": "function"
    },
    {
      "inputs": [
        {
          "internalType": "address",
          "name": "_dungeonAdventure",
          "type": "address"
        }
      ],
      "name": "setDungeonAdventureAddress",
      "outputs": [],
      "stateMutability": "nonpayable",
      "type": "function"
    },
    {
      "inputs": [
        {
          "internalType": "address",
          "name": "_gameTreasuryAddress",
          "type": "address"
        }
      ],
      "name": "setGameTreasuryAddress",
      "outputs": [],
      "stateMutability": "nonpayable",
      "type": "function"
    },
    {
      "inputs": [
        {
          "internalType": "address",
          "name": "_mintBoxAddress",
          "type": "address"
        }
      ],
      "name": "setMintBoxAddress",
      "outputs": [],
      "stateMutability": "nonpayable",
      "type": "function"
    },
    {
      "inputs": [
        {
          "internalType": "address",
          "name": "_tokenAddress",
          "type": "address"
        }
      ],
      "name": "setPaymentToken",
      "outputs": [],
      "stateMutability": "nonpayable",
      "type": "function"
    },
    {
      "inputs": [
        {
          "internalType": "bytes4",
          "name": "interfaceId",
          "type": "bytes4"
        }
      ],
      "name": "supportsInterface",
      "outputs": [
        {
          "internalType": "bool",
          "name": "",
          "type": "bool"
        }
      ],
      "stateMutability": "view",
      "type": "function"
    },
    {
      "inputs": [],
      "name": "symbol",
      "outputs": [
        {
          "internalType": "string",
          "name": "",
          "type": "string"
        }
      ],
      "stateMutability": "view",
      "type": "function"
    },
    {
      "inputs": [
        {
          "internalType": "uint256",
          "name": "index",
          "type": "uint256"
        }
      ],
      "name": "tokenByIndex",
      "outputs": [
        {
          "internalType": "uint256",
          "name": "",
          "type": "uint256"
        }
      ],
      "stateMutability": "view",
      "type": "function"
    },
    {
      "inputs": [
        {
          "internalType": "address",
          "name": "owner",
          "type": "address"
        },
        {
          "internalType": "uint256",
          "name": "index",
          "type": "uint256"
        }
      ],
      "name": "tokenOfOwnerByIndex",
      "outputs": [
        {
          "internalType": "uint256",
          "name": "",
          "type": "uint256"
        }
      ],
      "stateMutability": "view",
      "type": "function"
    },
    {
      "inputs": [
        {
          "internalType": "uint256",
          "name": "itemIdCounter",
          "type": "uint256"
        }
      ],
      "name": "tokenURI",
      "outputs": [
        {
          "internalType": "string",
          "name": "",
          "type": "string"
        }
      ],
      "stateMutability": "view",
      "type": "function"
    },
    {
      "inputs": [],
      "name": "totalSupply",
      "outputs": [
        {
          "internalType": "uint256",
          "name": "",
          "type": "uint256"
        }
      ],
      "stateMutability": "view",
      "type": "function"
    },
    {
      "inputs": [
        {
          "internalType": "address",
          "name": "from",
          "type": "address"
        },
        {
          "internalType": "address",
          "name": "to",
          "type": "address"
        },
        {
          "internalType": "uint256",
          "name": "tokenId",
          "type": "uint256"
        }
      ],
      "name": "transferFrom",
      "outputs": [],
      "stateMutability": "nonpayable",
      "type": "function"
    },
    {
      "inputs": [
        {
          "internalType": "address",
          "name": "newOwner",
          "type": "address"
        }
      ],
      "name": "transferOwnership",
      "outputs": [],
      "stateMutability": "nonpayable",
      "type": "function"
    },
    {
      "inputs": [
        {
          "internalType": "address",
          "name": "newImplementation",
          "type": "address"
        },
        {
          "internalType": "bytes",
          "name": "data",
          "type": "bytes"
        }
      ],
      "name": "upgradeToAndCall",
      "outputs": [],
      "stateMutability": "payable",
      "type": "function"
    },
    {
      "inputs": [
        {
          "internalType": "address",
          "name": "owner",
          "type": "address"
        }
      ],
      "name": "viewOwnedItems",
      "outputs": [
        {
          "components": [
            {
              "internalType": "uint256",
              "name": "id",
              "type": "uint256"
            },
            {
              "components": [
                {
                  "internalType": "string",
                  "name": "itemType",
                  "type": "string"
                },
                {
                  "internalType": "uint256",
                  "name": "power",
                  "type": "uint256"
                },
                {
                  "internalType": "uint16",
                  "name": "durability",
                  "type": "uint16"
                },
                {
                  "internalType": "string",
                  "name": "characterOwner",
                  "type": "string"
                }
              ],
              "internalType": "struct MintItem.Item",
              "name": "item",
              "type": "tuple"
            }
          ],
          "internalType": "struct MintItem.ItemDetails[]",
          "name": "",
          "type": "tuple[]"
        }
      ],
      "stateMutability": "view",
      "type": "function"
    }
  ],
  "bytecode": "0x60a08060405234620000d157306080527ff0c57e16840df040f15088dc2f81fe391c3923bec73e23a9662efc9c229c6a009081549060ff8260401c16620000c257506001600160401b036002600160401b0319828216016200007c575b6040516158c19081620000d782396080518181816125f801526127030152f35b6001600160401b031990911681179091556040519081527fc7f505b2f371ae2175ee4913f4499e1f2633a7b5936321eed1cdaeb6115181d290602090a13880806200005c565b63f92ee8a960e01b8152600490fd5b600080fdfe60e080604052600436101561001357600080fd5b600090813560e01c90816301ffc9a7146133f95750806306fdde0314613344578063081812fc146132fa578063095ea7b31461321757806318160ddd146131ec57806323b872dd146131d45780632f2e22b7146131b55780632f745c591461318d5780633013ce291461316457806331f84d3d146131245780633604c9fb14612ea857806338595b3714612c1557806342842e0e14612be757806342966c68146128be5780634f1ef286146126c55780634f6ccce71461266257806352d1902d146125e55780635df1c702146125b75780636352211e14612586578063691c65d4146122195780636a326ab1146121d957806370a08231146121ad578063715018a6146121435780637f08d6e2146120765780638d99ba4d1461204d5780638da5cb5b1461201757806395d89b4114611f34578063980829a514611ef45780639acf878c14611ea6578063a1365bf114611e66578063a22cb46514611dc6578063a66f684214611d7b578063ad3cb1cc14611d35578063b88d4fde14611cdb578063ba3b7b0e14611952578063bfb231d2146118da578063c19a4ef5146118af578063c87b56dd14611877578063cc2a9a5b14610fa1578063ccb91f7814610cc8578063d0c2cdbf14610a2a578063d204c45e146109b1578063d279b0ca14610971578063d2f9efab14610948578063df352ad81461091f578063e985e9c5146108d0578063ea395c12146102be578063f2fde38b146102915763fb9989991461023c57600080fd5b3461028e57602036600319011261028e5761ffff60406102838160209460043561027760018060a01b0361026f83613cb6565b161515614fe6565b81526007865220614c4d565b015116604051908152f35b80fd5b503461028e57602036600319011261028e576102bb6102ae6134e2565b6102b661383d565b613876565b80f35b503461028e576003196020368201126108cc576001600160401b03600435116108cc5760c0906004353603011261028e576102f7614899565b61030b602460043501600435600401614e39565b61031f604460043501600435600401614e39565b9190610335606460043501600435600401614e39565b9161035c60405196879560043560040135602088015260a0604088015260c0870191614e6e565b94601f19858703016060860152808652602086019060208160051b88010196838a915b83831061083957888a03601f190160808a01528b896103bd816103a38e8d8d614e6e565b6084600435013560a083015203601f1981018352826135af565b602081519101207f19457468657265756d205369676e6564204d6573736167653a0a3332000000008252601c5261043a61042461041b603c842061041561040e60a4600435016004356004016145c9565b3691613634565b90614ce8565b90929192614db4565b6006546001600160a01b03918216911614614c91565b6004356084013561012c81019081106108255742111580610815575b156107bd5761046f602460043501600435600401614e39565b9050610485604460043501600435600401614e39565b9190501480610784575b61049890614e92565b6005546002546040516323b872dd60e01b8152336004808301919091526001600160a01b03928316602483015280350135604482015291602091839160649183918791165af18015610779576104f591839161074a575b50614556565b805b61050b602460043501600435600401614e39565b9050811015610734576105328161052c602460043501600435600401614e39565b90614edd565b35336001600160a01b0361054583613cb6565b16036106dd5780835260076020526040832061057e60018201546105778561052c606460043501600435600401614e39565b3514614eed565b610592604460043501600435600401614e39565b8410156106c9576105a9908460051b8101906145c9565b906001600160401b0382116106b5576105d2826105c9600386015461372c565b60038601613f50565b8590601f8311600114610641578261063196959361062c95936003938a92610636575b50508160011b9160001990841b1c1916179101555b808552600760205261062661062160408720614c4d565b6154c1565b90614357565b613fcb565b6104f7565b0135905089806105f5565b6003840187526020872091875b601f198516811061069d57508361062c95936003936001936106319a9997601f19811610610685575b505050811b0191015561060a565b013560001983861b60f8161c19169055898080610677565b8282013584556001909301926020918201910161064e565b634e487b7160e01b86526041600452602486fd5b634e487b7160e01b85526032600452602485fd5b60405162461bcd60e51b815260206004820152602960248201527f596f75206d757374206f776e20746865206974656d20746f206368616e67652060448201526834ba399037bbb732b960b91b6064820152608490fd5b50600160008051602061582c8339815191525580f35b61076c915060203d602011610772575b61076481836135af565b81019061453e565b836104ef565b503d61075a565b6040513d84823e3d90fd5b5061049861079c602460043501600435600401614e39565b90506107b2606460043501600435600401614e39565b91905014905061048f565b60405162461bcd60e51b815260206004820152602a60248201527f4368616e6765206f776e657220726571756573742074696d657374616d702069604482015269399034b73b30b634b21760b11b6064820152608490fd5b5060846004350135421015610456565b634e487b7160e01b82526011600452602482fd5b919395969750919397601f19828203018652601e1983360301893512156108c8576001600160401b03838a350135116108c8578a893584018035360360209091011361028e57602080600193819382888f81813501358552818135013583838335010184870137350135830101528c601f88811992350135011601019a0196019301909189979695949261037f565b8a80fd5b5080fd5b503461028e57604036600319011261028e576108ea6134e2565b6108fb6108f56134fd565b916138ea565b9060018060a01b0316600052602052602060ff604060002054166040519015158152f35b503461028e578060031936011261028e576004546040516001600160a01b039091168152602090f35b503461028e578060031936011261028e576002546040516001600160a01b039091168152602090f35b503461028e57602036600319011261028e5761098b6134e2565b61099361383d565b60018060a01b03166001600160601b0360a01b600654161760065580f35b503461028e57604036600319011261028e576109cb6134e2565b602435906001600160401b038211610a265736602383011215610a26576109ff6102bb923690602481600401359101613634565b90610a0861383d565b610a216001548092610a1982613fcb565b600155614018565b614357565b8280fd5b503461028e57610ad390610a3d366135e7565b90610a46614899565b604082013591610a5583613cb6565b6001600160a01b039390610a6c90851633146144a8565b606082013593610a873382610a8088613cb6565b16146144f3565b6005546002546040516323b872dd60e01b81523360048201529083166001600160a01b031660248201526020858101356044830152979092889284929116908290889082906064820190565b03925af1908115610cbd577fafa5275bea999d15a220530047998517c426e03523a7cb0589fdee23b9a40440939291610b12918691610ca05750614556565b612710610b1e82615140565b60408051898101928352426020840152449183019190915233606090811b6001600160601b0319169083015260748201889052610b6881609484015b03601f1981018352826135af565b519020069460e0830135948786881115610c3b57610bce84610bc9610bf89795610bc4866007610bd497610bea9b610bf29a52526040812090838152600180604083209301549201549050808210600014610c33575093614657565b614657565b6148c9565b90615460565b91610be260c08201826145c9565b9490916145fb565b933691613634565b906149c2565b92610c0284614f96565b92610c156040519283923396888561460f565b0390a25b600160008051602061582c83398151915255604051908152f35b905093614657565b505091610c51610c7b93610bc4610bea94614657565b610bf2610bd4610c63608084016145ba565b61ffff80610c7360a087016145ba565b169116615460565b92610c8584614f96565b92610c986040519283923396888561460f565b0390a2610c19565b610cb79150883d8a116107725761076481836135af565b386104ef565b6040513d86823e3d90fd5b503461028e57610cd73661380c565b90813591610ce483613cb6565b6001600160a01b03903390821603610f5257838352600760205261ffff90816040610d10818720614c4d565b0151166020840192610d21846145ba565b1603610ef25760608301359261012c8401808511610ede5742111580610ed4575b15610e8457610d556040820135936145ba565b93604051946020860191858352604087015287606087015261ffff60f01b9060f01b1660808601526062855260a08501946001600160401b039581811087821117610e705761041b610dfb94899a94610bc494610ded946040525190207f19457468657265756d205369676e6564204d6573736167653a0a3332000000008b52601c5261041561040e603c8c209260808101906145c9565b848060065416911614614c91565b6002541690813b15610e6b5760405163bec3fa1760e01b8152336004820152602481019190915292908390604490829084905af18015610e6057610e3d578280f35b8111610e4c5760405238808280f35b634e487b7160e01b82526041600452602482fd5b6040513d85823e3d90fd5b505050fd5b634e487b7160e01b88526041600452602488fd5b60405162461bcd60e51b815260206004820152602260248201527f4275726e20726571756573742074696d657374616d7020697320696e76616c69604482015261321760f11b6064820152608490fd5b5083421015610d42565b634e487b7160e01b86526011600452602486fd5b60405162461bcd60e51b815260206004820152603260248201527f4974656d206475726162696c69747920646f6573206e6f74206d617463682074604482015271343290383937bb34b232b2103b30b63ab29760711b6064820152608490fd5b60405162461bcd60e51b815260206004820152602160248201527f596f75206d757374206f776e20746865206974656d20746f206275726e2069746044820152601760f91b6064820152608490fd5b503461028e5760c036600319011261028e57610fbb6134e2565b610fc36134fd565b906044356001600160a01b038116810361187357606435906001600160a01b038216820361186f57608435936001600160a01b038516850361186b5760a4356001600160a01b0381168103611867577ff0c57e16840df040f15088dc2f81fe391c3923bec73e23a9662efc9c229c6a00958654956001600160401b03871680159081611857575b600114908161184d575b159081611844575b50611832576110929060016001600160401b0319891617895560ff8860401c1615611813575b61108a613f8a565b6102b6613f8a565b61109a613f16565b6110a2613f16565b906110ab613f8a565b6110b3613f8a565b8051906001600160401b0382116117ff5781908b6110df60008051602061576c8339815191525461372c565b601f81116117a4575b5050602090601f8311600114611702578c926116f7575b50508160011b916000199060031b1c19161760008051602061576c833981519152555b8051906001600160401b03821161151357819061114d60008051602061586c8339815191525461372c565b601f8111611691575b50602090601f83116001146115ef578b926115e4575b50508160011b916000199060031b1c19161760008051602061586c833981519152555b611197613f8a565b61119f613f8a565b6111a7613f8a565b6111af613f8a565b6111b7613f8a565b600160008051602061582c83398151915255600280546001600160a01b03199081166001600160a01b039586161790915560058054821695851695909517855560038054821696851696909617865560048054821692851692909217909155600680549091169190921617905560405161014081016001600160401b038111828210176115d0578060405261124b81613579565b60048152631219585960e21b610160830152815260405161126b81613579565b8281526415dc9a5cdd60da1b6020820152602082015260405161128d81613579565b82815264546f72736f60d81b602082015260408201526040516112af81613579565b60048152634c65677360e01b602082015260608201526040516112d181613579565b8281526448616e647360d81b602082015260808201526040516112f381613579565b8281526415d85a5cdd60da1b602082015260a082015260405161131581613579565b60048152631199595d60e21b602082015260c082015260405161133781613579565b60068152652bb2b0b837b760d11b602082015260e082015260405161135b81613579565b600481526352696e6760e01b602082015261010082015260405161137e81613579565b6006815265105b5d5b195d60d21b6020820152610120820152855491600a92838855808410611527575b50508580527f290decd9548b62a8d60345a988386fc84ba6bc95484008f6362f93160ef3e56386915b83831061143a57878760ff8860015415611431575b60401c16156113f3575080f35b68ff00000000000000001981541690557fc7f505b2f371ae2175ee4913f4499e1f2633a7b5936321eed1cdaeb6115181d2602060405160018152a180f35b600180556113e6565b80518051906001600160401b038211611513576114618261145b865461372c565b86613f50565b6020908a601f84116001146114aa5792806020936001969387969261149f575b5050600019828b1b1c191690841b1785555b019201920191906113d1565b015190503880611481565b50848b52818b209190601f1984168c5b8181106114fb57509360209360019693879693838895106114e3575b505050811b018555611493565b0151600019838d1b60f8161c191690553880806114d6565b929360206001819287860151815501950193016114ba565b634e487b7160e01b8a52604160045260248afd5b8780527f290decd9548b62a8d60345a988386fc84ba6bc95484008f6362f93160ef3e56301907f290decd9548b62a8d60345a988386fc84ba6bc95484008f6362f93160ef3e56d5b82811061157c57506113a8565b808961158a6001935461372c565b80611598575b50500161156f565b601f811184146115ad575081555b8938611590565b8282526115c7601f602084209201861c8201858301613f39565b818355556115a6565b634e487b7160e01b87526041600452602487fd5b01519050388061116c565b925060008051602061586c8339815191528b527ff4bad0a69248f59680a4f2b3000328cec71a413447c96781cfe5996daa8c456e908b935b601f1984168510611676576001945083601f1981161061165d575b505050811b0160008051602061586c8339815191525561118f565b015160001960f88460031b161c19169055388080611642565b81810151835560209485019460019093019290910190611627565b6116e79060008051602061586c8339815191528d527ff4bad0a69248f59680a4f2b3000328cec71a413447c96781cfe5996daa8c456e601f850160051c810191602086106116ed575b601f0160051c0190613f39565b38611156565b90915081906116da565b0151905038806110ff565b925060008051602061576c8339815191528c527f37c58c799b6609234b945e882912ee9ad34948a1dfaa20a97485e1a7752bbf81908c935b601f1984168510611789576001945083601f19811610611770575b505050811b0160008051602061576c83398151915255611122565b015160001960f88460031b161c19169055388080611755565b8181015183556020948501946001909301929091019061173a565b60008051602061576c8339815191526117f892527f37c58c799b6609234b945e882912ee9ad34948a1dfaa20a97485e1a7752bbf81601f850160051c810191602086106116ed57601f0160051c0190613f39565b8b386110e8565b634e487b7160e01b8b52604160045260248bfd5b68ffffffffffffffffff19881668010000000000000001178955611082565b60405163f92ee8a960e01b8152600490fd5b9050153861105c565b303b159150611054565b604089901c60ff1615915061104a565b8680fd5b8580fd5b8480fd5b8380fd5b503461028e57602036600319011261028e576118ab611897600435614f96565b6040519182916020835260208301906134bd565b0390f35b503461028e57602036600319011261028e5761189760406118ab926004358152600760205220613766565b503461028e57602036600319011261028e57604061193a9160043581526007602052206118ab61190982613766565b91600181015490611925600361ffff6002840154169201613766565b906040519586956080875260808701906134bd565b926020860152604085015283820360608501526134bd565b503461028e576119613661380c565b9061196a614899565b611a2d60408301359160608401356119828580614e39565b91856020926119e46119d8858b019661199b888d614e39565b6119c46040949294519687948b8601998a528a60408701526080606087015260a0860191614e6e565b90601f199485858403016080860152614e6e565b039081018352826135af565b5190207f19457468657265756d205369676e6564204d6573736167653a0a3332000000008552601c52611a24603c852061041561040e60808b018b6145c9565b90969196614db4565b6006546001600160a01b0395611a4891871690871614614c91565b611a6a611a558880614e39565b9050611a61858a614e39565b91905014614e92565b61012c8101808211611cc7574211159081611cbc575b5015611c6c57825b611a928780614e39565b9050811015611bda57611aa98161052c8980614e39565b353386611ab583613cb6565b1603611b8a57808552600780845260408620600181018a611ae7611adf8761052c8b865495614e39565b358214614eed565b606480821115611b3d57509161ffff6002611b1661062c9694611b0e611b389a99976156dc565b8091556153af565b9201911661ffff19825416179055818852855261062661062160408920614c4d565b611a88565b87601760f91b6084926040519262461bcd60e51b84526004840152602160248401527f4974656d20706f77657220697320746f6f206c6f7720666f72207265706169726044840152820152fd5b60405162461bcd60e51b815260048101849052602260248201527f596f75206d757374206f776e20746865206974656d20746f20726570616972206044820152611a5d60f21b6064820152608490fd5b6005546002546040516323b872dd60e01b81523360048201529087166001600160a01b03166024820152604481018890528591849190829082908a168186816064810103925af1908115610e6057611c3a928492611c4f575b5050614556565b600160008051602061582c8339815191525580f35b611c659250803d106107725761076481836135af565b8380611c33565b6084906040519062461bcd60e51b825260048201526024808201527f52657061697220726571756573742074696d657374616d7020697320696e76616044820152633634b21760e11b6064820152fd5b905042101538611a80565b634e487b7160e01b85526011600452602485fd5b503461028e57608036600319011261028e57611cf56134e2565b611cfd6134fd565b90604435606435926001600160401b03841161186f57611d246102bb94369060040161366b565b92611d30838383613991565b613d2e565b503461028e578060031936011261028e576118ab604051611d5581613579565b60058152640352e302e360dc1b60208201526040519182916020835260208301906134bd565b503461028e57602036600319011261028e576020908190611dbc90604090600435611db06001600160a01b0361026f83613cb6565b81526007845220614c4d565b0151604051908152f35b503461028e57604036600319011261028e57611de06134e2565b60243590811515809203610a26576001600160a01b0316908115611e4d57611e07336138ea565b8284526020526040832060ff1981541660ff83161790556040519081527f17307eab39ab6107e8899845ad3d59bd9653f200f220920489ca2b5937696c3160203392a380f35b604051630b61174360e31b815260048101839052602490fd5b503461028e57602036600319011261028e57611e806134e2565b611e8861383d565b60018060a01b03166001600160601b0360a01b600254161760025580f35b503461028e57602036600319011261028e5760043581548110156108cc57611ecd906136e2565b919091611ee0576118ab61189783613766565b634e487b7160e01b81526004819052602490fd5b503461028e57602036600319011261028e57611f0e6134e2565b611f1661383d565b60018060a01b03166001600160601b0360a01b600454161760045580f35b503461028e578060031936011261028e57604051908060008051602061586c83398151915290815490611f668261372c565b80865292600192808416908115611fea5750600114611f90575b6118ab86611897818803826135af565b815292507ff4bad0a69248f59680a4f2b3000328cec71a413447c96781cfe5996daa8c456e5b828410611fd2575050508101602001611897826118ab38611f80565b80546020858701810191909152909301928101611fb6565b90508695506118ab9693506020925061189794915060ff191682840152151560051b820101929338611f80565b503461028e578060031936011261028e5760008051602061578c833981519152546040516001600160a01b039091168152602090f35b503461028e578060031936011261028e576003546040516001600160a01b039091168152602090f35b503461028e576020806003193601126108cc579061209a6120956134e2565b615032565b60405191838301848452825180915260408401948060408360051b870101940192955b8287106120ca5785850386f35b909192938280612133600193603f19808b8303018752838a518051845201519160408582015260a0835161210a60809182604086015260c08501906134bd565b9487810151916060928386015261ffff60408301511690850152015192828503019101526134bd565b96019201960195929190926120bd565b503461028e578060031936011261028e5761215c61383d565b60008051602061578c83398151915280546001600160a01b0319811690915581906001600160a01b03167f8be0079c531659141344cd1fd0a4f28419497f9722a3daafe3b4186f6b6457e08280a380f35b503461028e57602036600319011261028e5760206121d16121cc6134e2565b61395c565b604051908152f35b503461028e57602036600319011261028e576121f36134e2565b6121fb61383d565b60018060a01b03166001600160601b0360a01b600554161760055580f35b503461028e5760a06020815260206003193601126108cc576122396134e2565b6004549092906001600160a01b0316330361252d57600160c05260015492612265608094808652613fcb565b60c051556122738451615196565b61227d8551615140565b906122f06122ea6122e560405194856122c68a518201928c5190339042908692909160749492845260208401526001600160601b03199060601b16604083015260548201520190565b03956122da601f19978881018352826135af565b51902087549061459a565b6136e2565b50613766565b916122fa826153af565b6040519361230785613548565b845286518401928352604084019361ffff8092168552612325613ff0565b9460608201958652895188526007895152604088209151928351956001600160401b03968781116117ff576123648161235e875461372c565b87613f50565b8b51808c601f84116001146124bf5760039890929150836124b4575b50508160011b9160001990881b1c19161784555b5160c0518401556002830191511661ffff1982541617905501925180519283116106b5576123c68361145b865461372c565b8651918290601f851160011461243d5750506124209461062194846040958995612411956124279b92612432575b50508160011b916000199060031b1c19161790555b885190614018565b86518152600786515220614c4d565b8351614357565b604051915182525190f35b0151905038806123f4565b849391941691858852818820928860c051965b82821061249d575050948461241194612420999461062199946124279c9860409a10612484575b505050811b019055612409565b015160001960f88460031b161c19169055388080612477565b808886978294978701518155019601940190612450565b015190503880612380565b919093949596978984168984528284209360c051965b828210612516575050908460039a9998979695949392106124fe575b505050811b018455612394565b0151600019838a1b60f8161c191690553880806124f1565b8088869782949787015181550196019401906124d5565b60405162461bcd60e51b815282516004820152602b60248201527f4f6e6c7920746865204d696e74426f7820636f6e74726163742063616e206d6960448201526a6e7420746865206974656d60a81b6064820152608490fd5b503461028e57602036600319011261028e5760206125a5600435613cb6565b6040516001600160a01b039091168152f35b503461028e57602036600319011261028e57611897600360406118ab93600435815260076020522001613766565b503461028e578060031936011261028e577f00000000000000000000000000000000000000000000000000000000000000006001600160a01b031630036126505760206040517f360894a13ba1a3210667c828492db98dca3e2076cc3735a920a3ca505d382bbc8152f35b60405163703e46dd60e11b8152600490fd5b503461028e57602036600319011261028e57600435906000805160206157cc833981519152548210156126a857602061269a83613689565b90546040519160031b1c8152f35b6044916040519163295f44f760e21b835260048301526024820152fd5b50604036600319011261028e576126da6134e2565b6024356001600160401b038111610a26576126f990369060040161366b565b6001600160a01b037f00000000000000000000000000000000000000000000000000000000000000008116308114908115612890575b506126505761273c61383d565b8216916040516352d1902d60e01b8152602081600481875afa85918161285d575b5061277b57604051634c9c8ce360e01b815260048101859052602490fd5b9284937f360894a13ba1a3210667c828492db98dca3e2076cc3735a920a3ca505d382bbc908181036128455750823b1561282c5780546001600160a01b0319168217905560405184917fbc7cd75a20ee27fd9adebab32041f755214dbc6bffa90cc0225b39da2e5c2d3b8380a283511561281057508083602061280c95519101845af4612806613cfe565b91613eb3565b5080f35b925050503461281d575080f35b63b398979f60e01b8152600490fd5b604051634c9c8ce360e01b815260048101839052602490fd5b60249060405190632a87526960e21b82526004820152fd5b9091506020813d8211612888575b81612878602093836135af565b8101031261186b5751903861275d565b3d915061286b565b9050817f360894a13ba1a3210667c828492db98dca3e2076cc3735a920a3ca505d382bbc541614153861272f565b503461028e576020806003193601126108cc5760043580835260008051602061580c83398151915280835260408420549192916001600160a01b0390811691903315159081612b3a575b5050811580159182612b1b575b85875284526040862080546001600160a01b03191690558486846000805160206157ec8339815191528280a415612a685750506000805160206157cc8339815191528054908385526000805160206157ac8339815191528352816040862055600160401b821015612a545761299482859260016129ad95019055613689565b90919082549060031b91821b91600019901b1916179055565b6000805160206157cc83398151915291825460001992838201918211610ede578286526000805160206157ac833981519152908181526129f1604088205493613689565b90549060031b1c612a058161299486613689565b8752526040852055835282604081205581548015612a40570190612a3c612a2b83613689565b8154906000199060031b1b19169055565b5580f35b634e487b7160e01b84526031600452602484fd5b634e487b7160e01b85526041600452602485fd5b612a73575b506129ad565b612a7c8161395c565b9083855260008051602061572c833981519152808452604086205490838203612ad3575b5050838552846040812055845260008051602061574c833981519152825260408420908452815282604081205538612a6d565b82875260008051602061574c83398151915280865260408820858952865260408820549084895286526040882083895286528060408920558752845260408620553880612aa0565b612b2486613c8a565b612b2d84613923565b8054600019019055612915565b81612b8b575b5015612b4d573880612908565b8382612b6b5760249060405190637e27328960e01b82526004820152fd5b60405163177e802f60e01b81523360048201526024810191909152604490fd5b33841491508115612bc9575b8115612ba5575b5038612b40565b85875260008051602061584c83398151915285526040872054163314905038612b9e565b9050612bd4836138ea565b338752845260ff60408720541690612b97565b503461028e576102bb612bf936613513565b9060405192612c0784613594565b858452611d30838383613991565b503461028e57612c6a90612c28366135e7565b90612c31614899565b604082013591612c4083613cb6565b6001600160a01b0390612c5690821633146144a8565b606082013590610a873382610a8085613cb6565b03925af1908115610cbd5790612c86918591612e915750614556565b8383526007855260408320938184526001806040862096015495612cb6612cac886148c9565b93909201546148c9565b91149182612e87575b505015612e1c57612d1f612710612cd583615140565b604080518a8101928352426020840152449183019190915233606090811b6001600160601b0319169083015260748201869052612d158160948401610b5a565b51902006956148c9565b92909160e085013595868810600014612d925750610bd4612d7594610bea94612d707fafa5275bea999d15a220530047998517c426e03523a7cb0589fdee23b9a404409895610bc4610bf296614657565b615460565b92612d7f84614f96565b92610c1560405192839233968885614c05565b91610bc4612d9f92614657565b60648201809211612e085760648301809311612e0857507fafa5275bea999d15a220530047998517c426e03523a7cb0589fdee23b9a4044092610bf2610bd4612deb94610bea94615460565b92612df584614f96565b92610c9860405192839233968885614c05565b634e487b7160e01b81526011600452602490fd5b60405162461bcd60e51b815260048101879052603c60248201527f506f77657273206f66206974656d732073686f756c6420626520696e2074686560448201527f2073616d652072616e676520617265206e6f74207468652073616d65000000006064820152608490fd5b1490503880612cbf565b610cb79150873d89116107725761076481836135af565b503461028e57604036600319011261028e576004356001600160401b0381116108cc57366023820112156108cc57806004013591612ee5836135d0565b91612ef360405193846135af565b8383526020908184016024809660051b8301019136831161186f5786849101915b838310613114575050505083359361ffff9283861680960361028e576003546001600160a01b031633036130bc57612f4c8551614f50565b93819382945b875186101561303b57612f658689614f82565b518085526007808452604086206002810190868d8354908282161160001461302857505081548d8882160388811161301557889260649284600193169061ffff19161785555b015411159182613009575b505015612feb5750612fe59181612fcf612fdf93614657565b612fd9828b614f82565b52613fcb565b95613fcb565b94612f52565b8161062c91612fe59499938852855261062661062160408920614c4d565b54161590508538612fb6565b634e487b7160e01b8a5260116004528a8afd5b61ffff1916835590606490600190612fab565b9086849261304881614f50565b91845b8281106130965750505060405192828493840190808552835180925280604086019401925b82811061307f57505050500390f35b835185528695509381019392810192600101613070565b806130a86130b3928498969798614f82565b51612fd98288614f82565b9493929461304b565b60405162461bcd60e51b815260048101849052602b818401527f43616c6c6572206973206e6f74207468652044756e67656f6e416476656e747560448201526a1c994818dbdb9d1c9858dd60aa1b6064820152608490fd5b8235815291810191849101612f14565b503461028e57602036600319011261028e5761313e6134e2565b61314661383d565b60018060a01b03166001600160601b0360a01b600354161760035580f35b503461028e578060031936011261028e576005546040516001600160a01b039091168152602090f35b503461028e57604036600319011261028e5760206121d16131ac6134e2565b60243590613e46565b503461028e57602036600319011261028e5760206121d16004356156dc565b503461028e576102bb6131e636613513565b91613991565b503461028e578060031936011261028e5760206000805160206157cc83398151915254604051908152f35b503461028e57604036600319011261028e576132316134e2565b60243561323d81613cb6565b331515806132e7575b806132c9575b6132b1576001600160a01b039283169282918491167f8c5be1e5ebec7d5bd14f71427d1e84f3dd0314c0f7b2291e5b200ac8c7c3b9258680a4825260008051602061584c8339815191526020526040822080546001600160a01b031916909117905580f35b60405163a9fbf51f60e01b8152336004820152602490fd5b506132d3816138ea565b33855260205260ff6040852054161561324c565b506001600160a01b038116331415613246565b503461028e57602036600319011261028e5760209060043561331b81613cb6565b50815260008051602061584c8339815191528252604060018060a01b0391205416604051908152f35b503461028e578060031936011261028e57604051908060008051602061576c833981519152908154906133768261372c565b80865292600192808416908115611fea575060011461339f576118ab86611897818803826135af565b815292507f37c58c799b6609234b945e882912ee9ad34948a1dfaa20a97485e1a7752bbf815b8284106133e1575050508101602001611897826118ab38611f80565b805460208587018101919091529093019281016133c5565b9050346108cc5760203660031901126108cc5760043563ffffffff60e01b8116809103610a265760209250632483248360e11b811490811561343d575b5015158152f35b63780e9d6360e01b811491508115613457575b5038613436565b6380ac58cd60e01b811491508115613489575b8115613478575b5038613450565b6301ffc9a760e01b14905038613471565b635b5e139f60e01b8114915061346a565b60005b8381106134ad5750506000910152565b818101518382015260200161349d565b906020916134d68151809281855285808601910161349a565b601f01601f1916010190565b600435906001600160a01b03821682036134f857565b600080fd5b602435906001600160a01b03821682036134f857565b60609060031901126134f8576001600160a01b039060043582811681036134f8579160243590811681036134f8579060443590565b608081019081106001600160401b0382111761356357604052565b634e487b7160e01b600052604160045260246000fd5b604081019081106001600160401b0382111761356357604052565b602081019081106001600160401b0382111761356357604052565b90601f801991011681019081106001600160401b0382111761356357604052565b6001600160401b0381116135635760051b60200190565b600319906020818301126134f857600435916001600160401b0383116134f85782610140920301126134f85760040190565b6001600160401b03811161356357601f01601f191660200190565b92919261364082613619565b9161364e60405193846135af565b8294818452818301116134f8578281602093846000960137010152565b9080601f830112156134f85781602061368693359101613634565b90565b6000805160206157cc83398151915280548210156136cc576000527fa42f15e5d656f8155fd7419d740a6073999f19cd6e061449ce4a257150545bf20190600090565b634e487b7160e01b600052603260045260246000fd5b906000918254811015613718578280527f290decd9548b62a8d60345a988386fc84ba6bc95484008f6362f93160ef3e563019190565b634e487b7160e01b83526032600452602483fd5b90600182811c9216801561375c575b602083101461374657565b634e487b7160e01b600052602260045260246000fd5b91607f169161373b565b906040519182600082549261377a8461372c565b9081845260019485811690816000146137e957506001146137a6575b50506137a4925003836135af565b565b9093915060005260209081600020936000915b8183106137d15750506137a493508201013880613796565b855488840185015294850194879450918301916137b9565b9150506137a494506020925060ff191682840152151560051b8201013880613796565b600319906020818301126134f857600435916001600160401b0383116134f8578260a0920301126134f85760040190565b60008051602061578c833981519152546001600160a01b0316330361385e57565b60405163118cdaa760e01b8152336004820152602490fd5b6001600160a01b039081169081156138d15760008051602061578c83398151915280546001600160a01b031981168417909155167f8be0079c531659141344cd1fd0a4f28419497f9722a3daafe3b4186f6b6457e0600080a3565b604051631e4fbdf760e01b815260006004820152602490fd5b6001600160a01b031660009081527f80bb2b638cc20bc4d0a60d66940f3ab4a00c1d7b313497ca82fb0b4ab00793056020526040902090565b6001600160a01b031660009081527f80bb2b638cc20bc4d0a60d66940f3ab4a00c1d7b313497ca82fb0b4ab00793036020526040902090565b6001600160a01b038116156139785761397490613923565b5490565b6040516322718ad960e21b815260006004820152602490fd5b90916001600160a01b03808416928315613c715760009383855260008051602061580c8339815191529460208681526040978589842054169733151580613bd7575b508815908115613bb8575b6139e783613923565b80546001019055888552835289842080546001600160a01b0319168617905587858a6000805160206157ec8339815191528780a415613b13576000805160206157cc8339815191528054908885526000805160206157ac8339815191528452818b862055600160401b821015612a5457612994828a926001613a6b95019055613689565b838803613aa7575b505050501692838303613a865750505050565b6064945051926364283d7b60e01b8452600484015260248301526044820152fd5b613ab09061395c565b600019810193908411613aff57829160008051602061572c833981519152918a945260008051602061574c83398151915281528383208584528152878484205587835252205538808080613a73565b634e487b7160e01b83526011600452602483fd5b878414613a6b57613b238861395c565b87845260008051602061572c8339815191528084528a85205490828203613b75575b5050878452838a81205588845260008051602061574c833981519152835289842090845282528289812055613a6b565b8a865260008051602061574c8339815191528086528c872084885286528c872054908c885286528c87208388528652808d882055865284528a8520553880613b45565b613bc189613c8a565b613bca8a613923565b80546000190190556139de565b80613c24575b15613be857386139d3565b89888a613c05576024915190637e27328960e01b82526004820152fd5b905163177e802f60e01b81523360048201526024810191909152604490fd5b503389148015613c56575b80613bdd575087845260008051602061584c833981519152835233878b8620541614613bdd565b50613c60896138ea565b338552835260ff8a85205416613c2f565b604051633250574960e11b815260006004820152602490fd5b60005260008051602061584c83398151915260205260406000206001600160601b0360a01b8154169055565b600081815260008051602061580c83398151915260205260409020546001600160a01b0316908115613ce6575090565b60249060405190637e27328960e01b82526004820152fd5b3d15613d29573d90613d0f82613619565b91613d1d60405193846135af565b82523d6000602084013e565b606090565b9190803b613d3d575b50505050565b613d7f60018060a01b0380921694604051938493630a85bd0160e11b9687865233600487015216602485015260448401526080606484015260848301906134bd565b03906020816000938185885af190829082613dfe575b5050613dcd5782613da4613cfe565b8051919082613dc657604051633250574960e11b815260048101839052602490fd5b9050602001fd5b6001600160e01b03191603613de6575038808080613d37565b60249060405190633250574960e11b82526004820152fd5b909192506020813d8211613e3e575b81613e1a602093836135af565b810103126108cc5751906001600160e01b03198216820361028e5750903880613d95565b3d9150613e0d565b613e4f8161395c565b821015613e885760018060a01b031660005260008051602061574c83398151915260205260406000209060005260205260406000205490565b60405163295f44f760e21b81526001600160a01b039190911660048201526024810191909152604490fd5b90613eda5750805115613ec857805190602001fd5b604051630a12f52160e11b8152600490fd5b81511580613f0d575b613eeb575090565b604051639996b31560e01b81526001600160a01b039091166004820152602490fd5b50803b15613ee3565b60405190613f2382613579565b6007825266139195131bdbdd60ca1b6020830152565b818110613f44575050565b60008155600101613f39565b9190601f8111613f5f57505050565b6137a4926000526020600020906020601f840160051c830193106116ed57601f0160051c0190613f39565b60ff7ff0c57e16840df040f15088dc2f81fe391c3923bec73e23a9662efc9c229c6a005460401c1615613fb957565b604051631afcd79f60e31b8152600490fd5b6000198114613fda5760010190565b634e487b7160e01b600052601160045260246000fd5b60405190613ffd82613579565b600c82526b139bc81bdddb995c881e595d60a21b6020830152565b604080519261402684613594565b60008085526001600160a01b039484861694851561433f5783835260008051602061580c833981519152602097818952868520541687811580159384614320575b61407086613923565b805460010190558888528b5288872080546001600160a01b031916831790558782846000805160206157ec8339815191528a80a41561427957506000805160206157cc8339815191528054908787526000805160206157ac8339815191528b528189882055600160401b8210156115d05787612994836140f79360018e9796019055613689565b03614226575b61420e573b61410f575b505050505050565b8561414c9185969798955180938192630a85bd0160e11b9788845233600485015287602485015260448401526080606484015260848301906134bd565b0381858a5af1908290826141ca575b50506141925750505061416c613cfe565b8051938461418c578251633250574960e11b815260048101859052602490fd5b84925001fd5b9194506001600160e01b0319909116036141b3575050388080808080614107565b602492505190633250574960e11b82526004820152fd5b909192508781813d8311614207575b6141e381836135af565b810103126108cc5751906001600160e01b03198216820361028e575090388061415b565b503d6141d9565b84516339e3563760e11b815260048101849052602490fd5b61422f8261395c565b6000198101908111611cc75787855260008051602061574c83398151915289528685208186528952858786205585855260008051602061572c8339815191528952868520556140fd565b908082146140f75761428a8161395c565b87875260008051602061572c833981519152808c5289882054908282036142dc575b5050878752868981205581875260008051602061574c8339815191528b528887209087528a5285888120556140f7565b8389528c60008051602061574c8339815191528082528c8b20858c5282528c8b205491868c52528d8c8b2090848c5252808c8b205589528c528988205538806142ac565b61432989613c8a565b61433284613923565b8054600019019055614067565b8451633250574960e11b815260048101849052602490fd5b9190916000908082526020917f0542a41881ee128a365a727b282c86fa859579490b9bb45aab8503648c8e7900835260408120908551906001600160401b038211614494576143b0826143aa855461372c565b85613f50565b8490601f831160011461441057907ff8e1a15aba9398e019f0b49df1a4fde98ee17ae345cb5f6b5e2c27f5033e8ce7969783614405575b50508160011b916000199060031b1c19161790555b604051908152a1565b0151905038806143e7565b9196601f198816848452868420935b81811061447d57509160019391897ff8e1a15aba9398e019f0b49df1a4fde98ee17ae345cb5f6b5e2c27f5033e8ce7999a9410614464575b505050811b0190556143fc565b015160001960f88460031b161c19169055388080614457565b92938760018192878601518155019501930161441f565b634e487b7160e01b81526041600452602490fd5b156144af57565b606460405162461bcd60e51b815260206004820152602060248201527f596f75206d757374206f776e20746865206974656d3120746f20666f7267652e6044820152fd5b156144fa57565b606460405162461bcd60e51b815260206004820152602060248201527f596f75206d757374206f776e20746865206974656d3220746f20666f7267652e6044820152fd5b908160209103126134f8575180151581036134f85790565b1561455d57565b60405162461bcd60e51b8152602060048201526015602482015274151bdad95b881d1c985b9cd9995c8819985a5b1959605a1b6044820152606490fd5b81156145a4570690565b634e487b7160e01b600052601260045260246000fd5b3561ffff811681036134f85790565b903590601e19813603018212156134f857018035906001600160401b0382116134f8576020019181360383136134f857565b356001600160a01b03811681036134f85790565b9161462b9060409592845260a0602085015260a08401906134bd565b9284830152606082015260808183039101526009815268666f7267654974656d60b81b60208201520190565b600081815260008051602061580c83398151915260209181835260409260018060a01b0384832054168015938415908161487a575b878552835285842080546001600160a01b03191690558684836000805160206157ec8339815191528280a484156147d05750506000805160206157cc8339815191528054908684526000805160206157ac83398151915283528186852055600160401b8210156147bc57612994828892600161470a95019055613689565b6000805160206157cc83398151915291825460001992838201918211613aff578783526000805160206157ac8339815191529081815261474d8885205493613689565b90549060031b1c6147618161299486613689565b84525285822055858152808581205582549081156147a857500190614788612a2b83613689565b55614791575050565b602492505190637e27328960e01b82526004820152fd5b634e487b7160e01b81526031600452602490fd5b634e487b7160e01b84526041600452602484fd5b6147db575b5061470a565b6147e48161395c565b9086845260008051602061572c8339815191528084528685205490838203614837575b50508684528386812055835260008051602061574c833981519152825284832090835281528184812055386147d5565b82865260008051602061574c8339815191528086528887208588528652888720549084885286528887208388528652808988205586528452868520553880614807565b61488388613c8a565b61488c83613923565b805460001901905561468c565b60008051602061582c83398151915260028154146148b75760029055565b604051633ee5aeb560e01b8152600490fd5b6032811015806149b7575b156148e25750603290606390565b6064811015806149ac575b156148fb575060649060c790565b60c8811015806149a0575b15614915575060c89061012b90565b61012c908181101580614994575b1561493057509061018f90565b6101909150818110159081614987575b506149805760405162461bcd60e51b8152602060048201526013602482015272496e76616c696420706f7765722072616e676560681b6044820152606490fd5b906101f490565b6101f49150111538614940565b5061018f811115614923565b5061012b811115614906565b5060c78111156148ed565b5060638111156148d4565b90916149cd826153af565b90604051936149db85613548565b8452602091828501938452604085019361ffff80921685526149fb613ff0565b9160608701928352600190815497614a1289613fcb565b835560009789895260078852604089209151928351956001600160401b0396878111614bf157614a468161235e875461372c565b8a8c601f8311600114614b8e579060039783614b83575b505060001982881b1c191690871b1784555b51858401556002830191511661ffff1982541617905501925180519283116115d057908291614aa5859461145b8b98975461372c565b8690601f8411600114614b06579560409589958580600797614af59c97614aeb976136869f9d6106219e94614afb575b50501b916000199060031b1c1916179055614018565b8783525220614c4d565b82614357565b015192503880614ad5565b8489528789209897969594939190601f198316895b818110614b6b5750946106219894846136869c60409a95614af59d9a95614aeb9860079b10614b52575b505050811b019055614018565b015160001960f88460031b161c19169055388080614b45565b838301518c559a85019a8c9850928901928901614b1b565b015190503880614a5d565b8681528c81208993929091601f198416908f5b828210614bda575050988360039a10614bc2575b505050811b018455614a6f565b0151600019838a1b60f8161c19169055388080614bb5565b838c015185558c969094019392830192018f614ba1565b634e487b7160e01b8c52604160045260248cfd5b91614c219060409592845260a0602085015260a08401906134bd565b928483015260608201526080818303910152600981526873616d6556616c756560b81b60208201520190565b90604051614c5a81613548565b6060614c8c60038395614c6c81613766565b85526001810154602086015261ffff600282015416604086015201613766565b910152565b15614c9857565b60405162461bcd60e51b815260206004820152602260248201527f496e76616c6964206f7220756e617574686f72697a6564207369676e61747572604482015261329760f11b6064820152608490fd5b8151919060418303614d1957614d1292506020820151906060604084015193015160001a90614d24565b9192909190565b505060009160029190565b91907f7fffffffffffffffffffffffffffffff5d576e7357a4501ddfe92f46681b20a08411614da857926020929160ff608095604051948552168484015260408301526060820152600092839182805260015afa15614d9c5780516001600160a01b03811615614d9357918190565b50809160019190565b604051903d90823e3d90fd5b50505060009160039190565b6004811015614e235780614dc6575050565b60018103614de05760405163f645eedf60e01b8152600490fd5b60028103614e015760405163fce698f760e01b815260048101839052602490fd5b600314614e0b5750565b602490604051906335e2f38360e21b82526004820152fd5b634e487b7160e01b600052602160045260246000fd5b903590601e19813603018212156134f857018035906001600160401b0382116134f857602001918160051b360383136134f857565b81835290916001600160fb1b0383116134f85760209260051b809284830137010190565b15614e9957565b606460405162461bcd60e51b815260206004820152602060248201527f417272617973206d7573742068617665207468652073616d65206c656e6774686044820152fd5b91908110156136cc5760051b0190565b15614ef457565b60405162461bcd60e51b815260206004820152602e60248201527f4974656d20706f77657220646f6573206e6f74206d617463682074686520726560448201526d38bab2b9ba32b2103b30b63ab29760911b6064820152608490fd5b90614f5a826135d0565b614f6760405191826135af565b8281528092614f78601f19916135d0565b0190602036910137565b80518210156136cc5760209160051b010190565b614f9f81613cb6565b506000527f0542a41881ee128a365a727b282c86fa859579490b9bb45aab8503648c8e7900602052614fd46040600020613766565b6000604051614fe281613594565b5290565b15614fed57565b60405162461bcd60e51b815260206004820152601a60248201527f517565727920666f72206e6f6e6578697374656e74206974656d0000000000006044820152606490fd5b61503b8161395c565b8061505557505060405161504e81613594565b6000815290565b61505e816135d0565b9160409061506e825194856135af565b828452601f1961507d846135d0565b0160005b8181106150f157505060005b83811061509b575050505090565b806150a96150ec9284613e46565b806000526020600781526150cd866000208751936150c685613579565b8452614c4d565b908201526150db8288614f82565b526150e68187614f82565b50613fcb565b61508d565b60209084516150ff81613579565b60008152855161510e81613548565b6060808252600085830181905288830152818101528184015287820183015201615081565b91908203918211613fda57565b60ff9060405161517881610b5a6020820194334287916054939183526001600160601b03199060601b16602083015260348201520190565b51902016600019430190438211613fda5761519291615133565b4090565b61519f81615140565b6040805160208101928352429181019190915233606090811b6001600160601b0319169082015260748082018490528152601f199291612710916151e46094826135af565b51902006611a908110156151fd57506136869150615365565b6122608110156152125750613686915061531b565b612580811015615227575061368691506152d1565b6126de111561523a576136869150615286565b60659161527360405191826119d86020820195334288916054939183526001600160601b03199060601b16602083015260348201520190565b519020066101908101809111613fda5790565b6064906040516152be81610b5a6020820194334287916054939183526001600160601b03199060601b16602083015260348201520190565b5190200661012c8101809111613fda5790565b60649060405161530981610b5a6020820194334287916054939183526001600160601b03199060601b16602083015260348201520190565b5190200660c88101809111613fda5790565b60649060405161535381610b5a6020820194334287916054939183526001600160601b03199060601b16602083015260348201520190565b5190200660648101809111613fda5790565b60329060405161539d81610b5a6020820194334287916054939183526001600160601b03199060601b16602083015260348201520190565b5190200660328101809111613fda5790565b603281101580615455575b156153c55750600e90565b60648110158061544a575b156153db5750601c90565b60c88110158061543e575b156153f15750602a90565b61012c81101580615432575b156154085750603890565b6101908110159081615425575b501561542057604690565b600090565b6101f49150111538615415565b5061018f8111156153fd565b5061012b8111156153e6565b5060c78111156153d0565b5060638111156153ba565b90604051602081014281523360601b60408301526034825260608201908282106001600160401b03831117613563576154a192859260405251902092615133565b60018101809111613fda576154b59161459a565b8101809111613fda5790565b6136866021615602926020607d60f81b6154dd82840151615616565b6155f0606885519560606154f861ffff604084015116615616565b91015160405197889288840196607b60f81b88526d1124ba32b6a837bbb2b9111d101160911b8c860152615535815180928c602f8901910161349a565b8401916201116160ed1b9283602f8201526c1124ba32b6aa3cb832911d101160991b603282015261556f825180938d603f8501910161349a565b0182603f8201526e11223ab930b134b634ba3c911d101160891b60428201526155a1825180938c60518501910161349a565b01906051820152721121b430b930b1ba32b927bbb732b9111d101160691b60548201526155d7825180938a60678501910161349a565b01601160f91b60678201520360488101875201856135af565b6040519687945180928587019061349a565b8301918201520360018101845201826135af565b80156156be5780816000925b6156a8575061563082613619565b9161563e60405193846135af565b80835281601f1961564e83613619565b013660208601375b61565f57505090565b90600019820190828211613fda578192600a926030908484068201809211613fda57865111156136cc5760f81b6001600160f81b03191660001a908501601f0153049081615656565b90916156b5600a91613fcb565b92910480615622565b506040516156cb81613579565b60018152600360fc1b602082015290565b61019081106156ee5761368690615286565b61012c811061570057613686906152d1565b60c88110615711576136869061531b565b606481106157225761368690615365565b6136869061536556fe645e039705490088daad89bae25049a34f4a9072d398537b1ab2425f24cbed01645e039705490088daad89bae25049a34f4a9072d398537b1ab2425f24cbed0080bb2b638cc20bc4d0a60d66940f3ab4a00c1d7b313497ca82fb0b4ab00793009016d09d72d40fdae2fd8ceac6b6234c7706214fd39c1cd1e609a0528c199300645e039705490088daad89bae25049a34f4a9072d398537b1ab2425f24cbed03645e039705490088daad89bae25049a34f4a9072d398537b1ab2425f24cbed02ddf252ad1be2c89b69c2b068fc378daa952ba7f163c4a11628f55a4df523b3ef80bb2b638cc20bc4d0a60d66940f3ab4a00c1d7b313497ca82fb0b4ab00793029b779b17422d0df92223018b32b4d1fa46e071723d6817e2486d003becc55f0080bb2b638cc20bc4d0a60d66940f3ab4a00c1d7b313497ca82fb0b4ab007930480bb2b638cc20bc4d0a60d66940f3ab4a00c1d7b313497ca82fb0b4ab0079301a2646970667358221220cf145b39b1c85b2e966d3617cb5f5fa4eb85e1d747691d0850604584281e0b8f64736f6c63430008140033",
  "linkReferences": {},
  "deployedLinkReferences": {}
}