{
  "_format": "hh-sol-artifact-1",
  "contractName": "MintItem",
  "sourceName": "contracts/MintItem.sol",
  "abi": [
    {
      "inputs": [],
      "stateMutability": "nonpayable",
      "type": "constructor"
    },
    {
      "inputs": [],
      "name": "AccessControlBadConfirmation",
      "type": "error"
    },
    {
      "inputs": [
        {
          "internalType": "address",
          "name": "account",
          "type": "address"
        },
        {
          "internalType": "bytes32",
          "name": "neededRole",
          "type": "bytes32"
        }
      ],
      "name": "AccessControlUnauthorizedAccount",
      "type": "error"
    },
    {
      "inputs": [
        {
          "internalType": "address",
          "name": "target",
          "type": "address"
        }
      ],
      "name": "AddressEmptyCode",
      "type": "error"
    },
    {
      "inputs": [
        {
          "internalType": "address",
          "name": "implementation",
          "type": "address"
        }
      ],
      "name": "ERC1967InvalidImplementation",
      "type": "error"
    },
    {
      "inputs": [],
      "name": "ERC1967NonPayable",
      "type": "error"
    },
    {
      "inputs": [],
      "name": "ERC721EnumerableForbiddenBatchMint",
      "type": "error"
    },
    {
      "inputs": [
        {
          "internalType": "address",
          "name": "sender",
          "type": "address"
        },
        {
          "internalType": "uint256",
          "name": "tokenId",
          "type": "uint256"
        },
        {
          "internalType": "address",
          "name": "owner",
          "type": "address"
        }
      ],
      "name": "ERC721IncorrectOwner",
      "type": "error"
    },
    {
      "inputs": [
        {
          "internalType": "address",
          "name": "operator",
          "type": "address"
        },
        {
          "internalType": "uint256",
          "name": "tokenId",
          "type": "uint256"
        }
      ],
      "name": "ERC721InsufficientApproval",
      "type": "error"
    },
    {
      "inputs": [
        {
          "internalType": "address",
          "name": "approver",
          "type": "address"
        }
      ],
      "name": "ERC721InvalidApprover",
      "type": "error"
    },
    {
      "inputs": [
        {
          "internalType": "address",
          "name": "operator",
          "type": "address"
        }
      ],
      "name": "ERC721InvalidOperator",
      "type": "error"
    },
    {
      "inputs": [
        {
          "internalType": "address",
          "name": "owner",
          "type": "address"
        }
      ],
      "name": "ERC721InvalidOwner",
      "type": "error"
    },
    {
      "inputs": [
        {
          "internalType": "address",
          "name": "receiver",
          "type": "address"
        }
      ],
      "name": "ERC721InvalidReceiver",
      "type": "error"
    },
    {
      "inputs": [
        {
          "internalType": "address",
          "name": "sender",
          "type": "address"
        }
      ],
      "name": "ERC721InvalidSender",
      "type": "error"
    },
    {
      "inputs": [
        {
          "internalType": "uint256",
          "name": "tokenId",
          "type": "uint256"
        }
      ],
      "name": "ERC721NonexistentToken",
      "type": "error"
    },
    {
      "inputs": [
        {
          "internalType": "address",
          "name": "owner",
          "type": "address"
        },
        {
          "internalType": "uint256",
          "name": "index",
          "type": "uint256"
        }
      ],
      "name": "ERC721OutOfBoundsIndex",
      "type": "error"
    },
    {
      "inputs": [],
      "name": "FailedInnerCall",
      "type": "error"
    },
    {
      "inputs": [],
      "name": "InvalidInitialization",
      "type": "error"
    },
    {
      "inputs": [],
      "name": "NotInitializing",
      "type": "error"
    },
    {
      "inputs": [],
      "name": "UUPSUnauthorizedCallContext",
      "type": "error"
    },
    {
      "inputs": [
        {
          "internalType": "bytes32",
          "name": "slot",
          "type": "bytes32"
        }
      ],
      "name": "UUPSUnsupportedProxiableUUID",
      "type": "error"
    },
    {
      "anonymous": false,
      "inputs": [
        {
          "indexed": true,
          "internalType": "address",
          "name": "owner",
          "type": "address"
        },
        {
          "indexed": true,
          "internalType": "address",
          "name": "approved",
          "type": "address"
        },
        {
          "indexed": true,
          "internalType": "uint256",
          "name": "tokenId",
          "type": "uint256"
        }
      ],
      "name": "Approval",
      "type": "event"
    },
    {
      "anonymous": false,
      "inputs": [
        {
          "indexed": true,
          "internalType": "address",
          "name": "owner",
          "type": "address"
        },
        {
          "indexed": true,
          "internalType": "address",
          "name": "operator",
          "type": "address"
        },
        {
          "indexed": false,
          "internalType": "bool",
          "name": "approved",
          "type": "bool"
        }
      ],
      "name": "ApprovalForAll",
      "type": "event"
    },
    {
      "anonymous": false,
      "inputs": [
        {
          "indexed": false,
          "internalType": "uint256",
          "name": "_fromTokenId",
          "type": "uint256"
        },
        {
          "indexed": false,
          "internalType": "uint256",
          "name": "_toTokenId",
          "type": "uint256"
        }
      ],
      "name": "BatchMetadataUpdate",
      "type": "event"
    },
    {
      "anonymous": false,
      "inputs": [
        {
          "indexed": true,
          "internalType": "uint256",
          "name": "tokenId",
          "type": "uint256"
        },
        {
          "indexed": true,
          "internalType": "address",
          "name": "newOwner",
          "type": "address"
        }
      ],
      "name": "CharacterOwnerChanged",
      "type": "event"
    },
    {
      "anonymous": false,
      "inputs": [
        {
          "indexed": false,
          "internalType": "uint64",
          "name": "version",
          "type": "uint64"
        }
      ],
      "name": "Initialized",
      "type": "event"
    },
    {
      "anonymous": false,
      "inputs": [
        {
          "indexed": false,
          "internalType": "uint256",
          "name": "_tokenId",
          "type": "uint256"
        }
      ],
      "name": "MetadataUpdate",
      "type": "event"
    },
    {
      "anonymous": false,
      "inputs": [
        {
          "indexed": true,
          "internalType": "bytes32",
          "name": "role",
          "type": "bytes32"
        },
        {
          "indexed": true,
          "internalType": "bytes32",
          "name": "previousAdminRole",
          "type": "bytes32"
        },
        {
          "indexed": true,
          "internalType": "bytes32",
          "name": "newAdminRole",
          "type": "bytes32"
        }
      ],
      "name": "RoleAdminChanged",
      "type": "event"
    },
    {
      "anonymous": false,
      "inputs": [
        {
          "indexed": true,
          "internalType": "bytes32",
          "name": "role",
          "type": "bytes32"
        },
        {
          "indexed": true,
          "internalType": "address",
          "name": "account",
          "type": "address"
        },
        {
          "indexed": true,
          "internalType": "address",
          "name": "sender",
          "type": "address"
        }
      ],
      "name": "RoleGranted",
      "type": "event"
    },
    {
      "anonymous": false,
      "inputs": [
        {
          "indexed": true,
          "internalType": "bytes32",
          "name": "role",
          "type": "bytes32"
        },
        {
          "indexed": true,
          "internalType": "address",
          "name": "account",
          "type": "address"
        },
        {
          "indexed": true,
          "internalType": "address",
          "name": "sender",
          "type": "address"
        }
      ],
      "name": "RoleRevoked",
      "type": "event"
    },
    {
      "anonymous": false,
      "inputs": [
        {
          "indexed": true,
          "internalType": "address",
          "name": "from",
          "type": "address"
        },
        {
          "indexed": true,
          "internalType": "address",
          "name": "to",
          "type": "address"
        },
        {
          "indexed": true,
          "internalType": "uint256",
          "name": "tokenId",
          "type": "uint256"
        }
      ],
      "name": "Transfer",
      "type": "event"
    },
    {
      "anonymous": false,
      "inputs": [
        {
          "indexed": true,
          "internalType": "address",
          "name": "implementation",
          "type": "address"
        }
      ],
      "name": "Upgraded",
      "type": "event"
    },
    {
      "inputs": [],
      "name": "DEFAULT_ADMIN_ROLE",
      "outputs": [
        {
          "internalType": "bytes32",
          "name": "",
          "type": "bytes32"
        }
      ],
      "stateMutability": "view",
      "type": "function"
    },
    {
      "inputs": [],
      "name": "UPGRADE_INTERFACE_VERSION",
      "outputs": [
        {
          "internalType": "string",
          "name": "",
          "type": "string"
        }
      ],
      "stateMutability": "view",
      "type": "function"
    },
    {
      "inputs": [
        {
          "internalType": "address",
          "name": "to",
          "type": "address"
        },
        {
          "internalType": "uint256",
          "name": "tokenId",
          "type": "uint256"
        }
      ],
      "name": "approve",
      "outputs": [],
      "stateMutability": "nonpayable",
      "type": "function"
    },
    {
      "inputs": [
        {
          "internalType": "address",
          "name": "owner",
          "type": "address"
        }
      ],
      "name": "balanceOf",
      "outputs": [
        {
          "internalType": "uint256",
          "name": "",
          "type": "uint256"
        }
      ],
      "stateMutability": "view",
      "type": "function"
    },
    {
      "inputs": [
        {
          "internalType": "uint256",
          "name": "tokenId",
          "type": "uint256"
        }
      ],
      "name": "burn",
      "outputs": [],
      "stateMutability": "nonpayable",
      "type": "function"
    },
    {
      "inputs": [
        {
          "internalType": "uint256[]",
          "name": "tokenIds",
          "type": "uint256[]"
        },
        {
          "internalType": "string[]",
          "name": "newOwners",
          "type": "string[]"
        }
      ],
      "name": "changeItemsCharacterOwner",
      "outputs": [],
      "stateMutability": "payable",
      "type": "function"
    },
    {
      "inputs": [
        {
          "internalType": "uint256[]",
          "name": "tokenIds",
          "type": "uint256[]"
        },
        {
          "internalType": "uint16",
          "name": "decrementAmount",
          "type": "uint16"
        }
      ],
      "name": "changeItemsDurability",
      "outputs": [
        {
          "internalType": "uint256[]",
          "name": "",
          "type": "uint256[]"
        }
      ],
      "stateMutability": "nonpayable",
      "type": "function"
    },
    {
      "inputs": [],
      "name": "gameTreasury",
      "outputs": [
        {
          "internalType": "contract GameTreasury",
          "name": "",
          "type": "address"
        }
      ],
      "stateMutability": "view",
      "type": "function"
    },
    {
      "inputs": [
        {
          "internalType": "uint256",
          "name": "tokenId",
          "type": "uint256"
        }
      ],
      "name": "getApproved",
      "outputs": [
        {
          "internalType": "address",
          "name": "",
          "type": "address"
        }
      ],
      "stateMutability": "view",
      "type": "function"
    },
    {
      "inputs": [
        {
          "internalType": "bytes32",
          "name": "role",
          "type": "bytes32"
        }
      ],
      "name": "getRoleAdmin",
      "outputs": [
        {
          "internalType": "bytes32",
          "name": "",
          "type": "bytes32"
        }
      ],
      "stateMutability": "view",
      "type": "function"
    },
    {
      "inputs": [
        {
          "internalType": "bytes32",
          "name": "role",
          "type": "bytes32"
        },
        {
          "internalType": "address",
          "name": "account",
          "type": "address"
        }
      ],
      "name": "grantRole",
      "outputs": [],
      "stateMutability": "nonpayable",
      "type": "function"
    },
    {
      "inputs": [
        {
          "internalType": "bytes32",
          "name": "role",
          "type": "bytes32"
        },
        {
          "internalType": "address",
          "name": "account",
          "type": "address"
        }
      ],
      "name": "hasRole",
      "outputs": [
        {
          "internalType": "bool",
          "name": "",
          "type": "bool"
        }
      ],
      "stateMutability": "view",
      "type": "function"
    },
    {
      "inputs": [
        {
          "internalType": "address",
          "name": "defaultAdmin",
          "type": "address"
        },
        {
          "internalType": "address",
          "name": "_gameTreasuryAddress",
          "type": "address"
        },
        {
          "internalType": "address",
          "name": "_ItemHelper",
          "type": "address"
        }
      ],
      "name": "initialize",
      "outputs": [],
      "stateMutability": "nonpayable",
      "type": "function"
    },
    {
      "inputs": [
        {
          "internalType": "address",
          "name": "owner",
          "type": "address"
        },
        {
          "internalType": "address",
          "name": "operator",
          "type": "address"
        }
      ],
      "name": "isApprovedForAll",
      "outputs": [
        {
          "internalType": "bool",
          "name": "",
          "type": "bool"
        }
      ],
      "stateMutability": "view",
      "type": "function"
    },
    {
      "inputs": [],
      "name": "itemHelper",
      "outputs": [
        {
          "internalType": "contract ItemHelper",
          "name": "",
          "type": "address"
        }
      ],
      "stateMutability": "view",
      "type": "function"
    },
    {
      "inputs": [
        {
          "internalType": "uint256",
          "name": "",
          "type": "uint256"
        }
      ],
      "name": "items",
      "outputs": [
        {
          "internalType": "string",
          "name": "itemType",
          "type": "string"
        },
        {
          "internalType": "uint256",
          "name": "power",
          "type": "uint256"
        },
        {
          "internalType": "uint16",
          "name": "durability",
          "type": "uint16"
        },
        {
          "internalType": "string",
          "name": "characterOwner",
          "type": "string"
        }
      ],
      "stateMutability": "view",
      "type": "function"
    },
    {
      "inputs": [
        {
          "internalType": "address",
          "name": "to",
          "type": "address"
        }
      ],
      "name": "mintItem",
      "outputs": [
        {
          "internalType": "uint256",
          "name": "",
          "type": "uint256"
        }
      ],
      "stateMutability": "nonpayable",
      "type": "function"
    },
    {
      "inputs": [],
      "name": "name",
      "outputs": [
        {
          "internalType": "string",
          "name": "",
          "type": "string"
        }
      ],
      "stateMutability": "view",
      "type": "function"
    },
    {
      "inputs": [
        {
          "internalType": "uint256",
          "name": "tokenId",
          "type": "uint256"
        }
      ],
      "name": "ownerOf",
      "outputs": [
        {
          "internalType": "address",
          "name": "",
          "type": "address"
        }
      ],
      "stateMutability": "view",
      "type": "function"
    },
    {
      "inputs": [],
      "name": "proxiableUUID",
      "outputs": [
        {
          "internalType": "bytes32",
          "name": "",
          "type": "bytes32"
        }
      ],
      "stateMutability": "view",
      "type": "function"
    },
    {
      "inputs": [
        {
          "internalType": "bytes32",
          "name": "role",
          "type": "bytes32"
        },
        {
          "internalType": "address",
          "name": "callerConfirmation",
          "type": "address"
        }
      ],
      "name": "renounceRole",
      "outputs": [],
      "stateMutability": "nonpayable",
      "type": "function"
    },
    {
      "inputs": [
        {
          "internalType": "uint256[]",
          "name": "tokenIds",
          "type": "uint256[]"
        }
      ],
      "name": "repairItemDurability",
      "outputs": [],
      "stateMutability": "payable",
      "type": "function"
    },
    {
      "inputs": [
        {
          "internalType": "bytes32",
          "name": "role",
          "type": "bytes32"
        },
        {
          "internalType": "address",
          "name": "account",
          "type": "address"
        }
      ],
      "name": "revokeRole",
      "outputs": [],
      "stateMutability": "nonpayable",
      "type": "function"
    },
    {
      "inputs": [
        {
          "internalType": "address",
          "name": "to",
          "type": "address"
        },
        {
          "internalType": "string",
          "name": "uri",
          "type": "string"
        }
      ],
      "name": "safeMint",
      "outputs": [],
      "stateMutability": "nonpayable",
      "type": "function"
    },
    {
      "inputs": [
        {
          "internalType": "address",
          "name": "from",
          "type": "address"
        },
        {
          "internalType": "address",
          "name": "to",
          "type": "address"
        },
        {
          "internalType": "uint256",
          "name": "tokenId",
          "type": "uint256"
        }
      ],
      "name": "safeTransferFrom",
      "outputs": [],
      "stateMutability": "nonpayable",
      "type": "function"
    },
    {
      "inputs": [
        {
          "internalType": "address",
          "name": "from",
          "type": "address"
        },
        {
          "internalType": "address",
          "name": "to",
          "type": "address"
        },
        {
          "internalType": "uint256",
          "name": "tokenId",
          "type": "uint256"
        },
        {
          "internalType": "bytes",
          "name": "data",
          "type": "bytes"
        }
      ],
      "name": "safeTransferFrom",
      "outputs": [],
      "stateMutability": "nonpayable",
      "type": "function"
    },
    {
      "inputs": [
        {
          "internalType": "address",
          "name": "operator",
          "type": "address"
        },
        {
          "internalType": "bool",
          "name": "approved",
          "type": "bool"
        }
      ],
      "name": "setApprovalForAll",
      "outputs": [],
      "stateMutability": "nonpayable",
      "type": "function"
    },
    {
      "inputs": [
        {
          "internalType": "address",
          "name": "_gameTreasuryAddress",
          "type": "address"
        }
      ],
      "name": "setGameTreasuryAddress",
      "outputs": [],
      "stateMutability": "nonpayable",
      "type": "function"
    },
    {
      "inputs": [
        {
          "internalType": "address",
          "name": "_itemHelperAddress",
          "type": "address"
        }
      ],
      "name": "setItemHelperAddress",
      "outputs": [],
      "stateMutability": "nonpayable",
      "type": "function"
    },
    {
      "inputs": [
        {
          "internalType": "bytes4",
          "name": "interfaceId",
          "type": "bytes4"
        }
      ],
      "name": "supportsInterface",
      "outputs": [
        {
          "internalType": "bool",
          "name": "",
          "type": "bool"
        }
      ],
      "stateMutability": "view",
      "type": "function"
    },
    {
      "inputs": [],
      "name": "symbol",
      "outputs": [
        {
          "internalType": "string",
          "name": "",
          "type": "string"
        }
      ],
      "stateMutability": "view",
      "type": "function"
    },
    {
      "inputs": [
        {
          "internalType": "uint256",
          "name": "index",
          "type": "uint256"
        }
      ],
      "name": "tokenByIndex",
      "outputs": [
        {
          "internalType": "uint256",
          "name": "",
          "type": "uint256"
        }
      ],
      "stateMutability": "view",
      "type": "function"
    },
    {
      "inputs": [
        {
          "internalType": "address",
          "name": "owner",
          "type": "address"
        },
        {
          "internalType": "uint256",
          "name": "index",
          "type": "uint256"
        }
      ],
      "name": "tokenOfOwnerByIndex",
      "outputs": [
        {
          "internalType": "uint256",
          "name": "",
          "type": "uint256"
        }
      ],
      "stateMutability": "view",
      "type": "function"
    },
    {
      "inputs": [
        {
          "internalType": "uint256",
          "name": "itemIdCounter",
          "type": "uint256"
        }
      ],
      "name": "tokenURI",
      "outputs": [
        {
          "internalType": "string",
          "name": "",
          "type": "string"
        }
      ],
      "stateMutability": "view",
      "type": "function"
    },
    {
      "inputs": [],
      "name": "totalSupply",
      "outputs": [
        {
          "internalType": "uint256",
          "name": "",
          "type": "uint256"
        }
      ],
      "stateMutability": "view",
      "type": "function"
    },
    {
      "inputs": [
        {
          "internalType": "address",
          "name": "from",
          "type": "address"
        },
        {
          "internalType": "address",
          "name": "to",
          "type": "address"
        },
        {
          "internalType": "uint256",
          "name": "tokenId",
          "type": "uint256"
        }
      ],
      "name": "transferFrom",
      "outputs": [],
      "stateMutability": "nonpayable",
      "type": "function"
    },
    {
      "inputs": [
        {
          "internalType": "address",
          "name": "newImplementation",
          "type": "address"
        },
        {
          "internalType": "bytes",
          "name": "data",
          "type": "bytes"
        }
      ],
      "name": "upgradeToAndCall",
      "outputs": [],
      "stateMutability": "payable",
      "type": "function"
    },
    {
      "inputs": [
        {
          "internalType": "address",
          "name": "owner",
          "type": "address"
        }
      ],
      "name": "viewOwnedItems",
      "outputs": [
        {
          "components": [
            {
              "internalType": "uint256",
              "name": "id",
              "type": "uint256"
            },
            {
              "components": [
                {
                  "internalType": "string",
                  "name": "itemType",
                  "type": "string"
                },
                {
                  "internalType": "uint256",
                  "name": "power",
                  "type": "uint256"
                },
                {
                  "internalType": "uint16",
                  "name": "durability",
                  "type": "uint16"
                },
                {
                  "internalType": "string",
                  "name": "characterOwner",
                  "type": "string"
                }
              ],
              "internalType": "struct MintItem.Item",
              "name": "item",
              "type": "tuple"
            }
          ],
          "internalType": "struct MintItem.ItemDetails[]",
          "name": "",
          "type": "tuple[]"
        }
      ],
      "stateMutability": "view",
      "type": "function"
    }
  ],
  "bytecode": "0x60a06040523073ffffffffffffffffffffffffffffffffffffffff1660809073ffffffffffffffffffffffffffffffffffffffff168152503480156200004457600080fd5b50620000556200005b60201b60201c565b620001cf565b60006200006d6200016560201b60201c565b90508060000160089054906101000a900460ff1615620000b9576040517ff92ee8a900000000000000000000000000000000000000000000000000000000815260040160405180910390fd5b67ffffffffffffffff80168160000160009054906101000a900467ffffffffffffffff1667ffffffffffffffff1614620001625767ffffffffffffffff8160000160006101000a81548167ffffffffffffffff021916908367ffffffffffffffff1602179055507fc7f505b2f371ae2175ee4913f4499e1f2633a7b5936321eed1cdaeb6115181d267ffffffffffffffff604051620001599190620001b2565b60405180910390a15b50565b60007ff0c57e16840df040f15088dc2f81fe391c3923bec73e23a9662efc9c229c6a00905090565b600067ffffffffffffffff82169050919050565b620001ac816200018d565b82525050565b6000602082019050620001c96000830184620001a1565b92915050565b608051615e97620001f9600039600081816128170152818161286c0152612a2d0152615e976000f3fe6080604052600436106102255760003560e01c80636352211e11610123578063ad3cb1cc116100ab578063d204c45e1161006f578063d204c45e1461086e578063d2f9efab14610897578063d547741f146108c2578063db3ed3be146108eb578063e985e9c51461090757610225565b8063ad3cb1cc14610774578063b88d4fde1461079f578063bfb231d2146107c8578063c0c53b8b14610808578063c87b56dd1461083157610225565b806391d14854116100f257806391d148541461068f57806395d89b41146106cc578063a1365bf1146106f7578063a217fddf14610720578063a22cb4651461074b57610225565b80636352211e1461059b578063691c65d4146105d857806370a08231146106155780637f08d6e21461065257610225565b80632f2ff15d116101b157806342966c681161017557806342966c68146104c55780634f1ef286146104ee5780634f6ccce71461050a57806352d1902d146105475780635bf0744d1461057257610225565b80632f2ff15d146103d05780632f745c59146103f95780633604c9fb1461043657806336568abe1461047357806342842e0e1461049c57610225565b80630d86e543116101f85780630d86e543146102f857806318160ddd1461032357806323b872dd1461034e578063248a9ca3146103775780632db12aae146103b457610225565b806301ffc9a71461022a57806306fdde0314610267578063081812fc14610292578063095ea7b3146102cf575b600080fd5b34801561023657600080fd5b50610251600480360381019061024c91906144bc565b610944565b60405161025e9190614504565b60405180910390f35b34801561027357600080fd5b5061027c610956565b60405161028991906145af565b60405180910390f35b34801561029e57600080fd5b506102b960048036038101906102b49190614607565b6109f7565b6040516102c69190614675565b60405180910390f35b3480156102db57600080fd5b506102f660048036038101906102f191906146bc565b610a13565b005b34801561030457600080fd5b5061030d610a29565b60405161031a919061475b565b60405180910390f35b34801561032f57600080fd5b50610338610a4f565b6040516103459190614785565b60405180910390f35b34801561035a57600080fd5b50610375600480360381019061037091906147a0565b610a6a565b005b34801561038357600080fd5b5061039e60048036038101906103999190614829565b610b6c565b6040516103ab9190614865565b60405180910390f35b6103ce60048036038101906103c99190614b5e565b610b9a565b005b3480156103dc57600080fd5b506103f760048036038101906103f29190614bd6565b610dc4565b005b34801561040557600080fd5b50610420600480360381019061041b91906146bc565b610de6565b60405161042d9190614785565b60405180910390f35b34801561044257600080fd5b5061045d60048036038101906104589190614c50565b610e9d565b60405161046a9190614d6a565b60405180910390f35b34801561047f57600080fd5b5061049a60048036038101906104959190614bd6565b6110fa565b005b3480156104a857600080fd5b506104c360048036038101906104be91906147a0565b611175565b005b3480156104d157600080fd5b506104ec60048036038101906104e79190614607565b611195565b005b61050860048036038101906105039190614e2d565b6111ac565b005b34801561051657600080fd5b50610531600480360381019061052c9190614607565b6111cb565b60405161053e9190614785565b60405180910390f35b34801561055357600080fd5b5061055c61124f565b6040516105699190614865565b60405180910390f35b34801561057e57600080fd5b5061059960048036038101906105949190614e89565b611282565b005b3480156105a757600080fd5b506105c260048036038101906105bd9190614607565b6112c6565b6040516105cf9190614675565b60405180910390f35b3480156105e457600080fd5b506105ff60048036038101906105fa9190614e89565b6112d8565b60405161060c9190614785565b60405180910390f35b34801561062157600080fd5b5061063c60048036038101906106379190614e89565b611535565b6040516106499190614785565b60405180910390f35b34801561065e57600080fd5b5061067960048036038101906106749190614e89565b6115fe565b6040516106869190615078565b60405180910390f35b34801561069b57600080fd5b506106b660048036038101906106b19190614bd6565b6118a7565b6040516106c39190614504565b60405180910390f35b3480156106d857600080fd5b506106e1611920565b6040516106ee91906145af565b60405180910390f35b34801561070357600080fd5b5061071e60048036038101906107199190614e89565b6119c1565b005b34801561072c57600080fd5b50610735611a05565b6040516107429190614865565b60405180910390f35b34801561075757600080fd5b50610772600480360381019061076d91906150c6565b611a0c565b005b34801561078057600080fd5b50610789611a22565b60405161079691906145af565b60405180910390f35b3480156107ab57600080fd5b506107c660048036038101906107c19190615106565b611a5b565b005b3480156107d457600080fd5b506107ef60048036038101906107ea9190614607565b611a78565b6040516107ff9493929190615198565b60405180910390f35b34801561081457600080fd5b5061082f600480360381019061082a91906151eb565b611bc6565b005b34801561083d57600080fd5b5061085860048036038101906108539190614607565b611e84565b60405161086591906145af565b60405180910390f35b34801561087a57600080fd5b506108956004803603810190610890919061523e565b611e96565b005b3480156108a357600080fd5b506108ac611ec9565b6040516108b991906152cd565b60405180910390f35b3480156108ce57600080fd5b506108e960048036038101906108e49190614bd6565b611eef565b005b610905600480360381019061090091906152e8565b611f11565b005b34801561091357600080fd5b5061092e60048036038101906109299190615331565b612192565b60405161093b9190614504565b60405180910390f35b600061094f82612234565b9050919050565b606060006109626122ae565b9050806000018054610973906153a0565b80601f016020809104026020016040519081016040528092919081815260200182805461099f906153a0565b80156109ec5780601f106109c1576101008083540402835291602001916109ec565b820191906000526020600020905b8154815290600101906020018083116109cf57829003601f168201915b505050505091505090565b6000610a02826122d6565b50610a0c8261235e565b9050919050565b610a258282610a206123a9565b6123b1565b5050565b600260009054906101000a900473ffffffffffffffffffffffffffffffffffffffff1681565b600080610a5a6123c3565b9050806002018054905091505090565b600073ffffffffffffffffffffffffffffffffffffffff168273ffffffffffffffffffffffffffffffffffffffff1603610adc5760006040517f64a0ae92000000000000000000000000000000000000000000000000000000008152600401610ad39190614675565b60405180910390fd5b6000610af08383610aeb6123a9565b6123eb565b90508373ffffffffffffffffffffffffffffffffffffffff168173ffffffffffffffffffffffffffffffffffffffff1614610b66578382826040517f64283d7b000000000000000000000000000000000000000000000000000000008152600401610b5d939291906153d1565b60405180910390fd5b50505050565b600080610b77612401565b905080600001600084815260200190815260200160002060010154915050919050565b8051825114610bde576040517f08c379a0000000000000000000000000000000000000000000000000000000008152600401610bd590615454565b60405180910390fd5b6000600160009054906101000a900473ffffffffffffffffffffffffffffffffffffffff1673ffffffffffffffffffffffffffffffffffffffff1634604051610c26906154a5565b60006040518083038185875af1925050503d8060008114610c63576040519150601f19603f3d011682016040523d82523d6000602084013e610c68565b606091505b5050905080610cac576040517f08c379a0000000000000000000000000000000000000000000000000000000008152600401610ca390615506565b60405180910390fd5b60005b8351811015610dbe576000848281518110610ccd57610ccc615526565b5b60200260200101519050610cdf6123a9565b73ffffffffffffffffffffffffffffffffffffffff16610cfe826112c6565b73ffffffffffffffffffffffffffffffffffffffff1614610d54576040517f08c379a0000000000000000000000000000000000000000000000000000000008152600401610d4b906155a1565b60405180910390fd5b6000600360008381526020019081526020016000209050848381518110610d7e57610d7d615526565b5b6020026020010151816003019081610d969190615763565b50610da982610da484612429565b61250d565b50508080610db690615864565b915050610caf565b50505050565b610dcd82610b6c565b610dd681612578565b610de0838361258c565b50505050565b600080610df16123c3565b9050610dfc84611535565b8310610e415783836040517fa57d13dc000000000000000000000000000000000000000000000000000000008152600401610e389291906158ac565b60405180910390fd5b8060000160008573ffffffffffffffffffffffffffffffffffffffff1673ffffffffffffffffffffffffffffffffffffffff16815260200190815260200160002060008481526020019081526020016000205491505092915050565b60606000835167ffffffffffffffff811115610ebc57610ebb614885565b5b604051908082528060200260200182016040528015610eea5781602001602082028036833780820191505090505b5090506000805b8551811015611047576000868281518110610f0f57610f0e615526565b5b6020026020010151905060006003600083815260200190815260200160002090508661ffff168160020160009054906101000a900461ffff1661ffff161115610f9257868160020160008282829054906101000a900461ffff16610f7391906158d5565b92506101000a81548161ffff021916908361ffff160217905550610fb3565b60008160020160006101000a81548161ffff021916908361ffff1602179055505b6064816001015411158015610fde575060008160020160009054906101000a900461ffff1661ffff16145b1561101f57610fec8261268d565b8185858151811061100057610fff615526565b5b602002602001018181525050838061101790615864565b945050611032565b6110318261102c84612429565b61250d565b5b5050808061103f90615864565b915050610ef1565b5060008167ffffffffffffffff81111561106457611063614885565b5b6040519080825280602002602001820160405280156110925781602001602082028036833780820191505090505b50905060005b828110156110ed578381815181106110b3576110b2615526565b5b60200260200101518282815181106110ce576110cd615526565b5b60200260200101818152505080806110e590615864565b915050611098565b5080935050505092915050565b6111026123a9565b73ffffffffffffffffffffffffffffffffffffffff168173ffffffffffffffffffffffffffffffffffffffff1614611166576040517f6697b23200000000000000000000000000000000000000000000000000000000815260040160405180910390fd5b6111708282612713565b505050565b61119083838360405180602001604052806000815250611a5b565b505050565b6111a86000826111a36123a9565b6123eb565b5050565b6111b4612815565b6111bd826128fb565b6111c7828261290c565b5050565b6000806111d66123c3565b90506111e0610a4f565b8310611226576000836040517fa57d13dc00000000000000000000000000000000000000000000000000000000815260040161121d9291906158ac565b60405180910390fd5b80600201838154811061123c5761123b615526565b5b9060005260206000200154915050919050565b6000611259612a2b565b7f360894a13ba1a3210667c828492db98dca3e2076cc3735a920a3ca505d382bbc60001b905090565b80600260006101000a81548173ffffffffffffffffffffffffffffffffffffffff021916908373ffffffffffffffffffffffffffffffffffffffff16021790555050565b60006112d1826122d6565b9050919050565b6000806000808154809291906112ed90615864565b9190505590506000600260009054906101000a900473ffffffffffffffffffffffffffffffffffffffff1673ffffffffffffffffffffffffffffffffffffffff1663a69ab84a836040518263ffffffff1660e01b81526004016113509190614785565b602060405180830381865afa15801561136d573d6000803e3d6000fd5b505050506040513d601f19601f820116820180604052508101906113919190615920565b90506000600260009054906101000a900473ffffffffffffffffffffffffffffffffffffffff1673ffffffffffffffffffffffffffffffffffffffff1663f21c07e8846040518263ffffffff1660e01b81526004016113f09190614785565b600060405180830381865afa15801561140d573d6000803e3d6000fd5b505050506040513d6000823e3d601f19601f8201168201806040525081019061143691906159bd565b905060006040518060800160405280838152602001848152602001601e61ffff1681526020016040518060400160405280600c81526020017f4e6f206f776e65722079657400000000000000000000000000000000000000008152508152509050806003600086815260200190815260200160002060008201518160000190816114c09190615763565b506020820151816001015560408201518160020160006101000a81548161ffff021916908361ffff16021790555060608201518160030190816115039190615763565b509050506115118685612ab2565b600061151c85612429565b9050611528858261250d565b8495505050505050919050565b6000806115406122ae565b9050600073ffffffffffffffffffffffffffffffffffffffff168373ffffffffffffffffffffffffffffffffffffffff16036115b45760006040517f89c62b640000000000000000000000000000000000000000000000000000000081526004016115ab9190614675565b60405180910390fd5b8060030160008473ffffffffffffffffffffffffffffffffffffffff1673ffffffffffffffffffffffffffffffffffffffff16815260200190815260200160002054915050919050565b6060600061160b83611535565b90506000810361167257600067ffffffffffffffff8111156116305761162f614885565b5b60405190808252806020026020018201604052801561166957816020015b611656614404565b81526020019060019003908161164e5790505b509150506118a2565b60008167ffffffffffffffff81111561168e5761168d614885565b5b6040519080825280602002602001820160405280156116c757816020015b6116b4614404565b8152602001906001900390816116ac5790505b50905060005b8281101561189b5760006116e18683610de6565b90506000600360008381526020019081526020016000209050604051806040016040528083815260200182604051806080016040529081600082018054611727906153a0565b80601f0160208091040260200160405190810160405280929190818152602001828054611753906153a0565b80156117a05780601f10611775576101008083540402835291602001916117a0565b820191906000526020600020905b81548152906001019060200180831161178357829003601f168201915b50505050508152602001600182015481526020016002820160009054906101000a900461ffff1661ffff1661ffff1681526020016003820180546117e3906153a0565b80601f016020809104026020016040519081016040528092919081815260200182805461180f906153a0565b801561185c5780601f106118315761010080835404028352916020019161185c565b820191906000526020600020905b81548152906001019060200180831161183f57829003601f168201915b50505050508152505081525084848151811061187b5761187a615526565b5b60200260200101819052505050808061189390615864565b9150506116cd565b5080925050505b919050565b6000806118b2612401565b905080600001600085815260200190815260200160002060000160008473ffffffffffffffffffffffffffffffffffffffff1673ffffffffffffffffffffffffffffffffffffffff16815260200190815260200160002060009054906101000a900460ff1691505092915050565b6060600061192c6122ae565b905080600101805461193d906153a0565b80601f0160208091040260200160405190810160405280929190818152602001828054611969906153a0565b80156119b65780601f1061198b576101008083540402835291602001916119b6565b820191906000526020600020905b81548152906001019060200180831161199957829003601f168201915b505050505091505090565b80600160006101000a81548173ffffffffffffffffffffffffffffffffffffffff021916908373ffffffffffffffffffffffffffffffffffffffff16021790555050565b6000801b81565b611a1e611a176123a9565b8383612ad0565b5050565b6040518060400160405280600581526020017f352e302e3000000000000000000000000000000000000000000000000000000081525081565b611a66848484610a6a565b611a7284848484612c4e565b50505050565b6003602052806000526040600020600091509050806000018054611a9b906153a0565b80601f0160208091040260200160405190810160405280929190818152602001828054611ac7906153a0565b8015611b145780601f10611ae957610100808354040283529160200191611b14565b820191906000526020600020905b815481529060010190602001808311611af757829003601f168201915b5050505050908060010154908060020160009054906101000a900461ffff1690806003018054611b43906153a0565b80601f0160208091040260200160405190810160405280929190818152602001828054611b6f906153a0565b8015611bbc5780601f10611b9157610100808354040283529160200191611bbc565b820191906000526020600020905b815481529060010190602001808311611b9f57829003601f168201915b5050505050905084565b6000611bd0612e05565b905060008160000160089054906101000a900460ff1615905060008260000160009054906101000a900467ffffffffffffffff1690506000808267ffffffffffffffff16148015611c1e5750825b9050600060018367ffffffffffffffff16148015611c53575060003073ffffffffffffffffffffffffffffffffffffffff163b145b905081158015611c61575080155b15611c98576040517ff92ee8a900000000000000000000000000000000000000000000000000000000815260040160405180910390fd5b60018560000160006101000a81548167ffffffffffffffff021916908367ffffffffffffffff1602179055508315611ce85760018560000160086101000a81548160ff0219169083151502179055505b611d5c6040518060400160405280600781526020017f4974656d4e4654000000000000000000000000000000000000000000000000008152506040518060400160405280600481526020017f4954454d00000000000000000000000000000000000000000000000000000000815250612e2d565b611d64612e43565b611d6c612e4d565b611d74612e57565b611d7c612e61565b611d896000801b8961258c565b5086600160006101000a81548173ffffffffffffffffffffffffffffffffffffffff021916908373ffffffffffffffffffffffffffffffffffffffff16021790555085600260006101000a81548173ffffffffffffffffffffffffffffffffffffffff021916908373ffffffffffffffffffffffffffffffffffffffff1602179055506000805403611e1e5760016000819055505b8315611e7a5760008560000160086101000a81548160ff0219169083151502179055507fc7f505b2f371ae2175ee4913f4499e1f2633a7b5936321eed1cdaeb6115181d26001604051611e719190615a55565b60405180910390a15b5050505050505050565b6060611e8f82612e6b565b9050919050565b6000806000815480929190611eaa90615864565b919050559050611eba8382612ab2565b611ec4818361250d565b505050565b600160009054906101000a900473ffffffffffffffffffffffffffffffffffffffff1681565b611ef882610b6c565b611f0181612578565b611f0b8383612713565b50505050565b60005b815181101561218e576000828281518110611f3257611f31615526565b5b60200260200101519050611f446123a9565b73ffffffffffffffffffffffffffffffffffffffff16611f63826112c6565b73ffffffffffffffffffffffffffffffffffffffff1614611fb9576040517f08c379a0000000000000000000000000000000000000000000000000000000008152600401611fb090615ae2565b60405180910390fd5b6000600160009054906101000a900473ffffffffffffffffffffffffffffffffffffffff1673ffffffffffffffffffffffffffffffffffffffff1634604051612001906154a5565b60006040518083038185875af1925050503d806000811461203e576040519150601f19603f3d011682016040523d82523d6000602084013e612043565b606091505b5050905080612087576040517f08c379a000000000000000000000000000000000000000000000000000000000815260040161207e90615506565b60405180910390fd5b6000600360008481526020019081526020016000209050601e8160020160006101000a81548161ffff021916908361ffff160217905550600260009054906101000a900473ffffffffffffffffffffffffffffffffffffffff1673ffffffffffffffffffffffffffffffffffffffff166352f39b8f82600101546040518263ffffffff1660e01b815260040161211d9190614785565b602060405180830381865afa15801561213a573d6000803e3d6000fd5b505050506040513d601f19601f8201168201806040525081019061215e9190615920565b81600101819055506121788361217385612429565b61250d565b505050808061218690615864565b915050611f14565b5050565b60008061219d6122ae565b90508060050160008573ffffffffffffffffffffffffffffffffffffffff1673ffffffffffffffffffffffffffffffffffffffff16815260200190815260200160002060008473ffffffffffffffffffffffffffffffffffffffff1673ffffffffffffffffffffffffffffffffffffffff16815260200190815260200160002060009054906101000a900460ff1691505092915050565b60007f7965db0b000000000000000000000000000000000000000000000000000000007bffffffffffffffffffffffffffffffffffffffffffffffffffffffff1916827bffffffffffffffffffffffffffffffffffffffffffffffffffffffff191614806122a757506122a682612f8f565b5b9050919050565b60007f80bb2b638cc20bc4d0a60d66940f3ab4a00c1d7b313497ca82fb0b4ab0079300905090565b6000806122e283612ff0565b9050600073ffffffffffffffffffffffffffffffffffffffff168173ffffffffffffffffffffffffffffffffffffffff160361235557826040517f7e27328900000000000000000000000000000000000000000000000000000000815260040161234c9190614785565b60405180910390fd5b80915050919050565b6000806123696122ae565b905080600401600084815260200190815260200160002060009054906101000a900473ffffffffffffffffffffffffffffffffffffffff16915050919050565b600033905090565b6123be838383600161303b565b505050565b60007f645e039705490088daad89bae25049a34f4a9072d398537b1ab2425f24cbed00905090565b60006123f884848461320f565b90509392505050565b60007f02dd7bc7dec4dceedda775e58dd541e08a116c6c53815c0bd028192f7b626800905090565b60606000600360008481526020019081526020016000209050600260009054906101000a900473ffffffffffffffffffffffffffffffffffffffff1673ffffffffffffffffffffffffffffffffffffffff1663964f4a7d8260000183600101548460020160009054906101000a900461ffff16856003016040518563ffffffff1660e01b81526004016124bf9493929190615b86565b600060405180830381865afa1580156124dc573d6000803e3d6000fd5b505050506040513d6000823e3d601f19601f8201168201806040525081019061250591906159bd565b915050919050565b600061251761332c565b905081816000016000858152602001908152602001600020908161253b9190615763565b507ff8e1a15aba9398e019f0b49df1a4fde98ee17ae345cb5f6b5e2c27f5033e8ce78360405161256b9190614785565b60405180910390a1505050565b612589816125846123a9565b613354565b50565b600080612597612401565b90506125a384846118a7565b61268157600181600001600086815260200190815260200160002060000160008573ffffffffffffffffffffffffffffffffffffffff1673ffffffffffffffffffffffffffffffffffffffff16815260200190815260200160002060006101000a81548160ff02191690831515021790555061261d6123a9565b73ffffffffffffffffffffffffffffffffffffffff168373ffffffffffffffffffffffffffffffffffffffff16857f2f8788117e7eff1d82e926ec794901d17c78024a50270940304540a733656f0d60405160405180910390a46001915050612687565b60009150505b92915050565b600061269c60008360006123eb565b9050600073ffffffffffffffffffffffffffffffffffffffff168173ffffffffffffffffffffffffffffffffffffffff160361270f57816040517f7e2732890000000000000000000000000000000000000000000000000000000081526004016127069190614785565b60405180910390fd5b5050565b60008061271e612401565b905061272a84846118a7565b1561280957600081600001600086815260200190815260200160002060000160008573ffffffffffffffffffffffffffffffffffffffff1673ffffffffffffffffffffffffffffffffffffffff16815260200190815260200160002060006101000a81548160ff0219169083151502179055506127a56123a9565b73ffffffffffffffffffffffffffffffffffffffff168373ffffffffffffffffffffffffffffffffffffffff16857ff6391f5c32d9c69d2a47ea670b442974b53935d1edc7fd64eb21e047a839171b60405160405180910390a4600191505061280f565b60009150505b92915050565b7f000000000000000000000000000000000000000000000000000000000000000073ffffffffffffffffffffffffffffffffffffffff163073ffffffffffffffffffffffffffffffffffffffff1614806128c257507f000000000000000000000000000000000000000000000000000000000000000073ffffffffffffffffffffffffffffffffffffffff166128a96133a5565b73ffffffffffffffffffffffffffffffffffffffff1614155b156128f9576040517fe07c8dba00000000000000000000000000000000000000000000000000000000815260040160405180910390fd5b565b6000801b61290881612578565b5050565b8173ffffffffffffffffffffffffffffffffffffffff166352d1902d6040518163ffffffff1660e01b8152600401602060405180830381865afa92505050801561297457506040513d601f19601f820116820180604052508101906129719190615bee565b60015b6129b557816040517f4c9c8ce30000000000000000000000000000000000000000000000000000000081526004016129ac9190614675565b60405180910390fd5b7f360894a13ba1a3210667c828492db98dca3e2076cc3735a920a3ca505d382bbc60001b8114612a1c57806040517faa1d49a4000000000000000000000000000000000000000000000000000000008152600401612a139190614865565b60405180910390fd5b612a2683836133fc565b505050565b7f000000000000000000000000000000000000000000000000000000000000000073ffffffffffffffffffffffffffffffffffffffff163073ffffffffffffffffffffffffffffffffffffffff1614612ab0576040517fe07c8dba00000000000000000000000000000000000000000000000000000000815260040160405180910390fd5b565b612acc82826040518060200160405280600081525061346f565b5050565b6000612ada6122ae565b9050600073ffffffffffffffffffffffffffffffffffffffff168373ffffffffffffffffffffffffffffffffffffffff1603612b4d57826040517f5b08ba18000000000000000000000000000000000000000000000000000000008152600401612b449190614675565b60405180910390fd5b818160050160008673ffffffffffffffffffffffffffffffffffffffff1673ffffffffffffffffffffffffffffffffffffffff16815260200190815260200160002060008573ffffffffffffffffffffffffffffffffffffffff1673ffffffffffffffffffffffffffffffffffffffff16815260200190815260200160002060006101000a81548160ff0219169083151502179055508273ffffffffffffffffffffffffffffffffffffffff168473ffffffffffffffffffffffffffffffffffffffff167f17307eab39ab6107e8899845ad3d59bd9653f200f220920489ca2b5937696c3184604051612c409190614504565b60405180910390a350505050565b60008373ffffffffffffffffffffffffffffffffffffffff163b1115612dff578273ffffffffffffffffffffffffffffffffffffffff1663150b7a02612c926123a9565b8685856040518563ffffffff1660e01b8152600401612cb49493929190615c70565b6020604051808303816000875af1925050508015612cf057506040513d601f19601f82011682018060405250810190612ced9190615cd1565b60015b612d74573d8060008114612d20576040519150601f19603f3d011682016040523d82523d6000602084013e612d25565b606091505b506000815103612d6c57836040517f64a0ae92000000000000000000000000000000000000000000000000000000008152600401612d639190614675565b60405180910390fd5b805181602001fd5b63150b7a0260e01b7bffffffffffffffffffffffffffffffffffffffffffffffffffffffff1916817bffffffffffffffffffffffffffffffffffffffffffffffffffffffff191614612dfd57836040517f64a0ae92000000000000000000000000000000000000000000000000000000008152600401612df49190614675565b60405180910390fd5b505b50505050565b60007ff0c57e16840df040f15088dc2f81fe391c3923bec73e23a9662efc9c229c6a00905090565b612e3561348b565b612e3f82826134cb565b5050565b612e4b61348b565b565b612e5561348b565b565b612e5f61348b565b565b612e6961348b565b565b60606000612e7761332c565b9050612e82836122d6565b5060008160000160008581526020019081526020016000208054612ea5906153a0565b80601f0160208091040260200160405190810160405280929190818152602001828054612ed1906153a0565b8015612f1e5780601f10612ef357610100808354040283529160200191612f1e565b820191906000526020600020905b815481529060010190602001808311612f0157829003601f168201915b505050505090506000612f2f613508565b90506000815103612f4557819350505050612f8a565b600082511115612f7b578082604051602001612f62929190615d3a565b6040516020818303038152906040529350505050612f8a565b612f848561351f565b93505050505b919050565b6000634906490660e01b7bffffffffffffffffffffffffffffffffffffffffffffffffffffffff1916827bffffffffffffffffffffffffffffffffffffffffffffffffffffffff19161480612fe95750612fe882613588565b5b9050919050565b600080612ffb6122ae565b905080600201600084815260200190815260200160002060009054906101000a900473ffffffffffffffffffffffffffffffffffffffff16915050919050565b60006130456122ae565b905081806130805750600073ffffffffffffffffffffffffffffffffffffffff168373ffffffffffffffffffffffffffffffffffffffff1614155b156131b4576000613090856122d6565b9050600073ffffffffffffffffffffffffffffffffffffffff168473ffffffffffffffffffffffffffffffffffffffff16141580156130fb57508373ffffffffffffffffffffffffffffffffffffffff168173ffffffffffffffffffffffffffffffffffffffff1614155b801561310e575061310c8185612192565b155b1561315057836040517fa9fbf51f0000000000000000000000000000000000000000000000000000000081526004016131479190614675565b60405180910390fd5b82156131b257848673ffffffffffffffffffffffffffffffffffffffff168273ffffffffffffffffffffffffffffffffffffffff167f8c5be1e5ebec7d5bd14f71427d1e84f3dd0314c0f7b2291e5b200ac8c7c3b92560405160405180910390a45b505b8481600401600086815260200190815260200160002060006101000a81548173ffffffffffffffffffffffffffffffffffffffff021916908373ffffffffffffffffffffffffffffffffffffffff1602179055505050505050565b60008061321d858585613602565b9050600073ffffffffffffffffffffffffffffffffffffffff168173ffffffffffffffffffffffffffffffffffffffff16036132615761325c8461382f565b6132a0565b8473ffffffffffffffffffffffffffffffffffffffff168173ffffffffffffffffffffffffffffffffffffffff161461329f5761329e818561388b565b5b5b600073ffffffffffffffffffffffffffffffffffffffff168573ffffffffffffffffffffffffffffffffffffffff16036132e2576132dd84613a05565b613321565b8473ffffffffffffffffffffffffffffffffffffffff168173ffffffffffffffffffffffffffffffffffffffff16146133205761331f8585613af1565b5b5b809150509392505050565b60007f0542a41881ee128a365a727b282c86fa859579490b9bb45aab8503648c8e7900905090565b61335e82826118a7565b6133a15780826040517fe2517d3f000000000000000000000000000000000000000000000000000000008152600401613398929190615d5e565b60405180910390fd5b5050565b60006133d37f360894a13ba1a3210667c828492db98dca3e2076cc3735a920a3ca505d382bbc60001b613b8d565b60000160009054906101000a900473ffffffffffffffffffffffffffffffffffffffff16905090565b61340582613b97565b8173ffffffffffffffffffffffffffffffffffffffff167fbc7cd75a20ee27fd9adebab32041f755214dbc6bffa90cc0225b39da2e5c2d3b60405160405180910390a26000815111156134625761345c8282613c64565b5061346b565b61346a613ce8565b5b5050565b6134798383613d25565b6134866000848484612c4e565b505050565b613493613e1e565b6134c9576040517fd7e6bcf800000000000000000000000000000000000000000000000000000000815260040160405180910390fd5b565b6134d361348b565b60006134dd6122ae565b9050828160000190816134f09190615763565b50818160010190816135029190615763565b50505050565b606060405180602001604052806000815250905090565b606061352a826122d6565b506000613535613508565b905060008151116135555760405180602001604052806000815250613580565b8061355f84613e3e565b604051602001613570929190615d3a565b6040516020818303038152906040525b915050919050565b60007f780e9d63000000000000000000000000000000000000000000000000000000007bffffffffffffffffffffffffffffffffffffffffffffffffffffffff1916827bffffffffffffffffffffffffffffffffffffffffffffffffffffffff191614806135fb57506135fa82613f0c565b5b9050919050565b60008061360d6122ae565b9050600061361a85612ff0565b9050600073ffffffffffffffffffffffffffffffffffffffff168473ffffffffffffffffffffffffffffffffffffffff161461365c5761365b818587613fee565b5b600073ffffffffffffffffffffffffffffffffffffffff168173ffffffffffffffffffffffffffffffffffffffff16146136ef5761369e60008660008061303b565b60018260030160008373ffffffffffffffffffffffffffffffffffffffff1673ffffffffffffffffffffffffffffffffffffffff168152602001908152602001600020600082825403925050819055505b600073ffffffffffffffffffffffffffffffffffffffff168673ffffffffffffffffffffffffffffffffffffffff16146137745760018260030160008873ffffffffffffffffffffffffffffffffffffffff1673ffffffffffffffffffffffffffffffffffffffff168152602001908152602001600020600082825401925050819055505b8582600201600087815260200190815260200160002060006101000a81548173ffffffffffffffffffffffffffffffffffffffff021916908373ffffffffffffffffffffffffffffffffffffffff160217905550848673ffffffffffffffffffffffffffffffffffffffff168273ffffffffffffffffffffffffffffffffffffffff167fddf252ad1be2c89b69c2b068fc378daa952ba7f163c4a11628f55a4df523b3ef60405160405180910390a480925050509392505050565b60006138396123c3565b9050806002018054905081600301600084815260200190815260200160002081905550806002018290806001815401808255809150506001900390600052602060002001600090919091909150555050565b60006138956123c3565b905060006138a284611535565b9050600082600101600085815260200190815260200160002054905081811461398f5760008360000160008773ffffffffffffffffffffffffffffffffffffffff1673ffffffffffffffffffffffffffffffffffffffff1681526020019081526020016000206000848152602001908152602001600020549050808460000160008873ffffffffffffffffffffffffffffffffffffffff1673ffffffffffffffffffffffffffffffffffffffff1681526020019081526020016000206000848152602001908152602001600020819055508184600101600083815260200190815260200160002081905550505b826001016000858152602001908152602001600020600090558260000160008673ffffffffffffffffffffffffffffffffffffffff1673ffffffffffffffffffffffffffffffffffffffff1681526020019081526020016000206000838152602001908152602001600020600090555050505050565b6000613a0f6123c3565b9050600060018260020180549050613a279190615d87565b905060008260030160008581526020019081526020016000205490506000836002018381548110613a5b57613a5a615526565b5b9060005260206000200154905080846002018381548110613a7f57613a7e615526565b5b906000526020600020018190555081846003016000838152602001908152602001600020819055508360030160008681526020019081526020016000206000905583600201805480613ad457613ad3615dbb565b5b600190038181906000526020600020016000905590555050505050565b6000613afb6123c3565b905060006001613b0a85611535565b613b149190615d87565b9050828260000160008673ffffffffffffffffffffffffffffffffffffffff1673ffffffffffffffffffffffffffffffffffffffff168152602001908152602001600020600083815260200190815260200160002081905550808260010160008581526020019081526020016000208190555050505050565b6000819050919050565b60008173ffffffffffffffffffffffffffffffffffffffff163b03613bf357806040517f4c9c8ce3000000000000000000000000000000000000000000000000000000008152600401613bea9190614675565b60405180910390fd5b80613c207f360894a13ba1a3210667c828492db98dca3e2076cc3735a920a3ca505d382bbc60001b613b8d565b60000160006101000a81548173ffffffffffffffffffffffffffffffffffffffff021916908373ffffffffffffffffffffffffffffffffffffffff16021790555050565b60606000808473ffffffffffffffffffffffffffffffffffffffff1684604051613c8e9190615e1b565b600060405180830381855af49150503d8060008114613cc9576040519150601f19603f3d011682016040523d82523d6000602084013e613cce565b606091505b5091509150613cde8583836140b2565b9250505092915050565b6000341115613d23576040517fb398979f00000000000000000000000000000000000000000000000000000000815260040160405180910390fd5b565b600073ffffffffffffffffffffffffffffffffffffffff168273ffffffffffffffffffffffffffffffffffffffff1603613d975760006040517f64a0ae92000000000000000000000000000000000000000000000000000000008152600401613d8e9190614675565b60405180910390fd5b6000613da5838360006123eb565b9050600073ffffffffffffffffffffffffffffffffffffffff168173ffffffffffffffffffffffffffffffffffffffff1614613e195760006040517f73c6ac6e000000000000000000000000000000000000000000000000000000008152600401613e109190614675565b60405180910390fd5b505050565b6000613e28612e05565b60000160089054906101000a900460ff16905090565b606060006001613e4d84614141565b01905060008167ffffffffffffffff811115613e6c57613e6b614885565b5b6040519080825280601f01601f191660200182016040528015613e9e5781602001600182028036833780820191505090505b509050600082602001820190505b600115613f01578080600190039150507f3031323334353637383961626364656600000000000000000000000000000000600a86061a8153600a8581613ef557613ef4615e32565b5b04945060008503613eac575b819350505050919050565b60007f80ac58cd000000000000000000000000000000000000000000000000000000007bffffffffffffffffffffffffffffffffffffffffffffffffffffffff1916827bffffffffffffffffffffffffffffffffffffffffffffffffffffffff19161480613fd757507f5b5e139f000000000000000000000000000000000000000000000000000000007bffffffffffffffffffffffffffffffffffffffffffffffffffffffff1916827bffffffffffffffffffffffffffffffffffffffffffffffffffffffff1916145b80613fe75750613fe682614294565b5b9050919050565b613ff98383836142fe565b6140ad57600073ffffffffffffffffffffffffffffffffffffffff168373ffffffffffffffffffffffffffffffffffffffff160361406e57806040517f7e2732890000000000000000000000000000000000000000000000000000000081526004016140659190614785565b60405180910390fd5b81816040517f177e802f0000000000000000000000000000000000000000000000000000000081526004016140a49291906158ac565b60405180910390fd5b505050565b6060826140c7576140c2826143bf565b614139565b600082511480156140ef575060008473ffffffffffffffffffffffffffffffffffffffff163b145b1561413157836040517f9996b3150000000000000000000000000000000000000000000000000000000081526004016141289190614675565b60405180910390fd5b81905061413a565b5b9392505050565b600080600090507a184f03e93ff9f4daa797ed6e38ed64bf6a1f010000000000000000831061419f577a184f03e93ff9f4daa797ed6e38ed64bf6a1f010000000000000000838161419557614194615e32565b5b0492506040810190505b6d04ee2d6d415b85acef810000000083106141dc576d04ee2d6d415b85acef810000000083816141d2576141d1615e32565b5b0492506020810190505b662386f26fc10000831061420b57662386f26fc10000838161420157614200615e32565b5b0492506010810190505b6305f5e1008310614234576305f5e100838161422a57614229615e32565b5b0492506008810190505b612710831061425957612710838161424f5761424e615e32565b5b0492506004810190505b6064831061427c576064838161427257614271615e32565b5b0492506002810190505b600a831061428b576001810190505b80915050919050565b60007f01ffc9a7000000000000000000000000000000000000000000000000000000007bffffffffffffffffffffffffffffffffffffffffffffffffffffffff1916827bffffffffffffffffffffffffffffffffffffffffffffffffffffffff1916149050919050565b60008073ffffffffffffffffffffffffffffffffffffffff168373ffffffffffffffffffffffffffffffffffffffff16141580156143b657508273ffffffffffffffffffffffffffffffffffffffff168473ffffffffffffffffffffffffffffffffffffffff16148061437757506143768484612192565b5b806143b557508273ffffffffffffffffffffffffffffffffffffffff1661439d8361235e565b73ffffffffffffffffffffffffffffffffffffffff16145b5b90509392505050565b6000815111156143d25780518082602001fd5b6040517f1425ea4200000000000000000000000000000000000000000000000000000000815260040160405180910390fd5b60405180604001604052806000815260200161441e614424565b81525090565b60405180608001604052806060815260200160008152602001600061ffff168152602001606081525090565b6000604051905090565b600080fd5b600080fd5b60007fffffffff0000000000000000000000000000000000000000000000000000000082169050919050565b61449981614464565b81146144a457600080fd5b50565b6000813590506144b681614490565b92915050565b6000602082840312156144d2576144d161445a565b5b60006144e0848285016144a7565b91505092915050565b60008115159050919050565b6144fe816144e9565b82525050565b600060208201905061451960008301846144f5565b92915050565b600081519050919050565b600082825260208201905092915050565b60005b8381101561455957808201518184015260208101905061453e565b60008484015250505050565b6000601f19601f8301169050919050565b60006145818261451f565b61458b818561452a565b935061459b81856020860161453b565b6145a481614565565b840191505092915050565b600060208201905081810360008301526145c98184614576565b905092915050565b6000819050919050565b6145e4816145d1565b81146145ef57600080fd5b50565b600081359050614601816145db565b92915050565b60006020828403121561461d5761461c61445a565b5b600061462b848285016145f2565b91505092915050565b600073ffffffffffffffffffffffffffffffffffffffff82169050919050565b600061465f82614634565b9050919050565b61466f81614654565b82525050565b600060208201905061468a6000830184614666565b92915050565b61469981614654565b81146146a457600080fd5b50565b6000813590506146b681614690565b92915050565b600080604083850312156146d3576146d261445a565b5b60006146e1858286016146a7565b92505060206146f2858286016145f2565b9150509250929050565b6000819050919050565b600061472161471c61471784614634565b6146fc565b614634565b9050919050565b600061473382614706565b9050919050565b600061474582614728565b9050919050565b6147558161473a565b82525050565b6000602082019050614770600083018461474c565b92915050565b61477f816145d1565b82525050565b600060208201905061479a6000830184614776565b92915050565b6000806000606084860312156147b9576147b861445a565b5b60006147c7868287016146a7565b93505060206147d8868287016146a7565b92505060406147e9868287016145f2565b9150509250925092565b6000819050919050565b614806816147f3565b811461481157600080fd5b50565b600081359050614823816147fd565b92915050565b60006020828403121561483f5761483e61445a565b5b600061484d84828501614814565b91505092915050565b61485f816147f3565b82525050565b600060208201905061487a6000830184614856565b92915050565b600080fd5b7f4e487b7100000000000000000000000000000000000000000000000000000000600052604160045260246000fd5b6148bd82614565565b810181811067ffffffffffffffff821117156148dc576148db614885565b5b80604052505050565b60006148ef614450565b90506148fb82826148b4565b919050565b600067ffffffffffffffff82111561491b5761491a614885565b5b602082029050602081019050919050565b600080fd5b600061494461493f84614900565b6148e5565b905080838252602082019050602084028301858111156149675761496661492c565b5b835b81811015614990578061497c88826145f2565b845260208401935050602081019050614969565b5050509392505050565b600082601f8301126149af576149ae614880565b5b81356149bf848260208601614931565b91505092915050565b600067ffffffffffffffff8211156149e3576149e2614885565b5b602082029050602081019050919050565b600080fd5b600067ffffffffffffffff821115614a1457614a13614885565b5b614a1d82614565565b9050602081019050919050565b82818337600083830152505050565b6000614a4c614a47846149f9565b6148e5565b905082815260208101848484011115614a6857614a676149f4565b5b614a73848285614a2a565b509392505050565b600082601f830112614a9057614a8f614880565b5b8135614aa0848260208601614a39565b91505092915050565b6000614abc614ab7846149c8565b6148e5565b90508083825260208201905060208402830185811115614adf57614ade61492c565b5b835b81811015614b2657803567ffffffffffffffff811115614b0457614b03614880565b5b808601614b118982614a7b565b85526020850194505050602081019050614ae1565b5050509392505050565b600082601f830112614b4557614b44614880565b5b8135614b55848260208601614aa9565b91505092915050565b60008060408385031215614b7557614b7461445a565b5b600083013567ffffffffffffffff811115614b9357614b9261445f565b5b614b9f8582860161499a565b925050602083013567ffffffffffffffff811115614bc057614bbf61445f565b5b614bcc85828601614b30565b9150509250929050565b60008060408385031215614bed57614bec61445a565b5b6000614bfb85828601614814565b9250506020614c0c858286016146a7565b9150509250929050565b600061ffff82169050919050565b614c2d81614c16565b8114614c3857600080fd5b50565b600081359050614c4a81614c24565b92915050565b60008060408385031215614c6757614c6661445a565b5b600083013567ffffffffffffffff811115614c8557614c8461445f565b5b614c918582860161499a565b9250506020614ca285828601614c3b565b9150509250929050565b600081519050919050565b600082825260208201905092915050565b6000819050602082019050919050565b614ce1816145d1565b82525050565b6000614cf38383614cd8565b60208301905092915050565b6000602082019050919050565b6000614d1782614cac565b614d218185614cb7565b9350614d2c83614cc8565b8060005b83811015614d5d578151614d448882614ce7565b9750614d4f83614cff565b925050600181019050614d30565b5085935050505092915050565b60006020820190508181036000830152614d848184614d0c565b905092915050565b600067ffffffffffffffff821115614da757614da6614885565b5b614db082614565565b9050602081019050919050565b6000614dd0614dcb84614d8c565b6148e5565b905082815260208101848484011115614dec57614deb6149f4565b5b614df7848285614a2a565b509392505050565b600082601f830112614e1457614e13614880565b5b8135614e24848260208601614dbd565b91505092915050565b60008060408385031215614e4457614e4361445a565b5b6000614e52858286016146a7565b925050602083013567ffffffffffffffff811115614e7357614e7261445f565b5b614e7f85828601614dff565b9150509250929050565b600060208284031215614e9f57614e9e61445a565b5b6000614ead848285016146a7565b91505092915050565b600081519050919050565b600082825260208201905092915050565b6000819050602082019050919050565b600082825260208201905092915050565b6000614efe8261451f565b614f088185614ee2565b9350614f1881856020860161453b565b614f2181614565565b840191505092915050565b614f3581614c16565b82525050565b60006080830160008301518482036000860152614f588282614ef3565b9150506020830151614f6d6020860182614cd8565b506040830151614f806040860182614f2c565b5060608301518482036060860152614f988282614ef3565b9150508091505092915050565b6000604083016000830151614fbd6000860182614cd8565b5060208301518482036020860152614fd58282614f3b565b9150508091505092915050565b6000614fee8383614fa5565b905092915050565b6000602082019050919050565b600061500e82614eb6565b6150188185614ec1565b93508360208202850161502a85614ed2565b8060005b8581101561506657848403895281516150478582614fe2565b945061505283614ff6565b925060208a0199505060018101905061502e565b50829750879550505050505092915050565b600060208201905081810360008301526150928184615003565b905092915050565b6150a3816144e9565b81146150ae57600080fd5b50565b6000813590506150c08161509a565b92915050565b600080604083850312156150dd576150dc61445a565b5b60006150eb858286016146a7565b92505060206150fc858286016150b1565b9150509250929050565b600080600080608085870312156151205761511f61445a565b5b600061512e878288016146a7565b945050602061513f878288016146a7565b9350506040615150878288016145f2565b925050606085013567ffffffffffffffff8111156151715761517061445f565b5b61517d87828801614dff565b91505092959194509250565b61519281614c16565b82525050565b600060808201905081810360008301526151b28187614576565b90506151c16020830186614776565b6151ce6040830185615189565b81810360608301526151e08184614576565b905095945050505050565b6000806000606084860312156152045761520361445a565b5b6000615212868287016146a7565b9350506020615223868287016146a7565b9250506040615234868287016146a7565b9150509250925092565b600080604083850312156152555761525461445a565b5b6000615263858286016146a7565b925050602083013567ffffffffffffffff8111156152845761528361445f565b5b61529085828601614a7b565b9150509250929050565b60006152a582614706565b9050919050565b60006152b78261529a565b9050919050565b6152c7816152ac565b82525050565b60006020820190506152e260008301846152be565b92915050565b6000602082840312156152fe576152fd61445a565b5b600082013567ffffffffffffffff81111561531c5761531b61445f565b5b6153288482850161499a565b91505092915050565b600080604083850312156153485761534761445a565b5b6000615356858286016146a7565b9250506020615367858286016146a7565b9150509250929050565b7f4e487b7100000000000000000000000000000000000000000000000000000000600052602260045260246000fd5b600060028204905060018216806153b857607f821691505b6020821081036153cb576153ca615371565b5b50919050565b60006060820190506153e66000830186614666565b6153f36020830185614776565b6154006040830184614666565b949350505050565b7f417272617973206d7573742068617665207468652073616d65206c656e677468600082015250565b600061543e60208361452a565b915061544982615408565b602082019050919050565b6000602082019050818103600083015261546d81615431565b9050919050565b600081905092915050565b50565b600061548f600083615474565b915061549a8261547f565b600082019050919050565b60006154b082615482565b9150819050919050565b7f4661696c656420746f2073656e6420457468657220746f205472656173757279600082015250565b60006154f060208361452a565b91506154fb826154ba565b602082019050919050565b6000602082019050818103600083015261551f816154e3565b9050919050565b7f4e487b7100000000000000000000000000000000000000000000000000000000600052603260045260246000fd5b7f4974656d7320646f206e6f742065786973740000000000000000000000000000600082015250565b600061558b60128361452a565b915061559682615555565b602082019050919050565b600060208201905081810360008301526155ba8161557e565b9050919050565b60008190508160005260206000209050919050565b60006020601f8301049050919050565b600082821b905092915050565b6000600883026156237fffffffffffffffffffffffffffffffffffffffffffffffffffffffffffffffff826155e6565b61562d86836155e6565b95508019841693508086168417925050509392505050565b600061566061565b615656846145d1565b6146fc565b6145d1565b9050919050565b6000819050919050565b61567a83615645565b61568e61568682615667565b8484546155f3565b825550505050565b600090565b6156a3615696565b6156ae818484615671565b505050565b5b818110156156d2576156c760008261569b565b6001810190506156b4565b5050565b601f821115615717576156e8816155c1565b6156f1846155d6565b81016020851015615700578190505b61571461570c856155d6565b8301826156b3565b50505b505050565b600082821c905092915050565b600061573a6000198460080261571c565b1980831691505092915050565b60006157538383615729565b9150826002028217905092915050565b61576c8261451f565b67ffffffffffffffff81111561578557615784614885565b5b61578f82546153a0565b61579a8282856156d6565b600060209050601f8311600181146157cd57600084156157bb578287015190505b6157c58582615747565b86555061582d565b601f1984166157db866155c1565b60005b82811015615803578489015182556001820191506020850194506020810190506157de565b86831015615820578489015161581c601f891682615729565b8355505b6001600288020188555050505b505050505050565b7f4e487b7100000000000000000000000000000000000000000000000000000000600052601160045260246000fd5b600061586f826145d1565b91507fffffffffffffffffffffffffffffffffffffffffffffffffffffffffffffffff82036158a1576158a0615835565b5b600182019050919050565b60006040820190506158c16000830185614666565b6158ce6020830184614776565b9392505050565b60006158e082614c16565b91506158eb83614c16565b9250828203905061ffff81111561590557615904615835565b5b92915050565b60008151905061591a816145db565b92915050565b6000602082840312156159365761593561445a565b5b60006159448482850161590b565b91505092915050565b600061596061595b846149f9565b6148e5565b90508281526020810184848401111561597c5761597b6149f4565b5b61598784828561453b565b509392505050565b600082601f8301126159a4576159a3614880565b5b81516159b484826020860161594d565b91505092915050565b6000602082840312156159d3576159d261445a565b5b600082015167ffffffffffffffff8111156159f1576159f061445f565b5b6159fd8482850161598f565b91505092915050565b6000819050919050565b600067ffffffffffffffff82169050919050565b6000615a3f615a3a615a3584615a06565b6146fc565b615a10565b9050919050565b615a4f81615a24565b82525050565b6000602082019050615a6a6000830184615a46565b92915050565b7f43616c6c6572206973206e6f7420746865206f776e6572206f6620746865206960008201527f74656d0000000000000000000000000000000000000000000000000000000000602082015250565b6000615acc60238361452a565b9150615ad782615a70565b604082019050919050565b60006020820190508181036000830152615afb81615abf565b9050919050565b60008154615b0f816153a0565b615b19818661452a565b94506001821660008114615b345760018114615b4a57615b7d565b60ff198316865281151560200286019350615b7d565b615b53856155c1565b60005b83811015615b7557815481890152600182019150602081019050615b56565b808801955050505b50505092915050565b60006080820190508181036000830152615ba08187615b02565b9050615baf6020830186614776565b615bbc6040830185615189565b8181036060830152615bce8184615b02565b905095945050505050565b600081519050615be8816147fd565b92915050565b600060208284031215615c0457615c0361445a565b5b6000615c1284828501615bd9565b91505092915050565b600081519050919050565b600082825260208201905092915050565b6000615c4282615c1b565b615c4c8185615c26565b9350615c5c81856020860161453b565b615c6581614565565b840191505092915050565b6000608082019050615c856000830187614666565b615c926020830186614666565b615c9f6040830185614776565b8181036060830152615cb18184615c37565b905095945050505050565b600081519050615ccb81614490565b92915050565b600060208284031215615ce757615ce661445a565b5b6000615cf584828501615cbc565b91505092915050565b600081905092915050565b6000615d148261451f565b615d1e8185615cfe565b9350615d2e81856020860161453b565b80840191505092915050565b6000615d468285615d09565b9150615d528284615d09565b91508190509392505050565b6000604082019050615d736000830185614666565b615d806020830184614856565b9392505050565b6000615d92826145d1565b9150615d9d836145d1565b9250828203905081811115615db557615db4615835565b5b92915050565b7f4e487b7100000000000000000000000000000000000000000000000000000000600052603160045260246000fd5b6000615df582615c1b565b615dff8185615474565b9350615e0f81856020860161453b565b80840191505092915050565b6000615e278284615dea565b915081905092915050565b7f4e487b7100000000000000000000000000000000000000000000000000000000600052601260045260246000fdfea26469706673582212201597da42bed31ea937ed63838480ad775584c6fbd9c96e45397cb6fc61adae1264736f6c63430008140033",
  "linkReferences": {},
  "deployedLinkReferences": {}
}