{
  "_format": "hh-sol-artifact-1",
  "contractName": "MintBox",
  "sourceName": "contracts/MintBox.sol",
  "abi": [
    {
      "inputs": [],
      "stateMutability": "nonpayable",
      "type": "constructor"
    },
    {
      "inputs": [],
      "name": "AccessControlBadConfirmation",
      "type": "error"
    },
    {
      "inputs": [
        {
          "internalType": "address",
          "name": "account",
          "type": "address"
        },
        {
          "internalType": "bytes32",
          "name": "neededRole",
          "type": "bytes32"
        }
      ],
      "name": "AccessControlUnauthorizedAccount",
      "type": "error"
    },
    {
      "inputs": [
        {
          "internalType": "address",
          "name": "target",
          "type": "address"
        }
      ],
      "name": "AddressEmptyCode",
      "type": "error"
    },
    {
      "inputs": [
        {
          "internalType": "address",
          "name": "implementation",
          "type": "address"
        }
      ],
      "name": "ERC1967InvalidImplementation",
      "type": "error"
    },
    {
      "inputs": [],
      "name": "ERC1967NonPayable",
      "type": "error"
    },
    {
      "inputs": [],
      "name": "ERC721EnumerableForbiddenBatchMint",
      "type": "error"
    },
    {
      "inputs": [
        {
          "internalType": "address",
          "name": "sender",
          "type": "address"
        },
        {
          "internalType": "uint256",
          "name": "tokenId",
          "type": "uint256"
        },
        {
          "internalType": "address",
          "name": "owner",
          "type": "address"
        }
      ],
      "name": "ERC721IncorrectOwner",
      "type": "error"
    },
    {
      "inputs": [
        {
          "internalType": "address",
          "name": "operator",
          "type": "address"
        },
        {
          "internalType": "uint256",
          "name": "tokenId",
          "type": "uint256"
        }
      ],
      "name": "ERC721InsufficientApproval",
      "type": "error"
    },
    {
      "inputs": [
        {
          "internalType": "address",
          "name": "approver",
          "type": "address"
        }
      ],
      "name": "ERC721InvalidApprover",
      "type": "error"
    },
    {
      "inputs": [
        {
          "internalType": "address",
          "name": "operator",
          "type": "address"
        }
      ],
      "name": "ERC721InvalidOperator",
      "type": "error"
    },
    {
      "inputs": [
        {
          "internalType": "address",
          "name": "owner",
          "type": "address"
        }
      ],
      "name": "ERC721InvalidOwner",
      "type": "error"
    },
    {
      "inputs": [
        {
          "internalType": "address",
          "name": "receiver",
          "type": "address"
        }
      ],
      "name": "ERC721InvalidReceiver",
      "type": "error"
    },
    {
      "inputs": [
        {
          "internalType": "address",
          "name": "sender",
          "type": "address"
        }
      ],
      "name": "ERC721InvalidSender",
      "type": "error"
    },
    {
      "inputs": [
        {
          "internalType": "uint256",
          "name": "tokenId",
          "type": "uint256"
        }
      ],
      "name": "ERC721NonexistentToken",
      "type": "error"
    },
    {
      "inputs": [
        {
          "internalType": "address",
          "name": "owner",
          "type": "address"
        },
        {
          "internalType": "uint256",
          "name": "index",
          "type": "uint256"
        }
      ],
      "name": "ERC721OutOfBoundsIndex",
      "type": "error"
    },
    {
      "inputs": [],
      "name": "EnforcedPause",
      "type": "error"
    },
    {
      "inputs": [],
      "name": "ExpectedPause",
      "type": "error"
    },
    {
      "inputs": [],
      "name": "FailedInnerCall",
      "type": "error"
    },
    {
      "inputs": [],
      "name": "InvalidInitialization",
      "type": "error"
    },
    {
      "inputs": [],
      "name": "NotInitializing",
      "type": "error"
    },
    {
      "inputs": [],
      "name": "UUPSUnauthorizedCallContext",
      "type": "error"
    },
    {
      "inputs": [
        {
          "internalType": "bytes32",
          "name": "slot",
          "type": "bytes32"
        }
      ],
      "name": "UUPSUnsupportedProxiableUUID",
      "type": "error"
    },
    {
      "anonymous": false,
      "inputs": [
        {
          "indexed": true,
          "internalType": "address",
          "name": "owner",
          "type": "address"
        },
        {
          "indexed": true,
          "internalType": "address",
          "name": "approved",
          "type": "address"
        },
        {
          "indexed": true,
          "internalType": "uint256",
          "name": "tokenId",
          "type": "uint256"
        }
      ],
      "name": "Approval",
      "type": "event"
    },
    {
      "anonymous": false,
      "inputs": [
        {
          "indexed": true,
          "internalType": "address",
          "name": "owner",
          "type": "address"
        },
        {
          "indexed": true,
          "internalType": "address",
          "name": "operator",
          "type": "address"
        },
        {
          "indexed": false,
          "internalType": "bool",
          "name": "approved",
          "type": "bool"
        }
      ],
      "name": "ApprovalForAll",
      "type": "event"
    },
    {
      "anonymous": false,
      "inputs": [
        {
          "indexed": false,
          "internalType": "uint256",
          "name": "_fromTokenId",
          "type": "uint256"
        },
        {
          "indexed": false,
          "internalType": "uint256",
          "name": "_toTokenId",
          "type": "uint256"
        }
      ],
      "name": "BatchMetadataUpdate",
      "type": "event"
    },
    {
      "anonymous": false,
      "inputs": [
        {
          "indexed": true,
          "internalType": "address",
          "name": "user",
          "type": "address"
        },
        {
          "indexed": false,
          "internalType": "uint256",
          "name": "tokenId",
          "type": "uint256"
        },
        {
          "indexed": false,
          "internalType": "string",
          "name": "name",
          "type": "string"
        },
        {
          "indexed": false,
          "internalType": "string",
          "name": "itemType",
          "type": "string"
        }
      ],
      "name": "BoxMinted",
      "type": "event"
    },
    {
      "anonymous": false,
      "inputs": [
        {
          "indexed": false,
          "internalType": "uint64",
          "name": "version",
          "type": "uint64"
        }
      ],
      "name": "Initialized",
      "type": "event"
    },
    {
      "anonymous": false,
      "inputs": [
        {
          "indexed": true,
          "internalType": "address",
          "name": "user",
          "type": "address"
        },
        {
          "indexed": false,
          "internalType": "uint256[]",
          "name": "itemIds",
          "type": "uint256[]"
        },
        {
          "indexed": false,
          "internalType": "string[]",
          "name": "uris",
          "type": "string[]"
        }
      ],
      "name": "ItemsProcessed",
      "type": "event"
    },
    {
      "anonymous": false,
      "inputs": [
        {
          "indexed": false,
          "internalType": "uint256",
          "name": "_tokenId",
          "type": "uint256"
        }
      ],
      "name": "MetadataUpdate",
      "type": "event"
    },
    {
      "anonymous": false,
      "inputs": [
        {
          "indexed": false,
          "internalType": "address",
          "name": "account",
          "type": "address"
        }
      ],
      "name": "Paused",
      "type": "event"
    },
    {
      "anonymous": false,
      "inputs": [
        {
          "indexed": true,
          "internalType": "bytes32",
          "name": "role",
          "type": "bytes32"
        },
        {
          "indexed": true,
          "internalType": "bytes32",
          "name": "previousAdminRole",
          "type": "bytes32"
        },
        {
          "indexed": true,
          "internalType": "bytes32",
          "name": "newAdminRole",
          "type": "bytes32"
        }
      ],
      "name": "RoleAdminChanged",
      "type": "event"
    },
    {
      "anonymous": false,
      "inputs": [
        {
          "indexed": true,
          "internalType": "bytes32",
          "name": "role",
          "type": "bytes32"
        },
        {
          "indexed": true,
          "internalType": "address",
          "name": "account",
          "type": "address"
        },
        {
          "indexed": true,
          "internalType": "address",
          "name": "sender",
          "type": "address"
        }
      ],
      "name": "RoleGranted",
      "type": "event"
    },
    {
      "anonymous": false,
      "inputs": [
        {
          "indexed": true,
          "internalType": "bytes32",
          "name": "role",
          "type": "bytes32"
        },
        {
          "indexed": true,
          "internalType": "address",
          "name": "account",
          "type": "address"
        },
        {
          "indexed": true,
          "internalType": "address",
          "name": "sender",
          "type": "address"
        }
      ],
      "name": "RoleRevoked",
      "type": "event"
    },
    {
      "anonymous": false,
      "inputs": [
        {
          "indexed": true,
          "internalType": "address",
          "name": "from",
          "type": "address"
        },
        {
          "indexed": true,
          "internalType": "address",
          "name": "to",
          "type": "address"
        },
        {
          "indexed": true,
          "internalType": "uint256",
          "name": "tokenId",
          "type": "uint256"
        }
      ],
      "name": "Transfer",
      "type": "event"
    },
    {
      "anonymous": false,
      "inputs": [
        {
          "indexed": false,
          "internalType": "address",
          "name": "account",
          "type": "address"
        }
      ],
      "name": "Unpaused",
      "type": "event"
    },
    {
      "anonymous": false,
      "inputs": [
        {
          "indexed": true,
          "internalType": "address",
          "name": "implementation",
          "type": "address"
        }
      ],
      "name": "Upgraded",
      "type": "event"
    },
    {
      "inputs": [],
      "name": "DEFAULT_ADMIN_ROLE",
      "outputs": [
        {
          "internalType": "bytes32",
          "name": "",
          "type": "bytes32"
        }
      ],
      "stateMutability": "view",
      "type": "function"
    },
    {
      "inputs": [],
      "name": "MINTER_ROLE",
      "outputs": [
        {
          "internalType": "bytes32",
          "name": "",
          "type": "bytes32"
        }
      ],
      "stateMutability": "view",
      "type": "function"
    },
    {
      "inputs": [],
      "name": "PAUSER_ROLE",
      "outputs": [
        {
          "internalType": "bytes32",
          "name": "",
          "type": "bytes32"
        }
      ],
      "stateMutability": "view",
      "type": "function"
    },
    {
      "inputs": [],
      "name": "UPGRADER_ROLE",
      "outputs": [
        {
          "internalType": "bytes32",
          "name": "",
          "type": "bytes32"
        }
      ],
      "stateMutability": "view",
      "type": "function"
    },
    {
      "inputs": [],
      "name": "UPGRADE_INTERFACE_VERSION",
      "outputs": [
        {
          "internalType": "string",
          "name": "",
          "type": "string"
        }
      ],
      "stateMutability": "view",
      "type": "function"
    },
    {
      "inputs": [
        {
          "internalType": "address",
          "name": "to",
          "type": "address"
        },
        {
          "internalType": "uint256",
          "name": "tokenId",
          "type": "uint256"
        }
      ],
      "name": "approve",
      "outputs": [],
      "stateMutability": "nonpayable",
      "type": "function"
    },
    {
      "inputs": [
        {
          "internalType": "address",
          "name": "owner",
          "type": "address"
        }
      ],
      "name": "balanceOf",
      "outputs": [
        {
          "internalType": "uint256",
          "name": "",
          "type": "uint256"
        }
      ],
      "stateMutability": "view",
      "type": "function"
    },
    {
      "inputs": [
        {
          "internalType": "uint256",
          "name": "tokenId",
          "type": "uint256"
        }
      ],
      "name": "burn",
      "outputs": [],
      "stateMutability": "nonpayable",
      "type": "function"
    },
    {
      "inputs": [],
      "name": "gameTreasury",
      "outputs": [
        {
          "internalType": "contract GameTreasury",
          "name": "",
          "type": "address"
        }
      ],
      "stateMutability": "view",
      "type": "function"
    },
    {
      "inputs": [
        {
          "internalType": "uint256",
          "name": "tokenId",
          "type": "uint256"
        }
      ],
      "name": "getApproved",
      "outputs": [
        {
          "internalType": "address",
          "name": "",
          "type": "address"
        }
      ],
      "stateMutability": "view",
      "type": "function"
    },
    {
      "inputs": [
        {
          "internalType": "uint256",
          "name": "tokenId",
          "type": "uint256"
        }
      ],
      "name": "getBoxMetadata",
      "outputs": [
        {
          "internalType": "string",
          "name": "",
          "type": "string"
        },
        {
          "internalType": "string",
          "name": "",
          "type": "string"
        }
      ],
      "stateMutability": "view",
      "type": "function"
    },
    {
      "inputs": [
        {
          "internalType": "address",
          "name": "owner",
          "type": "address"
        }
      ],
      "name": "getBoxesByOwner",
      "outputs": [
        {
          "components": [
            {
              "internalType": "uint256",
              "name": "id",
              "type": "uint256"
            },
            {
              "internalType": "string",
              "name": "name",
              "type": "string"
            },
            {
              "internalType": "string",
              "name": "imageURI",
              "type": "string"
            }
          ],
          "internalType": "struct MintBox.BoxDetails[]",
          "name": "",
          "type": "tuple[]"
        }
      ],
      "stateMutability": "view",
      "type": "function"
    },
    {
      "inputs": [
        {
          "internalType": "bytes32",
          "name": "role",
          "type": "bytes32"
        }
      ],
      "name": "getRoleAdmin",
      "outputs": [
        {
          "internalType": "bytes32",
          "name": "",
          "type": "bytes32"
        }
      ],
      "stateMutability": "view",
      "type": "function"
    },
    {
      "inputs": [
        {
          "internalType": "bytes32",
          "name": "role",
          "type": "bytes32"
        },
        {
          "internalType": "address",
          "name": "account",
          "type": "address"
        }
      ],
      "name": "grantRole",
      "outputs": [],
      "stateMutability": "nonpayable",
      "type": "function"
    },
    {
      "inputs": [
        {
          "internalType": "bytes32",
          "name": "role",
          "type": "bytes32"
        },
        {
          "internalType": "address",
          "name": "account",
          "type": "address"
        }
      ],
      "name": "hasRole",
      "outputs": [
        {
          "internalType": "bool",
          "name": "",
          "type": "bool"
        }
      ],
      "stateMutability": "view",
      "type": "function"
    },
    {
      "inputs": [
        {
          "internalType": "address",
          "name": "defaultAdmin",
          "type": "address"
        },
        {
          "internalType": "address",
          "name": "upgrader",
          "type": "address"
        },
        {
          "internalType": "address",
          "name": "_itemContractAddress",
          "type": "address"
        },
        {
          "internalType": "address",
          "name": "_gameTreasuryAddress",
          "type": "address"
        }
      ],
      "name": "initialize",
      "outputs": [],
      "stateMutability": "nonpayable",
      "type": "function"
    },
    {
      "inputs": [
        {
          "internalType": "address",
          "name": "owner",
          "type": "address"
        },
        {
          "internalType": "address",
          "name": "operator",
          "type": "address"
        }
      ],
      "name": "isApprovedForAll",
      "outputs": [
        {
          "internalType": "bool",
          "name": "",
          "type": "bool"
        }
      ],
      "stateMutability": "view",
      "type": "function"
    },
    {
      "inputs": [],
      "name": "itemContract",
      "outputs": [
        {
          "internalType": "contract MintItem",
          "name": "",
          "type": "address"
        }
      ],
      "stateMutability": "view",
      "type": "function"
    },
    {
      "inputs": [
        {
          "internalType": "address",
          "name": "to",
          "type": "address"
        },
        {
          "internalType": "string",
          "name": "name",
          "type": "string"
        },
        {
          "internalType": "string",
          "name": "itemType",
          "type": "string"
        },
        {
          "internalType": "uint256",
          "name": "numberOfBoxes",
          "type": "uint256"
        }
      ],
      "name": "mintMultipleBoxes",
      "outputs": [
        {
          "internalType": "uint256[]",
          "name": "",
          "type": "uint256[]"
        }
      ],
      "stateMutability": "payable",
      "type": "function"
    },
    {
      "inputs": [],
      "name": "name",
      "outputs": [
        {
          "internalType": "string",
          "name": "",
          "type": "string"
        }
      ],
      "stateMutability": "view",
      "type": "function"
    },
    {
      "inputs": [
        {
          "internalType": "uint256[]",
          "name": "boxIds",
          "type": "uint256[]"
        }
      ],
      "name": "openBoxes",
      "outputs": [],
      "stateMutability": "nonpayable",
      "type": "function"
    },
    {
      "inputs": [
        {
          "internalType": "uint256",
          "name": "tokenId",
          "type": "uint256"
        }
      ],
      "name": "ownerOf",
      "outputs": [
        {
          "internalType": "address",
          "name": "",
          "type": "address"
        }
      ],
      "stateMutability": "view",
      "type": "function"
    },
    {
      "inputs": [],
      "name": "pause",
      "outputs": [],
      "stateMutability": "nonpayable",
      "type": "function"
    },
    {
      "inputs": [],
      "name": "paused",
      "outputs": [
        {
          "internalType": "bool",
          "name": "",
          "type": "bool"
        }
      ],
      "stateMutability": "view",
      "type": "function"
    },
    {
      "inputs": [],
      "name": "proxiableUUID",
      "outputs": [
        {
          "internalType": "bytes32",
          "name": "",
          "type": "bytes32"
        }
      ],
      "stateMutability": "view",
      "type": "function"
    },
    {
      "inputs": [
        {
          "internalType": "bytes32",
          "name": "role",
          "type": "bytes32"
        },
        {
          "internalType": "address",
          "name": "callerConfirmation",
          "type": "address"
        }
      ],
      "name": "renounceRole",
      "outputs": [],
      "stateMutability": "nonpayable",
      "type": "function"
    },
    {
      "inputs": [
        {
          "internalType": "bytes32",
          "name": "role",
          "type": "bytes32"
        },
        {
          "internalType": "address",
          "name": "account",
          "type": "address"
        }
      ],
      "name": "revokeRole",
      "outputs": [],
      "stateMutability": "nonpayable",
      "type": "function"
    },
    {
      "inputs": [
        {
          "internalType": "address",
          "name": "to",
          "type": "address"
        },
        {
          "internalType": "string",
          "name": "uri",
          "type": "string"
        }
      ],
      "name": "safeMint",
      "outputs": [],
      "stateMutability": "nonpayable",
      "type": "function"
    },
    {
      "inputs": [
        {
          "internalType": "address",
          "name": "from",
          "type": "address"
        },
        {
          "internalType": "address",
          "name": "to",
          "type": "address"
        },
        {
          "internalType": "uint256",
          "name": "tokenId",
          "type": "uint256"
        }
      ],
      "name": "safeTransferFrom",
      "outputs": [],
      "stateMutability": "nonpayable",
      "type": "function"
    },
    {
      "inputs": [
        {
          "internalType": "address",
          "name": "from",
          "type": "address"
        },
        {
          "internalType": "address",
          "name": "to",
          "type": "address"
        },
        {
          "internalType": "uint256",
          "name": "tokenId",
          "type": "uint256"
        },
        {
          "internalType": "bytes",
          "name": "data",
          "type": "bytes"
        }
      ],
      "name": "safeTransferFrom",
      "outputs": [],
      "stateMutability": "nonpayable",
      "type": "function"
    },
    {
      "inputs": [
        {
          "internalType": "address",
          "name": "operator",
          "type": "address"
        },
        {
          "internalType": "bool",
          "name": "approved",
          "type": "bool"
        }
      ],
      "name": "setApprovalForAll",
      "outputs": [],
      "stateMutability": "nonpayable",
      "type": "function"
    },
    {
      "inputs": [
        {
          "internalType": "address",
          "name": "_gameTreasuryAddress",
          "type": "address"
        }
      ],
      "name": "setGameTreasuryAddress",
      "outputs": [],
      "stateMutability": "nonpayable",
      "type": "function"
    },
    {
      "inputs": [
        {
          "internalType": "address",
          "name": "_newItemContractAddress",
          "type": "address"
        }
      ],
      "name": "setMintItemContractAddress",
      "outputs": [],
      "stateMutability": "nonpayable",
      "type": "function"
    },
    {
      "inputs": [
        {
          "internalType": "bytes4",
          "name": "interfaceId",
          "type": "bytes4"
        }
      ],
      "name": "supportsInterface",
      "outputs": [
        {
          "internalType": "bool",
          "name": "",
          "type": "bool"
        }
      ],
      "stateMutability": "view",
      "type": "function"
    },
    {
      "inputs": [],
      "name": "symbol",
      "outputs": [
        {
          "internalType": "string",
          "name": "",
          "type": "string"
        }
      ],
      "stateMutability": "view",
      "type": "function"
    },
    {
      "inputs": [
        {
          "internalType": "uint256",
          "name": "index",
          "type": "uint256"
        }
      ],
      "name": "tokenByIndex",
      "outputs": [
        {
          "internalType": "uint256",
          "name": "",
          "type": "uint256"
        }
      ],
      "stateMutability": "view",
      "type": "function"
    },
    {
      "inputs": [
        {
          "internalType": "address",
          "name": "owner",
          "type": "address"
        },
        {
          "internalType": "uint256",
          "name": "index",
          "type": "uint256"
        }
      ],
      "name": "tokenOfOwnerByIndex",
      "outputs": [
        {
          "internalType": "uint256",
          "name": "",
          "type": "uint256"
        }
      ],
      "stateMutability": "view",
      "type": "function"
    },
    {
      "inputs": [
        {
          "internalType": "uint256",
          "name": "tokenId",
          "type": "uint256"
        }
      ],
      "name": "tokenURI",
      "outputs": [
        {
          "internalType": "string",
          "name": "",
          "type": "string"
        }
      ],
      "stateMutability": "view",
      "type": "function"
    },
    {
      "inputs": [],
      "name": "totalSupply",
      "outputs": [
        {
          "internalType": "uint256",
          "name": "",
          "type": "uint256"
        }
      ],
      "stateMutability": "view",
      "type": "function"
    },
    {
      "inputs": [
        {
          "internalType": "address",
          "name": "from",
          "type": "address"
        },
        {
          "internalType": "address",
          "name": "to",
          "type": "address"
        },
        {
          "internalType": "uint256",
          "name": "tokenId",
          "type": "uint256"
        }
      ],
      "name": "transferFrom",
      "outputs": [],
      "stateMutability": "nonpayable",
      "type": "function"
    },
    {
      "inputs": [],
      "name": "unpause",
      "outputs": [],
      "stateMutability": "nonpayable",
      "type": "function"
    },
    {
      "inputs": [
        {
          "internalType": "address",
          "name": "newImplementation",
          "type": "address"
        },
        {
          "internalType": "bytes",
          "name": "data",
          "type": "bytes"
        }
      ],
      "name": "upgradeToAndCall",
      "outputs": [],
      "stateMutability": "payable",
      "type": "function"
    }
  ],
  "bytecode": "0x60a06040523073ffffffffffffffffffffffffffffffffffffffff1660809073ffffffffffffffffffffffffffffffffffffffff168152503480156200004457600080fd5b50620000556200005b60201b60201c565b620001cf565b60006200006d6200016560201b60201c565b90508060000160089054906101000a900460ff1615620000b9576040517ff92ee8a900000000000000000000000000000000000000000000000000000000815260040160405180910390fd5b67ffffffffffffffff80168160000160009054906101000a900467ffffffffffffffff1667ffffffffffffffff1614620001625767ffffffffffffffff8160000160006101000a81548167ffffffffffffffff021916908367ffffffffffffffff1602179055507fc7f505b2f371ae2175ee4913f4499e1f2633a7b5936321eed1cdaeb6115181d267ffffffffffffffff604051620001599190620001b2565b60405180910390a15b50565b60007ff0c57e16840df040f15088dc2f81fe391c3923bec73e23a9662efc9c229c6a00905090565b600067ffffffffffffffff82169050919050565b620001ac816200018d565b82525050565b6000602082019050620001c96000830184620001a1565b92915050565b608051615b73620001f960003960008181612771015281816127c601526129a40152615b736000f3fe6080604052600436106102515760003560e01c806370a0823111610139578063c87b56dd116100b6578063e63ab1e91161007a578063e63ab1e9146108b8578063e985e9c5146108e3578063f67e1ae314610920578063f72c0d8b1461095e578063f7a3e99314610989578063f8c8765e146109c657610251565b8063c87b56dd146107d3578063d204c45e14610810578063d2f9efab14610839578063d539139314610864578063d547741f1461088f57610251565b8063a1365bf1116100fd578063a1365bf114610702578063a217fddf1461072b578063a22cb46514610756578063ad3cb1cc1461077f578063b88d4fde146107aa57610251565b806370a082311461061b5780638456cb59146106585780638d76f9401461066f57806391d148541461069a57806395d89b41146106d757610251565b806336568abe116101d25780634f1ef286116101965780634f1ef286146104ff5780634f6ccce71461051b57806352d1902d146105585780635c975abb146105835780636045f33d146105ae5780636352211e146105de57610251565b806336568abe146104445780633e52d5c61461046d5780633f4ba83a1461049657806342842e0e146104ad57806342966c68146104d657610251565b806318160ddd1161021957806318160ddd1461034d57806323b872dd14610378578063248a9ca3146103a15780632f2ff15d146103de5780632f745c591461040757610251565b806301ffc9a71461025657806306fdde0314610293578063081812fc146102be578063095ea7b3146102fb578063162f8e4e14610324575b600080fd5b34801561026257600080fd5b5061027d6004803603810190610278919061422d565b6109ef565b60405161028a9190614275565b60405180910390f35b34801561029f57600080fd5b506102a8610a01565b6040516102b59190614320565b60405180910390f35b3480156102ca57600080fd5b506102e560048036038101906102e09190614378565b610aa2565b6040516102f291906143e6565b60405180910390f35b34801561030757600080fd5b50610322600480360381019061031d919061442d565b610abe565b005b34801561033057600080fd5b5061034b6004803603810190610346919061446d565b610ad4565b005b34801561035957600080fd5b50610362610b26565b60405161036f91906144a9565b60405180910390f35b34801561038457600080fd5b5061039f600480360381019061039a91906144c4565b610b41565b005b3480156103ad57600080fd5b506103c860048036038101906103c3919061454d565b610c43565b6040516103d59190614589565b60405180910390f35b3480156103ea57600080fd5b50610405600480360381019061040091906145a4565b610c71565b005b34801561041357600080fd5b5061042e6004803603810190610429919061442d565b610c93565b60405161043b91906144a9565b60405180910390f35b34801561045057600080fd5b5061046b600480360381019061046691906145a4565b610d4a565b005b34801561047957600080fd5b50610494600480360381019061048f919061472c565b610dc5565b005b3480156104a257600080fd5b506104ab611140565b005b3480156104b957600080fd5b506104d460048036038101906104cf91906144c4565b611175565b005b3480156104e257600080fd5b506104fd60048036038101906104f89190614378565b611195565b005b6105196004803603810190610514919061482a565b6111ac565b005b34801561052757600080fd5b50610542600480360381019061053d9190614378565b6111cb565b60405161054f91906144a9565b60405180910390f35b34801561056457600080fd5b5061056d61124f565b60405161057a9190614589565b60405180910390f35b34801561058f57600080fd5b50610598611282565b6040516105a59190614275565b60405180910390f35b6105c860048036038101906105c39190614927565b6112a7565b6040516105d59190614a84565b60405180910390f35b3480156105ea57600080fd5b5061060560048036038101906106009190614378565b611521565b60405161061291906143e6565b60405180910390f35b34801561062757600080fd5b50610642600480360381019061063d919061446d565b611533565b60405161064f91906144a9565b60405180910390f35b34801561066457600080fd5b5061066d6115fc565b005b34801561067b57600080fd5b50610684611631565b6040516106919190614b05565b60405180910390f35b3480156106a657600080fd5b506106c160048036038101906106bc91906145a4565b611657565b6040516106ce9190614275565b60405180910390f35b3480156106e357600080fd5b506106ec6116d0565b6040516106f99190614320565b60405180910390f35b34801561070e57600080fd5b506107296004803603810190610724919061446d565b611771565b005b34801561073757600080fd5b506107406117b4565b60405161074d9190614589565b60405180910390f35b34801561076257600080fd5b5061077d60048036038101906107789190614b4c565b6117bb565b005b34801561078b57600080fd5b506107946117d1565b6040516107a19190614320565b60405180910390f35b3480156107b657600080fd5b506107d160048036038101906107cc9190614b8c565b61180a565b005b3480156107df57600080fd5b506107fa60048036038101906107f59190614378565b611827565b6040516108079190614320565b60405180910390f35b34801561081c57600080fd5b5061083760048036038101906108329190614c0f565b611a17565b005b34801561084557600080fd5b5061084e611a4b565b60405161085b9190614c9e565b60405180910390f35b34801561087057600080fd5b50610879611a6f565b6040516108869190614589565b60405180910390f35b34801561089b57600080fd5b506108b660048036038101906108b191906145a4565b611a93565b005b3480156108c457600080fd5b506108cd611ab5565b6040516108da9190614589565b60405180910390f35b3480156108ef57600080fd5b5061090a60048036038101906109059190614cb9565b611ad9565b6040516109179190614275565b60405180910390f35b34801561092c57600080fd5b5061094760048036038101906109429190614378565b611b7b565b604051610955929190614cf9565b60405180910390f35b34801561096a57600080fd5b50610973611d4e565b6040516109809190614589565b60405180910390f35b34801561099557600080fd5b506109b060048036038101906109ab919061446d565b611d72565b6040516109bd9190614e93565b60405180910390f35b3480156109d257600080fd5b506109ed60048036038101906109e89190614eb5565b611f7a565b005b60006109fa8261226b565b9050919050565b60606000610a0d6122e5565b9050806000018054610a1e90614f4b565b80601f0160208091040260200160405190810160405280929190818152602001828054610a4a90614f4b565b8015610a975780601f10610a6c57610100808354040283529160200191610a97565b820191906000526020600020905b815481529060010190602001808311610a7a57829003601f168201915b505050505091505090565b6000610aad8261230d565b50610ab782612395565b9050919050565b610ad08282610acb6123e0565b6123e8565b5050565b6000801b610ae1816123fa565b81600260006101000a81548173ffffffffffffffffffffffffffffffffffffffff021916908373ffffffffffffffffffffffffffffffffffffffff1602179055505050565b600080610b3161240e565b9050806002018054905091505090565b600073ffffffffffffffffffffffffffffffffffffffff168273ffffffffffffffffffffffffffffffffffffffff1603610bb35760006040517f64a0ae92000000000000000000000000000000000000000000000000000000008152600401610baa91906143e6565b60405180910390fd5b6000610bc78383610bc26123e0565b612436565b90508373ffffffffffffffffffffffffffffffffffffffff168173ffffffffffffffffffffffffffffffffffffffff1614610c3d578382826040517f64283d7b000000000000000000000000000000000000000000000000000000008152600401610c3493929190614f7c565b60405180910390fd5b50505050565b600080610c4e61244c565b905080600001600084815260200190815260200160002060010154915050919050565b610c7a82610c43565b610c83816123fa565b610c8d8383612474565b50505050565b600080610c9e61240e565b9050610ca984611533565b8310610cee5783836040517fa57d13dc000000000000000000000000000000000000000000000000000000008152600401610ce5929190614fb3565b60405180910390fd5b8060000160008573ffffffffffffffffffffffffffffffffffffffff1673ffffffffffffffffffffffffffffffffffffffff16815260200190815260200160002060008481526020019081526020016000205491505092915050565b610d526123e0565b73ffffffffffffffffffffffffffffffffffffffff168173ffffffffffffffffffffffffffffffffffffffff1614610db6576040517f6697b23200000000000000000000000000000000000000000000000000000000815260040160405180910390fd5b610dc08282612575565b505050565b6000815111610e09576040517f08c379a0000000000000000000000000000000000000000000000000000000008152600401610e0090615028565b60405180910390fd5b6000815167ffffffffffffffff811115610e2657610e256145e9565b5b604051908082528060200260200182016040528015610e545781602001602082028036833780820191505090505b5090506000825167ffffffffffffffff811115610e7457610e736145e9565b5b604051908082528060200260200182016040528015610ea757816020015b6060815260200190600190039081610e925790505b50905060005b83518110156110ea576000848281518110610ecb57610eca615048565b5b602002602001015190503373ffffffffffffffffffffffffffffffffffffffff16610ef582611521565b73ffffffffffffffffffffffffffffffffffffffff1614610f4b576040517f08c379a0000000000000000000000000000000000000000000000000000000008152600401610f42906150c3565b60405180910390fd5b6000600260009054906101000a900473ffffffffffffffffffffffffffffffffffffffff1673ffffffffffffffffffffffffffffffffffffffff1663691c65d4336040518263ffffffff1660e01b8152600401610fa891906143e6565b6020604051808303816000875af1158015610fc7573d6000803e3d6000fd5b505050506040513d601f19601f82011682018060405250810190610feb91906150f8565b90508085848151811061100157611000615048565b5b602002602001018181525050600260009054906101000a900473ffffffffffffffffffffffffffffffffffffffff1673ffffffffffffffffffffffffffffffffffffffff1663c87b56dd826040518263ffffffff1660e01b815260040161106891906144a9565b600060405180830381865afa158015611085573d6000803e3d6000fd5b505050506040513d6000823e3d601f19601f820116820180604052508101906110ae9190615195565b8484815181106110c1576110c0615048565b5b60200260200101819052506110d582612677565b505080806110e29061520d565b915050610ead565b503373ffffffffffffffffffffffffffffffffffffffff167f33d6b0535c7fd929fbb7260d4a2bfebbcb4ecbc24379d82fda802da1af8d775f8383604051611133929190615317565b60405180910390a2505050565b7f65d7a28e3265b37a6474929f336521b332c1681b933f6cb9f3376673440d862a61116a816123fa565b6111726126fd565b50565b6111908383836040518060200160405280600081525061180a565b505050565b6111a86000826111a36123e0565b612436565b5050565b6111b461276f565b6111bd82612855565b6111c78282612883565b5050565b6000806111d661240e565b90506111e0610b26565b8310611226576000836040517fa57d13dc00000000000000000000000000000000000000000000000000000000815260040161121d929190614fb3565b60405180910390fd5b80600201838154811061123c5761123b615048565b5b9060005260206000200154915050919050565b60006112596129a2565b7f360894a13ba1a3210667c828492db98dca3e2076cc3735a920a3ca505d382bbc60001b905090565b60008061128d612a29565b90508060000160009054906101000a900460ff1691505090565b6060600082116112ec576040517f08c379a00000000000000000000000000000000000000000000000000000000081526004016112e39061539a565b60405180910390fd5b60008060009054906101000a900473ffffffffffffffffffffffffffffffffffffffff1673ffffffffffffffffffffffffffffffffffffffff1634604051611333906153eb565b60006040518083038185875af1925050503d8060008114611370576040519150601f19603f3d011682016040523d82523d6000602084013e611375565b606091505b50509050806113b9576040517f08c379a00000000000000000000000000000000000000000000000000000000081526004016113b09061544c565b60405180910390fd5b60008367ffffffffffffffff8111156113d5576113d46145e9565b5b6040519080825280602002602001820160405280156114035781602001602082028036833780820191505090505b50905060005b84811015611513576000600160008154809291906114269061520d565b9190505590506114368982612a51565b604051806040016040528089815260200188815250600360008381526020019081526020016000206000820151816000019081611473919061560e565b506020820151816001019081611489919061560e565b50905050808383815181106114a1576114a0615048565b5b6020026020010181815250508873ffffffffffffffffffffffffffffffffffffffff167f13188ff8029dc27800caafa67e9de01857135079733900302b1c2536b5512754828a8a6040516114f7939291906156e0565b60405180910390a250808061150b9061520d565b915050611409565b508092505050949350505050565b600061152c8261230d565b9050919050565b60008061153e6122e5565b9050600073ffffffffffffffffffffffffffffffffffffffff168373ffffffffffffffffffffffffffffffffffffffff16036115b25760006040517f89c62b640000000000000000000000000000000000000000000000000000000081526004016115a991906143e6565b60405180910390fd5b8060030160008473ffffffffffffffffffffffffffffffffffffffff1673ffffffffffffffffffffffffffffffffffffffff16815260200190815260200160002054915050919050565b7f65d7a28e3265b37a6474929f336521b332c1681b933f6cb9f3376673440d862a611626816123fa565b61162e612a6f565b50565b600260009054906101000a900473ffffffffffffffffffffffffffffffffffffffff1681565b60008061166261244c565b905080600001600085815260200190815260200160002060000160008473ffffffffffffffffffffffffffffffffffffffff1673ffffffffffffffffffffffffffffffffffffffff16815260200190815260200160002060009054906101000a900460ff1691505092915050565b606060006116dc6122e5565b90508060010180546116ed90614f4b565b80601f016020809104026020016040519081016040528092919081815260200182805461171990614f4b565b80156117665780601f1061173b57610100808354040283529160200191611766565b820191906000526020600020905b81548152906001019060200180831161174957829003601f168201915b505050505091505090565b806000806101000a81548173ffffffffffffffffffffffffffffffffffffffff021916908373ffffffffffffffffffffffffffffffffffffffff16021790555050565b6000801b81565b6117cd6117c66123e0565b8383612ae1565b5050565b6040518060400160405280600581526020017f352e302e3000000000000000000000000000000000000000000000000000000081525081565b611815848484610b41565b61182184848484612c5f565b50505050565b60603373ffffffffffffffffffffffffffffffffffffffff1661184983611521565b73ffffffffffffffffffffffffffffffffffffffff161461189f576040517f08c379a000000000000000000000000000000000000000000000000000000000815260040161189690615797565b60405180910390fd5b6000600360008481526020019081526020016000206040518060400160405290816000820180546118cf90614f4b565b80601f01602080910402602001604051908101604052809291908181526020018280546118fb90614f4b565b80156119485780601f1061191d57610100808354040283529160200191611948565b820191906000526020600020905b81548152906001019060200180831161192b57829003601f168201915b5050505050815260200160018201805461196190614f4b565b80601f016020809104026020016040519081016040528092919081815260200182805461198d90614f4b565b80156119da5780601f106119af576101008083540402835291602001916119da565b820191906000526020600020905b8154815290600101906020018083116119bd57829003601f168201915b505050505081525050905080602001518160000151604051602001611a0092919061583f565b604051602081830303815290604052915050919050565b600060016000815480929190611a2c9061520d565b919050559050611a3c8382612a51565b611a468183612e16565b505050565b60008054906101000a900473ffffffffffffffffffffffffffffffffffffffff1681565b7f9f2df0fed2c77648de5860a4cc508cd0818c85b8b8a1ab4ceeef8d981c8956a681565b611a9c82610c43565b611aa5816123fa565b611aaf8383612575565b50505050565b7f65d7a28e3265b37a6474929f336521b332c1681b933f6cb9f3376673440d862a81565b600080611ae46122e5565b90508060050160008573ffffffffffffffffffffffffffffffffffffffff1673ffffffffffffffffffffffffffffffffffffffff16815260200190815260200160002060008473ffffffffffffffffffffffffffffffffffffffff1673ffffffffffffffffffffffffffffffffffffffff16815260200190815260200160002060009054906101000a900460ff1691505092915050565b6060803373ffffffffffffffffffffffffffffffffffffffff16611b9e84611521565b73ffffffffffffffffffffffffffffffffffffffff1614611bf4576040517f08c379a0000000000000000000000000000000000000000000000000000000008152600401611beb906158ba565b60405180910390fd5b600060036000858152602001908152602001600020604051806040016040529081600082018054611c2490614f4b565b80601f0160208091040260200160405190810160405280929190818152602001828054611c5090614f4b565b8015611c9d5780601f10611c7257610100808354040283529160200191611c9d565b820191906000526020600020905b815481529060010190602001808311611c8057829003601f168201915b50505050508152602001600182018054611cb690614f4b565b80601f0160208091040260200160405190810160405280929190818152602001828054611ce290614f4b565b8015611d2f5780601f10611d0457610100808354040283529160200191611d2f565b820191906000526020600020905b815481529060010190602001808311611d1257829003601f168201915b5050505050815250509050806000015181602001519250925050915091565b7f189ab7a9244df0848122154315af71fe140f3db0fe014031783b0946b8c9d2e381565b60606000611d7f83611533565b905060008167ffffffffffffffff811115611d9d57611d9c6145e9565b5b604051908082528060200260200182016040528015611dd657816020015b611dc36141a0565b815260200190600190039081611dbb5790505b50905060005b82811015611f6f576000611df08683610c93565b905060006003600083815260200190815260200160002090506040518060600160405280838152602001826000018054611e2990614f4b565b80601f0160208091040260200160405190810160405280929190818152602001828054611e5590614f4b565b8015611ea25780601f10611e7757610100808354040283529160200191611ea2565b820191906000526020600020905b815481529060010190602001808311611e8557829003601f168201915b50505050508152602001826001018054611ebb90614f4b565b80601f0160208091040260200160405190810160405280929190818152602001828054611ee790614f4b565b8015611f345780601f10611f0957610100808354040283529160200191611f34565b820191906000526020600020905b815481529060010190602001808311611f1757829003601f168201915b5050505050815250848481518110611f4f57611f4e615048565b5b602002602001018190525050508080611f679061520d565b915050611ddc565b508092505050919050565b6000611f84612e81565b905060008160000160089054906101000a900460ff1615905060008260000160009054906101000a900467ffffffffffffffff1690506000808267ffffffffffffffff16148015611fd25750825b9050600060018367ffffffffffffffff16148015612007575060003073ffffffffffffffffffffffffffffffffffffffff163b145b905081158015612015575080155b1561204c576040517ff92ee8a900000000000000000000000000000000000000000000000000000000815260040160405180910390fd5b60018560000160006101000a81548167ffffffffffffffff021916908367ffffffffffffffff160217905550831561209c5760018560000160086101000a81548160ff0219169083151502179055505b6121106040518060400160405280600681526020017f426f784e465400000000000000000000000000000000000000000000000000008152506040518060400160405280600381526020017f424f580000000000000000000000000000000000000000000000000000000000815250612ea9565b612118612ebf565b612120612ec9565b612128612ed3565b612130612ee5565b612138612eef565b6121456000801b8a612474565b506121707f189ab7a9244df0848122154315af71fe140f3db0fe014031783b0946b8c9d2e389612474565b50856000806101000a81548173ffffffffffffffffffffffffffffffffffffffff021916908373ffffffffffffffffffffffffffffffffffffffff16021790555086600260006101000a81548173ffffffffffffffffffffffffffffffffffffffff021916908373ffffffffffffffffffffffffffffffffffffffff16021790555060006001540361220457600180819055505b83156122605760008560000160086101000a81548160ff0219169083151502179055507fc7f505b2f371ae2175ee4913f4499e1f2633a7b5936321eed1cdaeb6115181d260016040516122579190615929565b60405180910390a15b505050505050505050565b60007f7965db0b000000000000000000000000000000000000000000000000000000007bffffffffffffffffffffffffffffffffffffffffffffffffffffffff1916827bffffffffffffffffffffffffffffffffffffffffffffffffffffffff191614806122de57506122dd82612ef9565b5b9050919050565b60007f80bb2b638cc20bc4d0a60d66940f3ab4a00c1d7b313497ca82fb0b4ab0079300905090565b60008061231983612f5a565b9050600073ffffffffffffffffffffffffffffffffffffffff168173ffffffffffffffffffffffffffffffffffffffff160361238c57826040517f7e27328900000000000000000000000000000000000000000000000000000000815260040161238391906144a9565b60405180910390fd5b80915050919050565b6000806123a06122e5565b905080600401600084815260200190815260200160002060009054906101000a900473ffffffffffffffffffffffffffffffffffffffff16915050919050565b600033905090565b6123f58383836001612fa5565b505050565b61240b816124066123e0565b613179565b50565b60007f645e039705490088daad89bae25049a34f4a9072d398537b1ab2425f24cbed00905090565b60006124438484846131ca565b90509392505050565b60007f02dd7bc7dec4dceedda775e58dd541e08a116c6c53815c0bd028192f7b626800905090565b60008061247f61244c565b905061248b8484611657565b61256957600181600001600086815260200190815260200160002060000160008573ffffffffffffffffffffffffffffffffffffffff1673ffffffffffffffffffffffffffffffffffffffff16815260200190815260200160002060006101000a81548160ff0219169083151502179055506125056123e0565b73ffffffffffffffffffffffffffffffffffffffff168373ffffffffffffffffffffffffffffffffffffffff16857f2f8788117e7eff1d82e926ec794901d17c78024a50270940304540a733656f0d60405160405180910390a4600191505061256f565b60009150505b92915050565b60008061258061244c565b905061258c8484611657565b1561266b57600081600001600086815260200190815260200160002060000160008573ffffffffffffffffffffffffffffffffffffffff1673ffffffffffffffffffffffffffffffffffffffff16815260200190815260200160002060006101000a81548160ff0219169083151502179055506126076123e0565b73ffffffffffffffffffffffffffffffffffffffff168373ffffffffffffffffffffffffffffffffffffffff16857ff6391f5c32d9c69d2a47ea670b442974b53935d1edc7fd64eb21e047a839171b60405160405180910390a46001915050612671565b60009150505b92915050565b60006126866000836000612436565b9050600073ffffffffffffffffffffffffffffffffffffffff168173ffffffffffffffffffffffffffffffffffffffff16036126f957816040517f7e2732890000000000000000000000000000000000000000000000000000000081526004016126f091906144a9565b60405180910390fd5b5050565b6127056131e8565b600061270f612a29565b905060008160000160006101000a81548160ff0219169083151502179055507f5db9ee0a495bf2e6ff9c91a7834c1ba4fdd244a5e8aa4e537bd38aeae4b073aa6127576123e0565b60405161276491906143e6565b60405180910390a150565b7f000000000000000000000000000000000000000000000000000000000000000073ffffffffffffffffffffffffffffffffffffffff163073ffffffffffffffffffffffffffffffffffffffff16148061281c57507f000000000000000000000000000000000000000000000000000000000000000073ffffffffffffffffffffffffffffffffffffffff16612803613228565b73ffffffffffffffffffffffffffffffffffffffff1614155b15612853576040517fe07c8dba00000000000000000000000000000000000000000000000000000000815260040160405180910390fd5b565b7f189ab7a9244df0848122154315af71fe140f3db0fe014031783b0946b8c9d2e361287f816123fa565b5050565b8173ffffffffffffffffffffffffffffffffffffffff166352d1902d6040518163ffffffff1660e01b8152600401602060405180830381865afa9250505080156128eb57506040513d601f19601f820116820180604052508101906128e89190615959565b60015b61292c57816040517f4c9c8ce300000000000000000000000000000000000000000000000000000000815260040161292391906143e6565b60405180910390fd5b7f360894a13ba1a3210667c828492db98dca3e2076cc3735a920a3ca505d382bbc60001b811461299357806040517faa1d49a400000000000000000000000000000000000000000000000000000000815260040161298a9190614589565b60405180910390fd5b61299d838361327f565b505050565b7f000000000000000000000000000000000000000000000000000000000000000073ffffffffffffffffffffffffffffffffffffffff163073ffffffffffffffffffffffffffffffffffffffff1614612a27576040517fe07c8dba00000000000000000000000000000000000000000000000000000000815260040160405180910390fd5b565b60007fcd5ed15c6e187e77e9aee88184c21f4f2182ab5827cb3b7e07fbedcd63f03300905090565b612a6b8282604051806020016040528060008152506132f2565b5050565b612a7761330e565b6000612a81612a29565b905060018160000160006101000a81548160ff0219169083151502179055507f62e78cea01bee320cd4e420270b5ea74000d11b0c9f74754ebdbfc544b05a258612ac96123e0565b604051612ad691906143e6565b60405180910390a150565b6000612aeb6122e5565b9050600073ffffffffffffffffffffffffffffffffffffffff168373ffffffffffffffffffffffffffffffffffffffff1603612b5e57826040517f5b08ba18000000000000000000000000000000000000000000000000000000008152600401612b5591906143e6565b60405180910390fd5b818160050160008673ffffffffffffffffffffffffffffffffffffffff1673ffffffffffffffffffffffffffffffffffffffff16815260200190815260200160002060008573ffffffffffffffffffffffffffffffffffffffff1673ffffffffffffffffffffffffffffffffffffffff16815260200190815260200160002060006101000a81548160ff0219169083151502179055508273ffffffffffffffffffffffffffffffffffffffff168473ffffffffffffffffffffffffffffffffffffffff167f17307eab39ab6107e8899845ad3d59bd9653f200f220920489ca2b5937696c3184604051612c519190614275565b60405180910390a350505050565b60008373ffffffffffffffffffffffffffffffffffffffff163b1115612e10578273ffffffffffffffffffffffffffffffffffffffff1663150b7a02612ca36123e0565b8685856040518563ffffffff1660e01b8152600401612cc594939291906159db565b6020604051808303816000875af1925050508015612d0157506040513d601f19601f82011682018060405250810190612cfe9190615a3c565b60015b612d85573d8060008114612d31576040519150601f19603f3d011682016040523d82523d6000602084013e612d36565b606091505b506000815103612d7d57836040517f64a0ae92000000000000000000000000000000000000000000000000000000008152600401612d7491906143e6565b60405180910390fd5b805181602001fd5b63150b7a0260e01b7bffffffffffffffffffffffffffffffffffffffffffffffffffffffff1916817bffffffffffffffffffffffffffffffffffffffffffffffffffffffff191614612e0e57836040517f64a0ae92000000000000000000000000000000000000000000000000000000008152600401612e0591906143e6565b60405180910390fd5b505b50505050565b6000612e2061334f565b9050818160000160008581526020019081526020016000209081612e44919061560e565b507ff8e1a15aba9398e019f0b49df1a4fde98ee17ae345cb5f6b5e2c27f5033e8ce783604051612e7491906144a9565b60405180910390a1505050565b60007ff0c57e16840df040f15088dc2f81fe391c3923bec73e23a9662efc9c229c6a00905090565b612eb1613377565b612ebb82826133b7565b5050565b612ec7613377565b565b612ed1613377565b565b612edb613377565b612ee36133f4565b565b612eed613377565b565b612ef7613377565b565b6000634906490660e01b7bffffffffffffffffffffffffffffffffffffffffffffffffffffffff1916827bffffffffffffffffffffffffffffffffffffffffffffffffffffffff19161480612f535750612f5282613428565b5b9050919050565b600080612f656122e5565b905080600201600084815260200190815260200160002060009054906101000a900473ffffffffffffffffffffffffffffffffffffffff16915050919050565b6000612faf6122e5565b90508180612fea5750600073ffffffffffffffffffffffffffffffffffffffff168373ffffffffffffffffffffffffffffffffffffffff1614155b1561311e576000612ffa8561230d565b9050600073ffffffffffffffffffffffffffffffffffffffff168473ffffffffffffffffffffffffffffffffffffffff161415801561306557508373ffffffffffffffffffffffffffffffffffffffff168173ffffffffffffffffffffffffffffffffffffffff1614155b801561307857506130768185611ad9565b155b156130ba57836040517fa9fbf51f0000000000000000000000000000000000000000000000000000000081526004016130b191906143e6565b60405180910390fd5b821561311c57848673ffffffffffffffffffffffffffffffffffffffff168273ffffffffffffffffffffffffffffffffffffffff167f8c5be1e5ebec7d5bd14f71427d1e84f3dd0314c0f7b2291e5b200ac8c7c3b92560405160405180910390a45b505b8481600401600086815260200190815260200160002060006101000a81548173ffffffffffffffffffffffffffffffffffffffff021916908373ffffffffffffffffffffffffffffffffffffffff1602179055505050505050565b6131838282611657565b6131c65780826040517fe2517d3f0000000000000000000000000000000000000000000000000000000081526004016131bd929190615a69565b60405180910390fd5b5050565b60006131d461330e565b6131df8484846134a2565b90509392505050565b6131f0611282565b613226576040517f8dfc202b00000000000000000000000000000000000000000000000000000000815260040160405180910390fd5b565b60006132567f360894a13ba1a3210667c828492db98dca3e2076cc3735a920a3ca505d382bbc60001b6135bf565b60000160009054906101000a900473ffffffffffffffffffffffffffffffffffffffff16905090565b613288826135c9565b8173ffffffffffffffffffffffffffffffffffffffff167fbc7cd75a20ee27fd9adebab32041f755214dbc6bffa90cc0225b39da2e5c2d3b60405160405180910390a26000815111156132e5576132df8282613696565b506132ee565b6132ed61371a565b5b5050565b6132fc8383613757565b6133096000848484612c5f565b505050565b613316611282565b1561334d576040517fd93c066500000000000000000000000000000000000000000000000000000000815260040160405180910390fd5b565b60007f0542a41881ee128a365a727b282c86fa859579490b9bb45aab8503648c8e7900905090565b61337f613850565b6133b5576040517fd7e6bcf800000000000000000000000000000000000000000000000000000000815260040160405180910390fd5b565b6133bf613377565b60006133c96122e5565b9050828160000190816133dc919061560e565b50818160010190816133ee919061560e565b50505050565b6133fc613377565b6000613406612a29565b905060008160000160006101000a81548160ff02191690831515021790555050565b60007f780e9d63000000000000000000000000000000000000000000000000000000007bffffffffffffffffffffffffffffffffffffffffffffffffffffffff1916827bffffffffffffffffffffffffffffffffffffffffffffffffffffffff1916148061349b575061349a82613870565b5b9050919050565b6000806134b0858585613952565b9050600073ffffffffffffffffffffffffffffffffffffffff168173ffffffffffffffffffffffffffffffffffffffff16036134f4576134ef84613b7f565b613533565b8473ffffffffffffffffffffffffffffffffffffffff168173ffffffffffffffffffffffffffffffffffffffff1614613532576135318185613bdb565b5b5b600073ffffffffffffffffffffffffffffffffffffffff168573ffffffffffffffffffffffffffffffffffffffff16036135755761357084613d55565b6135b4565b8473ffffffffffffffffffffffffffffffffffffffff168173ffffffffffffffffffffffffffffffffffffffff16146135b3576135b28585613e41565b5b5b809150509392505050565b6000819050919050565b60008173ffffffffffffffffffffffffffffffffffffffff163b0361362557806040517f4c9c8ce300000000000000000000000000000000000000000000000000000000815260040161361c91906143e6565b60405180910390fd5b806136527f360894a13ba1a3210667c828492db98dca3e2076cc3735a920a3ca505d382bbc60001b6135bf565b60000160006101000a81548173ffffffffffffffffffffffffffffffffffffffff021916908373ffffffffffffffffffffffffffffffffffffffff16021790555050565b60606000808473ffffffffffffffffffffffffffffffffffffffff16846040516136c09190615ac3565b600060405180830381855af49150503d80600081146136fb576040519150601f19603f3d011682016040523d82523d6000602084013e613700565b606091505b5091509150613710858383613edd565b9250505092915050565b6000341115613755576040517fb398979f00000000000000000000000000000000000000000000000000000000815260040160405180910390fd5b565b600073ffffffffffffffffffffffffffffffffffffffff168273ffffffffffffffffffffffffffffffffffffffff16036137c95760006040517f64a0ae920000000000000000000000000000000000000000000000000000000081526004016137c091906143e6565b60405180910390fd5b60006137d783836000612436565b9050600073ffffffffffffffffffffffffffffffffffffffff168173ffffffffffffffffffffffffffffffffffffffff161461384b5760006040517f73c6ac6e00000000000000000000000000000000000000000000000000000000815260040161384291906143e6565b60405180910390fd5b505050565b600061385a612e81565b60000160089054906101000a900460ff16905090565b60007f80ac58cd000000000000000000000000000000000000000000000000000000007bffffffffffffffffffffffffffffffffffffffffffffffffffffffff1916827bffffffffffffffffffffffffffffffffffffffffffffffffffffffff1916148061393b57507f5b5e139f000000000000000000000000000000000000000000000000000000007bffffffffffffffffffffffffffffffffffffffffffffffffffffffff1916827bffffffffffffffffffffffffffffffffffffffffffffffffffffffff1916145b8061394b575061394a82613f6c565b5b9050919050565b60008061395d6122e5565b9050600061396a85612f5a565b9050600073ffffffffffffffffffffffffffffffffffffffff168473ffffffffffffffffffffffffffffffffffffffff16146139ac576139ab818587613fd6565b5b600073ffffffffffffffffffffffffffffffffffffffff168173ffffffffffffffffffffffffffffffffffffffff1614613a3f576139ee600086600080612fa5565b60018260030160008373ffffffffffffffffffffffffffffffffffffffff1673ffffffffffffffffffffffffffffffffffffffff168152602001908152602001600020600082825403925050819055505b600073ffffffffffffffffffffffffffffffffffffffff168673ffffffffffffffffffffffffffffffffffffffff1614613ac45760018260030160008873ffffffffffffffffffffffffffffffffffffffff1673ffffffffffffffffffffffffffffffffffffffff168152602001908152602001600020600082825401925050819055505b8582600201600087815260200190815260200160002060006101000a81548173ffffffffffffffffffffffffffffffffffffffff021916908373ffffffffffffffffffffffffffffffffffffffff160217905550848673ffffffffffffffffffffffffffffffffffffffff168273ffffffffffffffffffffffffffffffffffffffff167fddf252ad1be2c89b69c2b068fc378daa952ba7f163c4a11628f55a4df523b3ef60405160405180910390a480925050509392505050565b6000613b8961240e565b9050806002018054905081600301600084815260200190815260200160002081905550806002018290806001815401808255809150506001900390600052602060002001600090919091909150555050565b6000613be561240e565b90506000613bf284611533565b90506000826001016000858152602001908152602001600020549050818114613cdf5760008360000160008773ffffffffffffffffffffffffffffffffffffffff1673ffffffffffffffffffffffffffffffffffffffff1681526020019081526020016000206000848152602001908152602001600020549050808460000160008873ffffffffffffffffffffffffffffffffffffffff1673ffffffffffffffffffffffffffffffffffffffff1681526020019081526020016000206000848152602001908152602001600020819055508184600101600083815260200190815260200160002081905550505b826001016000858152602001908152602001600020600090558260000160008673ffffffffffffffffffffffffffffffffffffffff1673ffffffffffffffffffffffffffffffffffffffff1681526020019081526020016000206000838152602001908152602001600020600090555050505050565b6000613d5f61240e565b9050600060018260020180549050613d779190615ada565b905060008260030160008581526020019081526020016000205490506000836002018381548110613dab57613daa615048565b5b9060005260206000200154905080846002018381548110613dcf57613dce615048565b5b906000526020600020018190555081846003016000838152602001908152602001600020819055508360030160008681526020019081526020016000206000905583600201805480613e2457613e23615b0e565b5b600190038181906000526020600020016000905590555050505050565b6000613e4b61240e565b905060006001613e5a85611533565b613e649190615ada565b9050828260000160008673ffffffffffffffffffffffffffffffffffffffff1673ffffffffffffffffffffffffffffffffffffffff168152602001908152602001600020600083815260200190815260200160002081905550808260010160008581526020019081526020016000208190555050505050565b606082613ef257613eed8261409a565b613f64565b60008251148015613f1a575060008473ffffffffffffffffffffffffffffffffffffffff163b145b15613f5c57836040517f9996b315000000000000000000000000000000000000000000000000000000008152600401613f5391906143e6565b60405180910390fd5b819050613f65565b5b9392505050565b60007f01ffc9a7000000000000000000000000000000000000000000000000000000007bffffffffffffffffffffffffffffffffffffffffffffffffffffffff1916827bffffffffffffffffffffffffffffffffffffffffffffffffffffffff1916149050919050565b613fe18383836140df565b61409557600073ffffffffffffffffffffffffffffffffffffffff168373ffffffffffffffffffffffffffffffffffffffff160361405657806040517f7e27328900000000000000000000000000000000000000000000000000000000815260040161404d91906144a9565b60405180910390fd5b81816040517f177e802f00000000000000000000000000000000000000000000000000000000815260040161408c929190614fb3565b60405180910390fd5b505050565b6000815111156140ad5780518082602001fd5b6040517f1425ea4200000000000000000000000000000000000000000000000000000000815260040160405180910390fd5b60008073ffffffffffffffffffffffffffffffffffffffff168373ffffffffffffffffffffffffffffffffffffffff161415801561419757508273ffffffffffffffffffffffffffffffffffffffff168473ffffffffffffffffffffffffffffffffffffffff16148061415857506141578484611ad9565b5b8061419657508273ffffffffffffffffffffffffffffffffffffffff1661417e83612395565b73ffffffffffffffffffffffffffffffffffffffff16145b5b90509392505050565b60405180606001604052806000815260200160608152602001606081525090565b6000604051905090565b600080fd5b600080fd5b60007fffffffff0000000000000000000000000000000000000000000000000000000082169050919050565b61420a816141d5565b811461421557600080fd5b50565b60008135905061422781614201565b92915050565b600060208284031215614243576142426141cb565b5b600061425184828501614218565b91505092915050565b60008115159050919050565b61426f8161425a565b82525050565b600060208201905061428a6000830184614266565b92915050565b600081519050919050565b600082825260208201905092915050565b60005b838110156142ca5780820151818401526020810190506142af565b60008484015250505050565b6000601f19601f8301169050919050565b60006142f282614290565b6142fc818561429b565b935061430c8185602086016142ac565b614315816142d6565b840191505092915050565b6000602082019050818103600083015261433a81846142e7565b905092915050565b6000819050919050565b61435581614342565b811461436057600080fd5b50565b6000813590506143728161434c565b92915050565b60006020828403121561438e5761438d6141cb565b5b600061439c84828501614363565b91505092915050565b600073ffffffffffffffffffffffffffffffffffffffff82169050919050565b60006143d0826143a5565b9050919050565b6143e0816143c5565b82525050565b60006020820190506143fb60008301846143d7565b92915050565b61440a816143c5565b811461441557600080fd5b50565b60008135905061442781614401565b92915050565b60008060408385031215614444576144436141cb565b5b600061445285828601614418565b925050602061446385828601614363565b9150509250929050565b600060208284031215614483576144826141cb565b5b600061449184828501614418565b91505092915050565b6144a381614342565b82525050565b60006020820190506144be600083018461449a565b92915050565b6000806000606084860312156144dd576144dc6141cb565b5b60006144eb86828701614418565b93505060206144fc86828701614418565b925050604061450d86828701614363565b9150509250925092565b6000819050919050565b61452a81614517565b811461453557600080fd5b50565b60008135905061454781614521565b92915050565b600060208284031215614563576145626141cb565b5b600061457184828501614538565b91505092915050565b61458381614517565b82525050565b600060208201905061459e600083018461457a565b92915050565b600080604083850312156145bb576145ba6141cb565b5b60006145c985828601614538565b92505060206145da85828601614418565b9150509250929050565b600080fd5b7f4e487b7100000000000000000000000000000000000000000000000000000000600052604160045260246000fd5b614621826142d6565b810181811067ffffffffffffffff821117156146405761463f6145e9565b5b80604052505050565b60006146536141c1565b905061465f8282614618565b919050565b600067ffffffffffffffff82111561467f5761467e6145e9565b5b602082029050602081019050919050565b600080fd5b60006146a86146a384614664565b614649565b905080838252602082019050602084028301858111156146cb576146ca614690565b5b835b818110156146f457806146e08882614363565b8452602084019350506020810190506146cd565b5050509392505050565b600082601f830112614713576147126145e4565b5b8135614723848260208601614695565b91505092915050565b600060208284031215614742576147416141cb565b5b600082013567ffffffffffffffff8111156147605761475f6141d0565b5b61476c848285016146fe565b91505092915050565b600080fd5b600067ffffffffffffffff821115614795576147946145e9565b5b61479e826142d6565b9050602081019050919050565b82818337600083830152505050565b60006147cd6147c88461477a565b614649565b9050828152602081018484840111156147e9576147e8614775565b5b6147f48482856147ab565b509392505050565b600082601f830112614811576148106145e4565b5b81356148218482602086016147ba565b91505092915050565b60008060408385031215614841576148406141cb565b5b600061484f85828601614418565b925050602083013567ffffffffffffffff8111156148705761486f6141d0565b5b61487c858286016147fc565b9150509250929050565b600067ffffffffffffffff8211156148a1576148a06145e9565b5b6148aa826142d6565b9050602081019050919050565b60006148ca6148c584614886565b614649565b9050828152602081018484840111156148e6576148e5614775565b5b6148f18482856147ab565b509392505050565b600082601f83011261490e5761490d6145e4565b5b813561491e8482602086016148b7565b91505092915050565b60008060008060808587031215614941576149406141cb565b5b600061494f87828801614418565b945050602085013567ffffffffffffffff8111156149705761496f6141d0565b5b61497c878288016148f9565b935050604085013567ffffffffffffffff81111561499d5761499c6141d0565b5b6149a9878288016148f9565b92505060606149ba87828801614363565b91505092959194509250565b600081519050919050565b600082825260208201905092915050565b6000819050602082019050919050565b6149fb81614342565b82525050565b6000614a0d83836149f2565b60208301905092915050565b6000602082019050919050565b6000614a31826149c6565b614a3b81856149d1565b9350614a46836149e2565b8060005b83811015614a77578151614a5e8882614a01565b9750614a6983614a19565b925050600181019050614a4a565b5085935050505092915050565b60006020820190508181036000830152614a9e8184614a26565b905092915050565b6000819050919050565b6000614acb614ac6614ac1846143a5565b614aa6565b6143a5565b9050919050565b6000614add82614ab0565b9050919050565b6000614aef82614ad2565b9050919050565b614aff81614ae4565b82525050565b6000602082019050614b1a6000830184614af6565b92915050565b614b298161425a565b8114614b3457600080fd5b50565b600081359050614b4681614b20565b92915050565b60008060408385031215614b6357614b626141cb565b5b6000614b7185828601614418565b9250506020614b8285828601614b37565b9150509250929050565b60008060008060808587031215614ba657614ba56141cb565b5b6000614bb487828801614418565b9450506020614bc587828801614418565b9350506040614bd687828801614363565b925050606085013567ffffffffffffffff811115614bf757614bf66141d0565b5b614c03878288016147fc565b91505092959194509250565b60008060408385031215614c2657614c256141cb565b5b6000614c3485828601614418565b925050602083013567ffffffffffffffff811115614c5557614c546141d0565b5b614c61858286016148f9565b9150509250929050565b6000614c7682614ab0565b9050919050565b6000614c8882614c6b565b9050919050565b614c9881614c7d565b82525050565b6000602082019050614cb36000830184614c8f565b92915050565b60008060408385031215614cd057614ccf6141cb565b5b6000614cde85828601614418565b9250506020614cef85828601614418565b9150509250929050565b60006040820190508181036000830152614d1381856142e7565b90508181036020830152614d2781846142e7565b90509392505050565b600081519050919050565b600082825260208201905092915050565b6000819050602082019050919050565b600082825260208201905092915050565b6000614d7882614290565b614d828185614d5c565b9350614d928185602086016142ac565b614d9b816142d6565b840191505092915050565b6000606083016000830151614dbe60008601826149f2565b5060208301518482036020860152614dd68282614d6d565b91505060408301518482036040860152614df08282614d6d565b9150508091505092915050565b6000614e098383614da6565b905092915050565b6000602082019050919050565b6000614e2982614d30565b614e338185614d3b565b935083602082028501614e4585614d4c565b8060005b85811015614e815784840389528151614e628582614dfd565b9450614e6d83614e11565b925060208a01995050600181019050614e49565b50829750879550505050505092915050565b60006020820190508181036000830152614ead8184614e1e565b905092915050565b60008060008060808587031215614ecf57614ece6141cb565b5b6000614edd87828801614418565b9450506020614eee87828801614418565b9350506040614eff87828801614418565b9250506060614f1087828801614418565b91505092959194509250565b7f4e487b7100000000000000000000000000000000000000000000000000000000600052602260045260246000fd5b60006002820490506001821680614f6357607f821691505b602082108103614f7657614f75614f1c565b5b50919050565b6000606082019050614f9160008301866143d7565b614f9e602083018561449a565b614fab60408301846143d7565b949350505050565b6000604082019050614fc860008301856143d7565b614fd5602083018461449a565b9392505050565b7f4e6f20626f78657320746f206f70656e00000000000000000000000000000000600082015250565b600061501260108361429b565b915061501d82614fdc565b602082019050919050565b6000602082019050818103600083015261504181615005565b9050919050565b7f4e487b7100000000000000000000000000000000000000000000000000000000600052603260045260246000fd5b7f596f75206d757374206f776e2074686520626f7820746f206f70656e20697400600082015250565b60006150ad601f8361429b565b91506150b882615077565b602082019050919050565b600060208201905081810360008301526150dc816150a0565b9050919050565b6000815190506150f28161434c565b92915050565b60006020828403121561510e5761510d6141cb565b5b600061511c848285016150e3565b91505092915050565b600061513861513384614886565b614649565b90508281526020810184848401111561515457615153614775565b5b61515f8482856142ac565b509392505050565b600082601f83011261517c5761517b6145e4565b5b815161518c848260208601615125565b91505092915050565b6000602082840312156151ab576151aa6141cb565b5b600082015167ffffffffffffffff8111156151c9576151c86141d0565b5b6151d584828501615167565b91505092915050565b7f4e487b7100000000000000000000000000000000000000000000000000000000600052601160045260246000fd5b600061521882614342565b91507fffffffffffffffffffffffffffffffffffffffffffffffffffffffffffffffff820361524a576152496151de565b5b600182019050919050565b600081519050919050565b600082825260208201905092915050565b6000819050602082019050919050565b600061528d8383614d6d565b905092915050565b6000602082019050919050565b60006152ad82615255565b6152b78185615260565b9350836020820285016152c985615271565b8060005b8581101561530557848403895281516152e68582615281565b94506152f183615295565b925060208a019950506001810190506152cd565b50829750879550505050505092915050565b600060408201905081810360008301526153318185614a26565b9050818103602083015261534581846152a2565b90509392505050565b7f4e756d206f6620626f786573206d757374203e207a65726f0000000000000000600082015250565b600061538460188361429b565b915061538f8261534e565b602082019050919050565b600060208201905081810360008301526153b381615377565b9050919050565b600081905092915050565b50565b60006153d56000836153ba565b91506153e0826153c5565b600082019050919050565b60006153f6826153c8565b9150819050919050565b7f4661696c656420746f2073656e6420457468657220746f205472656173757279600082015250565b600061543660208361429b565b915061544182615400565b602082019050919050565b6000602082019050818103600083015261546581615429565b9050919050565b60008190508160005260206000209050919050565b60006020601f8301049050919050565b600082821b905092915050565b6000600883026154ce7fffffffffffffffffffffffffffffffffffffffffffffffffffffffffffffffff82615491565b6154d88683615491565b95508019841693508086168417925050509392505050565b600061550b61550661550184614342565b614aa6565b614342565b9050919050565b6000819050919050565b615525836154f0565b61553961553182615512565b84845461549e565b825550505050565b600090565b61554e615541565b61555981848461551c565b505050565b5b8181101561557d57615572600082615546565b60018101905061555f565b5050565b601f8211156155c2576155938161546c565b61559c84615481565b810160208510156155ab578190505b6155bf6155b785615481565b83018261555e565b50505b505050565b600082821c905092915050565b60006155e5600019846008026155c7565b1980831691505092915050565b60006155fe83836155d4565b9150826002028217905092915050565b61561782614290565b67ffffffffffffffff8111156156305761562f6145e9565b5b61563a8254614f4b565b615645828285615581565b600060209050601f8311600181146156785760008415615666578287015190505b61567085826155f2565b8655506156d8565b601f1984166156868661546c565b60005b828110156156ae57848901518255600182019150602085019450602081019050615689565b868310156156cb57848901516156c7601f8916826155d4565b8355505b6001600288020188555050505b505050505050565b60006060820190506156f5600083018661449a565b818103602083015261570781856142e7565b9050818103604083015261571b81846142e7565b9050949350505050565b7f45524337323155524953746f726167653a2055524920717565727920666f722060008201527f6e6f6e6578697374656e7420746f6b656e000000000000000000000000000000602082015250565b600061578160318361429b565b915061578c82615725565b604082019050919050565b600060208201905081810360008301526157b081615774565b9050919050565b600081905092915050565b60006157cd82614290565b6157d781856157b7565b93506157e78185602086016142ac565b80840191505092915050565b7f2f00000000000000000000000000000000000000000000000000000000000000600082015250565b60006158296001836157b7565b9150615834826157f3565b600182019050919050565b600061584b82856157c2565b91506158568261581c565b915061586282846157c2565b91508190509392505050565b7f4e6f6e6578697374656e7420746f6b656e000000000000000000000000000000600082015250565b60006158a460118361429b565b91506158af8261586e565b602082019050919050565b600060208201905081810360008301526158d381615897565b9050919050565b6000819050919050565b600067ffffffffffffffff82169050919050565b600061591361590e615909846158da565b614aa6565b6158e4565b9050919050565b615923816158f8565b82525050565b600060208201905061593e600083018461591a565b92915050565b60008151905061595381614521565b92915050565b60006020828403121561596f5761596e6141cb565b5b600061597d84828501615944565b91505092915050565b600081519050919050565b600082825260208201905092915050565b60006159ad82615986565b6159b78185615991565b93506159c78185602086016142ac565b6159d0816142d6565b840191505092915050565b60006080820190506159f060008301876143d7565b6159fd60208301866143d7565b615a0a604083018561449a565b8181036060830152615a1c81846159a2565b905095945050505050565b600081519050615a3681614201565b92915050565b600060208284031215615a5257615a516141cb565b5b6000615a6084828501615a27565b91505092915050565b6000604082019050615a7e60008301856143d7565b615a8b602083018461457a565b9392505050565b6000615a9d82615986565b615aa781856153ba565b9350615ab78185602086016142ac565b80840191505092915050565b6000615acf8284615a92565b915081905092915050565b6000615ae582614342565b9150615af083614342565b9250828203905081811115615b0857615b076151de565b5b92915050565b7f4e487b7100000000000000000000000000000000000000000000000000000000600052603160045260246000fdfea264697066735822122042281661d0c3ea32b1a3b5d7018d1b86527820010535d9d7abd08cb3f499555664736f6c63430008140033",
  "linkReferences": {},
  "deployedLinkReferences": {}
}