{
  "_format": "hh-sol-artifact-1",
  "contractName": "MintBox",
  "sourceName": "contracts/MintBox.sol",
  "abi": [
    {
      "inputs": [],
      "stateMutability": "nonpayable",
      "type": "constructor"
    },
    {
      "inputs": [
        {
          "internalType": "address",
          "name": "target",
          "type": "address"
        }
      ],
      "name": "AddressEmptyCode",
      "type": "error"
    },
    {
      "inputs": [],
      "name": "ECDSAInvalidSignature",
      "type": "error"
    },
    {
      "inputs": [
        {
          "internalType": "uint256",
          "name": "length",
          "type": "uint256"
        }
      ],
      "name": "ECDSAInvalidSignatureLength",
      "type": "error"
    },
    {
      "inputs": [
        {
          "internalType": "bytes32",
          "name": "s",
          "type": "bytes32"
        }
      ],
      "name": "ECDSAInvalidSignatureS",
      "type": "error"
    },
    {
      "inputs": [
        {
          "internalType": "address",
          "name": "implementation",
          "type": "address"
        }
      ],
      "name": "ERC1967InvalidImplementation",
      "type": "error"
    },
    {
      "inputs": [],
      "name": "ERC1967NonPayable",
      "type": "error"
    },
    {
      "inputs": [],
      "name": "ERC721EnumerableForbiddenBatchMint",
      "type": "error"
    },
    {
      "inputs": [
        {
          "internalType": "address",
          "name": "sender",
          "type": "address"
        },
        {
          "internalType": "uint256",
          "name": "tokenId",
          "type": "uint256"
        },
        {
          "internalType": "address",
          "name": "owner",
          "type": "address"
        }
      ],
      "name": "ERC721IncorrectOwner",
      "type": "error"
    },
    {
      "inputs": [
        {
          "internalType": "address",
          "name": "operator",
          "type": "address"
        },
        {
          "internalType": "uint256",
          "name": "tokenId",
          "type": "uint256"
        }
      ],
      "name": "ERC721InsufficientApproval",
      "type": "error"
    },
    {
      "inputs": [
        {
          "internalType": "address",
          "name": "approver",
          "type": "address"
        }
      ],
      "name": "ERC721InvalidApprover",
      "type": "error"
    },
    {
      "inputs": [
        {
          "internalType": "address",
          "name": "operator",
          "type": "address"
        }
      ],
      "name": "ERC721InvalidOperator",
      "type": "error"
    },
    {
      "inputs": [
        {
          "internalType": "address",
          "name": "owner",
          "type": "address"
        }
      ],
      "name": "ERC721InvalidOwner",
      "type": "error"
    },
    {
      "inputs": [
        {
          "internalType": "address",
          "name": "receiver",
          "type": "address"
        }
      ],
      "name": "ERC721InvalidReceiver",
      "type": "error"
    },
    {
      "inputs": [
        {
          "internalType": "address",
          "name": "sender",
          "type": "address"
        }
      ],
      "name": "ERC721InvalidSender",
      "type": "error"
    },
    {
      "inputs": [
        {
          "internalType": "uint256",
          "name": "tokenId",
          "type": "uint256"
        }
      ],
      "name": "ERC721NonexistentToken",
      "type": "error"
    },
    {
      "inputs": [
        {
          "internalType": "address",
          "name": "owner",
          "type": "address"
        },
        {
          "internalType": "uint256",
          "name": "index",
          "type": "uint256"
        }
      ],
      "name": "ERC721OutOfBoundsIndex",
      "type": "error"
    },
    {
      "inputs": [],
      "name": "EnforcedPause",
      "type": "error"
    },
    {
      "inputs": [],
      "name": "ExpectedPause",
      "type": "error"
    },
    {
      "inputs": [],
      "name": "FailedInnerCall",
      "type": "error"
    },
    {
      "inputs": [],
      "name": "InvalidInitialization",
      "type": "error"
    },
    {
      "inputs": [],
      "name": "NotInitializing",
      "type": "error"
    },
    {
      "inputs": [
        {
          "internalType": "address",
          "name": "owner",
          "type": "address"
        }
      ],
      "name": "OwnableInvalidOwner",
      "type": "error"
    },
    {
      "inputs": [
        {
          "internalType": "address",
          "name": "account",
          "type": "address"
        }
      ],
      "name": "OwnableUnauthorizedAccount",
      "type": "error"
    },
    {
      "inputs": [],
      "name": "UUPSUnauthorizedCallContext",
      "type": "error"
    },
    {
      "inputs": [
        {
          "internalType": "bytes32",
          "name": "slot",
          "type": "bytes32"
        }
      ],
      "name": "UUPSUnsupportedProxiableUUID",
      "type": "error"
    },
    {
      "anonymous": false,
      "inputs": [
        {
          "indexed": true,
          "internalType": "address",
          "name": "owner",
          "type": "address"
        },
        {
          "indexed": true,
          "internalType": "address",
          "name": "approved",
          "type": "address"
        },
        {
          "indexed": true,
          "internalType": "uint256",
          "name": "tokenId",
          "type": "uint256"
        }
      ],
      "name": "Approval",
      "type": "event"
    },
    {
      "anonymous": false,
      "inputs": [
        {
          "indexed": true,
          "internalType": "address",
          "name": "owner",
          "type": "address"
        },
        {
          "indexed": true,
          "internalType": "address",
          "name": "operator",
          "type": "address"
        },
        {
          "indexed": false,
          "internalType": "bool",
          "name": "approved",
          "type": "bool"
        }
      ],
      "name": "ApprovalForAll",
      "type": "event"
    },
    {
      "anonymous": false,
      "inputs": [
        {
          "indexed": false,
          "internalType": "uint256",
          "name": "_fromTokenId",
          "type": "uint256"
        },
        {
          "indexed": false,
          "internalType": "uint256",
          "name": "_toTokenId",
          "type": "uint256"
        }
      ],
      "name": "BatchMetadataUpdate",
      "type": "event"
    },
    {
      "anonymous": false,
      "inputs": [
        {
          "indexed": true,
          "internalType": "address",
          "name": "user",
          "type": "address"
        },
        {
          "indexed": false,
          "internalType": "uint256",
          "name": "tokenId",
          "type": "uint256"
        },
        {
          "indexed": false,
          "internalType": "string",
          "name": "itemHash",
          "type": "string"
        }
      ],
      "name": "BoxMinted",
      "type": "event"
    },
    {
      "anonymous": false,
      "inputs": [
        {
          "indexed": false,
          "internalType": "uint64",
          "name": "version",
          "type": "uint64"
        }
      ],
      "name": "Initialized",
      "type": "event"
    },
    {
      "anonymous": false,
      "inputs": [
        {
          "indexed": true,
          "internalType": "address",
          "name": "user",
          "type": "address"
        },
        {
          "indexed": false,
          "internalType": "uint256[]",
          "name": "itemIds",
          "type": "uint256[]"
        },
        {
          "indexed": false,
          "internalType": "string[]",
          "name": "uris",
          "type": "string[]"
        }
      ],
      "name": "ItemsProcessed",
      "type": "event"
    },
    {
      "anonymous": false,
      "inputs": [
        {
          "indexed": false,
          "internalType": "uint256",
          "name": "_tokenId",
          "type": "uint256"
        }
      ],
      "name": "MetadataUpdate",
      "type": "event"
    },
    {
      "anonymous": false,
      "inputs": [
        {
          "indexed": true,
          "internalType": "address",
          "name": "previousOwner",
          "type": "address"
        },
        {
          "indexed": true,
          "internalType": "address",
          "name": "newOwner",
          "type": "address"
        }
      ],
      "name": "OwnershipTransferred",
      "type": "event"
    },
    {
      "anonymous": false,
      "inputs": [
        {
          "indexed": false,
          "internalType": "address",
          "name": "account",
          "type": "address"
        }
      ],
      "name": "Paused",
      "type": "event"
    },
    {
      "anonymous": false,
      "inputs": [
        {
          "indexed": true,
          "internalType": "address",
          "name": "from",
          "type": "address"
        },
        {
          "indexed": true,
          "internalType": "address",
          "name": "to",
          "type": "address"
        },
        {
          "indexed": true,
          "internalType": "uint256",
          "name": "tokenId",
          "type": "uint256"
        }
      ],
      "name": "Transfer",
      "type": "event"
    },
    {
      "anonymous": false,
      "inputs": [
        {
          "indexed": false,
          "internalType": "address",
          "name": "account",
          "type": "address"
        }
      ],
      "name": "Unpaused",
      "type": "event"
    },
    {
      "anonymous": false,
      "inputs": [
        {
          "indexed": true,
          "internalType": "address",
          "name": "implementation",
          "type": "address"
        }
      ],
      "name": "Upgraded",
      "type": "event"
    },
    {
      "inputs": [],
      "name": "UPGRADE_INTERFACE_VERSION",
      "outputs": [
        {
          "internalType": "string",
          "name": "",
          "type": "string"
        }
      ],
      "stateMutability": "view",
      "type": "function"
    },
    {
      "inputs": [
        {
          "internalType": "address",
          "name": "to",
          "type": "address"
        },
        {
          "internalType": "uint256",
          "name": "tokenId",
          "type": "uint256"
        }
      ],
      "name": "approve",
      "outputs": [],
      "stateMutability": "nonpayable",
      "type": "function"
    },
    {
      "inputs": [
        {
          "internalType": "address",
          "name": "owner",
          "type": "address"
        }
      ],
      "name": "balanceOf",
      "outputs": [
        {
          "internalType": "uint256",
          "name": "",
          "type": "uint256"
        }
      ],
      "stateMutability": "view",
      "type": "function"
    },
    {
      "inputs": [
        {
          "internalType": "uint256",
          "name": "tokenId",
          "type": "uint256"
        }
      ],
      "name": "burn",
      "outputs": [],
      "stateMutability": "nonpayable",
      "type": "function"
    },
    {
      "inputs": [],
      "name": "gameTreasury",
      "outputs": [
        {
          "internalType": "contract GameTreasury",
          "name": "",
          "type": "address"
        }
      ],
      "stateMutability": "view",
      "type": "function"
    },
    {
      "inputs": [
        {
          "internalType": "uint256",
          "name": "tokenId",
          "type": "uint256"
        }
      ],
      "name": "getApproved",
      "outputs": [
        {
          "internalType": "address",
          "name": "",
          "type": "address"
        }
      ],
      "stateMutability": "view",
      "type": "function"
    },
    {
      "inputs": [
        {
          "internalType": "address",
          "name": "owner",
          "type": "address"
        }
      ],
      "name": "getBoxesByOwner",
      "outputs": [
        {
          "internalType": "uint256[]",
          "name": "",
          "type": "uint256[]"
        },
        {
          "internalType": "string[]",
          "name": "",
          "type": "string[]"
        }
      ],
      "stateMutability": "view",
      "type": "function"
    },
    {
      "inputs": [
        {
          "internalType": "address",
          "name": "initialOwner",
          "type": "address"
        },
        {
          "internalType": "address",
          "name": "_itemContractAddress",
          "type": "address"
        },
        {
          "internalType": "address",
          "name": "_gameTreasuryAddress",
          "type": "address"
        },
        {
          "internalType": "address",
          "name": "_paymentToken",
          "type": "address"
        },
        {
          "internalType": "address",
          "name": "_authorizedSinger",
          "type": "address"
        }
      ],
      "name": "initialize",
      "outputs": [],
      "stateMutability": "nonpayable",
      "type": "function"
    },
    {
      "inputs": [
        {
          "internalType": "address",
          "name": "owner",
          "type": "address"
        },
        {
          "internalType": "address",
          "name": "operator",
          "type": "address"
        }
      ],
      "name": "isApprovedForAll",
      "outputs": [
        {
          "internalType": "bool",
          "name": "",
          "type": "bool"
        }
      ],
      "stateMutability": "view",
      "type": "function"
    },
    {
      "inputs": [],
      "name": "itemContract",
      "outputs": [
        {
          "internalType": "contract MintItem",
          "name": "",
          "type": "address"
        }
      ],
      "stateMutability": "view",
      "type": "function"
    },
    {
      "inputs": [
        {
          "components": [
            {
              "internalType": "address",
              "name": "to",
              "type": "address"
            },
            {
              "internalType": "string[]",
              "name": "ipfsHashes",
              "type": "string[]"
            },
            {
              "internalType": "uint8",
              "name": "numberOfBoxes",
              "type": "uint8"
            },
            {
              "internalType": "uint256",
              "name": "tokenAmount",
              "type": "uint256"
            },
            {
              "internalType": "bytes",
              "name": "signature",
              "type": "bytes"
            },
            {
              "internalType": "uint256",
              "name": "timestamp",
              "type": "uint256"
            }
          ],
          "internalType": "struct MintBox.BoxMint",
          "name": "params",
          "type": "tuple"
        }
      ],
      "name": "mintMultipleBoxes",
      "outputs": [
        {
          "internalType": "uint256[]",
          "name": "",
          "type": "uint256[]"
        }
      ],
      "stateMutability": "nonpayable",
      "type": "function"
    },
    {
      "inputs": [],
      "name": "name",
      "outputs": [
        {
          "internalType": "string",
          "name": "",
          "type": "string"
        }
      ],
      "stateMutability": "view",
      "type": "function"
    },
    {
      "inputs": [
        {
          "internalType": "uint256[]",
          "name": "boxIds",
          "type": "uint256[]"
        }
      ],
      "name": "openBoxes",
      "outputs": [],
      "stateMutability": "nonpayable",
      "type": "function"
    },
    {
      "inputs": [],
      "name": "owner",
      "outputs": [
        {
          "internalType": "address",
          "name": "",
          "type": "address"
        }
      ],
      "stateMutability": "view",
      "type": "function"
    },
    {
      "inputs": [
        {
          "internalType": "uint256",
          "name": "tokenId",
          "type": "uint256"
        }
      ],
      "name": "ownerOf",
      "outputs": [
        {
          "internalType": "address",
          "name": "",
          "type": "address"
        }
      ],
      "stateMutability": "view",
      "type": "function"
    },
    {
      "inputs": [],
      "name": "pause",
      "outputs": [],
      "stateMutability": "nonpayable",
      "type": "function"
    },
    {
      "inputs": [],
      "name": "paused",
      "outputs": [
        {
          "internalType": "bool",
          "name": "",
          "type": "bool"
        }
      ],
      "stateMutability": "view",
      "type": "function"
    },
    {
      "inputs": [],
      "name": "paymentToken",
      "outputs": [
        {
          "internalType": "contract IERC20",
          "name": "",
          "type": "address"
        }
      ],
      "stateMutability": "view",
      "type": "function"
    },
    {
      "inputs": [],
      "name": "proxiableUUID",
      "outputs": [
        {
          "internalType": "bytes32",
          "name": "",
          "type": "bytes32"
        }
      ],
      "stateMutability": "view",
      "type": "function"
    },
    {
      "inputs": [],
      "name": "renounceOwnership",
      "outputs": [],
      "stateMutability": "nonpayable",
      "type": "function"
    },
    {
      "inputs": [
        {
          "internalType": "address",
          "name": "to",
          "type": "address"
        },
        {
          "internalType": "string",
          "name": "uri",
          "type": "string"
        }
      ],
      "name": "safeMint",
      "outputs": [],
      "stateMutability": "nonpayable",
      "type": "function"
    },
    {
      "inputs": [
        {
          "internalType": "address",
          "name": "from",
          "type": "address"
        },
        {
          "internalType": "address",
          "name": "to",
          "type": "address"
        },
        {
          "internalType": "uint256",
          "name": "tokenId",
          "type": "uint256"
        }
      ],
      "name": "safeTransferFrom",
      "outputs": [],
      "stateMutability": "nonpayable",
      "type": "function"
    },
    {
      "inputs": [
        {
          "internalType": "address",
          "name": "from",
          "type": "address"
        },
        {
          "internalType": "address",
          "name": "to",
          "type": "address"
        },
        {
          "internalType": "uint256",
          "name": "tokenId",
          "type": "uint256"
        },
        {
          "internalType": "bytes",
          "name": "data",
          "type": "bytes"
        }
      ],
      "name": "safeTransferFrom",
      "outputs": [],
      "stateMutability": "nonpayable",
      "type": "function"
    },
    {
      "inputs": [
        {
          "internalType": "address",
          "name": "operator",
          "type": "address"
        },
        {
          "internalType": "bool",
          "name": "approved",
          "type": "bool"
        }
      ],
      "name": "setApprovalForAll",
      "outputs": [],
      "stateMutability": "nonpayable",
      "type": "function"
    },
    {
      "inputs": [
        {
          "internalType": "address",
          "name": "_authorizedSigner",
          "type": "address"
        }
      ],
      "name": "setAuthorizedSigner",
      "outputs": [],
      "stateMutability": "nonpayable",
      "type": "function"
    },
    {
      "inputs": [
        {
          "internalType": "address",
          "name": "_gameTreasuryAddress",
          "type": "address"
        }
      ],
      "name": "setGameTreasuryAddress",
      "outputs": [],
      "stateMutability": "nonpayable",
      "type": "function"
    },
    {
      "inputs": [
        {
          "internalType": "address",
          "name": "_newItemContractAddress",
          "type": "address"
        }
      ],
      "name": "setMintItemContractAddress",
      "outputs": [],
      "stateMutability": "nonpayable",
      "type": "function"
    },
    {
      "inputs": [
        {
          "internalType": "address",
          "name": "_tokenAddress",
          "type": "address"
        }
      ],
      "name": "setPaymentToken",
      "outputs": [],
      "stateMutability": "nonpayable",
      "type": "function"
    },
    {
      "inputs": [
        {
          "internalType": "bytes4",
          "name": "interfaceId",
          "type": "bytes4"
        }
      ],
      "name": "supportsInterface",
      "outputs": [
        {
          "internalType": "bool",
          "name": "",
          "type": "bool"
        }
      ],
      "stateMutability": "view",
      "type": "function"
    },
    {
      "inputs": [],
      "name": "symbol",
      "outputs": [
        {
          "internalType": "string",
          "name": "",
          "type": "string"
        }
      ],
      "stateMutability": "view",
      "type": "function"
    },
    {
      "inputs": [
        {
          "internalType": "uint256",
          "name": "index",
          "type": "uint256"
        }
      ],
      "name": "tokenByIndex",
      "outputs": [
        {
          "internalType": "uint256",
          "name": "",
          "type": "uint256"
        }
      ],
      "stateMutability": "view",
      "type": "function"
    },
    {
      "inputs": [
        {
          "internalType": "address",
          "name": "owner",
          "type": "address"
        },
        {
          "internalType": "uint256",
          "name": "index",
          "type": "uint256"
        }
      ],
      "name": "tokenOfOwnerByIndex",
      "outputs": [
        {
          "internalType": "uint256",
          "name": "",
          "type": "uint256"
        }
      ],
      "stateMutability": "view",
      "type": "function"
    },
    {
      "inputs": [
        {
          "internalType": "uint256",
          "name": "tokenId",
          "type": "uint256"
        }
      ],
      "name": "tokenURI",
      "outputs": [
        {
          "internalType": "string",
          "name": "",
          "type": "string"
        }
      ],
      "stateMutability": "view",
      "type": "function"
    },
    {
      "inputs": [],
      "name": "totalSupply",
      "outputs": [
        {
          "internalType": "uint256",
          "name": "",
          "type": "uint256"
        }
      ],
      "stateMutability": "view",
      "type": "function"
    },
    {
      "inputs": [
        {
          "internalType": "address",
          "name": "from",
          "type": "address"
        },
        {
          "internalType": "address",
          "name": "to",
          "type": "address"
        },
        {
          "internalType": "uint256",
          "name": "tokenId",
          "type": "uint256"
        }
      ],
      "name": "transferFrom",
      "outputs": [],
      "stateMutability": "nonpayable",
      "type": "function"
    },
    {
      "inputs": [
        {
          "internalType": "address",
          "name": "newOwner",
          "type": "address"
        }
      ],
      "name": "transferOwnership",
      "outputs": [],
      "stateMutability": "nonpayable",
      "type": "function"
    },
    {
      "inputs": [],
      "name": "unpause",
      "outputs": [],
      "stateMutability": "nonpayable",
      "type": "function"
    },
    {
      "inputs": [
        {
          "internalType": "address",
          "name": "newImplementation",
          "type": "address"
        },
        {
          "internalType": "bytes",
          "name": "data",
          "type": "bytes"
        }
      ],
      "name": "upgradeToAndCall",
      "outputs": [],
      "stateMutability": "payable",
      "type": "function"
    }
  ],
  "bytecode": "0x60a0604052306080523480156200001557600080fd5b506200002062000026565b620000da565b7ff0c57e16840df040f15088dc2f81fe391c3923bec73e23a9662efc9c229c6a00805468010000000000000000900460ff1615620000775760405163f92ee8a960e01b815260040160405180910390fd5b80546001600160401b0390811614620000d75780546001600160401b0319166001600160401b0390811782556040519081527fc7f505b2f371ae2175ee4913f4499e1f2633a7b5936321eed1cdaeb6115181d29060200160405180910390a15b50565b6080516136e06200010460003960008181611acd01528181611af60152611c3701526136e06000f3fe6080604052600436106102255760003560e01c80636a326ab111610123578063a22cb465116100ab578063d279b0ca1161006f578063d279b0ca14610683578063d2f9efab146106a3578063e985e9c5146106c3578063f2fde38b146106e3578063f7a3e9931461070357600080fd5b8063a22cb465146105d2578063ad3cb1cc146105f2578063b88d4fde14610623578063c87b56dd14610643578063d204c45e1461066357600080fd5b80638d76f940116100f25780638d76f940146105135780638da5cb5b1461053357806395d89b411461057057806399ebda3c14610585578063a1365bf1146105b257600080fd5b80636a326ab1146104a957806370a08231146104c9578063715018a6146104e95780638456cb59146104fe57600080fd5b80633013ce29116101b15780634f1ef286116101755780634f1ef2861461041c5780634f6ccce71461042f57806352d1902d1461044f5780635c975abb146104645780636352211e1461048957600080fd5b80633013ce29146103875780633e52d5c6146103a75780633f4ba83a146103c757806342842e0e146103dc57806342966c68146103fc57600080fd5b80631459457a116101f85780631459457a146102db578063162f8e4e146102fb57806318160ddd1461031b57806323b872dd146103475780632f745c591461036757600080fd5b806301ffc9a71461022a57806306fdde031461025f578063081812fc14610281578063095ea7b3146102b9575b600080fd5b34801561023657600080fd5b5061024a610245366004612b7c565b610731565b60405190151581526020015b60405180910390f35b34801561026b57600080fd5b50610274610742565b6040516102569190612be9565b34801561028d57600080fd5b506102a161029c366004612bfc565b6107e6565b6040516001600160a01b039091168152602001610256565b3480156102c557600080fd5b506102d96102d4366004612c31565b6107fb565b005b3480156102e757600080fd5b506102d96102f6366004612c5b565b61080a565b34801561030757600080fd5b506102d9610316366004612cc0565b6109d8565b34801561032757600080fd5b5060008051602061366b833981519152545b604051908152602001610256565b34801561035357600080fd5b506102d9610362366004612cdb565b610a02565b34801561037357600080fd5b50610339610382366004612c31565b610a92565b34801561039357600080fd5b506005546102a1906001600160a01b031681565b3480156103b357600080fd5b506102d96103c2366004612d5d565b610b06565b3480156103d357600080fd5b506102d9610df9565b3480156103e857600080fd5b506102d96103f7366004612cdb565b610e0b565b34801561040857600080fd5b506102d9610417366004612bfc565b610e2b565b6102d961042a366004612e87565b610e37565b34801561043b57600080fd5b5061033961044a366004612bfc565b610e52565b34801561045b57600080fd5b50610339610eca565b34801561047057600080fd5b5060008051602061368b8339815191525460ff1661024a565b34801561049557600080fd5b506102a16104a4366004612bfc565b610ee7565b3480156104b557600080fd5b506102d96104c4366004612cc0565b610ef2565b3480156104d557600080fd5b506103396104e4366004612cc0565b610f1c565b3480156104f557600080fd5b506102d9610f78565b34801561050a57600080fd5b506102d9610f8a565b34801561051f57600080fd5b506002546102a1906001600160a01b031681565b34801561053f57600080fd5b507f9016d09d72d40fdae2fd8ceac6b6234c7706214fd39c1cd1e609a0528c199300546001600160a01b03166102a1565b34801561057c57600080fd5b50610274610f9a565b34801561059157600080fd5b506105a56105a0366004612ed4565b610fd9565b6040516102569190612f49565b3480156105be57600080fd5b506102d96105cd366004612cc0565b61148b565b3480156105de57600080fd5b506102d96105ed366004612f6a565b6114b5565b3480156105fe57600080fd5b50610274604051806040016040528060058152602001640352e302e360dc1b81525081565b34801561062f57600080fd5b506102d961063e366004612fa1565b6114c0565b34801561064f57600080fd5b5061027461065e366004612bfc565b6114d7565b34801561066f57600080fd5b506102d961067e366004613008565b611639565b34801561068f57600080fd5b506102d961069e366004612cc0565b61166c565b3480156106af57600080fd5b506000546102a1906001600160a01b031681565b3480156106cf57600080fd5b5061024a6106de36600461305f565b611696565b3480156106ef57600080fd5b506102d96106fe366004612cc0565b6116e3565b34801561070f57600080fd5b5061072361071e366004612cc0565b611721565b604051610256929190613092565b600061073c826118d8565b92915050565b6000805160206135f9833981519152805460609190819061076290613104565b80601f016020809104026020016040519081016040528092919081815260200182805461078e90613104565b80156107db5780601f106107b0576101008083540402835291602001916107db565b820191906000526020600020905b8154815290600101906020018083116107be57829003601f168201915b505050505091505090565b60006107f1826118fd565b5061073c82611935565b61080682823361196f565b5050565b7ff0c57e16840df040f15088dc2f81fe391c3923bec73e23a9662efc9c229c6a008054600160401b810460ff1615906001600160401b031660008115801561084f5750825b90506000826001600160401b0316600114801561086b5750303b155b905081158015610879575080155b156108975760405163f92ee8a960e01b815260040160405180910390fd5b845467ffffffffffffffff1916600117855583156108c157845460ff60401b1916600160401b1785555b6108ca8a61197c565b61091260405180604001604052806007815260200166098dedee884def60cb1b815250604051806040016040528060078152602001660989e9ea8849eb60cb1b81525061198d565b61091a61199f565b61092261199f565b61092a6119a7565b61093261199f565b600080546001600160a01b03808b166001600160a01b0319928316178355600280548d8316908416179055600580548b831690841617905560048054918a1691909216179055600154900361098657600180555b83156109cc57845460ff60401b19168555604051600181527fc7f505b2f371ae2175ee4913f4499e1f2633a7b5936321eed1cdaeb6115181d29060200160405180910390a15b50505050505050505050565b6109e06119b7565b600280546001600160a01b0319166001600160a01b0392909216919091179055565b6001600160a01b038216610a3157604051633250574960e11b8152600060048201526024015b60405180910390fd5b6000610a3e838333611a12565b9050836001600160a01b0316816001600160a01b031614610a8c576040516364283d7b60e01b81526001600160a01b0380861660048301526024820184905282166044820152606401610a28565b50505050565b60006000805160206135d9833981519152610aac84610f1c565b8310610add5760405163295f44f760e21b81526001600160a01b038516600482015260248101849052604401610a28565b6001600160a01b0384166000908152602091825260408082208583529092522054905092915050565b6000815111610b4a5760405162461bcd60e51b815260206004820152601060248201526f2737903137bc32b9903a379037b832b760811b6044820152606401610a28565b600081516001600160401b03811115610b6557610b65612d17565b604051908082528060200260200182016040528015610b8e578160200160208202803683370190505b509050600082516001600160401b03811115610bac57610bac612d17565b604051908082528060200260200182016040528015610bdf57816020015b6060815260200190600190039081610bca5790505b50905060005b8351811015610db0576000848281518110610c0257610c0261313e565b60200260200101519050336001600160a01b0316610c1f82610ee7565b6001600160a01b031614610c755760405162461bcd60e51b815260206004820152601f60248201527f596f75206d757374206f776e2074686520626f7820746f206f70656e206974006044820152606401610a28565b600254604051631a47197560e21b81523360048201526000916001600160a01b03169063691c65d4906024016020604051808303816000875af1158015610cc0573d6000803e3d6000fd5b505050506040513d601f19601f82011682018060405250810190610ce49190613154565b905080858481518110610cf957610cf961313e565b602090810291909101015260025460405163c87b56dd60e01b8152600481018390526001600160a01b039091169063c87b56dd90602401600060405180830381865afa158015610d4d573d6000803e3d6000fd5b505050506040513d6000823e601f3d908101601f19168201604052610d75919081019061316d565b848481518110610d8757610d8761313e565b6020026020010181905250610d9b82611a27565b50508080610da8906131f0565b915050610be5565b50336001600160a01b03167f33d6b0535c7fd929fbb7260d4a2bfebbcb4ecbc24379d82fda802da1af8d775f8383604051610dec929190613092565b60405180910390a2505050565b610e016119b7565b610e09611a62565b565b610e26838383604051806020016040528060008152506114c0565b505050565b61080660008233611a12565b610e3f611ac2565b610e4882611b67565b6108068282611b6f565b60006000805160206135d9833981519152610e7960008051602061366b8339815191525490565b8310610ea25760405163295f44f760e21b81526000600482015260248101849052604401610a28565b806002018381548110610eb757610eb761313e565b9060005260206000200154915050919050565b6000610ed4611c2c565b5060008051602061361983398151915290565b600061073c826118fd565b610efa6119b7565b600580546001600160a01b0319166001600160a01b0392909216919091179055565b60006000805160206135f98339815191526001600160a01b038316610f57576040516322718ad960e21b815260006004820152602401610a28565b6001600160a01b039092166000908152600390920160205250604090205490565b610f806119b7565b610e096000611c75565b610f926119b7565b610e09611ce6565b7f80bb2b638cc20bc4d0a60d66940f3ab4a00c1d7b313497ca82fb0b4ab007930180546060916000805160206135f98339815191529161076290613104565b6060600082820180359060a085013590610ff69060408701613209565b60405160200161102693929190928352602083019190915260f81b6001600160f81b031916604082015260410190565b6040516020818303038152906040528051906020012090506000611077827f19457468657265756d205369676e6564204d6573736167653a0a3332000000006000908152601c91909152603c902090565b905060006110c68261108c608088018861322c565b8080601f016020809104026020016040519081016040528093929190818152602001838380828437600092019190915250611d2f92505050565b6004549091506001600160a01b038083169116146111315760405162461bcd60e51b815260206004820152602260248201527f496e76616c6964206f7220756e617574686f72697a6564207369676e61747572604482015261329760f11b6064820152608401610a28565b61114160a086013561012c613279565b421115801561115457508460a001354210155b6111a05760405162461bcd60e51b815260206004820152601d60248201527f526571756573742074696d657374616d7020697320696e76616c69642e0000006044820152606401610a28565b60006111b26060870160408801613209565b60ff161180156111e157506111cd6060860160408701613209565b60ff166111dd602087018761328c565b9050145b61121d5760405162461bcd60e51b815260206004820152600d60248201526c125b9d985b1a59081a5b9c1d5d609a1b6044820152606401610a28565b6005546000546040516323b872dd60e01b81523360048201526001600160a01b039182166024820152606088013560448201529116906323b872dd906064016020604051808303816000875af115801561127b573d6000803e3d6000fd5b505050506040513d601f19601f8201168201806040525081019061129f91906132d5565b6112e35760405162461bcd60e51b8152602060048201526015602482015274151bdad95b881d1c985b9cd9995c8819985a5b1959605a1b6044820152606401610a28565b60006112f56060870160408801613209565b60ff166001600160401b0381111561130f5761130f612d17565b604051908082528060200260200182016040528015611338578160200160208202803683370190505b50905060005b61134e6060880160408901613209565b60ff16811015611481576001805460009182611369836131f0565b90915550905061138561137f60208a018a612cc0565b82611d59565b611392602089018961328c565b838181106113a2576113a261313e565b90506020028101906113b4919061322c565b6000838152600360205260409020916113ce919083613340565b50808383815181106113e2576113e261313e565b6020908102919091018101919091526113fd90890189612cc0565b6001600160a01b03167ff560a4e7d0515eff3d2c237e3eef9cff8a3107e2bf8f3e320d05bec49f5cd3b48261143560208c018c61328c565b868181106114455761144561313e565b9050602002810190611457919061322c565b604051611466939291906133ff565b60405180910390a25080611479816131f0565b91505061133e565b5095945050505050565b6114936119b7565b600080546001600160a01b0319166001600160a01b0392909216919091179055565b610806338383611d73565b6114cb848484610a02565b610a8c84848484611e24565b606060006114e483610ee7565b6001600160a01b0316036115515760405162461bcd60e51b815260206004820152602e60248201527f45524337323155524953746f726167653a2055524920736574206f66206e6f6e60448201526d32bc34b9ba32b73a103a37b5b2b760911b6064820152608401610a28565b6000828152600360205260408120805461156a90613104565b80601f016020809104026020016040519081016040528092919081815260200182805461159690613104565b80156115e35780601f106115b8576101008083540402835291602001916115e3565b820191906000526020600020905b8154815290600101906020018083116115c657829003601f168201915b5050505050905060008151116116115760405180606001604052806032815260200161363960329139611632565b806040516020016116229190613435565b6040516020818303038152906040525b9392505050565b6116416119b7565b6001805460009182611652836131f0565b9190505590506116628382611d59565b610e268183611f4d565b6116746119b7565b600480546001600160a01b0319166001600160a01b0392909216919091179055565b6001600160a01b0391821660009081527f80bb2b638cc20bc4d0a60d66940f3ab4a00c1d7b313497ca82fb0b4ab00793056020908152604080832093909416825291909152205460ff1690565b6116eb6119b7565b6001600160a01b03811661171557604051631e4fbdf760e01b815260006004820152602401610a28565b61171e81611c75565b50565b606080600061172f84610f1c565b90506000816001600160401b0381111561174b5761174b612d17565b604051908082528060200260200182016040528015611774578160200160208202803683370190505b5090506000826001600160401b0381111561179157611791612d17565b6040519080825280602002602001820160405280156117c457816020015b60608152602001906001900390816117af5790505b50905060005b838110156118cc5760006117de8883610a92565b9050808483815181106117f3576117f361313e565b60200260200101818152505060036000828152602001908152602001600020805461181d90613104565b80601f016020809104026020016040519081016040528092919081815260200182805461184990613104565b80156118965780601f1061186b57610100808354040283529160200191611896565b820191906000526020600020905b81548152906001019060200180831161187957829003601f168201915b50505050508383815181106118ad576118ad61313e565b60200260200101819052505080806118c4906131f0565b9150506117ca565b50909590945092505050565b60006001600160e01b03198216632483248360e11b148061073c575061073c82611fc0565b60008061190983611fe5565b90506001600160a01b03811661073c57604051637e27328960e01b815260048101849052602401610a28565b60009081527f80bb2b638cc20bc4d0a60d66940f3ab4a00c1d7b313497ca82fb0b4ab007930460205260409020546001600160a01b031690565b610e26838383600161201f565b611984612135565b61171e8161217e565b611995612135565b6108068282612186565b610e09612135565b6119af612135565b610e096121b7565b336119e97f9016d09d72d40fdae2fd8ceac6b6234c7706214fd39c1cd1e609a0528c199300546001600160a01b031690565b6001600160a01b031614610e095760405163118cdaa760e01b8152336004820152602401610a28565b6000611a1f8484846121d8565b949350505050565b6000611a366000836000611a12565b90506001600160a01b03811661080657604051637e27328960e01b815260048101839052602401610a28565b611a6a6121ed565b60008051602061368b833981519152805460ff191681557f5db9ee0a495bf2e6ff9c91a7834c1ba4fdd244a5e8aa4e537bd38aeae4b073aa335b6040516001600160a01b03909116815260200160405180910390a150565b306001600160a01b037f0000000000000000000000000000000000000000000000000000000000000000161480611b4957507f00000000000000000000000000000000000000000000000000000000000000006001600160a01b0316611b3d600080516020613619833981519152546001600160a01b031690565b6001600160a01b031614155b15610e095760405163703e46dd60e11b815260040160405180910390fd5b61171e6119b7565b816001600160a01b03166352d1902d6040518163ffffffff1660e01b8152600401602060405180830381865afa925050508015611bc9575060408051601f3d908101601f19168201909252611bc691810190613154565b60015b611bf157604051634c9c8ce360e01b81526001600160a01b0383166004820152602401610a28565b6000805160206136198339815191528114611c2257604051632a87526960e21b815260048101829052602401610a28565b610e26838361221d565b306001600160a01b037f00000000000000000000000000000000000000000000000000000000000000001614610e095760405163703e46dd60e11b815260040160405180910390fd5b7f9016d09d72d40fdae2fd8ceac6b6234c7706214fd39c1cd1e609a0528c19930080546001600160a01b031981166001600160a01b03848116918217845560405192169182907f8be0079c531659141344cd1fd0a4f28419497f9722a3daafe3b4186f6b6457e090600090a3505050565b611cee612273565b60008051602061368b833981519152805460ff191660011781557f62e78cea01bee320cd4e420270b5ea74000d11b0c9f74754ebdbfc544b05a25833611aa4565b600080600080611d3f86866122a4565b925092509250611d4f82826122f1565b5090949350505050565b6108068282604051806020016040528060008152506123aa565b6000805160206135f98339815191526001600160a01b038316611db457604051630b61174360e31b81526001600160a01b0384166004820152602401610a28565b6001600160a01b038481166000818152600584016020908152604080832094881680845294825291829020805460ff191687151590811790915591519182527f17307eab39ab6107e8899845ad3d59bd9653f200f220920489ca2b5937696c31910160405180910390a350505050565b6001600160a01b0383163b15610a8c57604051630a85bd0160e11b81526001600160a01b0384169063150b7a0290611e66903390889087908790600401613464565b6020604051808303816000875af1925050508015611ea1575060408051601f3d908101601f19168201909252611e9e918101906134a1565b60015b611f0a573d808015611ecf576040519150601f19603f3d011682016040523d82523d6000602084013e611ed4565b606091505b508051600003611f0257604051633250574960e11b81526001600160a01b0385166004820152602401610a28565b805181602001fd5b6001600160e01b03198116630a85bd0160e11b14611f4657604051633250574960e11b81526001600160a01b0385166004820152602401610a28565b5050505050565b60008281527f0542a41881ee128a365a727b282c86fa859579490b9bb45aab8503648c8e790060208190526040909120611f8783826134be565b506040518381527ff8e1a15aba9398e019f0b49df1a4fde98ee17ae345cb5f6b5e2c27f5033e8ce79060200160405180910390a1505050565b60006001600160e01b0319821663780e9d6360e01b148061073c575061073c826123c1565b60009081527f80bb2b638cc20bc4d0a60d66940f3ab4a00c1d7b313497ca82fb0b4ab007930260205260409020546001600160a01b031690565b6000805160206135f9833981519152818061204257506001600160a01b03831615155b15612104576000612052856118fd565b90506001600160a01b0384161580159061207e5750836001600160a01b0316816001600160a01b031614155b8015612091575061208f8185611696565b155b156120ba5760405163a9fbf51f60e01b81526001600160a01b0385166004820152602401610a28565b82156121025784866001600160a01b0316826001600160a01b03167f8c5be1e5ebec7d5bd14f71427d1e84f3dd0314c0f7b2291e5b200ac8c7c3b92560405160405180910390a45b505b600093845260040160205250506040902080546001600160a01b0319166001600160a01b0392909216919091179055565b7ff0c57e16840df040f15088dc2f81fe391c3923bec73e23a9662efc9c229c6a0054600160401b900460ff16610e0957604051631afcd79f60e31b815260040160405180910390fd5b6116eb612135565b61218e612135565b6000805160206135f9833981519152806121a884826134be565b5060018101610a8c83826134be565b6121bf612135565b60008051602061368b833981519152805460ff19169055565b60006121e2612273565b611a1f848484612411565b60008051602061368b8339815191525460ff16610e0957604051638dfc202b60e01b815260040160405180910390fd5b6122268261250a565b6040516001600160a01b038316907fbc7cd75a20ee27fd9adebab32041f755214dbc6bffa90cc0225b39da2e5c2d3b90600090a280511561226b57610e26828261256f565b6108066125e5565b60008051602061368b8339815191525460ff1615610e095760405163d93c066560e01b815260040160405180910390fd5b600080600083516041036122de5760208401516040850151606086015160001a6122d088828585612604565b9550955095505050506122ea565b50508151600091506002905b9250925092565b60008260038111156123055761230561357d565b0361230e575050565b60018260038111156123225761232261357d565b036123405760405163f645eedf60e01b815260040160405180910390fd5b60028260038111156123545761235461357d565b036123755760405163fce698f760e01b815260048101829052602401610a28565b60038260038111156123895761238961357d565b03610806576040516335e2f38360e21b815260048101829052602401610a28565b6123b483836126d3565b610e266000848484611e24565b60006001600160e01b031982166380ac58cd60e01b14806123f257506001600160e01b03198216635b5e139f60e01b145b8061073c57506301ffc9a760e01b6001600160e01b031983161461073c565b60008061241f858585612738565b90506001600160a01b0381166124a8576124a38460008051602061366b833981519152805460008381527f645e039705490088daad89bae25049a34f4a9072d398537b1ab2425f24cbed0360205260408120829055600182018355919091527fa42f15e5d656f8155fd7419d740a6073999f19cd6e061449ce4a257150545bf20155565b6124cb565b846001600160a01b0316816001600160a01b0316146124cb576124cb8185612842565b6001600160a01b0385166124e7576124e2846128e6565b611a1f565b846001600160a01b0316816001600160a01b031614611a1f57611a1f85856129bd565b806001600160a01b03163b60000361254057604051634c9c8ce360e01b81526001600160a01b0382166004820152602401610a28565b60008051602061361983398151915280546001600160a01b0319166001600160a01b0392909216919091179055565b6060600080846001600160a01b03168460405161258c9190613593565b600060405180830381855af49150503d80600081146125c7576040519150601f19603f3d011682016040523d82523d6000602084013e6125cc565b606091505b50915091506125dc858383612a18565b95945050505050565b3415610e095760405163b398979f60e01b815260040160405180910390fd5b600080807f7fffffffffffffffffffffffffffffff5d576e7357a4501ddfe92f46681b20a084111561263f57506000915060039050826126c9565b604080516000808252602082018084528a905260ff891692820192909252606081018790526080810186905260019060a0016020604051602081039080840390855afa158015612693573d6000803e3d6000fd5b5050604051601f1901519150506001600160a01b0381166126bf575060009250600191508290506126c9565b9250600091508190505b9450945094915050565b6001600160a01b0382166126fd57604051633250574960e11b815260006004820152602401610a28565b600061270b83836000611a12565b90506001600160a01b03811615610e26576040516339e3563760e11b815260006004820152602401610a28565b60006000805160206135f98339815191528161275385611fe5565b90506001600160a01b0384161561276f5761276f818587612a74565b6001600160a01b038116156127af5761278c60008660008061201f565b6001600160a01b0381166000908152600383016020526040902080546000190190555b6001600160a01b038616156127e0576001600160a01b03861660009081526003830160205260409020805460010190555b600085815260028301602052604080822080546001600160a01b0319166001600160a01b038a811691821790925591518893918516917fddf252ad1be2c89b69c2b068fc378daa952ba7f163c4a11628f55a4df523b3ef91a495945050505050565b6000805160206135d9833981519152600061285c84610f1c565b60008481526001840160205260409020549091508082146128b1576001600160a01b03851660009081526020848152604080832085845282528083205484845281842081905583526001860190915290208190555b50600092835260018201602090815260408085208590556001600160a01b039095168452918252838320908352905290812055565b60008051602061366b833981519152546000805160206135d983398151915290600090612915906001906135af565b60008481526003840160205260408120546002850180549394509092849081106129415761294161313e565b90600052602060002001549050808460020183815481106129645761296461313e565b6000918252602080832090910192909255828152600386019091526040808220849055868252812055600284018054806129a0576129a06135c2565b600190038181906000526020600020016000905590555050505050565b6000805160206135d9833981519152600060016129d985610f1c565b6129e391906135af565b6001600160a01b0390941660009081526020838152604080832087845282528083208690559482526001909301909252502055565b606082612a2d57612a2882612ad8565b611632565b8151158015612a4457506001600160a01b0384163b155b15612a6d57604051639996b31560e01b81526001600160a01b0385166004820152602401610a28565b5080611632565b612a7f838383612b01565b610e26576001600160a01b038316612aad57604051637e27328960e01b815260048101829052602401610a28565b60405163177e802f60e01b81526001600160a01b038316600482015260248101829052604401610a28565b805115612ae85780518082602001fd5b604051630a12f52160e11b815260040160405180910390fd5b60006001600160a01b03831615801590611a1f5750826001600160a01b0316846001600160a01b03161480612b3b5750612b3b8484611696565b80611a1f5750826001600160a01b0316612b5483611935565b6001600160a01b031614949350505050565b6001600160e01b03198116811461171e57600080fd5b600060208284031215612b8e57600080fd5b813561163281612b66565b60005b83811015612bb4578181015183820152602001612b9c565b50506000910152565b60008151808452612bd5816020860160208601612b99565b601f01601f19169290920160200192915050565b6020815260006116326020830184612bbd565b600060208284031215612c0e57600080fd5b5035919050565b80356001600160a01b0381168114612c2c57600080fd5b919050565b60008060408385031215612c4457600080fd5b612c4d83612c15565b946020939093013593505050565b600080600080600060a08688031215612c7357600080fd5b612c7c86612c15565b9450612c8a60208701612c15565b9350612c9860408701612c15565b9250612ca660608701612c15565b9150612cb460808701612c15565b90509295509295909350565b600060208284031215612cd257600080fd5b61163282612c15565b600080600060608486031215612cf057600080fd5b612cf984612c15565b9250612d0760208501612c15565b9150604084013590509250925092565b634e487b7160e01b600052604160045260246000fd5b604051601f8201601f191681016001600160401b0381118282101715612d5557612d55612d17565b604052919050565b60006020808385031215612d7057600080fd5b82356001600160401b0380821115612d8757600080fd5b818501915085601f830112612d9b57600080fd5b813581811115612dad57612dad612d17565b8060051b9150612dbe848301612d2d565b8181529183018401918481019088841115612dd857600080fd5b938501935b83851015612df657843582529385019390850190612ddd565b98975050505050505050565b60006001600160401b03821115612e1b57612e1b612d17565b50601f01601f191660200190565b6000612e3c612e3784612e02565b612d2d565b9050828152838383011115612e5057600080fd5b828260208301376000602084830101529392505050565b600082601f830112612e7857600080fd5b61163283833560208501612e29565b60008060408385031215612e9a57600080fd5b612ea383612c15565b915060208301356001600160401b03811115612ebe57600080fd5b612eca85828601612e67565b9150509250929050565b600060208284031215612ee657600080fd5b81356001600160401b03811115612efc57600080fd5b820160c0818503121561163257600080fd5b600081518084526020808501945080840160005b83811015612f3e57815187529582019590820190600101612f22565b509495945050505050565b6020815260006116326020830184612f0e565b801515811461171e57600080fd5b60008060408385031215612f7d57600080fd5b612f8683612c15565b91506020830135612f9681612f5c565b809150509250929050565b60008060008060808587031215612fb757600080fd5b612fc085612c15565b9350612fce60208601612c15565b92506040850135915060608501356001600160401b03811115612ff057600080fd5b612ffc87828801612e67565b91505092959194509250565b6000806040838503121561301b57600080fd5b61302483612c15565b915060208301356001600160401b0381111561303f57600080fd5b8301601f8101851361305057600080fd5b612eca85823560208401612e29565b6000806040838503121561307257600080fd5b61307b83612c15565b915061308960208401612c15565b90509250929050565b6040815260006130a56040830185612f0e565b6020838203818501528185518084528284019150828160051b85010183880160005b838110156130f557601f198784030185526130e3838351612bbd565b948601949250908501906001016130c7565b50909998505050505050505050565b600181811c9082168061311857607f821691505b60208210810361313857634e487b7160e01b600052602260045260246000fd5b50919050565b634e487b7160e01b600052603260045260246000fd5b60006020828403121561316657600080fd5b5051919050565b60006020828403121561317f57600080fd5b81516001600160401b0381111561319557600080fd5b8201601f810184136131a657600080fd5b80516131b4612e3782612e02565b8181528560208385010111156131c957600080fd5b6125dc826020830160208601612b99565b634e487b7160e01b600052601160045260246000fd5b600060018201613202576132026131da565b5060010190565b60006020828403121561321b57600080fd5b813560ff8116811461163257600080fd5b6000808335601e1984360301811261324357600080fd5b8301803591506001600160401b0382111561325d57600080fd5b60200191503681900382131561327257600080fd5b9250929050565b8082018082111561073c5761073c6131da565b6000808335601e198436030181126132a357600080fd5b8301803591506001600160401b038211156132bd57600080fd5b6020019150600581901b360382131561327257600080fd5b6000602082840312156132e757600080fd5b815161163281612f5c565b601f821115610e2657600081815260208120601f850160051c810160208610156133195750805b601f850160051c820191505b8181101561333857828155600101613325565b505050505050565b6001600160401b0383111561335757613357612d17565b61336b836133658354613104565b836132f2565b6000601f84116001811461339f57600085156133875750838201355b600019600387901b1c1916600186901b178355611f46565b600083815260209020601f19861690835b828110156133d057868501358255602094850194600190920191016133b0565b50868210156133ed5760001960f88860031b161c19848701351681555b505060018560011b0183555050505050565b83815260406020820152816040820152818360608301376000818301606090810191909152601f909201601f1916010192915050565b66697066733a2f2f60c81b815260008251613457816007850160208701612b99565b9190910160070192915050565b6001600160a01b038581168252841660208201526040810183905260806060820181905260009061349790830184612bbd565b9695505050505050565b6000602082840312156134b357600080fd5b815161163281612b66565b81516001600160401b038111156134d7576134d7612d17565b6134eb816134e58454613104565b846132f2565b602080601f83116001811461352057600084156135085750858301515b600019600386901b1c1916600185901b178555613338565b600085815260208120601f198616915b8281101561354f57888601518255948401946001909101908401613530565b508582101561356d5787850151600019600388901b60f8161c191681555b5050505050600190811b01905550565b634e487b7160e01b600052602160045260246000fd5b600082516135a5818460208701612b99565b9190910192915050565b8181038181111561073c5761073c6131da565b634e487b7160e01b600052603160045260246000fdfe645e039705490088daad89bae25049a34f4a9072d398537b1ab2425f24cbed0080bb2b638cc20bc4d0a60d66940f3ab4a00c1d7b313497ca82fb0b4ab0079300360894a13ba1a3210667c828492db98dca3e2076cc3735a920a3ca505d382bbc68747470733a2f2f6c75636b7973746172736869702e76657263656c2e6170702f626f782d6d657461646174612e6a736f6e645e039705490088daad89bae25049a34f4a9072d398537b1ab2425f24cbed02cd5ed15c6e187e77e9aee88184c21f4f2182ab5827cb3b7e07fbedcd63f03300a264697066735822122038c1a1b79902e8902818c68b873cba1a9a0759e9c67e82f654661deb4879c24464736f6c63430008140033",
  "linkReferences": {},
  "deployedLinkReferences": {}
}