{
  "_format": "hh-sol-artifact-1",
  "contractName": "MintBox",
  "sourceName": "contracts/MintBox.sol",
  "abi": [
    {
      "inputs": [],
      "stateMutability": "nonpayable",
      "type": "constructor"
    },
    {
      "inputs": [],
      "name": "AccessControlBadConfirmation",
      "type": "error"
    },
    {
      "inputs": [
        {
          "internalType": "address",
          "name": "account",
          "type": "address"
        },
        {
          "internalType": "bytes32",
          "name": "neededRole",
          "type": "bytes32"
        }
      ],
      "name": "AccessControlUnauthorizedAccount",
      "type": "error"
    },
    {
      "inputs": [
        {
          "internalType": "address",
          "name": "target",
          "type": "address"
        }
      ],
      "name": "AddressEmptyCode",
      "type": "error"
    },
    {
      "inputs": [
        {
          "internalType": "address",
          "name": "implementation",
          "type": "address"
        }
      ],
      "name": "ERC1967InvalidImplementation",
      "type": "error"
    },
    {
      "inputs": [],
      "name": "ERC1967NonPayable",
      "type": "error"
    },
    {
      "inputs": [],
      "name": "ERC721EnumerableForbiddenBatchMint",
      "type": "error"
    },
    {
      "inputs": [
        {
          "internalType": "address",
          "name": "sender",
          "type": "address"
        },
        {
          "internalType": "uint256",
          "name": "tokenId",
          "type": "uint256"
        },
        {
          "internalType": "address",
          "name": "owner",
          "type": "address"
        }
      ],
      "name": "ERC721IncorrectOwner",
      "type": "error"
    },
    {
      "inputs": [
        {
          "internalType": "address",
          "name": "operator",
          "type": "address"
        },
        {
          "internalType": "uint256",
          "name": "tokenId",
          "type": "uint256"
        }
      ],
      "name": "ERC721InsufficientApproval",
      "type": "error"
    },
    {
      "inputs": [
        {
          "internalType": "address",
          "name": "approver",
          "type": "address"
        }
      ],
      "name": "ERC721InvalidApprover",
      "type": "error"
    },
    {
      "inputs": [
        {
          "internalType": "address",
          "name": "operator",
          "type": "address"
        }
      ],
      "name": "ERC721InvalidOperator",
      "type": "error"
    },
    {
      "inputs": [
        {
          "internalType": "address",
          "name": "owner",
          "type": "address"
        }
      ],
      "name": "ERC721InvalidOwner",
      "type": "error"
    },
    {
      "inputs": [
        {
          "internalType": "address",
          "name": "receiver",
          "type": "address"
        }
      ],
      "name": "ERC721InvalidReceiver",
      "type": "error"
    },
    {
      "inputs": [
        {
          "internalType": "address",
          "name": "sender",
          "type": "address"
        }
      ],
      "name": "ERC721InvalidSender",
      "type": "error"
    },
    {
      "inputs": [
        {
          "internalType": "uint256",
          "name": "tokenId",
          "type": "uint256"
        }
      ],
      "name": "ERC721NonexistentToken",
      "type": "error"
    },
    {
      "inputs": [
        {
          "internalType": "address",
          "name": "owner",
          "type": "address"
        },
        {
          "internalType": "uint256",
          "name": "index",
          "type": "uint256"
        }
      ],
      "name": "ERC721OutOfBoundsIndex",
      "type": "error"
    },
    {
      "inputs": [],
      "name": "EnforcedPause",
      "type": "error"
    },
    {
      "inputs": [],
      "name": "ExpectedPause",
      "type": "error"
    },
    {
      "inputs": [],
      "name": "FailedInnerCall",
      "type": "error"
    },
    {
      "inputs": [],
      "name": "InvalidInitialization",
      "type": "error"
    },
    {
      "inputs": [],
      "name": "NotInitializing",
      "type": "error"
    },
    {
      "inputs": [],
      "name": "UUPSUnauthorizedCallContext",
      "type": "error"
    },
    {
      "inputs": [
        {
          "internalType": "bytes32",
          "name": "slot",
          "type": "bytes32"
        }
      ],
      "name": "UUPSUnsupportedProxiableUUID",
      "type": "error"
    },
    {
      "anonymous": false,
      "inputs": [
        {
          "indexed": true,
          "internalType": "address",
          "name": "owner",
          "type": "address"
        },
        {
          "indexed": true,
          "internalType": "address",
          "name": "approved",
          "type": "address"
        },
        {
          "indexed": true,
          "internalType": "uint256",
          "name": "tokenId",
          "type": "uint256"
        }
      ],
      "name": "Approval",
      "type": "event"
    },
    {
      "anonymous": false,
      "inputs": [
        {
          "indexed": true,
          "internalType": "address",
          "name": "owner",
          "type": "address"
        },
        {
          "indexed": true,
          "internalType": "address",
          "name": "operator",
          "type": "address"
        },
        {
          "indexed": false,
          "internalType": "bool",
          "name": "approved",
          "type": "bool"
        }
      ],
      "name": "ApprovalForAll",
      "type": "event"
    },
    {
      "anonymous": false,
      "inputs": [
        {
          "indexed": false,
          "internalType": "uint256",
          "name": "_fromTokenId",
          "type": "uint256"
        },
        {
          "indexed": false,
          "internalType": "uint256",
          "name": "_toTokenId",
          "type": "uint256"
        }
      ],
      "name": "BatchMetadataUpdate",
      "type": "event"
    },
    {
      "anonymous": false,
      "inputs": [
        {
          "indexed": true,
          "internalType": "address",
          "name": "user",
          "type": "address"
        },
        {
          "indexed": false,
          "internalType": "uint256",
          "name": "tokenId",
          "type": "uint256"
        },
        {
          "indexed": false,
          "internalType": "string",
          "name": "name",
          "type": "string"
        },
        {
          "indexed": false,
          "internalType": "string",
          "name": "itemType",
          "type": "string"
        }
      ],
      "name": "BoxMinted",
      "type": "event"
    },
    {
      "anonymous": false,
      "inputs": [
        {
          "indexed": false,
          "internalType": "uint64",
          "name": "version",
          "type": "uint64"
        }
      ],
      "name": "Initialized",
      "type": "event"
    },
    {
      "anonymous": false,
      "inputs": [
        {
          "indexed": true,
          "internalType": "address",
          "name": "user",
          "type": "address"
        },
        {
          "indexed": false,
          "internalType": "uint256",
          "name": "itemId",
          "type": "uint256"
        },
        {
          "indexed": false,
          "internalType": "string",
          "name": "metadata",
          "type": "string"
        }
      ],
      "name": "ItemMinted",
      "type": "event"
    },
    {
      "anonymous": false,
      "inputs": [
        {
          "indexed": true,
          "internalType": "address",
          "name": "user",
          "type": "address"
        },
        {
          "indexed": false,
          "internalType": "uint256[]",
          "name": "itemIds",
          "type": "uint256[]"
        },
        {
          "indexed": false,
          "internalType": "string[]",
          "name": "uris",
          "type": "string[]"
        }
      ],
      "name": "ItemsProcessed",
      "type": "event"
    },
    {
      "anonymous": false,
      "inputs": [
        {
          "indexed": false,
          "internalType": "uint256",
          "name": "_tokenId",
          "type": "uint256"
        }
      ],
      "name": "MetadataUpdate",
      "type": "event"
    },
    {
      "anonymous": false,
      "inputs": [
        {
          "indexed": false,
          "internalType": "address",
          "name": "account",
          "type": "address"
        }
      ],
      "name": "Paused",
      "type": "event"
    },
    {
      "anonymous": false,
      "inputs": [
        {
          "indexed": true,
          "internalType": "bytes32",
          "name": "role",
          "type": "bytes32"
        },
        {
          "indexed": true,
          "internalType": "bytes32",
          "name": "previousAdminRole",
          "type": "bytes32"
        },
        {
          "indexed": true,
          "internalType": "bytes32",
          "name": "newAdminRole",
          "type": "bytes32"
        }
      ],
      "name": "RoleAdminChanged",
      "type": "event"
    },
    {
      "anonymous": false,
      "inputs": [
        {
          "indexed": true,
          "internalType": "bytes32",
          "name": "role",
          "type": "bytes32"
        },
        {
          "indexed": true,
          "internalType": "address",
          "name": "account",
          "type": "address"
        },
        {
          "indexed": true,
          "internalType": "address",
          "name": "sender",
          "type": "address"
        }
      ],
      "name": "RoleGranted",
      "type": "event"
    },
    {
      "anonymous": false,
      "inputs": [
        {
          "indexed": true,
          "internalType": "bytes32",
          "name": "role",
          "type": "bytes32"
        },
        {
          "indexed": true,
          "internalType": "address",
          "name": "account",
          "type": "address"
        },
        {
          "indexed": true,
          "internalType": "address",
          "name": "sender",
          "type": "address"
        }
      ],
      "name": "RoleRevoked",
      "type": "event"
    },
    {
      "anonymous": false,
      "inputs": [
        {
          "indexed": true,
          "internalType": "address",
          "name": "from",
          "type": "address"
        },
        {
          "indexed": true,
          "internalType": "address",
          "name": "to",
          "type": "address"
        },
        {
          "indexed": true,
          "internalType": "uint256",
          "name": "tokenId",
          "type": "uint256"
        }
      ],
      "name": "Transfer",
      "type": "event"
    },
    {
      "anonymous": false,
      "inputs": [
        {
          "indexed": false,
          "internalType": "address",
          "name": "account",
          "type": "address"
        }
      ],
      "name": "Unpaused",
      "type": "event"
    },
    {
      "anonymous": false,
      "inputs": [
        {
          "indexed": true,
          "internalType": "address",
          "name": "implementation",
          "type": "address"
        }
      ],
      "name": "Upgraded",
      "type": "event"
    },
    {
      "inputs": [],
      "name": "DEFAULT_ADMIN_ROLE",
      "outputs": [
        {
          "internalType": "bytes32",
          "name": "",
          "type": "bytes32"
        }
      ],
      "stateMutability": "view",
      "type": "function"
    },
    {
      "inputs": [],
      "name": "MINTER_ROLE",
      "outputs": [
        {
          "internalType": "bytes32",
          "name": "",
          "type": "bytes32"
        }
      ],
      "stateMutability": "view",
      "type": "function"
    },
    {
      "inputs": [],
      "name": "PAUSER_ROLE",
      "outputs": [
        {
          "internalType": "bytes32",
          "name": "",
          "type": "bytes32"
        }
      ],
      "stateMutability": "view",
      "type": "function"
    },
    {
      "inputs": [],
      "name": "UPGRADER_ROLE",
      "outputs": [
        {
          "internalType": "bytes32",
          "name": "",
          "type": "bytes32"
        }
      ],
      "stateMutability": "view",
      "type": "function"
    },
    {
      "inputs": [],
      "name": "UPGRADE_INTERFACE_VERSION",
      "outputs": [
        {
          "internalType": "string",
          "name": "",
          "type": "string"
        }
      ],
      "stateMutability": "view",
      "type": "function"
    },
    {
      "inputs": [
        {
          "internalType": "address",
          "name": "to",
          "type": "address"
        },
        {
          "internalType": "uint256",
          "name": "tokenId",
          "type": "uint256"
        }
      ],
      "name": "approve",
      "outputs": [],
      "stateMutability": "nonpayable",
      "type": "function"
    },
    {
      "inputs": [
        {
          "internalType": "address",
          "name": "owner",
          "type": "address"
        }
      ],
      "name": "balanceOf",
      "outputs": [
        {
          "internalType": "uint256",
          "name": "",
          "type": "uint256"
        }
      ],
      "stateMutability": "view",
      "type": "function"
    },
    {
      "inputs": [
        {
          "internalType": "uint256",
          "name": "tokenId",
          "type": "uint256"
        }
      ],
      "name": "burn",
      "outputs": [],
      "stateMutability": "nonpayable",
      "type": "function"
    },
    {
      "inputs": [],
      "name": "gameTreasury",
      "outputs": [
        {
          "internalType": "contract GameTreasury",
          "name": "",
          "type": "address"
        }
      ],
      "stateMutability": "view",
      "type": "function"
    },
    {
      "inputs": [
        {
          "internalType": "uint256",
          "name": "tokenId",
          "type": "uint256"
        }
      ],
      "name": "getApproved",
      "outputs": [
        {
          "internalType": "address",
          "name": "",
          "type": "address"
        }
      ],
      "stateMutability": "view",
      "type": "function"
    },
    {
      "inputs": [
        {
          "internalType": "uint256",
          "name": "tokenId",
          "type": "uint256"
        }
      ],
      "name": "getBoxMetadata",
      "outputs": [
        {
          "internalType": "string",
          "name": "",
          "type": "string"
        },
        {
          "internalType": "string",
          "name": "",
          "type": "string"
        }
      ],
      "stateMutability": "view",
      "type": "function"
    },
    {
      "inputs": [
        {
          "internalType": "address",
          "name": "owner",
          "type": "address"
        }
      ],
      "name": "getBoxesByOwner",
      "outputs": [
        {
          "components": [
            {
              "internalType": "uint256",
              "name": "id",
              "type": "uint256"
            },
            {
              "internalType": "string",
              "name": "name",
              "type": "string"
            },
            {
              "internalType": "string",
              "name": "imageURI",
              "type": "string"
            }
          ],
          "internalType": "struct MintBox.BoxDetails[]",
          "name": "",
          "type": "tuple[]"
        }
      ],
      "stateMutability": "view",
      "type": "function"
    },
    {
      "inputs": [
        {
          "internalType": "bytes32",
          "name": "role",
          "type": "bytes32"
        }
      ],
      "name": "getRoleAdmin",
      "outputs": [
        {
          "internalType": "bytes32",
          "name": "",
          "type": "bytes32"
        }
      ],
      "stateMutability": "view",
      "type": "function"
    },
    {
      "inputs": [
        {
          "internalType": "bytes32",
          "name": "role",
          "type": "bytes32"
        },
        {
          "internalType": "address",
          "name": "account",
          "type": "address"
        }
      ],
      "name": "grantRole",
      "outputs": [],
      "stateMutability": "nonpayable",
      "type": "function"
    },
    {
      "inputs": [
        {
          "internalType": "bytes32",
          "name": "role",
          "type": "bytes32"
        },
        {
          "internalType": "address",
          "name": "account",
          "type": "address"
        }
      ],
      "name": "hasRole",
      "outputs": [
        {
          "internalType": "bool",
          "name": "",
          "type": "bool"
        }
      ],
      "stateMutability": "view",
      "type": "function"
    },
    {
      "inputs": [
        {
          "internalType": "address",
          "name": "defaultAdmin",
          "type": "address"
        },
        {
          "internalType": "address",
          "name": "upgrader",
          "type": "address"
        },
        {
          "internalType": "address",
          "name": "_itemContractAddress",
          "type": "address"
        },
        {
          "internalType": "address",
          "name": "_gameTreasuryAddress",
          "type": "address"
        }
      ],
      "name": "initialize",
      "outputs": [],
      "stateMutability": "nonpayable",
      "type": "function"
    },
    {
      "inputs": [
        {
          "internalType": "address",
          "name": "owner",
          "type": "address"
        },
        {
          "internalType": "address",
          "name": "operator",
          "type": "address"
        }
      ],
      "name": "isApprovedForAll",
      "outputs": [
        {
          "internalType": "bool",
          "name": "",
          "type": "bool"
        }
      ],
      "stateMutability": "view",
      "type": "function"
    },
    {
      "inputs": [],
      "name": "itemContract",
      "outputs": [
        {
          "internalType": "contract MintItem",
          "name": "",
          "type": "address"
        }
      ],
      "stateMutability": "view",
      "type": "function"
    },
    {
      "inputs": [
        {
          "internalType": "address",
          "name": "to",
          "type": "address"
        },
        {
          "internalType": "string",
          "name": "name",
          "type": "string"
        },
        {
          "internalType": "string",
          "name": "itemType",
          "type": "string"
        },
        {
          "internalType": "uint256",
          "name": "numberOfBoxes",
          "type": "uint256"
        }
      ],
      "name": "mintMultipleBoxes",
      "outputs": [
        {
          "internalType": "uint256[]",
          "name": "",
          "type": "uint256[]"
        }
      ],
      "stateMutability": "payable",
      "type": "function"
    },
    {
      "inputs": [],
      "name": "name",
      "outputs": [
        {
          "internalType": "string",
          "name": "",
          "type": "string"
        }
      ],
      "stateMutability": "view",
      "type": "function"
    },
    {
      "inputs": [
        {
          "internalType": "uint256",
          "name": "boxId",
          "type": "uint256"
        }
      ],
      "name": "openBox",
      "outputs": [],
      "stateMutability": "nonpayable",
      "type": "function"
    },
    {
      "inputs": [
        {
          "internalType": "uint256[]",
          "name": "boxIds",
          "type": "uint256[]"
        }
      ],
      "name": "openMultipleBoxes",
      "outputs": [],
      "stateMutability": "nonpayable",
      "type": "function"
    },
    {
      "inputs": [
        {
          "internalType": "uint256",
          "name": "tokenId",
          "type": "uint256"
        }
      ],
      "name": "ownerOf",
      "outputs": [
        {
          "internalType": "address",
          "name": "",
          "type": "address"
        }
      ],
      "stateMutability": "view",
      "type": "function"
    },
    {
      "inputs": [],
      "name": "pause",
      "outputs": [],
      "stateMutability": "nonpayable",
      "type": "function"
    },
    {
      "inputs": [],
      "name": "paused",
      "outputs": [
        {
          "internalType": "bool",
          "name": "",
          "type": "bool"
        }
      ],
      "stateMutability": "view",
      "type": "function"
    },
    {
      "inputs": [],
      "name": "proxiableUUID",
      "outputs": [
        {
          "internalType": "bytes32",
          "name": "",
          "type": "bytes32"
        }
      ],
      "stateMutability": "view",
      "type": "function"
    },
    {
      "inputs": [
        {
          "internalType": "bytes32",
          "name": "role",
          "type": "bytes32"
        },
        {
          "internalType": "address",
          "name": "callerConfirmation",
          "type": "address"
        }
      ],
      "name": "renounceRole",
      "outputs": [],
      "stateMutability": "nonpayable",
      "type": "function"
    },
    {
      "inputs": [
        {
          "internalType": "bytes32",
          "name": "role",
          "type": "bytes32"
        },
        {
          "internalType": "address",
          "name": "account",
          "type": "address"
        }
      ],
      "name": "revokeRole",
      "outputs": [],
      "stateMutability": "nonpayable",
      "type": "function"
    },
    {
      "inputs": [
        {
          "internalType": "address",
          "name": "to",
          "type": "address"
        },
        {
          "internalType": "string",
          "name": "uri",
          "type": "string"
        }
      ],
      "name": "safeMint",
      "outputs": [],
      "stateMutability": "nonpayable",
      "type": "function"
    },
    {
      "inputs": [
        {
          "internalType": "address",
          "name": "from",
          "type": "address"
        },
        {
          "internalType": "address",
          "name": "to",
          "type": "address"
        },
        {
          "internalType": "uint256",
          "name": "tokenId",
          "type": "uint256"
        }
      ],
      "name": "safeTransferFrom",
      "outputs": [],
      "stateMutability": "nonpayable",
      "type": "function"
    },
    {
      "inputs": [
        {
          "internalType": "address",
          "name": "from",
          "type": "address"
        },
        {
          "internalType": "address",
          "name": "to",
          "type": "address"
        },
        {
          "internalType": "uint256",
          "name": "tokenId",
          "type": "uint256"
        },
        {
          "internalType": "bytes",
          "name": "data",
          "type": "bytes"
        }
      ],
      "name": "safeTransferFrom",
      "outputs": [],
      "stateMutability": "nonpayable",
      "type": "function"
    },
    {
      "inputs": [
        {
          "internalType": "address",
          "name": "operator",
          "type": "address"
        },
        {
          "internalType": "bool",
          "name": "approved",
          "type": "bool"
        }
      ],
      "name": "setApprovalForAll",
      "outputs": [],
      "stateMutability": "nonpayable",
      "type": "function"
    },
    {
      "inputs": [
        {
          "internalType": "address",
          "name": "_gameTreasuryAddress",
          "type": "address"
        }
      ],
      "name": "setGameTreasuryAddress",
      "outputs": [],
      "stateMutability": "nonpayable",
      "type": "function"
    },
    {
      "inputs": [
        {
          "internalType": "address",
          "name": "_newItemContractAddress",
          "type": "address"
        }
      ],
      "name": "setMintItemContractAddress",
      "outputs": [],
      "stateMutability": "nonpayable",
      "type": "function"
    },
    {
      "inputs": [
        {
          "internalType": "bytes4",
          "name": "interfaceId",
          "type": "bytes4"
        }
      ],
      "name": "supportsInterface",
      "outputs": [
        {
          "internalType": "bool",
          "name": "",
          "type": "bool"
        }
      ],
      "stateMutability": "view",
      "type": "function"
    },
    {
      "inputs": [],
      "name": "symbol",
      "outputs": [
        {
          "internalType": "string",
          "name": "",
          "type": "string"
        }
      ],
      "stateMutability": "view",
      "type": "function"
    },
    {
      "inputs": [
        {
          "internalType": "uint256",
          "name": "index",
          "type": "uint256"
        }
      ],
      "name": "tokenByIndex",
      "outputs": [
        {
          "internalType": "uint256",
          "name": "",
          "type": "uint256"
        }
      ],
      "stateMutability": "view",
      "type": "function"
    },
    {
      "inputs": [
        {
          "internalType": "address",
          "name": "owner",
          "type": "address"
        },
        {
          "internalType": "uint256",
          "name": "index",
          "type": "uint256"
        }
      ],
      "name": "tokenOfOwnerByIndex",
      "outputs": [
        {
          "internalType": "uint256",
          "name": "",
          "type": "uint256"
        }
      ],
      "stateMutability": "view",
      "type": "function"
    },
    {
      "inputs": [
        {
          "internalType": "uint256",
          "name": "tokenId",
          "type": "uint256"
        }
      ],
      "name": "tokenURI",
      "outputs": [
        {
          "internalType": "string",
          "name": "",
          "type": "string"
        }
      ],
      "stateMutability": "view",
      "type": "function"
    },
    {
      "inputs": [],
      "name": "totalSupply",
      "outputs": [
        {
          "internalType": "uint256",
          "name": "",
          "type": "uint256"
        }
      ],
      "stateMutability": "view",
      "type": "function"
    },
    {
      "inputs": [
        {
          "internalType": "address",
          "name": "from",
          "type": "address"
        },
        {
          "internalType": "address",
          "name": "to",
          "type": "address"
        },
        {
          "internalType": "uint256",
          "name": "tokenId",
          "type": "uint256"
        }
      ],
      "name": "transferFrom",
      "outputs": [],
      "stateMutability": "nonpayable",
      "type": "function"
    },
    {
      "inputs": [],
      "name": "unpause",
      "outputs": [],
      "stateMutability": "nonpayable",
      "type": "function"
    },
    {
      "inputs": [
        {
          "internalType": "address",
          "name": "newImplementation",
          "type": "address"
        },
        {
          "internalType": "bytes",
          "name": "data",
          "type": "bytes"
        }
      ],
      "name": "upgradeToAndCall",
      "outputs": [],
      "stateMutability": "payable",
      "type": "function"
    }
  ],
  "bytecode": "0x60a06040523073ffffffffffffffffffffffffffffffffffffffff1660809073ffffffffffffffffffffffffffffffffffffffff168152503480156200004457600080fd5b50620000556200005b60201b60201c565b620001cf565b60006200006d6200016560201b60201c565b90508060000160089054906101000a900460ff1615620000b9576040517ff92ee8a900000000000000000000000000000000000000000000000000000000815260040160405180910390fd5b67ffffffffffffffff80168160000160009054906101000a900467ffffffffffffffff1667ffffffffffffffff1614620001625767ffffffffffffffff8160000160006101000a81548167ffffffffffffffff021916908367ffffffffffffffff1602179055507fc7f505b2f371ae2175ee4913f4499e1f2633a7b5936321eed1cdaeb6115181d267ffffffffffffffff604051620001599190620001b2565b60405180910390a15b50565b60007ff0c57e16840df040f15088dc2f81fe391c3923bec73e23a9662efc9c229c6a00905090565b600067ffffffffffffffff82169050919050565b620001ac816200018d565b82525050565b6000602082019050620001c96000830184620001a1565b92915050565b608051615f3d620001f9600039600081816129ad01528181612a020152612be00152615f3d6000f3fe60806040526004361061025c5760003560e01c8063770d068f11610144578063c87b56dd116100b6578063e63ab1e91161007a578063e63ab1e9146108ec578063e985e9c514610917578063f67e1ae314610954578063f72c0d8b14610992578063f7a3e993146109bd578063f8c8765e146109fa5761025c565b8063c87b56dd14610807578063d204c45e14610844578063d2f9efab1461086d578063d539139314610898578063d547741f146108c35761025c565b8063a1365bf111610108578063a1365bf11461070d578063a217fddf14610736578063a22cb46514610761578063ad3cb1cc1461078a578063b1e5e2b7146107b5578063b88d4fde146107de5761025c565b8063770d068f1461063a5780638456cb59146106635780638d76f9401461067a57806391d14854146106a557806395d89b41146106e25761025c565b806336568abe116101dd5780634f6ccce7116101a15780634f6ccce7146104fd57806352d1902d1461053a5780635c975abb146105655780636045f33d146105905780636352211e146105c057806370a08231146105fd5761025c565b806336568abe1461044f5780633f4ba83a1461047857806342842e0e1461048f57806342966c68146104b85780634f1ef286146104e15761025c565b806318160ddd1161022457806318160ddd1461035857806323b872dd14610383578063248a9ca3146103ac5780632f2ff15d146103e95780632f745c59146104125761025c565b806301ffc9a71461026157806306fdde031461029e578063081812fc146102c9578063095ea7b314610306578063162f8e4e1461032f575b600080fd5b34801561026d57600080fd5b50610288600480360381019061028391906144ef565b610a23565b6040516102959190614537565b60405180910390f35b3480156102aa57600080fd5b506102b3610a35565b6040516102c091906145e2565b60405180910390f35b3480156102d557600080fd5b506102f060048036038101906102eb919061463a565b610ad6565b6040516102fd91906146a8565b60405180910390f35b34801561031257600080fd5b5061032d600480360381019061032891906146ef565b610af2565b005b34801561033b57600080fd5b506103566004803603810190610351919061472f565b610b08565b005b34801561036457600080fd5b5061036d610b5a565b60405161037a919061476b565b60405180910390f35b34801561038f57600080fd5b506103aa60048036038101906103a59190614786565b610b75565b005b3480156103b857600080fd5b506103d360048036038101906103ce919061480f565b610c77565b6040516103e0919061484b565b60405180910390f35b3480156103f557600080fd5b50610410600480360381019061040b9190614866565b610ca5565b005b34801561041e57600080fd5b50610439600480360381019061043491906146ef565b610cc7565b604051610446919061476b565b60405180910390f35b34801561045b57600080fd5b5061047660048036038101906104719190614866565b610d7e565b005b34801561048457600080fd5b5061048d610df9565b005b34801561049b57600080fd5b506104b660048036038101906104b19190614786565b610e2e565b005b3480156104c457600080fd5b506104df60048036038101906104da919061463a565b610e4e565b005b6104fb60048036038101906104f691906149db565b610e65565b005b34801561050957600080fd5b50610524600480360381019061051f919061463a565b610e84565b604051610531919061476b565b60405180910390f35b34801561054657600080fd5b5061054f610f08565b60405161055c919061484b565b60405180910390f35b34801561057157600080fd5b5061057a610f3b565b6040516105879190614537565b60405180910390f35b6105aa60048036038101906105a59190614ad8565b610f60565b6040516105b79190614c35565b60405180910390f35b3480156105cc57600080fd5b506105e760048036038101906105e2919061463a565b6111da565b6040516105f491906146a8565b60405180910390f35b34801561060957600080fd5b50610624600480360381019061061f919061472f565b6111ec565b604051610631919061476b565b60405180910390f35b34801561064657600080fd5b50610661600480360381019061065c9190614d1f565b6112b5565b005b34801561066f57600080fd5b50610678611633565b005b34801561068657600080fd5b5061068f611668565b60405161069c9190614dc7565b60405180910390f35b3480156106b157600080fd5b506106cc60048036038101906106c79190614866565b61168e565b6040516106d99190614537565b60405180910390f35b3480156106ee57600080fd5b506106f7611707565b60405161070491906145e2565b60405180910390f35b34801561071957600080fd5b50610734600480360381019061072f919061472f565b6117a8565b005b34801561074257600080fd5b5061074b6117eb565b604051610758919061484b565b60405180910390f35b34801561076d57600080fd5b5061078860048036038101906107839190614e0e565b6117f2565b005b34801561079657600080fd5b5061079f611808565b6040516107ac91906145e2565b60405180910390f35b3480156107c157600080fd5b506107dc60048036038101906107d7919061463a565b611841565b005b3480156107ea57600080fd5b5061080560048036038101906108009190614e4e565b611acc565b005b34801561081357600080fd5b5061082e6004803603810190610829919061463a565b611ae9565b60405161083b91906145e2565b60405180910390f35b34801561085057600080fd5b5061086b60048036038101906108669190614ed1565b611cd9565b005b34801561087957600080fd5b50610882611d0d565b60405161088f9190614f60565b60405180910390f35b3480156108a457600080fd5b506108ad611d31565b6040516108ba919061484b565b60405180910390f35b3480156108cf57600080fd5b506108ea60048036038101906108e59190614866565b611d55565b005b3480156108f857600080fd5b50610901611d77565b60405161090e919061484b565b60405180910390f35b34801561092357600080fd5b5061093e60048036038101906109399190614f7b565b611d9b565b60405161094b9190614537565b60405180910390f35b34801561096057600080fd5b5061097b6004803603810190610976919061463a565b611e3d565b604051610989929190614fbb565b60405180910390f35b34801561099e57600080fd5b506109a7612010565b6040516109b4919061484b565b60405180910390f35b3480156109c957600080fd5b506109e460048036038101906109df919061472f565b612034565b6040516109f19190615155565b60405180910390f35b348015610a0657600080fd5b50610a216004803603810190610a1c9190615177565b61223c565b005b6000610a2e8261252d565b9050919050565b60606000610a416125a7565b9050806000018054610a529061520d565b80601f0160208091040260200160405190810160405280929190818152602001828054610a7e9061520d565b8015610acb5780601f10610aa057610100808354040283529160200191610acb565b820191906000526020600020905b815481529060010190602001808311610aae57829003601f168201915b505050505091505090565b6000610ae1826125cf565b50610aeb82612657565b9050919050565b610b048282610aff6126a2565b6126aa565b5050565b6000801b610b15816126bc565b81600260006101000a81548173ffffffffffffffffffffffffffffffffffffffff021916908373ffffffffffffffffffffffffffffffffffffffff1602179055505050565b600080610b656126d0565b9050806002018054905091505090565b600073ffffffffffffffffffffffffffffffffffffffff168273ffffffffffffffffffffffffffffffffffffffff1603610be75760006040517f64a0ae92000000000000000000000000000000000000000000000000000000008152600401610bde91906146a8565b60405180910390fd5b6000610bfb8383610bf66126a2565b6126f8565b90508373ffffffffffffffffffffffffffffffffffffffff168173ffffffffffffffffffffffffffffffffffffffff1614610c71578382826040517f64283d7b000000000000000000000000000000000000000000000000000000008152600401610c689392919061523e565b60405180910390fd5b50505050565b600080610c8261270e565b905080600001600084815260200190815260200160002060010154915050919050565b610cae82610c77565b610cb7816126bc565b610cc18383612736565b50505050565b600080610cd26126d0565b9050610cdd846111ec565b8310610d225783836040517fa57d13dc000000000000000000000000000000000000000000000000000000008152600401610d19929190615275565b60405180910390fd5b8060000160008573ffffffffffffffffffffffffffffffffffffffff1673ffffffffffffffffffffffffffffffffffffffff16815260200190815260200160002060008481526020019081526020016000205491505092915050565b610d866126a2565b73ffffffffffffffffffffffffffffffffffffffff168173ffffffffffffffffffffffffffffffffffffffff1614610dea576040517f6697b23200000000000000000000000000000000000000000000000000000000815260040160405180910390fd5b610df48282612837565b505050565b7f65d7a28e3265b37a6474929f336521b332c1681b933f6cb9f3376673440d862a610e23816126bc565b610e2b612939565b50565b610e4983838360405180602001604052806000815250611acc565b505050565b610e61600082610e5c6126a2565b6126f8565b5050565b610e6d6129ab565b610e7682612a91565b610e808282612abf565b5050565b600080610e8f6126d0565b9050610e99610b5a565b8310610edf576000836040517fa57d13dc000000000000000000000000000000000000000000000000000000008152600401610ed6929190615275565b60405180910390fd5b806002018381548110610ef557610ef461529e565b5b9060005260206000200154915050919050565b6000610f12612bde565b7f360894a13ba1a3210667c828492db98dca3e2076cc3735a920a3ca505d382bbc60001b905090565b600080610f46612c65565b90508060000160009054906101000a900460ff1691505090565b606060008211610fa5576040517f08c379a0000000000000000000000000000000000000000000000000000000008152600401610f9c90615319565b60405180910390fd5b60008060009054906101000a900473ffffffffffffffffffffffffffffffffffffffff1673ffffffffffffffffffffffffffffffffffffffff1634604051610fec9061536a565b60006040518083038185875af1925050503d8060008114611029576040519150601f19603f3d011682016040523d82523d6000602084013e61102e565b606091505b5050905080611072576040517f08c379a0000000000000000000000000000000000000000000000000000000008152600401611069906153cb565b60405180910390fd5b60008367ffffffffffffffff81111561108e5761108d6148b0565b5b6040519080825280602002602001820160405280156110bc5781602001602082028036833780820191505090505b50905060005b848110156111cc576000600160008154809291906110df9061541a565b9190505590506110ef8982612c8d565b60405180604001604052808981526020018881525060036000838152602001908152602001600020600082015181600001908161112c9190615604565b5060208201518160010190816111429190615604565b509050508083838151811061115a5761115961529e565b5b6020026020010181815250508873ffffffffffffffffffffffffffffffffffffffff167f13188ff8029dc27800caafa67e9de01857135079733900302b1c2536b5512754828a8a6040516111b0939291906156d6565b60405180910390a25080806111c49061541a565b9150506110c2565b508092505050949350505050565b60006111e5826125cf565b9050919050565b6000806111f76125a7565b9050600073ffffffffffffffffffffffffffffffffffffffff168373ffffffffffffffffffffffffffffffffffffffff160361126b5760006040517f89c62b6400000000000000000000000000000000000000000000000000000000815260040161126291906146a8565b60405180910390fd5b8060030160008473ffffffffffffffffffffffffffffffffffffffff1673ffffffffffffffffffffffffffffffffffffffff16815260200190815260200160002054915050919050565b600081519050600081116112fe576040517f08c379a00000000000000000000000000000000000000000000000000000000081526004016112f590615767565b60405180910390fd5b60008167ffffffffffffffff81111561131a576113196148b0565b5b6040519080825280602002602001820160405280156113485781602001602082028036833780820191505090505b50905060008267ffffffffffffffff811115611367576113666148b0565b5b60405190808252806020026020018201604052801561139a57816020015b60608152602001906001900390816113855790505b50905060005b838110156115dc5760008582815181106113bd576113bc61529e565b5b602002602001015190503373ffffffffffffffffffffffffffffffffffffffff166113e7826111da565b73ffffffffffffffffffffffffffffffffffffffff161461143d576040517f08c379a0000000000000000000000000000000000000000000000000000000008152600401611434906157d3565b60405180910390fd5b6000600260009054906101000a900473ffffffffffffffffffffffffffffffffffffffff1673ffffffffffffffffffffffffffffffffffffffff1663691c65d4336040518263ffffffff1660e01b815260040161149a91906146a8565b6020604051808303816000875af11580156114b9573d6000803e3d6000fd5b505050506040513d601f19601f820116820180604052508101906114dd9190615808565b9050808584815181106114f3576114f261529e565b5b602002602001018181525050600260009054906101000a900473ffffffffffffffffffffffffffffffffffffffff1673ffffffffffffffffffffffffffffffffffffffff1663c87b56dd826040518263ffffffff1660e01b815260040161155a919061476b565b600060405180830381865afa158015611577573d6000803e3d6000fd5b505050506040513d6000823e3d601f19601f820116820180604052508101906115a091906158a5565b8484815181106115b3576115b261529e565b5b60200260200101819052506115c782612cab565b505080806115d49061541a565b9150506113a0565b503373ffffffffffffffffffffffffffffffffffffffff167f33d6b0535c7fd929fbb7260d4a2bfebbcb4ecbc24379d82fda802da1af8d775f83836040516116259291906159b0565b60405180910390a250505050565b7f65d7a28e3265b37a6474929f336521b332c1681b933f6cb9f3376673440d862a61165d816126bc565b611665612d31565b50565b600260009054906101000a900473ffffffffffffffffffffffffffffffffffffffff1681565b60008061169961270e565b905080600001600085815260200190815260200160002060000160008473ffffffffffffffffffffffffffffffffffffffff1673ffffffffffffffffffffffffffffffffffffffff16815260200190815260200160002060009054906101000a900460ff1691505092915050565b606060006117136125a7565b90508060010180546117249061520d565b80601f01602080910402602001604051908101604052809291908181526020018280546117509061520d565b801561179d5780601f106117725761010080835404028352916020019161179d565b820191906000526020600020905b81548152906001019060200180831161178057829003601f168201915b505050505091505090565b806000806101000a81548173ffffffffffffffffffffffffffffffffffffffff021916908373ffffffffffffffffffffffffffffffffffffffff16021790555050565b6000801b81565b6118046117fd6126a2565b8383612da3565b5050565b6040518060400160405280600581526020017f352e302e3000000000000000000000000000000000000000000000000000000081525081565b3373ffffffffffffffffffffffffffffffffffffffff16611861826111da565b73ffffffffffffffffffffffffffffffffffffffff16146118b7576040517f08c379a00000000000000000000000000000000000000000000000000000000081526004016118ae90615a33565b60405180910390fd5b3373ffffffffffffffffffffffffffffffffffffffff166118d7826111da565b73ffffffffffffffffffffffffffffffffffffffff161461192d576040517f08c379a000000000000000000000000000000000000000000000000000000000815260040161192490615a9f565b60405180910390fd5b6000600260009054906101000a900473ffffffffffffffffffffffffffffffffffffffff1673ffffffffffffffffffffffffffffffffffffffff1663691c65d4336040518263ffffffff1660e01b815260040161198a91906146a8565b6020604051808303816000875af11580156119a9573d6000803e3d6000fd5b505050506040513d601f19601f820116820180604052508101906119cd9190615808565b90503373ffffffffffffffffffffffffffffffffffffffff167f9aad673c07866c8b5f7049a3b0a7e8091c80c3685b33244faf2bb621f050fdd782600260009054906101000a900473ffffffffffffffffffffffffffffffffffffffff1673ffffffffffffffffffffffffffffffffffffffff1663c87b56dd856040518263ffffffff1660e01b8152600401611a63919061476b565b600060405180830381865afa158015611a80573d6000803e3d6000fd5b505050506040513d6000823e3d601f19601f82011682018060405250810190611aa991906158a5565b604051611ab7929190615abf565b60405180910390a2611ac882612cab565b5050565b611ad7848484610b75565b611ae384848484612f21565b50505050565b60603373ffffffffffffffffffffffffffffffffffffffff16611b0b836111da565b73ffffffffffffffffffffffffffffffffffffffff1614611b61576040517f08c379a0000000000000000000000000000000000000000000000000000000008152600401611b5890615b61565b60405180910390fd5b600060036000848152602001908152602001600020604051806040016040529081600082018054611b919061520d565b80601f0160208091040260200160405190810160405280929190818152602001828054611bbd9061520d565b8015611c0a5780601f10611bdf57610100808354040283529160200191611c0a565b820191906000526020600020905b815481529060010190602001808311611bed57829003601f168201915b50505050508152602001600182018054611c239061520d565b80601f0160208091040260200160405190810160405280929190818152602001828054611c4f9061520d565b8015611c9c5780601f10611c7157610100808354040283529160200191611c9c565b820191906000526020600020905b815481529060010190602001808311611c7f57829003601f168201915b505050505081525050905080602001518160000151604051602001611cc2929190615c09565b604051602081830303815290604052915050919050565b600060016000815480929190611cee9061541a565b919050559050611cfe8382612c8d565b611d0881836130d8565b505050565b60008054906101000a900473ffffffffffffffffffffffffffffffffffffffff1681565b7f9f2df0fed2c77648de5860a4cc508cd0818c85b8b8a1ab4ceeef8d981c8956a681565b611d5e82610c77565b611d67816126bc565b611d718383612837565b50505050565b7f65d7a28e3265b37a6474929f336521b332c1681b933f6cb9f3376673440d862a81565b600080611da66125a7565b90508060050160008573ffffffffffffffffffffffffffffffffffffffff1673ffffffffffffffffffffffffffffffffffffffff16815260200190815260200160002060008473ffffffffffffffffffffffffffffffffffffffff1673ffffffffffffffffffffffffffffffffffffffff16815260200190815260200160002060009054906101000a900460ff1691505092915050565b6060803373ffffffffffffffffffffffffffffffffffffffff16611e60846111da565b73ffffffffffffffffffffffffffffffffffffffff1614611eb6576040517f08c379a0000000000000000000000000000000000000000000000000000000008152600401611ead90615c84565b60405180910390fd5b600060036000858152602001908152602001600020604051806040016040529081600082018054611ee69061520d565b80601f0160208091040260200160405190810160405280929190818152602001828054611f129061520d565b8015611f5f5780601f10611f3457610100808354040283529160200191611f5f565b820191906000526020600020905b815481529060010190602001808311611f4257829003601f168201915b50505050508152602001600182018054611f789061520d565b80601f0160208091040260200160405190810160405280929190818152602001828054611fa49061520d565b8015611ff15780601f10611fc657610100808354040283529160200191611ff1565b820191906000526020600020905b815481529060010190602001808311611fd457829003601f168201915b5050505050815250509050806000015181602001519250925050915091565b7f189ab7a9244df0848122154315af71fe140f3db0fe014031783b0946b8c9d2e381565b60606000612041836111ec565b905060008167ffffffffffffffff81111561205f5761205e6148b0565b5b60405190808252806020026020018201604052801561209857816020015b612085614462565b81526020019060019003908161207d5790505b50905060005b828110156122315760006120b28683610cc7565b9050600060036000838152602001908152602001600020905060405180606001604052808381526020018260000180546120eb9061520d565b80601f01602080910402602001604051908101604052809291908181526020018280546121179061520d565b80156121645780601f1061213957610100808354040283529160200191612164565b820191906000526020600020905b81548152906001019060200180831161214757829003601f168201915b5050505050815260200182600101805461217d9061520d565b80601f01602080910402602001604051908101604052809291908181526020018280546121a99061520d565b80156121f65780601f106121cb576101008083540402835291602001916121f6565b820191906000526020600020905b8154815290600101906020018083116121d957829003601f168201915b50505050508152508484815181106122115761221061529e565b5b6020026020010181905250505080806122299061541a565b91505061209e565b508092505050919050565b6000612246613143565b905060008160000160089054906101000a900460ff1615905060008260000160009054906101000a900467ffffffffffffffff1690506000808267ffffffffffffffff161480156122945750825b9050600060018367ffffffffffffffff161480156122c9575060003073ffffffffffffffffffffffffffffffffffffffff163b145b9050811580156122d7575080155b1561230e576040517ff92ee8a900000000000000000000000000000000000000000000000000000000815260040160405180910390fd5b60018560000160006101000a81548167ffffffffffffffff021916908367ffffffffffffffff160217905550831561235e5760018560000160086101000a81548160ff0219169083151502179055505b6123d26040518060400160405280600681526020017f426f784e465400000000000000000000000000000000000000000000000000008152506040518060400160405280600381526020017f424f58000000000000000000000000000000000000000000000000000000000081525061316b565b6123da613181565b6123e261318b565b6123ea613195565b6123f26131a7565b6123fa6131b1565b6124076000801b8a612736565b506124327f189ab7a9244df0848122154315af71fe140f3db0fe014031783b0946b8c9d2e389612736565b50856000806101000a81548173ffffffffffffffffffffffffffffffffffffffff021916908373ffffffffffffffffffffffffffffffffffffffff16021790555086600260006101000a81548173ffffffffffffffffffffffffffffffffffffffff021916908373ffffffffffffffffffffffffffffffffffffffff1602179055506000600154036124c657600180819055505b83156125225760008560000160086101000a81548160ff0219169083151502179055507fc7f505b2f371ae2175ee4913f4499e1f2633a7b5936321eed1cdaeb6115181d260016040516125199190615cf3565b60405180910390a15b505050505050505050565b60007f7965db0b000000000000000000000000000000000000000000000000000000007bffffffffffffffffffffffffffffffffffffffffffffffffffffffff1916827bffffffffffffffffffffffffffffffffffffffffffffffffffffffff191614806125a0575061259f826131bb565b5b9050919050565b60007f80bb2b638cc20bc4d0a60d66940f3ab4a00c1d7b313497ca82fb0b4ab0079300905090565b6000806125db8361321c565b9050600073ffffffffffffffffffffffffffffffffffffffff168173ffffffffffffffffffffffffffffffffffffffff160361264e57826040517f7e273289000000000000000000000000000000000000000000000000000000008152600401612645919061476b565b60405180910390fd5b80915050919050565b6000806126626125a7565b905080600401600084815260200190815260200160002060009054906101000a900473ffffffffffffffffffffffffffffffffffffffff16915050919050565b600033905090565b6126b78383836001613267565b505050565b6126cd816126c86126a2565b61343b565b50565b60007f645e039705490088daad89bae25049a34f4a9072d398537b1ab2425f24cbed00905090565b600061270584848461348c565b90509392505050565b60007f02dd7bc7dec4dceedda775e58dd541e08a116c6c53815c0bd028192f7b626800905090565b60008061274161270e565b905061274d848461168e565b61282b57600181600001600086815260200190815260200160002060000160008573ffffffffffffffffffffffffffffffffffffffff1673ffffffffffffffffffffffffffffffffffffffff16815260200190815260200160002060006101000a81548160ff0219169083151502179055506127c76126a2565b73ffffffffffffffffffffffffffffffffffffffff168373ffffffffffffffffffffffffffffffffffffffff16857f2f8788117e7eff1d82e926ec794901d17c78024a50270940304540a733656f0d60405160405180910390a46001915050612831565b60009150505b92915050565b60008061284261270e565b905061284e848461168e565b1561292d57600081600001600086815260200190815260200160002060000160008573ffffffffffffffffffffffffffffffffffffffff1673ffffffffffffffffffffffffffffffffffffffff16815260200190815260200160002060006101000a81548160ff0219169083151502179055506128c96126a2565b73ffffffffffffffffffffffffffffffffffffffff168373ffffffffffffffffffffffffffffffffffffffff16857ff6391f5c32d9c69d2a47ea670b442974b53935d1edc7fd64eb21e047a839171b60405160405180910390a46001915050612933565b60009150505b92915050565b6129416134aa565b600061294b612c65565b905060008160000160006101000a81548160ff0219169083151502179055507f5db9ee0a495bf2e6ff9c91a7834c1ba4fdd244a5e8aa4e537bd38aeae4b073aa6129936126a2565b6040516129a091906146a8565b60405180910390a150565b7f000000000000000000000000000000000000000000000000000000000000000073ffffffffffffffffffffffffffffffffffffffff163073ffffffffffffffffffffffffffffffffffffffff161480612a5857507f000000000000000000000000000000000000000000000000000000000000000073ffffffffffffffffffffffffffffffffffffffff16612a3f6134ea565b73ffffffffffffffffffffffffffffffffffffffff1614155b15612a8f576040517fe07c8dba00000000000000000000000000000000000000000000000000000000815260040160405180910390fd5b565b7f189ab7a9244df0848122154315af71fe140f3db0fe014031783b0946b8c9d2e3612abb816126bc565b5050565b8173ffffffffffffffffffffffffffffffffffffffff166352d1902d6040518163ffffffff1660e01b8152600401602060405180830381865afa925050508015612b2757506040513d601f19601f82011682018060405250810190612b249190615d23565b60015b612b6857816040517f4c9c8ce3000000000000000000000000000000000000000000000000000000008152600401612b5f91906146a8565b60405180910390fd5b7f360894a13ba1a3210667c828492db98dca3e2076cc3735a920a3ca505d382bbc60001b8114612bcf57806040517faa1d49a4000000000000000000000000000000000000000000000000000000008152600401612bc6919061484b565b60405180910390fd5b612bd98383613541565b505050565b7f000000000000000000000000000000000000000000000000000000000000000073ffffffffffffffffffffffffffffffffffffffff163073ffffffffffffffffffffffffffffffffffffffff1614612c63576040517fe07c8dba00000000000000000000000000000000000000000000000000000000815260040160405180910390fd5b565b60007fcd5ed15c6e187e77e9aee88184c21f4f2182ab5827cb3b7e07fbedcd63f03300905090565b612ca78282604051806020016040528060008152506135b4565b5050565b6000612cba60008360006126f8565b9050600073ffffffffffffffffffffffffffffffffffffffff168173ffffffffffffffffffffffffffffffffffffffff1603612d2d57816040517f7e273289000000000000000000000000000000000000000000000000000000008152600401612d24919061476b565b60405180910390fd5b5050565b612d396135d0565b6000612d43612c65565b905060018160000160006101000a81548160ff0219169083151502179055507f62e78cea01bee320cd4e420270b5ea74000d11b0c9f74754ebdbfc544b05a258612d8b6126a2565b604051612d9891906146a8565b60405180910390a150565b6000612dad6125a7565b9050600073ffffffffffffffffffffffffffffffffffffffff168373ffffffffffffffffffffffffffffffffffffffff1603612e2057826040517f5b08ba18000000000000000000000000000000000000000000000000000000008152600401612e1791906146a8565b60405180910390fd5b818160050160008673ffffffffffffffffffffffffffffffffffffffff1673ffffffffffffffffffffffffffffffffffffffff16815260200190815260200160002060008573ffffffffffffffffffffffffffffffffffffffff1673ffffffffffffffffffffffffffffffffffffffff16815260200190815260200160002060006101000a81548160ff0219169083151502179055508273ffffffffffffffffffffffffffffffffffffffff168473ffffffffffffffffffffffffffffffffffffffff167f17307eab39ab6107e8899845ad3d59bd9653f200f220920489ca2b5937696c3184604051612f139190614537565b60405180910390a350505050565b60008373ffffffffffffffffffffffffffffffffffffffff163b11156130d2578273ffffffffffffffffffffffffffffffffffffffff1663150b7a02612f656126a2565b8685856040518563ffffffff1660e01b8152600401612f879493929190615da5565b6020604051808303816000875af1925050508015612fc357506040513d601f19601f82011682018060405250810190612fc09190615e06565b60015b613047573d8060008114612ff3576040519150601f19603f3d011682016040523d82523d6000602084013e612ff8565b606091505b50600081510361303f57836040517f64a0ae9200000000000000000000000000000000000000000000000000000000815260040161303691906146a8565b60405180910390fd5b805181602001fd5b63150b7a0260e01b7bffffffffffffffffffffffffffffffffffffffffffffffffffffffff1916817bffffffffffffffffffffffffffffffffffffffffffffffffffffffff1916146130d057836040517f64a0ae920000000000000000000000000000000000000000000000000000000081526004016130c791906146a8565b60405180910390fd5b505b50505050565b60006130e2613611565b90508181600001600085815260200190815260200160002090816131069190615604565b507ff8e1a15aba9398e019f0b49df1a4fde98ee17ae345cb5f6b5e2c27f5033e8ce783604051613136919061476b565b60405180910390a1505050565b60007ff0c57e16840df040f15088dc2f81fe391c3923bec73e23a9662efc9c229c6a00905090565b613173613639565b61317d8282613679565b5050565b613189613639565b565b613193613639565b565b61319d613639565b6131a56136b6565b565b6131af613639565b565b6131b9613639565b565b6000634906490660e01b7bffffffffffffffffffffffffffffffffffffffffffffffffffffffff1916827bffffffffffffffffffffffffffffffffffffffffffffffffffffffff191614806132155750613214826136ea565b5b9050919050565b6000806132276125a7565b905080600201600084815260200190815260200160002060009054906101000a900473ffffffffffffffffffffffffffffffffffffffff16915050919050565b60006132716125a7565b905081806132ac5750600073ffffffffffffffffffffffffffffffffffffffff168373ffffffffffffffffffffffffffffffffffffffff1614155b156133e05760006132bc856125cf565b9050600073ffffffffffffffffffffffffffffffffffffffff168473ffffffffffffffffffffffffffffffffffffffff161415801561332757508373ffffffffffffffffffffffffffffffffffffffff168173ffffffffffffffffffffffffffffffffffffffff1614155b801561333a57506133388185611d9b565b155b1561337c57836040517fa9fbf51f00000000000000000000000000000000000000000000000000000000815260040161337391906146a8565b60405180910390fd5b82156133de57848673ffffffffffffffffffffffffffffffffffffffff168273ffffffffffffffffffffffffffffffffffffffff167f8c5be1e5ebec7d5bd14f71427d1e84f3dd0314c0f7b2291e5b200ac8c7c3b92560405160405180910390a45b505b8481600401600086815260200190815260200160002060006101000a81548173ffffffffffffffffffffffffffffffffffffffff021916908373ffffffffffffffffffffffffffffffffffffffff1602179055505050505050565b613445828261168e565b6134885780826040517fe2517d3f00000000000000000000000000000000000000000000000000000000815260040161347f929190615e33565b60405180910390fd5b5050565b60006134966135d0565b6134a1848484613764565b90509392505050565b6134b2610f3b565b6134e8576040517f8dfc202b00000000000000000000000000000000000000000000000000000000815260040160405180910390fd5b565b60006135187f360894a13ba1a3210667c828492db98dca3e2076cc3735a920a3ca505d382bbc60001b613881565b60000160009054906101000a900473ffffffffffffffffffffffffffffffffffffffff16905090565b61354a8261388b565b8173ffffffffffffffffffffffffffffffffffffffff167fbc7cd75a20ee27fd9adebab32041f755214dbc6bffa90cc0225b39da2e5c2d3b60405160405180910390a26000815111156135a7576135a18282613958565b506135b0565b6135af6139dc565b5b5050565b6135be8383613a19565b6135cb6000848484612f21565b505050565b6135d8610f3b565b1561360f576040517fd93c066500000000000000000000000000000000000000000000000000000000815260040160405180910390fd5b565b60007f0542a41881ee128a365a727b282c86fa859579490b9bb45aab8503648c8e7900905090565b613641613b12565b613677576040517fd7e6bcf800000000000000000000000000000000000000000000000000000000815260040160405180910390fd5b565b613681613639565b600061368b6125a7565b90508281600001908161369e9190615604565b50818160010190816136b09190615604565b50505050565b6136be613639565b60006136c8612c65565b905060008160000160006101000a81548160ff02191690831515021790555050565b60007f780e9d63000000000000000000000000000000000000000000000000000000007bffffffffffffffffffffffffffffffffffffffffffffffffffffffff1916827bffffffffffffffffffffffffffffffffffffffffffffffffffffffff1916148061375d575061375c82613b32565b5b9050919050565b600080613772858585613c14565b9050600073ffffffffffffffffffffffffffffffffffffffff168173ffffffffffffffffffffffffffffffffffffffff16036137b6576137b184613e41565b6137f5565b8473ffffffffffffffffffffffffffffffffffffffff168173ffffffffffffffffffffffffffffffffffffffff16146137f4576137f38185613e9d565b5b5b600073ffffffffffffffffffffffffffffffffffffffff168573ffffffffffffffffffffffffffffffffffffffff16036138375761383284614017565b613876565b8473ffffffffffffffffffffffffffffffffffffffff168173ffffffffffffffffffffffffffffffffffffffff1614613875576138748585614103565b5b5b809150509392505050565b6000819050919050565b60008173ffffffffffffffffffffffffffffffffffffffff163b036138e757806040517f4c9c8ce30000000000000000000000000000000000000000000000000000000081526004016138de91906146a8565b60405180910390fd5b806139147f360894a13ba1a3210667c828492db98dca3e2076cc3735a920a3ca505d382bbc60001b613881565b60000160006101000a81548173ffffffffffffffffffffffffffffffffffffffff021916908373ffffffffffffffffffffffffffffffffffffffff16021790555050565b60606000808473ffffffffffffffffffffffffffffffffffffffff16846040516139829190615e8d565b600060405180830381855af49150503d80600081146139bd576040519150601f19603f3d011682016040523d82523d6000602084013e6139c2565b606091505b50915091506139d285838361419f565b9250505092915050565b6000341115613a17576040517fb398979f00000000000000000000000000000000000000000000000000000000815260040160405180910390fd5b565b600073ffffffffffffffffffffffffffffffffffffffff168273ffffffffffffffffffffffffffffffffffffffff1603613a8b5760006040517f64a0ae92000000000000000000000000000000000000000000000000000000008152600401613a8291906146a8565b60405180910390fd5b6000613a99838360006126f8565b9050600073ffffffffffffffffffffffffffffffffffffffff168173ffffffffffffffffffffffffffffffffffffffff1614613b0d5760006040517f73c6ac6e000000000000000000000000000000000000000000000000000000008152600401613b0491906146a8565b60405180910390fd5b505050565b6000613b1c613143565b60000160089054906101000a900460ff16905090565b60007f80ac58cd000000000000000000000000000000000000000000000000000000007bffffffffffffffffffffffffffffffffffffffffffffffffffffffff1916827bffffffffffffffffffffffffffffffffffffffffffffffffffffffff19161480613bfd57507f5b5e139f000000000000000000000000000000000000000000000000000000007bffffffffffffffffffffffffffffffffffffffffffffffffffffffff1916827bffffffffffffffffffffffffffffffffffffffffffffffffffffffff1916145b80613c0d5750613c0c8261422e565b5b9050919050565b600080613c1f6125a7565b90506000613c2c8561321c565b9050600073ffffffffffffffffffffffffffffffffffffffff168473ffffffffffffffffffffffffffffffffffffffff1614613c6e57613c6d818587614298565b5b600073ffffffffffffffffffffffffffffffffffffffff168173ffffffffffffffffffffffffffffffffffffffff1614613d0157613cb0600086600080613267565b60018260030160008373ffffffffffffffffffffffffffffffffffffffff1673ffffffffffffffffffffffffffffffffffffffff168152602001908152602001600020600082825403925050819055505b600073ffffffffffffffffffffffffffffffffffffffff168673ffffffffffffffffffffffffffffffffffffffff1614613d865760018260030160008873ffffffffffffffffffffffffffffffffffffffff1673ffffffffffffffffffffffffffffffffffffffff168152602001908152602001600020600082825401925050819055505b8582600201600087815260200190815260200160002060006101000a81548173ffffffffffffffffffffffffffffffffffffffff021916908373ffffffffffffffffffffffffffffffffffffffff160217905550848673ffffffffffffffffffffffffffffffffffffffff168273ffffffffffffffffffffffffffffffffffffffff167fddf252ad1be2c89b69c2b068fc378daa952ba7f163c4a11628f55a4df523b3ef60405160405180910390a480925050509392505050565b6000613e4b6126d0565b9050806002018054905081600301600084815260200190815260200160002081905550806002018290806001815401808255809150506001900390600052602060002001600090919091909150555050565b6000613ea76126d0565b90506000613eb4846111ec565b90506000826001016000858152602001908152602001600020549050818114613fa15760008360000160008773ffffffffffffffffffffffffffffffffffffffff1673ffffffffffffffffffffffffffffffffffffffff1681526020019081526020016000206000848152602001908152602001600020549050808460000160008873ffffffffffffffffffffffffffffffffffffffff1673ffffffffffffffffffffffffffffffffffffffff1681526020019081526020016000206000848152602001908152602001600020819055508184600101600083815260200190815260200160002081905550505b826001016000858152602001908152602001600020600090558260000160008673ffffffffffffffffffffffffffffffffffffffff1673ffffffffffffffffffffffffffffffffffffffff1681526020019081526020016000206000838152602001908152602001600020600090555050505050565b60006140216126d0565b90506000600182600201805490506140399190615ea4565b90506000826003016000858152602001908152602001600020549050600083600201838154811061406d5761406c61529e565b5b90600052602060002001549050808460020183815481106140915761409061529e565b5b9060005260206000200181905550818460030160008381526020019081526020016000208190555083600301600086815260200190815260200160002060009055836002018054806140e6576140e5615ed8565b5b600190038181906000526020600020016000905590555050505050565b600061410d6126d0565b90506000600161411c856111ec565b6141269190615ea4565b9050828260000160008673ffffffffffffffffffffffffffffffffffffffff1673ffffffffffffffffffffffffffffffffffffffff168152602001908152602001600020600083815260200190815260200160002081905550808260010160008581526020019081526020016000208190555050505050565b6060826141b4576141af8261435c565b614226565b600082511480156141dc575060008473ffffffffffffffffffffffffffffffffffffffff163b145b1561421e57836040517f9996b31500000000000000000000000000000000000000000000000000000000815260040161421591906146a8565b60405180910390fd5b819050614227565b5b9392505050565b60007f01ffc9a7000000000000000000000000000000000000000000000000000000007bffffffffffffffffffffffffffffffffffffffffffffffffffffffff1916827bffffffffffffffffffffffffffffffffffffffffffffffffffffffff1916149050919050565b6142a38383836143a1565b61435757600073ffffffffffffffffffffffffffffffffffffffff168373ffffffffffffffffffffffffffffffffffffffff160361431857806040517f7e27328900000000000000000000000000000000000000000000000000000000815260040161430f919061476b565b60405180910390fd5b81816040517f177e802f00000000000000000000000000000000000000000000000000000000815260040161434e929190615275565b60405180910390fd5b505050565b60008151111561436f5780518082602001fd5b6040517f1425ea4200000000000000000000000000000000000000000000000000000000815260040160405180910390fd5b60008073ffffffffffffffffffffffffffffffffffffffff168373ffffffffffffffffffffffffffffffffffffffff161415801561445957508273ffffffffffffffffffffffffffffffffffffffff168473ffffffffffffffffffffffffffffffffffffffff16148061441a57506144198484611d9b565b5b8061445857508273ffffffffffffffffffffffffffffffffffffffff1661444083612657565b73ffffffffffffffffffffffffffffffffffffffff16145b5b90509392505050565b60405180606001604052806000815260200160608152602001606081525090565b6000604051905090565b600080fd5b600080fd5b60007fffffffff0000000000000000000000000000000000000000000000000000000082169050919050565b6144cc81614497565b81146144d757600080fd5b50565b6000813590506144e9816144c3565b92915050565b6000602082840312156145055761450461448d565b5b6000614513848285016144da565b91505092915050565b60008115159050919050565b6145318161451c565b82525050565b600060208201905061454c6000830184614528565b92915050565b600081519050919050565b600082825260208201905092915050565b60005b8381101561458c578082015181840152602081019050614571565b60008484015250505050565b6000601f19601f8301169050919050565b60006145b482614552565b6145be818561455d565b93506145ce81856020860161456e565b6145d781614598565b840191505092915050565b600060208201905081810360008301526145fc81846145a9565b905092915050565b6000819050919050565b61461781614604565b811461462257600080fd5b50565b6000813590506146348161460e565b92915050565b6000602082840312156146505761464f61448d565b5b600061465e84828501614625565b91505092915050565b600073ffffffffffffffffffffffffffffffffffffffff82169050919050565b600061469282614667565b9050919050565b6146a281614687565b82525050565b60006020820190506146bd6000830184614699565b92915050565b6146cc81614687565b81146146d757600080fd5b50565b6000813590506146e9816146c3565b92915050565b600080604083850312156147065761470561448d565b5b6000614714858286016146da565b925050602061472585828601614625565b9150509250929050565b6000602082840312156147455761474461448d565b5b6000614753848285016146da565b91505092915050565b61476581614604565b82525050565b6000602082019050614780600083018461475c565b92915050565b60008060006060848603121561479f5761479e61448d565b5b60006147ad868287016146da565b93505060206147be868287016146da565b92505060406147cf86828701614625565b9150509250925092565b6000819050919050565b6147ec816147d9565b81146147f757600080fd5b50565b600081359050614809816147e3565b92915050565b6000602082840312156148255761482461448d565b5b6000614833848285016147fa565b91505092915050565b614845816147d9565b82525050565b6000602082019050614860600083018461483c565b92915050565b6000806040838503121561487d5761487c61448d565b5b600061488b858286016147fa565b925050602061489c858286016146da565b9150509250929050565b600080fd5b600080fd5b7f4e487b7100000000000000000000000000000000000000000000000000000000600052604160045260246000fd5b6148e882614598565b810181811067ffffffffffffffff82111715614907576149066148b0565b5b80604052505050565b600061491a614483565b905061492682826148df565b919050565b600067ffffffffffffffff821115614946576149456148b0565b5b61494f82614598565b9050602081019050919050565b82818337600083830152505050565b600061497e6149798461492b565b614910565b90508281526020810184848401111561499a576149996148ab565b5b6149a584828561495c565b509392505050565b600082601f8301126149c2576149c16148a6565b5b81356149d284826020860161496b565b91505092915050565b600080604083850312156149f2576149f161448d565b5b6000614a00858286016146da565b925050602083013567ffffffffffffffff811115614a2157614a20614492565b5b614a2d858286016149ad565b9150509250929050565b600067ffffffffffffffff821115614a5257614a516148b0565b5b614a5b82614598565b9050602081019050919050565b6000614a7b614a7684614a37565b614910565b905082815260208101848484011115614a9757614a966148ab565b5b614aa284828561495c565b509392505050565b600082601f830112614abf57614abe6148a6565b5b8135614acf848260208601614a68565b91505092915050565b60008060008060808587031215614af257614af161448d565b5b6000614b00878288016146da565b945050602085013567ffffffffffffffff811115614b2157614b20614492565b5b614b2d87828801614aaa565b935050604085013567ffffffffffffffff811115614b4e57614b4d614492565b5b614b5a87828801614aaa565b9250506060614b6b87828801614625565b91505092959194509250565b600081519050919050565b600082825260208201905092915050565b6000819050602082019050919050565b614bac81614604565b82525050565b6000614bbe8383614ba3565b60208301905092915050565b6000602082019050919050565b6000614be282614b77565b614bec8185614b82565b9350614bf783614b93565b8060005b83811015614c28578151614c0f8882614bb2565b9750614c1a83614bca565b925050600181019050614bfb565b5085935050505092915050565b60006020820190508181036000830152614c4f8184614bd7565b905092915050565b600067ffffffffffffffff821115614c7257614c716148b0565b5b602082029050602081019050919050565b600080fd5b6000614c9b614c9684614c57565b614910565b90508083825260208201905060208402830185811115614cbe57614cbd614c83565b5b835b81811015614ce75780614cd38882614625565b845260208401935050602081019050614cc0565b5050509392505050565b600082601f830112614d0657614d056148a6565b5b8135614d16848260208601614c88565b91505092915050565b600060208284031215614d3557614d3461448d565b5b600082013567ffffffffffffffff811115614d5357614d52614492565b5b614d5f84828501614cf1565b91505092915050565b6000819050919050565b6000614d8d614d88614d8384614667565b614d68565b614667565b9050919050565b6000614d9f82614d72565b9050919050565b6000614db182614d94565b9050919050565b614dc181614da6565b82525050565b6000602082019050614ddc6000830184614db8565b92915050565b614deb8161451c565b8114614df657600080fd5b50565b600081359050614e0881614de2565b92915050565b60008060408385031215614e2557614e2461448d565b5b6000614e33858286016146da565b9250506020614e4485828601614df9565b9150509250929050565b60008060008060808587031215614e6857614e6761448d565b5b6000614e76878288016146da565b9450506020614e87878288016146da565b9350506040614e9887828801614625565b925050606085013567ffffffffffffffff811115614eb957614eb8614492565b5b614ec5878288016149ad565b91505092959194509250565b60008060408385031215614ee857614ee761448d565b5b6000614ef6858286016146da565b925050602083013567ffffffffffffffff811115614f1757614f16614492565b5b614f2385828601614aaa565b9150509250929050565b6000614f3882614d72565b9050919050565b6000614f4a82614f2d565b9050919050565b614f5a81614f3f565b82525050565b6000602082019050614f756000830184614f51565b92915050565b60008060408385031215614f9257614f9161448d565b5b6000614fa0858286016146da565b9250506020614fb1858286016146da565b9150509250929050565b60006040820190508181036000830152614fd581856145a9565b90508181036020830152614fe981846145a9565b90509392505050565b600081519050919050565b600082825260208201905092915050565b6000819050602082019050919050565b600082825260208201905092915050565b600061503a82614552565b615044818561501e565b935061505481856020860161456e565b61505d81614598565b840191505092915050565b60006060830160008301516150806000860182614ba3565b5060208301518482036020860152615098828261502f565b915050604083015184820360408601526150b2828261502f565b9150508091505092915050565b60006150cb8383615068565b905092915050565b6000602082019050919050565b60006150eb82614ff2565b6150f58185614ffd565b9350836020820285016151078561500e565b8060005b85811015615143578484038952815161512485826150bf565b945061512f836150d3565b925060208a0199505060018101905061510b565b50829750879550505050505092915050565b6000602082019050818103600083015261516f81846150e0565b905092915050565b600080600080608085870312156151915761519061448d565b5b600061519f878288016146da565b94505060206151b0878288016146da565b93505060406151c1878288016146da565b92505060606151d2878288016146da565b91505092959194509250565b7f4e487b7100000000000000000000000000000000000000000000000000000000600052602260045260246000fd5b6000600282049050600182168061522557607f821691505b602082108103615238576152376151de565b5b50919050565b60006060820190506152536000830186614699565b615260602083018561475c565b61526d6040830184614699565b949350505050565b600060408201905061528a6000830185614699565b615297602083018461475c565b9392505050565b7f4e487b7100000000000000000000000000000000000000000000000000000000600052603260045260246000fd5b7f4e756d206f6620626f786573206d757374203e207a65726f0000000000000000600082015250565b600061530360188361455d565b915061530e826152cd565b602082019050919050565b60006020820190508181036000830152615332816152f6565b9050919050565b600081905092915050565b50565b6000615354600083615339565b915061535f82615344565b600082019050919050565b600061537582615347565b9150819050919050565b7f4661696c656420746f2073656e6420457468657220746f205472656173757279600082015250565b60006153b560208361455d565b91506153c08261537f565b602082019050919050565b600060208201905081810360008301526153e4816153a8565b9050919050565b7f4e487b7100000000000000000000000000000000000000000000000000000000600052601160045260246000fd5b600061542582614604565b91507fffffffffffffffffffffffffffffffffffffffffffffffffffffffffffffffff8203615457576154566153eb565b5b600182019050919050565b60008190508160005260206000209050919050565b60006020601f8301049050919050565b600082821b905092915050565b6000600883026154c47fffffffffffffffffffffffffffffffffffffffffffffffffffffffffffffffff82615487565b6154ce8683615487565b95508019841693508086168417925050509392505050565b60006155016154fc6154f784614604565b614d68565b614604565b9050919050565b6000819050919050565b61551b836154e6565b61552f61552782615508565b848454615494565b825550505050565b600090565b615544615537565b61554f818484615512565b505050565b5b818110156155735761556860008261553c565b600181019050615555565b5050565b601f8211156155b85761558981615462565b61559284615477565b810160208510156155a1578190505b6155b56155ad85615477565b830182615554565b50505b505050565b600082821c905092915050565b60006155db600019846008026155bd565b1980831691505092915050565b60006155f483836155ca565b9150826002028217905092915050565b61560d82614552565b67ffffffffffffffff811115615626576156256148b0565b5b615630825461520d565b61563b828285615577565b600060209050601f83116001811461566e576000841561565c578287015190505b61566685826155e8565b8655506156ce565b601f19841661567c86615462565b60005b828110156156a45784890151825560018201915060208501945060208101905061567f565b868310156156c157848901516156bd601f8916826155ca565b8355505b6001600288020188555050505b505050505050565b60006060820190506156eb600083018661475c565b81810360208301526156fd81856145a9565b9050818103604083015261571181846145a9565b9050949350505050565b7f4e6f20626f78657320746f206f70656e00000000000000000000000000000000600082015250565b600061575160108361455d565b915061575c8261571b565b602082019050919050565b6000602082019050818103600083015261578081615744565b9050919050565b7f596f75206d757374206f776e2074686520626f78000000000000000000000000600082015250565b60006157bd60148361455d565b91506157c882615787565b602082019050919050565b600060208201905081810360008301526157ec816157b0565b9050919050565b6000815190506158028161460e565b92915050565b60006020828403121561581e5761581d61448d565b5b600061582c848285016157f3565b91505092915050565b600061584861584384614a37565b614910565b905082815260208101848484011115615864576158636148ab565b5b61586f84828561456e565b509392505050565b600082601f83011261588c5761588b6148a6565b5b815161589c848260208601615835565b91505092915050565b6000602082840312156158bb576158ba61448d565b5b600082015167ffffffffffffffff8111156158d9576158d8614492565b5b6158e584828501615877565b91505092915050565b600081519050919050565b600082825260208201905092915050565b6000819050602082019050919050565b6000615926838361502f565b905092915050565b6000602082019050919050565b6000615946826158ee565b61595081856158f9565b9350836020820285016159628561590a565b8060005b8581101561599e578484038952815161597f858261591a565b945061598a8361592e565b925060208a01995050600181019050615966565b50829750879550505050505092915050565b600060408201905081810360008301526159ca8185614bd7565b905081810360208301526159de818461593b565b90509392505050565b7f596f75206d757374206f776e2074686520626f7820746f206f70656e20697400600082015250565b6000615a1d601f8361455d565b9150615a28826159e7565b602082019050919050565b60006020820190508181036000830152615a4c81615a10565b9050919050565b7f426f7820646f6573206e6f742065786973740000000000000000000000000000600082015250565b6000615a8960128361455d565b9150615a9482615a53565b602082019050919050565b60006020820190508181036000830152615ab881615a7c565b9050919050565b6000604082019050615ad4600083018561475c565b8181036020830152615ae681846145a9565b90509392505050565b7f45524337323155524953746f726167653a2055524920717565727920666f722060008201527f6e6f6e6578697374656e7420746f6b656e000000000000000000000000000000602082015250565b6000615b4b60318361455d565b9150615b5682615aef565b604082019050919050565b60006020820190508181036000830152615b7a81615b3e565b9050919050565b600081905092915050565b6000615b9782614552565b615ba18185615b81565b9350615bb181856020860161456e565b80840191505092915050565b7f2f00000000000000000000000000000000000000000000000000000000000000600082015250565b6000615bf3600183615b81565b9150615bfe82615bbd565b600182019050919050565b6000615c158285615b8c565b9150615c2082615be6565b9150615c2c8284615b8c565b91508190509392505050565b7f4e6f6e6578697374656e7420746f6b656e000000000000000000000000000000600082015250565b6000615c6e60118361455d565b9150615c7982615c38565b602082019050919050565b60006020820190508181036000830152615c9d81615c61565b9050919050565b6000819050919050565b600067ffffffffffffffff82169050919050565b6000615cdd615cd8615cd384615ca4565b614d68565b615cae565b9050919050565b615ced81615cc2565b82525050565b6000602082019050615d086000830184615ce4565b92915050565b600081519050615d1d816147e3565b92915050565b600060208284031215615d3957615d3861448d565b5b6000615d4784828501615d0e565b91505092915050565b600081519050919050565b600082825260208201905092915050565b6000615d7782615d50565b615d818185615d5b565b9350615d9181856020860161456e565b615d9a81614598565b840191505092915050565b6000608082019050615dba6000830187614699565b615dc76020830186614699565b615dd4604083018561475c565b8181036060830152615de68184615d6c565b905095945050505050565b600081519050615e00816144c3565b92915050565b600060208284031215615e1c57615e1b61448d565b5b6000615e2a84828501615df1565b91505092915050565b6000604082019050615e486000830185614699565b615e55602083018461483c565b9392505050565b6000615e6782615d50565b615e718185615339565b9350615e8181856020860161456e565b80840191505092915050565b6000615e998284615e5c565b915081905092915050565b6000615eaf82614604565b9150615eba83614604565b9250828203905081811115615ed257615ed16153eb565b5b92915050565b7f4e487b7100000000000000000000000000000000000000000000000000000000600052603160045260246000fdfea2646970667358221220849a5e39fa3e5470793690a73582e4f0d30eab40c80efbada0b8337055d1b92d64736f6c63430008140033",
  "linkReferences": {},
  "deployedLinkReferences": {}
}