{
  "_format": "hh-sol-artifact-1",
  "contractName": "MintItem",
  "sourceName": "contracts/MintItem.sol",
  "abi": [
    {
      "inputs": [],
      "stateMutability": "nonpayable",
      "type": "constructor"
    },
    {
      "inputs": [
        {
          "internalType": "address",
          "name": "target",
          "type": "address"
        }
      ],
      "name": "AddressEmptyCode",
      "type": "error"
    },
    {
      "inputs": [],
      "name": "ECDSAInvalidSignature",
      "type": "error"
    },
    {
      "inputs": [
        {
          "internalType": "uint256",
          "name": "length",
          "type": "uint256"
        }
      ],
      "name": "ECDSAInvalidSignatureLength",
      "type": "error"
    },
    {
      "inputs": [
        {
          "internalType": "bytes32",
          "name": "s",
          "type": "bytes32"
        }
      ],
      "name": "ECDSAInvalidSignatureS",
      "type": "error"
    },
    {
      "inputs": [
        {
          "internalType": "address",
          "name": "implementation",
          "type": "address"
        }
      ],
      "name": "ERC1967InvalidImplementation",
      "type": "error"
    },
    {
      "inputs": [],
      "name": "ERC1967NonPayable",
      "type": "error"
    },
    {
      "inputs": [],
      "name": "ERC721EnumerableForbiddenBatchMint",
      "type": "error"
    },
    {
      "inputs": [
        {
          "internalType": "address",
          "name": "sender",
          "type": "address"
        },
        {
          "internalType": "uint256",
          "name": "tokenId",
          "type": "uint256"
        },
        {
          "internalType": "address",
          "name": "owner",
          "type": "address"
        }
      ],
      "name": "ERC721IncorrectOwner",
      "type": "error"
    },
    {
      "inputs": [
        {
          "internalType": "address",
          "name": "operator",
          "type": "address"
        },
        {
          "internalType": "uint256",
          "name": "tokenId",
          "type": "uint256"
        }
      ],
      "name": "ERC721InsufficientApproval",
      "type": "error"
    },
    {
      "inputs": [
        {
          "internalType": "address",
          "name": "approver",
          "type": "address"
        }
      ],
      "name": "ERC721InvalidApprover",
      "type": "error"
    },
    {
      "inputs": [
        {
          "internalType": "address",
          "name": "operator",
          "type": "address"
        }
      ],
      "name": "ERC721InvalidOperator",
      "type": "error"
    },
    {
      "inputs": [
        {
          "internalType": "address",
          "name": "owner",
          "type": "address"
        }
      ],
      "name": "ERC721InvalidOwner",
      "type": "error"
    },
    {
      "inputs": [
        {
          "internalType": "address",
          "name": "receiver",
          "type": "address"
        }
      ],
      "name": "ERC721InvalidReceiver",
      "type": "error"
    },
    {
      "inputs": [
        {
          "internalType": "address",
          "name": "sender",
          "type": "address"
        }
      ],
      "name": "ERC721InvalidSender",
      "type": "error"
    },
    {
      "inputs": [
        {
          "internalType": "uint256",
          "name": "tokenId",
          "type": "uint256"
        }
      ],
      "name": "ERC721NonexistentToken",
      "type": "error"
    },
    {
      "inputs": [
        {
          "internalType": "address",
          "name": "owner",
          "type": "address"
        },
        {
          "internalType": "uint256",
          "name": "index",
          "type": "uint256"
        }
      ],
      "name": "ERC721OutOfBoundsIndex",
      "type": "error"
    },
    {
      "inputs": [],
      "name": "FailedInnerCall",
      "type": "error"
    },
    {
      "inputs": [],
      "name": "InvalidInitialization",
      "type": "error"
    },
    {
      "inputs": [],
      "name": "NotInitializing",
      "type": "error"
    },
    {
      "inputs": [
        {
          "internalType": "address",
          "name": "owner",
          "type": "address"
        }
      ],
      "name": "OwnableInvalidOwner",
      "type": "error"
    },
    {
      "inputs": [
        {
          "internalType": "address",
          "name": "account",
          "type": "address"
        }
      ],
      "name": "OwnableUnauthorizedAccount",
      "type": "error"
    },
    {
      "inputs": [],
      "name": "UUPSUnauthorizedCallContext",
      "type": "error"
    },
    {
      "inputs": [
        {
          "internalType": "bytes32",
          "name": "slot",
          "type": "bytes32"
        }
      ],
      "name": "UUPSUnsupportedProxiableUUID",
      "type": "error"
    },
    {
      "anonymous": false,
      "inputs": [
        {
          "indexed": true,
          "internalType": "address",
          "name": "owner",
          "type": "address"
        },
        {
          "indexed": true,
          "internalType": "address",
          "name": "approved",
          "type": "address"
        },
        {
          "indexed": true,
          "internalType": "uint256",
          "name": "tokenId",
          "type": "uint256"
        }
      ],
      "name": "Approval",
      "type": "event"
    },
    {
      "anonymous": false,
      "inputs": [
        {
          "indexed": true,
          "internalType": "address",
          "name": "owner",
          "type": "address"
        },
        {
          "indexed": true,
          "internalType": "address",
          "name": "operator",
          "type": "address"
        },
        {
          "indexed": false,
          "internalType": "bool",
          "name": "approved",
          "type": "bool"
        }
      ],
      "name": "ApprovalForAll",
      "type": "event"
    },
    {
      "anonymous": false,
      "inputs": [
        {
          "indexed": false,
          "internalType": "uint256",
          "name": "_fromTokenId",
          "type": "uint256"
        },
        {
          "indexed": false,
          "internalType": "uint256",
          "name": "_toTokenId",
          "type": "uint256"
        }
      ],
      "name": "BatchMetadataUpdate",
      "type": "event"
    },
    {
      "anonymous": false,
      "inputs": [
        {
          "indexed": true,
          "internalType": "address",
          "name": "user",
          "type": "address"
        },
        {
          "indexed": false,
          "internalType": "uint256",
          "name": "itemId",
          "type": "uint256"
        },
        {
          "indexed": false,
          "internalType": "string",
          "name": "uri",
          "type": "string"
        },
        {
          "indexed": false,
          "internalType": "uint256",
          "name": "successPercentage",
          "type": "uint256"
        },
        {
          "indexed": false,
          "internalType": "uint256",
          "name": "random",
          "type": "uint256"
        }
      ],
      "name": "ForgeProcessed",
      "type": "event"
    },
    {
      "anonymous": false,
      "inputs": [
        {
          "indexed": false,
          "internalType": "uint64",
          "name": "version",
          "type": "uint64"
        }
      ],
      "name": "Initialized",
      "type": "event"
    },
    {
      "anonymous": false,
      "inputs": [
        {
          "indexed": false,
          "internalType": "uint256",
          "name": "_tokenId",
          "type": "uint256"
        }
      ],
      "name": "MetadataUpdate",
      "type": "event"
    },
    {
      "anonymous": false,
      "inputs": [
        {
          "indexed": true,
          "internalType": "address",
          "name": "previousOwner",
          "type": "address"
        },
        {
          "indexed": true,
          "internalType": "address",
          "name": "newOwner",
          "type": "address"
        }
      ],
      "name": "OwnershipTransferred",
      "type": "event"
    },
    {
      "anonymous": false,
      "inputs": [
        {
          "indexed": true,
          "internalType": "address",
          "name": "from",
          "type": "address"
        },
        {
          "indexed": true,
          "internalType": "address",
          "name": "to",
          "type": "address"
        },
        {
          "indexed": true,
          "internalType": "uint256",
          "name": "tokenId",
          "type": "uint256"
        }
      ],
      "name": "Transfer",
      "type": "event"
    },
    {
      "anonymous": false,
      "inputs": [
        {
          "indexed": true,
          "internalType": "address",
          "name": "implementation",
          "type": "address"
        }
      ],
      "name": "Upgraded",
      "type": "event"
    },
    {
      "inputs": [],
      "name": "UPGRADE_INTERFACE_VERSION",
      "outputs": [
        {
          "internalType": "string",
          "name": "",
          "type": "string"
        }
      ],
      "stateMutability": "view",
      "type": "function"
    },
    {
      "inputs": [
        {
          "internalType": "uint256",
          "name": "currentPower",
          "type": "uint256"
        }
      ],
      "name": "_adjustPower",
      "outputs": [
        {
          "internalType": "uint256",
          "name": "",
          "type": "uint256"
        }
      ],
      "stateMutability": "view",
      "type": "function"
    },
    {
      "inputs": [
        {
          "internalType": "address",
          "name": "to",
          "type": "address"
        },
        {
          "internalType": "uint256",
          "name": "tokenId",
          "type": "uint256"
        }
      ],
      "name": "approve",
      "outputs": [],
      "stateMutability": "nonpayable",
      "type": "function"
    },
    {
      "inputs": [
        {
          "internalType": "address",
          "name": "owner",
          "type": "address"
        }
      ],
      "name": "balanceOf",
      "outputs": [
        {
          "internalType": "uint256",
          "name": "",
          "type": "uint256"
        }
      ],
      "stateMutability": "view",
      "type": "function"
    },
    {
      "inputs": [
        {
          "internalType": "uint256",
          "name": "tokenId",
          "type": "uint256"
        }
      ],
      "name": "burn",
      "outputs": [],
      "stateMutability": "nonpayable",
      "type": "function"
    },
    {
      "inputs": [
        {
          "components": [
            {
              "internalType": "uint256",
              "name": "tokenId",
              "type": "uint256"
            },
            {
              "internalType": "uint16",
              "name": "itemDurability",
              "type": "uint16"
            },
            {
              "internalType": "uint256",
              "name": "rewardAmount",
              "type": "uint256"
            },
            {
              "internalType": "uint256",
              "name": "timestamp",
              "type": "uint256"
            },
            {
              "internalType": "bytes",
              "name": "signature",
              "type": "bytes"
            }
          ],
          "internalType": "struct MintItem.BurnRequest",
          "name": "params",
          "type": "tuple"
        }
      ],
      "name": "burnItemForReward",
      "outputs": [],
      "stateMutability": "nonpayable",
      "type": "function"
    },
    {
      "inputs": [
        {
          "components": [
            {
              "internalType": "uint256",
              "name": "tokenAmount",
              "type": "uint256"
            },
            {
              "internalType": "uint256[]",
              "name": "tokenIds",
              "type": "uint256[]"
            },
            {
              "internalType": "string[]",
              "name": "newOwners",
              "type": "string[]"
            },
            {
              "internalType": "uint256[]",
              "name": "itemPower",
              "type": "uint256[]"
            },
            {
              "internalType": "uint256",
              "name": "timestamp",
              "type": "uint256"
            },
            {
              "internalType": "bytes",
              "name": "signature",
              "type": "bytes"
            }
          ],
          "internalType": "struct MintItem.ChangeOwnerRequest",
          "name": "params",
          "type": "tuple"
        }
      ],
      "name": "changeItemsCharacterOwner",
      "outputs": [],
      "stateMutability": "nonpayable",
      "type": "function"
    },
    {
      "inputs": [
        {
          "internalType": "uint256[]",
          "name": "tokenIds",
          "type": "uint256[]"
        },
        {
          "internalType": "uint16",
          "name": "decrementAmount",
          "type": "uint16"
        }
      ],
      "name": "changeItemsDurability",
      "outputs": [
        {
          "internalType": "uint256[]",
          "name": "",
          "type": "uint256[]"
        }
      ],
      "stateMutability": "nonpayable",
      "type": "function"
    },
    {
      "inputs": [],
      "name": "dungeonAdventure",
      "outputs": [
        {
          "internalType": "contract DungeonAdventure",
          "name": "",
          "type": "address"
        }
      ],
      "stateMutability": "view",
      "type": "function"
    },
    {
      "inputs": [
        {
          "components": [
            {
              "internalType": "address",
              "name": "to",
              "type": "address"
            },
            {
              "internalType": "uint256",
              "name": "tokenAmount",
              "type": "uint256"
            },
            {
              "internalType": "uint256",
              "name": "itemId1",
              "type": "uint256"
            },
            {
              "internalType": "uint256",
              "name": "itemId2",
              "type": "uint256"
            },
            {
              "internalType": "uint16",
              "name": "newItemPowerRange1",
              "type": "uint16"
            },
            {
              "internalType": "uint16",
              "name": "newItemPowerRange2",
              "type": "uint16"
            },
            {
              "internalType": "string",
              "name": "desiredItemType",
              "type": "string"
            },
            {
              "internalType": "uint256",
              "name": "successPercentage",
              "type": "uint256"
            },
            {
              "internalType": "uint256",
              "name": "timestamp",
              "type": "uint256"
            },
            {
              "internalType": "bytes",
              "name": "signature",
              "type": "bytes"
            }
          ],
          "internalType": "struct MintItem.ForgeItem",
          "name": "params",
          "type": "tuple"
        }
      ],
      "name": "forgeItem",
      "outputs": [
        {
          "internalType": "uint256",
          "name": "itemId",
          "type": "uint256"
        }
      ],
      "stateMutability": "nonpayable",
      "type": "function"
    },
    {
      "inputs": [],
      "name": "gameTreasury",
      "outputs": [
        {
          "internalType": "contract GameTreasury",
          "name": "",
          "type": "address"
        }
      ],
      "stateMutability": "view",
      "type": "function"
    },
    {
      "inputs": [
        {
          "internalType": "uint256",
          "name": "tokenId",
          "type": "uint256"
        }
      ],
      "name": "getApproved",
      "outputs": [
        {
          "internalType": "address",
          "name": "",
          "type": "address"
        }
      ],
      "stateMutability": "view",
      "type": "function"
    },
    {
      "inputs": [
        {
          "internalType": "uint256",
          "name": "itemId",
          "type": "uint256"
        }
      ],
      "name": "getItemCharacterOwner",
      "outputs": [
        {
          "internalType": "string",
          "name": "",
          "type": "string"
        }
      ],
      "stateMutability": "view",
      "type": "function"
    },
    {
      "inputs": [
        {
          "internalType": "uint256",
          "name": "itemId",
          "type": "uint256"
        }
      ],
      "name": "getItemDurability",
      "outputs": [
        {
          "internalType": "uint16",
          "name": "",
          "type": "uint16"
        }
      ],
      "stateMutability": "view",
      "type": "function"
    },
    {
      "inputs": [
        {
          "internalType": "uint256",
          "name": "itemId",
          "type": "uint256"
        }
      ],
      "name": "getItemPower",
      "outputs": [
        {
          "internalType": "uint256",
          "name": "",
          "type": "uint256"
        }
      ],
      "stateMutability": "view",
      "type": "function"
    },
    {
      "inputs": [
        {
          "internalType": "address",
          "name": "initialOwner",
          "type": "address"
        },
        {
          "internalType": "address",
          "name": "_gameTreasuryAddress",
          "type": "address"
        },
        {
          "internalType": "address",
          "name": "_paymentToken",
          "type": "address"
        },
        {
          "internalType": "address",
          "name": "_dungeonAdventure",
          "type": "address"
        },
        {
          "internalType": "address",
          "name": "_mintBoxAddress",
          "type": "address"
        },
        {
          "internalType": "address",
          "name": "_authorizedSigner",
          "type": "address"
        }
      ],
      "name": "initialize",
      "outputs": [],
      "stateMutability": "nonpayable",
      "type": "function"
    },
    {
      "inputs": [
        {
          "internalType": "address",
          "name": "owner",
          "type": "address"
        },
        {
          "internalType": "address",
          "name": "operator",
          "type": "address"
        }
      ],
      "name": "isApprovedForAll",
      "outputs": [
        {
          "internalType": "bool",
          "name": "",
          "type": "bool"
        }
      ],
      "stateMutability": "view",
      "type": "function"
    },
    {
      "inputs": [
        {
          "internalType": "uint256",
          "name": "",
          "type": "uint256"
        }
      ],
      "name": "itemTypes",
      "outputs": [
        {
          "internalType": "string",
          "name": "",
          "type": "string"
        }
      ],
      "stateMutability": "view",
      "type": "function"
    },
    {
      "inputs": [
        {
          "internalType": "uint256",
          "name": "",
          "type": "uint256"
        }
      ],
      "name": "items",
      "outputs": [
        {
          "internalType": "string",
          "name": "itemType",
          "type": "string"
        },
        {
          "internalType": "uint256",
          "name": "power",
          "type": "uint256"
        },
        {
          "internalType": "uint16",
          "name": "durability",
          "type": "uint16"
        },
        {
          "internalType": "string",
          "name": "characterOwner",
          "type": "string"
        }
      ],
      "stateMutability": "view",
      "type": "function"
    },
    {
      "inputs": [],
      "name": "mintBoxAddress",
      "outputs": [
        {
          "internalType": "contract MintBox",
          "name": "",
          "type": "address"
        }
      ],
      "stateMutability": "view",
      "type": "function"
    },
    {
      "inputs": [
        {
          "internalType": "address",
          "name": "to",
          "type": "address"
        }
      ],
      "name": "mintItem",
      "outputs": [
        {
          "internalType": "uint256",
          "name": "",
          "type": "uint256"
        }
      ],
      "stateMutability": "nonpayable",
      "type": "function"
    },
    {
      "inputs": [],
      "name": "name",
      "outputs": [
        {
          "internalType": "string",
          "name": "",
          "type": "string"
        }
      ],
      "stateMutability": "view",
      "type": "function"
    },
    {
      "inputs": [],
      "name": "owner",
      "outputs": [
        {
          "internalType": "address",
          "name": "",
          "type": "address"
        }
      ],
      "stateMutability": "view",
      "type": "function"
    },
    {
      "inputs": [
        {
          "internalType": "uint256",
          "name": "tokenId",
          "type": "uint256"
        }
      ],
      "name": "ownerOf",
      "outputs": [
        {
          "internalType": "address",
          "name": "",
          "type": "address"
        }
      ],
      "stateMutability": "view",
      "type": "function"
    },
    {
      "inputs": [],
      "name": "paymentToken",
      "outputs": [
        {
          "internalType": "contract IERC20",
          "name": "",
          "type": "address"
        }
      ],
      "stateMutability": "view",
      "type": "function"
    },
    {
      "inputs": [],
      "name": "proxiableUUID",
      "outputs": [
        {
          "internalType": "bytes32",
          "name": "",
          "type": "bytes32"
        }
      ],
      "stateMutability": "view",
      "type": "function"
    },
    {
      "inputs": [],
      "name": "renounceOwnership",
      "outputs": [],
      "stateMutability": "nonpayable",
      "type": "function"
    },
    {
      "inputs": [
        {
          "components": [
            {
              "internalType": "uint256[]",
              "name": "tokenIds",
              "type": "uint256[]"
            },
            {
              "internalType": "uint256[]",
              "name": "itemPower",
              "type": "uint256[]"
            },
            {
              "internalType": "uint256",
              "name": "tokenAmount",
              "type": "uint256"
            },
            {
              "internalType": "uint256",
              "name": "timestamp",
              "type": "uint256"
            },
            {
              "internalType": "bytes",
              "name": "signature",
              "type": "bytes"
            }
          ],
          "internalType": "struct MintItem.RepairRequest",
          "name": "request",
          "type": "tuple"
        }
      ],
      "name": "repairItemDurability",
      "outputs": [],
      "stateMutability": "nonpayable",
      "type": "function"
    },
    {
      "inputs": [
        {
          "internalType": "address",
          "name": "to",
          "type": "address"
        },
        {
          "internalType": "string",
          "name": "uri",
          "type": "string"
        }
      ],
      "name": "safeMint",
      "outputs": [],
      "stateMutability": "nonpayable",
      "type": "function"
    },
    {
      "inputs": [
        {
          "internalType": "address",
          "name": "from",
          "type": "address"
        },
        {
          "internalType": "address",
          "name": "to",
          "type": "address"
        },
        {
          "internalType": "uint256",
          "name": "tokenId",
          "type": "uint256"
        }
      ],
      "name": "safeTransferFrom",
      "outputs": [],
      "stateMutability": "nonpayable",
      "type": "function"
    },
    {
      "inputs": [
        {
          "internalType": "address",
          "name": "from",
          "type": "address"
        },
        {
          "internalType": "address",
          "name": "to",
          "type": "address"
        },
        {
          "internalType": "uint256",
          "name": "tokenId",
          "type": "uint256"
        },
        {
          "internalType": "bytes",
          "name": "data",
          "type": "bytes"
        }
      ],
      "name": "safeTransferFrom",
      "outputs": [],
      "stateMutability": "nonpayable",
      "type": "function"
    },
    {
      "inputs": [
        {
          "internalType": "address",
          "name": "operator",
          "type": "address"
        },
        {
          "internalType": "bool",
          "name": "approved",
          "type": "bool"
        }
      ],
      "name": "setApprovalForAll",
      "outputs": [],
      "stateMutability": "nonpayable",
      "type": "function"
    },
    {
      "inputs": [
        {
          "internalType": "address",
          "name": "_authorizedSigner",
          "type": "address"
        }
      ],
      "name": "setAuthorizedSigner",
      "outputs": [],
      "stateMutability": "nonpayable",
      "type": "function"
    },
    {
      "inputs": [
        {
          "internalType": "address",
          "name": "_dungeonAdventure",
          "type": "address"
        }
      ],
      "name": "setDungeonAdventureAddress",
      "outputs": [],
      "stateMutability": "nonpayable",
      "type": "function"
    },
    {
      "inputs": [
        {
          "internalType": "address",
          "name": "_gameTreasuryAddress",
          "type": "address"
        }
      ],
      "name": "setGameTreasuryAddress",
      "outputs": [],
      "stateMutability": "nonpayable",
      "type": "function"
    },
    {
      "inputs": [
        {
          "internalType": "address",
          "name": "_mintBoxAddress",
          "type": "address"
        }
      ],
      "name": "setMintBoxAddress",
      "outputs": [],
      "stateMutability": "nonpayable",
      "type": "function"
    },
    {
      "inputs": [
        {
          "internalType": "address",
          "name": "_tokenAddress",
          "type": "address"
        }
      ],
      "name": "setPaymentToken",
      "outputs": [],
      "stateMutability": "nonpayable",
      "type": "function"
    },
    {
      "inputs": [
        {
          "internalType": "bytes4",
          "name": "interfaceId",
          "type": "bytes4"
        }
      ],
      "name": "supportsInterface",
      "outputs": [
        {
          "internalType": "bool",
          "name": "",
          "type": "bool"
        }
      ],
      "stateMutability": "view",
      "type": "function"
    },
    {
      "inputs": [],
      "name": "symbol",
      "outputs": [
        {
          "internalType": "string",
          "name": "",
          "type": "string"
        }
      ],
      "stateMutability": "view",
      "type": "function"
    },
    {
      "inputs": [
        {
          "internalType": "uint256",
          "name": "index",
          "type": "uint256"
        }
      ],
      "name": "tokenByIndex",
      "outputs": [
        {
          "internalType": "uint256",
          "name": "",
          "type": "uint256"
        }
      ],
      "stateMutability": "view",
      "type": "function"
    },
    {
      "inputs": [
        {
          "internalType": "address",
          "name": "owner",
          "type": "address"
        },
        {
          "internalType": "uint256",
          "name": "index",
          "type": "uint256"
        }
      ],
      "name": "tokenOfOwnerByIndex",
      "outputs": [
        {
          "internalType": "uint256",
          "name": "",
          "type": "uint256"
        }
      ],
      "stateMutability": "view",
      "type": "function"
    },
    {
      "inputs": [
        {
          "internalType": "uint256",
          "name": "itemIdCounter",
          "type": "uint256"
        }
      ],
      "name": "tokenURI",
      "outputs": [
        {
          "internalType": "string",
          "name": "",
          "type": "string"
        }
      ],
      "stateMutability": "view",
      "type": "function"
    },
    {
      "inputs": [],
      "name": "totalSupply",
      "outputs": [
        {
          "internalType": "uint256",
          "name": "",
          "type": "uint256"
        }
      ],
      "stateMutability": "view",
      "type": "function"
    },
    {
      "inputs": [
        {
          "internalType": "address",
          "name": "from",
          "type": "address"
        },
        {
          "internalType": "address",
          "name": "to",
          "type": "address"
        },
        {
          "internalType": "uint256",
          "name": "tokenId",
          "type": "uint256"
        }
      ],
      "name": "transferFrom",
      "outputs": [],
      "stateMutability": "nonpayable",
      "type": "function"
    },
    {
      "inputs": [
        {
          "internalType": "address",
          "name": "newOwner",
          "type": "address"
        }
      ],
      "name": "transferOwnership",
      "outputs": [],
      "stateMutability": "nonpayable",
      "type": "function"
    },
    {
      "inputs": [
        {
          "internalType": "address",
          "name": "newImplementation",
          "type": "address"
        },
        {
          "internalType": "bytes",
          "name": "data",
          "type": "bytes"
        }
      ],
      "name": "upgradeToAndCall",
      "outputs": [],
      "stateMutability": "payable",
      "type": "function"
    },
    {
      "inputs": [
        {
          "internalType": "address",
          "name": "owner",
          "type": "address"
        }
      ],
      "name": "viewOwnedItems",
      "outputs": [
        {
          "components": [
            {
              "internalType": "uint256",
              "name": "id",
              "type": "uint256"
            },
            {
              "components": [
                {
                  "internalType": "string",
                  "name": "itemType",
                  "type": "string"
                },
                {
                  "internalType": "uint256",
                  "name": "power",
                  "type": "uint256"
                },
                {
                  "internalType": "uint16",
                  "name": "durability",
                  "type": "uint16"
                },
                {
                  "internalType": "string",
                  "name": "characterOwner",
                  "type": "string"
                }
              ],
              "internalType": "struct MintItem.Item",
              "name": "item",
              "type": "tuple"
            }
          ],
          "internalType": "struct MintItem.ItemDetails[]",
          "name": "",
          "type": "tuple[]"
        }
      ],
      "stateMutability": "view",
      "type": "function"
    }
  ],
  "bytecode": "0x60a0604052306080523480156200001557600080fd5b506200002062000026565b620000da565b7ff0c57e16840df040f15088dc2f81fe391c3923bec73e23a9662efc9c229c6a00805468010000000000000000900460ff1615620000775760405163f92ee8a960e01b815260040160405180910390fd5b80546001600160401b0390811614620000d75780546001600160401b0319166001600160401b0390811782556040519081527fc7f505b2f371ae2175ee4913f4499e1f2633a7b5936321eed1cdaeb6115181d29060200160405180910390a15b50565b608051615d2262000104600039600081816132ce015281816132f701526134380152615d226000f3fe6080604052600436106102885760003560e01c80638d99ba4d1161015a578063c87b56dd116100c1578063d2f9efab1161007a578063d2f9efab14610814578063df352ad814610834578063e985e9c514610854578063ea395c1214610874578063f2fde38b14610894578063fb998999146108b457600080fd5b8063c87b56dd14610754578063cc2a9a5b14610774578063ccb91f7814610794578063d0c2cdbf146107b4578063d204c45e146107d4578063d279b0ca146107f457600080fd5b8063a22cb46511610113578063a22cb46514610673578063a66f684214610693578063ad3cb1cc146106b3578063b88d4fde146106e4578063ba3b7b0e14610704578063bfb231d21461072457600080fd5b80638d99ba4d146105a15780638da5cb5b146105c157806395d89b41146105fe578063980829a5146106135780639acf878c14610633578063a1365bf11461065357600080fd5b806342842e0e116101fe5780636352211e116101b75780636352211e146104df578063691c65d4146104ff5780636a326ab11461051f57806370a082311461053f578063715018a61461055f5780637f08d6e21461057457600080fd5b806342842e0e1461043757806342966c68146104575780634f1ef286146104775780634f6ccce71461048a57806352d1902d146104aa5780635df1c702146104bf57600080fd5b806323b872dd1161025057806323b872dd1461036a5780632f2e22b71461038a5780632f745c59146103aa5780633013ce29146103ca57806331f84d3d146103ea5780633604c9fb1461040a57600080fd5b806301ffc9a71461028d57806306fdde03146102c2578063081812fc146102e4578063095ea7b31461031c57806318160ddd1461033e575b600080fd5b34801561029957600080fd5b506102ad6102a8366004614d49565b6108e7565b60405190151581526020015b60405180910390f35b3480156102ce57600080fd5b506102d76108f8565b6040516102b99190614db6565b3480156102f057600080fd5b506103046102ff366004614dc9565b61099c565b6040516001600160a01b0390911681526020016102b9565b34801561032857600080fd5b5061033c610337366004614df9565b6109b1565b005b34801561034a57600080fd5b50600080516020615ccd833981519152545b6040519081526020016102b9565b34801561037657600080fd5b5061033c610385366004614e23565b6109c0565b34801561039657600080fd5b5061035c6103a5366004614dc9565b610a50565b3480156103b657600080fd5b5061035c6103c5366004614df9565b610abd565b3480156103d657600080fd5b50600554610304906001600160a01b031681565b3480156103f657600080fd5b5061033c610405366004614e5f565b610b31565b34801561041657600080fd5b5061042a610425366004614ed2565b610b5b565b6040516102b99190614f89565b34801561044357600080fd5b5061033c610452366004614e23565b610dd3565b34801561046357600080fd5b5061033c610472366004614dc9565b610df3565b61033c610485366004615044565b610dff565b34801561049657600080fd5b5061035c6104a5366004614dc9565b610e1a565b3480156104b657600080fd5b5061035c610e92565b3480156104cb57600080fd5b506102d76104da366004614dc9565b610eaf565b3480156104eb57600080fd5b506103046104fa366004614dc9565b610f54565b34801561050b57600080fd5b5061035c61051a366004614e5f565b610f5f565b34801561052b57600080fd5b5061033c61053a366004614e5f565b6110de565b34801561054b57600080fd5b5061035c61055a366004614e5f565b611108565b34801561056b57600080fd5b5061033c611164565b34801561058057600080fd5b5061059461058f366004614e5f565b611178565b6040516102b99190615091565b3480156105ad57600080fd5b50600354610304906001600160a01b031681565b3480156105cd57600080fd5b507f9016d09d72d40fdae2fd8ceac6b6234c7706214fd39c1cd1e609a0528c199300546001600160a01b0316610304565b34801561060a57600080fd5b506102d76113e6565b34801561061f57600080fd5b5061033c61062e366004614e5f565b611425565b34801561063f57600080fd5b506102d761064e366004614dc9565b61144f565b34801561065f57600080fd5b5061033c61066e366004614e5f565b6114fb565b34801561067f57600080fd5b5061033c61068e366004615157565b611525565b34801561069f57600080fd5b5061035c6106ae366004614dc9565b611530565b3480156106bf57600080fd5b506102d7604051806040016040528060058152602001640352e302e360dc1b81525081565b3480156106f057600080fd5b5061033c6106ff36600461518e565b6116f5565b34801561071057600080fd5b5061033c61071f366004615207565b61170c565b34801561073057600080fd5b5061074461073f366004614dc9565b611b4b565b6040516102b9949392919061523b565b34801561076057600080fd5b506102d761076f366004614dc9565b611c8c565b34801561078057600080fd5b5061033c61078f36600461527b565b611c97565b3480156107a057600080fd5b5061033c6107af366004615207565b611faf565b3480156107c057600080fd5b5061035c6107cf3660046152ef565b6123a2565b3480156107e057600080fd5b5061033c6107ef36600461532a565b612836565b34801561080057600080fd5b5061033c61080f366004614e5f565b612869565b34801561082057600080fd5b50600254610304906001600160a01b031681565b34801561084057600080fd5b50600454610304906001600160a01b031681565b34801561086057600080fd5b506102ad61086f366004615381565b612893565b34801561088057600080fd5b5061033c61088f3660046153b4565b6128e0565b3480156108a057600080fd5b5061033c6108af366004614e5f565b612cdf565b3480156108c057600080fd5b506108d46108cf366004614dc9565b612d1d565b60405161ffff90911681526020016102b9565b60006108f282612ee2565b92915050565b600080516020615c8d8339815191528054606091908190610918906153ee565b80601f0160208091040260200160405190810160405280929190818152602001828054610944906153ee565b80156109915780601f1061096657610100808354040283529160200191610991565b820191906000526020600020905b81548152906001019060200180831161097457829003601f168201915b505050505091505090565b60006109a782612f07565b506108f282612f3f565b6109bc828233612f79565b5050565b6001600160a01b0382166109ef57604051633250574960e11b8152600060048201526024015b60405180910390fd5b60006109fc838333612f86565b9050836001600160a01b0316816001600160a01b031614610a4a576040516364283d7b60e01b81526001600160a01b03808616600483015260248201849052821660448201526064016109e6565b50505050565b60006101908210610a6a576108f261012c61018f84612f9d565b61012c8210610a81576108f260c861012b84612f9d565b60c88210610a96576108f2606460c784612f9d565b60648210610aab576108f26032606384612f9d565b6108f26032606384612f9d565b919050565b6000600080516020615c6d833981519152610ad784611108565b8310610b085760405163295f44f760e21b81526001600160a01b0385166004820152602481018490526044016109e6565b6001600160a01b0384166000908152602091825260408082208583529092522054905092915050565b610b39613054565b600380546001600160a01b0319166001600160a01b0392909216919091179055565b6003546060906001600160a01b03163314610bcc5760405162461bcd60e51b815260206004820152602b60248201527f43616c6c6572206973206e6f74207468652044756e67656f6e416476656e747560448201526a1c994818dbdb9d1c9858dd60aa1b60648201526084016109e6565b600083516001600160401b03811115610be757610be7614e7a565b604051908082528060200260200182016040528015610c10578160200160208202803683370190505b5090506000805b8551811015610d2e576000868281518110610c3457610c34615422565b60209081029190910181015160008181526007909252604090912060028101549192509061ffff80891691161115610ca057600281018054889190600090610c8190849061ffff1661544e565b92506101000a81548161ffff021916908361ffff160217905550610cae565b60028101805461ffff191690555b6064816001015411158015610cc95750600281015461ffff16155b15610d0757610cd7826130af565b81858581518110610cea57610cea615422565b602090810291909101015283610cff81615470565b945050610d19565b610d1982610d14846130ea565b613250565b50508080610d2690615470565b915050610c17565b506000816001600160401b03811115610d4957610d49614e7a565b604051908082528060200260200182016040528015610d72578160200160208202803683370190505b50905060005b82811015610dc957838181518110610d9257610d92615422565b6020026020010151828281518110610dac57610dac615422565b602090810291909101015280610dc181615470565b915050610d78565b5095945050505050565b610dee838383604051806020016040528060008152506116f5565b505050565b6109bc60008233612f86565b610e076132c3565b610e1082613368565b6109bc8282613370565b6000600080516020615c6d833981519152610e41600080516020615ccd8339815191525490565b8310610e6a5760405163295f44f760e21b815260006004820152602481018490526044016109e6565b806002018381548110610e7f57610e7f615422565b9060005260206000200154915050919050565b6000610e9c61342d565b50600080516020615cad83398151915290565b6000818152600760205260409020600301805460609190610ecf906153ee565b80601f0160208091040260200160405190810160405280929190818152602001828054610efb906153ee565b8015610f485780601f10610f1d57610100808354040283529160200191610f48565b820191906000526020600020905b815481529060010190602001808311610f2b57829003601f168201915b50505050509050919050565b60006108f282612f07565b6004546000906001600160a01b03163314610fd05760405162461bcd60e51b815260206004820152602b60248201527f4f6e6c7920746865204d696e74426f7820636f6e74726163742063616e206d6960448201526a6e7420746865206974656d60a81b60648201526084016109e6565b6001805460009182610fe183615470565b9190505590506000610ff282613476565b90506000610fff8361353b565b9050600061100c8361363c565b60408051608081018252848152602080820187905261ffff84168284015282518084018452600c81526b139bc81bdddb995c881e595d60a21b818301526060830152600088815260079091529190912081519293509091829190819061107290826154d7565b5060208201516001820155604082015160028201805461ffff191661ffff909216919091179055606082015160038201906110ad90826154d7565b509050506110bb87866136e6565b60006110c6866130ea565b90506110d28682613250565b50939695505050505050565b6110e6613054565b600580546001600160a01b0319166001600160a01b0392909216919091179055565b6000600080516020615c8d8339815191526001600160a01b038316611143576040516322718ad960e21b8152600060048201526024016109e6565b6001600160a01b039092166000908152600390920160205250604090205490565b61116c613054565b6111766000613700565b565b6060600061118583611108565b9050806000036111c85760408051600080825260208201909252906111c0565b6111ad614c30565b8152602001906001900390816111a55790505b509392505050565b6000816001600160401b038111156111e2576111e2614e7a565b60405190808252806020026020018201604052801561121b57816020015b611208614c30565b8152602001906001900390816112005790505b50905060005b828110156111c05760006112358683610abd565b9050600060076000838152602001908152602001600020905060405180604001604052808381526020018260405180608001604052908160008201805461127b906153ee565b80601f01602080910402602001604051908101604052809291908181526020018280546112a7906153ee565b80156112f45780601f106112c9576101008083540402835291602001916112f4565b820191906000526020600020905b8154815290600101906020018083116112d757829003601f168201915b505050918352505060018201546020820152600282015461ffff166040820152600382018054606090920191611329906153ee565b80601f0160208091040260200160405190810160405280929190818152602001828054611355906153ee565b80156113a25780601f10611377576101008083540402835291602001916113a2565b820191906000526020600020905b81548152906001019060200180831161138557829003601f168201915b5050505050815250508152508484815181106113c0576113c0615422565b6020026020010181905250505080806113d890615470565b915050611221565b50919050565b7f80bb2b638cc20bc4d0a60d66940f3ab4a00c1d7b313497ca82fb0b4ab00793018054606091600080516020615c8d83398151915291610918906153ee565b61142d613054565b600480546001600160a01b0319166001600160a01b0392909216919091179055565b6000818154811061145f57600080fd5b90600052602060002001600091509050805461147a906153ee565b80601f01602080910402602001604051908101604052809291908181526020018280546114a6906153ee565b80156114f35780601f106114c8576101008083540402835291602001916114f3565b820191906000526020600020905b8154815290600101906020018083116114d657829003601f168201915b505050505081565b611503613054565b600280546001600160a01b0319166001600160a01b0392909216919091179055565b6109bc338383613771565b60008061153c83610f54565b6001600160a01b0316036115925760405162461bcd60e51b815260206004820152601a60248201527f517565727920666f72206e6f6e6578697374656e74206974656d00000000000060448201526064016109e6565b6000828152600760205260408082208151608081019092528054829082906115b9906153ee565b80601f01602080910402602001604051908101604052809291908181526020018280546115e5906153ee565b80156116325780601f1061160757610100808354040283529160200191611632565b820191906000526020600020905b81548152906001019060200180831161161557829003601f168201915b505050918352505060018201546020820152600282015461ffff166040820152600382018054606090920191611667906153ee565b80601f0160208091040260200160405190810160405280929190818152602001828054611693906153ee565b80156116e05780601f106116b5576101008083540402835291602001916116e0565b820191906000526020600020905b8154815290600101906020018083116116c357829003601f168201915b50505091909252505050602001519392505050565b6117008484846109c0565b610a4a84848484613822565b6000604082013560608301356117228480615596565b61172f6020870187615596565b60405160200161174496959493929190615618565b604051602081830303815290604052805190602001209050600061176782613944565b905060006117b68261177c6080870187615658565b8080601f01602080910402602001604051908101604052809392919081815260200183838082843760009201919091525061397792505050565b6006549091506001600160a01b038083169116146117e65760405162461bcd60e51b81526004016109e69061569e565b6117f36020850185615596565b90506117ff8580615596565b90501461184e5760405162461bcd60e51b815260206004820181905260248201527f417272617973206d7573742068617665207468652073616d65206c656e67746860448201526064016109e6565b61185e606085013561012c6156e0565b4211158015611871575083606001354210155b6118c95760405162461bcd60e51b8152602060048201526024808201527f52657061697220726571756573742074696d657374616d7020697320696e76616044820152633634b21760e11b60648201526084016109e6565b60005b6118d68580615596565b9050811015611a845760006118eb8680615596565b838181106118fb576118fb615422565b905060200201359050336001600160a01b031661191782610f54565b6001600160a01b0316146119785760405162461bcd60e51b815260206004820152602260248201527f596f75206d757374206f776e20746865206974656d20746f20726570616972206044820152611a5d60f21b60648201526084016109e6565b60008181526007602090815260409091209061199690880188615596565b848181106119a6576119a6615422565b905060200201358160010154146119cf5760405162461bcd60e51b81526004016109e6906156f3565b6064816001015411611a2d5760405162461bcd60e51b815260206004820152602160248201527f4974656d20706f77657220697320746f6f206c6f7720666f72207265706169726044820152601760f91b60648201526084016109e6565b611a3a8160010154610a50565b60018201819055611a4a9061363c565b60028201805461ffff191661ffff92909216919091179055611a6f82610d14816130ea565b50508080611a7c90615470565b9150506118cc565b50600554600254604080516323b872dd60e01b81523360048201526001600160a01b0392831660248201529087013560448201529116906323b872dd906064016020604051808303816000875af1158015611ae3573d6000803e3d6000fd5b505050506040513d601f19601f82011682018060405250810190611b079190615741565b610a4a5760405162461bcd60e51b8152602060048201526015602482015274151bdad95b881d1c985b9cd9995c8819985a5b1959605a1b60448201526064016109e6565b600760205260009081526040902080548190611b66906153ee565b80601f0160208091040260200160405190810160405280929190818152602001828054611b92906153ee565b8015611bdf5780601f10611bb457610100808354040283529160200191611bdf565b820191906000526020600020905b815481529060010190602001808311611bc257829003601f168201915b50505050600183015460028401546003850180549495929461ffff909216935090611c09906153ee565b80601f0160208091040260200160405190810160405280929190818152602001828054611c35906153ee565b8015611c825780601f10611c5757610100808354040283529160200191611c82565b820191906000526020600020905b815481529060010190602001808311611c6557829003601f168201915b5050505050905084565b60606108f2826139a1565b7ff0c57e16840df040f15088dc2f81fe391c3923bec73e23a9662efc9c229c6a008054600160401b810460ff1615906001600160401b0316600081158015611cdc5750825b90506000826001600160401b03166001148015611cf85750303b155b905081158015611d06575080155b15611d245760405163f92ee8a960e01b815260040160405180910390fd5b845467ffffffffffffffff191660011785558315611d4e57845460ff60401b1916600160401b1785555b611d578b613acd565b611d9f60405180604001604052806007815260200166139195131bdbdd60ca1b81525060405180604001604052806007815260200166139195131bdbdd60ca1b815250613ade565b611da7613af0565b611daf613af0565b611db7613af0565b600280546001600160a01b03199081166001600160a01b038d8116919091179092556005805482168c84161781556003805483168c85161790556004805483168b851617815560068054909316938a16939093178255604080516101808101825261014081018581526348656c6d60e01b61016083015281528151808301835260078152664272616365727360c81b602080830191909152808301919091528251808401845284815264546f72736f60d81b818301528284015282518084018452868152634c65677360e01b8183015260608301528251808401845285815265476c6f76657360d01b818301526080830152825180840184528681526310995b1d60e21b8183015260a08301528251808401845293845264426f6f747360d81b8482015260c082019390935281518083018352848152652bb2b0b837b760d11b8185015260e0820152815180830183529485526352696e6760e01b85840152610100810194909452805180820190915291825265105b5d5b195d60d21b90820152610120820152611f4c90600090600a614c76565b50600154600003611f5c57600180555b8315611fa257845460ff60401b19168555604051600181527fc7f505b2f371ae2175ee4913f4499e1f2633a7b5936321eed1cdaeb6115181d29060200160405180910390a15b5050505050505050505050565b33611fba8235610f54565b6001600160a01b03161461201a5760405162461bcd60e51b815260206004820152602160248201527f596f75206d757374206f776e20746865206974656d20746f206275726e2069746044820152601760f91b60648201526084016109e6565b8035600090815260076020526040808220815160808101909252805482908290612043906153ee565b80601f016020809104026020016040519081016040528092919081815260200182805461206f906153ee565b80156120bc5780601f10612091576101008083540402835291602001916120bc565b820191906000526020600020905b81548152906001019060200180831161209f57829003601f168201915b505050918352505060018201546020820152600282015461ffff1660408201526003820180546060909201916120f1906153ee565b80601f016020809104026020016040519081016040528092919081815260200182805461211d906153ee565b801561216a5780601f1061213f5761010080835404028352916020019161216a565b820191906000526020600020905b81548152906001019060200180831161214d57829003601f168201915b5050505050815250509050816020016020810190612188919061575e565b61ffff16816040015161ffff16146121fd5760405162461bcd60e51b815260206004820152603260248201527f4974656d206475726162696c69747920646f6573206e6f74206d617463682074604482015271343290383937bb34b232b2103b30b63ab29760711b60648201526084016109e6565b61220d606083013561012c6156e0565b4211158015612220575081606001354210155b6122775760405162461bcd60e51b815260206004820152602260248201527f4275726e20726571756573742074696d657374616d7020697320696e76616c69604482015261321760f11b60648201526084016109e6565b600060408301803590606085013590853590612296906020880161575e565b604080516020810195909552840192909252606083015260f01b6001600160f01b031916608082015260820160405160208183030381529060405280519060200120905060006122e582613944565b905060006122fa8261177c6080880188615658565b6006549091506001600160a01b0380831691161461232a5760405162461bcd60e51b81526004016109e69061569e565b61233485356130af565b6002546040805163bec3fa1760e01b81523360048201529087013560248201526001600160a01b039091169063bec3fa1790604401600060405180830381600087803b15801561238357600080fd5b505af1158015612397573d6000803e3d6000fd5b505050505050505050565b6000336123b26040840135610f54565b6001600160a01b0316146124085760405162461bcd60e51b815260206004820152601f60248201527f596f75206d757374206f776e20746865206974656d20746f20466f7267652e0060448201526064016109e6565b336124166060840135610f54565b6001600160a01b03161461246c5760405162461bcd60e51b815260206004820152601f60248201527f596f75206d757374206f776e20746865206974656d20746f20466f7267652e0060448201526064016109e6565b600060208301356040840135606085013561248d60a087016080880161575e565b61249d60c0880160a0890161575e565b6124aa60c0890189615658565b8960e001358a61010001356040516020016124cd99989796959493929190615779565b60405160208183030381529060405280519060200120905060006124f082613944565b905060006125068261177c610120880188615658565b6006549091506001600160a01b038083169116146125365760405162461bcd60e51b81526004016109e69061569e565b61254761010086013561012c6156e0565b421115801561255b57508461010001354210155b6125a75760405162461bcd60e51b815260206004820152601d60248201527f526571756573742074696d657374616d7020697320696e76616c69642e00000060448201526064016109e6565b60006127104442336125bd6101208b018b615658565b6040516020016125d19594939291906157cc565b6040516020818303038152906040528051906020012060001c6125f4919061581c565b90508560e0013581111561273e576040808701356000908152600760205281812060608901358252918120600180820154908401549192911061263b578160010154612641565b82600101545b905061265089604001356130af565b61265d89606001356130af565b60008061266983613af8565b9150915060006126798383613bf2565b90506126e78161268c60c08f018f615658565b8080601f016020809104026020016040519081016040528093929190818152602001838380828437600081840152601f19601f820116905080830192505050505050508e60000160208101906126e29190614e5f565b613c69565b9a50337f80a64abab590ae793d7ae604db947eccf4206721f5b33b0fb80a21b2aac7b38b8c61271581611c8c565b8f60e001358b60405161272b9493929190615830565b60405180910390a250505050505061282d565b61274b86604001356130af565b61275886606001356130af565b600061278a61276d60a0890160808a0161575e565b61ffff1661278160c08a0160a08b0161575e565b61ffff16613bf2565b90506127df8161279d60c08a018a615658565b8080601f0160208091040260200160405190810160405280939291908181526020018383808284376000920191909152506126e29250505060208b018b614e5f565b9550337f80a64abab590ae793d7ae604db947eccf4206721f5b33b0fb80a21b2aac7b38b8761280d81611c8c565b8a60e00135866040516128239493929190615830565b60405180910390a2505b50505050919050565b61283e613054565b600180546000918261284f83615470565b91905055905061285f83826136e6565b610dee8183613250565b612871613054565b600680546001600160a01b0319166001600160a01b0392909216919091179055565b6001600160a01b0391821660009081527f80bb2b638cc20bc4d0a60d66940f3ab4a00c1d7b313497ca82fb0b4ab00793056020908152604080832093909416825291909152205460ff1690565b600081356128f16020840184615596565b6128fe6040860186615596565b61290b6060880188615596565b8860800135604051602001612927989796959493929190615885565b604051602081830303815290604052805190602001209050600061294a82613944565b9050600061295f8261177c60a0870187615658565b6006549091506001600160a01b0380831691161461298f5760405162461bcd60e51b81526004016109e69061569e565b61299f608085013561012c6156e0565b42111580156129b2575083608001354210155b612a115760405162461bcd60e51b815260206004820152602a60248201527f4368616e6765206f776e657220726571756573742074696d657374616d702069604482015269399034b73b30b634b21760b11b60648201526084016109e6565b612a1e6040850185615596565b9050612a2d6020860186615596565b9050148015612a575750612a446060850185615596565b9050612a536020860186615596565b9050145b612aa35760405162461bcd60e51b815260206004820181905260248201527f417272617973206d7573742068617665207468652073616d65206c656e67746860448201526064016109e6565b6005546002546040516323b872dd60e01b81523360048201526001600160a01b039182166024820152863560448201529116906323b872dd906064016020604051808303816000875af1158015612afe573d6000803e3d6000fd5b505050506040513d601f19601f82011682018060405250810190612b229190615741565b612b665760405162461bcd60e51b8152602060048201526015602482015274151bdad95b881d1c985b9cd9995c8819985a5b1959605a1b60448201526064016109e6565b60005b612b766020860186615596565b9050811015612cd8576000612b8e6020870187615596565b83818110612b9e57612b9e615422565b905060200201359050336001600160a01b0316612bba82610f54565b6001600160a01b031614612c225760405162461bcd60e51b815260206004820152602960248201527f596f75206d757374206f776e20746865206974656d20746f206368616e67652060448201526834ba399037bbb732b960b91b60648201526084016109e6565b6000818152600760205260409020612c3d6060880188615596565b84818110612c4d57612c4d615422565b90506020020135816001015414612c765760405162461bcd60e51b81526004016109e6906156f3565b612c836040880188615596565b84818110612c9357612c93615422565b9050602002810190612ca59190615658565b6003830191612cb5919083615958565b50612cc382610d14846130ea565b50508080612cd090615470565b915050612b69565b5050505050565b612ce7613054565b6001600160a01b038116612d1157604051631e4fbdf760e01b8152600060048201526024016109e6565b612d1a81613700565b50565b600080612d2983610f54565b6001600160a01b031603612d7f5760405162461bcd60e51b815260206004820152601a60248201527f517565727920666f72206e6f6e6578697374656e74206974656d00000000000060448201526064016109e6565b600082815260076020526040808220815160808101909252805482908290612da6906153ee565b80601f0160208091040260200160405190810160405280929190818152602001828054612dd2906153ee565b8015612e1f5780601f10612df457610100808354040283529160200191612e1f565b820191906000526020600020905b815481529060010190602001808311612e0257829003601f168201915b505050918352505060018201546020820152600282015461ffff166040820152600382018054606090920191612e54906153ee565b80601f0160208091040260200160405190810160405280929190818152602001828054612e80906153ee565b8015612ecd5780601f10612ea257610100808354040283529160200191612ecd565b820191906000526020600020905b815481529060010190602001808311612eb057829003601f168201915b50505091909252505050604001519392505050565b60006001600160e01b03198216632483248360e11b14806108f257506108f282613d5e565b600080612f1383613d83565b90506001600160a01b0381166108f257604051637e27328960e01b8152600481018490526024016109e6565b60009081527f80bb2b638cc20bc4d0a60d66940f3ab4a00c1d7b313497ca82fb0b4ab007930460205260409020546001600160a01b031690565b610dee8383836001613dbd565b6000612f93848484613ed3565b90505b9392505050565b6000838311612fee5760405162461bcd60e51b815260206004820152601c60248201527f6d6178206d7573742062652067726561746572207468616e206d696e0000000060448201526064016109e6565b6000444233856040516020016130079493929190615a17565b60408051601f19818403018152919052805160209091012090508461302c8186615a3f565b6130379060016156e0565b613041908361581c565b61304b91906156e0565b95945050505050565b336130867f9016d09d72d40fdae2fd8ceac6b6234c7706214fd39c1cd1e609a0528c199300546001600160a01b031690565b6001600160a01b0316146111765760405163118cdaa760e01b81523360048201526024016109e6565b60006130be6000836000612f86565b90506001600160a01b0381166109bc57604051637e27328960e01b8152600481018390526024016109e6565b600081815260076020526040908190208151608081019092528054606092612f969183908290829061311b906153ee565b80601f0160208091040260200160405190810160405280929190818152602001828054613147906153ee565b80156131945780601f1061316957610100808354040283529160200191613194565b820191906000526020600020905b81548152906001019060200180831161317757829003601f168201915b505050918352505060018201546020820152600282015461ffff1660408201526003820180546060909201916131c9906153ee565b80601f01602080910402602001604051908101604052809291908181526020018280546131f5906153ee565b80156132425780601f1061321757610100808354040283529160200191613242565b820191906000526020600020905b81548152906001019060200180831161322557829003601f168201915b505050505081525050613fcc565b60008281527f0542a41881ee128a365a727b282c86fa859579490b9bb45aab8503648c8e79006020819052604090912061328a83826154d7565b506040518381527ff8e1a15aba9398e019f0b49df1a4fde98ee17ae345cb5f6b5e2c27f5033e8ce79060200160405180910390a1505050565b306001600160a01b037f000000000000000000000000000000000000000000000000000000000000000016148061334a57507f00000000000000000000000000000000000000000000000000000000000000006001600160a01b031661333e600080516020615cad833981519152546001600160a01b031690565b6001600160a01b031614155b156111765760405163703e46dd60e11b815260040160405180910390fd5b612d1a613054565b816001600160a01b03166352d1902d6040518163ffffffff1660e01b8152600401602060405180830381865afa9250505080156133ca575060408051601f3d908101601f191682019092526133c791810190615a52565b60015b6133f257604051634c9c8ce360e01b81526001600160a01b03831660048201526024016109e6565b600080516020615cad833981519152811461342357604051632a87526960e21b8152600481018290526024016109e6565b610dee8383614042565b306001600160a01b037f000000000000000000000000000000000000000000000000000000000000000016146111765760405163703e46dd60e11b815260040160405180910390fd5b60008061348283614098565b90506000612710824233876040516020016134a09493929190615a17565b6040516020818303038152906040528051906020012060001c6134c3919061581c565b9050611a908110156134e4576134dc6032606386612f9d565b949350505050565b6122608110156134fb576134dc606460c786612f9d565b612580811015613513576134dc60c861012b86612f9d565b6126de81101561352c576134dc61012c61018f86612f9d565b6134dc6101906101f486612f9d565b6060600061354883614098565b905060008080549050824233876040516020016135689493929190615a17565b6040516020818303038152906040528051906020012060001c61358b919061581c565b9050600081815481106135a0576135a0615422565b9060005260206000200180546135b5906153ee565b80601f01602080910402602001604051908101604052809291908181526020018280546135e1906153ee565b801561362e5780601f106136035761010080835404028352916020019161362e565b820191906000526020600020905b81548152906001019060200180831161361157829003601f168201915b505050505092505050919050565b600060328210158015613650575060638211155b1561365d5750600e919050565b6064821015801561366f575060c78211155b1561367c5750601c919050565b60c8821015801561368f575061012b8211155b1561369c5750602a919050565b61012c82101580156136b0575061018f8211155b156136bd57506038919050565b61019082101580156136d157506101f48211155b156136de57506046919050565b506000919050565b6109bc828260405180602001604052806000815250614110565b7f9016d09d72d40fdae2fd8ceac6b6234c7706214fd39c1cd1e609a0528c19930080546001600160a01b031981166001600160a01b03848116918217845560405192169182907f8be0079c531659141344cd1fd0a4f28419497f9722a3daafe3b4186f6b6457e090600090a3505050565b600080516020615c8d8339815191526001600160a01b0383166137b257604051630b61174360e31b81526001600160a01b03841660048201526024016109e6565b6001600160a01b038481166000818152600584016020908152604080832094881680845294825291829020805460ff191687151590811790915591519182527f17307eab39ab6107e8899845ad3d59bd9653f200f220920489ca2b5937696c31910160405180910390a350505050565b6001600160a01b0383163b15610a4a57604051630a85bd0160e11b81526001600160a01b0384169063150b7a0290613864903390889087908790600401615a6b565b6020604051808303816000875af192505050801561389f575060408051601f3d908101601f1916820190925261389c91810190615a9e565b60015b613908573d8080156138cd576040519150601f19603f3d011682016040523d82523d6000602084013e6138d2565b606091505b50805160000361390057604051633250574960e11b81526001600160a01b03851660048201526024016109e6565b805181602001fd5b6001600160e01b03198116630a85bd0160e11b14612cd857604051633250574960e11b81526001600160a01b03851660048201526024016109e6565b7f19457468657265756d205369676e6564204d6573736167653a0a3332000000006000908152601c91909152603c902090565b6000806000806139878686614127565b9250925092506139978282614174565b5090949350505050565b60607f0542a41881ee128a365a727b282c86fa859579490b9bb45aab8503648c8e79006139cd83612f07565b50600083815260208290526040812080546139e7906153ee565b80601f0160208091040260200160405190810160405280929190818152602001828054613a13906153ee565b8015613a605780601f10613a3557610100808354040283529160200191613a60565b820191906000526020600020905b815481529060010190602001808311613a4357829003601f168201915b505050505090506000613a7e60408051602081019091526000815290565b90508051600003613a9157509392505050565b815115613ac4578082604051602001613aab929190615ad7565b6040516020818303038152906040529350505050919050565b61304b8561422d565b613ad56142a1565b612d1a816142ea565b613ae66142a1565b6109bc82826142f2565b6111766142a1565b60008060328310158015613b0d575060638311155b15613b1e5750603292606392509050565b60648310158015613b30575060c78311155b15613b41575060649260c792509050565b60c88310158015613b54575061012b8311155b15613b66575060c89261012b92509050565b61012c8310158015613b7a575061018f8311155b15613b8d575061012c9261018f92509050565b6101908310158015613ba157506101f48311155b15613bb45750610190926101f492509050565b60405162461bcd60e51b8152602060048201526013602482015272496e76616c696420706f7765722072616e676560681b60448201526064016109e6565b6000613bfe8383615a3f565b613c099060016156e0565b444233604051602001613c3c93929190928352602083019190915260601b6001600160601b031916604082015260540190565b6040516020818303038152906040528051906020012060001c613c5f919061581c565b612f9690846156e0565b600080613c758561363c565b9050600060405180608001604052808681526020018781526020018361ffff1681526020016040518060400160405280600c81526020016b139bc81bdddb995c881e595d60a21b8152508152509050600060016000815480929190613cd990615470565b909155506000818152600760205260409020835191925083918190613cfe90826154d7565b5060208201516001820155604082015160028201805461ffff191661ffff90921691909117905560608201516003820190613d3990826154d7565b50905050613d4785826136e6565b613d5481610d14836130ea565b9695505050505050565b60006001600160e01b0319821663780e9d6360e01b14806108f257506108f282614323565b60009081527f80bb2b638cc20bc4d0a60d66940f3ab4a00c1d7b313497ca82fb0b4ab007930260205260409020546001600160a01b031690565b600080516020615c8d8339815191528180613de057506001600160a01b03831615155b15613ea2576000613df085612f07565b90506001600160a01b03841615801590613e1c5750836001600160a01b0316816001600160a01b031614155b8015613e2f5750613e2d8185612893565b155b15613e585760405163a9fbf51f60e01b81526001600160a01b03851660048201526024016109e6565b8215613ea05784866001600160a01b0316826001600160a01b03167f8c5be1e5ebec7d5bd14f71427d1e84f3dd0314c0f7b2291e5b200ac8c7c3b92560405160405180910390a45b505b600093845260040160205250506040902080546001600160a01b0319166001600160a01b0392909216919091179055565b600080613ee1858585614373565b90506001600160a01b038116613f6a57613f6584600080516020615ccd833981519152805460008381527f645e039705490088daad89bae25049a34f4a9072d398537b1ab2425f24cbed0360205260408120829055600182018355919091527fa42f15e5d656f8155fd7419d740a6073999f19cd6e061449ce4a257150545bf20155565b613f8d565b846001600160a01b0316816001600160a01b031614613f8d57613f8d818561447d565b6001600160a01b038516613fa957613fa484614521565b612f93565b846001600160a01b0316816001600160a01b031614612f9357612f9385856145f8565b60606000613fdd8360200151614653565b83516040850151613ff19061ffff16614653565b85606001516040516020016140099493929190615b06565b60405160208183030381529060405290508060405160200161402b9190615beb565b60408051601f198184030181529190529392505050565b61404b82614753565b6040516001600160a01b038316907fbc7cd75a20ee27fd9adebab32041f755214dbc6bffa90cc0225b39da2e5c2d3b90600090a280511561409057610dee82826147b8565b6109bc614825565b604080514260208201526001600160601b03193360601b1691810191909152605481018290526000908190610100906074016040516020818303038152906040528051906020012060001c6140ed919061581c565b90506000816140fd600143615a3f565b6141079190615a3f565b40949350505050565b61411a8383614844565b610dee6000848484613822565b600080600083516041036141615760208401516040850151606086015160001a614153888285856148a9565b95509550955050505061416d565b50508151600091506002905b9250925092565b600082600381111561418857614188615c10565b03614191575050565b60018260038111156141a5576141a5615c10565b036141c35760405163f645eedf60e01b815260040160405180910390fd5b60028260038111156141d7576141d7615c10565b036141f85760405163fce698f760e01b8152600481018290526024016109e6565b600382600381111561420c5761420c615c10565b036109bc576040516335e2f38360e21b8152600481018290526024016109e6565b606061423882612f07565b50600061425060408051602081019091526000815290565b905060008151116142705760405180602001604052806000815250612f96565b8061427a84614978565b60405160200161428b929190615ad7565b6040516020818303038152906040529392505050565b7ff0c57e16840df040f15088dc2f81fe391c3923bec73e23a9662efc9c229c6a0054600160401b900460ff1661117657604051631afcd79f60e31b815260040160405180910390fd5b612ce76142a1565b6142fa6142a1565b600080516020615c8d8339815191528061431484826154d7565b5060018101610a4a83826154d7565b60006001600160e01b031982166380ac58cd60e01b148061435457506001600160e01b03198216635b5e139f60e01b145b806108f257506301ffc9a760e01b6001600160e01b03198316146108f2565b6000600080516020615c8d8339815191528161438e85613d83565b90506001600160a01b038416156143aa576143aa818587614a0a565b6001600160a01b038116156143ea576143c7600086600080613dbd565b6001600160a01b0381166000908152600383016020526040902080546000190190555b6001600160a01b0386161561441b576001600160a01b03861660009081526003830160205260409020805460010190555b600085815260028301602052604080822080546001600160a01b0319166001600160a01b038a811691821790925591518893918516917fddf252ad1be2c89b69c2b068fc378daa952ba7f163c4a11628f55a4df523b3ef91a495945050505050565b600080516020615c6d833981519152600061449784611108565b60008481526001840160205260409020549091508082146144ec576001600160a01b03851660009081526020848152604080832085845282528083205484845281842081905583526001860190915290208190555b50600092835260018201602090815260408085208590556001600160a01b039095168452918252838320908352905290812055565b600080516020615ccd83398151915254600080516020615c6d8339815191529060009061455090600190615a3f565b600084815260038401602052604081205460028501805493945090928490811061457c5761457c615422565b906000526020600020015490508084600201838154811061459f5761459f615422565b6000918252602080832090910192909255828152600386019091526040808220849055868252812055600284018054806145db576145db615c26565b600190038181906000526020600020016000905590555050505050565b600080516020615c6d8339815191526000600161461485611108565b61461e9190615a3f565b6001600160a01b0390941660009081526020838152604080832087845282528083208690559482526001909301909252502055565b60608160000361467a5750506040805180820190915260018152600360fc1b602082015290565b8160005b81156146a4578061468e81615470565b915061469d9050600a83615c3c565b915061467e565b6000816001600160401b038111156146be576146be614e7a565b6040519080825280601f01601f1916602001820160405280156146e8576020820181803683370190505b5090505b84156134dc576146fd600183615a3f565b915061470a600a8661581c565b6147159060306156e0565b60f81b81838151811061472a5761472a615422565b60200101906001600160f81b031916908160001a90535061474c600a86615c3c565b94506146ec565b806001600160a01b03163b60000361478957604051634c9c8ce360e01b81526001600160a01b03821660048201526024016109e6565b600080516020615cad83398151915280546001600160a01b0319166001600160a01b0392909216919091179055565b6060600080846001600160a01b0316846040516147d59190615c50565b600060405180830381855af49150503d8060008114614810576040519150601f19603f3d011682016040523d82523d6000602084013e614815565b606091505b509150915061304b858383614a6e565b34156111765760405163b398979f60e01b815260040160405180910390fd5b6001600160a01b03821661486e57604051633250574960e11b8152600060048201526024016109e6565b600061487c83836000612f86565b90506001600160a01b03811615610dee576040516339e3563760e11b8152600060048201526024016109e6565b600080807f7fffffffffffffffffffffffffffffff5d576e7357a4501ddfe92f46681b20a08411156148e4575060009150600390508261496e565b604080516000808252602082018084528a905260ff891692820192909252606081018790526080810186905260019060a0016020604051602081039080840390855afa158015614938573d6000803e3d6000fd5b5050604051601f1901519150506001600160a01b0381166149645750600092506001915082905061496e565b9250600091508190505b9450945094915050565b6060600061498583614aca565b60010190506000816001600160401b038111156149a4576149a4614e7a565b6040519080825280601f01601f1916602001820160405280156149ce576020820181803683370190505b5090508181016020015b600019016f181899199a1a9b1b9c1cb0b131b232b360811b600a86061a8153600a85049450846149d857509392505050565b614a15838383614ba2565b610dee576001600160a01b038316614a4357604051637e27328960e01b8152600481018290526024016109e6565b60405163177e802f60e01b81526001600160a01b0383166004820152602481018290526044016109e6565b606082614a8357614a7e82614c07565b612f96565b8151158015614a9a57506001600160a01b0384163b155b15614ac357604051639996b31560e01b81526001600160a01b03851660048201526024016109e6565b5080612f96565b60008072184f03e93ff9f4daa797ed6e38ed64bf6a1f0160401b8310614b095772184f03e93ff9f4daa797ed6e38ed64bf6a1f0160401b830492506040015b6d04ee2d6d415b85acef81000000008310614b35576d04ee2d6d415b85acef8100000000830492506020015b662386f26fc100008310614b5357662386f26fc10000830492506010015b6305f5e1008310614b6b576305f5e100830492506008015b6127108310614b7f57612710830492506004015b60648310614b91576064830492506002015b600a83106108f25760010192915050565b60006001600160a01b03831615801590612f935750826001600160a01b0316846001600160a01b03161480614bdc5750614bdc8484612893565b80612f935750826001600160a01b0316614bf583612f3f565b6001600160a01b031614949350505050565b805115614c175780518082602001fd5b604051630a12f52160e11b815260040160405180910390fd5b604051806040016040528060008152602001614c7160405180608001604052806060815260200160008152602001600061ffff168152602001606081525090565b905290565b828054828255906000526020600020908101928215614cbc579160200282015b82811115614cbc5782518290614cac90826154d7565b5091602001919060010190614c96565b50614cc8929150614ccc565b5090565b80821115614cc8576000614ce08282614ce9565b50600101614ccc565b508054614cf5906153ee565b6000825580601f10614d05575050565b601f016020900490600052602060002090810190612d1a91905b80821115614cc85760008155600101614d1f565b6001600160e01b031981168114612d1a57600080fd5b600060208284031215614d5b57600080fd5b8135612f9681614d33565b60005b83811015614d81578181015183820152602001614d69565b50506000910152565b60008151808452614da2816020860160208601614d66565b601f01601f19169290920160200192915050565b602081526000612f966020830184614d8a565b600060208284031215614ddb57600080fd5b5035919050565b80356001600160a01b0381168114610ab857600080fd5b60008060408385031215614e0c57600080fd5b614e1583614de2565b946020939093013593505050565b600080600060608486031215614e3857600080fd5b614e4184614de2565b9250614e4f60208501614de2565b9150604084013590509250925092565b600060208284031215614e7157600080fd5b612f9682614de2565b634e487b7160e01b600052604160045260246000fd5b604051601f8201601f191681016001600160401b0381118282101715614eb857614eb8614e7a565b604052919050565b803561ffff81168114610ab857600080fd5b60008060408385031215614ee557600080fd5b82356001600160401b0380821115614efc57600080fd5b818501915085601f830112614f1057600080fd5b8135602082821115614f2457614f24614e7a565b8160051b9250614f35818401614e90565b8281529284018101928181019089851115614f4f57600080fd5b948201945b84861015614f6d57853582529482019490820190614f54565b9650614f7c9050878201614ec0565b9450505050509250929050565b6020808252825182820181905260009190848201906040850190845b81811015614fc157835183529284019291840191600101614fa5565b50909695505050505050565b60006001600160401b03831115614fe657614fe6614e7a565b614ff9601f8401601f1916602001614e90565b905082815283838301111561500d57600080fd5b828260208301376000602084830101529392505050565b600082601f83011261503557600080fd5b612f9683833560208501614fcd565b6000806040838503121561505757600080fd5b61506083614de2565b915060208301356001600160401b0381111561507b57600080fd5b61508785828601615024565b9150509250929050565b60006020808301818452808551808352604092508286019150828160051b87010184880160005b8381101561513b57603f1989840381018652825180518552880151888501889052805160808987018190526150f060c0880183614d8a565b91508a830151606081818a015261ffff8c86015116838a0152808501519450505050828682030160a08701526151268183614d8a565b978a01979550505091870191506001016150b8565b509098975050505050505050565b8015158114612d1a57600080fd5b6000806040838503121561516a57600080fd5b61517383614de2565b9150602083013561518381615149565b809150509250929050565b600080600080608085870312156151a457600080fd5b6151ad85614de2565b93506151bb60208601614de2565b92506040850135915060608501356001600160401b038111156151dd57600080fd5b6151e987828801615024565b91505092959194509250565b600060a082840312156113e057600080fd5b60006020828403121561521957600080fd5b81356001600160401b0381111561522f57600080fd5b6134dc848285016151f5565b60808152600061524e6080830187614d8a565b85602084015261ffff8516604084015282810360608401526152708185614d8a565b979650505050505050565b60008060008060008060c0878903121561529457600080fd5b61529d87614de2565b95506152ab60208801614de2565b94506152b960408801614de2565b93506152c760608801614de2565b92506152d560808801614de2565b91506152e360a08801614de2565b90509295509295509295565b60006020828403121561530157600080fd5b81356001600160401b0381111561531757600080fd5b82016101408185031215612f9657600080fd5b6000806040838503121561533d57600080fd5b61534683614de2565b915060208301356001600160401b0381111561536157600080fd5b8301601f8101851361537257600080fd5b61508785823560208401614fcd565b6000806040838503121561539457600080fd5b61539d83614de2565b91506153ab60208401614de2565b90509250929050565b6000602082840312156153c657600080fd5b81356001600160401b038111156153dc57600080fd5b820160c08185031215612f9657600080fd5b600181811c9082168061540257607f821691505b6020821081036113e057634e487b7160e01b600052602260045260246000fd5b634e487b7160e01b600052603260045260246000fd5b634e487b7160e01b600052601160045260246000fd5b61ffff82811682821603908082111561546957615469615438565b5092915050565b60006001820161548257615482615438565b5060010190565b601f821115610dee57600081815260208120601f850160051c810160208610156154b05750805b601f850160051c820191505b818110156154cf578281556001016154bc565b505050505050565b81516001600160401b038111156154f0576154f0614e7a565b615504816154fe84546153ee565b84615489565b602080601f83116001811461553957600084156155215750858301515b600019600386901b1c1916600185901b1785556154cf565b600085815260208120601f198616915b8281101561556857888601518255948401946001909101908401615549565b50858210156155865787850151600019600388901b60f8161c191681555b5050505050600190811b01905550565b6000808335601e198436030181126155ad57600080fd5b8301803591506001600160401b038211156155c757600080fd5b6020019150600581901b36038213156155df57600080fd5b9250929050565b81835260006001600160fb1b038311156155ff57600080fd5b8260051b80836020870137939093016020019392505050565b8681528560208201526080604082015260006156386080830186886155e6565b828103606084015261564b8185876155e6565b9998505050505050505050565b6000808335601e1984360301811261566f57600080fd5b8301803591506001600160401b0382111561568957600080fd5b6020019150368190038213156155df57600080fd5b60208082526022908201527f496e76616c6964206f7220756e617574686f72697a6564207369676e61747572604082015261329760f11b606082015260800190565b808201808211156108f2576108f2615438565b6020808252602e908201527f4974656d20706f77657220646f6573206e6f74206d617463682074686520726560408201526d38bab2b9ba32b2103b30b63ab29760911b606082015260800190565b60006020828403121561575357600080fd5b8151612f9681615149565b60006020828403121561577057600080fd5b612f9682614ec0565b898152886020820152876040820152600061ffff60f01b808960f01b166060840152808860f01b1660628401525084866064840137506064930192830191909152608482015260a4019695505050505050565b8581528460208201526bffffffffffffffffffffffff198460601b1660408201528183605483013760009101605401908152949350505050565b634e487b7160e01b600052601260045260246000fd5b60008261582b5761582b615806565b500690565b8481526080602082015260006158496080830186614d8a565b6040830194909452506060015292915050565b81835281816020850137506000828201602090810191909152601f909101601f19169091010190565b8881526000602060a0818401526158a060a084018a8c6155e6565b8381036040850152878152818101600589901b820183018a60005b8b81101561592a57848303601f190184528135368e9003601e190181126158e157600080fd5b8d0186810190356001600160401b038111156158fc57600080fd5b80360382131561590b57600080fd5b61591685828461585c565b9588019594505050908501906001016158bb565b5050858103606087015261593f81898b6155e6565b9450505050508260808301529998505050505050505050565b6001600160401b0383111561596f5761596f614e7a565b6159838361597d83546153ee565b83615489565b6000601f8411600181146159b7576000851561599f5750838201355b600019600387901b1c1916600186901b178355612cd8565b600083815260209020601f19861690835b828110156159e857868501358255602094850194600190920191016159c8565b5086821015615a055760001960f88860031b161c19848701351681555b505060018560011b0183555050505050565b938452602084019290925260601b6001600160601b0319166040830152605482015260740190565b818103818111156108f2576108f2615438565b600060208284031215615a6457600080fd5b5051919050565b6001600160a01b0385811682528416602082015260408101839052608060608201819052600090613d5490830184614d8a565b600060208284031215615ab057600080fd5b8151612f9681614d33565b60008151615acd818560208601614d66565b9290920192915050565b60008351615ae9818460208801614d66565b835190830190615afd818360208801614d66565b01949350505050565b607b60f81b81526d1124ba32b6a837bbb2b9111d101160911b60018201528451600090615b3a81600f850160208a01614d66565b6201116160ed1b600f9184019182018190526c1124ba32b6aa3cb832911d101160991b60128301528651615b7581601f850160208b01614d66565b601f92019182018190526e11223ab930b134b634ba3c911d101160891b60228301528551615baa816031850160208a01614d66565b6031920191820152721121b430b930b1ba32b927bbb732b9111d101160691b6034820152615270615bde6047830186615abb565b601160f91b815260010190565b60008251615bfd818460208701614d66565b607d60f81b920191825250600101919050565b634e487b7160e01b600052602160045260246000fd5b634e487b7160e01b600052603160045260246000fd5b600082615c4b57615c4b615806565b500490565b60008251615c62818460208701614d66565b919091019291505056fe645e039705490088daad89bae25049a34f4a9072d398537b1ab2425f24cbed0080bb2b638cc20bc4d0a60d66940f3ab4a00c1d7b313497ca82fb0b4ab0079300360894a13ba1a3210667c828492db98dca3e2076cc3735a920a3ca505d382bbc645e039705490088daad89bae25049a34f4a9072d398537b1ab2425f24cbed02a26469706673582212201e7be51312c530a2f72bd2665155e1cfa9722217bea534f446ea73d663b2c13264736f6c63430008140033",
  "linkReferences": {},
  "deployedLinkReferences": {}
}